{
  "abi": [
    {
      "inputs": [
        {
          "internalType": "address",
          "name": "_manager",
          "type": "address"
        }
      ],
      "stateMutability": "nonpayable",
      "type": "constructor"
    },
    {
      "inputs": [],
      "name": "distributeDollars",
      "outputs": [],
      "stateMutability": "nonpayable",
      "type": "function"
    },
    {
      "inputs": [],
      "name": "manager",
      "outputs": [
        {
          "internalType": "contract UbiquityAlgorithmicDollarManager",
          "name": "",
          "type": "address"
        }
      ],
      "stateMutability": "view",
      "type": "function"
    }
  ],
  "bytecode": {
    "object": "0x60c060405268056bc75e2d6310000060805273d9e1ce17f2641f24ae83637ab66a2cca9c378b9f60a0523480156200003657600080fd5b50604051620026483803806200264883398101604081905262000059916200007f565b600080546001600160a01b0319166001600160a01b0392909216919091179055620000b1565b6000602082840312156200009257600080fd5b81516001600160a01b0381168114620000aa57600080fd5b9392505050565b60805160a05161254e620000fa60003960008181610a7e01528181610b5101528181610bee01528181610c8001528181610d0d0152611ea0015260006101b4015261254e6000f3fe608060405234801561001057600080fd5b50600436106100365760003560e01c8063481c6a751461003b578063651156bc14610084575b600080fd5b60005461005b9073ffffffffffffffffffffffffffffffffffffffff1681565b60405173ffffffffffffffffffffffffffffffffffffffff909116815260200160405180910390f35b61008c61008e565b005b60008060009054906101000a900473ffffffffffffffffffffffffffffffffffffffff1673ffffffffffffffffffffffffffffffffffffffff1663bc3ea0186040518163ffffffff1660e01b8152600401602060405180830381865afa1580156100fc573d6000803e3d6000fd5b505050506040513d601f19601f82011682018060405250810190610120919061211b565b6040517f70a0823100000000000000000000000000000000000000000000000000000000815230600482015273ffffffffffffffffffffffffffffffffffffffff91909116906370a0823190602401602060405180830381865afa15801561018c573d6000803e3d6000fd5b505050506040513d601f19601f820116820180604052508101906101b09190612151565b90507f00000000000000000000000000000000000000000000000000000000000000008111156103d35760008060009054906101000a900473ffffffffffffffffffffffffffffffffffffffff1673ffffffffffffffffffffffffffffffffffffffff1663c5f956af6040518163ffffffff1660e01b8152600401602060405180830381865afa158015610248573d6000803e3d6000fd5b505050506040513d601f19601f8201168201806040525081019061026c919061211b565b905060006102d86102b1610280600a6103d6565b610289866103d6565b7fffffffffffffffffffffffffffffffff000000000000000000000000000000001690610444565b7fffffffffffffffffffffffffffffffff00000000000000000000000000000000166108c7565b905060006102f56102b16102ec60026103d6565b610289876103d6565b90506103a8838260008054906101000a900473ffffffffffffffffffffffffffffffffffffffff1673ffffffffffffffffffffffffffffffffffffffff1663bc3ea0186040518163ffffffff1660e01b8152600401602060405180830381865afa158015610367573d6000803e3d6000fd5b505050506040513d601f19601f8201168201806040525081019061038b919061211b565b73ffffffffffffffffffffffffffffffffffffffff169190610986565b6103b182610a5f565b6103ce826103bf8387612199565b6103c99190612199565b610f6d565b505050505b50565b6000816000036103e857506000919050565b8160006103f482611992565b9050607081101561040d578060700382901b9150610420565b6070811115610420576070810382901c91505b613fff0160701b6dffffffffffffffffffffffffffff919091161760801b92915050565b6000617fff60f084811c8216919084901c8116908290036104c05780617fff0361049357507f7fff80000000000000000000000000000000000000000000000000000000000091506108c19050565b5050507f8000000000000000000000000000000000000000000000000000000000000000811682186108c1565b80617fff03610547577dffffffffffffffffffffffffffff0000000000000000000000000000000084161561051a57507f7fff80000000000000000000000000000000000000000000000000000000000091506108c19050565b5050508082187f8000000000000000000000000000000000000000000000000000000000000000166108c1565b7f7fffffffffffffffffffffffffffffff000000000000000000000000000000008416600003610615577f7fffffffffffffffffffffffffffffff0000000000000000000000000000000085166000036105c657507f7fff80000000000000000000000000000000000000000000000000000000000091506108c19050565b5050508082187f8000000000000000000000000000000000000000000000000000000000000000167f7fff000000000000000000000000000000000000000000000000000000000000176108c1565b6dffffffffffffffffffffffffffff608085901c16600082900361063c576001915061064e565b6e010000000000000000000000000000175b6dffffffffffffffffffffffffffff608087901c1660008490036106b65780156106b157600061067d82611992565b6001955060e2039384017fffffffffffffffffffffffffffffffffffffffffffffffffffffffffffffff8e01939190911b90505b6106cb565b6e0100000000000000000000000000001760721b5b8181816106da576106da6121ac565b04905080600003610742577f800000000000000000000000000000000000000000000000000000000000000087871816610715576000610737565b7f80000000000000000000000000000000000000000000000000000000000000005b9450505050506108c1565b6d1000000000000000000000000000811015610760576107606121db565b60006e0800000000000000000000000000008210156107c0576e0400000000000000000000000000008210156107b5576e0200000000000000000000000000008210156107ae5760706107b8565b60716107b8565b60725b60ff166107c9565b6107c982611992565b9050836140710181860111156107e757617fff945060009150610881565b83818601613ffc011015610802576000945060009150610881565b83818601613f8c01101561084f578385613ffc01111561082d578385613ffc010382901b9150610846565b8385613ffc01101561084657613ffc8585030382901c91505b60009450610881565b6070811115610862576070810382901c91505b6dffffffffffffffffffffffffffff8216915083818601613f8d010394505b81607086901b888a186f8000000000000000000000000000000060801b1660801c6fffffffffffffffffffffffffffffffff16171760801b955050505050505b92915050565b6000617fff60f083901c16613fff8110156108e55750600092915050565b6f80000000000000000000000000000000608084901c1061090557600080fd5b6140fe81111561091457600080fd5b6e0100000000000000000000000000006dffffffffffffffffffffffffffff608085901c161761406f8210156109505761406f8290031c61097f565b61406f82111561097f577fffffffffffffffffffffffffffffffffffffffffffffffffffffffffffffbf9182011b5b9392505050565b60405173ffffffffffffffffffffffffffffffffffffffff8316602482015260448101829052610a5a9084907fa9059cbb00000000000000000000000000000000000000000000000000000000906064015b604080517fffffffffffffffffffffffffffffffffffffffffffffffffffffffffffffffe08184030181529190526020810180517bffffffffffffffffffffffffffffffffffffffffffffffffffffffff167fffffffff0000000000000000000000000000000000000000000000000000000090931692909217909152611a42565b505050565b6000610a77610a6e60026103d6565b610289846103d6565b9050610b4c7f000000000000000000000000000000000000000000000000000000000000000060008060009054906101000a900473ffffffffffffffffffffffffffffffffffffffff1673ffffffffffffffffffffffffffffffffffffffff1663bc3ea0186040518163ffffffff1660e01b8152600401602060405180830381865afa158015610b0b573d6000803e3d6000fd5b505050506040513d601f19601f82011682018060405250810190610b2f919061211b565b73ffffffffffffffffffffffffffffffffffffffff169190611b53565b610bdc7f00000000000000000000000000000000000000000000000000000000000000008360008054906101000a900473ffffffffffffffffffffffffffffffffffffffff1673ffffffffffffffffffffffffffffffffffffffff1663bc3ea0186040518163ffffffff1660e01b8152600401602060405180830381865afa158015610b0b573d6000803e3d6000fd5b6000610be782611cd5565b9050610c7b7f000000000000000000000000000000000000000000000000000000000000000060008060009054906101000a900473ffffffffffffffffffffffffffffffffffffffff1673ffffffffffffffffffffffffffffffffffffffff1663b42165d06040518163ffffffff1660e01b8152600401602060405180830381865afa158015610b0b573d6000803e3d6000fd5b610d0b7f00000000000000000000000000000000000000000000000000000000000000008260008054906101000a900473ffffffffffffffffffffffffffffffffffffffff1673ffffffffffffffffffffffffffffffffffffffff1663b42165d06040518163ffffffff1660e01b8152600401602060405180830381865afa158015610b0b573d6000803e3d6000fd5b7f000000000000000000000000000000000000000000000000000000000000000073ffffffffffffffffffffffffffffffffffffffff1663e8e3370060008054906101000a900473ffffffffffffffffffffffffffffffffffffffff1673ffffffffffffffffffffffffffffffffffffffff1663bc3ea0186040518163ffffffff1660e01b8152600401602060405180830381865afa158015610db2573d6000803e3d6000fd5b505050506040513d601f19601f82011682018060405250810190610dd6919061211b565b60008054906101000a900473ffffffffffffffffffffffffffffffffffffffff1673ffffffffffffffffffffffffffffffffffffffff1663b42165d06040518163ffffffff1660e01b8152600401602060405180830381865afa158015610e41573d6000803e3d6000fd5b505050506040513d601f19601f82011682018060405250810190610e65919061211b565b610e907fffffffffffffffffffffffffffffffff0000000000000000000000000000000087166108c7565b8560008080610ea042606461220a565b60405160e08a901b7fffffffff0000000000000000000000000000000000000000000000000000000016815273ffffffffffffffffffffffffffffffffffffffff9889166004820152968816602488015260448701959095526064860193909352608485019190915260a484015290921660c482015260e4810191909152610104016060604051808303816000875af1158015610f41573d6000803e3d6000fd5b505050506040513d601f19601f82011682018060405250810190610f65919061221d565b505050505050565b60008060009054906101000a900473ffffffffffffffffffffffffffffffffffffffff1673ffffffffffffffffffffffffffffffffffffffff1663bc3ea0186040518163ffffffff1660e01b8152600401602060405180830381865afa158015610fdb573d6000803e3d6000fd5b505050506040513d601f19601f82011682018060405250810190610fff919061211b565b73ffffffffffffffffffffffffffffffffffffffff1663095ea7b360008054906101000a900473ffffffffffffffffffffffffffffffffffffffff1673ffffffffffffffffffffffffffffffffffffffff1663d3815fb96040518163ffffffff1660e01b8152600401602060405180830381865afa158015611085573d6000803e3d6000fd5b505050506040513d601f19601f820116820180604052508101906110a9919061211b565b6040517fffffffff0000000000000000000000000000000000000000000000000000000060e084901b16815273ffffffffffffffffffffffffffffffffffffffff9091166004820152600060248201526044016020604051808303816000875af115801561111b573d6000803e3d6000fd5b505050506040513d601f19601f8201168201806040525081019061113f919061224b565b5060008054906101000a900473ffffffffffffffffffffffffffffffffffffffff1673ffffffffffffffffffffffffffffffffffffffff1663bc3ea0186040518163ffffffff1660e01b8152600401602060405180830381865afa1580156111ab573d6000803e3d6000fd5b505050506040513d601f19601f820116820180604052508101906111cf919061211b565b73ffffffffffffffffffffffffffffffffffffffff1663095ea7b360008054906101000a900473ffffffffffffffffffffffffffffffffffffffff1673ffffffffffffffffffffffffffffffffffffffff1663d3815fb96040518163ffffffff1660e01b8152600401602060405180830381865afa158015611255573d6000803e3d6000fd5b505050506040513d601f19601f82011682018060405250810190611279919061211b565b6040517fffffffff0000000000000000000000000000000000000000000000000000000060e084901b16815273ffffffffffffffffffffffffffffffffffffffff9091166004820152602481018590526044016020604051808303816000875af11580156112eb573d6000803e3d6000fd5b505050506040513d601f19601f8201168201806040525081019061130f919061224b565b5060008060009054906101000a900473ffffffffffffffffffffffffffffffffffffffff1673ffffffffffffffffffffffffffffffffffffffff1663d3815fb96040518163ffffffff1660e01b8152600401602060405180830381865afa15801561137e573d6000803e3d6000fd5b505050506040513d601f19601f820116820180604052508101906113a2919061211b565b6040517f3df021240000000000000000000000000000000000000000000000000000000081526000600482018190526001602483015260448201869052606482015273ffffffffffffffffffffffffffffffffffffffff9190911690633df02124906084016020604051808303816000875af1158015611426573d6000803e3d6000fd5b505050506040513d601f19601f8201168201806040525081019061144a9190612151565b905060008054906101000a900473ffffffffffffffffffffffffffffffffffffffff1673ffffffffffffffffffffffffffffffffffffffff1663017df3276040518163ffffffff1660e01b8152600401602060405180830381865afa1580156114b7573d6000803e3d6000fd5b505050506040513d601f19601f820116820180604052508101906114db919061211b565b73ffffffffffffffffffffffffffffffffffffffff1663095ea7b360008054906101000a900473ffffffffffffffffffffffffffffffffffffffff1673ffffffffffffffffffffffffffffffffffffffff1663d3815fb96040518163ffffffff1660e01b8152600401602060405180830381865afa158015611561573d6000803e3d6000fd5b505050506040513d601f19601f82011682018060405250810190611585919061211b565b6040517fffffffff0000000000000000000000000000000000000000000000000000000060e084901b16815273ffffffffffffffffffffffffffffffffffffffff9091166004820152600060248201526044016020604051808303816000875af11580156115f7573d6000803e3d6000fd5b505050506040513d601f19601f8201168201806040525081019061161b919061224b565b5060008054906101000a900473ffffffffffffffffffffffffffffffffffffffff1673ffffffffffffffffffffffffffffffffffffffff1663017df3276040518163ffffffff1660e01b8152600401602060405180830381865afa158015611687573d6000803e3d6000fd5b505050506040513d601f19601f820116820180604052508101906116ab919061211b565b73ffffffffffffffffffffffffffffffffffffffff1663095ea7b360008054906101000a900473ffffffffffffffffffffffffffffffffffffffff1673ffffffffffffffffffffffffffffffffffffffff1663d3815fb96040518163ffffffff1660e01b8152600401602060405180830381865afa158015611731573d6000803e3d6000fd5b505050506040513d601f19601f82011682018060405250810190611755919061211b565b6040517fffffffff0000000000000000000000000000000000000000000000000000000060e084901b16815273ffffffffffffffffffffffffffffffffffffffff9091166004820152602481018490526044016020604051808303816000875af11580156117c7573d6000803e3d6000fd5b505050506040513d601f19601f820116820180604052508101906117eb919061224b565b5060008060009054906101000a900473ffffffffffffffffffffffffffffffffffffffff1673ffffffffffffffffffffffffffffffffffffffff1663d3815fb96040518163ffffffff1660e01b8152600401602060405180830381865afa15801561185a573d6000803e3d6000fd5b505050506040513d601f19601f8201168201806040525081019061187e919061211b565b60408051808201825260008082526020808301879052815484517fde71c1db000000000000000000000000000000000000000000000000000000008152945173ffffffffffffffffffffffffffffffffffffffff96871696630c3e4b549692169263de71c1db92600480820193918290030181865afa158015611905573d6000803e3d6000fd5b505050506040513d601f19601f82011682018060405250810190611929919061211b565b6040518463ffffffff1660e01b81526004016119479392919061226d565b6020604051808303816000875af1158015611966573d6000803e3d6000fd5b505050506040513d601f19601f8201168201806040525081019061198a9190612151565b949350505050565b60008082116119a057600080fd5b600070010000000000000000000000000000000083106119c257608092831c92015b6801000000000000000083106119da57604092831c92015b64010000000083106119ee57602092831c92015b620100008310611a0057601092831c92015b6101008310611a1157600892831c92015b60108310611a2157600492831c92015b60048310611a3157600292831c92015b600283106108c15760010192915050565b6000611aa4826040518060400160405280602081526020017f5361666545524332303a206c6f772d6c6576656c2063616c6c206661696c65648152508573ffffffffffffffffffffffffffffffffffffffff16611faa9092919063ffffffff16565b805190915015610a5a5780806020019051810190611ac2919061224b565b610a5a576040517f08c379a000000000000000000000000000000000000000000000000000000000815260206004820152602a60248201527f5361666545524332303a204552433230206f7065726174696f6e20646964206e60448201527f6f7420737563636565640000000000000000000000000000000000000000000060648201526084015b60405180910390fd5b801580611bf357506040517fdd62ed3e00000000000000000000000000000000000000000000000000000000815230600482015273ffffffffffffffffffffffffffffffffffffffff838116602483015284169063dd62ed3e90604401602060405180830381865afa158015611bcd573d6000803e3d6000fd5b505050506040513d601f19601f82011682018060405250810190611bf19190612151565b155b611c7f576040517f08c379a000000000000000000000000000000000000000000000000000000000815260206004820152603660248201527f5361666545524332303a20617070726f76652066726f6d206e6f6e2d7a65726f60448201527f20746f206e6f6e2d7a65726f20616c6c6f77616e6365000000000000000000006064820152608401611b4a565b60405173ffffffffffffffffffffffffffffffffffffffff8316602482015260448101829052610a5a9084907f095ea7b300000000000000000000000000000000000000000000000000000000906064016109d8565b6040805160028082526060820183526000928392919060208301908036833701905050905060008054906101000a900473ffffffffffffffffffffffffffffffffffffffff1673ffffffffffffffffffffffffffffffffffffffff1663bc3ea0186040518163ffffffff1660e01b8152600401602060405180830381865afa158015611d65573d6000803e3d6000fd5b505050506040513d601f19601f82011682018060405250810190611d89919061211b565b81600081518110611d9c57611d9c6122f1565b602002602001019073ffffffffffffffffffffffffffffffffffffffff16908173ffffffffffffffffffffffffffffffffffffffff168152505060008054906101000a900473ffffffffffffffffffffffffffffffffffffffff1673ffffffffffffffffffffffffffffffffffffffff1663b42165d06040518163ffffffff1660e01b8152600401602060405180830381865afa158015611e41573d6000803e3d6000fd5b505050506040513d601f19601f82011682018060405250810190611e65919061211b565b81600181518110611e7857611e786122f1565b73ffffffffffffffffffffffffffffffffffffffff92831660209182029290920101526000907f0000000000000000000000000000000000000000000000000000000000000000166338ed1739611ef07fffffffffffffffffffffffffffffffff0000000000000000000000000000000087166108c7565b60008530611eff42606461220a565b6040518663ffffffff1660e01b8152600401611f1f959493929190612320565b6000604051808303816000875af1158015611f3e573d6000803e3d6000fd5b505050506040513d6000823e601f3d9081017fffffffffffffffffffffffffffffffffffffffffffffffffffffffffffffffe0168201604052611f8491908101906123ab565b905080600181518110611f9957611f996122f1565b602002602001015192505050919050565b606061198a8484600085856000808673ffffffffffffffffffffffffffffffffffffffff168587604051611fde91906124ab565b60006040518083038185875af1925050503d806000811461201b576040519150601f19603f3d011682016040523d82523d6000602084013e612020565b606091505b50915091506120318783838761203c565b979650505050505050565b606083156120d25782516000036120cb5773ffffffffffffffffffffffffffffffffffffffff85163b6120cb576040517f08c379a000000000000000000000000000000000000000000000000000000000815260206004820152601d60248201527f416464726573733a2063616c6c20746f206e6f6e2d636f6e74726163740000006044820152606401611b4a565b508161198a565b61198a83838151156120e75781518083602001fd5b806040517f08c379a0000000000000000000000000000000000000000000000000000000008152600401611b4a91906124c7565b60006020828403121561212d57600080fd5b815173ffffffffffffffffffffffffffffffffffffffff8116811461097f57600080fd5b60006020828403121561216357600080fd5b5051919050565b7f4e487b7100000000000000000000000000000000000000000000000000000000600052601160045260246000fd5b818103818111156108c1576108c161216a565b7f4e487b7100000000000000000000000000000000000000000000000000000000600052601260045260246000fd5b7f4e487b7100000000000000000000000000000000000000000000000000000000600052600160045260246000fd5b808201808211156108c1576108c161216a565b60008060006060848603121561223257600080fd5b8351925060208401519150604084015190509250925092565b60006020828403121561225d57600080fd5b8151801515811461097f57600080fd5b60808101818560005b6002811015612295578151835260209283019290910190600101612276565b50505083604083015273ffffffffffffffffffffffffffffffffffffffff83166060830152949350505050565b7f4e487b7100000000000000000000000000000000000000000000000000000000600052604160045260246000fd5b7f4e487b7100000000000000000000000000000000000000000000000000000000600052603260045260246000fd5b600060a082018783526020878185015260a0604085015281875180845260c086019150828901935060005b8181101561237d57845173ffffffffffffffffffffffffffffffffffffffff168352938301939183019160010161234b565b505073ffffffffffffffffffffffffffffffffffffffff969096166060850152505050608001529392505050565b600060208083850312156123be57600080fd5b825167ffffffffffffffff808211156123d657600080fd5b818501915085601f8301126123ea57600080fd5b8151818111156123fc576123fc6122c2565b8060051b6040517fffffffffffffffffffffffffffffffffffffffffffffffffffffffffffffffe0603f8301168101818110858211171561243f5761243f6122c2565b60405291825284820192508381018501918883111561245d57600080fd5b938501935b8285101561247b57845184529385019392850192612462565b98975050505050505050565b60005b838110156124a257818101518382015260200161248a565b50506000910152565b600082516124bd818460208701612487565b9190910192915050565b60208152600082518060208401526124e6816040850160208701612487565b601f017fffffffffffffffffffffffffffffffffffffffffffffffffffffffffffffffe016919091016040019291505056fea2646970667358221220f58609363cf473491ed66b89679ecbbc69431b6a4fc92e3adfbae5e8ae15edbb64736f6c63430008100033",
    "linkReferences": {}
  },
  "methodIdentifiers": {
    "distributeDollars()": "651156bc",
    "manager()": "481c6a75"
  },
  "userdoc": {
    "version": 1,
    "kind": "user"
  },
  "devdoc": {
    "version": 1,
    "kind": "dev",
    "methods": {
      "constructor": {
        "params": {
          "_manager": "the address of the manager contract so we can fetch variables"
        }
      }
    },
    "title": "An excess dollar distributor which sends dollars to treasury, lp rewards and inflation rewards"
  },
  "id": 57
}