{
  "abi": [
    {
      "inputs": [
        {
          "internalType": "uint256",
          "name": "amount",
          "type": "uint256"
        }
      ],
      "name": "add",
      "outputs": [
        {
          "internalType": "uint256",
          "name": "",
          "type": "uint256"
        }
      ],
      "stateMutability": "pure",
      "type": "function"
    },
    {
      "inputs": [],
      "name": "max",
      "outputs": [
        {
          "internalType": "uint256",
          "name": "",
          "type": "uint256"
        }
      ],
      "stateMutability": "pure",
      "type": "function"
    }
  ],
  "bytecode": {
    "object": "0x608060405234801561001057600080fd5b50610939806100206000396000f3fe608060405234801561001057600080fd5b50600436106100365760003560e01c80631003e2d21461003b5780636ac5db1914610060575b600080fd5b61004e6100493660046108ea565b610068565b60405190815260200160405180910390f35b61004e6100f9565b60007fffffffffffffffffffffffffffffffffffffffffffffffffffffffffffffffff6100f26100cb61009a8561012e565b6100a38461012e565b7fffffffffffffffffffffffffffffffff000000000000000000000000000000001690610199565b7fffffffffffffffffffffffffffffffff000000000000000000000000000000001661077c565b9392505050565b60007fffffffffffffffffffffffffffffffffffffffffffffffffffffffffffffffff6101286100cb8261012e565b91505090565b60008161013d57506000919050565b8160006101498261083a565b90506070811015610162578060700382901b9150610175565b6070811115610175576070810382901c91505b613fff0160701b6dffffffffffffffffffffffffffff919091161760801b92915050565b6000617fff60f084811c8216919084901c81169082141561022a5780617fff1415610220577fffffffffffffffffffffffffffffffff0000000000000000000000000000000085811690851614156101f5578492505050610776565b507f7fff80000000000000000000000000000000000000000000000000000000000091506107769050565b8492505050610776565b80617fff141561023e578392505050610776565b6f80000000000000000000000000000000608086901c90811015906dffffffffffffffffffffffffffff16836102775760019350610289565b6e010000000000000000000000000000175b6f80000000000000000000000000000000608087901c90811015906dffffffffffffffffffffffffffff16846102c257600194506102d4565b6e010000000000000000000000000000175b82610338577fffffffffffffffffffffffffffffffff0000000000000000000000000000000088167f800000000000000000000000000000000000000000000000000000000000000014610328578761032b565b60005b9650505050505050610776565b8061038c577fffffffffffffffffffffffffffffffff0000000000000000000000000000000089167f800000000000000000000000000000000000000000000000000000000000000014610328578861032b565b848603841515831515141561051a5760708113156103b35789975050505050505050610776565b60008113156103c55790811c90610412565b7fffffffffffffffffffffffffffffffffffffffffffffffffffffffffffffff908112156103fc5788975050505050505050610776565b6000811215610412578060000384901c93508596505b928101926e0200000000000000000000000000008410610438576001968701969390931c925b86617fff141561049d578461046d577f7fff00000000000000000000000000000000000000000000000000000000000061048f565b7fffff0000000000000000000000000000000000000000000000000000000000005b975050505050505050610776565b6e0100000000000000000000000000008410156104bd57600096506104d1565b6dffffffffffffffffffffffffffff841693505b83607088901b866104e35760006104f5565b6f800000000000000000000000000000005b6fffffffffffffffffffffffffffffffff16171760801b975050505050505050610776565b600081131561053557600184901b935060018703965061054c565b600081121561054c57600182901b91506001860396505b607081131561055e57600191506105e7565b600181131561057b576001810360018303901c60010191506105e7565b7fffffffffffffffffffffffffffffffffffffffffffffffffffffffffffffff908112156105ac57600193506105e7565b7fffffffffffffffffffffffffffffffffffffffffffffffffffffffffffffffff8112156105e7576001816000030360018503901c60010193505b8184106105f8578184039350610601565b83820393508294505b8361061757506000965061077695505050505050565b60006106228561083a565b9050806071141561064f57600185901c6dffffffffffffffffffffffffffff1694506001880197506106ca565b60708110156106b657607081900380891115610685578086901b6dffffffffffffffffffffffffffff16955080890398506106b0565b6000987fffffffffffffffffffffffffffffffffffffffffffffffffffffffffffffffff019590951b945b506106ca565b6dffffffffffffffffffffffffffff851694505b87617fff141561073057856106ff577f7fff000000000000000000000000000000000000000000000000000000000000610721565b7fffff0000000000000000000000000000000000000000000000000000000000005b98505050505050505050610776565b84607089901b87610742576000610754565b6f800000000000000000000000000000005b6fffffffffffffffffffffffffffffffff16171760801b985050505050505050505b92915050565b6000617fff60f083901c16613fff81101561079a5750600092915050565b6f80000000000000000000000000000000608084901c106107ba57600080fd5b6140fe8111156107c957600080fd5b6e0100000000000000000000000000006dffffffffffffffffffffffffffff608085901c161761406f8210156108055761406f8290031c6100f2565b61406f8211156100f2577fffffffffffffffffffffffffffffffffffffffffffffffffffffffffffffbf9182011b9392505050565b600080821161084857600080fd5b6000700100000000000000000000000000000000831061086a57608092831c92015b68010000000000000000831061088257604092831c92015b640100000000831061089657602092831c92015b6201000083106108a857601092831c92015b61010083106108b957600892831c92015b601083106108c957600492831c92015b600483106108d957600292831c92015b600283106107765760010192915050565b6000602082840312156108fc57600080fd5b503591905056fea26469706673582212207529fda34f1594d2ecdc38ed07b9499a5424cbaec1668ae97a4fe7bb0d28a5e464736f6c63430008090033",
    "linkReferences": {}
  },
  "methodIdentifiers": {
    "add(uint256)": "1003e2d2",
    "max()": "6ac5db19"
  },
  "id": 37
}