{
  "abi": [
    {
      "inputs": [
        {
          "internalType": "address",
          "name": "_manager",
          "type": "address"
        },
        {
          "internalType": "address",
          "name": "_sablier",
          "type": "address"
        }
      ],
      "stateMutability": "nonpayable",
      "type": "constructor"
    },
    {
      "anonymous": false,
      "inputs": [
        {
          "indexed": false,
          "internalType": "uint256",
          "name": "_blockCountInAWeek",
          "type": "uint256"
        }
      ],
      "name": "BlockCountInAWeekUpdated",
      "type": "event"
    },
    {
      "anonymous": false,
      "inputs": [
        {
          "indexed": false,
          "internalType": "uint256",
          "name": "_blockRonding",
          "type": "uint256"
        }
      ],
      "name": "BlockRondingUpdated",
      "type": "event"
    },
    {
      "anonymous": false,
      "inputs": [
        {
          "indexed": false,
          "internalType": "uint256",
          "name": "_bondingDiscountMultiplier",
          "type": "uint256"
        }
      ],
      "name": "BondingDiscountMultiplierUpdated",
      "type": "event"
    },
    {
      "anonymous": false,
      "inputs": [
        {
          "indexed": false,
          "internalType": "address",
          "name": "_to",
          "type": "address"
        },
        {
          "indexed": false,
          "internalType": "address",
          "name": "token",
          "type": "address"
        },
        {
          "indexed": false,
          "internalType": "uint256",
          "name": "amount",
          "type": "uint256"
        }
      ],
      "name": "DustSent",
      "type": "event"
    },
    {
      "anonymous": false,
      "inputs": [
        {
          "indexed": false,
          "internalType": "uint256",
          "name": "_maxBondingPrice",
          "type": "uint256"
        }
      ],
      "name": "MaxBondingPriceUpdated",
      "type": "event"
    },
    {
      "anonymous": false,
      "inputs": [
        {
          "indexed": false,
          "internalType": "address",
          "name": "_token",
          "type": "address"
        }
      ],
      "name": "ProtocolTokenAdded",
      "type": "event"
    },
    {
      "anonymous": false,
      "inputs": [
        {
          "indexed": false,
          "internalType": "address",
          "name": "_token",
          "type": "address"
        }
      ],
      "name": "ProtocolTokenRemoved",
      "type": "event"
    },
    {
      "anonymous": false,
      "inputs": [
        {
          "indexed": false,
          "internalType": "uint256",
          "name": "_redeemStreamTime",
          "type": "uint256"
        }
      ],
      "name": "RedeemStreamTimeUpdated",
      "type": "event"
    },
    {
      "anonymous": false,
      "inputs": [
        {
          "indexed": false,
          "internalType": "address",
          "name": "_sablier",
          "type": "address"
        }
      ],
      "name": "SablierUpdated",
      "type": "event"
    },
    {
      "anonymous": false,
      "inputs": [
        {
          "indexed": false,
          "internalType": "uint256",
          "name": "_uGOVPerBlock",
          "type": "uint256"
        }
      ],
      "name": "UGOVPerBlockUpdated",
      "type": "event"
    },
    {
      "inputs": [],
      "name": "ETH_ADDRESS",
      "outputs": [
        {
          "internalType": "address",
          "name": "",
          "type": "address"
        }
      ],
      "stateMutability": "view",
      "type": "function"
    },
    {
      "inputs": [],
      "name": "ONE",
      "outputs": [
        {
          "internalType": "uint256",
          "name": "",
          "type": "uint256"
        }
      ],
      "stateMutability": "view",
      "type": "function"
    },
    {
      "inputs": [
        {
          "internalType": "address",
          "name": "_token",
          "type": "address"
        }
      ],
      "name": "addProtocolToken",
      "outputs": [],
      "stateMutability": "nonpayable",
      "type": "function"
    },
    {
      "inputs": [],
      "name": "blockCountInAWeek",
      "outputs": [
        {
          "internalType": "uint256",
          "name": "",
          "type": "uint256"
        }
      ],
      "stateMutability": "view",
      "type": "function"
    },
    {
      "inputs": [],
      "name": "blockRonding",
      "outputs": [
        {
          "internalType": "uint256",
          "name": "",
          "type": "uint256"
        }
      ],
      "stateMutability": "view",
      "type": "function"
    },
    {
      "inputs": [],
      "name": "bondingDiscountMultiplier",
      "outputs": [
        {
          "internalType": "uint256",
          "name": "",
          "type": "uint256"
        }
      ],
      "stateMutability": "view",
      "type": "function"
    },
    {
      "inputs": [
        {
          "internalType": "uint256",
          "name": "amount",
          "type": "uint256"
        }
      ],
      "name": "crvPriceReset",
      "outputs": [],
      "stateMutability": "nonpayable",
      "type": "function"
    },
    {
      "inputs": [],
      "name": "currentShareValue",
      "outputs": [
        {
          "internalType": "uint256",
          "name": "priceShare",
          "type": "uint256"
        }
      ],
      "stateMutability": "view",
      "type": "function"
    },
    {
      "inputs": [],
      "name": "currentTokenPrice",
      "outputs": [
        {
          "internalType": "uint256",
          "name": "",
          "type": "uint256"
        }
      ],
      "stateMutability": "view",
      "type": "function"
    },
    {
      "inputs": [],
      "name": "data",
      "outputs": [
        {
          "internalType": "bytes",
          "name": "",
          "type": "bytes"
        }
      ],
      "stateMutability": "view",
      "type": "function"
    },
    {
      "inputs": [
        {
          "internalType": "uint256",
          "name": "_lpsAmount",
          "type": "uint256"
        },
        {
          "internalType": "uint256",
          "name": "_weeks",
          "type": "uint256"
        }
      ],
      "name": "deposit",
      "outputs": [
        {
          "internalType": "uint256",
          "name": "_id",
          "type": "uint256"
        }
      ],
      "stateMutability": "nonpayable",
      "type": "function"
    },
    {
      "inputs": [],
      "name": "manager",
      "outputs": [
        {
          "internalType": "contract UbiquityAlgorithmicDollarManager",
          "name": "",
          "type": "address"
        }
      ],
      "stateMutability": "view",
      "type": "function"
    },
    {
      "inputs": [],
      "name": "redeemStreamTime",
      "outputs": [
        {
          "internalType": "uint256",
          "name": "",
          "type": "uint256"
        }
      ],
      "stateMutability": "view",
      "type": "function"
    },
    {
      "inputs": [
        {
          "internalType": "address",
          "name": "_token",
          "type": "address"
        }
      ],
      "name": "removeProtocolToken",
      "outputs": [],
      "stateMutability": "nonpayable",
      "type": "function"
    },
    {
      "inputs": [],
      "name": "sablier",
      "outputs": [
        {
          "internalType": "contract ISablier",
          "name": "",
          "type": "address"
        }
      ],
      "stateMutability": "view",
      "type": "function"
    },
    {
      "inputs": [
        {
          "internalType": "address",
          "name": "_to",
          "type": "address"
        },
        {
          "internalType": "address",
          "name": "_token",
          "type": "address"
        },
        {
          "internalType": "uint256",
          "name": "_amount",
          "type": "uint256"
        }
      ],
      "name": "sendDust",
      "outputs": [],
      "stateMutability": "nonpayable",
      "type": "function"
    },
    {
      "inputs": [
        {
          "internalType": "uint256",
          "name": "_blockCountInAWeek",
          "type": "uint256"
        }
      ],
      "name": "setBlockCountInAWeek",
      "outputs": [],
      "stateMutability": "nonpayable",
      "type": "function"
    },
    {
      "inputs": [
        {
          "internalType": "uint256",
          "name": "_blockRonding",
          "type": "uint256"
        }
      ],
      "name": "setBlockRonding",
      "outputs": [],
      "stateMutability": "nonpayable",
      "type": "function"
    },
    {
      "inputs": [
        {
          "internalType": "uint256",
          "name": "_bondingDiscountMultiplier",
          "type": "uint256"
        }
      ],
      "name": "setBondingDiscountMultiplier",
      "outputs": [],
      "stateMutability": "nonpayable",
      "type": "function"
    },
    {
      "inputs": [
        {
          "internalType": "uint256",
          "name": "_redeemStreamTime",
          "type": "uint256"
        }
      ],
      "name": "setRedeemStreamTime",
      "outputs": [],
      "stateMutability": "nonpayable",
      "type": "function"
    },
    {
      "inputs": [
        {
          "internalType": "address",
          "name": "_sablier",
          "type": "address"
        }
      ],
      "name": "setSablier",
      "outputs": [],
      "stateMutability": "nonpayable",
      "type": "function"
    },
    {
      "inputs": [
        {
          "internalType": "uint256",
          "name": "_uGOVPerBlock",
          "type": "uint256"
        }
      ],
      "name": "setUGOVPerBlock",
      "outputs": [],
      "stateMutability": "nonpayable",
      "type": "function"
    },
    {
      "inputs": [
        {
          "internalType": "uint256",
          "name": "amount",
          "type": "uint256"
        }
      ],
      "name": "uADPriceReset",
      "outputs": [],
      "stateMutability": "nonpayable",
      "type": "function"
    },
    {
      "inputs": [],
      "name": "uGOVPerBlock",
      "outputs": [
        {
          "internalType": "uint256",
          "name": "",
          "type": "uint256"
        }
      ],
      "stateMutability": "view",
      "type": "function"
    },
    {
      "inputs": [
        {
          "internalType": "uint256",
          "name": "_sharesAmount",
          "type": "uint256"
        },
        {
          "internalType": "uint256",
          "name": "_id",
          "type": "uint256"
        }
      ],
      "name": "withdraw",
      "outputs": [],
      "stateMutability": "nonpayable",
      "type": "function"
    },
    {
      "stateMutability": "payable",
      "type": "receive"
    }
  ],
  "bytecode": {
    "object": "0x60a0604052600060809081526002906200001a908262000144565b5066038d7ea4c680006005556201518060065561b131600755606460085560016009553480156200004a57600080fd5b5060405162003fc638038062003fc68339810160408190526200006d916200022d565b600380546001600160a01b039384166001600160a01b0319918216179091556004805492909316911617905562000265565b634e487b7160e01b600052604160045260246000fd5b600181811c90821680620000ca57607f821691505b602082108103620000eb57634e487b7160e01b600052602260045260246000fd5b50919050565b601f8211156200013f57600081815260208120601f850160051c810160208610156200011a5750805b601f850160051c820191505b818110156200013b5782815560010162000126565b5050505b505050565b81516001600160401b038111156200016057620001606200009f565b6200017881620001718454620000b5565b84620000f1565b602080601f831160018114620001b05760008415620001975750858301515b600019600386901b1c1916600185901b1785556200013b565b600085815260208120601f198616915b82811015620001e157888601518255948401946001909101908401620001c0565b5085821015620002005787850151600019600388901b60f8161c191681555b5050505050600190811b01905550565b80516001600160a01b03811681146200022857600080fd5b919050565b600080604083850312156200024157600080fd5b6200024c8362000210565b91506200025c6020840162000210565b90509250929050565b613d5180620002756000396000f3fe60806040526004361061019a5760003560e01c80638039d081116100e1578063aadc68a51161008a578063e2bbb15811610064578063e2bbb1581461043b578063e8a8fad51461045b578063fa3305c914610471578063ffd65a491461049157600080fd5b8063aadc68a5146103ea578063bf0d68e4146103ff578063c2ee3a081461041f57600080fd5b8063a194bcde116100bb578063a194bcde1461038c578063a734f06e146103ac578063aa1ec70a146103d457600080fd5b80638039d081146103405780638f88f38d14610356578063900965561461036c57600080fd5b8063482879aa1161014357806371cc5c0b1161011d57806371cc5c0b146102de57806373d4a13a146102fe5780637cc6bd411461032057600080fd5b8063482879aa146102895780636b71f457146102a957806371b3659e146102c957600080fd5b8063441a3e7011610174578063441a3e701461020857806347e54e3814610228578063481c6a751461025157600080fd5b80632db8c129146101a65780632f72589e146101c85780633b1ba367146101e857600080fd5b366101a157005b600080fd5b3480156101b257600080fd5b506101c66101c13660046138e9565b6104b1565b005b3480156101d457600080fd5b506101c66101e336600461392a565b61061f565b3480156101f457600080fd5b506101c661020336600461392a565b6107b4565b34801561021457600080fd5b506101c6610223366004613943565b610e20565b34801561023457600080fd5b5061023e60095481565b6040519081526020015b60405180910390f35b34801561025d57600080fd5b50600354610271906001600160a01b031681565b6040516001600160a01b039091168152602001610248565b34801561029557600080fd5b50600454610271906001600160a01b031681565b3480156102b557600080fd5b506101c66102c436600461392a565b611384565b3480156102d557600080fd5b5061023e611512565b3480156102ea57600080fd5b506101c66102f936600461392a565b6116a3565b34801561030a57600080fd5b50610313611831565b60405161024891906139d3565b34801561032c57600080fd5b506101c661033b36600461392a565b6118bf565b34801561034c57600080fd5b5061023e60085481565b34801561036257600080fd5b5061023e60055481565b34801561037857600080fd5b506101c66103873660046139e6565b611ec3565b34801561039857600080fd5b506101c66103a736600461392a565b612082565b3480156103b857600080fd5b5061027173eeeeeeeeeeeeeeeeeeeeeeeeeeeeeeeeeeeeeeee81565b3480156103e057600080fd5b5061023e60075481565b3480156103f657600080fd5b5061023e612210565b34801561040b57600080fd5b506101c661041a3660046139e6565b612502565b34801561042b57600080fd5b5061023e670de0b6b3a764000081565b34801561044757600080fd5b5061023e610456366004613943565b612667565b34801561046757600080fd5b5061023e60065481565b34801561047d57600080fd5b506101c661048c3660046139e6565b6129e3565b34801561049d57600080fd5b506101c66104ac36600461392a565b612b45565b600354604080517fe6c7354000000000000000000000000000000000000000000000000000000000815290516001600160a01b03909216916391d1485491839163e6c73540916004808201926020929091908290030181865afa15801561051c573d6000803e3d6000fd5b505050506040513d601f19601f820116820180604052508101906105409190613a0a565b6040517fffffffff0000000000000000000000000000000000000000000000000000000060e084901b1681526004810191909152336024820152604401602060405180830381865afa15801561059a573d6000803e3d6000fd5b505050506040513d601f19601f820116820180604052508101906105be9190613a23565b61060f5760405162461bcd60e51b815260206004820152601f60248201527f43616c6c6572206973206e6f74206120626f6e64696e67206d616e616765720060448201526064015b60405180910390fd5b61061a838383612cd3565b505050565b600354604080517fe6c7354000000000000000000000000000000000000000000000000000000000815290516001600160a01b03909216916391d1485491839163e6c73540916004808201926020929091908290030181865afa15801561068a573d6000803e3d6000fd5b505050506040513d601f19601f820116820180604052508101906106ae9190613a0a565b6040517fffffffff0000000000000000000000000000000000000000000000000000000060e084901b1681526004810191909152336024820152604401602060405180830381865afa158015610708573d6000803e3d6000fd5b505050506040513d601f19601f8201168201806040525081019061072c9190613a23565b6107785760405162461bcd60e51b815260206004820152601f60248201527f43616c6c6572206973206e6f74206120626f6e64696e67206d616e61676572006044820152606401610606565b60078190556040518181527f3a1c0b7d3cdecbab83b82697d51cbcdb308b3bbae63e597cbc958deb9c830e50906020015b60405180910390a150565b600354604080517fe6c7354000000000000000000000000000000000000000000000000000000000815290516001600160a01b03909216916391d1485491839163e6c73540916004808201926020929091908290030181865afa15801561081f573d6000803e3d6000fd5b505050506040513d601f19601f820116820180604052508101906108439190613a0a565b6040517fffffffff0000000000000000000000000000000000000000000000000000000060e084901b1681526004810191909152336024820152604401602060405180830381865afa15801561089d573d6000803e3d6000fd5b505050506040513d601f19601f820116820180604052508101906108c19190613a23565b61090d5760405162461bcd60e51b815260206004820152601f60248201527f43616c6c6572206973206e6f74206120626f6e64696e67206d616e61676572006044820152606401610606565b600354604080517fd3815fb900000000000000000000000000000000000000000000000000000000815290516000926001600160a01b03169163d3815fb99160048083019260209291908290030181865afa158015610970573d6000803e3d6000fd5b505050506040513d601f19601f820116820180604052508101906109949190613a45565b9050610a223083600360009054906101000a90046001600160a01b03166001600160a01b031663d3815fb96040518163ffffffff1660e01b8152600401602060405180830381865afa1580156109ee573d6000803e3d6000fd5b505050506040513d601f19601f82011682018060405250810190610a129190613a45565b6001600160a01b03169190612e9d565b6040517fcc2b27d700000000000000000000000000000000000000000000000000000000815260048101839052600060248201819052906064906001600160a01b0384169063cc2b27d790604401602060405180830381865afa158015610a8d573d6000803e3d6000fd5b505050506040513d601f19601f82011682018060405250810190610ab19190613a0a565b610abc906063613a91565b610ac69190613afd565b6040517f1a4d01d20000000000000000000000000000000000000000000000000000000081526004810185905260006024820152604481018290529091506001600160a01b03831690631a4d01d2906064016020604051808303816000875af1158015610b37573d6000803e3d6000fd5b505050506040513d601f19601f82011682018060405250810190610b5b9190613a0a565b50600360009054906101000a90046001600160a01b03166001600160a01b0316638fe636836040518163ffffffff1660e01b8152600401602060405180830381865afa158015610baf573d6000803e3d6000fd5b505050506040513d601f19601f82011682018060405250810190610bd39190613a45565b6001600160a01b031663a2e620456040518163ffffffff1660e01b8152600401600060405180830381600087803b158015610c0d57600080fd5b505af1158015610c21573d6000803e3d6000fd5b5050505061061a600360009054906101000a90046001600160a01b03166001600160a01b031663c5f956af6040518163ffffffff1660e01b8152600401602060405180830381865afa158015610c7b573d6000803e3d6000fd5b505050506040513d601f19601f82011682018060405250810190610c9f9190613a45565b600360009054906101000a90046001600160a01b03166001600160a01b031663bc3ea0186040518163ffffffff1660e01b8152600401602060405180830381865afa158015610cf2573d6000803e3d6000fd5b505050506040513d601f19601f82011682018060405250810190610d169190613a45565b6040517f70a082310000000000000000000000000000000000000000000000000000000081523060048201526001600160a01b0391909116906370a0823190602401602060405180830381865afa158015610d75573d6000803e3d6000fd5b505050506040513d601f19601f82011682018060405250810190610d999190613a0a565b600360009054906101000a90046001600160a01b03166001600160a01b031663bc3ea0186040518163ffffffff1660e01b8152600401602060405180830381865afa158015610dec573d6000803e3d6000fd5b505050506040513d601f19601f82011682018060405250810190610e109190613a45565b6001600160a01b03169190613069565b804311610e955760405162461bcd60e51b815260206004820152602f60248201527f426f6e64696e673a2052656465656d206e6f7420616c6c6f776564206265666f60448201527f726520626f6e64696e672074696d6500000000000000000000000000000000006064820152608401610606565b600354604080517fc431e83c000000000000000000000000000000000000000000000000000000008152905184926001600160a01b03169163c431e83c9160048083019260209291908290030181865afa158015610ef7573d6000803e3d6000fd5b505050506040513d601f19601f82011682018060405250810190610f1b9190613a45565b6040517efdd58e000000000000000000000000000000000000000000000000000000008152336004820152602481018490526001600160a01b03919091169062fdd58e90604401602060405180830381865afa158015610f7f573d6000803e3d6000fd5b505050506040513d601f19601f82011682018060405250810190610fa39190613a0a565b10156110175760405162461bcd60e51b815260206004820152602b60248201527f426f6e64696e673a2063616c6c657220646f6573206e6f74206861766520656e60448201527f6f756768207368617265730000000000000000000000000000000000000000006064820152608401610606565b61101f6130b2565b600360009054906101000a90046001600160a01b03166001600160a01b031663221e2e606040518163ffffffff1660e01b8152600401602060405180830381865afa158015611072573d6000803e3d6000fd5b505050506040513d601f19601f820116820180604052508101906110969190613a45565b6040517fb5c5f67200000000000000000000000000000000000000000000000000000000815233600482015260248101849052604481018390526001600160a01b03919091169063b5c5f67290606401600060405180830381600087803b15801561110057600080fd5b505af1158015611114573d6000803e3d6000fd5b505050506000611122612210565b9050600360009054906101000a90046001600160a01b03166001600160a01b031663c431e83c6040518163ffffffff1660e01b8152600401602060405180830381865afa158015611177573d6000803e3d6000fd5b505050506040513d601f19601f8201168201806040525081019061119b9190613a45565b6040517ff5298aca00000000000000000000000000000000000000000000000000000000815233600482015260248101849052604481018590526001600160a01b03919091169063f5298aca90606401600060405180830381600087803b15801561120557600080fd5b505af1158015611219573d6000803e3d6000fd5b5050505061061a33600360009054906101000a90046001600160a01b03166001600160a01b031663214f78826040518163ffffffff1660e01b8152600401602060405180830381865afa158015611274573d6000803e3d6000fd5b505050506040513d601f19601f820116820180604052508101906112989190613a45565b6040517fd58d45a80000000000000000000000000000000000000000000000000000000081526004810187905260248101859052670de0b6b3a764000060448201526001600160a01b03919091169063d58d45a890606401602060405180830381865afa15801561130d573d6000803e3d6000fd5b505050506040513d601f19601f820116820180604052508101906113319190613a0a565b600360009054906101000a90046001600160a01b03166001600160a01b031663d3815fb96040518163ffffffff1660e01b8152600401602060405180830381865afa158015610dec573d6000803e3d6000fd5b600354604080517fe6c7354000000000000000000000000000000000000000000000000000000000815290516001600160a01b03909216916391d1485491839163e6c73540916004808201926020929091908290030181865afa1580156113ef573d6000803e3d6000fd5b505050506040513d601f19601f820116820180604052508101906114139190613a0a565b6040517fffffffff0000000000000000000000000000000000000000000000000000000060e084901b1681526004810191909152336024820152604401602060405180830381865afa15801561146d573d6000803e3d6000fd5b505050506040513d601f19601f820116820180604052508101906114919190613a23565b6114dd5760405162461bcd60e51b815260206004820152601f60248201527f43616c6c6572206973206e6f74206120626f6e64696e67206d616e61676572006044820152606401610606565b60068190556040518181527f52e79878e695c50b75f241e6e286fa05123b26ab77b631b3d6dbae872718add7906020016107a9565b600354604080517f8fe6368300000000000000000000000000000000000000000000000000000000815290516000926001600160a01b031691638fe636839160048083019260209291908290030181865afa158015611575573d6000803e3d6000fd5b505050506040513d601f19601f820116820180604052508101906115999190613a45565b6001600160a01b031663283583c6600360009054906101000a90046001600160a01b03166001600160a01b031663bc3ea0186040518163ffffffff1660e01b8152600401602060405180830381865afa1580156115fa573d6000803e3d6000fd5b505050506040513d601f19601f8201168201806040525081019061161e9190613a45565b6040517fffffffff0000000000000000000000000000000000000000000000000000000060e084901b1681526001600160a01b039091166004820152602401602060405180830381865afa15801561167a573d6000803e3d6000fd5b505050506040513d601f19601f8201168201806040525081019061169e9190613a0a565b905090565b600354604080517fe6c7354000000000000000000000000000000000000000000000000000000000815290516001600160a01b03909216916391d1485491839163e6c73540916004808201926020929091908290030181865afa15801561170e573d6000803e3d6000fd5b505050506040513d601f19601f820116820180604052508101906117329190613a0a565b6040517fffffffff0000000000000000000000000000000000000000000000000000000060e084901b1681526004810191909152336024820152604401602060405180830381865afa15801561178c573d6000803e3d6000fd5b505050506040513d601f19601f820116820180604052508101906117b09190613a23565b6117fc5760405162461bcd60e51b815260206004820152601f60248201527f43616c6c6572206973206e6f74206120626f6e64696e67206d616e61676572006044820152606401610606565b60088190556040518181527f3ea14a9ca9078eab3bb86287b1d08190ecdf30412b4f465e05655efca79e18b5906020016107a9565b6002805461183e90613b11565b80601f016020809104026020016040519081016040528092919081815260200182805461186a90613b11565b80156118b75780601f1061188c576101008083540402835291602001916118b7565b820191906000526020600020905b81548152906001019060200180831161189a57829003601f168201915b505050505081565b600354604080517fe6c7354000000000000000000000000000000000000000000000000000000000815290516001600160a01b03909216916391d1485491839163e6c73540916004808201926020929091908290030181865afa15801561192a573d6000803e3d6000fd5b505050506040513d601f19601f8201168201806040525081019061194e9190613a0a565b6040517fffffffff0000000000000000000000000000000000000000000000000000000060e084901b1681526004810191909152336024820152604401602060405180830381865afa1580156119a8573d6000803e3d6000fd5b505050506040513d601f19601f820116820180604052508101906119cc9190613a23565b611a185760405162461bcd60e51b815260206004820152601f60248201527f43616c6c6572206973206e6f74206120626f6e64696e67206d616e61676572006044820152606401610606565b600354604080517fd3815fb900000000000000000000000000000000000000000000000000000000815290516000926001600160a01b03169163d3815fb99160048083019260209291908290030181865afa158015611a7b573d6000803e3d6000fd5b505050506040513d601f19601f82011682018060405250810190611a9f9190613a45565b9050611af93083600360009054906101000a90046001600160a01b03166001600160a01b031663d3815fb96040518163ffffffff1660e01b8152600401602060405180830381865afa1580156109ee573d6000803e3d6000fd5b6040517fcc2b27d700000000000000000000000000000000000000000000000000000000815260048101839052600160248201526000906064906001600160a01b0384169063cc2b27d790604401602060405180830381865afa158015611b64573d6000803e3d6000fd5b505050506040513d601f19601f82011682018060405250810190611b889190613a0a565b611b93906063613a91565b611b9d9190613afd565b6040517f1a4d01d20000000000000000000000000000000000000000000000000000000081526004810185905260016024820152604481018290529091506001600160a01b03831690631a4d01d2906064016020604051808303816000875af1158015611c0e573d6000803e3d6000fd5b505050506040513d601f19601f82011682018060405250810190611c329190613a0a565b50600360009054906101000a90046001600160a01b03166001600160a01b0316638fe636836040518163ffffffff1660e01b8152600401602060405180830381865afa158015611c86573d6000803e3d6000fd5b505050506040513d601f19601f82011682018060405250810190611caa9190613a45565b6001600160a01b031663a2e620456040518163ffffffff1660e01b8152600401600060405180830381600087803b158015611ce457600080fd5b505af1158015611cf8573d6000803e3d6000fd5b5050505061061a600360009054906101000a90046001600160a01b03166001600160a01b031663c5f956af6040518163ffffffff1660e01b8152600401602060405180830381865afa158015611d52573d6000803e3d6000fd5b505050506040513d601f19601f82011682018060405250810190611d769190613a45565b600360009054906101000a90046001600160a01b03166001600160a01b031663017df3276040518163ffffffff1660e01b8152600401602060405180830381865afa158015611dc9573d6000803e3d6000fd5b505050506040513d601f19601f82011682018060405250810190611ded9190613a45565b6040517f70a082310000000000000000000000000000000000000000000000000000000081523060048201526001600160a01b0391909116906370a0823190602401602060405180830381865afa158015611e4c573d6000803e3d6000fd5b505050506040513d601f19601f82011682018060405250810190611e709190613a0a565b600360009054906101000a90046001600160a01b03166001600160a01b031663017df3276040518163ffffffff1660e01b8152600401602060405180830381865afa158015610dec573d6000803e3d6000fd5b600354604080517fe6c7354000000000000000000000000000000000000000000000000000000000815290516001600160a01b03909216916391d1485491839163e6c73540916004808201926020929091908290030181865afa158015611f2e573d6000803e3d6000fd5b505050506040513d601f19601f82011682018060405250810190611f529190613a0a565b6040517fffffffff0000000000000000000000000000000000000000000000000000000060e084901b1681526004810191909152336024820152604401602060405180830381865afa158015611fac573d6000803e3d6000fd5b505050506040513d601f19601f82011682018060405250810190611fd09190613a23565b61201c5760405162461bcd60e51b815260206004820152601f60248201527f43616c6c6572206973206e6f74206120626f6e64696e67206d616e61676572006044820152606401610606565b600480547fffffffffffffffffffffffff0000000000000000000000000000000000000000166001600160a01b0383169081179091556040519081527fede46239079ed9c62ee2a695104eb8fcdb9fb7b8ad77863caa0641b7e2fa5201906020016107a9565b600354604080517fe6c7354000000000000000000000000000000000000000000000000000000000815290516001600160a01b03909216916391d1485491839163e6c73540916004808201926020929091908290030181865afa1580156120ed573d6000803e3d6000fd5b505050506040513d601f19601f820116820180604052508101906121119190613a0a565b6040517fffffffff0000000000000000000000000000000000000000000000000000000060e084901b1681526004810191909152336024820152604401602060405180830381865afa15801561216b573d6000803e3d6000fd5b505050506040513d601f19601f8201168201806040525081019061218f9190613a23565b6121db5760405162461bcd60e51b815260206004820152601f60248201527f43616c6c6572206973206e6f74206120626f6e64696e67206d616e61676572006044820152606401610606565b60058190556040518181527fd04894175d9fa4e8890c5d32ca8845426912f890c3d8ac5b5a561045892f8995906020016107a9565b600080600360009054906101000a90046001600160a01b03166001600160a01b031663d3815fb96040518163ffffffff1660e01b8152600401602060405180830381865afa158015612266573d6000803e3d6000fd5b505050506040513d601f19601f8201168201806040525081019061228a9190613a45565b6040517f70a082310000000000000000000000000000000000000000000000000000000081523060048201526001600160a01b0391909116906370a0823190602401602060405180830381865afa1580156122e9573d6000803e3d6000fd5b505050506040513d601f19601f8201168201806040525081019061230d9190613a0a565b90506000600360009054906101000a90046001600160a01b03166001600160a01b031663c431e83c6040518163ffffffff1660e01b8152600401602060405180830381865afa158015612364573d6000803e3d6000fd5b505050506040513d601f19601f820116820180604052508101906123889190613a45565b6001600160a01b03166318160ddd6040518163ffffffff1660e01b8152600401602060405180830381865afa1580156123c5573d6000803e3d6000fd5b505050506040513d601f19601f820116820180604052508101906123e99190613a0a565b9050600360009054906101000a90046001600160a01b03166001600160a01b031663214f78826040518163ffffffff1660e01b8152600401602060405180830381865afa15801561243e573d6000803e3d6000fd5b505050506040513d601f19601f820116820180604052508101906124629190613a45565b6040517fcd3242090000000000000000000000000000000000000000000000000000000081526004810184905260248101839052670de0b6b3a764000060448201526001600160a01b03919091169063cd32420990606401602060405180830381865afa1580156124d7573d6000803e3d6000fd5b505050506040513d601f19601f820116820180604052508101906124fb9190613a0a565b9250505090565b600354604080517fe6c7354000000000000000000000000000000000000000000000000000000000815290516001600160a01b03909216916391d1485491839163e6c73540916004808201926020929091908290030181865afa15801561256d573d6000803e3d6000fd5b505050506040513d601f19601f820116820180604052508101906125919190613a0a565b6040517fffffffff0000000000000000000000000000000000000000000000000000000060e084901b1681526004810191909152336024820152604401602060405180830381865afa1580156125eb573d6000803e3d6000fd5b505050506040513d601f19601f8201168201806040525081019061260f9190613a23565b61265b5760405162461bcd60e51b815260206004820152601f60248201527f43616c6c6572206973206e6f74206120626f6e64696e67206d616e61676572006044820152606401610606565b6126648161317d565b50565b60008160011115801561267b575060d08211155b6126ed5760405162461bcd60e51b815260206004820152603160248201527f426f6e64696e673a206475726174696f6e206d7573742062652062657477656560448201527f6e203120616e6420323038207765656b730000000000000000000000000000006064820152608401610606565b6126f56130b2565b612783333085600360009054906101000a90046001600160a01b03166001600160a01b031663d3815fb96040518163ffffffff1660e01b8152600401602060405180830381865afa15801561274e573d6000803e3d6000fd5b505050506040513d601f19601f820116820180604052508101906127729190613a45565b6001600160a01b031692919061323f565b600354604080517f214f788200000000000000000000000000000000000000000000000000000000815290516000926001600160a01b03169163214f78829160048083019260209291908290030181865afa1580156127e6573d6000803e3d6000fd5b505050506040513d601f19601f8201168201806040525081019061280a9190613a45565b6005546040517f5b374a40000000000000000000000000000000000000000000000000000000008152600481018790526024810186905260448101919091526001600160a01b039190911690635b374a4090606401602060405180830381865afa15801561287c573d6000803e3d6000fd5b505050506040513d601f19601f820116820180604052508101906128a09190613a0a565b90506000600754846128b29190613a91565b6128bc9043613b64565b9050600854816128cc9190613b77565b6128d69082613b8b565b92506128e28284613290565b600360009054906101000a90046001600160a01b03166001600160a01b031663221e2e606040518163ffffffff1660e01b8152600401602060405180830381865afa158015612935573d6000803e3d6000fd5b505050506040513d601f19601f820116820180604052508101906129599190613a45565b6040517f0efe6a8b00000000000000000000000000000000000000000000000000000000815233600482015260248101849052604481018590526001600160a01b039190911690630efe6a8b90606401600060405180830381600087803b1580156129c357600080fd5b505af11580156129d7573d6000803e3d6000fd5b50505050505092915050565b600354604080517fe6c7354000000000000000000000000000000000000000000000000000000000815290516001600160a01b03909216916391d1485491839163e6c73540916004808201926020929091908290030181865afa158015612a4e573d6000803e3d6000fd5b505050506040513d601f19601f82011682018060405250810190612a729190613a0a565b6040517fffffffff0000000000000000000000000000000000000000000000000000000060e084901b1681526004810191909152336024820152604401602060405180830381865afa158015612acc573d6000803e3d6000fd5b505050506040513d601f19601f82011682018060405250810190612af09190613a23565b612b3c5760405162461bcd60e51b815260206004820152601f60248201527f43616c6c6572206973206e6f74206120626f6e64696e67206d616e61676572006044820152606401610606565b612664816133f2565b600354604080517fe6c7354000000000000000000000000000000000000000000000000000000000815290516001600160a01b03909216916391d1485491839163e6c73540916004808201926020929091908290030181865afa158015612bb0573d6000803e3d6000fd5b505050506040513d601f19601f82011682018060405250810190612bd49190613a0a565b6040517fffffffff0000000000000000000000000000000000000000000000000000000060e084901b1681526004810191909152336024820152604401602060405180830381865afa158015612c2e573d6000803e3d6000fd5b505050506040513d601f19601f82011682018060405250810190612c529190613a23565b612c9e5760405162461bcd60e51b815260206004820152601f60248201527f43616c6c6572206973206e6f74206120626f6e64696e67206d616e61676572006044820152606401610606565b60098190556040518181527f291233015412afe6d80870385b5c5eaa1bd28ef79ce03048c75522fa8ac77f21906020016107a9565b6001600160a01b038316612d4f5760405162461bcd60e51b815260206004820152603060248201527f636f6c6c65637461626c652d647573743a3a63616e742d73656e642d6475737460448201527f2d746f2d7a65726f2d61646472657373000000000000000000000000000000006064820152608401610606565b612d5a6000836134b5565b15612dcd5760405162461bcd60e51b815260206004820152602f60248201527f636f6c6c65637461626c652d647573743a3a746f6b656e2d69732d706172742d60448201527f6f662d7468652d70726f746f636f6c00000000000000000000000000000000006064820152608401610606565b7fffffffffffffffffffffffff11111111111111111111111111111111111111126001600160a01b03831601612e39576040516001600160a01b0384169082156108fc029083906000818181858888f19350505050158015612e33573d6000803e3d6000fd5b50612e4d565b612e4d6001600160a01b0383168483613069565b604080516001600160a01b038086168252841660208201529081018290527f1e34c1aee8e83c2dcc14c21bb4bfeea7f46c0c998cb797ac7cc4d7a18f5c656b9060600160405180910390a1505050565b801580612f3057506040517fdd62ed3e0000000000000000000000000000000000000000000000000000000081523060048201526001600160a01b03838116602483015284169063dd62ed3e90604401602060405180830381865afa158015612f0a573d6000803e3d6000fd5b505050506040513d601f19601f82011682018060405250810190612f2e9190613a0a565b155b612fa25760405162461bcd60e51b815260206004820152603660248201527f5361666545524332303a20617070726f76652066726f6d206e6f6e2d7a65726f60448201527f20746f206e6f6e2d7a65726f20616c6c6f77616e6365000000000000000000006064820152608401610606565b6040516001600160a01b03831660248201526044810182905261061a9084907f095ea7b300000000000000000000000000000000000000000000000000000000906064015b604080517fffffffffffffffffffffffffffffffffffffffffffffffffffffffffffffffe08184030181529190526020810180517bffffffffffffffffffffffffffffffffffffffffffffffffffffffff167fffffffff00000000000000000000000000000000000000000000000000000000909316929092179091526134dc565b6040516001600160a01b03831660248201526044810182905261061a9084907fa9059cbb0000000000000000000000000000000000000000000000000000000090606401612fe7565b600360009054906101000a90046001600160a01b03166001600160a01b0316638fe636836040518163ffffffff1660e01b8152600401602060405180830381865afa158015613105573d6000803e3d6000fd5b505050506040513d601f19601f820116820180604052508101906131299190613a45565b6001600160a01b031663a2e620456040518163ffffffff1660e01b8152600401600060405180830381600087803b15801561316357600080fd5b505af1158015613177573d6000803e3d6000fd5b50505050565b6131886000826134b5565b6131fa5760405162461bcd60e51b815260206004820152603060248201527f636f6c6c65637461626c652d647573743a3a746f6b656e2d6e6f742d7061727460448201527f2d6f662d7468652d70726f746f636f6c000000000000000000000000000000006064820152608401610606565b6132056000826135c1565b506040516001600160a01b03821681527fddd12a8c3ce9bea5c97a5d25c8b777caab85752828f56b7b8ad5a0b30340a25f906020016107a9565b6040516001600160a01b03808516602483015283166044820152606481018290526131779085907f23b872dd0000000000000000000000000000000000000000000000000000000090608401612fe7565b600061329a612210565b9050806000036133125760405162461bcd60e51b815260206004820152602760248201527f426f6e64696e673a2073686172652076616c75652073686f756c64206e6f742060448201527f6265206e756c6c000000000000000000000000000000000000000000000000006064820152608401610606565b600360009054906101000a90046001600160a01b03166001600160a01b031663c431e83c6040518163ffffffff1660e01b8152600401602060405180830381865afa158015613365573d6000803e3d6000fd5b505050506040513d601f19601f820116820180604052508101906133899190613a45565b6001600160a01b031663731133e933848660026040518563ffffffff1660e01b81526004016133bb9493929190613b9e565b600060405180830381600087803b1580156133d557600080fd5b505af11580156133e9573d6000803e3d6000fd5b50505050505050565b6133fd6000826134b5565b156134705760405162461bcd60e51b815260206004820152602f60248201527f636f6c6c65637461626c652d647573743a3a746f6b656e2d69732d706172742d60448201527f6f662d7468652d70726f746f636f6c00000000000000000000000000000000006064820152608401610606565b61347b6000826135d6565b506040516001600160a01b03821681527fa3e4ba856dd0fdee3a33ab9b82499fd01f05236f3d08cc4e7108698c6e3e7e50906020016107a9565b6001600160a01b038116600090815260018301602052604081205415155b90505b92915050565b6000613531826040518060400160405280602081526020017f5361666545524332303a206c6f772d6c6576656c2063616c6c206661696c6564815250856001600160a01b03166135eb9092919063ffffffff16565b80519091501561061a578080602001905181019061354f9190613a23565b61061a5760405162461bcd60e51b815260206004820152602a60248201527f5361666545524332303a204552433230206f7065726174696f6e20646964206e60448201527f6f742073756363656564000000000000000000000000000000000000000000006064820152608401610606565b60006134d3836001600160a01b038416613602565b60006134d3836001600160a01b0384166136f5565b60606135fa8484600085613744565b949350505050565b600081815260018301602052604081205480156136eb576000613626600183613b8b565b855490915060009061363a90600190613b8b565b905081811461369f57600086600001828154811061365a5761365a613ca1565b906000526020600020015490508087600001848154811061367d5761367d613ca1565b6000918252602080832090910192909255918252600188019052604090208390555b85548690806136b0576136b0613cd0565b6001900381819060005260206000200160009055905585600101600086815260200190815260200160002060009055600193505050506134d6565b60009150506134d6565b600081815260018301602052604081205461373c575081546001818101845560008481526020808220909301849055845484825282860190935260409020919091556134d6565b5060006134d6565b6060824710156137bc5760405162461bcd60e51b815260206004820152602660248201527f416464726573733a20696e73756666696369656e742062616c616e636520666f60448201527f722063616c6c00000000000000000000000000000000000000000000000000006064820152608401610606565b600080866001600160a01b031685876040516137d89190613cff565b60006040518083038185875af1925050503d8060008114613815576040519150601f19603f3d011682016040523d82523d6000602084013e61381a565b606091505b509150915061382b87838387613836565b979650505050505050565b606083156138a557825160000361389e576001600160a01b0385163b61389e5760405162461bcd60e51b815260206004820152601d60248201527f416464726573733a2063616c6c20746f206e6f6e2d636f6e74726163740000006044820152606401610606565b50816135fa565b6135fa83838151156138ba5781518083602001fd5b8060405162461bcd60e51b815260040161060691906139d3565b6001600160a01b038116811461266457600080fd5b6000806000606084860312156138fe57600080fd5b8335613909816138d4565b92506020840135613919816138d4565b929592945050506040919091013590565b60006020828403121561393c57600080fd5b5035919050565b6000806040838503121561395657600080fd5b50508035926020909101359150565b60005b83811015613980578181015183820152602001613968565b50506000910152565b600081518084526139a1816020860160208601613965565b601f017fffffffffffffffffffffffffffffffffffffffffffffffffffffffffffffffe0169290920160200192915050565b6020815260006134d36020830184613989565b6000602082840312156139f857600080fd5b8135613a03816138d4565b9392505050565b600060208284031215613a1c57600080fd5b5051919050565b600060208284031215613a3557600080fd5b81518015158114613a0357600080fd5b600060208284031215613a5757600080fd5b8151613a03816138d4565b7f4e487b7100000000000000000000000000000000000000000000000000000000600052601160045260246000fd5b6000817fffffffffffffffffffffffffffffffffffffffffffffffffffffffffffffffff0483118215151615613ac957613ac9613a62565b500290565b7f4e487b7100000000000000000000000000000000000000000000000000000000600052601260045260246000fd5b600082613b0c57613b0c613ace565b500490565b600181811c90821680613b2557607f821691505b602082108103613b5e577f4e487b7100000000000000000000000000000000000000000000000000000000600052602260045260246000fd5b50919050565b808201808211156134d6576134d6613a62565b600082613b8657613b86613ace565b500690565b818103818111156134d6576134d6613a62565b6001600160a01b0385168152600060208581840152846040840152608060608401526000845481600182811c915080831680613bdb57607f831692505b8583108103613c11577f4e487b710000000000000000000000000000000000000000000000000000000085526022600452602485fd5b6080880183905260a08801818015613c305760018114613c6457613c8f565b7fffffffffffffffffffffffffffffffffffffffffffffffffffffffffffffff008616825284151560051b82019650613c8f565b60008b81526020902060005b86811015613c8957815484820152908501908901613c70565b83019750505b50949c9b505050505050505050505050565b7f4e487b7100000000000000000000000000000000000000000000000000000000600052603260045260246000fd5b7f4e487b7100000000000000000000000000000000000000000000000000000000600052603160045260246000fd5b60008251613d11818460208701613965565b919091019291505056fea264697066735822122040fc33d728d5142178cad8f67ebd1d13ac5348563ea0cd724b1b802d20a57edd64736f6c63430008100033",
    "linkReferences": {}
  },
  "methodIdentifiers": {
    "ETH_ADDRESS()": "a734f06e",
    "ONE()": "c2ee3a08",
    "addProtocolToken(address)": "fa3305c9",
    "blockCountInAWeek()": "aa1ec70a",
    "blockRonding()": "8039d081",
    "bondingDiscountMultiplier()": "8f88f38d",
    "crvPriceReset(uint256)": "7cc6bd41",
    "currentShareValue()": "aadc68a5",
    "currentTokenPrice()": "71b3659e",
    "data()": "73d4a13a",
    "deposit(uint256,uint256)": "e2bbb158",
    "manager()": "481c6a75",
    "redeemStreamTime()": "e8a8fad5",
    "removeProtocolToken(address)": "bf0d68e4",
    "sablier()": "482879aa",
    "sendDust(address,address,uint256)": "2db8c129",
    "setBlockCountInAWeek(uint256)": "2f72589e",
    "setBlockRonding(uint256)": "71cc5c0b",
    "setBondingDiscountMultiplier(uint256)": "a194bcde",
    "setRedeemStreamTime(uint256)": "6b71f457",
    "setSablier(address)": "90096556",
    "setUGOVPerBlock(uint256)": "ffd65a49",
    "uADPriceReset(uint256)": "3b1ba367",
    "uGOVPerBlock()": "47e54e38",
    "withdraw(uint256,uint256)": "441a3e70"
  },
  "id": 93
}