{
  "abi": [
    {
      "inputs": [
        {
          "internalType": "address",
          "name": "_manager",
          "type": "address"
        },
        {
          "internalType": "uint256",
          "name": "_couponLengthBlocks",
          "type": "uint256"
        }
      ],
      "stateMutability": "nonpayable",
      "type": "constructor"
    },
    {
      "anonymous": false,
      "inputs": [
        {
          "indexed": false,
          "internalType": "uint256",
          "name": "newCouponLengthBlocks",
          "type": "uint256"
        },
        {
          "indexed": false,
          "internalType": "uint256",
          "name": "previousCouponLengthBlocks",
          "type": "uint256"
        }
      ],
      "name": "CouponLengthChanged",
      "type": "event"
    },
    {
      "anonymous": false,
      "inputs": [
        {
          "indexed": false,
          "internalType": "uint256",
          "name": "newRate",
          "type": "uint256"
        },
        {
          "indexed": false,
          "internalType": "uint256",
          "name": "previousRate",
          "type": "uint256"
        }
      ],
      "name": "ExpiredCouponConvertionRateChanged",
      "type": "event"
    },
    {
      "inputs": [],
      "name": "blockHeightDebt",
      "outputs": [
        {
          "internalType": "uint256",
          "name": "",
          "type": "uint256"
        }
      ],
      "stateMutability": "view",
      "type": "function"
    },
    {
      "inputs": [
        {
          "internalType": "uint256",
          "name": "amount",
          "type": "uint256"
        }
      ],
      "name": "burnAutoRedeemTokensForDollars",
      "outputs": [
        {
          "internalType": "uint256",
          "name": "",
          "type": "uint256"
        }
      ],
      "stateMutability": "nonpayable",
      "type": "function"
    },
    {
      "inputs": [
        {
          "internalType": "uint256",
          "name": "id",
          "type": "uint256"
        },
        {
          "internalType": "uint256",
          "name": "amount",
          "type": "uint256"
        }
      ],
      "name": "burnCouponsForAutoRedemption",
      "outputs": [
        {
          "internalType": "uint256",
          "name": "",
          "type": "uint256"
        }
      ],
      "stateMutability": "nonpayable",
      "type": "function"
    },
    {
      "inputs": [
        {
          "internalType": "uint256",
          "name": "id",
          "type": "uint256"
        },
        {
          "internalType": "uint256",
          "name": "amount",
          "type": "uint256"
        }
      ],
      "name": "burnExpiredCouponsForUGOV",
      "outputs": [
        {
          "internalType": "uint256",
          "name": "uGovAmount",
          "type": "uint256"
        }
      ],
      "stateMutability": "nonpayable",
      "type": "function"
    },
    {
      "inputs": [],
      "name": "couponLengthBlocks",
      "outputs": [
        {
          "internalType": "uint256",
          "name": "",
          "type": "uint256"
        }
      ],
      "stateMutability": "view",
      "type": "function"
    },
    {
      "inputs": [],
      "name": "debtCycle",
      "outputs": [
        {
          "internalType": "bool",
          "name": "",
          "type": "bool"
        }
      ],
      "stateMutability": "view",
      "type": "function"
    },
    {
      "inputs": [],
      "name": "dollarsMintedThisCycle",
      "outputs": [
        {
          "internalType": "uint256",
          "name": "",
          "type": "uint256"
        }
      ],
      "stateMutability": "view",
      "type": "function"
    },
    {
      "inputs": [
        {
          "internalType": "uint256",
          "name": "amount",
          "type": "uint256"
        }
      ],
      "name": "exchangeDollarsForDebtCoupons",
      "outputs": [
        {
          "internalType": "uint256",
          "name": "",
          "type": "uint256"
        }
      ],
      "stateMutability": "nonpayable",
      "type": "function"
    },
    {
      "inputs": [
        {
          "internalType": "uint256",
          "name": "amount",
          "type": "uint256"
        }
      ],
      "name": "exchangeDollarsForUAR",
      "outputs": [
        {
          "internalType": "uint256",
          "name": "",
          "type": "uint256"
        }
      ],
      "stateMutability": "nonpayable",
      "type": "function"
    },
    {
      "inputs": [],
      "name": "expiredCouponConvertionRate",
      "outputs": [
        {
          "internalType": "uint256",
          "name": "",
          "type": "uint256"
        }
      ],
      "stateMutability": "view",
      "type": "function"
    },
    {
      "inputs": [
        {
          "internalType": "uint256",
          "name": "amount",
          "type": "uint256"
        }
      ],
      "name": "getCouponsReturnedForDollars",
      "outputs": [
        {
          "internalType": "uint256",
          "name": "",
          "type": "uint256"
        }
      ],
      "stateMutability": "view",
      "type": "function"
    },
    {
      "inputs": [
        {
          "internalType": "uint256",
          "name": "amount",
          "type": "uint256"
        }
      ],
      "name": "getUARReturnedForDollars",
      "outputs": [
        {
          "internalType": "uint256",
          "name": "",
          "type": "uint256"
        }
      ],
      "stateMutability": "view",
      "type": "function"
    },
    {
      "inputs": [],
      "name": "manager",
      "outputs": [
        {
          "internalType": "contract UbiquityAlgorithmicDollarManager",
          "name": "",
          "type": "address"
        }
      ],
      "stateMutability": "view",
      "type": "function"
    },
    {
      "inputs": [],
      "name": "mintClaimableDollars",
      "outputs": [],
      "stateMutability": "nonpayable",
      "type": "function"
    },
    {
      "inputs": [
        {
          "internalType": "address",
          "name": "",
          "type": "address"
        },
        {
          "internalType": "address",
          "name": "",
          "type": "address"
        },
        {
          "internalType": "uint256[]",
          "name": "",
          "type": "uint256[]"
        },
        {
          "internalType": "uint256[]",
          "name": "",
          "type": "uint256[]"
        },
        {
          "internalType": "bytes",
          "name": "",
          "type": "bytes"
        }
      ],
      "name": "onERC1155BatchReceived",
      "outputs": [
        {
          "internalType": "bytes4",
          "name": "",
          "type": "bytes4"
        }
      ],
      "stateMutability": "pure",
      "type": "function"
    },
    {
      "inputs": [
        {
          "internalType": "address",
          "name": "operator",
          "type": "address"
        },
        {
          "internalType": "address",
          "name": "",
          "type": "address"
        },
        {
          "internalType": "uint256",
          "name": "",
          "type": "uint256"
        },
        {
          "internalType": "uint256",
          "name": "",
          "type": "uint256"
        },
        {
          "internalType": "bytes",
          "name": "",
          "type": "bytes"
        }
      ],
      "name": "onERC1155Received",
      "outputs": [
        {
          "internalType": "bytes4",
          "name": "",
          "type": "bytes4"
        }
      ],
      "stateMutability": "view",
      "type": "function"
    },
    {
      "inputs": [
        {
          "internalType": "uint256",
          "name": "id",
          "type": "uint256"
        },
        {
          "internalType": "uint256",
          "name": "amount",
          "type": "uint256"
        }
      ],
      "name": "redeemCoupons",
      "outputs": [
        {
          "internalType": "uint256",
          "name": "",
          "type": "uint256"
        }
      ],
      "stateMutability": "nonpayable",
      "type": "function"
    },
    {
      "inputs": [
        {
          "internalType": "uint256",
          "name": "_couponLengthBlocks",
          "type": "uint256"
        }
      ],
      "name": "setCouponLength",
      "outputs": [],
      "stateMutability": "nonpayable",
      "type": "function"
    },
    {
      "inputs": [
        {
          "internalType": "uint256",
          "name": "rate",
          "type": "uint256"
        }
      ],
      "name": "setExpiredCouponConvertionRate",
      "outputs": [],
      "stateMutability": "nonpayable",
      "type": "function"
    },
    {
      "inputs": [
        {
          "internalType": "bytes4",
          "name": "interfaceId",
          "type": "bytes4"
        }
      ],
      "name": "supportsInterface",
      "outputs": [
        {
          "internalType": "bool",
          "name": "",
          "type": "bool"
        }
      ],
      "stateMutability": "view",
      "type": "function"
    }
  ],
  "bytecode": {
    "object": "0x608060405260026005553480156200001657600080fd5b506040516200356c3803806200356c833981016040819052620000399162000063565b600080546001600160a01b0319166001600160a01b0393909316929092179091556004556200009f565b600080604083850312156200007757600080fd5b82516001600160a01b03811681146200008f57600080fd5b6020939093015192949293505050565b6134bd80620000af6000396000f3fe608060405234801561001057600080fd5b506004361061016c5760003560e01c8063816dbc4a116100cd578063bdd5d4b211610081578063cfc893fd11610066578063cfc893fd14610334578063d6a9cf0814610347578063f23a6e611461035a57600080fd5b8063bdd5d4b214610318578063be30446d1461032157600080fd5b806399c62889116100b257806399c62889146102a5578063aac8e39a146102b8578063bc197c81146102cb57600080fd5b8063816dbc4a1461028957806384800d651461029c57600080fd5b80632565aa42116101245780634c5cac58116101095780634c5cac581461025a57806367a6847d146102635780636938c4141461027657600080fd5b80632565aa4214610225578063481c6a751461022f57600080fd5b80630cb03046116101555780630cb03046146101f25780631adb4d32146102055780631ce83f501461021857600080fd5b806301ffc9a71461017157806302127499146101db575b600080fd5b6101c661017f366004613141565b7fffffffff00000000000000000000000000000000000000000000000000000000167f01ffc9a7000000000000000000000000000000000000000000000000000000001490565b60405190151581526020015b60405180910390f35b6101e460055481565b6040519081526020016101d2565b6101e4610200366004613183565b61036d565b6101e4610213366004613183565b61088f565b6002546101c69060ff1681565b61022d610d44565b005b600054610242906001600160a01b031681565b6040516001600160a01b0390911681526020016101d2565b6101e460035481565b6101e4610271366004613183565b6113e7565b6101e461028436600461319c565b61182b565b61022d610297366004613183565b611c98565b6101e460045481565b6101e46102b336600461319c565b611e4d565b6101e46102c6366004613183565b6121bc565b6102e76102d9366004613264565b600098975050505050505050565b6040517fffffffff0000000000000000000000000000000000000000000000000000000090911681526020016101d2565b6101e460015481565b6101e461032f366004613183565b6122db565b61022d610342366004613183565b6123ab565b6101e461035536600461319c565b612560565b6102e7610368366004613323565b612da9565b600080610378612efa565b9050670de0b6b3a76400008111610415576040517f08c379a0000000000000000000000000000000000000000000000000000000008152602060048201526024808201527f5072696365206d7573742062652061626f7665203120746f206175746f20726560448201527f6465656d0000000000000000000000000000000000000000000000000000000060648201526084015b60405180910390fd5b60025460ff161561044957600280547fffffffffffffffffffffffffffffffffffffffffffffffffffffffffffffff001690555b60008060009054906101000a90046001600160a01b03166001600160a01b0316633ae3d9a46040518163ffffffff1660e01b8152600401602060405180830381865afa15801561049d573d6000803e3d6000fd5b505050506040513d601f19601f820116820180604052508101906104c1919061339f565b6040517f70a0823100000000000000000000000000000000000000000000000000000000815233600482015290915084906001600160a01b038316906370a0823190602401602060405180830381865afa158015610523573d6000803e3d6000fd5b505050506040513d601f19601f8201168201806040525081019061054791906133bc565b10156105d5576040517f08c379a000000000000000000000000000000000000000000000000000000000815260206004820152603160248201527f5573657220646f65736e2774206861766520656e6f756768206175746f20726560448201527f6465656d20706f6f6c20746f6b656e732e000000000000000000000000000000606482015260840161040c565b60008060009054906101000a90046001600160a01b03166001600160a01b031663bc3ea0186040518163ffffffff1660e01b8152600401602060405180830381865afa158015610629573d6000803e3d6000fd5b505050506040513d601f19601f8201168201806040525081019061064d919061339f565b6040517f70a082310000000000000000000000000000000000000000000000000000000081523060048201529091506000906001600160a01b038316906370a0823190602401602060405180830381865afa1580156106b0573d6000803e3d6000fd5b505050506040513d601f19601f820116820180604052508101906106d491906133bc565b90506000811161076a576106e6610d44565b6040517f70a082310000000000000000000000000000000000000000000000000000000081523060048201526001600160a01b038316906370a0823190602401602060405180830381865afa158015610743573d6000803e3d6000fd5b505050506040513d601f19601f8201168201806040525081019061076791906133bc565b90505b85818111156107765750805b6040517f79cc6790000000000000000000000000000000000000000000000000000000008152336004820152602481018290526001600160a01b038516906379cc679090604401600060405180830381600087803b1580156107d757600080fd5b505af11580156107eb573d6000803e3d6000fd5b50506040517fa9059cbb000000000000000000000000000000000000000000000000000000008152336004820152602481018490526001600160a01b038616925063a9059cbb91506044016020604051808303816000875af1158015610855573d6000803e3d6000fd5b505050506040513d601f19601f8201168201806040525081019061087991906133d5565b506108848188613426565b979650505050505050565b60008061089a612efa565b9050670de0b6b3a76400008110610933576040517f08c379a000000000000000000000000000000000000000000000000000000000815260206004820152602160248201527f5072696365206d7573742062652062656c6f77203120746f206d696e7420754160448201527f5200000000000000000000000000000000000000000000000000000000000000606482015260840161040c565b60008060009054906101000a90046001600160a01b03166001600160a01b03166356593ea36040518163ffffffff1660e01b8152600401602060405180830381865afa158015610987573d6000803e3d6000fd5b505050506040513d601f19601f820116820180604052508101906109ab919061339f565b9050806001600160a01b031663f7ffe84a6040518163ffffffff1660e01b8152600401600060405180830381600087803b1580156109e857600080fd5b505af11580156109fc573d6000803e3d6000fd5b505060025460ff169150610a43905057600280547fffffffffffffffffffffffffffffffffffffffffffffffffffffffffffffff0016600190811790915543600355600090555b60008060009054906101000a90046001600160a01b03166001600160a01b031663749cface6040518163ffffffff1660e01b8152600401602060405180830381865afa158015610a97573d6000803e3d6000fd5b505050506040513d601f19601f82011682018060405250810190610abb919061339f565b6003546040517f3667d8590000000000000000000000000000000000000000000000000000000081529192506000916001600160a01b03841691633667d85991610b12918a91600401918252602082015260400190565b602060405180830381865afa158015610b2f573d6000803e3d6000fd5b505050506040513d601f19601f82011682018060405250810190610b5391906133bc565b905060008054906101000a90046001600160a01b03166001600160a01b031663bc3ea0186040518163ffffffff1660e01b8152600401602060405180830381865afa158015610ba6573d6000803e3d6000fd5b505050506040513d601f19601f82011682018060405250810190610bca919061339f565b6040517f79cc6790000000000000000000000000000000000000000000000000000000008152336004820152602481018890526001600160a01b0391909116906379cc679090604401600060405180830381600087803b158015610c2d57600080fd5b505af1158015610c41573d6000803e3d6000fd5b5050505060008060009054906101000a90046001600160a01b03166001600160a01b0316633ae3d9a46040518163ffffffff1660e01b8152600401602060405180830381865afa158015610c99573d6000803e3d6000fd5b505050506040513d601f19601f82011682018060405250810190610cbd919061339f565b6040517f40c10f19000000000000000000000000000000000000000000000000000000008152336004820152602481018490529091506001600160a01b038216906340c10f1990604401600060405180830381600087803b158015610d2157600080fd5b505af1158015610d35573d6000803e3d6000fd5b50939998505050505050505050565b60008060009054906101000a90046001600160a01b03166001600160a01b03166356593ea36040518163ffffffff1660e01b8152600401602060405180830381865afa158015610d98573d6000803e3d6000fd5b505050506040513d601f19601f82011682018060405250810190610dbc919061339f565b9050806001600160a01b031663f7ffe84a6040518163ffffffff1660e01b8152600401600060405180830381600087803b158015610df957600080fd5b505af1158015610e0d573d6000803e3d6000fd5b5050505060008060009054906101000a90046001600160a01b03166001600160a01b03166359f6deac6040518163ffffffff1660e01b8152600401602060405180830381865afa158015610e65573d6000803e3d6000fd5b505050506040513d601f19601f82011682018060405250810190610e89919061339f565b6001600160a01b031663764263cf6040518163ffffffff1660e01b8152600401602060405180830381865afa158015610ec6573d6000803e3d6000fd5b505050506040513d601f19601f82011682018060405250810190610eea91906133bc565b9050600060015482610efc9190613426565b90508160018190555060008060009054906101000a90046001600160a01b03166001600160a01b031663bc3ea0186040518163ffffffff1660e01b8152600401602060405180830381865afa158015610f59573d6000803e3d6000fd5b505050506040513d601f19601f82011682018060405250810190610f7d919061339f565b6040517f40c10f19000000000000000000000000000000000000000000000000000000008152306004820152602481018490529091506001600160a01b038216906340c10f1990604401600060405180830381600087803b158015610fe157600080fd5b505af1158015610ff5573d6000803e3d6000fd5b5050505060008060009054906101000a90046001600160a01b03166001600160a01b0316633ae3d9a46040518163ffffffff1660e01b8152600401602060405180830381865afa15801561104d573d6000803e3d6000fd5b505050506040513d601f19601f82011682018060405250810190611071919061339f565b6040517f70a082310000000000000000000000000000000000000000000000000000000081523060048201529091506000906001600160a01b038416906370a0823190602401602060405180830381865afa1580156110d4573d6000803e3d6000fd5b505050506040513d601f19601f820116820180604052508101906110f891906133bc565b90506000826001600160a01b03166318160ddd6040518163ffffffff1660e01b8152600401602060405180830381865afa15801561113a573d6000803e3d6000fd5b505050506040513d601f19601f8201168201806040525081019061115e91906133bc565b876001600160a01b031663db87b1ff6040518163ffffffff1660e01b8152600401602060405180830381865afa15801561119c573d6000803e3d6000fd5b505050506040513d601f19601f820116820180604052508101906111c091906133bc565b6111ca9190613439565b9050808211156113de5760006111e08284613426565b600080546040517faef6be3c00000000000000000000000000000000000000000000000000000000815230600482015292935090916001600160a01b039091169063aef6be3c90602401602060405180830381865afa158015611247573d6000803e3d6000fd5b505050506040513d601f19601f8201168201806040525081019061126b919061339f565b6000546040517faef6be3c0000000000000000000000000000000000000000000000000000000081523060048201529192506001600160a01b038881169263a9059cbb92919091169063aef6be3c90602401602060405180830381865afa1580156112da573d6000803e3d6000fd5b505050506040513d601f19601f820116820180604052508101906112fe919061339f565b6040517fffffffff0000000000000000000000000000000000000000000000000000000060e084901b1681526001600160a01b039091166004820152602481018590526044016020604051808303816000875af1158015611363573d6000803e3d6000fd5b505050506040513d601f19601f8201168201806040525081019061138791906133d5565b50806001600160a01b031663651156bc6040518163ffffffff1660e01b8152600401600060405180830381600087803b1580156113c357600080fd5b505af11580156113d7573d6000803e3d6000fd5b5050505050505b50505050505050565b6000806113f2612efa565b9050670de0b6b3a7640000811061148b576040517f08c379a000000000000000000000000000000000000000000000000000000000815260206004820152602560248201527f5072696365206d7573742062652062656c6f77203120746f206d696e7420636f60448201527f75706f6e73000000000000000000000000000000000000000000000000000000606482015260840161040c565b60008060009054906101000a90046001600160a01b03166001600160a01b03166356593ea36040518163ffffffff1660e01b8152600401602060405180830381865afa1580156114df573d6000803e3d6000fd5b505050506040513d601f19601f82011682018060405250810190611503919061339f565b9050806001600160a01b031663f7ffe84a6040518163ffffffff1660e01b8152600401600060405180830381600087803b15801561154057600080fd5b505af1158015611554573d6000803e3d6000fd5b505060025460ff16915061159b905057600280547fffffffffffffffffffffffffffffffffffffffffffffffffffffffffffffff0016600190811790915543600355600090555b60008060009054906101000a90046001600160a01b03166001600160a01b0316633e916ced6040518163ffffffff1660e01b8152600401602060405180830381865afa1580156115ef573d6000803e3d6000fd5b505050506040513d601f19601f82011682018060405250810190611613919061339f565b6040517f9172dd23000000000000000000000000000000000000000000000000000000008152600481018790529091506000906001600160a01b03831690639172dd2390602401602060405180830381865afa158015611677573d6000803e3d6000fd5b505050506040513d601f19601f8201168201806040525081019061169b91906133bc565b905060008054906101000a90046001600160a01b03166001600160a01b031663bc3ea0186040518163ffffffff1660e01b8152600401602060405180830381865afa1580156116ee573d6000803e3d6000fd5b505050506040513d601f19601f82011682018060405250810190611712919061339f565b6040517f79cc6790000000000000000000000000000000000000000000000000000000008152336004820152602481018890526001600160a01b0391909116906379cc679090604401600060405180830381600087803b15801561177557600080fd5b505af1158015611789573d6000803e3d6000fd5b5050505060006004544361179d9190613439565b6040517fe71fc58f00000000000000000000000000000000000000000000000000000000815233600482015260248101849052604481018290529091506001600160a01b0385169063e71fc58f90606401600060405180830381600087803b15801561180857600080fd5b505af115801561181c573d6000803e3d6000fd5b50929998505050505050505050565b60008054604080517f56593ea3000000000000000000000000000000000000000000000000000000008152905183926001600160a01b0316916356593ea39160048083019260209291908290030181865afa15801561188e573d6000803e3d6000fd5b505050506040513d601f19601f820116820180604052508101906118b2919061339f565b905042841161191d576040517f08c379a000000000000000000000000000000000000000000000000000000000815260206004820152601260248201527f436f75706f6e2068617320657870697265640000000000000000000000000000604482015260640161040c565b6040517efdd58e0000000000000000000000000000000000000000000000000000000081523360048201526024810185905283906001600160a01b0383169062fdd58e90604401602060405180830381865afa158015611981573d6000803e3d6000fd5b505050506040513d601f19601f820116820180604052508101906119a591906133bc565b1015611a0d576040517f08c379a000000000000000000000000000000000000000000000000000000000815260206004820152601760248201527f55736572206e6f7420656e6f75676820636f75706f6e73000000000000000000604482015260640161040c565b6040517f738f0cf100000000000000000000000000000000000000000000000000000000815233600482015260248101849052604481018590526001600160a01b0382169063738f0cf190606401600060405180830381600087803b158015611a7557600080fd5b505af1158015611a89573d6000803e3d6000fd5b5050505060008060009054906101000a90046001600160a01b03166001600160a01b0316633ae3d9a46040518163ffffffff1660e01b8152600401602060405180830381865afa158015611ae1573d6000803e3d6000fd5b505050506040513d601f19601f82011682018060405250810190611b05919061339f565b6040517f40c10f19000000000000000000000000000000000000000000000000000000008152306004820152602481018690529091506001600160a01b038216906340c10f1990604401600060405180830381600087803b158015611b6957600080fd5b505af1158015611b7d573d6000803e3d6000fd5b50506040517fa9059cbb000000000000000000000000000000000000000000000000000000008152336004820152602481018790526001600160a01b038416925063a9059cbb91506044016020604051808303816000875af1158015611be7573d6000803e3d6000fd5b505050506040513d601f19601f82011682018060405250810190611c0b91906133d5565b506040517f70a082310000000000000000000000000000000000000000000000000000000081523360048201526001600160a01b038216906370a0823190602401602060405180830381865afa158015611c69573d6000803e3d6000fd5b505050506040513d601f19601f82011682018060405250810190611c8d91906133bc565b925050505b92915050565b600054604080517fa41dd6e600000000000000000000000000000000000000000000000000000000815290516001600160a01b03909216916391d1485491839163a41dd6e6916004808201926020929091908290030181865afa158015611d03573d6000803e3d6000fd5b505050506040513d601f19601f82011682018060405250810190611d2791906133bc565b6040517fffffffff0000000000000000000000000000000000000000000000000000000060e084901b1681526004810191909152336024820152604401602060405180830381865afa158015611d81573d6000803e3d6000fd5b505050506040513d601f19601f82011682018060405250810190611da591906133d5565b611e0b576040517f08c379a000000000000000000000000000000000000000000000000000000000815260206004820152601e60248201527f43616c6c6572206973206e6f74206120636f75706f6e206d616e616765720000604482015260640161040c565b6004546040805183815260208101929092527f8d7edb0d3221793a3dbc5e9eb8bddfa027f936dcaac6116cc52319396a2026f9910160405180910390a1600455565b60008054604080517f56593ea3000000000000000000000000000000000000000000000000000000008152905183926001600160a01b0316916356593ea39160048083019260209291908290030181865afa158015611eb0573d6000803e3d6000fd5b505050506040513d601f19601f82011682018060405250810190611ed4919061339f565b905043841115611f40576040517f08c379a000000000000000000000000000000000000000000000000000000000815260206004820152601660248201527f436f75706f6e20686173206e6f74206578706972656400000000000000000000604482015260640161040c565b6040517efdd58e0000000000000000000000000000000000000000000000000000000081523360048201526024810185905283906001600160a01b0383169062fdd58e90604401602060405180830381865afa158015611fa4573d6000803e3d6000fd5b505050506040513d601f19601f82011682018060405250810190611fc891906133bc565b1015612030576040517f08c379a000000000000000000000000000000000000000000000000000000000815260206004820152601760248201527f55736572206e6f7420656e6f75676820636f75706f6e73000000000000000000604482015260640161040c565b6040517f738f0cf100000000000000000000000000000000000000000000000000000000815233600482015260248101849052604481018590526001600160a01b0382169063738f0cf190606401600060405180830381600087803b15801561209857600080fd5b505af11580156120ac573d6000803e3d6000fd5b5050505060008060009054906101000a90046001600160a01b03166001600160a01b031663b42165d06040518163ffffffff1660e01b8152600401602060405180830381865afa158015612104573d6000803e3d6000fd5b505050506040513d601f19601f82011682018060405250810190612128919061339f565b905060055484612138919061344c565b6040517f40c10f19000000000000000000000000000000000000000000000000000000008152336004820152602481018290529093506001600160a01b038216906340c10f1990604401600060405180830381600087803b15801561219c57600080fd5b505af11580156121b0573d6000803e3d6000fd5b50505050505092915050565b60008054604080517f749cface000000000000000000000000000000000000000000000000000000008152905183926001600160a01b03169163749cface9160048083019260209291908290030181865afa15801561221f573d6000803e3d6000fd5b505050506040513d601f19601f82011682018060405250810190612243919061339f565b6003546040517f3667d8590000000000000000000000000000000000000000000000000000000081526004810186905260248101919091529091506001600160a01b03821690633667d859906044015b602060405180830381865afa1580156122b0573d6000803e3d6000fd5b505050506040513d601f19601f820116820180604052508101906122d491906133bc565b9392505050565b60008054604080517f3e916ced000000000000000000000000000000000000000000000000000000008152905183926001600160a01b031691633e916ced9160048083019260209291908290030181865afa15801561233e573d6000803e3d6000fd5b505050506040513d601f19601f82011682018060405250810190612362919061339f565b6040517f9172dd23000000000000000000000000000000000000000000000000000000008152600481018590529091506001600160a01b03821690639172dd2390602401612293565b600054604080517fa41dd6e600000000000000000000000000000000000000000000000000000000815290516001600160a01b03909216916391d1485491839163a41dd6e6916004808201926020929091908290030181865afa158015612416573d6000803e3d6000fd5b505050506040513d601f19601f8201168201806040525081019061243a91906133bc565b6040517fffffffff0000000000000000000000000000000000000000000000000000000060e084901b1681526004810191909152336024820152604401602060405180830381865afa158015612494573d6000803e3d6000fd5b505050506040513d601f19601f820116820180604052508101906124b891906133d5565b61251e576040517f08c379a000000000000000000000000000000000000000000000000000000000815260206004820152601e60248201527f43616c6c6572206973206e6f74206120636f75706f6e206d616e616765720000604482015260640161040c565b6005546040805183815260208101929092527f6d4a1070b746d33746be28d0b5f40e4196cbd7ada8fcb77191f0a9209ae41a63910160405180910390a1600555565b60008061256b612efa565b9050670de0b6b3a76400008111612604576040517f08c379a000000000000000000000000000000000000000000000000000000000815260206004820152602760248201527f5072696365206d7573742062652061626f7665203120746f2072656465656d2060448201527f636f75706f6e7300000000000000000000000000000000000000000000000000606482015260840161040c565b60025460ff161561263857600280547fffffffffffffffffffffffffffffffffffffffffffffffffffffffffffffff001690555b60008060009054906101000a90046001600160a01b03166001600160a01b03166356593ea36040518163ffffffff1660e01b8152600401602060405180830381865afa15801561268c573d6000803e3d6000fd5b505050506040513d601f19601f820116820180604052508101906126b0919061339f565b905043851161271b576040517f08c379a000000000000000000000000000000000000000000000000000000000815260206004820152601260248201527f436f75706f6e2068617320657870697265640000000000000000000000000000604482015260640161040c565b6040517efdd58e0000000000000000000000000000000000000000000000000000000081523360048201526024810186905284906001600160a01b0383169062fdd58e90604401602060405180830381865afa15801561277f573d6000803e3d6000fd5b505050506040513d601f19601f820116820180604052508101906127a391906133bc565b101561280b576040517f08c379a000000000000000000000000000000000000000000000000000000000815260206004820152601760248201527f55736572206e6f7420656e6f75676820636f75706f6e73000000000000000000604482015260640161040c565b612813610d44565b60008060009054906101000a90046001600160a01b03166001600160a01b031663bc3ea0186040518163ffffffff1660e01b8152600401602060405180830381865afa158015612867573d6000803e3d6000fd5b505050506040513d601f19601f8201168201806040525081019061288b919061339f565b905060008060009054906101000a90046001600160a01b03166001600160a01b0316633ae3d9a46040518163ffffffff1660e01b8152600401602060405180830381865afa1580156128e1573d6000803e3d6000fd5b505050506040513d601f19601f82011682018060405250810190612905919061339f565b6040517f70a082310000000000000000000000000000000000000000000000000000000081523060048201529091506001600160a01b038316906370a0823190602401602060405180830381865afa158015612965573d6000803e3d6000fd5b505050506040513d601f19601f8201168201806040525081019061298991906133bc565b816001600160a01b03166318160ddd6040518163ffffffff1660e01b8152600401602060405180830381865afa1580156129c7573d6000803e3d6000fd5b505050506040513d601f19601f820116820180604052508101906129eb91906133bc565b1115612a79576040517f08c379a000000000000000000000000000000000000000000000000000000000815260206004820152602b60248201527f5468657265206172656e277420656e6f7567682075414420746f20726564656560448201527f6d2063757272656e746c79000000000000000000000000000000000000000000606482015260840161040c565b6000816001600160a01b03166318160ddd6040518163ffffffff1660e01b8152600401602060405180830381865afa158015612ab9573d6000803e3d6000fd5b505050506040513d601f19601f82011682018060405250810190612add91906133bc565b6040517f70a082310000000000000000000000000000000000000000000000000000000081523060048201526001600160a01b038516906370a0823190602401602060405180830381865afa158015612b3a573d6000803e3d6000fd5b505050506040513d601f19601f82011682018060405250810190612b5e91906133bc565b612b689190613426565b90508681811115612b765750805b6040517f70a082310000000000000000000000000000000000000000000000000000000081523060048201526000906001600160a01b038616906370a0823190602401602060405180830381865afa158015612bd6573d6000803e3d6000fd5b505050506040513d601f19601f82011682018060405250810190612bfa91906133bc565b11612c87576040517f08c379a000000000000000000000000000000000000000000000000000000000815260206004820152602860248201527f5468657265206172656e277420616e792075414420746f2072656465656d206360448201527f757272656e746c79000000000000000000000000000000000000000000000000606482015260840161040c565b6040517f738f0cf100000000000000000000000000000000000000000000000000000000815233600482015260248101829052604481018a90526001600160a01b0386169063738f0cf190606401600060405180830381600087803b158015612cef57600080fd5b505af1158015612d03573d6000803e3d6000fd5b50506040517fa9059cbb000000000000000000000000000000000000000000000000000000008152336004820152602481018490526001600160a01b038716925063a9059cbb91506044016020604051808303816000875af1158015612d6d573d6000803e3d6000fd5b505050506040513d601f19601f82011682018060405250810190612d9191906133d5565b50612d9c8189613426565b9998505050505050505050565b60008054604080517fa41dd6e600000000000000000000000000000000000000000000000000000000815290516001600160a01b03909216916391d1485491839163a41dd6e6916004808201926020929091908290030181865afa158015612e15573d6000803e3d6000fd5b505050506040513d601f19601f82011682018060405250810190612e3991906133bc565b6040517fffffffff0000000000000000000000000000000000000000000000000000000060e084901b16815260048101919091526001600160a01b038a166024820152604401602060405180830381865afa158015612e9c573d6000803e3d6000fd5b505050506040513d601f19601f82011682018060405250810190612ec091906133d5565b15612eec57507ff23a6e612e1ff4830e658fe43f4e3cb4a5f8170bd5d9e69fb5d7a7fa9e4fdf97612ef0565b5060005b9695505050505050565b60008060009054906101000a90046001600160a01b03166001600160a01b0316638fe636836040518163ffffffff1660e01b8152600401602060405180830381865afa158015612f4e573d6000803e3d6000fd5b505050506040513d601f19601f82011682018060405250810190612f72919061339f565b6001600160a01b031663a2e620456040518163ffffffff1660e01b8152600401600060405180830381600087803b158015612fac57600080fd5b505af1158015612fc0573d6000803e3d6000fd5b5050505060008054906101000a90046001600160a01b03166001600160a01b0316638fe636836040518163ffffffff1660e01b8152600401602060405180830381865afa158015613015573d6000803e3d6000fd5b505050506040513d601f19601f82011682018060405250810190613039919061339f565b6001600160a01b031663283583c660008054906101000a90046001600160a01b03166001600160a01b031663bc3ea0186040518163ffffffff1660e01b8152600401602060405180830381865afa158015613098573d6000803e3d6000fd5b505050506040513d601f19601f820116820180604052508101906130bc919061339f565b6040517fffffffff0000000000000000000000000000000000000000000000000000000060e084901b1681526001600160a01b039091166004820152602401602060405180830381865afa158015613118573d6000803e3d6000fd5b505050506040513d601f19601f8201168201806040525081019061313c91906133bc565b905090565b60006020828403121561315357600080fd5b81357fffffffff00000000000000000000000000000000000000000000000000000000811681146122d457600080fd5b60006020828403121561319557600080fd5b5035919050565b600080604083850312156131af57600080fd5b50508035926020909101359150565b6001600160a01b03811681146131d357600080fd5b50565b60008083601f8401126131e857600080fd5b50813567ffffffffffffffff81111561320057600080fd5b6020830191508360208260051b850101111561321b57600080fd5b9250929050565b60008083601f84011261323457600080fd5b50813567ffffffffffffffff81111561324c57600080fd5b60208301915083602082850101111561321b57600080fd5b60008060008060008060008060a0898b03121561328057600080fd5b883561328b816131be565b9750602089013561329b816131be565b9650604089013567ffffffffffffffff808211156132b857600080fd5b6132c48c838d016131d6565b909850965060608b01359150808211156132dd57600080fd5b6132e98c838d016131d6565b909650945060808b013591508082111561330257600080fd5b5061330f8b828c01613222565b999c989b5096995094979396929594505050565b60008060008060008060a0878903121561333c57600080fd5b8635613347816131be565b95506020870135613357816131be565b94506040870135935060608701359250608087013567ffffffffffffffff81111561338157600080fd5b61338d89828a01613222565b979a9699509497509295939492505050565b6000602082840312156133b157600080fd5b81516122d4816131be565b6000602082840312156133ce57600080fd5b5051919050565b6000602082840312156133e757600080fd5b815180151581146122d457600080fd5b7f4e487b7100000000000000000000000000000000000000000000000000000000600052601160045260246000fd5b81810381811115611c9257611c926133f7565b80820180821115611c9257611c926133f7565b600082613482577f4e487b7100000000000000000000000000000000000000000000000000000000600052601260045260246000fd5b50049056fea26469706673582212200a5bedcae2f1567f505a424b761fdc7beb4fa9df0e3b880ad5371a12c5d19c2c64736f6c63430008100033",
    "linkReferences": {}
  },
  "methodIdentifiers": {
    "blockHeightDebt()": "4c5cac58",
    "burnAutoRedeemTokensForDollars(uint256)": "0cb03046",
    "burnCouponsForAutoRedemption(uint256,uint256)": "6938c414",
    "burnExpiredCouponsForUGOV(uint256,uint256)": "99c62889",
    "couponLengthBlocks()": "84800d65",
    "debtCycle()": "1ce83f50",
    "dollarsMintedThisCycle()": "bdd5d4b2",
    "exchangeDollarsForDebtCoupons(uint256)": "67a6847d",
    "exchangeDollarsForUAR(uint256)": "1adb4d32",
    "expiredCouponConvertionRate()": "02127499",
    "getCouponsReturnedForDollars(uint256)": "be30446d",
    "getUARReturnedForDollars(uint256)": "aac8e39a",
    "manager()": "481c6a75",
    "mintClaimableDollars()": "2565aa42",
    "onERC1155BatchReceived(address,address,uint256[],uint256[],bytes)": "bc197c81",
    "onERC1155Received(address,address,uint256,uint256,bytes)": "f23a6e61",
    "redeemCoupons(uint256,uint256)": "d6a9cf08",
    "setCouponLength(uint256)": "816dbc4a",
    "setExpiredCouponConvertionRate(uint256)": "cfc893fd",
    "supportsInterface(bytes4)": "01ffc9a7"
  },
  "id": 52
}