{
  "abi": [
    {
      "inputs": [
        {
          "internalType": "uint256",
          "name": "_totalULP",
          "type": "uint256"
        },
        {
          "internalType": "uint256",
          "name": "_totalUBOND",
          "type": "uint256"
        },
        {
          "internalType": "uint256",
          "name": "_targetPrice",
          "type": "uint256"
        }
      ],
      "name": "bondPrice",
      "outputs": [
        {
          "internalType": "uint256",
          "name": "_priceUBOND",
          "type": "uint256"
        }
      ],
      "stateMutability": "pure",
      "type": "function"
    },
    {
      "inputs": [
        {
          "internalType": "uint256",
          "name": "_shares",
          "type": "uint256"
        },
        {
          "internalType": "uint256",
          "name": "_currentShareValue",
          "type": "uint256"
        },
        {
          "internalType": "uint256",
          "name": "_targetPrice",
          "type": "uint256"
        }
      ],
      "name": "bonding",
      "outputs": [
        {
          "internalType": "uint256",
          "name": "_uBOND",
          "type": "uint256"
        }
      ],
      "stateMutability": "pure",
      "type": "function"
    },
    {
      "inputs": [
        {
          "internalType": "uint256",
          "name": "_uLP",
          "type": "uint256"
        },
        {
          "internalType": "uint256",
          "name": "_weeks",
          "type": "uint256"
        },
        {
          "internalType": "uint256",
          "name": "_multiplier",
          "type": "uint256"
        }
      ],
      "name": "durationMultiply",
      "outputs": [
        {
          "internalType": "uint256",
          "name": "_shares",
          "type": "uint256"
        }
      ],
      "stateMutability": "pure",
      "type": "function"
    },
    {
      "inputs": [
        {
          "internalType": "uint256",
          "name": "_uBOND",
          "type": "uint256"
        },
        {
          "internalType": "uint256",
          "name": "_currentShareValue",
          "type": "uint256"
        },
        {
          "internalType": "uint256",
          "name": "_targetPrice",
          "type": "uint256"
        }
      ],
      "name": "redeemBonds",
      "outputs": [
        {
          "internalType": "uint256",
          "name": "_uLP",
          "type": "uint256"
        }
      ],
      "stateMutability": "pure",
      "type": "function"
    },
    {
      "inputs": [
        {
          "internalType": "uint256",
          "name": "_multiplier",
          "type": "uint256"
        },
        {
          "internalType": "uint256",
          "name": "_price",
          "type": "uint256"
        }
      ],
      "name": "ugovMultiply",
      "outputs": [
        {
          "internalType": "uint256",
          "name": "_newMultiplier",
          "type": "uint256"
        }
      ],
      "stateMutability": "pure",
      "type": "function"
    }
  ],
  "bytecode": {
    "object": "0x608060405234801561001057600080fd5b50611895806100206000396000f3fe608060405234801561001057600080fd5b50600436106100675760003560e01c8063794e955c11610050578063794e955c146100a4578063cd324209146100b7578063d58d45a8146100ca57600080fd5b8063163380b31461006c5780635b374a4014610091575b600080fd5b61007f61007a3660046117b3565b6100dd565b60405190815260200160405180910390f35b61007f61009f3660046117b3565b610192565b61007f6100b23660046117df565b6102c5565b61007f6100c53660046117b3565b6103f4565b61007f6100d83660046117b3565b61049c565b6000806100e9856104f7565b905060006100f6856104f7565b90506000610103856104f7565b9050610187610160826101387fffffffffffffffffffffffffffffffff00000000000000000000000000000000871686610565565b7fffffffffffffffffffffffffffffffff0000000000000000000000000000000016906109e8565b7fffffffffffffffffffffffffffffffff0000000000000000000000000000000016610de0565b979650505050505050565b6000806101a6670de0b6b3a76400006104f7565b905060006101b3856104f7565b905060006102116101ea836101387fffffffffffffffffffffffffffffffff000000000000000000000000000000008216826109e8565b7fffffffffffffffffffffffffffffffff0000000000000000000000000000000016610e9f565b9050600061024a84610222886104f7565b7fffffffffffffffffffffffffffffffff000000000000000000000000000000001690610565565b90506000610257896104f7565b90506102b861016082610290816101387fffffffffffffffffffffffffffffffff000000000000000000000000000000008816896109e8565b7fffffffffffffffffffffffffffffffff000000000000000000000000000000001690611115565b9998505050505050505050565b6000806102d1846104f7565b905060006102de846104f7565b905060006102f3670e92596fd62900006104f7565b90506000610308670de0b6b3a76400006104f7565b9050600061038c61036361033e7fffffffffffffffffffffffffffffffff000000000000000000000000000000008516876116d5565b7f7fffffffffffffffffffffffffffffff000000000000000000000000000000001690565b7fffffffffffffffffffffffffffffffff00000000000000000000000000000000841690611115565b90506103c1610160826102227fffffffffffffffffffffffffffffffff000000000000000000000000000000008916876109e8565b9550674563918244f400008611806103e057506702c68af0bb14000086105b156103e9578795505b505050505092915050565b600080610400856104f7565b9050600061040d856104f7565b905060008515610448576104437fffffffffffffffffffffffffffffffff00000000000000000000000000000000841683610565565b610452565b61045260016104f7565b9050600061045f866104f7565b90506104906101607fffffffffffffffffffffffffffffffff000000000000000000000000000000008416836109e8565b98975050505050505050565b6000806104a8856104f7565b905060006104b5856104f7565b905060006104c2856104f7565b9050610187610160826102227fffffffffffffffffffffffffffffffff000000000000000000000000000000008716866109e8565b60008160000361050957506000919050565b81600061051582611703565b9050607081101561052e578060700382901b9150610541565b6070811115610541576070810382901c91505b613fff0160701b6dffffffffffffffffffffffffffff919091161760801b92915050565b6000617fff60f084811c8216919084901c8116908290036105e15780617fff036105b457507f7fff80000000000000000000000000000000000000000000000000000000000091506109e29050565b5050507f8000000000000000000000000000000000000000000000000000000000000000811682186109e2565b80617fff03610668577dffffffffffffffffffffffffffff0000000000000000000000000000000084161561063b57507f7fff80000000000000000000000000000000000000000000000000000000000091506109e29050565b5050508082187f8000000000000000000000000000000000000000000000000000000000000000166109e2565b7f7fffffffffffffffffffffffffffffff000000000000000000000000000000008416600003610736577f7fffffffffffffffffffffffffffffff0000000000000000000000000000000085166000036106e757507f7fff80000000000000000000000000000000000000000000000000000000000091506109e29050565b5050508082187f8000000000000000000000000000000000000000000000000000000000000000167f7fff000000000000000000000000000000000000000000000000000000000000176109e2565b6dffffffffffffffffffffffffffff608085901c16600082900361075d576001915061076f565b6e010000000000000000000000000000175b6dffffffffffffffffffffffffffff608087901c1660008490036107d75780156107d257600061079e82611703565b6001955060e2039384017fffffffffffffffffffffffffffffffffffffffffffffffffffffffffffffff8e01939190911b90505b6107ec565b6e0100000000000000000000000000001760721b5b8181816107fb576107fb611801565b04905080600003610863577f800000000000000000000000000000000000000000000000000000000000000087871816610836576000610858565b7f80000000000000000000000000000000000000000000000000000000000000005b9450505050506109e2565b6d100000000000000000000000000081101561088157610881611830565b60006e0800000000000000000000000000008210156108e1576e0400000000000000000000000000008210156108d6576e0200000000000000000000000000008210156108cf5760706108d9565b60716108d9565b60725b60ff166108ea565b6108ea82611703565b90508361407101818601111561090857617fff9450600091506109a2565b83818601613ffc0110156109235760009450600091506109a2565b83818601613f8c011015610970578385613ffc01111561094e578385613ffc010382901b9150610967565b8385613ffc01101561096757613ffc8585030382901c91505b600094506109a2565b6070811115610983576070810382901c91505b6dffffffffffffffffffffffffffff8216915083818601613f8d010394505b81607086901b888a186f8000000000000000000000000000000060801b1660801c6fffffffffffffffffffffffffffffffff16171760801b955050505050505b92915050565b6000617fff60f084811c8216919084901c811690829003610b3b5780617fff03610ae6577fffffffffffffffffffffffffffffffff0000000000000000000000000000000080851690861603610a65575050507f8000000000000000000000000000000000000000000000000000000000000000811682186109e2565b7fffffffffffffffffffffffffffffffff00000000000000000000000000000000858518167f800000000000000000000000000000000000000000000000000000000000000003610abb575050508181176109e2565b507f7fff80000000000000000000000000000000000000000000000000000000000091506109e29050565b7f7fffffffffffffffffffffffffffffff0000000000000000000000000000000084166000036105b457507f7fff80000000000000000000000000000000000000000000000000000000000091506109e29050565b80617fff03610bc6577f7fffffffffffffffffffffffffffffff000000000000000000000000000000008516600003610b9957507f7fff80000000000000000000000000000000000000000000000000000000000091506109e29050565b5050507f8000000000000000000000000000000000000000000000000000000000000000821681186109e2565b6dffffffffffffffffffffffffffff608086901c166000839003610bed5760019250610bff565b6e010000000000000000000000000000175b6dffffffffffffffffffffffffffff608086901c166000839003610c265760019250610c38565b6e010000000000000000000000000000175b808202915081600003610c75577f800000000000000000000000000000000000000000000000000000000000000087871816610836576000610858565b9282019260007c0200000000000000000000000000000000000000000000000000000000831015610cda577c0100000000000000000000000000000000000000000000000000000000831015610cd357610cce83611703565b610cdd565b60e0610cdd565b60e15b90506140708186011015610cf8576000945060009250610d9c565b6140e08186011015610d3b57614070851015610d1d57846140700383901c9250610d32565b614070851115610d3257614070850383901b92505b60009450610d9c565b61c0dd8186011115610d5557617fff945060009250610d9c565b6070811115610d6c576070810383901c9250610d7f565b6070811015610d7f578060700383901b92505b6dffffffffffffffffffffffffffff831692506140df8186010394505b82607086901b888a186f8000000000000000000000000000000060801b1660801c6fffffffffffffffffffffffffffffffff16171760801b955050505050506109e2565b6000617fff60f083901c16613fff811015610dfe5750600092915050565b6f80000000000000000000000000000000608084901c10610e1e57600080fd5b6140fe811115610e2d57600080fd5b6e0100000000000000000000000000006dffffffffffffffffffffffffffff608085901c161761406f821015610e695761406f8290031c610e98565b61406f821115610e98577fffffffffffffffffffffffffffffffffffffffffffffffffffffffffffffbf9182011b5b9392505050565b60006f80000000000000000000000000000000608083901c1115610ee457507f7fff800000000000000000000000000000000000000000000000000000000000919050565b617fff60f083901c811690819003610efd575090919050565b6dffffffffffffffffffffffffffff608084901c166000829003610f245760019150610f36565b6e010000000000000000000000000000175b80600003610f48575060009392505050565b613fff8201600190811c9216158015610fc3576e0100000000000000000000000000008210610f7d57607182901b9150611027565b6000610f8883611703565b60e20360fe167fffffffffffffffffffffffffffffffffffffffffffffffffffffffffffffff90810160011c909403939290921b9150611027565b6e0100000000000000000000000000008210610fe557607082901b9150611027565b6000610ff083611703565b60e10360fe167fffffffffffffffffffffffffffffffffffffffffffffffffffffffffffffff90810160011c909403939290921b91505b6e01000000000000000000000000000080830401600190811c9081848161105057611050611801565b048201901c9050600181848161106857611068611801565b048201901c9050600181848161108057611080611801565b048201901c9050600181848161109857611098611801565b048201901c905060018184816110b0576110b0611801565b048201901c905060018184816110c8576110c8611801565b048201901c905060008184816110e0576110e0611801565b049050818110156110ef578091505b816dffffffffffffffffffffffffffff16607086901b1760801b95505050505050919050565b6000617fff60f084811c8216919084901c8116908290036111795780617fff0361116f577fffffffffffffffffffffffffffffffff0000000000000000000000000000000080851690861603610abb5784925050506109e2565b84925050506109e2565b80617fff0361118c5783925050506109e2565b6f80000000000000000000000000000000608086901c90811015906dffffffffffffffffffffffffffff1660008490036111c957600193506111db565b6e010000000000000000000000000000175b6f80000000000000000000000000000000608087901c90811015906dffffffffffffffffffffffffffff166000859003611218576001945061122a565b6e010000000000000000000000000000175b82600003611291577fffffffffffffffffffffffffffffffff0000000000000000000000000000000088167f8000000000000000000000000000000000000000000000000000000000000000146112815787611284565b60005b96505050505050506109e2565b806000036112e8577fffffffffffffffffffffffffffffffff0000000000000000000000000000000089167f8000000000000000000000000000000000000000000000000000000000000000146112815788611284565b8486038215158515150361147457607081131561130e57899750505050505050506109e2565b60008113156113205790811c9061136d565b7fffffffffffffffffffffffffffffffffffffffffffffffffffffffffffffff9081121561135757889750505050505050506109e2565b600081121561136d578060000384901c93508596505b928101926e0200000000000000000000000000008410611393576001968701969390931c925b86617fff036113f757846113c7577f7fff0000000000000000000000000000000000000000000000000000000000006113e9565b7fffff0000000000000000000000000000000000000000000000000000000000005b9750505050505050506109e2565b6e010000000000000000000000000000841015611417576000965061142b565b6dffffffffffffffffffffffffffff841693505b83607088901b8661143d57600061144f565b6f800000000000000000000000000000005b6fffffffffffffffffffffffffffffffff16171760801b9750505050505050506109e2565b600081131561148f57600184901b93506001870396506114a6565b60008112156114a657600182901b91506001860396505b60708113156114b85760019150611541565b60018113156114d5576001810360018303901c6001019150611541565b7fffffffffffffffffffffffffffffffffffffffffffffffffffffffffffffff908112156115065760019350611541565b7fffffffffffffffffffffffffffffffffffffffffffffffffffffffffffffffff811215611541576001816000030360018503901c60010193505b81841061155257818403935061155b565b83820393508294505b836000036115745750600096506109e295505050505050565b600061157f85611703565b9050806071036115ab57600185901c6dffffffffffffffffffffffffffff169450600188019750611626565b6070811015611612576070819003808911156115e1578086901b6dffffffffffffffffffffffffffff169550808903985061160c565b6000987fffffffffffffffffffffffffffffffffffffffffffffffffffffffffffffffff019590951b945b50611626565b6dffffffffffffffffffffffffffff851694505b87617fff0361168b578561165a577f7fff00000000000000000000000000000000000000000000000000000000000061167c565b7fffff0000000000000000000000000000000000000000000000000000000000005b985050505050505050506109e2565b84607089901b8761169d5760006116af565b6f800000000000000000000000000000005b6fffffffffffffffffffffffffffffffff16171760801b985050505050505050506109e2565b6000610e98837f80000000000000000000000000000000000000000000000000000000000000008418611115565b600080821161171157600080fd5b6000700100000000000000000000000000000000831061173357608092831c92015b68010000000000000000831061174b57604092831c92015b640100000000831061175f57602092831c92015b62010000831061177157601092831c92015b610100831061178257600892831c92015b6010831061179257600492831c92015b600483106117a257600292831c92015b600283106109e25760010192915050565b6000806000606084860312156117c857600080fd5b505081359360208301359350604090920135919050565b600080604083850312156117f257600080fd5b50508035926020909101359150565b7f4e487b7100000000000000000000000000000000000000000000000000000000600052601260045260246000fd5b7f4e487b7100000000000000000000000000000000000000000000000000000000600052600160045260246000fdfea2646970667358221220d04be7758075ae2b2fba27a8d929c86def4e650e1561ead694664e2fbec7a7d864736f6c63430008100033",
    "linkReferences": {}
  },
  "methodIdentifiers": {
    "bondPrice(uint256,uint256,uint256)": "cd324209",
    "bonding(uint256,uint256,uint256)": "163380b3",
    "durationMultiply(uint256,uint256,uint256)": "5b374a40",
    "redeemBonds(uint256,uint256,uint256)": "d58d45a8",
    "ugovMultiply(uint256,uint256)": "794e955c"
  },
  "id": 59
}