{
  "abi": [
    {
      "inputs": [
        {
          "internalType": "address",
          "name": "_manager",
          "type": "address"
        },
        {
          "internalType": "string",
          "name": "uri",
          "type": "string"
        }
      ],
      "stateMutability": "nonpayable",
      "type": "constructor"
    },
    {
      "anonymous": false,
      "inputs": [
        {
          "indexed": true,
          "internalType": "address",
          "name": "account",
          "type": "address"
        },
        {
          "indexed": true,
          "internalType": "address",
          "name": "operator",
          "type": "address"
        },
        {
          "indexed": false,
          "internalType": "bool",
          "name": "approved",
          "type": "bool"
        }
      ],
      "name": "ApprovalForAll",
      "type": "event"
    },
    {
      "anonymous": false,
      "inputs": [
        {
          "indexed": false,
          "internalType": "address",
          "name": "account",
          "type": "address"
        }
      ],
      "name": "Paused",
      "type": "event"
    },
    {
      "anonymous": false,
      "inputs": [
        {
          "indexed": true,
          "internalType": "address",
          "name": "operator",
          "type": "address"
        },
        {
          "indexed": true,
          "internalType": "address",
          "name": "from",
          "type": "address"
        },
        {
          "indexed": true,
          "internalType": "address",
          "name": "to",
          "type": "address"
        },
        {
          "indexed": false,
          "internalType": "uint256[]",
          "name": "ids",
          "type": "uint256[]"
        },
        {
          "indexed": false,
          "internalType": "uint256[]",
          "name": "values",
          "type": "uint256[]"
        }
      ],
      "name": "TransferBatch",
      "type": "event"
    },
    {
      "anonymous": false,
      "inputs": [
        {
          "indexed": true,
          "internalType": "address",
          "name": "operator",
          "type": "address"
        },
        {
          "indexed": true,
          "internalType": "address",
          "name": "from",
          "type": "address"
        },
        {
          "indexed": true,
          "internalType": "address",
          "name": "to",
          "type": "address"
        },
        {
          "indexed": false,
          "internalType": "uint256",
          "name": "id",
          "type": "uint256"
        },
        {
          "indexed": false,
          "internalType": "uint256",
          "name": "value",
          "type": "uint256"
        }
      ],
      "name": "TransferSingle",
      "type": "event"
    },
    {
      "anonymous": false,
      "inputs": [
        {
          "indexed": false,
          "internalType": "string",
          "name": "value",
          "type": "string"
        },
        {
          "indexed": true,
          "internalType": "uint256",
          "name": "id",
          "type": "uint256"
        }
      ],
      "name": "URI",
      "type": "event"
    },
    {
      "anonymous": false,
      "inputs": [
        {
          "indexed": false,
          "internalType": "address",
          "name": "account",
          "type": "address"
        }
      ],
      "name": "Unpaused",
      "type": "event"
    },
    {
      "inputs": [
        {
          "internalType": "address",
          "name": "account",
          "type": "address"
        },
        {
          "internalType": "uint256",
          "name": "id",
          "type": "uint256"
        }
      ],
      "name": "balanceOf",
      "outputs": [
        {
          "internalType": "uint256",
          "name": "",
          "type": "uint256"
        }
      ],
      "stateMutability": "view",
      "type": "function"
    },
    {
      "inputs": [
        {
          "internalType": "address[]",
          "name": "accounts",
          "type": "address[]"
        },
        {
          "internalType": "uint256[]",
          "name": "ids",
          "type": "uint256[]"
        }
      ],
      "name": "balanceOfBatch",
      "outputs": [
        {
          "internalType": "uint256[]",
          "name": "",
          "type": "uint256[]"
        }
      ],
      "stateMutability": "view",
      "type": "function"
    },
    {
      "inputs": [
        {
          "internalType": "address",
          "name": "account",
          "type": "address"
        },
        {
          "internalType": "uint256",
          "name": "id",
          "type": "uint256"
        },
        {
          "internalType": "uint256",
          "name": "value",
          "type": "uint256"
        }
      ],
      "name": "burn",
      "outputs": [],
      "stateMutability": "nonpayable",
      "type": "function"
    },
    {
      "inputs": [
        {
          "internalType": "address",
          "name": "account",
          "type": "address"
        },
        {
          "internalType": "uint256[]",
          "name": "ids",
          "type": "uint256[]"
        },
        {
          "internalType": "uint256[]",
          "name": "values",
          "type": "uint256[]"
        }
      ],
      "name": "burnBatch",
      "outputs": [],
      "stateMutability": "nonpayable",
      "type": "function"
    },
    {
      "inputs": [
        {
          "internalType": "uint256",
          "name": "id",
          "type": "uint256"
        }
      ],
      "name": "getBond",
      "outputs": [
        {
          "components": [
            {
              "internalType": "address",
              "name": "minter",
              "type": "address"
            },
            {
              "internalType": "uint256",
              "name": "lpFirstDeposited",
              "type": "uint256"
            },
            {
              "internalType": "uint256",
              "name": "creationBlock",
              "type": "uint256"
            },
            {
              "internalType": "uint256",
              "name": "lpRewardDebt",
              "type": "uint256"
            },
            {
              "internalType": "uint256",
              "name": "endBlock",
              "type": "uint256"
            },
            {
              "internalType": "uint256",
              "name": "lpAmount",
              "type": "uint256"
            }
          ],
          "internalType": "struct BondingShareV2.Bond",
          "name": "",
          "type": "tuple"
        }
      ],
      "stateMutability": "view",
      "type": "function"
    },
    {
      "inputs": [
        {
          "internalType": "address",
          "name": "holder",
          "type": "address"
        }
      ],
      "name": "holderTokens",
      "outputs": [
        {
          "internalType": "uint256[]",
          "name": "",
          "type": "uint256[]"
        }
      ],
      "stateMutability": "view",
      "type": "function"
    },
    {
      "inputs": [
        {
          "internalType": "address",
          "name": "account",
          "type": "address"
        },
        {
          "internalType": "address",
          "name": "operator",
          "type": "address"
        }
      ],
      "name": "isApprovedForAll",
      "outputs": [
        {
          "internalType": "bool",
          "name": "",
          "type": "bool"
        }
      ],
      "stateMutability": "view",
      "type": "function"
    },
    {
      "inputs": [],
      "name": "manager",
      "outputs": [
        {
          "internalType": "contract UbiquityAlgorithmicDollarManager",
          "name": "",
          "type": "address"
        }
      ],
      "stateMutability": "view",
      "type": "function"
    },
    {
      "inputs": [
        {
          "internalType": "address",
          "name": "to",
          "type": "address"
        },
        {
          "internalType": "uint256",
          "name": "lpDeposited",
          "type": "uint256"
        },
        {
          "internalType": "uint256",
          "name": "lpRewardDebt",
          "type": "uint256"
        },
        {
          "internalType": "uint256",
          "name": "endBlock",
          "type": "uint256"
        }
      ],
      "name": "mint",
      "outputs": [
        {
          "internalType": "uint256",
          "name": "id",
          "type": "uint256"
        }
      ],
      "stateMutability": "nonpayable",
      "type": "function"
    },
    {
      "inputs": [],
      "name": "pause",
      "outputs": [],
      "stateMutability": "nonpayable",
      "type": "function"
    },
    {
      "inputs": [],
      "name": "paused",
      "outputs": [
        {
          "internalType": "bool",
          "name": "",
          "type": "bool"
        }
      ],
      "stateMutability": "view",
      "type": "function"
    },
    {
      "inputs": [
        {
          "internalType": "address",
          "name": "from",
          "type": "address"
        },
        {
          "internalType": "address",
          "name": "to",
          "type": "address"
        },
        {
          "internalType": "uint256[]",
          "name": "ids",
          "type": "uint256[]"
        },
        {
          "internalType": "uint256[]",
          "name": "amounts",
          "type": "uint256[]"
        },
        {
          "internalType": "bytes",
          "name": "data",
          "type": "bytes"
        }
      ],
      "name": "safeBatchTransferFrom",
      "outputs": [],
      "stateMutability": "nonpayable",
      "type": "function"
    },
    {
      "inputs": [
        {
          "internalType": "address",
          "name": "from",
          "type": "address"
        },
        {
          "internalType": "address",
          "name": "to",
          "type": "address"
        },
        {
          "internalType": "uint256",
          "name": "id",
          "type": "uint256"
        },
        {
          "internalType": "uint256",
          "name": "amount",
          "type": "uint256"
        },
        {
          "internalType": "bytes",
          "name": "data",
          "type": "bytes"
        }
      ],
      "name": "safeTransferFrom",
      "outputs": [],
      "stateMutability": "nonpayable",
      "type": "function"
    },
    {
      "inputs": [
        {
          "internalType": "address",
          "name": "operator",
          "type": "address"
        },
        {
          "internalType": "bool",
          "name": "approved",
          "type": "bool"
        }
      ],
      "name": "setApprovalForAll",
      "outputs": [],
      "stateMutability": "nonpayable",
      "type": "function"
    },
    {
      "inputs": [
        {
          "internalType": "bytes4",
          "name": "interfaceId",
          "type": "bytes4"
        }
      ],
      "name": "supportsInterface",
      "outputs": [
        {
          "internalType": "bool",
          "name": "",
          "type": "bool"
        }
      ],
      "stateMutability": "view",
      "type": "function"
    },
    {
      "inputs": [],
      "name": "totalLP",
      "outputs": [
        {
          "internalType": "uint256",
          "name": "",
          "type": "uint256"
        }
      ],
      "stateMutability": "view",
      "type": "function"
    },
    {
      "inputs": [],
      "name": "totalSupply",
      "outputs": [
        {
          "internalType": "uint256",
          "name": "",
          "type": "uint256"
        }
      ],
      "stateMutability": "view",
      "type": "function"
    },
    {
      "inputs": [],
      "name": "unpause",
      "outputs": [],
      "stateMutability": "nonpayable",
      "type": "function"
    },
    {
      "inputs": [
        {
          "internalType": "uint256",
          "name": "_bondId",
          "type": "uint256"
        },
        {
          "internalType": "uint256",
          "name": "_lpAmount",
          "type": "uint256"
        },
        {
          "internalType": "uint256",
          "name": "_lpRewardDebt",
          "type": "uint256"
        },
        {
          "internalType": "uint256",
          "name": "_endBlock",
          "type": "uint256"
        }
      ],
      "name": "updateBond",
      "outputs": [],
      "stateMutability": "nonpayable",
      "type": "function"
    },
    {
      "inputs": [
        {
          "internalType": "uint256",
          "name": "",
          "type": "uint256"
        }
      ],
      "name": "uri",
      "outputs": [
        {
          "internalType": "string",
          "name": "",
          "type": "string"
        }
      ],
      "stateMutability": "view",
      "type": "function"
    }
  ],
  "bytecode": {
    "object": "0x60806040523480156200001157600080fd5b506040516200352e3803806200352e833981016040819052620000349162000142565b8062000040816200006d565b5050600380546001600160a01b03909216610100026001600160a81b03199092169190911790556200027f565b80516200008290600290602084019062000086565b5050565b828054620000949062000242565b90600052602060002090601f016020900481019282620000b8576000855562000103565b82601f10620000d357805160ff191683800117855562000103565b8280016001018555821562000103579182015b8281111562000103578251825591602001919060010190620000e6565b506200011192915062000115565b5090565b5b8082111562000111576000815560010162000116565b634e487b7160e01b600052604160045260246000fd5b600080604083850312156200015657600080fd5b82516001600160a01b03811681146200016e57600080fd5b602084810151919350906001600160401b03808211156200018e57600080fd5b818601915086601f830112620001a357600080fd5b815181811115620001b857620001b86200012c565b604051601f8201601f19908116603f01168101908382118183101715620001e357620001e36200012c565b816040528281528986848701011115620001fc57600080fd5b600093505b8284101562000220578484018601518185018701529285019262000201565b82841115620002325760008684830101525b8096505050505050509250929050565b600181811c908216806200025757607f821691505b602082108114156200027957634e487b7160e01b600052602260045260246000fd5b50919050565b61329f806200028f6000396000f3fe608060405234801561001057600080fd5b506004361061016b5760003560e01c80636b20c454116100cd578063a7573cea11610081578063e985e9c511610066578063e985e9c514610357578063f242432a146103a0578063f5298aca146103b357600080fd5b8063a7573cea146102cf578063d8fe7642146102e257600080fd5b80638456cb59116100b25780638456cb59146102a1578063a22cb465146102a9578063a647e8ec146102bc57600080fd5b80636b20c4541461027b5780637b48c3fd1461028e57600080fd5b80632eb2c2d611610124578063481c6a7511610109578063481c6a75146102065780634e1273f4146102505780635c975abb1461027057600080fd5b80632eb2c2d6146101e95780633f4ba83a146101fe57600080fd5b80630e89341c116101555780630e89341c146101b9578063132c4feb146101d957806318160ddd146101e157600080fd5b8062fdd58e1461017057806301ffc9a714610196575b600080fd5b61018361017e3660046128cb565b6103c6565b6040519081526020015b60405180910390f35b6101a96101a4366004612926565b610489565b604051901515815260200161018d565b6101cc6101c736600461294a565b61056e565b60405161018d91906129ce565b600654610183565b600754610183565b6101fc6101f7366004612b82565b610602565b005b6101fc61064d565b60035461022b90610100900473ffffffffffffffffffffffffffffffffffffffff1681565b60405173ffffffffffffffffffffffffffffffffffffffff909116815260200161018d565b61026361025e366004612c2c565b6107df565b60405161018d9190612d32565b60035460ff166101a9565b6101fc610289366004612d45565b61091d565b61026361029c366004612db9565b6109c8565b6101fc610a40565b6101fc6102b7366004612de2565b610bd0565b6101836102ca366004612e19565b610bdf565b6101fc6102dd366004612e52565b610e74565b6102f56102f036600461294a565b611082565b60405161018d9190600060c08201905073ffffffffffffffffffffffffffffffffffffffff83511682526020830151602083015260408301516040830152606083015160608301526080830151608083015260a083015160a083015292915050565b6101a9610365366004612e84565b73ffffffffffffffffffffffffffffffffffffffff918216600090815260016020908152604080832093909416825291909152205460ff1690565b6101fc6103ae366004612eb7565b61113d565b6101fc6103c1366004612f1c565b611181565b600073ffffffffffffffffffffffffffffffffffffffff83166104565760405162461bcd60e51b815260206004820152602a60248201527f455243313135353a2061646472657373207a65726f206973206e6f742061207660448201527f616c6964206f776e65720000000000000000000000000000000000000000000060648201526084015b60405180910390fd5b5060009081526020818152604080832073ffffffffffffffffffffffffffffffffffffffff949094168352929052205490565b60007fffffffff0000000000000000000000000000000000000000000000000000000082167fd9b67a2600000000000000000000000000000000000000000000000000000000148061051c57507fffffffff0000000000000000000000000000000000000000000000000000000082167f0e89341c00000000000000000000000000000000000000000000000000000000145b8061056857507f01ffc9a7000000000000000000000000000000000000000000000000000000007fffffffff000000000000000000000000000000000000000000000000000000008316145b92915050565b60606002805461057d90612f4f565b80601f01602080910402602001604051908101604052809291908181526020018280546105a990612f4f565b80156105f65780601f106105cb576101008083540402835291602001916105f6565b820191906000526020600020905b8154815290600101906020018083116105d957829003601f168201915b50505050509050919050565b61060a611227565b610617858585858561127a565b73ffffffffffffffffffffffffffffffffffffffff841660009081526004602052604090206106469084611322565b5050505050565b600354604080517fe63ab1e9000000000000000000000000000000000000000000000000000000008152905161010090920473ffffffffffffffffffffffffffffffffffffffff16916391d1485491839163e63ab1e991600480820192602092909190829003018186803b1580156106c457600080fd5b505afa1580156106d8573d6000803e3d6000fd5b505050506040513d601f19601f820116820180604052508101906106fc9190612fa3565b6040517fffffffff0000000000000000000000000000000000000000000000000000000060e084901b168152600481019190915233602482015260440160206040518083038186803b15801561075157600080fd5b505afa158015610765573d6000803e3d6000fd5b505050506040513d601f19601f820116820180604052508101906107899190612fbc565b6107d55760405162461bcd60e51b815260206004820152601c60248201527f476f7665726e616e636520746f6b656e3a206e6f742070617573657200000000604482015260640161044d565b6107dd6113df565b565b606081518351146108585760405162461bcd60e51b815260206004820152602960248201527f455243313135353a206163636f756e747320616e6420696473206c656e67746860448201527f206d69736d617463680000000000000000000000000000000000000000000000606482015260840161044d565b6000835167ffffffffffffffff811115610874576108746129e1565b60405190808252806020026020018201604052801561089d578160200160208202803683370190505b50905060005b8451811015610915576108e88582815181106108c1576108c1612fd9565b60200260200101518583815181106108db576108db612fd9565b60200260200101516103c6565b8282815181106108fa576108fa612fd9565b602090810291909101015261090e81613037565b90506108a3565b509392505050565b73ffffffffffffffffffffffffffffffffffffffff831633148061094657506109468333610365565b6109b85760405162461bcd60e51b815260206004820152602e60248201527f455243313135353a2063616c6c6572206973206e6f7420746f6b656e206f776e60448201527f6572206f7220617070726f766564000000000000000000000000000000000000606482015260840161044d565b6109c383838361145c565b505050565b73ffffffffffffffffffffffffffffffffffffffff81166000908152600460209081526040918290208054835181840281018401909452808452606093928301828280156105f657602002820191906000526020600020905b815481526020019060010190808311610a215750505050509050919050565b600354604080517fe63ab1e9000000000000000000000000000000000000000000000000000000008152905161010090920473ffffffffffffffffffffffffffffffffffffffff16916391d1485491839163e63ab1e991600480820192602092909190829003018186803b158015610ab757600080fd5b505afa158015610acb573d6000803e3d6000fd5b505050506040513d601f19601f82011682018060405250810190610aef9190612fa3565b6040517fffffffff0000000000000000000000000000000000000000000000000000000060e084901b168152600481019190915233602482015260440160206040518083038186803b158015610b4457600080fd5b505afa158015610b58573d6000803e3d6000fd5b505050506040513d601f19601f82011682018060405250810190610b7c9190612fbc565b610bc85760405162461bcd60e51b815260206004820152601c60248201527f476f7665726e616e636520746f6b656e3a206e6f742070617573657200000000604482015260640161044d565b6107dd6114c2565b610bdb33838361151d565b5050565b600354604080517f2f533cb70000000000000000000000000000000000000000000000000000000081529051600092610100900473ffffffffffffffffffffffffffffffffffffffff16916391d14854918391632f533cb7916004808301926020929190829003018186803b158015610c5757600080fd5b505afa158015610c6b573d6000803e3d6000fd5b505050506040513d601f19601f82011682018060405250810190610c8f9190612fa3565b6040517fffffffff0000000000000000000000000000000000000000000000000000000060e084901b168152600481019190915233602482015260440160206040518083038186803b158015610ce457600080fd5b505afa158015610cf8573d6000803e3d6000fd5b505050506040513d601f19601f82011682018060405250810190610d1c9190612fbc565b610d685760405162461bcd60e51b815260206004820152601c60248201527f476f7665726e616e636520746f6b656e3a206e6f74206d696e74657200000000604482015260640161044d565b610d70611227565b600754610d7e906001613070565b9050610d9c8582600160405180602001604052806000815250611657565b600160076000828254610daf9190613070565b909155505073ffffffffffffffffffffffffffffffffffffffff85166000908152600460205260409020610de390826117bd565b6000818152600560208190526040822080547fffffffffffffffffffffffff00000000000000000000000000000000000000001673ffffffffffffffffffffffffffffffffffffffff89161781556001810187905590810186905560038101859055436002820155600481018490556006805491928792610e65908490613070565b90915550919695505050505050565b600354604080517f2f533cb7000000000000000000000000000000000000000000000000000000008152905161010090920473ffffffffffffffffffffffffffffffffffffffff16916391d14854918391632f533cb791600480820192602092909190829003018186803b158015610eeb57600080fd5b505afa158015610eff573d6000803e3d6000fd5b505050506040513d601f19601f82011682018060405250810190610f239190612fa3565b6040517fffffffff0000000000000000000000000000000000000000000000000000000060e084901b168152600481019190915233602482015260440160206040518083038186803b158015610f7857600080fd5b505afa158015610f8c573d6000803e3d6000fd5b505050506040513d601f19601f82011682018060405250810190610fb09190612fbc565b610ffc5760405162461bcd60e51b815260206004820152601c60248201527f476f7665726e616e636520746f6b656e3a206e6f74206d696e74657200000000604482015260640161044d565b611004611227565b600084815260056020819052604090912090810154848111156110475761102b8582613088565b6006600082825461103c9190613088565b909155506110689050565b6110518186613088565b600660008282546110629190613070565b90915550505b506005810193909355600383019190915560049091015550565b6110d16040518060c00160405280600073ffffffffffffffffffffffffffffffffffffffff16815260200160008152602001600081526020016000815260200160008152602001600081525090565b50600090815260056020818152604092839020835160c081018552815473ffffffffffffffffffffffffffffffffffffffff168152600182015492810192909252600281015493820193909352600383015460608201526004830154608082015291015460a082015290565b611145611227565b611152858585858561181d565b73ffffffffffffffffffffffffffffffffffffffff8416600090815260046020526040902061064690846117bd565b73ffffffffffffffffffffffffffffffffffffffff83163314806111aa57506111aa8333610365565b61121c5760405162461bcd60e51b815260206004820152602e60248201527f455243313135353a2063616c6c6572206973206e6f7420746f6b656e206f776e60448201527f6572206f7220617070726f766564000000000000000000000000000000000000606482015260840161044d565b6109c38383836118c5565b60035460ff16156107dd5760405162461bcd60e51b815260206004820152601060248201527f5061757361626c653a2070617573656400000000000000000000000000000000604482015260640161044d565b73ffffffffffffffffffffffffffffffffffffffff85163314806112a357506112a38533610365565b6113155760405162461bcd60e51b815260206004820152602e60248201527f455243313135353a2063616c6c6572206973206e6f7420746f6b656e206f776e60448201527f6572206f7220617070726f766564000000000000000000000000000000000000606482015260840161044d565b61064685858585856119a9565b60005b81518110156109c3576000805b84548110156113935783838151811061134d5761134d612fd9565b602002602001015185828154811061136757611367612fd9565b906000526020600020015414156113815760019150611393565b8061138b81613037565b915050611332565b50806113cc57838383815181106113ac576113ac612fd9565b602090810291909101810151825460018101845560009384529190922001555b50806113d781613037565b915050611325565b6113e7611ca3565b600380547fffffffffffffffffffffffffffffffffffffffffffffffffffffffffffffff001690557f5db9ee0a495bf2e6ff9c91a7834c1ba4fdd244a5e8aa4e537bd38aeae4b073aa335b60405173ffffffffffffffffffffffffffffffffffffffff909116815260200160405180910390a1565b611464611227565b61146f838383611cf5565b60005b82518110156114bc5781818151811061148d5761148d612fd9565b6020026020010151600760008282546114a69190613088565b909155506114b5905081613037565b9050611472565b50505050565b6114ca611227565b600380547fffffffffffffffffffffffffffffffffffffffffffffffffffffffffffffff001660011790557f62e78cea01bee320cd4e420270b5ea74000d11b0c9f74754ebdbfc544b05a2586114323390565b8173ffffffffffffffffffffffffffffffffffffffff168373ffffffffffffffffffffffffffffffffffffffff1614156115bf5760405162461bcd60e51b815260206004820152602960248201527f455243313135353a2073657474696e6720617070726f76616c2073746174757360448201527f20666f722073656c660000000000000000000000000000000000000000000000606482015260840161044d565b73ffffffffffffffffffffffffffffffffffffffff83811660008181526001602090815260408083209487168084529482529182902080547fffffffffffffffffffffffffffffffffffffffffffffffffffffffffffffff001686151590811790915591519182527f17307eab39ab6107e8899845ad3d59bd9653f200f220920489ca2b5937696c31910160405180910390a3505050565b73ffffffffffffffffffffffffffffffffffffffff84166116e05760405162461bcd60e51b815260206004820152602160248201527f455243313135353a206d696e7420746f20746865207a65726f2061646472657360448201527f7300000000000000000000000000000000000000000000000000000000000000606482015260840161044d565b3360006116ec85611fe0565b905060006116f985611fe0565b905061170a8360008985858961202b565b60008681526020818152604080832073ffffffffffffffffffffffffffffffffffffffff8b16845290915281208054879290611747908490613070565b9091555050604080518781526020810187905273ffffffffffffffffffffffffffffffffffffffff808a1692600092918716917fc3d58168c5ae7397731d063d5bbf3d657854427343f4c083240f7aacaa2d0f62910160405180910390a46117b483600089898989612039565b50505050505050565b60005b825481101561180457818382815481106117dc576117dc612fd9565b906000526020600020015414156117f257505050565b806117fc81613037565b9150506117c0565b5081546001810183556000928352602090922090910155565b73ffffffffffffffffffffffffffffffffffffffff851633148061184657506118468533610365565b6118b85760405162461bcd60e51b815260206004820152602e60248201527f455243313135353a2063616c6c6572206973206e6f7420746f6b656e206f776e60448201527f6572206f7220617070726f766564000000000000000000000000000000000000606482015260840161044d565b6106468585858585612285565b6118cd611227565b8060011461191d5760405162461bcd60e51b815260206004820152600b60248201527f616d6f756e74203c3e2031000000000000000000000000000000000000000000604482015260640161044d565b6119298383600161249d565b6000828152600560208190526040909120908101541561198b5760405162461bcd60e51b815260206004820152600760248201527f4c50203c3e203000000000000000000000000000000000000000000000000000604482015260640161044d565b60016007600082825461199e9190613088565b909155505050505050565b8151835114611a205760405162461bcd60e51b815260206004820152602860248201527f455243313135353a2069647320616e6420616d6f756e7473206c656e6774682060448201527f6d69736d61746368000000000000000000000000000000000000000000000000606482015260840161044d565b73ffffffffffffffffffffffffffffffffffffffff8416611aa95760405162461bcd60e51b815260206004820152602560248201527f455243313135353a207472616e7366657220746f20746865207a65726f20616460448201527f6472657373000000000000000000000000000000000000000000000000000000606482015260840161044d565b33611ab881878787878761202b565b60005b8451811015611c0e576000858281518110611ad857611ad8612fd9565b602002602001015190506000858381518110611af657611af6612fd9565b6020908102919091018101516000848152808352604080822073ffffffffffffffffffffffffffffffffffffffff8e168352909352919091205490915081811015611ba95760405162461bcd60e51b815260206004820152602a60248201527f455243313135353a20696e73756666696369656e742062616c616e636520666f60448201527f72207472616e7366657200000000000000000000000000000000000000000000606482015260840161044d565b60008381526020818152604080832073ffffffffffffffffffffffffffffffffffffffff8e8116855292528083208585039055908b16825281208054849290611bf3908490613070565b9250508190555050505080611c0790613037565b9050611abb565b508473ffffffffffffffffffffffffffffffffffffffff168673ffffffffffffffffffffffffffffffffffffffff168273ffffffffffffffffffffffffffffffffffffffff167f4a39dc06d4c0dbc64b70af90fd698a233a518aa5d07e595d983b8c0526c8f7fb8787604051611c8592919061309f565b60405180910390a4611c9b818787878787612687565b505050505050565b60035460ff166107dd5760405162461bcd60e51b815260206004820152601460248201527f5061757361626c653a206e6f7420706175736564000000000000000000000000604482015260640161044d565b73ffffffffffffffffffffffffffffffffffffffff8316611d7e5760405162461bcd60e51b815260206004820152602360248201527f455243313135353a206275726e2066726f6d20746865207a65726f206164647260448201527f6573730000000000000000000000000000000000000000000000000000000000606482015260840161044d565b8051825114611df55760405162461bcd60e51b815260206004820152602860248201527f455243313135353a2069647320616e6420616d6f756e7473206c656e6774682060448201527f6d69736d61746368000000000000000000000000000000000000000000000000606482015260840161044d565b6000339050611e188185600086866040518060200160405280600081525061202b565b60005b8351811015611f4c576000848281518110611e3857611e38612fd9565b602002602001015190506000848381518110611e5657611e56612fd9565b6020908102919091018101516000848152808352604080822073ffffffffffffffffffffffffffffffffffffffff8c168352909352919091205490915081811015611f085760405162461bcd60e51b8152602060048201526024808201527f455243313135353a206275726e20616d6f756e7420657863656564732062616c60448201527f616e636500000000000000000000000000000000000000000000000000000000606482015260840161044d565b60009283526020838152604080852073ffffffffffffffffffffffffffffffffffffffff8b1686529091529092209103905580611f4481613037565b915050611e1b565b50600073ffffffffffffffffffffffffffffffffffffffff168473ffffffffffffffffffffffffffffffffffffffff168273ffffffffffffffffffffffffffffffffffffffff167f4a39dc06d4c0dbc64b70af90fd698a233a518aa5d07e595d983b8c0526c8f7fb8686604051611fc492919061309f565b60405180910390a46040805160208101909152600090526114bc565b6040805160018082528183019092526060916000919060208083019080368337019050509050828160008151811061201a5761201a612fd9565b602090810291909101015292915050565b611c9b868686868686612829565b73ffffffffffffffffffffffffffffffffffffffff84163b15611c9b576040517ff23a6e6100000000000000000000000000000000000000000000000000000000815273ffffffffffffffffffffffffffffffffffffffff85169063f23a6e61906120b090899089908890889088906004016130cd565b602060405180830381600087803b1580156120ca57600080fd5b505af1925050508015612118575060408051601f3d9081017fffffffffffffffffffffffffffffffffffffffffffffffffffffffffffffffe01682019092526121159181019061311d565b60015b6121ce5761212461313a565b806308c379a0141561215e5750612139613156565b806121445750612160565b8060405162461bcd60e51b815260040161044d91906129ce565b505b60405162461bcd60e51b815260206004820152603460248201527f455243313135353a207472616e7366657220746f206e6f6e2d4552433131353560448201527f526563656976657220696d706c656d656e746572000000000000000000000000606482015260840161044d565b7fffffffff0000000000000000000000000000000000000000000000000000000081167ff23a6e6100000000000000000000000000000000000000000000000000000000146117b45760405162461bcd60e51b815260206004820152602860248201527f455243313135353a204552433131353552656365697665722072656a6563746560448201527f6420746f6b656e73000000000000000000000000000000000000000000000000606482015260840161044d565b73ffffffffffffffffffffffffffffffffffffffff841661230e5760405162461bcd60e51b815260206004820152602560248201527f455243313135353a207472616e7366657220746f20746865207a65726f20616460448201527f6472657373000000000000000000000000000000000000000000000000000000606482015260840161044d565b33600061231a85611fe0565b9050600061232785611fe0565b905061233783898985858961202b565b60008681526020818152604080832073ffffffffffffffffffffffffffffffffffffffff8c168452909152902054858110156123db5760405162461bcd60e51b815260206004820152602a60248201527f455243313135353a20696e73756666696369656e742062616c616e636520666f60448201527f72207472616e7366657200000000000000000000000000000000000000000000606482015260840161044d565b60008781526020818152604080832073ffffffffffffffffffffffffffffffffffffffff8d8116855292528083208985039055908a16825281208054889290612425908490613070565b9091555050604080518881526020810188905273ffffffffffffffffffffffffffffffffffffffff808b16928c821692918816917fc3d58168c5ae7397731d063d5bbf3d657854427343f4c083240f7aacaa2d0f62910160405180910390a4612492848a8a8a8a8a612039565b505050505050505050565b73ffffffffffffffffffffffffffffffffffffffff83166125265760405162461bcd60e51b815260206004820152602360248201527f455243313135353a206275726e2066726f6d20746865207a65726f206164647260448201527f6573730000000000000000000000000000000000000000000000000000000000606482015260840161044d565b33600061253284611fe0565b9050600061253f84611fe0565b905061255f8387600085856040518060200160405280600081525061202b565b60008581526020818152604080832073ffffffffffffffffffffffffffffffffffffffff8a168452909152902054848110156126025760405162461bcd60e51b8152602060048201526024808201527f455243313135353a206275726e20616d6f756e7420657863656564732062616c60448201527f616e636500000000000000000000000000000000000000000000000000000000606482015260840161044d565b60008681526020818152604080832073ffffffffffffffffffffffffffffffffffffffff8b81168086529184528285208a8703905582518b81529384018a90529092908816917fc3d58168c5ae7397731d063d5bbf3d657854427343f4c083240f7aacaa2d0f62910160405180910390a46040805160208101909152600090526117b4565b73ffffffffffffffffffffffffffffffffffffffff84163b15611c9b576040517fbc197c8100000000000000000000000000000000000000000000000000000000815273ffffffffffffffffffffffffffffffffffffffff85169063bc197c81906126fe90899089908890889088906004016131fe565b602060405180830381600087803b15801561271857600080fd5b505af1925050508015612766575060408051601f3d9081017fffffffffffffffffffffffffffffffffffffffffffffffffffffffffffffffe01682019092526127639181019061311d565b60015b6127725761212461313a565b7fffffffff0000000000000000000000000000000000000000000000000000000081167fbc197c8100000000000000000000000000000000000000000000000000000000146117b45760405162461bcd60e51b815260206004820152602860248201527f455243313135353a204552433131353552656365697665722072656a6563746560448201527f6420746f6b656e73000000000000000000000000000000000000000000000000606482015260840161044d565b60035460ff1615611c9b5760405162461bcd60e51b815260206004820152602c60248201527f455243313135355061757361626c653a20746f6b656e207472616e736665722060448201527f7768696c65207061757365640000000000000000000000000000000000000000606482015260840161044d565b803573ffffffffffffffffffffffffffffffffffffffff811681146128c657600080fd5b919050565b600080604083850312156128de57600080fd5b6128e7836128a2565b946020939093013593505050565b7fffffffff000000000000000000000000000000000000000000000000000000008116811461292357600080fd5b50565b60006020828403121561293857600080fd5b8135612943816128f5565b9392505050565b60006020828403121561295c57600080fd5b5035919050565b6000815180845260005b818110156129895760208185018101518683018201520161296d565b8181111561299b576000602083870101525b50601f017fffffffffffffffffffffffffffffffffffffffffffffffffffffffffffffffe0169290920160200192915050565b6020815260006129436020830184612963565b7f4e487b7100000000000000000000000000000000000000000000000000000000600052604160045260246000fd5b7fffffffffffffffffffffffffffffffffffffffffffffffffffffffffffffffe0601f830116810181811067ffffffffffffffff82111715612a5457612a546129e1565b6040525050565b600067ffffffffffffffff821115612a7557612a756129e1565b5060051b60200190565b600082601f830112612a9057600080fd5b81356020612a9d82612a5b565b604051612aaa8282612a10565b83815260059390931b8501820192828101915086841115612aca57600080fd5b8286015b84811015612ae55780358352918301918301612ace565b509695505050505050565b600082601f830112612b0157600080fd5b813567ffffffffffffffff811115612b1b57612b1b6129e1565b604051612b5060207fffffffffffffffffffffffffffffffffffffffffffffffffffffffffffffffe0601f8501160182612a10565b818152846020838601011115612b6557600080fd5b816020850160208301376000918101602001919091529392505050565b600080600080600060a08688031215612b9a57600080fd5b612ba3866128a2565b9450612bb1602087016128a2565b9350604086013567ffffffffffffffff80821115612bce57600080fd5b612bda89838a01612a7f565b94506060880135915080821115612bf057600080fd5b612bfc89838a01612a7f565b93506080880135915080821115612c1257600080fd5b50612c1f88828901612af0565b9150509295509295909350565b60008060408385031215612c3f57600080fd5b823567ffffffffffffffff80821115612c5757600080fd5b818501915085601f830112612c6b57600080fd5b81356020612c7882612a5b565b604051612c858282612a10565b83815260059390931b8501820192828101915089841115612ca557600080fd5b948201945b83861015612cca57612cbb866128a2565b82529482019490820190612caa565b96505086013592505080821115612ce057600080fd5b50612ced85828601612a7f565b9150509250929050565b600081518084526020808501945080840160005b83811015612d2757815187529582019590820190600101612d0b565b509495945050505050565b6020815260006129436020830184612cf7565b600080600060608486031215612d5a57600080fd5b612d63846128a2565b9250602084013567ffffffffffffffff80821115612d8057600080fd5b612d8c87838801612a7f565b93506040860135915080821115612da257600080fd5b50612daf86828701612a7f565b9150509250925092565b600060208284031215612dcb57600080fd5b612943826128a2565b801515811461292357600080fd5b60008060408385031215612df557600080fd5b612dfe836128a2565b91506020830135612e0e81612dd4565b809150509250929050565b60008060008060808587031215612e2f57600080fd5b612e38856128a2565b966020860135965060408601359560600135945092505050565b60008060008060808587031215612e6857600080fd5b5050823594602084013594506040840135936060013592509050565b60008060408385031215612e9757600080fd5b612ea0836128a2565b9150612eae602084016128a2565b90509250929050565b600080600080600060a08688031215612ecf57600080fd5b612ed8866128a2565b9450612ee6602087016128a2565b93506040860135925060608601359150608086013567ffffffffffffffff811115612f1057600080fd5b612c1f88828901612af0565b600080600060608486031215612f3157600080fd5b612f3a846128a2565b95602085013595506040909401359392505050565b600181811c90821680612f6357607f821691505b60208210811415612f9d577f4e487b7100000000000000000000000000000000000000000000000000000000600052602260045260246000fd5b50919050565b600060208284031215612fb557600080fd5b5051919050565b600060208284031215612fce57600080fd5b815161294381612dd4565b7f4e487b7100000000000000000000000000000000000000000000000000000000600052603260045260246000fd5b7f4e487b7100000000000000000000000000000000000000000000000000000000600052601160045260246000fd5b60007fffffffffffffffffffffffffffffffffffffffffffffffffffffffffffffffff82141561306957613069613008565b5060010190565b6000821982111561308357613083613008565b500190565b60008282101561309a5761309a613008565b500390565b6040815260006130b26040830185612cf7565b82810360208401526130c48185612cf7565b95945050505050565b600073ffffffffffffffffffffffffffffffffffffffff808816835280871660208401525084604083015283606083015260a0608083015261311260a0830184612963565b979650505050505050565b60006020828403121561312f57600080fd5b8151612943816128f5565b600060033d11156131535760046000803e5060005160e01c5b90565b600060443d10156131645790565b6040517ffffffffffffffffffffffffffffffffffffffffffffffffffffffffffffffffc803d016004833e81513d67ffffffffffffffff81602484011181841117156131b257505050505090565b82850191508151818111156131ca5750505050505090565b843d87010160208285010111156131e45750505050505090565b6131f360208286010187612a10565b509095945050505050565b600073ffffffffffffffffffffffffffffffffffffffff808816835280871660208401525060a0604083015261323760a0830186612cf7565b82810360608401526132498186612cf7565b9050828103608084015261325d8185612963565b9897505050505050505056fea2646970667358221220e83d04603f45d12b2fffd65ae97d42be33cabb11409f8c36211071c2ad2f80ac64736f6c63430008090033",
    "linkReferences": {}
  },
  "methodIdentifiers": {
    "balanceOf(address,uint256)": "00fdd58e",
    "balanceOfBatch(address[],uint256[])": "4e1273f4",
    "burn(address,uint256,uint256)": "f5298aca",
    "burnBatch(address,uint256[],uint256[])": "6b20c454",
    "getBond(uint256)": "d8fe7642",
    "holderTokens(address)": "7b48c3fd",
    "isApprovedForAll(address,address)": "e985e9c5",
    "manager()": "481c6a75",
    "mint(address,uint256,uint256,uint256)": "a647e8ec",
    "pause()": "8456cb59",
    "paused()": "5c975abb",
    "safeBatchTransferFrom(address,address,uint256[],uint256[],bytes)": "2eb2c2d6",
    "safeTransferFrom(address,address,uint256,uint256,bytes)": "f242432a",
    "setApprovalForAll(address,bool)": "a22cb465",
    "supportsInterface(bytes4)": "01ffc9a7",
    "totalLP()": "132c4feb",
    "totalSupply()": "18160ddd",
    "unpause()": "3f4ba83a",
    "updateBond(uint256,uint256,uint256,uint256)": "a7573cea",
    "uri(uint256)": "0e89341c"
  },
  "id": 41
}