{
  "abi": [
    {
      "inputs": [
        {
          "internalType": "address",
          "name": "_manager",
          "type": "address"
        },
        {
          "internalType": "uint256",
          "name": "_couponLengthBlocks",
          "type": "uint256"
        }
      ],
      "stateMutability": "nonpayable",
      "type": "constructor"
    },
    {
      "anonymous": false,
      "inputs": [
        {
          "indexed": false,
          "internalType": "uint256",
          "name": "newCouponLengthBlocks",
          "type": "uint256"
        },
        {
          "indexed": false,
          "internalType": "uint256",
          "name": "previousCouponLengthBlocks",
          "type": "uint256"
        }
      ],
      "name": "CouponLengthChanged",
      "type": "event"
    },
    {
      "anonymous": false,
      "inputs": [
        {
          "indexed": false,
          "internalType": "uint256",
          "name": "newRate",
          "type": "uint256"
        },
        {
          "indexed": false,
          "internalType": "uint256",
          "name": "previousRate",
          "type": "uint256"
        }
      ],
      "name": "ExpiredCouponConvertionRateChanged",
      "type": "event"
    },
    {
      "inputs": [],
      "name": "blockHeightDebt",
      "outputs": [
        {
          "internalType": "uint256",
          "name": "",
          "type": "uint256"
        }
      ],
      "stateMutability": "view",
      "type": "function"
    },
    {
      "inputs": [
        {
          "internalType": "uint256",
          "name": "amount",
          "type": "uint256"
        }
      ],
      "name": "burnAutoRedeemTokensForDollars",
      "outputs": [
        {
          "internalType": "uint256",
          "name": "",
          "type": "uint256"
        }
      ],
      "stateMutability": "nonpayable",
      "type": "function"
    },
    {
      "inputs": [
        {
          "internalType": "uint256",
          "name": "id",
          "type": "uint256"
        },
        {
          "internalType": "uint256",
          "name": "amount",
          "type": "uint256"
        }
      ],
      "name": "burnCouponsForAutoRedemption",
      "outputs": [
        {
          "internalType": "uint256",
          "name": "",
          "type": "uint256"
        }
      ],
      "stateMutability": "nonpayable",
      "type": "function"
    },
    {
      "inputs": [
        {
          "internalType": "uint256",
          "name": "id",
          "type": "uint256"
        },
        {
          "internalType": "uint256",
          "name": "amount",
          "type": "uint256"
        }
      ],
      "name": "burnExpiredCouponsForUGOV",
      "outputs": [
        {
          "internalType": "uint256",
          "name": "uGovAmount",
          "type": "uint256"
        }
      ],
      "stateMutability": "nonpayable",
      "type": "function"
    },
    {
      "inputs": [],
      "name": "couponLengthBlocks",
      "outputs": [
        {
          "internalType": "uint256",
          "name": "",
          "type": "uint256"
        }
      ],
      "stateMutability": "view",
      "type": "function"
    },
    {
      "inputs": [],
      "name": "debtCycle",
      "outputs": [
        {
          "internalType": "bool",
          "name": "",
          "type": "bool"
        }
      ],
      "stateMutability": "view",
      "type": "function"
    },
    {
      "inputs": [],
      "name": "dollarsMintedThisCycle",
      "outputs": [
        {
          "internalType": "uint256",
          "name": "",
          "type": "uint256"
        }
      ],
      "stateMutability": "view",
      "type": "function"
    },
    {
      "inputs": [
        {
          "internalType": "uint256",
          "name": "amount",
          "type": "uint256"
        }
      ],
      "name": "exchangeDollarsForDebtCoupons",
      "outputs": [
        {
          "internalType": "uint256",
          "name": "",
          "type": "uint256"
        }
      ],
      "stateMutability": "nonpayable",
      "type": "function"
    },
    {
      "inputs": [
        {
          "internalType": "uint256",
          "name": "amount",
          "type": "uint256"
        }
      ],
      "name": "exchangeDollarsForUAR",
      "outputs": [
        {
          "internalType": "uint256",
          "name": "",
          "type": "uint256"
        }
      ],
      "stateMutability": "nonpayable",
      "type": "function"
    },
    {
      "inputs": [],
      "name": "expiredCouponConvertionRate",
      "outputs": [
        {
          "internalType": "uint256",
          "name": "",
          "type": "uint256"
        }
      ],
      "stateMutability": "view",
      "type": "function"
    },
    {
      "inputs": [
        {
          "internalType": "uint256",
          "name": "amount",
          "type": "uint256"
        }
      ],
      "name": "getCouponsReturnedForDollars",
      "outputs": [
        {
          "internalType": "uint256",
          "name": "",
          "type": "uint256"
        }
      ],
      "stateMutability": "view",
      "type": "function"
    },
    {
      "inputs": [
        {
          "internalType": "uint256",
          "name": "amount",
          "type": "uint256"
        }
      ],
      "name": "getUARReturnedForDollars",
      "outputs": [
        {
          "internalType": "uint256",
          "name": "",
          "type": "uint256"
        }
      ],
      "stateMutability": "view",
      "type": "function"
    },
    {
      "inputs": [],
      "name": "manager",
      "outputs": [
        {
          "internalType": "contract UbiquityAlgorithmicDollarManager",
          "name": "",
          "type": "address"
        }
      ],
      "stateMutability": "view",
      "type": "function"
    },
    {
      "inputs": [],
      "name": "mintClaimableDollars",
      "outputs": [],
      "stateMutability": "nonpayable",
      "type": "function"
    },
    {
      "inputs": [
        {
          "internalType": "address",
          "name": "",
          "type": "address"
        },
        {
          "internalType": "address",
          "name": "",
          "type": "address"
        },
        {
          "internalType": "uint256[]",
          "name": "",
          "type": "uint256[]"
        },
        {
          "internalType": "uint256[]",
          "name": "",
          "type": "uint256[]"
        },
        {
          "internalType": "bytes",
          "name": "",
          "type": "bytes"
        }
      ],
      "name": "onERC1155BatchReceived",
      "outputs": [
        {
          "internalType": "bytes4",
          "name": "",
          "type": "bytes4"
        }
      ],
      "stateMutability": "pure",
      "type": "function"
    },
    {
      "inputs": [
        {
          "internalType": "address",
          "name": "operator",
          "type": "address"
        },
        {
          "internalType": "address",
          "name": "",
          "type": "address"
        },
        {
          "internalType": "uint256",
          "name": "",
          "type": "uint256"
        },
        {
          "internalType": "uint256",
          "name": "",
          "type": "uint256"
        },
        {
          "internalType": "bytes",
          "name": "",
          "type": "bytes"
        }
      ],
      "name": "onERC1155Received",
      "outputs": [
        {
          "internalType": "bytes4",
          "name": "",
          "type": "bytes4"
        }
      ],
      "stateMutability": "view",
      "type": "function"
    },
    {
      "inputs": [
        {
          "internalType": "uint256",
          "name": "id",
          "type": "uint256"
        },
        {
          "internalType": "uint256",
          "name": "amount",
          "type": "uint256"
        }
      ],
      "name": "redeemCoupons",
      "outputs": [
        {
          "internalType": "uint256",
          "name": "",
          "type": "uint256"
        }
      ],
      "stateMutability": "nonpayable",
      "type": "function"
    },
    {
      "inputs": [
        {
          "internalType": "uint256",
          "name": "_couponLengthBlocks",
          "type": "uint256"
        }
      ],
      "name": "setCouponLength",
      "outputs": [],
      "stateMutability": "nonpayable",
      "type": "function"
    },
    {
      "inputs": [
        {
          "internalType": "uint256",
          "name": "rate",
          "type": "uint256"
        }
      ],
      "name": "setExpiredCouponConvertionRate",
      "outputs": [],
      "stateMutability": "nonpayable",
      "type": "function"
    },
    {
      "inputs": [
        {
          "internalType": "bytes4",
          "name": "interfaceId",
          "type": "bytes4"
        }
      ],
      "name": "supportsInterface",
      "outputs": [
        {
          "internalType": "bool",
          "name": "",
          "type": "bool"
        }
      ],
      "stateMutability": "view",
      "type": "function"
    }
  ],
  "bytecode": {
    "object": "0x608060405260026005553480156200001657600080fd5b50604051620038ca380380620038ca833981016040819052620000399162000063565b600080546001600160a01b0319166001600160a01b0393909316929092179091556004556200009f565b600080604083850312156200007757600080fd5b82516001600160a01b03811681146200008f57600080fd5b6020939093015192949293505050565b61381b80620000af6000396000f3fe608060405234801561001057600080fd5b506004361061016c5760003560e01c8063816dbc4a116100cd578063bdd5d4b211610081578063cfc893fd11610066578063cfc893fd14610334578063d6a9cf0814610347578063f23a6e611461035a57600080fd5b8063bdd5d4b214610318578063be30446d1461032157600080fd5b806399c62889116100b257806399c62889146102a5578063aac8e39a146102b8578063bc197c81146102cb57600080fd5b8063816dbc4a1461028957806384800d651461029c57600080fd5b80632565aa42116101245780634c5cac58116101095780634c5cac581461025a57806367a6847d146102635780636938c4141461027657600080fd5b80632565aa4214610225578063481c6a751461022f57600080fd5b80630cb03046116101555780630cb03046146101f25780631adb4d32146102055780631ce83f501461021857600080fd5b806301ffc9a71461017157806302127499146101db575b600080fd5b6101c661017f366004613496565b7fffffffff00000000000000000000000000000000000000000000000000000000167f01ffc9a7000000000000000000000000000000000000000000000000000000001490565b60405190151581526020015b60405180910390f35b6101e460055481565b6040519081526020016101d2565b6101e46102003660046134d8565b61036d565b6101e46102133660046134d8565b6108e9565b6002546101c69060ff1681565b61022d610de9565b005b600054610242906001600160a01b031681565b6040516001600160a01b0390911681526020016101d2565b6101e460035481565b6101e46102713660046134d8565b611531565b6101e46102843660046134f1565b6119b1565b61022d6102973660046134d8565b611e67565b6101e460045481565b6101e46102b33660046134f1565b61203a565b6101e46102c63660046134d8565b6123d6565b6102e76102d93660046135b9565b600098975050505050505050565b6040517fffffffff0000000000000000000000000000000000000000000000000000000090911681526020016101d2565b6101e460015481565b6101e461032f3660046134d8565b612513565b61022d6103423660046134d8565b6125f2565b6101e46103553660046134f1565b6127c5565b6102e7610368366004613678565b6130a4565b600080610378613213565b9050670de0b6b3a76400008111610415576040517f08c379a0000000000000000000000000000000000000000000000000000000008152602060048201526024808201527f5072696365206d7573742062652061626f7665203120746f206175746f20726560448201527f6465656d0000000000000000000000000000000000000000000000000000000060648201526084015b60405180910390fd5b60025460ff161561044957600280547fffffffffffffffffffffffffffffffffffffffffffffffffffffffffffffff001690555b60008060009054906101000a90046001600160a01b03166001600160a01b0316633ae3d9a46040518163ffffffff1660e01b815260040160206040518083038186803b15801561049857600080fd5b505afa1580156104ac573d6000803e3d6000fd5b505050506040513d601f19601f820116820180604052508101906104d091906136f4565b6040517f70a0823100000000000000000000000000000000000000000000000000000000815233600482015290915084906001600160a01b038316906370a082319060240160206040518083038186803b15801561052d57600080fd5b505afa158015610541573d6000803e3d6000fd5b505050506040513d601f19601f820116820180604052508101906105659190613711565b10156105f3576040517f08c379a000000000000000000000000000000000000000000000000000000000815260206004820152603160248201527f5573657220646f65736e2774206861766520656e6f756768206175746f20726560448201527f6465656d20706f6f6c20746f6b656e732e000000000000000000000000000000606482015260840161040c565b60008060009054906101000a90046001600160a01b03166001600160a01b031663bc3ea0186040518163ffffffff1660e01b815260040160206040518083038186803b15801561064257600080fd5b505afa158015610656573d6000803e3d6000fd5b505050506040513d601f19601f8201168201806040525081019061067a91906136f4565b6040517f70a082310000000000000000000000000000000000000000000000000000000081523060048201529091506000906001600160a01b038316906370a082319060240160206040518083038186803b1580156106d857600080fd5b505afa1580156106ec573d6000803e3d6000fd5b505050506040513d601f19601f820116820180604052508101906107109190613711565b9050600081116107b557610722610de9565b6040517f70a082310000000000000000000000000000000000000000000000000000000081523060048201526001600160a01b038316906370a082319060240160206040518083038186803b15801561077a57600080fd5b505afa15801561078e573d6000803e3d6000fd5b505050506040513d601f19601f820116820180604052508101906107b29190613711565b90505b85818111156107c15750805b6040517f79cc6790000000000000000000000000000000000000000000000000000000008152336004820152602481018290526001600160a01b038516906379cc679090604401600060405180830381600087803b15801561082257600080fd5b505af1158015610836573d6000803e3d6000fd5b50506040517fa9059cbb000000000000000000000000000000000000000000000000000000008152336004820152602481018490526001600160a01b038616925063a9059cbb9150604401602060405180830381600087803b15801561089b57600080fd5b505af11580156108af573d6000803e3d6000fd5b505050506040513d601f19601f820116820180604052508101906108d3919061372a565b506108de818861377b565b979650505050505050565b6000806108f4613213565b9050670de0b6b3a7640000811061098d576040517f08c379a000000000000000000000000000000000000000000000000000000000815260206004820152602160248201527f5072696365206d7573742062652062656c6f77203120746f206d696e7420754160448201527f5200000000000000000000000000000000000000000000000000000000000000606482015260840161040c565b60008060009054906101000a90046001600160a01b03166001600160a01b03166356593ea36040518163ffffffff1660e01b815260040160206040518083038186803b1580156109dc57600080fd5b505afa1580156109f0573d6000803e3d6000fd5b505050506040513d601f19601f82011682018060405250810190610a1491906136f4565b9050806001600160a01b031663f7ffe84a6040518163ffffffff1660e01b8152600401600060405180830381600087803b158015610a5157600080fd5b505af1158015610a65573d6000803e3d6000fd5b505060025460ff169150610aac905057600280547fffffffffffffffffffffffffffffffffffffffffffffffffffffffffffffff0016600190811790915543600355600090555b60008060009054906101000a90046001600160a01b03166001600160a01b031663749cface6040518163ffffffff1660e01b815260040160206040518083038186803b158015610afb57600080fd5b505afa158015610b0f573d6000803e3d6000fd5b505050506040513d601f19601f82011682018060405250810190610b3391906136f4565b6003546040517f3667d8590000000000000000000000000000000000000000000000000000000081529192506000916001600160a01b03841691633667d85991610b8a918a91600401918252602082015260400190565b60206040518083038186803b158015610ba257600080fd5b505afa158015610bb6573d6000803e3d6000fd5b505050506040513d601f19601f82011682018060405250810190610bda9190613711565b905060008054906101000a90046001600160a01b03166001600160a01b031663bc3ea0186040518163ffffffff1660e01b815260040160206040518083038186803b158015610c2857600080fd5b505afa158015610c3c573d6000803e3d6000fd5b505050506040513d601f19601f82011682018060405250810190610c6091906136f4565b6040517f79cc6790000000000000000000000000000000000000000000000000000000008152336004820152602481018890526001600160a01b0391909116906379cc679090604401600060405180830381600087803b158015610cc357600080fd5b505af1158015610cd7573d6000803e3d6000fd5b5050505060008060009054906101000a90046001600160a01b03166001600160a01b0316633ae3d9a46040518163ffffffff1660e01b815260040160206040518083038186803b158015610d2a57600080fd5b505afa158015610d3e573d6000803e3d6000fd5b505050506040513d601f19601f82011682018060405250810190610d6291906136f4565b6040517f40c10f19000000000000000000000000000000000000000000000000000000008152336004820152602481018490529091506001600160a01b038216906340c10f1990604401600060405180830381600087803b158015610dc657600080fd5b505af1158015610dda573d6000803e3d6000fd5b50939998505050505050505050565b60008060009054906101000a90046001600160a01b03166001600160a01b03166356593ea36040518163ffffffff1660e01b815260040160206040518083038186803b158015610e3857600080fd5b505afa158015610e4c573d6000803e3d6000fd5b505050506040513d601f19601f82011682018060405250810190610e7091906136f4565b9050806001600160a01b031663f7ffe84a6040518163ffffffff1660e01b8152600401600060405180830381600087803b158015610ead57600080fd5b505af1158015610ec1573d6000803e3d6000fd5b5050505060008060009054906101000a90046001600160a01b03166001600160a01b03166359f6deac6040518163ffffffff1660e01b815260040160206040518083038186803b158015610f1457600080fd5b505afa158015610f28573d6000803e3d6000fd5b505050506040513d601f19601f82011682018060405250810190610f4c91906136f4565b6001600160a01b031663764263cf6040518163ffffffff1660e01b815260040160206040518083038186803b158015610f8457600080fd5b505afa158015610f98573d6000803e3d6000fd5b505050506040513d601f19601f82011682018060405250810190610fbc9190613711565b9050600060015482610fce919061377b565b90508160018190555060008060009054906101000a90046001600160a01b03166001600160a01b031663bc3ea0186040518163ffffffff1660e01b815260040160206040518083038186803b15801561102657600080fd5b505afa15801561103a573d6000803e3d6000fd5b505050506040513d601f19601f8201168201806040525081019061105e91906136f4565b6040517f40c10f19000000000000000000000000000000000000000000000000000000008152306004820152602481018490529091506001600160a01b038216906340c10f1990604401600060405180830381600087803b1580156110c257600080fd5b505af11580156110d6573d6000803e3d6000fd5b5050505060008060009054906101000a90046001600160a01b03166001600160a01b0316633ae3d9a46040518163ffffffff1660e01b815260040160206040518083038186803b15801561112957600080fd5b505afa15801561113d573d6000803e3d6000fd5b505050506040513d601f19601f8201168201806040525081019061116191906136f4565b6040517f70a082310000000000000000000000000000000000000000000000000000000081523060048201529091506000906001600160a01b038416906370a082319060240160206040518083038186803b1580156111bf57600080fd5b505afa1580156111d3573d6000803e3d6000fd5b505050506040513d601f19601f820116820180604052508101906111f79190613711565b90506000826001600160a01b03166318160ddd6040518163ffffffff1660e01b815260040160206040518083038186803b15801561123457600080fd5b505afa158015611248573d6000803e3d6000fd5b505050506040513d601f19601f8201168201806040525081019061126c9190613711565b876001600160a01b031663db87b1ff6040518163ffffffff1660e01b815260040160206040518083038186803b1580156112a557600080fd5b505afa1580156112b9573d6000803e3d6000fd5b505050506040513d601f19601f820116820180604052508101906112dd9190613711565b6112e79190613792565b9050808211156115285760006112fd828461377b565b600080546040517faef6be3c00000000000000000000000000000000000000000000000000000000815230600482015292935090916001600160a01b039091169063aef6be3c9060240160206040518083038186803b15801561135f57600080fd5b505afa158015611373573d6000803e3d6000fd5b505050506040513d601f19601f8201168201806040525081019061139791906136f4565b6000546040517faef6be3c0000000000000000000000000000000000000000000000000000000081523060048201529192506001600160a01b038881169263a9059cbb92919091169063aef6be3c9060240160206040518083038186803b15801561140157600080fd5b505afa158015611415573d6000803e3d6000fd5b505050506040513d601f19601f8201168201806040525081019061143991906136f4565b6040517fffffffff0000000000000000000000000000000000000000000000000000000060e084901b1681526001600160a01b03909116600482015260248101859052604401602060405180830381600087803b15801561149957600080fd5b505af11580156114ad573d6000803e3d6000fd5b505050506040513d601f19601f820116820180604052508101906114d1919061372a565b50806001600160a01b031663651156bc6040518163ffffffff1660e01b8152600401600060405180830381600087803b15801561150d57600080fd5b505af1158015611521573d6000803e3d6000fd5b5050505050505b50505050505050565b60008061153c613213565b9050670de0b6b3a764000081106115d5576040517f08c379a000000000000000000000000000000000000000000000000000000000815260206004820152602560248201527f5072696365206d7573742062652062656c6f77203120746f206d696e7420636f60448201527f75706f6e73000000000000000000000000000000000000000000000000000000606482015260840161040c565b60008060009054906101000a90046001600160a01b03166001600160a01b03166356593ea36040518163ffffffff1660e01b815260040160206040518083038186803b15801561162457600080fd5b505afa158015611638573d6000803e3d6000fd5b505050506040513d601f19601f8201168201806040525081019061165c91906136f4565b9050806001600160a01b031663f7ffe84a6040518163ffffffff1660e01b8152600401600060405180830381600087803b15801561169957600080fd5b505af11580156116ad573d6000803e3d6000fd5b505060025460ff1691506116f4905057600280547fffffffffffffffffffffffffffffffffffffffffffffffffffffffffffffff0016600190811790915543600355600090555b60008060009054906101000a90046001600160a01b03166001600160a01b0316633e916ced6040518163ffffffff1660e01b815260040160206040518083038186803b15801561174357600080fd5b505afa158015611757573d6000803e3d6000fd5b505050506040513d601f19601f8201168201806040525081019061177b91906136f4565b6040517f9172dd23000000000000000000000000000000000000000000000000000000008152600481018790529091506000906001600160a01b03831690639172dd239060240160206040518083038186803b1580156117da57600080fd5b505afa1580156117ee573d6000803e3d6000fd5b505050506040513d601f19601f820116820180604052508101906118129190613711565b905060008054906101000a90046001600160a01b03166001600160a01b031663bc3ea0186040518163ffffffff1660e01b815260040160206040518083038186803b15801561186057600080fd5b505afa158015611874573d6000803e3d6000fd5b505050506040513d601f19601f8201168201806040525081019061189891906136f4565b6040517f79cc6790000000000000000000000000000000000000000000000000000000008152336004820152602481018890526001600160a01b0391909116906379cc679090604401600060405180830381600087803b1580156118fb57600080fd5b505af115801561190f573d6000803e3d6000fd5b505050506000600454436119239190613792565b6040517fe71fc58f00000000000000000000000000000000000000000000000000000000815233600482015260248101849052604481018290529091506001600160a01b0385169063e71fc58f90606401600060405180830381600087803b15801561198e57600080fd5b505af11580156119a2573d6000803e3d6000fd5b50929998505050505050505050565b60008054604080517f56593ea3000000000000000000000000000000000000000000000000000000008152905183926001600160a01b0316916356593ea3916004808301926020929190829003018186803b158015611a0f57600080fd5b505afa158015611a23573d6000803e3d6000fd5b505050506040513d601f19601f82011682018060405250810190611a4791906136f4565b9050428411611ab2576040517f08c379a000000000000000000000000000000000000000000000000000000000815260206004820152601260248201527f436f75706f6e2068617320657870697265640000000000000000000000000000604482015260640161040c565b6040517efdd58e0000000000000000000000000000000000000000000000000000000081523360048201526024810185905283906001600160a01b0383169062fdd58e9060440160206040518083038186803b158015611b1157600080fd5b505afa158015611b25573d6000803e3d6000fd5b505050506040513d601f19601f82011682018060405250810190611b499190613711565b1015611bb1576040517f08c379a000000000000000000000000000000000000000000000000000000000815260206004820152601760248201527f55736572206e6f7420656e6f75676820636f75706f6e73000000000000000000604482015260640161040c565b6040517f738f0cf100000000000000000000000000000000000000000000000000000000815233600482015260248101849052604481018590526001600160a01b0382169063738f0cf190606401600060405180830381600087803b158015611c1957600080fd5b505af1158015611c2d573d6000803e3d6000fd5b5050505060008060009054906101000a90046001600160a01b03166001600160a01b0316633ae3d9a46040518163ffffffff1660e01b815260040160206040518083038186803b158015611c8057600080fd5b505afa158015611c94573d6000803e3d6000fd5b505050506040513d601f19601f82011682018060405250810190611cb891906136f4565b6040517f40c10f19000000000000000000000000000000000000000000000000000000008152306004820152602481018690529091506001600160a01b038216906340c10f1990604401600060405180830381600087803b158015611d1c57600080fd5b505af1158015611d30573d6000803e3d6000fd5b50506040517fa9059cbb000000000000000000000000000000000000000000000000000000008152336004820152602481018790526001600160a01b038416925063a9059cbb9150604401602060405180830381600087803b158015611d9557600080fd5b505af1158015611da9573d6000803e3d6000fd5b505050506040513d601f19601f82011682018060405250810190611dcd919061372a565b506040517f70a082310000000000000000000000000000000000000000000000000000000081523360048201526001600160a01b038216906370a082319060240160206040518083038186803b158015611e2657600080fd5b505afa158015611e3a573d6000803e3d6000fd5b505050506040513d601f19601f82011682018060405250810190611e5e9190613711565b95945050505050565b600054604080517fa41dd6e600000000000000000000000000000000000000000000000000000000815290516001600160a01b03909216916391d1485491839163a41dd6e691600480820192602092909190829003018186803b158015611ecd57600080fd5b505afa158015611ee1573d6000803e3d6000fd5b505050506040513d601f19601f82011682018060405250810190611f059190613711565b6040517fffffffff0000000000000000000000000000000000000000000000000000000060e084901b168152600481019190915233602482015260440160206040518083038186803b158015611f5a57600080fd5b505afa158015611f6e573d6000803e3d6000fd5b505050506040513d601f19601f82011682018060405250810190611f92919061372a565b611ff8576040517f08c379a000000000000000000000000000000000000000000000000000000000815260206004820152601e60248201527f43616c6c6572206973206e6f74206120636f75706f6e206d616e616765720000604482015260640161040c565b6004546040805183815260208101929092527f8d7edb0d3221793a3dbc5e9eb8bddfa027f936dcaac6116cc52319396a2026f9910160405180910390a1600455565b60008054604080517f56593ea3000000000000000000000000000000000000000000000000000000008152905183926001600160a01b0316916356593ea3916004808301926020929190829003018186803b15801561209857600080fd5b505afa1580156120ac573d6000803e3d6000fd5b505050506040513d601f19601f820116820180604052508101906120d091906136f4565b90504384111561213c576040517f08c379a000000000000000000000000000000000000000000000000000000000815260206004820152601660248201527f436f75706f6e20686173206e6f74206578706972656400000000000000000000604482015260640161040c565b6040517efdd58e0000000000000000000000000000000000000000000000000000000081523360048201526024810185905283906001600160a01b0383169062fdd58e9060440160206040518083038186803b15801561219b57600080fd5b505afa1580156121af573d6000803e3d6000fd5b505050506040513d601f19601f820116820180604052508101906121d39190613711565b101561223b576040517f08c379a000000000000000000000000000000000000000000000000000000000815260206004820152601760248201527f55736572206e6f7420656e6f75676820636f75706f6e73000000000000000000604482015260640161040c565b6040517f738f0cf100000000000000000000000000000000000000000000000000000000815233600482015260248101849052604481018590526001600160a01b0382169063738f0cf190606401600060405180830381600087803b1580156122a357600080fd5b505af11580156122b7573d6000803e3d6000fd5b5050505060008060009054906101000a90046001600160a01b03166001600160a01b031663b42165d06040518163ffffffff1660e01b815260040160206040518083038186803b15801561230a57600080fd5b505afa15801561231e573d6000803e3d6000fd5b505050506040513d601f19601f8201168201806040525081019061234291906136f4565b90506005548461235291906137aa565b6040517f40c10f19000000000000000000000000000000000000000000000000000000008152336004820152602481018290529093506001600160a01b038216906340c10f1990604401600060405180830381600087803b1580156123b657600080fd5b505af11580156123ca573d6000803e3d6000fd5b50505050505092915050565b60008054604080517f749cface000000000000000000000000000000000000000000000000000000008152905183926001600160a01b03169163749cface916004808301926020929190829003018186803b15801561243457600080fd5b505afa158015612448573d6000803e3d6000fd5b505050506040513d601f19601f8201168201806040525081019061246c91906136f4565b6003546040517f3667d8590000000000000000000000000000000000000000000000000000000081526004810186905260248101919091529091506001600160a01b03821690633667d859906044015b60206040518083038186803b1580156124d457600080fd5b505afa1580156124e8573d6000803e3d6000fd5b505050506040513d601f19601f8201168201806040525081019061250c9190613711565b9392505050565b60008054604080517f3e916ced000000000000000000000000000000000000000000000000000000008152905183926001600160a01b031691633e916ced916004808301926020929190829003018186803b15801561257157600080fd5b505afa158015612585573d6000803e3d6000fd5b505050506040513d601f19601f820116820180604052508101906125a991906136f4565b6040517f9172dd23000000000000000000000000000000000000000000000000000000008152600481018590529091506001600160a01b03821690639172dd23906024016124bc565b600054604080517fa41dd6e600000000000000000000000000000000000000000000000000000000815290516001600160a01b03909216916391d1485491839163a41dd6e691600480820192602092909190829003018186803b15801561265857600080fd5b505afa15801561266c573d6000803e3d6000fd5b505050506040513d601f19601f820116820180604052508101906126909190613711565b6040517fffffffff0000000000000000000000000000000000000000000000000000000060e084901b168152600481019190915233602482015260440160206040518083038186803b1580156126e557600080fd5b505afa1580156126f9573d6000803e3d6000fd5b505050506040513d601f19601f8201168201806040525081019061271d919061372a565b612783576040517f08c379a000000000000000000000000000000000000000000000000000000000815260206004820152601e60248201527f43616c6c6572206973206e6f74206120636f75706f6e206d616e616765720000604482015260640161040c565b6005546040805183815260208101929092527f6d4a1070b746d33746be28d0b5f40e4196cbd7ada8fcb77191f0a9209ae41a63910160405180910390a1600555565b6000806127d0613213565b9050670de0b6b3a76400008111612869576040517f08c379a000000000000000000000000000000000000000000000000000000000815260206004820152602760248201527f5072696365206d7573742062652061626f7665203120746f2072656465656d2060448201527f636f75706f6e7300000000000000000000000000000000000000000000000000606482015260840161040c565b60025460ff161561289d57600280547fffffffffffffffffffffffffffffffffffffffffffffffffffffffffffffff001690555b60008060009054906101000a90046001600160a01b03166001600160a01b03166356593ea36040518163ffffffff1660e01b815260040160206040518083038186803b1580156128ec57600080fd5b505afa158015612900573d6000803e3d6000fd5b505050506040513d601f19601f8201168201806040525081019061292491906136f4565b905043851161298f576040517f08c379a000000000000000000000000000000000000000000000000000000000815260206004820152601260248201527f436f75706f6e2068617320657870697265640000000000000000000000000000604482015260640161040c565b6040517efdd58e0000000000000000000000000000000000000000000000000000000081523360048201526024810186905284906001600160a01b0383169062fdd58e9060440160206040518083038186803b1580156129ee57600080fd5b505afa158015612a02573d6000803e3d6000fd5b505050506040513d601f19601f82011682018060405250810190612a269190613711565b1015612a8e576040517f08c379a000000000000000000000000000000000000000000000000000000000815260206004820152601760248201527f55736572206e6f7420656e6f75676820636f75706f6e73000000000000000000604482015260640161040c565b612a96610de9565b60008060009054906101000a90046001600160a01b03166001600160a01b031663bc3ea0186040518163ffffffff1660e01b815260040160206040518083038186803b158015612ae557600080fd5b505afa158015612af9573d6000803e3d6000fd5b505050506040513d601f19601f82011682018060405250810190612b1d91906136f4565b905060008060009054906101000a90046001600160a01b03166001600160a01b0316633ae3d9a46040518163ffffffff1660e01b815260040160206040518083038186803b158015612b6e57600080fd5b505afa158015612b82573d6000803e3d6000fd5b505050506040513d601f19601f82011682018060405250810190612ba691906136f4565b6040517f70a082310000000000000000000000000000000000000000000000000000000081523060048201529091506001600160a01b038316906370a082319060240160206040518083038186803b158015612c0157600080fd5b505afa158015612c15573d6000803e3d6000fd5b505050506040513d601f19601f82011682018060405250810190612c399190613711565b816001600160a01b03166318160ddd6040518163ffffffff1660e01b815260040160206040518083038186803b158015612c7257600080fd5b505afa158015612c86573d6000803e3d6000fd5b505050506040513d601f19601f82011682018060405250810190612caa9190613711565b1115612d38576040517f08c379a000000000000000000000000000000000000000000000000000000000815260206004820152602b60248201527f5468657265206172656e277420656e6f7567682075414420746f20726564656560448201527f6d2063757272656e746c79000000000000000000000000000000000000000000606482015260840161040c565b6000816001600160a01b03166318160ddd6040518163ffffffff1660e01b815260040160206040518083038186803b158015612d7357600080fd5b505afa158015612d87573d6000803e3d6000fd5b505050506040513d601f19601f82011682018060405250810190612dab9190613711565b6040517f70a082310000000000000000000000000000000000000000000000000000000081523060048201526001600160a01b038516906370a082319060240160206040518083038186803b158015612e0357600080fd5b505afa158015612e17573d6000803e3d6000fd5b505050506040513d601f19601f82011682018060405250810190612e3b9190613711565b612e45919061377b565b90508681811115612e535750805b6040517f70a082310000000000000000000000000000000000000000000000000000000081523060048201526000906001600160a01b038616906370a082319060240160206040518083038186803b158015612eae57600080fd5b505afa158015612ec2573d6000803e3d6000fd5b505050506040513d601f19601f82011682018060405250810190612ee69190613711565b11612f73576040517f08c379a000000000000000000000000000000000000000000000000000000000815260206004820152602860248201527f5468657265206172656e277420616e792075414420746f2072656465656d206360448201527f757272656e746c79000000000000000000000000000000000000000000000000606482015260840161040c565b6040517f738f0cf100000000000000000000000000000000000000000000000000000000815233600482015260248101829052604481018a90526001600160a01b0386169063738f0cf190606401600060405180830381600087803b158015612fdb57600080fd5b505af1158015612fef573d6000803e3d6000fd5b50506040517fa9059cbb000000000000000000000000000000000000000000000000000000008152336004820152602481018490526001600160a01b038716925063a9059cbb9150604401602060405180830381600087803b15801561305457600080fd5b505af1158015613068573d6000803e3d6000fd5b505050506040513d601f19601f8201168201806040525081019061308c919061372a565b50613097818961377b565b9998505050505050505050565b60008054604080517fa41dd6e600000000000000000000000000000000000000000000000000000000815290516001600160a01b03909216916391d1485491839163a41dd6e691600480820192602092909190829003018186803b15801561310b57600080fd5b505afa15801561311f573d6000803e3d6000fd5b505050506040513d601f19601f820116820180604052508101906131439190613711565b6040517fffffffff0000000000000000000000000000000000000000000000000000000060e084901b16815260048101919091526001600160a01b038a16602482015260440160206040518083038186803b1580156131a157600080fd5b505afa1580156131b5573d6000803e3d6000fd5b505050506040513d601f19601f820116820180604052508101906131d9919061372a565b1561320557507ff23a6e612e1ff4830e658fe43f4e3cb4a5f8170bd5d9e69fb5d7a7fa9e4fdf97613209565b5060005b9695505050505050565b60008060009054906101000a90046001600160a01b03166001600160a01b0316638fe636836040518163ffffffff1660e01b815260040160206040518083038186803b15801561326257600080fd5b505afa158015613276573d6000803e3d6000fd5b505050506040513d601f19601f8201168201806040525081019061329a91906136f4565b6001600160a01b031663a2e620456040518163ffffffff1660e01b8152600401600060405180830381600087803b1580156132d457600080fd5b505af11580156132e8573d6000803e3d6000fd5b5050505060008054906101000a90046001600160a01b03166001600160a01b0316638fe636836040518163ffffffff1660e01b815260040160206040518083038186803b15801561333857600080fd5b505afa15801561334c573d6000803e3d6000fd5b505050506040513d601f19601f8201168201806040525081019061337091906136f4565b6001600160a01b031663283583c660008054906101000a90046001600160a01b03166001600160a01b031663bc3ea0186040518163ffffffff1660e01b815260040160206040518083038186803b1580156133ca57600080fd5b505afa1580156133de573d6000803e3d6000fd5b505050506040513d601f19601f8201168201806040525081019061340291906136f4565b6040517fffffffff0000000000000000000000000000000000000000000000000000000060e084901b1681526001600160a01b03909116600482015260240160206040518083038186803b15801561345957600080fd5b505afa15801561346d573d6000803e3d6000fd5b505050506040513d601f19601f820116820180604052508101906134919190613711565b905090565b6000602082840312156134a857600080fd5b81357fffffffff000000000000000000000000000000000000000000000000000000008116811461250c57600080fd5b6000602082840312156134ea57600080fd5b5035919050565b6000806040838503121561350457600080fd5b50508035926020909101359150565b6001600160a01b038116811461352857600080fd5b50565b60008083601f84011261353d57600080fd5b50813567ffffffffffffffff81111561355557600080fd5b6020830191508360208260051b850101111561357057600080fd5b9250929050565b60008083601f84011261358957600080fd5b50813567ffffffffffffffff8111156135a157600080fd5b60208301915083602082850101111561357057600080fd5b60008060008060008060008060a0898b0312156135d557600080fd5b88356135e081613513565b975060208901356135f081613513565b9650604089013567ffffffffffffffff8082111561360d57600080fd5b6136198c838d0161352b565b909850965060608b013591508082111561363257600080fd5b61363e8c838d0161352b565b909650945060808b013591508082111561365757600080fd5b506136648b828c01613577565b999c989b5096995094979396929594505050565b60008060008060008060a0878903121561369157600080fd5b863561369c81613513565b955060208701356136ac81613513565b94506040870135935060608701359250608087013567ffffffffffffffff8111156136d657600080fd5b6136e289828a01613577565b979a9699509497509295939492505050565b60006020828403121561370657600080fd5b815161250c81613513565b60006020828403121561372357600080fd5b5051919050565b60006020828403121561373c57600080fd5b8151801515811461250c57600080fd5b7f4e487b7100000000000000000000000000000000000000000000000000000000600052601160045260246000fd5b60008282101561378d5761378d61374c565b500390565b600082198211156137a5576137a561374c565b500190565b6000826137e0577f4e487b7100000000000000000000000000000000000000000000000000000000600052601260045260246000fd5b50049056fea264697066735822122044f978cf6cbf4c4ae1333679f50f947fe9a2a99a252d8a4ca065a9f60d7f6c8164736f6c63430008090033",
    "linkReferences": {}
  },
  "methodIdentifiers": {
    "blockHeightDebt()": "4c5cac58",
    "burnAutoRedeemTokensForDollars(uint256)": "0cb03046",
    "burnCouponsForAutoRedemption(uint256,uint256)": "6938c414",
    "burnExpiredCouponsForUGOV(uint256,uint256)": "99c62889",
    "couponLengthBlocks()": "84800d65",
    "debtCycle()": "1ce83f50",
    "dollarsMintedThisCycle()": "bdd5d4b2",
    "exchangeDollarsForDebtCoupons(uint256)": "67a6847d",
    "exchangeDollarsForUAR(uint256)": "1adb4d32",
    "expiredCouponConvertionRate()": "02127499",
    "getCouponsReturnedForDollars(uint256)": "be30446d",
    "getUARReturnedForDollars(uint256)": "aac8e39a",
    "manager()": "481c6a75",
    "mintClaimableDollars()": "2565aa42",
    "onERC1155BatchReceived(address,address,uint256[],uint256[],bytes)": "bc197c81",
    "onERC1155Received(address,address,uint256,uint256,bytes)": "f23a6e61",
    "redeemCoupons(uint256,uint256)": "d6a9cf08",
    "setCouponLength(uint256)": "816dbc4a",
    "setExpiredCouponConvertionRate(uint256)": "cfc893fd",
    "supportsInterface(bytes4)": "01ffc9a7"
  },
  "id": 50
}