{
  "abi": [
    {
      "inputs": [
        {
          "internalType": "address",
          "name": "_admin",
          "type": "address"
        }
      ],
      "stateMutability": "nonpayable",
      "type": "constructor"
    },
    {
      "anonymous": false,
      "inputs": [
        {
          "indexed": true,
          "internalType": "bytes32",
          "name": "role",
          "type": "bytes32"
        },
        {
          "indexed": true,
          "internalType": "bytes32",
          "name": "previousAdminRole",
          "type": "bytes32"
        },
        {
          "indexed": true,
          "internalType": "bytes32",
          "name": "newAdminRole",
          "type": "bytes32"
        }
      ],
      "name": "RoleAdminChanged",
      "type": "event"
    },
    {
      "anonymous": false,
      "inputs": [
        {
          "indexed": true,
          "internalType": "bytes32",
          "name": "role",
          "type": "bytes32"
        },
        {
          "indexed": true,
          "internalType": "address",
          "name": "account",
          "type": "address"
        },
        {
          "indexed": true,
          "internalType": "address",
          "name": "sender",
          "type": "address"
        }
      ],
      "name": "RoleGranted",
      "type": "event"
    },
    {
      "anonymous": false,
      "inputs": [
        {
          "indexed": true,
          "internalType": "bytes32",
          "name": "role",
          "type": "bytes32"
        },
        {
          "indexed": true,
          "internalType": "address",
          "name": "account",
          "type": "address"
        },
        {
          "indexed": true,
          "internalType": "address",
          "name": "sender",
          "type": "address"
        }
      ],
      "name": "RoleRevoked",
      "type": "event"
    },
    {
      "inputs": [],
      "name": "BONDING_MANAGER_ROLE",
      "outputs": [
        {
          "internalType": "bytes32",
          "name": "",
          "type": "bytes32"
        }
      ],
      "stateMutability": "view",
      "type": "function"
    },
    {
      "inputs": [],
      "name": "COUPON_MANAGER_ROLE",
      "outputs": [
        {
          "internalType": "bytes32",
          "name": "",
          "type": "bytes32"
        }
      ],
      "stateMutability": "view",
      "type": "function"
    },
    {
      "inputs": [],
      "name": "DEFAULT_ADMIN_ROLE",
      "outputs": [
        {
          "internalType": "bytes32",
          "name": "",
          "type": "bytes32"
        }
      ],
      "stateMutability": "view",
      "type": "function"
    },
    {
      "inputs": [],
      "name": "INCENTIVE_MANAGER_ROLE",
      "outputs": [
        {
          "internalType": "bytes32",
          "name": "",
          "type": "bytes32"
        }
      ],
      "stateMutability": "view",
      "type": "function"
    },
    {
      "inputs": [],
      "name": "PAUSER_ROLE",
      "outputs": [
        {
          "internalType": "bytes32",
          "name": "",
          "type": "bytes32"
        }
      ],
      "stateMutability": "view",
      "type": "function"
    },
    {
      "inputs": [],
      "name": "UBQ_BURNER_ROLE",
      "outputs": [
        {
          "internalType": "bytes32",
          "name": "",
          "type": "bytes32"
        }
      ],
      "stateMutability": "view",
      "type": "function"
    },
    {
      "inputs": [],
      "name": "UBQ_MINTER_ROLE",
      "outputs": [
        {
          "internalType": "bytes32",
          "name": "",
          "type": "bytes32"
        }
      ],
      "stateMutability": "view",
      "type": "function"
    },
    {
      "inputs": [],
      "name": "UBQ_TOKEN_MANAGER_ROLE",
      "outputs": [
        {
          "internalType": "bytes32",
          "name": "",
          "type": "bytes32"
        }
      ],
      "stateMutability": "view",
      "type": "function"
    },
    {
      "inputs": [],
      "name": "autoRedeemTokenAddress",
      "outputs": [
        {
          "internalType": "address",
          "name": "",
          "type": "address"
        }
      ],
      "stateMutability": "view",
      "type": "function"
    },
    {
      "inputs": [],
      "name": "bondingContractAddress",
      "outputs": [
        {
          "internalType": "address",
          "name": "",
          "type": "address"
        }
      ],
      "stateMutability": "view",
      "type": "function"
    },
    {
      "inputs": [],
      "name": "bondingShareAddress",
      "outputs": [
        {
          "internalType": "address",
          "name": "",
          "type": "address"
        }
      ],
      "stateMutability": "view",
      "type": "function"
    },
    {
      "inputs": [],
      "name": "couponCalculatorAddress",
      "outputs": [
        {
          "internalType": "address",
          "name": "",
          "type": "address"
        }
      ],
      "stateMutability": "view",
      "type": "function"
    },
    {
      "inputs": [],
      "name": "curve3PoolTokenAddress",
      "outputs": [
        {
          "internalType": "address",
          "name": "",
          "type": "address"
        }
      ],
      "stateMutability": "view",
      "type": "function"
    },
    {
      "inputs": [],
      "name": "debtCouponAddress",
      "outputs": [
        {
          "internalType": "address",
          "name": "",
          "type": "address"
        }
      ],
      "stateMutability": "view",
      "type": "function"
    },
    {
      "inputs": [
        {
          "internalType": "address",
          "name": "_curveFactory",
          "type": "address"
        },
        {
          "internalType": "address",
          "name": "_crvBasePool",
          "type": "address"
        },
        {
          "internalType": "address",
          "name": "_crv3PoolTokenAddress",
          "type": "address"
        },
        {
          "internalType": "uint256",
          "name": "_amplificationCoefficient",
          "type": "uint256"
        },
        {
          "internalType": "uint256",
          "name": "_fee",
          "type": "uint256"
        }
      ],
      "name": "deployStableSwapPool",
      "outputs": [],
      "stateMutability": "nonpayable",
      "type": "function"
    },
    {
      "inputs": [],
      "name": "dollarMintingCalculatorAddress",
      "outputs": [
        {
          "internalType": "address",
          "name": "",
          "type": "address"
        }
      ],
      "stateMutability": "view",
      "type": "function"
    },
    {
      "inputs": [],
      "name": "dollarTokenAddress",
      "outputs": [
        {
          "internalType": "address",
          "name": "",
          "type": "address"
        }
      ],
      "stateMutability": "view",
      "type": "function"
    },
    {
      "inputs": [],
      "name": "formulasAddress",
      "outputs": [
        {
          "internalType": "address",
          "name": "",
          "type": "address"
        }
      ],
      "stateMutability": "view",
      "type": "function"
    },
    {
      "inputs": [
        {
          "internalType": "address",
          "name": "_debtCouponManagerAddress",
          "type": "address"
        }
      ],
      "name": "getExcessDollarsDistributor",
      "outputs": [
        {
          "internalType": "address",
          "name": "",
          "type": "address"
        }
      ],
      "stateMutability": "view",
      "type": "function"
    },
    {
      "inputs": [
        {
          "internalType": "bytes32",
          "name": "role",
          "type": "bytes32"
        }
      ],
      "name": "getRoleAdmin",
      "outputs": [
        {
          "internalType": "bytes32",
          "name": "",
          "type": "bytes32"
        }
      ],
      "stateMutability": "view",
      "type": "function"
    },
    {
      "inputs": [],
      "name": "governanceTokenAddress",
      "outputs": [
        {
          "internalType": "address",
          "name": "",
          "type": "address"
        }
      ],
      "stateMutability": "view",
      "type": "function"
    },
    {
      "inputs": [
        {
          "internalType": "bytes32",
          "name": "role",
          "type": "bytes32"
        },
        {
          "internalType": "address",
          "name": "account",
          "type": "address"
        }
      ],
      "name": "grantRole",
      "outputs": [],
      "stateMutability": "nonpayable",
      "type": "function"
    },
    {
      "inputs": [
        {
          "internalType": "bytes32",
          "name": "role",
          "type": "bytes32"
        },
        {
          "internalType": "address",
          "name": "account",
          "type": "address"
        }
      ],
      "name": "hasRole",
      "outputs": [
        {
          "internalType": "bool",
          "name": "",
          "type": "bool"
        }
      ],
      "stateMutability": "view",
      "type": "function"
    },
    {
      "inputs": [],
      "name": "masterChefAddress",
      "outputs": [
        {
          "internalType": "address",
          "name": "",
          "type": "address"
        }
      ],
      "stateMutability": "view",
      "type": "function"
    },
    {
      "inputs": [
        {
          "internalType": "bytes32",
          "name": "role",
          "type": "bytes32"
        },
        {
          "internalType": "address",
          "name": "account",
          "type": "address"
        }
      ],
      "name": "renounceRole",
      "outputs": [],
      "stateMutability": "nonpayable",
      "type": "function"
    },
    {
      "inputs": [
        {
          "internalType": "bytes32",
          "name": "role",
          "type": "bytes32"
        },
        {
          "internalType": "address",
          "name": "account",
          "type": "address"
        }
      ],
      "name": "revokeRole",
      "outputs": [],
      "stateMutability": "nonpayable",
      "type": "function"
    },
    {
      "inputs": [
        {
          "internalType": "address",
          "name": "_bondingContractAddress",
          "type": "address"
        }
      ],
      "name": "setBondingContractAddress",
      "outputs": [],
      "stateMutability": "nonpayable",
      "type": "function"
    },
    {
      "inputs": [
        {
          "internalType": "address",
          "name": "_bondingShareAddress",
          "type": "address"
        }
      ],
      "name": "setBondingShareAddress",
      "outputs": [],
      "stateMutability": "nonpayable",
      "type": "function"
    },
    {
      "inputs": [
        {
          "internalType": "address",
          "name": "_couponCalculatorAddress",
          "type": "address"
        }
      ],
      "name": "setCouponCalculatorAddress",
      "outputs": [],
      "stateMutability": "nonpayable",
      "type": "function"
    },
    {
      "inputs": [
        {
          "internalType": "address",
          "name": "_debtCouponAddress",
          "type": "address"
        }
      ],
      "name": "setDebtCouponAddress",
      "outputs": [],
      "stateMutability": "nonpayable",
      "type": "function"
    },
    {
      "inputs": [
        {
          "internalType": "address",
          "name": "_dollarMintingCalculatorAddress",
          "type": "address"
        }
      ],
      "name": "setDollarMintingCalculatorAddress",
      "outputs": [],
      "stateMutability": "nonpayable",
      "type": "function"
    },
    {
      "inputs": [
        {
          "internalType": "address",
          "name": "_dollarTokenAddress",
          "type": "address"
        }
      ],
      "name": "setDollarTokenAddress",
      "outputs": [],
      "stateMutability": "nonpayable",
      "type": "function"
    },
    {
      "inputs": [
        {
          "internalType": "address",
          "name": "debtCouponManagerAddress",
          "type": "address"
        },
        {
          "internalType": "address",
          "name": "excessCouponDistributor",
          "type": "address"
        }
      ],
      "name": "setExcessDollarsDistributor",
      "outputs": [],
      "stateMutability": "nonpayable",
      "type": "function"
    },
    {
      "inputs": [
        {
          "internalType": "address",
          "name": "_formulasAddress",
          "type": "address"
        }
      ],
      "name": "setFormulasAddress",
      "outputs": [],
      "stateMutability": "nonpayable",
      "type": "function"
    },
    {
      "inputs": [
        {
          "internalType": "address",
          "name": "_governanceTokenAddress",
          "type": "address"
        }
      ],
      "name": "setGovernanceTokenAddress",
      "outputs": [],
      "stateMutability": "nonpayable",
      "type": "function"
    },
    {
      "inputs": [
        {
          "internalType": "address",
          "name": "_account",
          "type": "address"
        },
        {
          "internalType": "address",
          "name": "_incentiveAddress",
          "type": "address"
        }
      ],
      "name": "setIncentiveToUAD",
      "outputs": [],
      "stateMutability": "nonpayable",
      "type": "function"
    },
    {
      "inputs": [
        {
          "internalType": "address",
          "name": "_masterChefAddress",
          "type": "address"
        }
      ],
      "name": "setMasterChefAddress",
      "outputs": [],
      "stateMutability": "nonpayable",
      "type": "function"
    },
    {
      "inputs": [
        {
          "internalType": "address",
          "name": "_stableSwapMetaPoolAddress",
          "type": "address"
        }
      ],
      "name": "setStableSwapMetaPoolAddress",
      "outputs": [],
      "stateMutability": "nonpayable",
      "type": "function"
    },
    {
      "inputs": [
        {
          "internalType": "address",
          "name": "_sushiSwapPoolAddress",
          "type": "address"
        }
      ],
      "name": "setSushiSwapPoolAddress",
      "outputs": [],
      "stateMutability": "nonpayable",
      "type": "function"
    },
    {
      "inputs": [
        {
          "internalType": "address",
          "name": "_treasuryAddress",
          "type": "address"
        }
      ],
      "name": "setTreasuryAddress",
      "outputs": [],
      "stateMutability": "nonpayable",
      "type": "function"
    },
    {
      "inputs": [
        {
          "internalType": "address",
          "name": "_twapOracleAddress",
          "type": "address"
        }
      ],
      "name": "setTwapOracleAddress",
      "outputs": [],
      "stateMutability": "nonpayable",
      "type": "function"
    },
    {
      "inputs": [
        {
          "internalType": "address",
          "name": "_uarCalculatorAddress",
          "type": "address"
        }
      ],
      "name": "setUARCalculatorAddress",
      "outputs": [],
      "stateMutability": "nonpayable",
      "type": "function"
    },
    {
      "inputs": [
        {
          "internalType": "address",
          "name": "_uarTokenAddress",
          "type": "address"
        }
      ],
      "name": "setuARTokenAddress",
      "outputs": [],
      "stateMutability": "nonpayable",
      "type": "function"
    },
    {
      "inputs": [],
      "name": "stableSwapMetaPoolAddress",
      "outputs": [
        {
          "internalType": "address",
          "name": "",
          "type": "address"
        }
      ],
      "stateMutability": "view",
      "type": "function"
    },
    {
      "inputs": [
        {
          "internalType": "bytes4",
          "name": "interfaceId",
          "type": "bytes4"
        }
      ],
      "name": "supportsInterface",
      "outputs": [
        {
          "internalType": "bool",
          "name": "",
          "type": "bool"
        }
      ],
      "stateMutability": "view",
      "type": "function"
    },
    {
      "inputs": [],
      "name": "sushiSwapPoolAddress",
      "outputs": [
        {
          "internalType": "address",
          "name": "",
          "type": "address"
        }
      ],
      "stateMutability": "view",
      "type": "function"
    },
    {
      "inputs": [],
      "name": "treasuryAddress",
      "outputs": [
        {
          "internalType": "address",
          "name": "",
          "type": "address"
        }
      ],
      "stateMutability": "view",
      "type": "function"
    },
    {
      "inputs": [],
      "name": "twapOracleAddress",
      "outputs": [
        {
          "internalType": "address",
          "name": "",
          "type": "address"
        }
      ],
      "stateMutability": "view",
      "type": "function"
    },
    {
      "inputs": [],
      "name": "uarCalculatorAddress",
      "outputs": [
        {
          "internalType": "address",
          "name": "",
          "type": "address"
        }
      ],
      "stateMutability": "view",
      "type": "function"
    }
  ],
  "bytecode": {
    "object": "0x60806040523480156200001157600080fd5b506040516200311238038062003112833981016040819052620000349162000200565b6200004160008262000150565b6200006d7f3a2e010201653e4743db35ee85e81b63eb19cf8948f24794ef2b4dba5ecf49c98262000150565b620000997f65d7a28e3265b37a6474929f336521b332c1681b933f6cb9f3376673440d862a8262000150565b620000c57feaff283aa1cb5c8448e8e6df1f1d9256a0b9e1d4a11bca9e915ecfb8d881be7e8262000150565b620000f17fb59de930ba65d9ac0d4dbd09127a305101a071683af551ffece1d125909542d88262000150565b6200011d7faf1a415cb2281de448f1771a3c8144f554e6e38bb3bc1acc8218c01a5d75721d8262000150565b620001497f9a46abf6358a50f8b5f443e7d26ec0762bffead3f6c78af4ff80f12ba16bb5683062000150565b5062000232565b6200015c828262000160565b5050565b6000828152602081815260408083206001600160a01b038516845290915290205460ff166200015c576000828152602081815260408083206001600160a01b03851684529091529020805460ff19166001179055620001bc3390565b6001600160a01b0316816001600160a01b0316837f2f8788117e7eff1d82e926ec794901d17c78024a50270940304540a733656f0d60405160405180910390a45050565b6000602082840312156200021357600080fd5b81516001600160a01b03811681146200022b57600080fd5b9392505050565b612ed080620002426000396000f3fe608060405234801561001057600080fd5b506004361061032b5760003560e01c80636605bfda116101b2578063be1d86e1116100f9578063e2d443bd116100a2578063f39e5a471161007c578063f39e5a4714610875578063f6f172cb1461089c578063f986cd57146108af578063fbff3a41146108c257600080fd5b8063e2d443bd14610814578063e63ab1e914610827578063e6c735401461084e57600080fd5b8063d3815fb9116100d3578063d3815fb9146107c1578063d547741f146107e1578063de71c1db146107f457600080fd5b8063be1d86e11461076e578063c431e83c14610781578063c5f956af146107a157600080fd5b8063a41dd6e61161015b578063b42165d011610135578063b42165d01461071b578063b90bbaff1461073b578063bc3ea0181461074e57600080fd5b8063a41dd6e6146106a8578063aef6be3c146106cf578063b3094fd61461070857600080fd5b806391d148541161018c57806391d1485414610649578063923246111461068d578063a217fddf146106a057600080fd5b80636605bfda146105f6578063749cface146106095780638fe636831461062957600080fd5b806338174654116102765780634ac116081161021f57806356593ea3116101f957806356593ea31461058f57806357f6a22a146105af57806359f6deac146105d657600080fd5b80634ac11608146105565780634c9f5d861461056957806353b075071461057c57600080fd5b80633b4d9773116102505780633b4d9773146104fc5780633e916ced14610523578063470913981461054357600080fd5b806338174654146104b65780633ae3d9a4146104c95780633b194dcc146104e957600080fd5b8063221e2e60116102d85780632f533cb7116102b25780632f533cb71461045c57806336568abe1461048357806336c3df241461049657600080fd5b8063221e2e60146103f8578063248a9ca3146104185780632f2ff15d1461044957600080fd5b8063147f1b9611610309578063147f1b96146103b257806315f97398146103c5578063214f7882146103d857600080fd5b8063017df3271461033057806301ffc9a71461037a5780630bcf9ca31461039d575b600080fd5b6009546103509073ffffffffffffffffffffffffffffffffffffffff1681565b60405173ffffffffffffffffffffffffffffffffffffffff90911681526020015b60405180910390f35b61038d61038836600461294a565b6108d5565b6040519015158152602001610371565b6103b06103ab3660046129ae565b61096e565b005b6103b06103c03660046129ae565b610a38565b6103b06103d33660046129ae565b610afd565b600e546103509073ffffffffffffffffffffffffffffffffffffffff1681565b600d546103509073ffffffffffffffffffffffffffffffffffffffff1681565b61043b6104263660046129cb565b60009081526020819052604090206001015490565b604051908152602001610371565b6103b06104573660046129e4565b610bc2565b61043b7f3a2e010201653e4743db35ee85e81b63eb19cf8948f24794ef2b4dba5ecf49c981565b6103b06104913660046129e4565b610bec565b600c546103509073ffffffffffffffffffffffffffffffffffffffff1681565b6103b06104c43660046129ae565b610c85565b600f546103509073ffffffffffffffffffffffffffffffffffffffff1681565b6103b06104f73660046129ae565b610d4a565b61043b7f9a46abf6358a50f8b5f443e7d26ec0762bffead3f6c78af4ff80f12ba16bb56881565b6004546103509073ffffffffffffffffffffffffffffffffffffffff1681565b6103b06105513660046129ae565b610e78565b6103b06105643660046129ae565b610f3d565b6103b06105773660046129ae565b611002565b6103b061058a366004612a14565b6110c7565b6002546103509073ffffffffffffffffffffffffffffffffffffffff1681565b61043b7faf1a415cb2281de448f1771a3c8144f554e6e38bb3bc1acc8218c01a5d75721d81565b6005546103509073ffffffffffffffffffffffffffffffffffffffff1681565b6103b06106043660046129ae565b6111ba565b6010546103509073ffffffffffffffffffffffffffffffffffffffff1681565b6001546103509073ffffffffffffffffffffffffffffffffffffffff1681565b61038d6106573660046129e4565b60009182526020828152604080842073ffffffffffffffffffffffffffffffffffffffff93909316845291905290205460ff1690565b6103b061069b3660046129ae565b61127f565b61043b600081565b61043b7feaff283aa1cb5c8448e8e6df1f1d9256a0b9e1d4a11bca9e915ecfb8d881be7e81565b6103506106dd3660046129ae565b73ffffffffffffffffffffffffffffffffffffffff9081166000908152601160205260409020541690565b6103b06107163660046129ae565b611344565b600b546103509073ffffffffffffffffffffffffffffffffffffffff1681565b6103b06107493660046129ae565b611409565b6003546103509073ffffffffffffffffffffffffffffffffffffffff1681565b6103b061077c3660046129ae565b6114ce565b6006546103509073ffffffffffffffffffffffffffffffffffffffff1681565b600a546103509073ffffffffffffffffffffffffffffffffffffffff1681565b6008546103509073ffffffffffffffffffffffffffffffffffffffff1681565b6103b06107ef3660046129e4565b611593565b6007546103509073ffffffffffffffffffffffffffffffffffffffff1681565b6103b06108223660046129ae565b6115b8565b61043b7f65d7a28e3265b37a6474929f336521b332c1681b933f6cb9f3376673440d862a81565b61043b7fb59de930ba65d9ac0d4dbd09127a305101a071683af551ffece1d125909542d881565b61043b7fa3405bb4244d0786f3e4178acef3953ebb3f56c1e97e9530871f50739923c1cf81565b6103b06108aa366004612a14565b61167d565b6103b06108bd3660046129ae565b61174e565b6103b06108d0366004612a42565b611813565b60007fffffffff0000000000000000000000000000000000000000000000000000000082167f7965db0b00000000000000000000000000000000000000000000000000000000148061096857507f01ffc9a7000000000000000000000000000000000000000000000000000000007fffffffff000000000000000000000000000000000000000000000000000000008316145b92915050565b3360009081527fad3228b676f7d3cd4284a5443f17f1962b36e491b30a40b2405849e597ba5fb5602052604090205460ff166109f15760405162461bcd60e51b815260206004820152601b60248201527f7541444d47523a2043616c6c6572206973206e6f742061646d696e000000000060448201526064015b60405180910390fd5b600680547fffffffffffffffffffffffff00000000000000000000000000000000000000001673ffffffffffffffffffffffffffffffffffffffff92909216919091179055565b3360009081527fad3228b676f7d3cd4284a5443f17f1962b36e491b30a40b2405849e597ba5fb5602052604090205460ff16610ab65760405162461bcd60e51b815260206004820152601b60248201527f7541444d47523a2043616c6c6572206973206e6f742061646d696e000000000060448201526064016109e8565b600c80547fffffffffffffffffffffffff00000000000000000000000000000000000000001673ffffffffffffffffffffffffffffffffffffffff92909216919091179055565b3360009081527fad3228b676f7d3cd4284a5443f17f1962b36e491b30a40b2405849e597ba5fb5602052604090205460ff16610b7b5760405162461bcd60e51b815260206004820152601b60248201527f7541444d47523a2043616c6c6572206973206e6f742061646d696e000000000060448201526064016109e8565b600e80547fffffffffffffffffffffffff00000000000000000000000000000000000000001673ffffffffffffffffffffffffffffffffffffffff92909216919091179055565b600082815260208190526040902060010154610bdd81612057565b610be78383612064565b505050565b73ffffffffffffffffffffffffffffffffffffffff81163314610c775760405162461bcd60e51b815260206004820152602f60248201527f416363657373436f6e74726f6c3a2063616e206f6e6c792072656e6f756e636560448201527f20726f6c657320666f722073656c66000000000000000000000000000000000060648201526084016109e8565b610c818282612154565b5050565b3360009081527fad3228b676f7d3cd4284a5443f17f1962b36e491b30a40b2405849e597ba5fb5602052604090205460ff16610d035760405162461bcd60e51b815260206004820152601b60248201527f7541444d47523a2043616c6c6572206973206e6f742061646d696e000000000060448201526064016109e8565b600480547fffffffffffffffffffffffff00000000000000000000000000000000000000001673ffffffffffffffffffffffffffffffffffffffff92909216919091179055565b3360009081527fad3228b676f7d3cd4284a5443f17f1962b36e491b30a40b2405849e597ba5fb5602052604090205460ff16610dc85760405162461bcd60e51b815260206004820152601b60248201527f7541444d47523a2043616c6c6572206973206e6f742061646d696e000000000060448201526064016109e8565b600180547fffffffffffffffffffffffff00000000000000000000000000000000000000001673ffffffffffffffffffffffffffffffffffffffff8316908117909155604080517fa2e620450000000000000000000000000000000000000000000000000000000081529051829163a2e6204591600480830192600092919082900301818387803b158015610e5c57600080fd5b505af1158015610e70573d6000803e3d6000fd5b505050505050565b3360009081527fad3228b676f7d3cd4284a5443f17f1962b36e491b30a40b2405849e597ba5fb5602052604090205460ff16610ef65760405162461bcd60e51b815260206004820152601b60248201527f7541444d47523a2043616c6c6572206973206e6f742061646d696e000000000060448201526064016109e8565b600280547fffffffffffffffffffffffff00000000000000000000000000000000000000001673ffffffffffffffffffffffffffffffffffffffff92909216919091179055565b3360009081527fad3228b676f7d3cd4284a5443f17f1962b36e491b30a40b2405849e597ba5fb5602052604090205460ff16610fbb5760405162461bcd60e51b815260206004820152601b60248201527f7541444d47523a2043616c6c6572206973206e6f742061646d696e000000000060448201526064016109e8565b601080547fffffffffffffffffffffffff00000000000000000000000000000000000000001673ffffffffffffffffffffffffffffffffffffffff92909216919091179055565b3360009081527fad3228b676f7d3cd4284a5443f17f1962b36e491b30a40b2405849e597ba5fb5602052604090205460ff166110805760405162461bcd60e51b815260206004820152601b60248201527f7541444d47523a2043616c6c6572206973206e6f742061646d696e000000000060448201526064016109e8565b600580547fffffffffffffffffffffffff00000000000000000000000000000000000000001673ffffffffffffffffffffffffffffffffffffffff92909216919091179055565b3360009081527fad3228b676f7d3cd4284a5443f17f1962b36e491b30a40b2405849e597ba5fb5602052604090205460ff166111455760405162461bcd60e51b815260206004820152601b60248201527f7541444d47523a2043616c6c6572206973206e6f742061646d696e000000000060448201526064016109e8565b6003546040517fb6232c9900000000000000000000000000000000000000000000000000000000815273ffffffffffffffffffffffffffffffffffffffff848116600483015283811660248301529091169063b6232c9990604401600060405180830381600087803b158015610e5c57600080fd5b3360009081527fad3228b676f7d3cd4284a5443f17f1962b36e491b30a40b2405849e597ba5fb5602052604090205460ff166112385760405162461bcd60e51b815260206004820152601b60248201527f7541444d47523a2043616c6c6572206973206e6f742061646d696e000000000060448201526064016109e8565b600a80547fffffffffffffffffffffffff00000000000000000000000000000000000000001673ffffffffffffffffffffffffffffffffffffffff92909216919091179055565b3360009081527fad3228b676f7d3cd4284a5443f17f1962b36e491b30a40b2405849e597ba5fb5602052604090205460ff166112fd5760405162461bcd60e51b815260206004820152601b60248201527f7541444d47523a2043616c6c6572206973206e6f742061646d696e000000000060448201526064016109e8565b600880547fffffffffffffffffffffffff00000000000000000000000000000000000000001673ffffffffffffffffffffffffffffffffffffffff92909216919091179055565b3360009081527fad3228b676f7d3cd4284a5443f17f1962b36e491b30a40b2405849e597ba5fb5602052604090205460ff166113c25760405162461bcd60e51b815260206004820152601b60248201527f7541444d47523a2043616c6c6572206973206e6f742061646d696e000000000060448201526064016109e8565b600780547fffffffffffffffffffffffff00000000000000000000000000000000000000001673ffffffffffffffffffffffffffffffffffffffff92909216919091179055565b3360009081527fad3228b676f7d3cd4284a5443f17f1962b36e491b30a40b2405849e597ba5fb5602052604090205460ff166114875760405162461bcd60e51b815260206004820152601b60248201527f7541444d47523a2043616c6c6572206973206e6f742061646d696e000000000060448201526064016109e8565b600f80547fffffffffffffffffffffffff00000000000000000000000000000000000000001673ffffffffffffffffffffffffffffffffffffffff92909216919091179055565b3360009081527fad3228b676f7d3cd4284a5443f17f1962b36e491b30a40b2405849e597ba5fb5602052604090205460ff1661154c5760405162461bcd60e51b815260206004820152601b60248201527f7541444d47523a2043616c6c6572206973206e6f742061646d696e000000000060448201526064016109e8565b600d80547fffffffffffffffffffffffff00000000000000000000000000000000000000001673ffffffffffffffffffffffffffffffffffffffff92909216919091179055565b6000828152602081905260409020600101546115ae81612057565b610be78383612154565b3360009081527fad3228b676f7d3cd4284a5443f17f1962b36e491b30a40b2405849e597ba5fb5602052604090205460ff166116365760405162461bcd60e51b815260206004820152601b60248201527f7541444d47523a2043616c6c6572206973206e6f742061646d696e000000000060448201526064016109e8565b600b80547fffffffffffffffffffffffff00000000000000000000000000000000000000001673ffffffffffffffffffffffffffffffffffffffff92909216919091179055565b3360009081527fad3228b676f7d3cd4284a5443f17f1962b36e491b30a40b2405849e597ba5fb5602052604090205460ff166116fb5760405162461bcd60e51b815260206004820152601b60248201527f7541444d47523a2043616c6c6572206973206e6f742061646d696e000000000060448201526064016109e8565b73ffffffffffffffffffffffffffffffffffffffff918216600090815260116020526040902080547fffffffffffffffffffffffff00000000000000000000000000000000000000001691909216179055565b3360009081527fad3228b676f7d3cd4284a5443f17f1962b36e491b30a40b2405849e597ba5fb5602052604090205460ff166117cc5760405162461bcd60e51b815260206004820152601b60248201527f7541444d47523a2043616c6c6572206973206e6f742061646d696e000000000060448201526064016109e8565b600380547fffffffffffffffffffffffff00000000000000000000000000000000000000001673ffffffffffffffffffffffffffffffffffffffff92909216919091179055565b3360009081527fad3228b676f7d3cd4284a5443f17f1962b36e491b30a40b2405849e597ba5fb5602052604090205460ff166118915760405162461bcd60e51b815260206004820152601b60248201527f7541444d47523a2043616c6c6572206973206e6f742061646d696e000000000060448201526064016109e8565b60008573ffffffffffffffffffffffffffffffffffffffff1663e339eb4f86600360009054906101000a900473ffffffffffffffffffffffffffffffffffffffff1673ffffffffffffffffffffffffffffffffffffffff166306fdde036040518163ffffffff1660e01b8152600401600060405180830381865afa15801561191d573d6000803e3d6000fd5b505050506040513d6000823e601f3d9081017fffffffffffffffffffffffffffffffffffffffffffffffffffffffffffffffe01682016040526119639190810190612af0565b600360009054906101000a900473ffffffffffffffffffffffffffffffffffffffff1673ffffffffffffffffffffffffffffffffffffffff166395d89b416040518163ffffffff1660e01b8152600401600060405180830381865afa1580156119d0573d6000803e3d6000fd5b505050506040513d6000823e601f3d9081017fffffffffffffffffffffffffffffffffffffffffffffffffffffffffffffffe0168201604052611a169190810190612af0565b6003546040517fffffffff0000000000000000000000000000000000000000000000000000000060e087901b168152611a6f9493929173ffffffffffffffffffffffffffffffffffffffff16908a908a90600401612bfa565b6020604051808303816000875af1158015611a8e573d6000803e3d6000fd5b505050506040513d601f19601f82011682018060405250810190611ab29190612c5a565b600880547fffffffffffffffffffffffff00000000000000000000000000000000000000001673ffffffffffffffffffffffffffffffffffffffff838116919091179091556040517f70a08231000000000000000000000000000000000000000000000000000000008152306004820152919250600091908616906370a0823190602401602060405180830381865afa158015611b53573d6000803e3d6000fd5b505050506040513d601f19601f82011682018060405250810190611b779190612c77565b6003546040517f70a0823100000000000000000000000000000000000000000000000000000000815230600482015291925060009173ffffffffffffffffffffffffffffffffffffffff909116906370a0823190602401602060405180830381865afa158015611beb573d6000803e3d6000fd5b505050506040513d601f19601f82011682018060405250810190611c0f9190612c77565b9050611c3373ffffffffffffffffffffffffffffffffffffffff871684600061220b565b611c5473ffffffffffffffffffffffffffffffffffffffff8716848461220b565b600354611c799073ffffffffffffffffffffffffffffffffffffffff1684600061220b565b600354611c9d9073ffffffffffffffffffffffffffffffffffffffff16848361220b565b6003546040517fc66106570000000000000000000000000000000000000000000000000000000081526000600482015273ffffffffffffffffffffffffffffffffffffffff9182169185169063c661065790602401602060405180830381865afa158015611d0f573d6000803e3d6000fd5b505050506040513d601f19601f82011682018060405250810190611d339190612c5a565b73ffffffffffffffffffffffffffffffffffffffff16148015611dfd57506040517fc66106570000000000000000000000000000000000000000000000000000000081526001600482015273ffffffffffffffffffffffffffffffffffffffff808816919085169063c661065790602401602060405180830381865afa158015611dc1573d6000803e3d6000fd5b505050506040513d601f19601f82011682018060405250810190611de59190612c5a565b73ffffffffffffffffffffffffffffffffffffffff16145b611e495760405162461bcd60e51b815260206004820152601b60248201527f7541444d47523a20434f494e5f4f524445525f4d49534d41544348000000000060448201526064016109e8565b60408051808201918290526003547f70a0823100000000000000000000000000000000000000000000000000000000909252306044820152600091819073ffffffffffffffffffffffffffffffffffffffff166370a0823160648301602060405180830381865afa158015611ec2573d6000803e3d6000fd5b505050506040513d601f19601f82011682018060405250810190611ee69190612c77565b81526040517f70a0823100000000000000000000000000000000000000000000000000000000815230600482015260209091019073ffffffffffffffffffffffffffffffffffffffff8a16906370a0823190602401602060405180830381865afa158015611f58573d6000803e3d6000fd5b505050506040513d601f19601f82011682018060405250810190611f7c9190612c77565b9052600980547fffffffffffffffffffffffff00000000000000000000000000000000000000001673ffffffffffffffffffffffffffffffffffffffff8a8116919091179091556040517f0c3e4b54000000000000000000000000000000000000000000000000000000008152919250851690630c3e4b54906120089084906000903390600401612c90565b6020604051808303816000875af1158015612027573d6000803e3d6000fd5b505050506040513d601f19601f8201168201806040525081019061204b9190612c77565b50505050505050505050565b61206181336123aa565b50565b60008281526020818152604080832073ffffffffffffffffffffffffffffffffffffffff8516845290915290205460ff16610c815760008281526020818152604080832073ffffffffffffffffffffffffffffffffffffffff85168452909152902080547fffffffffffffffffffffffffffffffffffffffffffffffffffffffffffffff001660011790556120f63390565b73ffffffffffffffffffffffffffffffffffffffff168173ffffffffffffffffffffffffffffffffffffffff16837f2f8788117e7eff1d82e926ec794901d17c78024a50270940304540a733656f0d60405160405180910390a45050565b60008281526020818152604080832073ffffffffffffffffffffffffffffffffffffffff8516845290915290205460ff1615610c815760008281526020818152604080832073ffffffffffffffffffffffffffffffffffffffff8516808552925280832080547fffffffffffffffffffffffffffffffffffffffffffffffffffffffffffffff0016905551339285917ff6391f5c32d9c69d2a47ea670b442974b53935d1edc7fd64eb21e047a839171b9190a45050565b8015806122ab57506040517fdd62ed3e00000000000000000000000000000000000000000000000000000000815230600482015273ffffffffffffffffffffffffffffffffffffffff838116602483015284169063dd62ed3e90604401602060405180830381865afa158015612285573d6000803e3d6000fd5b505050506040513d601f19601f820116820180604052508101906122a99190612c77565b155b61231d5760405162461bcd60e51b815260206004820152603660248201527f5361666545524332303a20617070726f76652066726f6d206e6f6e2d7a65726f60448201527f20746f206e6f6e2d7a65726f20616c6c6f77616e63650000000000000000000060648201526084016109e8565b6040805173ffffffffffffffffffffffffffffffffffffffff8416602482015260448082018490528251808303909101815260649091019091526020810180517bffffffffffffffffffffffffffffffffffffffffffffffffffffffff167f095ea7b300000000000000000000000000000000000000000000000000000000179052610be7908490612448565b60008281526020818152604080832073ffffffffffffffffffffffffffffffffffffffff8516845290915290205460ff16610c81576123e88161253a565b6123f3836020612559565b604051602001612404929190612ce5565b604080517fffffffffffffffffffffffffffffffffffffffffffffffffffffffffffffffe08184030181529082905262461bcd60e51b82526109e891600401612d66565b60006124aa826040518060400160405280602081526020017f5361666545524332303a206c6f772d6c6576656c2063616c6c206661696c65648152508573ffffffffffffffffffffffffffffffffffffffff166127899092919063ffffffff16565b805190915015610be757808060200190518101906124c89190612d79565b610be75760405162461bcd60e51b815260206004820152602a60248201527f5361666545524332303a204552433230206f7065726174696f6e20646964206e60448201527f6f7420737563636565640000000000000000000000000000000000000000000060648201526084016109e8565b606061096873ffffffffffffffffffffffffffffffffffffffff831660145b60606000612568836002612dca565b612573906002612e07565b67ffffffffffffffff81111561258b5761258b612a9d565b6040519080825280601f01601f1916602001820160405280156125b5576020820181803683370190505b5090507f3000000000000000000000000000000000000000000000000000000000000000816000815181106125ec576125ec612e1a565b60200101907effffffffffffffffffffffffffffffffffffffffffffffffffffffffffffff1916908160001a9053507f78000000000000000000000000000000000000000000000000000000000000008160018151811061264f5761264f612e1a565b60200101907effffffffffffffffffffffffffffffffffffffffffffffffffffffffffffff1916908160001a905350600061268b846002612dca565b612696906001612e07565b90505b6001811115612733577f303132333435363738396162636465660000000000000000000000000000000085600f16601081106126d7576126d7612e1a565b1a60f81b8282815181106126ed576126ed612e1a565b60200101907effffffffffffffffffffffffffffffffffffffffffffffffffffffffffffff1916908160001a90535060049490941c9361272c81612e49565b9050612699565b5083156127825760405162461bcd60e51b815260206004820181905260248201527f537472696e67733a20686578206c656e67746820696e73756666696369656e7460448201526064016109e8565b9392505050565b606061279884846000856127a0565b949350505050565b6060824710156128185760405162461bcd60e51b815260206004820152602660248201527f416464726573733a20696e73756666696369656e742062616c616e636520666f60448201527f722063616c6c000000000000000000000000000000000000000000000000000060648201526084016109e8565b6000808673ffffffffffffffffffffffffffffffffffffffff1685876040516128419190612e7e565b60006040518083038185875af1925050503d806000811461287e576040519150601f19603f3d011682016040523d82523d6000602084013e612883565b606091505b50915091506128948783838761289f565b979650505050505050565b6060831561291b5782516000036129145773ffffffffffffffffffffffffffffffffffffffff85163b6129145760405162461bcd60e51b815260206004820152601d60248201527f416464726573733a2063616c6c20746f206e6f6e2d636f6e747261637400000060448201526064016109e8565b5081612798565b61279883838151156129305781518083602001fd5b8060405162461bcd60e51b81526004016109e89190612d66565b60006020828403121561295c57600080fd5b81357fffffffff000000000000000000000000000000000000000000000000000000008116811461278257600080fd5b73ffffffffffffffffffffffffffffffffffffffff8116811461206157600080fd5b6000602082840312156129c057600080fd5b81356127828161298c565b6000602082840312156129dd57600080fd5b5035919050565b600080604083850312156129f757600080fd5b823591506020830135612a098161298c565b809150509250929050565b60008060408385031215612a2757600080fd5b8235612a328161298c565b91506020830135612a098161298c565b600080600080600060a08688031215612a5a57600080fd5b8535612a658161298c565b94506020860135612a758161298c565b93506040860135612a858161298c565b94979396509394606081013594506080013592915050565b7f4e487b7100000000000000000000000000000000000000000000000000000000600052604160045260246000fd5b60005b83811015612ae7578181015183820152602001612acf565b50506000910152565b600060208284031215612b0257600080fd5b815167ffffffffffffffff80821115612b1a57600080fd5b818401915084601f830112612b2e57600080fd5b815181811115612b4057612b40612a9d565b604051601f82017fffffffffffffffffffffffffffffffffffffffffffffffffffffffffffffffe0908116603f01168101908382118183101715612b8657612b86612a9d565b81604052828152876020848701011115612b9f57600080fd5b612894836020830160208801612acc565b60008151808452612bc8816020860160208601612acc565b601f017fffffffffffffffffffffffffffffffffffffffffffffffffffffffffffffffe0169290920160200192915050565b600073ffffffffffffffffffffffffffffffffffffffff808916835260c06020840152612c2a60c0840189612bb0565b8381036040850152612c3c8189612bb0565b91909616606084015260808301949094525060a00152949350505050565b600060208284031215612c6c57600080fd5b81516127828161298c565b600060208284031215612c8957600080fd5b5051919050565b60808101818560005b6002811015612cb8578151835260209283019290910190600101612c99565b50505083604083015273ffffffffffffffffffffffffffffffffffffffff83166060830152949350505050565b7f416363657373436f6e74726f6c3a206163636f756e7420000000000000000000815260008351612d1d816017850160208801612acc565b7f206973206d697373696e6720726f6c65200000000000000000000000000000006017918401918201528351612d5a816028840160208801612acc565b01602801949350505050565b6020815260006127826020830184612bb0565b600060208284031215612d8b57600080fd5b8151801515811461278257600080fd5b7f4e487b7100000000000000000000000000000000000000000000000000000000600052601160045260246000fd5b6000817fffffffffffffffffffffffffffffffffffffffffffffffffffffffffffffffff0483118215151615612e0257612e02612d9b565b500290565b8082018082111561096857610968612d9b565b7f4e487b7100000000000000000000000000000000000000000000000000000000600052603260045260246000fd5b600081612e5857612e58612d9b565b507fffffffffffffffffffffffffffffffffffffffffffffffffffffffffffffffff0190565b60008251612e90818460208701612acc565b919091019291505056fea26469706673582212209085fbef541d653a2791754db2490bbfe0b38ade1e53a431b0f3e7027d67598164736f6c63430008100033",
    "linkReferences": {}
  },
  "methodIdentifiers": {
    "BONDING_MANAGER_ROLE()": "e6c73540",
    "COUPON_MANAGER_ROLE()": "a41dd6e6",
    "DEFAULT_ADMIN_ROLE()": "a217fddf",
    "INCENTIVE_MANAGER_ROLE()": "57f6a22a",
    "PAUSER_ROLE()": "e63ab1e9",
    "UBQ_BURNER_ROLE()": "f39e5a47",
    "UBQ_MINTER_ROLE()": "2f533cb7",
    "UBQ_TOKEN_MANAGER_ROLE()": "3b4d9773",
    "autoRedeemTokenAddress()": "3ae3d9a4",
    "bondingContractAddress()": "de71c1db",
    "bondingShareAddress()": "c431e83c",
    "couponCalculatorAddress()": "3e916ced",
    "curve3PoolTokenAddress()": "017df327",
    "debtCouponAddress()": "56593ea3",
    "deployStableSwapPool(address,address,address,uint256,uint256)": "fbff3a41",
    "dollarMintingCalculatorAddress()": "59f6deac",
    "dollarTokenAddress()": "bc3ea018",
    "formulasAddress()": "214f7882",
    "getExcessDollarsDistributor(address)": "aef6be3c",
    "getRoleAdmin(bytes32)": "248a9ca3",
    "governanceTokenAddress()": "b42165d0",
    "grantRole(bytes32,address)": "2f2ff15d",
    "hasRole(bytes32,address)": "91d14854",
    "masterChefAddress()": "221e2e60",
    "renounceRole(bytes32,address)": "36568abe",
    "revokeRole(bytes32,address)": "d547741f",
    "setBondingContractAddress(address)": "b3094fd6",
    "setBondingShareAddress(address)": "0bcf9ca3",
    "setCouponCalculatorAddress(address)": "38174654",
    "setDebtCouponAddress(address)": "47091398",
    "setDollarMintingCalculatorAddress(address)": "4c9f5d86",
    "setDollarTokenAddress(address)": "f986cd57",
    "setExcessDollarsDistributor(address,address)": "f6f172cb",
    "setFormulasAddress(address)": "15f97398",
    "setGovernanceTokenAddress(address)": "e2d443bd",
    "setIncentiveToUAD(address,address)": "53b07507",
    "setMasterChefAddress(address)": "be1d86e1",
    "setStableSwapMetaPoolAddress(address)": "92324611",
    "setSushiSwapPoolAddress(address)": "147f1b96",
    "setTreasuryAddress(address)": "6605bfda",
    "setTwapOracleAddress(address)": "3b194dcc",
    "setUARCalculatorAddress(address)": "4ac11608",
    "setuARTokenAddress(address)": "b90bbaff",
    "stableSwapMetaPoolAddress()": "d3815fb9",
    "supportsInterface(bytes4)": "01ffc9a7",
    "sushiSwapPoolAddress()": "36c3df24",
    "treasuryAddress()": "c5f956af",
    "twapOracleAddress()": "8fe63683",
    "uarCalculatorAddress()": "749cface"
  },
  "userdoc": {
    "version": 1,
    "kind": "user",
    "methods": {
      "deployStableSwapPool(address,address,address,uint256,uint256)": {
        "notice": "deploy a new Curve metapools for uAD Token uAD/3Pool"
      },
      "setBondingContractAddress(address)": {
        "notice": "set the bonding bontract smart contract address"
      },
      "setTreasuryAddress(address)": {
        "notice": "set the treasury address"
      }
    },
    "notice": "For storing constants. For storing variables and allowing them to be changed by the admin (governance)"
  },
  "devdoc": {
    "version": 1,
    "kind": "dev",
    "details": "This should be used as a central access control manager which other contracts use to check permissions",
    "methods": {
      "deployStableSwapPool(address,address,address,uint256,uint256)": {
        "details": "From the curve documentation for uncollateralized algorithmic stablecoins amplification should be 5-10",
        "params": {
          "_amplificationCoefficient": "amplification coefficient. The smaller it is the closer to a constant product we are.",
          "_crv3PoolTokenAddress": "curve 3Pool token Address",
          "_crvBasePool": "Address of the base pool to use within the new metapool.",
          "_curveFactory": "MetaPool factory address",
          "_fee": "Trade fee, given as an integer with 1e10 precision."
        }
      },
      "getRoleAdmin(bytes32)": {
        "details": "Returns the admin role that controls `role`. See {grantRole} and {revokeRole}. To change a role's admin, use {_setRoleAdmin}."
      },
      "grantRole(bytes32,address)": {
        "details": "Grants `role` to `account`. If `account` had not been already granted `role`, emits a {RoleGranted} event. Requirements: - the caller must have ``role``'s admin role. May emit a {RoleGranted} event."
      },
      "hasRole(bytes32,address)": {
        "details": "Returns `true` if `account` has been granted `role`."
      },
      "renounceRole(bytes32,address)": {
        "details": "Revokes `role` from the calling account. Roles are often managed via {grantRole} and {revokeRole}: this function's purpose is to provide a mechanism for accounts to lose their privileges if they are compromised (such as when a trusted device is misplaced). If the calling account had been revoked `role`, emits a {RoleRevoked} event. Requirements: - the caller must be `account`. May emit a {RoleRevoked} event."
      },
      "revokeRole(bytes32,address)": {
        "details": "Revokes `role` from `account`. If `account` had been granted `role`, emits a {RoleRevoked} event. Requirements: - the caller must have ``role``'s admin role. May emit a {RoleRevoked} event."
      },
      "setBondingContractAddress(address)": {
        "details": "bonding contract participants deposit  curve LP token for a certain duration to earn uGOV and more curve LP token",
        "params": {
          "_bondingContractAddress": "bonding contract address"
        }
      },
      "setTreasuryAddress(address)": {
        "details": "the treasury fund is used to maintain the protocol",
        "params": {
          "_treasuryAddress": "treasury fund address"
        }
      },
      "supportsInterface(bytes4)": {
        "details": "See {IERC165-supportsInterface}."
      }
    },
    "title": "A central config for the uAD system. Also acts as a central access control manager."
  },
  "id": 64
}