{
  "address": "0x2dA07859613C14F6f05c97eFE37B9B4F212b5eF5",
  "abi": [
    {
      "inputs": [
        {
          "internalType": "address",
          "name": "_manager",
          "type": "address"
        },
        {
          "internalType": "string",
          "name": "uri",
          "type": "string"
        }
      ],
      "stateMutability": "nonpayable",
      "type": "constructor"
    },
    {
      "anonymous": false,
      "inputs": [
        {
          "indexed": true,
          "internalType": "address",
          "name": "account",
          "type": "address"
        },
        {
          "indexed": true,
          "internalType": "address",
          "name": "operator",
          "type": "address"
        },
        {
          "indexed": false,
          "internalType": "bool",
          "name": "approved",
          "type": "bool"
        }
      ],
      "name": "ApprovalForAll",
      "type": "event"
    },
    {
      "anonymous": false,
      "inputs": [
        {
          "indexed": false,
          "internalType": "address",
          "name": "account",
          "type": "address"
        }
      ],
      "name": "Paused",
      "type": "event"
    },
    {
      "anonymous": false,
      "inputs": [
        {
          "indexed": true,
          "internalType": "address",
          "name": "operator",
          "type": "address"
        },
        {
          "indexed": true,
          "internalType": "address",
          "name": "from",
          "type": "address"
        },
        {
          "indexed": true,
          "internalType": "address",
          "name": "to",
          "type": "address"
        },
        {
          "indexed": false,
          "internalType": "uint256[]",
          "name": "ids",
          "type": "uint256[]"
        },
        {
          "indexed": false,
          "internalType": "uint256[]",
          "name": "values",
          "type": "uint256[]"
        }
      ],
      "name": "TransferBatch",
      "type": "event"
    },
    {
      "anonymous": false,
      "inputs": [
        {
          "indexed": true,
          "internalType": "address",
          "name": "operator",
          "type": "address"
        },
        {
          "indexed": true,
          "internalType": "address",
          "name": "from",
          "type": "address"
        },
        {
          "indexed": true,
          "internalType": "address",
          "name": "to",
          "type": "address"
        },
        {
          "indexed": false,
          "internalType": "uint256",
          "name": "id",
          "type": "uint256"
        },
        {
          "indexed": false,
          "internalType": "uint256",
          "name": "value",
          "type": "uint256"
        }
      ],
      "name": "TransferSingle",
      "type": "event"
    },
    {
      "anonymous": false,
      "inputs": [
        {
          "indexed": false,
          "internalType": "string",
          "name": "value",
          "type": "string"
        },
        {
          "indexed": true,
          "internalType": "uint256",
          "name": "id",
          "type": "uint256"
        }
      ],
      "name": "URI",
      "type": "event"
    },
    {
      "anonymous": false,
      "inputs": [
        {
          "indexed": false,
          "internalType": "address",
          "name": "account",
          "type": "address"
        }
      ],
      "name": "Unpaused",
      "type": "event"
    },
    {
      "inputs": [
        {
          "internalType": "address",
          "name": "account",
          "type": "address"
        },
        {
          "internalType": "uint256",
          "name": "id",
          "type": "uint256"
        }
      ],
      "name": "balanceOf",
      "outputs": [
        {
          "internalType": "uint256",
          "name": "",
          "type": "uint256"
        }
      ],
      "stateMutability": "view",
      "type": "function"
    },
    {
      "inputs": [
        {
          "internalType": "address[]",
          "name": "accounts",
          "type": "address[]"
        },
        {
          "internalType": "uint256[]",
          "name": "ids",
          "type": "uint256[]"
        }
      ],
      "name": "balanceOfBatch",
      "outputs": [
        {
          "internalType": "uint256[]",
          "name": "",
          "type": "uint256[]"
        }
      ],
      "stateMutability": "view",
      "type": "function"
    },
    {
      "inputs": [
        {
          "internalType": "address",
          "name": "account",
          "type": "address"
        },
        {
          "internalType": "uint256",
          "name": "id",
          "type": "uint256"
        },
        {
          "internalType": "uint256",
          "name": "value",
          "type": "uint256"
        }
      ],
      "name": "burn",
      "outputs": [],
      "stateMutability": "nonpayable",
      "type": "function"
    },
    {
      "inputs": [
        {
          "internalType": "address",
          "name": "account",
          "type": "address"
        },
        {
          "internalType": "uint256[]",
          "name": "ids",
          "type": "uint256[]"
        },
        {
          "internalType": "uint256[]",
          "name": "values",
          "type": "uint256[]"
        }
      ],
      "name": "burnBatch",
      "outputs": [],
      "stateMutability": "nonpayable",
      "type": "function"
    },
    {
      "inputs": [
        {
          "internalType": "uint256",
          "name": "id",
          "type": "uint256"
        }
      ],
      "name": "getBond",
      "outputs": [
        {
          "components": [
            {
              "internalType": "address",
              "name": "minter",
              "type": "address"
            },
            {
              "internalType": "uint256",
              "name": "lpFirstDeposited",
              "type": "uint256"
            },
            {
              "internalType": "uint256",
              "name": "creationBlock",
              "type": "uint256"
            },
            {
              "internalType": "uint256",
              "name": "lpRewardDebt",
              "type": "uint256"
            },
            {
              "internalType": "uint256",
              "name": "endBlock",
              "type": "uint256"
            },
            {
              "internalType": "uint256",
              "name": "lpAmount",
              "type": "uint256"
            }
          ],
          "internalType": "struct BondingShareV2.Bond",
          "name": "",
          "type": "tuple"
        }
      ],
      "stateMutability": "view",
      "type": "function"
    },
    {
      "inputs": [
        {
          "internalType": "address",
          "name": "holder",
          "type": "address"
        }
      ],
      "name": "holderTokens",
      "outputs": [
        {
          "internalType": "uint256[]",
          "name": "",
          "type": "uint256[]"
        }
      ],
      "stateMutability": "view",
      "type": "function"
    },
    {
      "inputs": [
        {
          "internalType": "address",
          "name": "account",
          "type": "address"
        },
        {
          "internalType": "address",
          "name": "operator",
          "type": "address"
        }
      ],
      "name": "isApprovedForAll",
      "outputs": [
        {
          "internalType": "bool",
          "name": "",
          "type": "bool"
        }
      ],
      "stateMutability": "view",
      "type": "function"
    },
    {
      "inputs": [],
      "name": "manager",
      "outputs": [
        {
          "internalType": "contract UbiquityAlgorithmicDollarManager",
          "name": "",
          "type": "address"
        }
      ],
      "stateMutability": "view",
      "type": "function"
    },
    {
      "inputs": [
        {
          "internalType": "address",
          "name": "to",
          "type": "address"
        },
        {
          "internalType": "uint256",
          "name": "lpDeposited",
          "type": "uint256"
        },
        {
          "internalType": "uint256",
          "name": "lpRewardDebt",
          "type": "uint256"
        },
        {
          "internalType": "uint256",
          "name": "endBlock",
          "type": "uint256"
        }
      ],
      "name": "mint",
      "outputs": [
        {
          "internalType": "uint256",
          "name": "id",
          "type": "uint256"
        }
      ],
      "stateMutability": "nonpayable",
      "type": "function"
    },
    {
      "inputs": [],
      "name": "pause",
      "outputs": [],
      "stateMutability": "nonpayable",
      "type": "function"
    },
    {
      "inputs": [],
      "name": "paused",
      "outputs": [
        {
          "internalType": "bool",
          "name": "",
          "type": "bool"
        }
      ],
      "stateMutability": "view",
      "type": "function"
    },
    {
      "inputs": [
        {
          "internalType": "address",
          "name": "from",
          "type": "address"
        },
        {
          "internalType": "address",
          "name": "to",
          "type": "address"
        },
        {
          "internalType": "uint256[]",
          "name": "ids",
          "type": "uint256[]"
        },
        {
          "internalType": "uint256[]",
          "name": "amounts",
          "type": "uint256[]"
        },
        {
          "internalType": "bytes",
          "name": "data",
          "type": "bytes"
        }
      ],
      "name": "safeBatchTransferFrom",
      "outputs": [],
      "stateMutability": "nonpayable",
      "type": "function"
    },
    {
      "inputs": [
        {
          "internalType": "address",
          "name": "from",
          "type": "address"
        },
        {
          "internalType": "address",
          "name": "to",
          "type": "address"
        },
        {
          "internalType": "uint256",
          "name": "id",
          "type": "uint256"
        },
        {
          "internalType": "uint256",
          "name": "amount",
          "type": "uint256"
        },
        {
          "internalType": "bytes",
          "name": "data",
          "type": "bytes"
        }
      ],
      "name": "safeTransferFrom",
      "outputs": [],
      "stateMutability": "nonpayable",
      "type": "function"
    },
    {
      "inputs": [
        {
          "internalType": "address",
          "name": "operator",
          "type": "address"
        },
        {
          "internalType": "bool",
          "name": "approved",
          "type": "bool"
        }
      ],
      "name": "setApprovalForAll",
      "outputs": [],
      "stateMutability": "nonpayable",
      "type": "function"
    },
    {
      "inputs": [
        {
          "internalType": "bytes4",
          "name": "interfaceId",
          "type": "bytes4"
        }
      ],
      "name": "supportsInterface",
      "outputs": [
        {
          "internalType": "bool",
          "name": "",
          "type": "bool"
        }
      ],
      "stateMutability": "view",
      "type": "function"
    },
    {
      "inputs": [],
      "name": "totalLP",
      "outputs": [
        {
          "internalType": "uint256",
          "name": "",
          "type": "uint256"
        }
      ],
      "stateMutability": "view",
      "type": "function"
    },
    {
      "inputs": [],
      "name": "totalSupply",
      "outputs": [
        {
          "internalType": "uint256",
          "name": "",
          "type": "uint256"
        }
      ],
      "stateMutability": "view",
      "type": "function"
    },
    {
      "inputs": [],
      "name": "unpause",
      "outputs": [],
      "stateMutability": "nonpayable",
      "type": "function"
    },
    {
      "inputs": [
        {
          "internalType": "uint256",
          "name": "_bondId",
          "type": "uint256"
        },
        {
          "internalType": "uint256",
          "name": "_lpAmount",
          "type": "uint256"
        },
        {
          "internalType": "uint256",
          "name": "_lpRewardDebt",
          "type": "uint256"
        },
        {
          "internalType": "uint256",
          "name": "_endBlock",
          "type": "uint256"
        }
      ],
      "name": "updateBond",
      "outputs": [],
      "stateMutability": "nonpayable",
      "type": "function"
    },
    {
      "inputs": [
        {
          "internalType": "uint256",
          "name": "",
          "type": "uint256"
        }
      ],
      "name": "uri",
      "outputs": [
        {
          "internalType": "string",
          "name": "",
          "type": "string"
        }
      ],
      "stateMutability": "view",
      "type": "function"
    }
  ],
  "transactionHash": "0x2054ac0ef0b0bb2efa766f85bc6b2e22f04ebfbf17e00efb34000d5959a5447c",
  "args": [
    "0x4DA97a8b831C345dBe6d16FF7432DF2b7b776d98",
    "{\n    \"name\": \"Bonding Share\",\n    \"description\": \"Ubiquity Bonding Share V2\",\n    \"image\": \"https://bafybeifibz4fhk4yag5reupmgh5cdbm2oladke4zfd7ldyw7avgipocpmy.ipfs.infura-ipfs.io/\"\n  }"
  ],
  "solcInputHash": "668ff4210658f4785fe4e4446814af17",
  "bytecode": "0x60806040523480156200001157600080fd5b5060405162002edb38038062002edb83398101604081905262000034916200012c565b8062000040816200006d565b5050600380546001600160a01b03909216610100026001600160a81b031990921691909117905562000278565b80516200008290600290602084019062000086565b5050565b828054620000949062000225565b90600052602060002090601f016020900481019282620000b8576000855562000103565b82601f10620000d357805160ff191683800117855562000103565b8280016001018555821562000103579182015b8281111562000103578251825591602001919060010190620000e6565b506200011192915062000115565b5090565b5b8082111562000111576000815560010162000116565b600080604083850312156200013f578182fd5b82516001600160a01b038116811462000156578283fd5b602084810151919350906001600160401b038082111562000175578384fd5b818601915086601f83011262000189578384fd5b8151818111156200019e576200019e62000262565b604051601f8201601f19908116603f01168101908382118183101715620001c957620001c962000262565b816040528281528986848701011115620001e1578687fd5b8693505b82841015620002045784840186015181850187015292850192620001e5565b828411156200021557868684830101525b8096505050505050509250929050565b600181811c908216806200023a57607f821691505b602082108114156200025c57634e487b7160e01b600052602260045260246000fd5b50919050565b634e487b7160e01b600052604160045260246000fd5b612c5380620002886000396000f3fe608060405234801561001057600080fd5b506004361061016b5760003560e01c80636b20c454116100cd578063a7573cea11610081578063e985e9c511610066578063e985e9c514610330578063f242432a1461036c578063f5298aca1461037f5761016b565b8063a7573cea146102b5578063d8fe7642146102c85761016b565b80638456cb59116100b25780638456cb5914610287578063a22cb4651461028f578063a647e8ec146102a25761016b565b80636b20c454146102615780637b48c3fd146102745761016b565b80632eb2c2d611610124578063481c6a7511610109578063481c6a75146102065780634e1273f4146102365780635c975abb146102565761016b565b80632eb2c2d6146101e95780633f4ba83a146101fe5761016b565b80630e89341c116101555780630e89341c146101b9578063132c4feb146101d957806318160ddd146101e15761016b565b8062fdd58e1461017057806301ffc9a714610196575b600080fd5b61018361017e3660046126e7565b610392565b6040519081526020015b60405180910390f35b6101a96101a4366004612879565b61043b565b604051901515815260200161018d565b6101cc6101c73660046128b1565b61048f565b60405161018d9190612a61565b610183610523565b600754610183565b6101fc6101f7366004612537565b61052a565b005b6101fc6105a6565b60035461021e9061010090046001600160a01b031681565b6040516001600160a01b03909116815260200161018d565b61024961024436600461277a565b6106fa565b60405161018d9190612a20565b60035460ff166101a9565b6101fc61026f366004612640565b610870565b6102496102823660046124e4565b6108fa565b6101fc610965565b6101fc61029d3660046126b1565b610ab7565b6101836102b0366004612742565b610baf565b6101fc6102c33660046128c9565b610e2a565b6102db6102d63660046128b1565b611038565b60405161018d9190600060c0820190506001600160a01b0383511682526020830151602083015260408301516040830152606083015160608301526080830151608083015260a083015160a083015292915050565b6101a961033e366004612505565b6001600160a01b03918216600090815260016020908152604080832093909416825291909152205460ff1690565b6101fc61037a3660046125dd565b6110d9565b6101fc61038d366004612710565b61114e565b60006001600160a01b0383166104155760405162461bcd60e51b815260206004820152602b60248201527f455243313135353a2062616c616e636520717565727920666f7220746865207a60448201527f65726f206164647265737300000000000000000000000000000000000000000060648201526084015b60405180910390fd5b506000908152602081815260408083206001600160a01b03949094168352929052205490565b60006001600160e01b03198216636cdb3d1360e11b148061046c57506001600160e01b031982166303a24d0760e21b145b8061048757506301ffc9a760e01b6001600160e01b03198316145b90505b919050565b60606002805461049e90612ac7565b80601f01602080910402602001604051908101604052809291908181526020018280546104ca90612ac7565b80156105175780601f106104ec57610100808354040283529160200191610517565b820191906000526020600020905b8154815290600101906020018083116104fa57829003601f168201915b50505050509050919050565b6006545b90565b60035460ff16156105705760405162461bcd60e51b815260206004820152601060248201526f14185d5cd8589b194e881c185d5cd95960821b604482015260640161040c565b61057d85858585856111d3565b6001600160a01b038416600090815260046020526040902061059f908461126e565b5050505050565b6003546040805163e63ab1e960e01b815290516101009092046001600160a01b0316916391d1485491839163e63ab1e991600480820192602092909190829003018186803b1580156105f757600080fd5b505afa15801561060b573d6000803e3d6000fd5b505050506040513d601f19601f8201168201806040525081019061062f9190612861565b6040516001600160e01b031960e084901b168152600481019190915233602482015260440160206040518083038186803b15801561066c57600080fd5b505afa158015610680573d6000803e3d6000fd5b505050506040513d601f19601f820116820180604052508101906106a49190612845565b6106f05760405162461bcd60e51b815260206004820152601c60248201527f476f7665726e616e636520746f6b656e3a206e6f742070617573657200000000604482015260640161040c565b6106f8611355565b565b606081518351146107735760405162461bcd60e51b815260206004820152602960248201527f455243313135353a206163636f756e747320616e6420696473206c656e67746860448201527f206d69736d617463680000000000000000000000000000000000000000000000606482015260840161040c565b6000835167ffffffffffffffff81111561079d57634e487b7160e01b600052604160045260246000fd5b6040519080825280602002602001820160405280156107c6578160200160208202803683370190505b50905060005b84518110156108685761082d8582815181106107f857634e487b7160e01b600052603260045260246000fd5b602002602001015185838151811061082057634e487b7160e01b600052603260045260246000fd5b6020026020010151610392565b82828151811061084d57634e487b7160e01b600052603260045260246000fd5b602090810291909101015261086181612b2f565b90506107cc565b509392505050565b6001600160a01b03831633148061088c575061088c833361033e565b6108ea5760405162461bcd60e51b815260206004820152602960248201527f455243313135353a2063616c6c6572206973206e6f74206f776e6572206e6f7260448201526808185c1c1c9bdd995960ba1b606482015260840161040c565b6108f58383836113f1565b505050565b6001600160a01b03811660009081526004602090815260409182902080548351818402810184019094528084526060939283018282801561051757602002820191906000526020600020905b8154815260200190600101908083116109465750505050509050919050565b6003546040805163e63ab1e960e01b815290516101009092046001600160a01b0316916391d1485491839163e63ab1e991600480820192602092909190829003018186803b1580156109b657600080fd5b505afa1580156109ca573d6000803e3d6000fd5b505050506040513d601f19601f820116820180604052508101906109ee9190612861565b6040516001600160e01b031960e084901b168152600481019190915233602482015260440160206040518083038186803b158015610a2b57600080fd5b505afa158015610a3f573d6000803e3d6000fd5b505050506040513d601f19601f82011682018060405250810190610a639190612845565b610aaf5760405162461bcd60e51b815260206004820152601c60248201527f476f7665726e616e636520746f6b656e3a206e6f742070617573657200000000604482015260640161040c565b6106f86114a3565b336001600160a01b0383161415610b365760405162461bcd60e51b815260206004820152602960248201527f455243313135353a2073657474696e6720617070726f76616c2073746174757360448201527f20666f722073656c660000000000000000000000000000000000000000000000606482015260840161040c565b3360008181526001602090815260408083206001600160a01b0387168085529252909120805460ff1916841515179055906001600160a01b03167f17307eab39ab6107e8899845ad3d59bd9653f200f220920489ca2b5937696c3183604051610ba3911515815260200190565b60405180910390a35050565b60035460408051632f533cb760e01b8152905160009261010090046001600160a01b0316916391d14854918391632f533cb7916004808301926020929190829003018186803b158015610c0157600080fd5b505afa158015610c15573d6000803e3d6000fd5b505050506040513d601f19601f82011682018060405250810190610c399190612861565b6040516001600160e01b031960e084901b168152600481019190915233602482015260440160206040518083038186803b158015610c7657600080fd5b505afa158015610c8a573d6000803e3d6000fd5b505050506040513d601f19601f82011682018060405250810190610cae9190612845565b610cfa5760405162461bcd60e51b815260206004820152601c60248201527f476f7665726e616e636520746f6b656e3a206e6f74206d696e74657200000000604482015260640161040c565b60035460ff1615610d405760405162461bcd60e51b815260206004820152601060248201526f14185d5cd8589b194e881c185d5cd95960821b604482015260640161040c565b600754610d4e906001612a98565b9050610d6c858260016040518060200160405280600081525061151e565b600160076000828254610d7f9190612a98565b90915550506001600160a01b0385166000908152600460205260409020610da6908261162e565b6000818152600560208190526040822080547fffffffffffffffffffffffff0000000000000000000000000000000000000000166001600160a01b0389161781556001810187905590810186905560038101859055436002820155600481018490556006805491928792610e1b908490612a98565b90915550919695505050505050565b60035460408051632f533cb760e01b815290516101009092046001600160a01b0316916391d14854918391632f533cb791600480820192602092909190829003018186803b158015610e7b57600080fd5b505afa158015610e8f573d6000803e3d6000fd5b505050506040513d601f19601f82011682018060405250810190610eb39190612861565b6040516001600160e01b031960e084901b168152600481019190915233602482015260440160206040518083038186803b158015610ef057600080fd5b505afa158015610f04573d6000803e3d6000fd5b505050506040513d601f19601f82011682018060405250810190610f289190612845565b610f745760405162461bcd60e51b815260206004820152601c60248201527f476f7665726e616e636520746f6b656e3a206e6f74206d696e74657200000000604482015260640161040c565b60035460ff1615610fba5760405162461bcd60e51b815260206004820152601060248201526f14185d5cd8589b194e881c185d5cd95960821b604482015260640161040c565b60008481526005602081905260409091209081015484811115610ffd57610fe18582612ab0565b60066000828254610ff29190612ab0565b9091555061101e9050565b6110078186612ab0565b600660008282546110189190612a98565b90915550505b506005810193909355600383019190915560049091015550565b61107a6040518060c0016040528060006001600160a01b0316815260200160008152602001600081526020016000815260200160008152602001600081525090565b50600090815260056020818152604092839020835160c08101855281546001600160a01b03168152600182015492810192909252600281015493820193909352600383015460608201526004830154608082015291015460a082015290565b60035460ff161561111f5760405162461bcd60e51b815260206004820152601060248201526f14185d5cd8589b194e881c185d5cd95960821b604482015260640161040c565b61112c858585858561169f565b6001600160a01b038416600090815260046020526040902061059f908461162e565b6001600160a01b03831633148061116a575061116a833361033e565b6111c85760405162461bcd60e51b815260206004820152602960248201527f455243313135353a2063616c6c6572206973206e6f74206f776e6572206e6f7260448201526808185c1c1c9bdd995960ba1b606482015260840161040c565b6108f5838383611726565b6001600160a01b0385163314806111ef57506111ef853361033e565b6112615760405162461bcd60e51b815260206004820152603260248201527f455243313135353a207472616e736665722063616c6c6572206973206e6f742060448201527f6f776e6572206e6f7220617070726f7665640000000000000000000000000000606482015260840161040c565b61059f8585858585611848565b60005b81518110156108f5576000805b84548110156112fb578383815181106112a757634e487b7160e01b600052603260045260246000fd5b60200260200101518582815481106112cf57634e487b7160e01b600052603260045260246000fd5b906000526020600020015414156112e957600191506112fb565b806112f381612b2f565b91505061127e565b5080611342578383838151811061132257634e487b7160e01b600052603260045260246000fd5b602090810291909101810151825460018101845560009384529190922001555b508061134d81612b2f565b915050611271565b60035460ff166113a75760405162461bcd60e51b815260206004820152601460248201527f5061757361626c653a206e6f7420706175736564000000000000000000000000604482015260640161040c565b6003805460ff191690557f5db9ee0a495bf2e6ff9c91a7834c1ba4fdd244a5e8aa4e537bd38aeae4b073aa335b6040516001600160a01b03909116815260200160405180910390a1565b60035460ff16156114375760405162461bcd60e51b815260206004820152601060248201526f14185d5cd8589b194e881c185d5cd95960821b604482015260640161040c565b611442838383611ad0565b60005b825181101561149d5781818151811061146e57634e487b7160e01b600052603260045260246000fd5b6020026020010151600760008282546114879190612ab0565b90915550611496905081612b2f565b9050611445565b50505050565b60035460ff16156114e95760405162461bcd60e51b815260206004820152601060248201526f14185d5cd8589b194e881c185d5cd95960821b604482015260640161040c565b6003805460ff191660011790557f62e78cea01bee320cd4e420270b5ea74000d11b0c9f74754ebdbfc544b05a2586113d43390565b6001600160a01b03841661157e5760405162461bcd60e51b815260206004820152602160248201527f455243313135353a206d696e7420746f20746865207a65726f206164647265736044820152607360f81b606482015260840161040c565b3361159e8160008761158f88611d33565b61159888611d33565b87611d8c565b6000848152602081815260408083206001600160a01b0389168452909152812080548592906115ce908490612a98565b909155505060408051858152602081018590526001600160a01b0380881692600092918516917fc3d58168c5ae7397731d063d5bbf3d657854427343f4c083240f7aacaa2d0f62910160405180910390a461059f81600087878787611d9a565b60005b8254811015611684578183828154811061165b57634e487b7160e01b600052603260045260246000fd5b90600052602060002001541415611672575061169b565b8061167c81612b2f565b915050611631565b508154600181018355600083815260209020018190555b5050565b6001600160a01b0385163314806116bb57506116bb853361033e565b6117195760405162461bcd60e51b815260206004820152602960248201527f455243313135353a2063616c6c6572206973206e6f74206f776e6572206e6f7260448201526808185c1c1c9bdd995960ba1b606482015260840161040c565b61059f8585858585611f58565b60035460ff161561176c5760405162461bcd60e51b815260206004820152601060248201526f14185d5cd8589b194e881c185d5cd95960821b604482015260640161040c565b806001146117bc5760405162461bcd60e51b815260206004820152600b60248201527f616d6f756e74203c3e2031000000000000000000000000000000000000000000604482015260640161040c565b6117c8838360016120ed565b6000828152600560208190526040909120908101541561182a5760405162461bcd60e51b815260206004820152600760248201527f4c50203c3e203000000000000000000000000000000000000000000000000000604482015260640161040c565b60016007600082825461183d9190612ab0565b909155505050505050565b81518351146118aa5760405162461bcd60e51b815260206004820152602860248201527f455243313135353a2069647320616e6420616d6f756e7473206c656e677468206044820152670dad2e6dac2e8c6d60c31b606482015260840161040c565b6001600160a01b03841661190e5760405162461bcd60e51b815260206004820152602560248201527f455243313135353a207472616e7366657220746f20746865207a65726f206164604482015264647265737360d81b606482015260840161040c565b3361191d818787878787611d8c565b60005b8451811015611a6257600085828151811061194b57634e487b7160e01b600052603260045260246000fd5b60200260200101519050600085838151811061197757634e487b7160e01b600052603260045260246000fd5b602090810291909101810151600084815280835260408082206001600160a01b038e168352909352919091205490915081811015611a0a5760405162461bcd60e51b815260206004820152602a60248201527f455243313135353a20696e73756666696369656e742062616c616e636520666f60448201526939103a3930b739b332b960b11b606482015260840161040c565b6000838152602081815260408083206001600160a01b038e8116855292528083208585039055908b16825281208054849290611a47908490612a98565b9250508190555050505080611a5b90612b2f565b9050611920565b50846001600160a01b0316866001600160a01b0316826001600160a01b03167f4a39dc06d4c0dbc64b70af90fd698a233a518aa5d07e595d983b8c0526c8f7fb8787604051611ab2929190612a33565b60405180910390a4611ac8818787878787612266565b505050505050565b6001600160a01b038316611b325760405162461bcd60e51b815260206004820152602360248201527f455243313135353a206275726e2066726f6d20746865207a65726f206164647260448201526265737360e81b606482015260840161040c565b8051825114611b945760405162461bcd60e51b815260206004820152602860248201527f455243313135353a2069647320616e6420616d6f756e7473206c656e677468206044820152670dad2e6dac2e8c6d60c31b606482015260840161040c565b6000339050611bb781856000868660405180602001604052806000815250611d8c565b60005b8351811015611cd4576000848281518110611be557634e487b7160e01b600052603260045260246000fd5b602002602001015190506000848381518110611c1157634e487b7160e01b600052603260045260246000fd5b602090810291909101810151600084815280835260408082206001600160a01b038c168352909352919091205490915081811015611c9d5760405162461bcd60e51b8152602060048201526024808201527f455243313135353a206275726e20616d6f756e7420657863656564732062616c604482015263616e636560e01b606482015260840161040c565b6000928352602083815260408085206001600160a01b038b1686529091529092209103905580611ccc81612b2f565b915050611bba565b5060006001600160a01b0316846001600160a01b0316826001600160a01b03167f4a39dc06d4c0dbc64b70af90fd698a233a518aa5d07e595d983b8c0526c8f7fb8686604051611d25929190612a33565b60405180910390a450505050565b60408051600180825281830190925260609160009190602080830190803683370190505090508281600081518110611d7b57634e487b7160e01b600052603260045260246000fd5b602090810291909101015292915050565b611ac8868686868686612371565b6001600160a01b0384163b15611ac85760405163f23a6e6160e01b81526001600160a01b0385169063f23a6e6190611dde90899089908890889088906004016129dd565b602060405180830381600087803b158015611df857600080fd5b505af1925050508015611e28575060408051601f3d908101601f19168201909252611e2591810190612895565b60015b611ede57611e34612b76565b806308c379a01415611e6e5750611e49612b8d565b80611e545750611e70565b8060405162461bcd60e51b815260040161040c9190612a61565b505b60405162461bcd60e51b815260206004820152603460248201527f455243313135353a207472616e7366657220746f206e6f6e204552433131353560448201527f526563656976657220696d706c656d656e746572000000000000000000000000606482015260840161040c565b6001600160e01b0319811663f23a6e6160e01b14611f4f5760405162461bcd60e51b815260206004820152602860248201527f455243313135353a204552433131353552656365697665722072656a656374656044820152676420746f6b656e7360c01b606482015260840161040c565b50505050505050565b6001600160a01b038416611fbc5760405162461bcd60e51b815260206004820152602560248201527f455243313135353a207472616e7366657220746f20746865207a65726f206164604482015264647265737360d81b606482015260840161040c565b33611fcc81878761158f88611d33565b6000848152602081815260408083206001600160a01b038a168452909152902054838110156120505760405162461bcd60e51b815260206004820152602a60248201527f455243313135353a20696e73756666696369656e742062616c616e636520666f60448201526939103a3930b739b332b960b11b606482015260840161040c565b6000858152602081815260408083206001600160a01b038b811685529252808320878503905590881682528120805486929061208d908490612a98565b909155505060408051868152602081018690526001600160a01b03808916928a821692918616917fc3d58168c5ae7397731d063d5bbf3d657854427343f4c083240f7aacaa2d0f62910160405180910390a4611f4f828888888888611d9a565b6001600160a01b03831661214f5760405162461bcd60e51b815260206004820152602360248201527f455243313135353a206275726e2066726f6d20746865207a65726f206164647260448201526265737360e81b606482015260840161040c565b3361217e8185600061216087611d33565b61216987611d33565b60405180602001604052806000815250611d8c565b6000838152602081815260408083206001600160a01b0388168452909152902054828110156121fb5760405162461bcd60e51b8152602060048201526024808201527f455243313135353a206275726e20616d6f756e7420657863656564732062616c604482015263616e636560e01b606482015260840161040c565b6000848152602081815260408083206001600160a01b03898116808652918452828520888703905582518981529384018890529092908616917fc3d58168c5ae7397731d063d5bbf3d657854427343f4c083240f7aacaa2d0f62910160405180910390a45050505050565b6001600160a01b0384163b15611ac85760405163bc197c8160e01b81526001600160a01b0385169063bc197c81906122aa908990899088908890889060040161297f565b602060405180830381600087803b1580156122c457600080fd5b505af19250505080156122f4575060408051601f3d908101601f191682019092526122f191810190612895565b60015b61230057611e34612b76565b6001600160e01b0319811663bc197c8160e01b14611f4f5760405162461bcd60e51b815260206004820152602860248201527f455243313135353a204552433131353552656365697665722072656a656374656044820152676420746f6b656e7360c01b606482015260840161040c565b60035460ff1615611ac85760405162461bcd60e51b815260206004820152602c60248201527f455243313135355061757361626c653a20746f6b656e207472616e736665722060448201527f7768696c65207061757365640000000000000000000000000000000000000000606482015260840161040c565b80356001600160a01b038116811461048a57600080fd5b600082601f830112612411578081fd5b8135602061241e82612a74565b60405161242b8282612b02565b8381528281019150858301600585901b8701840188101561244a578586fd5b855b858110156124685781358452928401929084019060010161244c565b5090979650505050505050565b600082601f830112612485578081fd5b813567ffffffffffffffff81111561249f5761249f612b60565b6040516124b6601f8301601f191660200182612b02565b8181528460208386010111156124ca578283fd5b816020850160208301379081016020019190915292915050565b6000602082840312156124f5578081fd5b6124fe826123ea565b9392505050565b60008060408385031215612517578081fd5b612520836123ea565b915061252e602084016123ea565b90509250929050565b600080600080600060a0868803121561254e578081fd5b612557866123ea565b9450612565602087016123ea565b9350604086013567ffffffffffffffff80821115612581578283fd5b61258d89838a01612401565b945060608801359150808211156125a2578283fd5b6125ae89838a01612401565b935060808801359150808211156125c3578283fd5b506125d088828901612475565b9150509295509295909350565b600080600080600060a086880312156125f4578081fd5b6125fd866123ea565b945061260b602087016123ea565b93506040860135925060608601359150608086013567ffffffffffffffff811115612634578182fd5b6125d088828901612475565b600080600060608486031215612654578283fd5b61265d846123ea565b9250602084013567ffffffffffffffff80821115612679578384fd5b61268587838801612401565b9350604086013591508082111561269a578283fd5b506126a786828701612401565b9150509250925092565b600080604083850312156126c3578182fd5b6126cc836123ea565b915060208301356126dc81612c1f565b809150509250929050565b600080604083850312156126f9578182fd5b612702836123ea565b946020939093013593505050565b600080600060608486031215612724578283fd5b61272d846123ea565b95602085013595506040909401359392505050565b60008060008060808587031215612757578182fd5b612760856123ea565b966020860135965060408601359560600135945092505050565b6000806040838503121561278c578182fd5b823567ffffffffffffffff808211156127a3578384fd5b818501915085601f8301126127b6578384fd5b813560206127c382612a74565b6040516127d08282612b02565b8381528281019150858301600585901b870184018b10156127ef578889fd5b8896505b8487101561281857612804816123ea565b8352600196909601959183019183016127f3565b509650508601359250508082111561282e578283fd5b5061283b85828601612401565b9150509250929050565b600060208284031215612856578081fd5b81516124fe81612c1f565b600060208284031215612872578081fd5b5051919050565b60006020828403121561288a578081fd5b81356124fe81612c30565b6000602082840312156128a6578081fd5b81516124fe81612c30565b6000602082840312156128c2578081fd5b5035919050565b600080600080608085870312156128de578182fd5b5050823594602084013594506040840135936060013592509050565b6000815180845260208085019450808401835b838110156129295781518752958201959082019060010161290d565b509495945050505050565b60008151808452815b818110156129595760208185018101518683018201520161293d565b8181111561296a5782602083870101525b50601f01601f19169290920160200192915050565b60006001600160a01b03808816835280871660208401525060a060408301526129ab60a08301866128fa565b82810360608401526129bd81866128fa565b905082810360808401526129d18185612934565b98975050505050505050565b60006001600160a01b03808816835280871660208401525084604083015283606083015260a06080830152612a1560a0830184612934565b979650505050505050565b6000602082526124fe60208301846128fa565b600060408252612a4660408301856128fa565b8281036020840152612a5881856128fa565b95945050505050565b6000602082526124fe6020830184612934565b600067ffffffffffffffff821115612a8e57612a8e612b60565b5060051b60200190565b60008219821115612aab57612aab612b4a565b500190565b600082821015612ac257612ac2612b4a565b500390565b600181811c90821680612adb57607f821691505b60208210811415612afc57634e487b7160e01b600052602260045260246000fd5b50919050565b601f8201601f1916810167ffffffffffffffff81118282101715612b2857612b28612b60565b6040525050565b6000600019821415612b4357612b43612b4a565b5060010190565b634e487b7160e01b600052601160045260246000fd5b634e487b7160e01b600052604160045260246000fd5b600060033d111561052757600481823e5160e01c90565b600060443d1015612b9d57610527565b6040516003193d81016004833e81513d67ffffffffffffffff8160248401118184111715612bcf575050505050610527565b8285019150815181811115612be957505050505050610527565b843d8701016020828501011115612c0557505050505050610527565b612c1460208286010187612b02565b509094505050505090565b8015158114612c2d57600080fd5b50565b6001600160e01b031981168114612c2d57600080fdfea164736f6c6343000803000a",
  "devdoc": {
    "kind": "dev",
    "methods": {
      "balanceOf(address,uint256)": {
        "details": "See {IERC1155-balanceOf}. Requirements: - `account` cannot be the zero address."
      },
      "balanceOfBatch(address[],uint256[])": {
        "details": "See {IERC1155-balanceOfBatch}. Requirements: - `accounts` and `ids` must have the same length."
      },
      "constructor": {
        "details": "constructor"
      },
      "getBond(uint256)": {
        "details": "return bond details."
      },
      "holderTokens(address)": {
        "details": "array of token Id held by the msg.sender."
      },
      "isApprovedForAll(address,address)": {
        "details": "See {IERC1155-isApprovedForAll}."
      },
      "mint(address,uint256,uint256,uint256)": {
        "params": {
          "endBlock": "block number when the locking period ends",
          "lpDeposited": "amount of LP token deposited",
          "lpRewardDebt": "amount of excess LP token inside the bonding contract",
          "to": "owner address"
        }
      },
      "pause()": {
        "details": "Pauses all token transfers. See {ERC1155Pausable} and {Pausable-_pause}."
      },
      "paused()": {
        "details": "Returns true if the contract is paused, and false otherwise."
      },
      "safeBatchTransferFrom(address,address,uint256[],uint256[],bytes)": {
        "details": "See {IERC1155-safeBatchTransferFrom}."
      },
      "safeTransferFrom(address,address,uint256,uint256,bytes)": {
        "details": "See {IERC1155-safeTransferFrom}."
      },
      "setApprovalForAll(address,bool)": {
        "details": "See {IERC1155-setApprovalForAll}."
      },
      "supportsInterface(bytes4)": {
        "details": "See {IERC165-supportsInterface}."
      },
      "totalLP()": {
        "details": "Total amount of LP tokens deposited."
      },
      "totalSupply()": {
        "details": "Total amount of tokens  ."
      },
      "unpause()": {
        "details": "Unpauses all token transfers. See {ERC1155Pausable} and {Pausable-_unpause}."
      },
      "updateBond(uint256,uint256,uint256,uint256)": {
        "details": "update bond LP amount , LP rewards debt and end block.",
        "params": {
          "_bondId": "bonding share id",
          "_endBlock": "end locking period block number",
          "_lpAmount": "amount of LP token deposited",
          "_lpRewardDebt": "amount of excess LP token inside the bonding contract"
        }
      },
      "uri(uint256)": {
        "details": "See {IERC1155MetadataURI-uri}. This implementation returns the same URI for *all* token types. It relies on the token type ID substitution mechanism https://eips.ethereum.org/EIPS/eip-1155#metadata[defined in the EIP]. Clients calling this function must replace the `\\{id\\}` substring with the actual token type ID."
      }
    },
    "version": 1
  },
  "userdoc": {
    "kind": "user",
    "methods": {},
    "version": 1
  },
  "storageLayout": {
    "storage": [
      {
        "astId": 589,
        "contract": "contracts/BondingShareV2.sol:BondingShareV2",
        "label": "_balances",
        "offset": 0,
        "slot": "0",
        "type": "t_mapping(t_uint256,t_mapping(t_address,t_uint256))"
      },
      {
        "astId": 595,
        "contract": "contracts/BondingShareV2.sol:BondingShareV2",
        "label": "_operatorApprovals",
        "offset": 0,
        "slot": "1",
        "type": "t_mapping(t_address,t_mapping(t_address,t_bool))"
      },
      {
        "astId": 597,
        "contract": "contracts/BondingShareV2.sol:BondingShareV2",
        "label": "_uri",
        "offset": 0,
        "slot": "2",
        "type": "t_string_storage"
      },
      {
        "astId": 489,
        "contract": "contracts/BondingShareV2.sol:BondingShareV2",
        "label": "_paused",
        "offset": 0,
        "slot": "3",
        "type": "t_bool"
      },
      {
        "astId": 5635,
        "contract": "contracts/BondingShareV2.sol:BondingShareV2",
        "label": "manager",
        "offset": 1,
        "slot": "3",
        "type": "t_contract(UbiquityAlgorithmicDollarManager)14392"
      },
      {
        "astId": 5640,
        "contract": "contracts/BondingShareV2.sol:BondingShareV2",
        "label": "_holderBalances",
        "offset": 0,
        "slot": "4",
        "type": "t_mapping(t_address,t_array(t_uint256)dyn_storage)"
      },
      {
        "astId": 5645,
        "contract": "contracts/BondingShareV2.sol:BondingShareV2",
        "label": "_bonds",
        "offset": 0,
        "slot": "5",
        "type": "t_mapping(t_uint256,t_struct(Bond)5632_storage)"
      },
      {
        "astId": 5647,
        "contract": "contracts/BondingShareV2.sol:BondingShareV2",
        "label": "_totalLP",
        "offset": 0,
        "slot": "6",
        "type": "t_uint256"
      },
      {
        "astId": 5649,
        "contract": "contracts/BondingShareV2.sol:BondingShareV2",
        "label": "_totalSupply",
        "offset": 0,
        "slot": "7",
        "type": "t_uint256"
      }
    ],
    "types": {
      "t_address": {
        "encoding": "inplace",
        "label": "address",
        "numberOfBytes": "20"
      },
      "t_array(t_uint256)dyn_storage": {
        "base": "t_uint256",
        "encoding": "dynamic_array",
        "label": "uint256[]",
        "numberOfBytes": "32"
      },
      "t_bool": {
        "encoding": "inplace",
        "label": "bool",
        "numberOfBytes": "1"
      },
      "t_contract(UbiquityAlgorithmicDollarManager)14392": {
        "encoding": "inplace",
        "label": "contract UbiquityAlgorithmicDollarManager",
        "numberOfBytes": "20"
      },
      "t_mapping(t_address,t_array(t_uint256)dyn_storage)": {
        "encoding": "mapping",
        "key": "t_address",
        "label": "mapping(address => uint256[])",
        "numberOfBytes": "32",
        "value": "t_array(t_uint256)dyn_storage"
      },
      "t_mapping(t_address,t_bool)": {
        "encoding": "mapping",
        "key": "t_address",
        "label": "mapping(address => bool)",
        "numberOfBytes": "32",
        "value": "t_bool"
      },
      "t_mapping(t_address,t_mapping(t_address,t_bool))": {
        "encoding": "mapping",
        "key": "t_address",
        "label": "mapping(address => mapping(address => bool))",
        "numberOfBytes": "32",
        "value": "t_mapping(t_address,t_bool)"
      },
      "t_mapping(t_address,t_uint256)": {
        "encoding": "mapping",
        "key": "t_address",
        "label": "mapping(address => uint256)",
        "numberOfBytes": "32",
        "value": "t_uint256"
      },
      "t_mapping(t_uint256,t_mapping(t_address,t_uint256))": {
        "encoding": "mapping",
        "key": "t_uint256",
        "label": "mapping(uint256 => mapping(address => uint256))",
        "numberOfBytes": "32",
        "value": "t_mapping(t_address,t_uint256)"
      },
      "t_mapping(t_uint256,t_struct(Bond)5632_storage)": {
        "encoding": "mapping",
        "key": "t_uint256",
        "label": "mapping(uint256 => struct BondingShareV2.Bond)",
        "numberOfBytes": "32",
        "value": "t_struct(Bond)5632_storage"
      },
      "t_string_storage": {
        "encoding": "bytes",
        "label": "string",
        "numberOfBytes": "32"
      },
      "t_struct(Bond)5632_storage": {
        "encoding": "inplace",
        "label": "struct BondingShareV2.Bond",
        "members": [
          {
            "astId": 5621,
            "contract": "contracts/BondingShareV2.sol:BondingShareV2",
            "label": "minter",
            "offset": 0,
            "slot": "0",
            "type": "t_address"
          },
          {
            "astId": 5623,
            "contract": "contracts/BondingShareV2.sol:BondingShareV2",
            "label": "lpFirstDeposited",
            "offset": 0,
            "slot": "1",
            "type": "t_uint256"
          },
          {
            "astId": 5625,
            "contract": "contracts/BondingShareV2.sol:BondingShareV2",
            "label": "creationBlock",
            "offset": 0,
            "slot": "2",
            "type": "t_uint256"
          },
          {
            "astId": 5627,
            "contract": "contracts/BondingShareV2.sol:BondingShareV2",
            "label": "lpRewardDebt",
            "offset": 0,
            "slot": "3",
            "type": "t_uint256"
          },
          {
            "astId": 5629,
            "contract": "contracts/BondingShareV2.sol:BondingShareV2",
            "label": "endBlock",
            "offset": 0,
            "slot": "4",
            "type": "t_uint256"
          },
          {
            "astId": 5631,
            "contract": "contracts/BondingShareV2.sol:BondingShareV2",
            "label": "lpAmount",
            "offset": 0,
            "slot": "5",
            "type": "t_uint256"
          }
        ],
        "numberOfBytes": "192"
      },
      "t_uint256": {
        "encoding": "inplace",
        "label": "uint256",
        "numberOfBytes": "32"
      }
    }
  }
}