{
  "address": "0x5894cFEbFdEdBe61d01F20140f41c5c49AedAe97",
  "abi": [
    {
      "inputs": [
        {
          "internalType": "address",
          "name": "_manager",
          "type": "address"
        }
      ],
      "stateMutability": "nonpayable",
      "type": "constructor"
    },
    {
      "anonymous": false,
      "inputs": [
        {
          "indexed": true,
          "internalType": "address",
          "name": "owner",
          "type": "address"
        },
        {
          "indexed": true,
          "internalType": "address",
          "name": "spender",
          "type": "address"
        },
        {
          "indexed": false,
          "internalType": "uint256",
          "name": "value",
          "type": "uint256"
        }
      ],
      "name": "Approval",
      "type": "event"
    },
    {
      "anonymous": false,
      "inputs": [
        {
          "indexed": true,
          "internalType": "address",
          "name": "_burned",
          "type": "address"
        },
        {
          "indexed": false,
          "internalType": "uint256",
          "name": "_amount",
          "type": "uint256"
        }
      ],
      "name": "Burning",
      "type": "event"
    },
    {
      "anonymous": false,
      "inputs": [
        {
          "indexed": true,
          "internalType": "address",
          "name": "_to",
          "type": "address"
        },
        {
          "indexed": true,
          "internalType": "address",
          "name": "_minter",
          "type": "address"
        },
        {
          "indexed": false,
          "internalType": "uint256",
          "name": "_amount",
          "type": "uint256"
        }
      ],
      "name": "Minting",
      "type": "event"
    },
    {
      "anonymous": false,
      "inputs": [
        {
          "indexed": false,
          "internalType": "address",
          "name": "account",
          "type": "address"
        }
      ],
      "name": "Paused",
      "type": "event"
    },
    {
      "anonymous": false,
      "inputs": [
        {
          "indexed": true,
          "internalType": "address",
          "name": "from",
          "type": "address"
        },
        {
          "indexed": true,
          "internalType": "address",
          "name": "to",
          "type": "address"
        },
        {
          "indexed": false,
          "internalType": "uint256",
          "name": "value",
          "type": "uint256"
        }
      ],
      "name": "Transfer",
      "type": "event"
    },
    {
      "anonymous": false,
      "inputs": [
        {
          "indexed": false,
          "internalType": "address",
          "name": "account",
          "type": "address"
        }
      ],
      "name": "Unpaused",
      "type": "event"
    },
    {
      "inputs": [],
      "name": "DOMAIN_SEPARATOR",
      "outputs": [
        {
          "internalType": "bytes32",
          "name": "",
          "type": "bytes32"
        }
      ],
      "stateMutability": "view",
      "type": "function"
    },
    {
      "inputs": [],
      "name": "PERMIT_TYPEHASH",
      "outputs": [
        {
          "internalType": "bytes32",
          "name": "",
          "type": "bytes32"
        }
      ],
      "stateMutability": "view",
      "type": "function"
    },
    {
      "inputs": [
        {
          "internalType": "address",
          "name": "owner",
          "type": "address"
        },
        {
          "internalType": "address",
          "name": "spender",
          "type": "address"
        }
      ],
      "name": "allowance",
      "outputs": [
        {
          "internalType": "uint256",
          "name": "",
          "type": "uint256"
        }
      ],
      "stateMutability": "view",
      "type": "function"
    },
    {
      "inputs": [
        {
          "internalType": "address",
          "name": "spender",
          "type": "address"
        },
        {
          "internalType": "uint256",
          "name": "amount",
          "type": "uint256"
        }
      ],
      "name": "approve",
      "outputs": [
        {
          "internalType": "bool",
          "name": "",
          "type": "bool"
        }
      ],
      "stateMutability": "nonpayable",
      "type": "function"
    },
    {
      "inputs": [
        {
          "internalType": "address",
          "name": "account",
          "type": "address"
        }
      ],
      "name": "balanceOf",
      "outputs": [
        {
          "internalType": "uint256",
          "name": "",
          "type": "uint256"
        }
      ],
      "stateMutability": "view",
      "type": "function"
    },
    {
      "inputs": [
        {
          "internalType": "uint256",
          "name": "amount",
          "type": "uint256"
        }
      ],
      "name": "burn",
      "outputs": [],
      "stateMutability": "nonpayable",
      "type": "function"
    },
    {
      "inputs": [
        {
          "internalType": "address",
          "name": "account",
          "type": "address"
        },
        {
          "internalType": "uint256",
          "name": "amount",
          "type": "uint256"
        }
      ],
      "name": "burnFrom",
      "outputs": [],
      "stateMutability": "nonpayable",
      "type": "function"
    },
    {
      "inputs": [],
      "name": "decimals",
      "outputs": [
        {
          "internalType": "uint8",
          "name": "",
          "type": "uint8"
        }
      ],
      "stateMutability": "view",
      "type": "function"
    },
    {
      "inputs": [
        {
          "internalType": "address",
          "name": "spender",
          "type": "address"
        },
        {
          "internalType": "uint256",
          "name": "subtractedValue",
          "type": "uint256"
        }
      ],
      "name": "decreaseAllowance",
      "outputs": [
        {
          "internalType": "bool",
          "name": "",
          "type": "bool"
        }
      ],
      "stateMutability": "nonpayable",
      "type": "function"
    },
    {
      "inputs": [
        {
          "internalType": "address",
          "name": "spender",
          "type": "address"
        },
        {
          "internalType": "uint256",
          "name": "addedValue",
          "type": "uint256"
        }
      ],
      "name": "increaseAllowance",
      "outputs": [
        {
          "internalType": "bool",
          "name": "",
          "type": "bool"
        }
      ],
      "stateMutability": "nonpayable",
      "type": "function"
    },
    {
      "inputs": [],
      "name": "manager",
      "outputs": [
        {
          "internalType": "contract UbiquityAlgorithmicDollarManager",
          "name": "",
          "type": "address"
        }
      ],
      "stateMutability": "view",
      "type": "function"
    },
    {
      "inputs": [
        {
          "internalType": "address",
          "name": "to",
          "type": "address"
        },
        {
          "internalType": "uint256",
          "name": "amount",
          "type": "uint256"
        }
      ],
      "name": "mint",
      "outputs": [],
      "stateMutability": "nonpayable",
      "type": "function"
    },
    {
      "inputs": [],
      "name": "name",
      "outputs": [
        {
          "internalType": "string",
          "name": "",
          "type": "string"
        }
      ],
      "stateMutability": "view",
      "type": "function"
    },
    {
      "inputs": [
        {
          "internalType": "address",
          "name": "",
          "type": "address"
        }
      ],
      "name": "nonces",
      "outputs": [
        {
          "internalType": "uint256",
          "name": "",
          "type": "uint256"
        }
      ],
      "stateMutability": "view",
      "type": "function"
    },
    {
      "inputs": [],
      "name": "pause",
      "outputs": [],
      "stateMutability": "nonpayable",
      "type": "function"
    },
    {
      "inputs": [],
      "name": "paused",
      "outputs": [
        {
          "internalType": "bool",
          "name": "",
          "type": "bool"
        }
      ],
      "stateMutability": "view",
      "type": "function"
    },
    {
      "inputs": [
        {
          "internalType": "address",
          "name": "owner",
          "type": "address"
        },
        {
          "internalType": "address",
          "name": "spender",
          "type": "address"
        },
        {
          "internalType": "uint256",
          "name": "value",
          "type": "uint256"
        },
        {
          "internalType": "uint256",
          "name": "deadline",
          "type": "uint256"
        },
        {
          "internalType": "uint8",
          "name": "v",
          "type": "uint8"
        },
        {
          "internalType": "bytes32",
          "name": "r",
          "type": "bytes32"
        },
        {
          "internalType": "bytes32",
          "name": "s",
          "type": "bytes32"
        }
      ],
      "name": "permit",
      "outputs": [],
      "stateMutability": "nonpayable",
      "type": "function"
    },
    {
      "inputs": [
        {
          "internalType": "uint256",
          "name": "amount",
          "type": "uint256"
        }
      ],
      "name": "raiseCapital",
      "outputs": [],
      "stateMutability": "nonpayable",
      "type": "function"
    },
    {
      "inputs": [
        {
          "internalType": "string",
          "name": "newName",
          "type": "string"
        }
      ],
      "name": "setName",
      "outputs": [],
      "stateMutability": "nonpayable",
      "type": "function"
    },
    {
      "inputs": [
        {
          "internalType": "string",
          "name": "newSymbol",
          "type": "string"
        }
      ],
      "name": "setSymbol",
      "outputs": [],
      "stateMutability": "nonpayable",
      "type": "function"
    },
    {
      "inputs": [],
      "name": "symbol",
      "outputs": [
        {
          "internalType": "string",
          "name": "",
          "type": "string"
        }
      ],
      "stateMutability": "view",
      "type": "function"
    },
    {
      "inputs": [],
      "name": "totalSupply",
      "outputs": [
        {
          "internalType": "uint256",
          "name": "",
          "type": "uint256"
        }
      ],
      "stateMutability": "view",
      "type": "function"
    },
    {
      "inputs": [
        {
          "internalType": "address",
          "name": "recipient",
          "type": "address"
        },
        {
          "internalType": "uint256",
          "name": "amount",
          "type": "uint256"
        }
      ],
      "name": "transfer",
      "outputs": [
        {
          "internalType": "bool",
          "name": "",
          "type": "bool"
        }
      ],
      "stateMutability": "nonpayable",
      "type": "function"
    },
    {
      "inputs": [
        {
          "internalType": "address",
          "name": "sender",
          "type": "address"
        },
        {
          "internalType": "address",
          "name": "recipient",
          "type": "address"
        },
        {
          "internalType": "uint256",
          "name": "amount",
          "type": "uint256"
        }
      ],
      "name": "transferFrom",
      "outputs": [
        {
          "internalType": "bool",
          "name": "",
          "type": "bool"
        }
      ],
      "stateMutability": "nonpayable",
      "type": "function"
    },
    {
      "inputs": [],
      "name": "unpause",
      "outputs": [],
      "stateMutability": "nonpayable",
      "type": "function"
    }
  ],
  "transactionHash": "0xf4ed6ed8c96a542735a4d0d94bca2b8f3fed8d978095f713005f7a12d8f46bf1",
  "args": [
    "0x4DA97a8b831C345dBe6d16FF7432DF2b7b776d98"
  ],
  "solcInputHash": "718dfe5f2e9bb98c22443f71ab0527e0",
  "bytecode": "0x60806040523480156200001157600080fd5b506040516200237938038062002379833981016040819052620000349162000467565b806040518060400160405280601481526020017f5562697175697479204175746f2052656465656d000000000000000000000000815250604051806040016040528060038152602001623aa0a960e91b81525081818160039080519060200190620000a1929190620003c1565b508051620000b7906004906020840190620003c1565b50506005805460ff19169055508151620000d9906008906020850190620003c1565b508051620000ef906009906020840190620003c1565b5060058054610100600160a81b0319166101006001600160a01b03868116820292909217928390556040805163a217fddf60e01b8152905191909304909116916391d1485491839163a217fddf916004808301926020929190829003018186803b1580156200015d57600080fd5b505afa15801562000172573d6000803e3d6000fd5b505050506040513d601f19601f82011682018060405250810190620001989190620004b9565b6040516001600160e01b031960e084901b168152600481019190915233602482015260440160206040518083038186803b158015620001d657600080fd5b505afa158015620001eb573d6000803e3d6000fd5b505050506040513d601f19601f8201168201806040525081019062000211919062000497565b620002705760405162461bcd60e51b815260206004820152602560248201527f45524332303a206465706c6f796572206d757374206265206d616e616765722060448201526430b236b4b760d91b606482015260840160405180910390fd5b467f8b73c3c69bb8fe3d512ecc4cf759cc79239f7b179b0ffacaa9a75d522b39400f6200029c62000327565b805160209182012060408051808201825260018152603160f81b90840152805192830193909352918101919091527fc89efdaa54c0f20c7adf612882df0950f5a951637e0307cdcb4c672f298b8bc66060820152608081018290523060a082015260c0016040516020818303038152906040528051906020012060068190555050505050506200050f565b6060600880546200033890620004d2565b80601f01602080910402602001604051908101604052809291908181526020018280546200036690620004d2565b8015620003b75780601f106200038b57610100808354040283529160200191620003b7565b820191906000526020600020905b8154815290600101906020018083116200039957829003601f168201915b5050505050905090565b828054620003cf90620004d2565b90600052602060002090601f016020900481019282620003f357600085556200043e565b82601f106200040e57805160ff19168380011785556200043e565b828001600101855582156200043e579182015b828111156200043e57825182559160200191906001019062000421565b506200044c92915062000450565b5090565b5b808211156200044c576000815560010162000451565b60006020828403121562000479578081fd5b81516001600160a01b038116811462000490578182fd5b9392505050565b600060208284031215620004a9578081fd5b8151801515811462000490578182fd5b600060208284031215620004cb578081fd5b5051919050565b600181811c90821680620004e757607f821691505b602082108114156200050957634e487b7160e01b600052602260045260246000fd5b50919050565b611e5a806200051f6000396000f3fe608060405234801561001057600080fd5b50600436106101a35760003560e01c80635c975abb116100ee578063a457c2d711610097578063c47f002711610071578063c47f002714610370578063c621bf8a14610383578063d505accf14610396578063dd62ed3e146103a9576101a3565b8063a457c2d714610337578063a9059cbb1461034a578063b84c82461461035d576101a3565b80637ecebe00116100c85780637ecebe00146103075780638456cb591461032757806395d89b411461032f576101a3565b80635c975abb146102c057806370a08231146102cb57806379cc6790146102f4576101a3565b80633644e5151161015057806340c10f191161012a57806340c10f191461026a57806342966c681461027d578063481c6a7514610290576101a3565b80633644e51514610244578063395093511461024d5780633f4ba83a14610260576101a3565b806323b872dd1161018157806323b872dd146101fb57806330adf81f1461020e578063313ce56714610235576101a3565b806306fdde03146101a8578063095ea7b3146101c657806318160ddd146101e9575b600080fd5b6101b06103e2565b6040516101bd9190611d34565b60405180910390f35b6101d96101d4366004611c0f565b610474565b60405190151581526020016101bd565b6002545b6040519081526020016101bd565b6101d9610209366004611b5a565b61048a565b6101ed7f6e71edae12b1b97f4d1f60370fef10105fa2faae0126114a169c64845d6126c981565b604051601281526020016101bd565b6101ed60065481565b6101d961025b366004611c0f565b610555565b61026861058c565b005b610268610278366004611c0f565b6106e0565b61026861028b366004611d1c565b6108bf565b6005546102a89061010090046001600160a01b031681565b6040516001600160a01b0390911681526020016101bd565b60055460ff166101d9565b6101ed6102d9366004611ae3565b6001600160a01b031660009081526020819052604090205490565b610268610302366004611c0f565b610946565b6101ed610315366004611ae3565b60076020526000908152604090205481565b610268610b27565b6101b0610c79565b6101d9610345366004611c0f565b610c88565b6101d9610358366004611c0f565b610d3b565b61026861036b366004611c72565b610d48565b61026861037e366004611c72565b610eb7565b610268610391366004611d1c565b611022565b6102686103a4366004611b9a565b6110b6565b6101ed6103b7366004611b22565b6001600160a01b03918216600090815260016020908152604080832093909416825291909152205490565b6060600880546103f190611db6565b80601f016020809104026020016040519081016040528092919081815260200182805461041d90611db6565b801561046a5780601f1061043f5761010080835404028352916020019161046a565b820191906000526020600020905b81548152906001019060200180831161044d57829003601f168201915b5050505050905090565b60006104813384846112d5565b50600192915050565b60006104978484846113fa565b6001600160a01b0384166000908152600160209081526040808320338452909152902054828110156105365760405162461bcd60e51b815260206004820152602860248201527f45524332303a207472616e7366657220616d6f756e742065786365656473206160448201527f6c6c6f77616e636500000000000000000000000000000000000000000000000060648201526084015b60405180910390fd5b61054a85336105458685611d9f565b6112d5565b506001949350505050565b3360008181526001602090815260408083206001600160a01b03871684529091528120549091610481918590610545908690611d87565b6005546040805163e63ab1e960e01b815290516101009092046001600160a01b0316916391d1485491839163e63ab1e991600480820192602092909190829003018186803b1580156105dd57600080fd5b505afa1580156105f1573d6000803e3d6000fd5b505050506040513d601f19601f820116820180604052508101906106159190611c5a565b6040516001600160e01b031960e084901b168152600481019190915233602482015260440160206040518083038186803b15801561065257600080fd5b505afa158015610666573d6000803e3d6000fd5b505050506040513d601f19601f8201168201806040525081019061068a9190611c3a565b6106d65760405162461bcd60e51b815260206004820152601c60248201527f476f7665726e616e636520746f6b656e3a206e6f742070617573657200000000604482015260640161052d565b6106de611450565b565b60055460408051632f533cb760e01b815290516101009092046001600160a01b0316916391d14854918391632f533cb791600480820192602092909190829003018186803b15801561073157600080fd5b505afa158015610745573d6000803e3d6000fd5b505050506040513d601f19601f820116820180604052508101906107699190611c5a565b6040516001600160e01b031960e084901b168152600481019190915233602482015260440160206040518083038186803b1580156107a657600080fd5b505afa1580156107ba573d6000803e3d6000fd5b505050506040513d601f19601f820116820180604052508101906107de9190611c3a565b61082a5760405162461bcd60e51b815260206004820152601c60248201527f476f7665726e616e636520746f6b656e3a206e6f74206d696e74657200000000604482015260640161052d565b60055460ff16156108705760405162461bcd60e51b815260206004820152601060248201526f14185d5cd8589b194e881c185d5cd95960821b604482015260640161052d565b61087a82826114ec565b60405181815233906001600160a01b038416907fb1233017d63154bc561d57c16f7b6a55e2e1acd7fcac94045a9f35fb31a850ca906020015b60405180910390a35050565b60055460ff16156109055760405162461bcd60e51b815260206004820152601060248201526f14185d5cd8589b194e881c185d5cd95960821b604482015260640161052d565b61090e816115d0565b60405181815233907f62626c8ae1f1f3ad3b2f42ba7b806bbc48e9a59dab06414984113eaab612fe479060200160405180910390a250565b6005546040805163f39e5a4760e01b815290516101009092046001600160a01b0316916391d1485491839163f39e5a4791600480820192602092909190829003018186803b15801561099757600080fd5b505afa1580156109ab573d6000803e3d6000fd5b505050506040513d601f19601f820116820180604052508101906109cf9190611c5a565b6040516001600160e01b031960e084901b168152600481019190915233602482015260440160206040518083038186803b158015610a0c57600080fd5b505afa158015610a20573d6000803e3d6000fd5b505050506040513d601f19601f82011682018060405250810190610a449190611c3a565b610a905760405162461bcd60e51b815260206004820152601c60248201527f476f7665726e616e636520746f6b656e3a206e6f74206275726e657200000000604482015260640161052d565b60055460ff1615610ad65760405162461bcd60e51b815260206004820152601060248201526f14185d5cd8589b194e881c185d5cd95960821b604482015260640161052d565b610ae082826115dd565b816001600160a01b03167f62626c8ae1f1f3ad3b2f42ba7b806bbc48e9a59dab06414984113eaab612fe4782604051610b1b91815260200190565b60405180910390a25050565b6005546040805163e63ab1e960e01b815290516101009092046001600160a01b0316916391d1485491839163e63ab1e991600480820192602092909190829003018186803b158015610b7857600080fd5b505afa158015610b8c573d6000803e3d6000fd5b505050506040513d601f19601f82011682018060405250810190610bb09190611c5a565b6040516001600160e01b031960e084901b168152600481019190915233602482015260440160206040518083038186803b158015610bed57600080fd5b505afa158015610c01573d6000803e3d6000fd5b505050506040513d601f19601f82011682018060405250810190610c259190611c3a565b610c715760405162461bcd60e51b815260206004820152601c60248201527f476f7665726e616e636520746f6b656e3a206e6f742070617573657200000000604482015260640161052d565b6106de611738565b6060600980546103f190611db6565b3360009081526001602090815260408083206001600160a01b038616845290915281205482811015610d225760405162461bcd60e51b815260206004820152602560248201527f45524332303a2064656372656173656420616c6c6f77616e63652062656c6f7760448201527f207a65726f000000000000000000000000000000000000000000000000000000606482015260840161052d565b610d3133856105458685611d9f565b5060019392505050565b60006104813384846113fa565b6005546040805163a217fddf60e01b815290516101009092046001600160a01b0316916391d1485491839163a217fddf91600480820192602092909190829003018186803b158015610d9957600080fd5b505afa158015610dad573d6000803e3d6000fd5b505050506040513d601f19601f82011682018060405250810190610dd19190611c5a565b6040516001600160e01b031960e084901b168152600481019190915233602482015260440160206040518083038186803b158015610e0e57600080fd5b505afa158015610e22573d6000803e3d6000fd5b505050506040513d601f19601f82011682018060405250810190610e469190611c3a565b610ea05760405162461bcd60e51b815260206004820152602560248201527f45524332303a206465706c6f796572206d757374206265206d616e616765722060448201526430b236b4b760d91b606482015260840161052d565b8051610eb3906009906020840190611a4a565b5050565b6005546040805163a217fddf60e01b815290516101009092046001600160a01b0316916391d1485491839163a217fddf91600480820192602092909190829003018186803b158015610f0857600080fd5b505afa158015610f1c573d6000803e3d6000fd5b505050506040513d601f19601f82011682018060405250810190610f409190611c5a565b6040516001600160e01b031960e084901b168152600481019190915233602482015260440160206040518083038186803b158015610f7d57600080fd5b505afa158015610f91573d6000803e3d6000fd5b505050506040513d601f19601f82011682018060405250810190610fb59190611c3a565b61100f5760405162461bcd60e51b815260206004820152602560248201527f45524332303a206465706c6f796572206d757374206265206d616e616765722060448201526430b236b4b760d91b606482015260840161052d565b8051610eb3906008906020840190611a4a565b6000600560019054906101000a90046001600160a01b03166001600160a01b031663c5f956af6040518163ffffffff1660e01b815260040160206040518083038186803b15801561107257600080fd5b505afa158015611086573d6000803e3d6000fd5b505050506040513d601f19601f820116820180604052508101906110aa9190611b06565b9050610eb381836106e0565b428410156111065760405162461bcd60e51b815260206004820152600f60248201527f446f6c6c61723a20455850495245440000000000000000000000000000000000604482015260640161052d565b6006546001600160a01b038816600090815260076020526040812080549192917f6e71edae12b1b97f4d1f60370fef10105fa2faae0126114a169c64845d6126c9918b918b918b91908761115983611df1565b909155506040805160208101969096526001600160a01b0394851690860152929091166060840152608083015260a082015260c0810187905260e001604051602081830303815290604052805190602001206040516020016111d292919061190160f01b81526002810192909252602282015260420190565b60408051601f198184030181528282528051602091820120600080855291840180845281905260ff88169284019290925260608301869052608083018590529092509060019060a0016020604051602081039080840390855afa15801561123d573d6000803e3d6000fd5b5050604051601f1901519150506001600160a01b038116158015906112735750886001600160a01b0316816001600160a01b0316145b6112bf5760405162461bcd60e51b815260206004820152601960248201527f446f6c6c61723a20494e56414c49445f5349474e415455524500000000000000604482015260640161052d565b6112ca8989896112d5565b505050505050505050565b6001600160a01b03831661313375760405162461bcd60e51b8152602060048201526024808201527f45524332303a20617070726f76652066726f6d20746865207a65726f206164646044820152637265737360e01b606482015260840161052d565b6001600160a01b0382166113985760405162461bcd60e51b815260206004820152602260248201527f45524332303a20617070726f766520746f20746865207a65726f206164647265604482015261737360f01b606482015260840161052d565b6001600160a01b0383811660008181526001602090815260408083209487168084529482529182902085905590518481527f8c5be1e5ebec7d5bd14f71427d1e84f3dd0314c0f7b2291e5b200ac8c7c3b92591015b60405180910390a3505050565b60055460ff16156114405760405162461bcd60e51b815260206004820152601060248201526f14185d5cd8589b194e881c185d5cd95960821b604482015260640161052d565b61144b8383836117b3565b505050565b60055460ff166114a25760405162461bcd60e51b815260206004820152601460248201527f5061757361626c653a206e6f7420706175736564000000000000000000000000604482015260640161052d565b6005805460ff191690557f5db9ee0a495bf2e6ff9c91a7834c1ba4fdd244a5e8aa4e537bd38aeae4b073aa335b6040516001600160a01b03909116815260200160405180910390a1565b6001600160a01b0382166115425760405162461bcd60e51b815260206004820152601f60248201527f45524332303a206d696e7420746f20746865207a65726f206164647265737300604482015260640161052d565b61154e600083836119c5565b80600260008282546115609190611d87565b90915550506001600160a01b0382166000908152602081905260408120805483929061158d908490611d87565b90915550506040518181526001600160a01b038316906000907fddf252ad1be2c89b69c2b068fc378daa952ba7f163c4a11628f55a4df523b3ef906020016108b3565b6115da33826115dd565b50565b6001600160a01b03821661163d5760405162461bcd60e51b815260206004820152602160248201527f45524332303a206275726e2066726f6d20746865207a65726f206164647265736044820152607360f81b606482015260840161052d565b611649826000836119c5565b6001600160a01b038216600090815260208190526040902054818110156116bd5760405162461bcd60e51b815260206004820152602260248201527f45524332303a206275726e20616d6f756e7420657863656564732062616c616e604482015261636560f01b606482015260840161052d565b6116c78282611d9f565b6001600160a01b038416600090815260208190526040812091909155600280548492906116f5908490611d9f565b90915550506040518281526000906001600160a01b038516907fddf252ad1be2c89b69c2b068fc378daa952ba7f163c4a11628f55a4df523b3ef906020016113ed565b60055460ff161561177e5760405162461bcd60e51b815260206004820152601060248201526f14185d5cd8589b194e881c185d5cd95960821b604482015260640161052d565b6005805460ff191660011790557f62e78cea01bee320cd4e420270b5ea74000d11b0c9f74754ebdbfc544b05a2586114cf3390565b6001600160a01b03831661182f5760405162461bcd60e51b815260206004820152602560248201527f45524332303a207472616e736665722066726f6d20746865207a65726f20616460448201527f6472657373000000000000000000000000000000000000000000000000000000606482015260840161052d565b6001600160a01b0382166118915760405162461bcd60e51b815260206004820152602360248201527f45524332303a207472616e7366657220746f20746865207a65726f206164647260448201526265737360e81b606482015260840161052d565b61189c8383836119c5565b6001600160a01b0383166000908152602081905260409020548181101561192b5760405162461bcd60e51b815260206004820152602660248201527f45524332303a207472616e7366657220616d6f756e742065786365656473206260448201527f616c616e63650000000000000000000000000000000000000000000000000000606482015260840161052d565b6119358282611d9f565b6001600160a01b03808616600090815260208190526040808220939093559085168152908120805484929061196b908490611d87565b92505081905550826001600160a01b0316846001600160a01b03167fddf252ad1be2c89b69c2b068fc378daa952ba7f163c4a11628f55a4df523b3ef846040516119b791815260200190565b60405180910390a350505050565b61144b8383836119d760055460ff1690565b1561144b5760405162461bcd60e51b815260206004820152602a60248201527f45524332305061757361626c653a20746f6b656e207472616e7366657220776860448201527f696c652070617573656400000000000000000000000000000000000000000000606482015260840161052d565b828054611a5690611db6565b90600052602060002090601f016020900481019282611a785760008555611abe565b82601f10611a9157805160ff1916838001178555611abe565b82800160010185558215611abe579182015b82811115611abe578251825591602001919060010190611aa3565b50611aca929150611ace565b5090565b5b80821115611aca5760008155600101611acf565b600060208284031215611af4578081fd5b8135611aff81611e38565b9392505050565b600060208284031215611b17578081fd5b8151611aff81611e38565b60008060408385031215611b34578081fd5b8235611b3f81611e38565b91506020830135611b4f81611e38565b809150509250929050565b600080600060608486031215611b6e578081fd5b8335611b7981611e38565b92506020840135611b8981611e38565b929592945050506040919091013590565b600080600080600080600060e0888a031215611bb4578283fd5b8735611bbf81611e38565b96506020880135611bcf81611e38565b95506040880135945060608801359350608088013560ff81168114611bf2578384fd5b9699959850939692959460a0840135945060c09093013592915050565b60008060408385031215611c21578182fd5b8235611c2c81611e38565b946020939093013593505050565b600060208284031215611c4b578081fd5b81518015158114611aff578182fd5b600060208284031215611c6b578081fd5b5051919050565b600060208284031215611c83578081fd5b813567ffffffffffffffff80821115611c9a578283fd5b818401915084601f830112611cad578283fd5b813581811115611cbf57611cbf611e22565b604051601f8201601f19908116603f01168101908382118183101715611ce757611ce7611e22565b81604052828152876020848701011115611cff578586fd5b826020860160208301379182016020019490945295945050505050565b600060208284031215611d2d578081fd5b5035919050565b6000602080835283518082850152825b81811015611d6057858101830151858201604001528201611d44565b81811115611d715783604083870101525b50601f01601f1916929092016040019392505050565b60008219821115611d9a57611d9a611e0c565b500190565b600082821015611db157611db1611e0c565b500390565b600181811c90821680611dca57607f821691505b60208210811415611deb57634e487b7160e01b600052602260045260246000fd5b50919050565b6000600019821415611e0557611e05611e0c565b5060010190565b634e487b7160e01b600052601160045260246000fd5b634e487b7160e01b600052604160045260246000fd5b6001600160a01b03811681146115da57600080fdfea164736f6c6343000803000a",
  "devdoc": {
    "kind": "dev",
    "methods": {
      "allowance(address,address)": {
        "details": "See {IERC20-allowance}."
      },
      "approve(address,uint256)": {
        "details": "See {IERC20-approve}. Requirements: - `spender` cannot be the zero address."
      },
      "balanceOf(address)": {
        "details": "See {IERC20-balanceOf}."
      },
      "burn(uint256)": {
        "params": {
          "amount": "the amount to burn"
        }
      },
      "burnFrom(address,uint256)": {
        "params": {
          "account": "the account to burn from",
          "amount": "the amount to burn"
        }
      },
      "decimals()": {
        "details": "Returns the number of decimals used to get its user representation. For example, if `decimals` equals `2`, a balance of `505` tokens should be displayed to a user as `5,05` (`505 / 10 ** 2`). Tokens usually opt for a value of 18, imitating the relationship between Ether and Wei. This is the value {ERC20} uses, unless this function is overridden; NOTE: This information is only used for _display_ purposes: it in no way affects any of the arithmetic of the contract, including {IERC20-balanceOf} and {IERC20-transfer}."
      },
      "decreaseAllowance(address,uint256)": {
        "details": "Atomically decreases the allowance granted to `spender` by the caller. This is an alternative to {approve} that can be used as a mitigation for problems described in {IERC20-approve}. Emits an {Approval} event indicating the updated allowance. Requirements: - `spender` cannot be the zero address. - `spender` must have allowance for the caller of at least `subtractedValue`."
      },
      "increaseAllowance(address,uint256)": {
        "details": "Atomically increases the allowance granted to `spender` by the caller. This is an alternative to {approve} that can be used as a mitigation for problems described in {IERC20-approve}. Emits an {Approval} event indicating the updated allowance. Requirements: - `spender` cannot be the zero address."
      },
      "name()": {
        "details": "Returns the name of the token."
      },
      "paused()": {
        "details": "Returns true if the contract is paused, and false otherwise."
      },
      "permit(address,address,uint256,uint256,uint8,bytes32,bytes32)": {
        "params": {
          "deadline": "the deadline after which the approval is no longer valid",
          "owner": "the uAD holder",
          "spender": "the approved operator",
          "value": "the amount approved"
        }
      },
      "raiseCapital(uint256)": {
        "details": "you should be minter to call that function",
        "params": {
          "amount": "the amount to be minted"
        }
      },
      "setName(string)": {
        "params": {
          "newName": "new token name"
        }
      },
      "setSymbol(string)": {
        "params": {
          "newSymbol": "new token symbol"
        }
      },
      "symbol()": {
        "details": "Returns the symbol of the token, usually a shorter version of the name."
      },
      "totalSupply()": {
        "details": "See {IERC20-totalSupply}."
      },
      "transfer(address,uint256)": {
        "details": "See {IERC20-transfer}. Requirements: - `recipient` cannot be the zero address. - the caller must have a balance of at least `amount`."
      },
      "transferFrom(address,address,uint256)": {
        "details": "See {IERC20-transferFrom}. Emits an {Approval} event indicating the updated allowance. This is not required by the EIP. See the note at the beginning of {ERC20}. Requirements: - `sender` and `recipient` cannot be the zero address. - `sender` must have a balance of at least `amount`. - the caller must have allowance for ``sender``'s tokens of at least `amount`."
      }
    },
    "version": 1
  },
  "userdoc": {
    "kind": "user",
    "methods": {
      "burn(uint256)": {
        "notice": "burn UAD tokens from caller"
      },
      "burnFrom(address,uint256)": {
        "notice": "burn uAD tokens from specified account"
      },
      "permit(address,address,uint256,uint256,uint8,bytes32,bytes32)": {
        "notice": "permit spending of uAD. owner has signed a message allowing         spender to transfer up to amount uAD"
      },
      "raiseCapital(uint256)": {
        "notice": "raise capital in form of uAR (only redeemable when uAD > 1$)"
      },
      "setName(string)": {
        "notice": "setName update token name"
      },
      "setSymbol(string)": {
        "notice": "setSymbol update token symbol"
      }
    },
    "version": 1
  },
  "storageLayout": {
    "storage": [
      {
        "astId": 1803,
        "contract": "contracts/UbiquityAutoRedeem.sol:UbiquityAutoRedeem",
        "label": "_balances",
        "offset": 0,
        "slot": "0",
        "type": "t_mapping(t_address,t_uint256)"
      },
      {
        "astId": 1809,
        "contract": "contracts/UbiquityAutoRedeem.sol:UbiquityAutoRedeem",
        "label": "_allowances",
        "offset": 0,
        "slot": "1",
        "type": "t_mapping(t_address,t_mapping(t_address,t_uint256))"
      },
      {
        "astId": 1811,
        "contract": "contracts/UbiquityAutoRedeem.sol:UbiquityAutoRedeem",
        "label": "_totalSupply",
        "offset": 0,
        "slot": "2",
        "type": "t_uint256"
      },
      {
        "astId": 1813,
        "contract": "contracts/UbiquityAutoRedeem.sol:UbiquityAutoRedeem",
        "label": "_name",
        "offset": 0,
        "slot": "3",
        "type": "t_string_storage"
      },
      {
        "astId": 1815,
        "contract": "contracts/UbiquityAutoRedeem.sol:UbiquityAutoRedeem",
        "label": "_symbol",
        "offset": 0,
        "slot": "4",
        "type": "t_string_storage"
      },
      {
        "astId": 385,
        "contract": "contracts/UbiquityAutoRedeem.sol:UbiquityAutoRedeem",
        "label": "_paused",
        "offset": 0,
        "slot": "5",
        "type": "t_bool"
      },
      {
        "astId": 7586,
        "contract": "contracts/UbiquityAutoRedeem.sol:UbiquityAutoRedeem",
        "label": "manager",
        "offset": 1,
        "slot": "5",
        "type": "t_contract(UbiquityAlgorithmicDollarManager)10304"
      },
      {
        "astId": 7588,
        "contract": "contracts/UbiquityAutoRedeem.sol:UbiquityAutoRedeem",
        "label": "DOMAIN_SEPARATOR",
        "offset": 0,
        "slot": "6",
        "type": "t_bytes32"
      },
      {
        "astId": 7595,
        "contract": "contracts/UbiquityAutoRedeem.sol:UbiquityAutoRedeem",
        "label": "nonces",
        "offset": 0,
        "slot": "7",
        "type": "t_mapping(t_address,t_uint256)"
      },
      {
        "astId": 7597,
        "contract": "contracts/UbiquityAutoRedeem.sol:UbiquityAutoRedeem",
        "label": "_tokenName",
        "offset": 0,
        "slot": "8",
        "type": "t_string_storage"
      },
      {
        "astId": 7599,
        "contract": "contracts/UbiquityAutoRedeem.sol:UbiquityAutoRedeem",
        "label": "_symbol",
        "offset": 0,
        "slot": "9",
        "type": "t_string_storage"
      }
    ],
    "types": {
      "t_address": {
        "encoding": "inplace",
        "label": "address",
        "numberOfBytes": "20"
      },
      "t_bool": {
        "encoding": "inplace",
        "label": "bool",
        "numberOfBytes": "1"
      },
      "t_bytes32": {
        "encoding": "inplace",
        "label": "bytes32",
        "numberOfBytes": "32"
      },
      "t_contract(UbiquityAlgorithmicDollarManager)10304": {
        "encoding": "inplace",
        "label": "contract UbiquityAlgorithmicDollarManager",
        "numberOfBytes": "20"
      },
      "t_mapping(t_address,t_mapping(t_address,t_uint256))": {
        "encoding": "mapping",
        "key": "t_address",
        "label": "mapping(address => mapping(address => uint256))",
        "numberOfBytes": "32",
        "value": "t_mapping(t_address,t_uint256)"
      },
      "t_mapping(t_address,t_uint256)": {
        "encoding": "mapping",
        "key": "t_address",
        "label": "mapping(address => uint256)",
        "numberOfBytes": "32",
        "value": "t_uint256"
      },
      "t_string_storage": {
        "encoding": "bytes",
        "label": "string",
        "numberOfBytes": "32"
      },
      "t_uint256": {
        "encoding": "inplace",
        "label": "uint256",
        "numberOfBytes": "32"
      }
    }
  }
}