{
  "address": "0x54F528979A50FA8Fe99E0118EbbEE5fC8Ea802F7",
  "abi": [
    {
      "inputs": [
        {
          "internalType": "uint256",
          "name": "_totalULP",
          "type": "uint256"
        },
        {
          "internalType": "uint256",
          "name": "_totalUBOND",
          "type": "uint256"
        },
        {
          "internalType": "uint256",
          "name": "_targetPrice",
          "type": "uint256"
        }
      ],
      "name": "bondPrice",
      "outputs": [
        {
          "internalType": "uint256",
          "name": "_priceUBOND",
          "type": "uint256"
        }
      ],
      "stateMutability": "pure",
      "type": "function"
    },
    {
      "inputs": [
        {
          "internalType": "uint256",
          "name": "_shares",
          "type": "uint256"
        },
        {
          "internalType": "uint256",
          "name": "_currentShareValue",
          "type": "uint256"
        },
        {
          "internalType": "uint256",
          "name": "_targetPrice",
          "type": "uint256"
        }
      ],
      "name": "bonding",
      "outputs": [
        {
          "internalType": "uint256",
          "name": "_uBOND",
          "type": "uint256"
        }
      ],
      "stateMutability": "pure",
      "type": "function"
    },
    {
      "inputs": [
        {
          "internalType": "uint256",
          "name": "_uLP",
          "type": "uint256"
        },
        {
          "internalType": "uint256",
          "name": "_weeks",
          "type": "uint256"
        },
        {
          "internalType": "uint256",
          "name": "_multiplier",
          "type": "uint256"
        }
      ],
      "name": "durationMultiply",
      "outputs": [
        {
          "internalType": "uint256",
          "name": "_shares",
          "type": "uint256"
        }
      ],
      "stateMutability": "pure",
      "type": "function"
    },
    {
      "inputs": [
        {
          "internalType": "uint256",
          "name": "_uBOND",
          "type": "uint256"
        },
        {
          "internalType": "uint256",
          "name": "_currentShareValue",
          "type": "uint256"
        },
        {
          "internalType": "uint256",
          "name": "_targetPrice",
          "type": "uint256"
        }
      ],
      "name": "redeemBonds",
      "outputs": [
        {
          "internalType": "uint256",
          "name": "_uLP",
          "type": "uint256"
        }
      ],
      "stateMutability": "pure",
      "type": "function"
    },
    {
      "inputs": [
        {
          "internalType": "uint256",
          "name": "_multiplier",
          "type": "uint256"
        },
        {
          "internalType": "uint256",
          "name": "_price",
          "type": "uint256"
        }
      ],
      "name": "ugovMultiply",
      "outputs": [
        {
          "internalType": "uint256",
          "name": "_newMultiplier",
          "type": "uint256"
        }
      ],
      "stateMutability": "pure",
      "type": "function"
    }
  ],
  "transactionHash": "0x0b47a00e1f5ba0348cc54cdb108142b230cd6c788e737b42ea63928118fce6a5",
  "args": [],
  "solcInputHash": "718dfe5f2e9bb98c22443f71ab0527e0",
  "bytecode": "0x608060405234801561001057600080fd5b50611187806100206000396000f3fe608060405234801561001057600080fd5b50600436106100675760003560e01c8063794e955c11610050578063794e955c146100a4578063cd324209146100b7578063d58d45a8146100ca57610067565b8063163380b31461006c5780635b374a4014610091575b600080fd5b61007f61007a36600461114f565b6100dd565b60405190815260200160405180910390f35b61007f61009f36600461114f565b61014a565b61007f6100b236600461112e565b610205565b61007f6100c536600461114f565b6102df565b61007f6100d836600461114f565b610357565b6000806100e98561039a565b905060006100f68561039a565b905060006101038561039a565b905061013f610130826101206001600160801b0319871686610400565b6001600160801b0319169061072a565b6001600160801b0319166109a1565b979650505050505050565b60008061015e670de0b6b3a764000061039a565b9050600061016b8561039a565b9050600061019961018a836101206001600160801b031982168261072a565b6001600160801b031916610a26565b905060006101ba846101aa8861039a565b6001600160801b03191690610400565b905060006101c78961039a565b90506101f8610130826101e8816101206001600160801b031988168961072a565b6001600160801b03191690610c5f565b9998505050505050505050565b6000806102118461039a565b9050600061021e8461039a565b90506000610233670e92596fd629000061039a565b90506000610248670de0b6b3a764000061039a565b9050600061028f61027e6102666001600160801b031985168761106c565b6f7fffffffffffffffffffffffffffffff60801b1690565b6001600160801b0319841690610c5f565b90506102ac610130826101aa6001600160801b031989168761072a565b9550674563918244f400008611806102cb57506702c68af0bb14000086105b156102d4578795505b505050505092915050565b6000806102eb8561039a565b905060006102f88561039a565b90506000851561031b576103166001600160801b0319841683610400565b610325565b610325600161039a565b905060006103328661039a565b905061034b6101306001600160801b031984168361072a565b98975050505050505050565b6000806103638561039a565b905060006103708561039a565b9050600061037d8561039a565b905061013f610130826101aa6001600160801b031987168661072a565b6000816103a9575060006103fb565b8160006103b58261107e565b905060708110156103ce578060700382901b91506103e1565b60708111156103e1576070810382901c91505b613fff0160701b6001600160701b03919091161760801b90505b919050565b6000617fff60f084811c8216919084901c8116908214156104465780617fff1415610435575061ffff60ef1b91506107249050565b505050600160ff1b81168218610724565b80617fff1415610497577dffffffffffffffffffffffffffff00000000000000000000000000000000841615610486575061ffff60ef1b91506107249050565b505050808218600160ff1b16610724565b6f7fffffffffffffffffffffffffffffff60801b84166104f3576f7fffffffffffffffffffffffffffffff60801b85166104db575061ffff60ef1b91506107249050565b505050808218600160ff1b16617fff60f01b17610724565b6001600160701b03608085901c168161050f5760019150610516565b600160701b175b6001600160701b03608087901c168361055557801561055057600061053a8261107e565b6001955060e20393840160711901939190911b90505b61055f565b600160701b1760721b5b81818161057c57634e487b7160e01b600052601260045260246000fd5b049050806105a957600160ff1b8787181661059857600061059e565b600160ff1b5b945050505050610724565b6d10000000000000000000000000008110156105d557634e487b7160e01b600052600160045260246000fd5b60006e080000000000000000000000000000821015610636576e04000000000000000000000000000082101561062b576e020000000000000000000000000000821015610623576070610626565b60715b61062e565b60725b60ff1661063f565b61063f8261107e565b90508361407101818601111561065d57617fff9450600091506106f0565b83818601613ffc0110156106785760009450600091506106f0565b83818601613f8c0110156106c5578385613ffc0111156106a3578385613ffc010382901b91506106bc565b8385613ffc0110156106bc57613ffc8585030382901c91505b600094506106f0565b60708111156106d8576070810382901c91505b6001600160701b038216915083818601613f8d010394505b81607086901b888a186001607f1b60801b1660801c6fffffffffffffffffffffffffffffffff16171760801b955050505050505b92915050565b6000617fff60f084811c8216919084901c8116908214156107d25780617fff14156107a8576001600160801b0319858116908516141561077557505050600160ff1b81168218610724565b600160ff1b6001600160801b031986861816141561079857505050818117610724565b5061ffff60ef1b91506107249050565b6f7fffffffffffffffffffffffffffffff60801b8416610435575061ffff60ef1b91506107249050565b80617fff1415610817576f7fffffffffffffffffffffffffffffff60801b8516610806575061ffff60ef1b91506107249050565b505050600160ff1b82168118610724565b6001600160701b03608086901c1682610833576001925061083a565b600160701b175b6001600160701b03608086901c1682610856576001925061085d565b600160701b175b908102908161087a57600160ff1b8787181661059857600061059e565b928201926000600160e11b8310156108ae57600160e01b8310156108a6576108a18361107e565b6108a9565b60e05b6108b1565b60e15b905061407081860110156108cc576000945060009250610969565b6140e0818601101561090f576140708510156108f157846140700383901c9250610906565b61407085111561090657614070850383901b92505b60009450610969565b61c0dd818601111561092957617fff945060009250610969565b6070811115610940576070810383901c9250610953565b6070811015610953578060700383901b92505b6001600160701b03831692506140df8186010394505b82607086901b888a186001607f1b60801b1660801c6fffffffffffffffffffffffffffffffff16171760801b95505050505050610724565b6000617fff60f083901c16613fff8110156109c05760009150506103fb565b6001607f1b608084901c106109d457600080fd5b6140fe8111156109e357600080fd5b600160701b6001600160701b03608085901c161761406f821015610a0d5761406f8290031c610a1f565b61406f821115610a1f5761406e1982011b5b9392505050565b60006001607f1b608083901c1115610a44575061ffff60ef1b6103fb565b617fff60f083901c811690811415610a5f57829150506103fb565b6001600160701b03608084901c1681610a7b5760019150610a82565b600160701b175b80610a935750600091506103fb9050565b613fff8201600190811c9216158015610ae657600160701b8210610abd57607182901b9150610ae1565b6000610ac88361107e565b60e20360fe16606f19810160011c909403939290921b91505b610b21565b600160701b8210610afd57607082901b9150610b21565b6000610b088361107e565b60e10360fe16606f19810160011c909403939290921b91505b600160701b80830401600190811c90818481610b4d57634e487b7160e01b600052601260045260246000fd5b048201901c90506001818481610b7357634e487b7160e01b600052601260045260246000fd5b048201901c90506001818481610b9957634e487b7160e01b600052601260045260246000fd5b048201901c90506001818481610bbf57634e487b7160e01b600052601260045260246000fd5b048201901c90506001818481610be557634e487b7160e01b600052601260045260246000fd5b048201901c90506001818481610c0b57634e487b7160e01b600052601260045260246000fd5b048201901c90506000818481610c3157634e487b7160e01b600052601260045260246000fd5b04905081811015610c40578091505b816001600160701b0316607086901b1760801b955050505050506103fb565b6000617fff60f084811c8216919084901c811690821415610cad5780617fff1415610ca3576001600160801b03198581169085161415610798578492505050610724565b8492505050610724565b80617fff1415610cc1578392505050610724565b6001607f1b608086901c90811015906001600160701b031683610ce75760019350610cee565b600160701b175b6001607f1b608087901c90811015906001600160701b031684610d145760019450610d1b565b600160701b175b82610d4b576001600160801b03198816600160ff1b14610d3b5787610d3e565b60005b9650505050505050610724565b80610d6b576001600160801b03198916600160ff1b14610d3b5788610d3e565b8486038415158315151415610ea2576070811315610d925789975050505050505050610724565b6000811315610da45790811c90610dd3565b606f19811215610dbd5788975050505050505050610724565b6000811215610dd3578060000384901c93508596505b928101926e0200000000000000000000000000008410610df9576001968701969390931c925b86617fff1415610e435784610e1357617fff60f01b610e35565b7fffff0000000000000000000000000000000000000000000000000000000000005b975050505050505050610724565b600160701b841015610e585760009650610e65565b6001600160701b03841693505b83607088901b86610e77576000610e7d565b6001607f1b5b6fffffffffffffffffffffffffffffffff16171760801b975050505050505050610724565b6000811315610ebd57600184901b9350600187039650610ed4565b6000811215610ed457600182901b91506001860396505b6070811315610ee65760019150610f33565b6001811315610f03576001810360018303901c6001019150610f33565b606f19811215610f165760019350610f33565b600019811215610f33576001816000030360018503901c60010193505b818410610f44578184039350610f4d565b83820393508294505b83610f6357506000965061072495505050505050565b6000610f6e8561107e565b90508060711415610f9457600185901c6001600160701b03169450600188019750610fe3565b6070811015610fd657607081900380891115610fc3578086901b6001600160701b031695508089039850610fd0565b600098600019019590951b945b50610fe3565b6001600160701b03851694505b87617fff141561102e5785610ffd57617fff60f01b61101f565b7fffff0000000000000000000000000000000000000000000000000000000000005b98505050505050505050610724565b84607089901b87611040576000611046565b6001607f1b5b6fffffffffffffffffffffffffffffffff16171760801b98505050505050505050610724565b6000610a1f83600160ff1b8418610c5f565b600080821161108c57600080fd5b600070010000000000000000000000000000000083106110ae57608092831c92015b6801000000000000000083106110c657604092831c92015b64010000000083106110da57602092831c92015b6201000083106110ec57601092831c92015b61010083106110fd57600892831c92015b6010831061110d57600492831c92015b6004831061111d57600292831c92015b600283106107245760010192915050565b60008060408385031215611140578182fd5b50508035926020909101359150565b600080600060608486031215611163578081fd5b50508135936020830135935060409092013591905056fea164736f6c6343000803000a",
  "devdoc": {
    "kind": "dev",
    "methods": {
      "bondPrice(uint256,uint256,uint256)": {
        "details": "formula bond price",
        "params": {
          "_targetPrice": ",  target uAD price",
          "_totalUBOND": ", total bond shares",
          "_totalULP": ", total LP tokens"
        },
        "returns": {
          "_priceUBOND": ", bond share price"
        }
      },
      "bonding(uint256,uint256,uint256)": {
        "details": "formula bonding",
        "params": {
          "_currentShareValue": ", current share value",
          "_shares": ", amount of shares",
          "_targetPrice": ", target uAD price"
        },
        "returns": {
          "_uBOND": ", amount of bonding shares"
        }
      },
      "durationMultiply(uint256,uint256,uint256)": {
        "details": "formula duration multiply",
        "params": {
          "_multiplier": ", bonding discount multiplier = 0.0001",
          "_uLP": ", amount of LP tokens",
          "_weeks": ", mimimun duration of staking period"
        },
        "returns": {
          "_shares": ", amount of shares"
        }
      },
      "redeemBonds(uint256,uint256,uint256)": {
        "details": "formula redeem bonds",
        "params": {
          "_currentShareValue": ", current share value",
          "_targetPrice": ", target uAD price",
          "_uBOND": ", amount of bonding shares"
        },
        "returns": {
          "_uLP": ", amount of LP tokens"
        }
      },
      "ugovMultiply(uint256,uint256)": {
        "details": "formula ugov multiply",
        "params": {
          "_multiplier": ", initial ugov min multiplier",
          "_price": ", current share price"
        },
        "returns": {
          "_newMultiplier": ", new ugov min multiplier"
        }
      }
    },
    "version": 1
  },
  "userdoc": {
    "kind": "user",
    "methods": {
      "bonding(uint256,uint256,uint256)": {
        "notice": "UBOND = _shares / _currentShareValue * _targetPrice"
      },
      "durationMultiply(uint256,uint256,uint256)": {
        "notice": "_shares = (1 + _multiplier * _weeks^3/2) * _uLP"
      },
      "redeemBonds(uint256,uint256,uint256)": {
        "notice": "_uLP = _uBOND * _currentShareValue / _targetPrice"
      },
      "ugovMultiply(uint256,uint256)": {
        "notice": "new_multiplier = multiplier * ( 1.05 / (1 + abs( 1 - price ) ) )"
      }
    },
    "version": 1
  },
  "storageLayout": {
    "storage": [],
    "types": null
  }
}