{
  "abi": [
    {
      "inputs": [],
      "stateMutability": "nonpayable",
      "type": "constructor"
    },
    {
      "anonymous": false,
      "inputs": [
        {
          "indexed": false,
          "internalType": "address",
          "name": "from",
          "type": "address"
        },
        {
          "indexed": false,
          "internalType": "uint256",
          "name": "count",
          "type": "uint256"
        },
        {
          "indexed": false,
          "internalType": "uint256",
          "name": "price",
          "type": "uint256"
        }
      ],
      "name": "Mint",
      "type": "event"
    },
    {
      "anonymous": false,
      "inputs": [
        {
          "indexed": true,
          "internalType": "address",
          "name": "previousOwner",
          "type": "address"
        },
        {
          "indexed": true,
          "internalType": "address",
          "name": "newOwner",
          "type": "address"
        }
      ],
      "name": "OwnershipTransferred",
      "type": "event"
    },
    {
      "anonymous": false,
      "inputs": [
        {
          "indexed": false,
          "internalType": "address",
          "name": "to",
          "type": "address"
        },
        {
          "indexed": false,
          "internalType": "uint256",
          "name": "unspent",
          "type": "uint256"
        }
      ],
      "name": "Payback",
      "type": "event"
    },
    {
      "anonymous": false,
      "inputs": [
        {
          "indexed": false,
          "internalType": "address",
          "name": "to",
          "type": "address"
        },
        {
          "indexed": false,
          "internalType": "address",
          "name": "token",
          "type": "address"
        },
        {
          "indexed": false,
          "internalType": "uint256",
          "name": "amount",
          "type": "uint256"
        }
      ],
      "name": "Withdraw",
      "type": "event"
    },
    {
      "inputs": [],
      "name": "MAXIMUM_PER_TX",
      "outputs": [
        {
          "internalType": "uint256",
          "name": "",
          "type": "uint256"
        }
      ],
      "stateMutability": "view",
      "type": "function"
    },
    {
      "inputs": [],
      "name": "MAXIMUM_SUPPLY",
      "outputs": [
        {
          "internalType": "uint256",
          "name": "",
          "type": "uint256"
        }
      ],
      "stateMutability": "view",
      "type": "function"
    },
    {
      "inputs": [
        {
          "internalType": "address",
          "name": "_address",
          "type": "address"
        }
      ],
      "name": "allowance",
      "outputs": [
        {
          "internalType": "uint256",
          "name": "count",
          "type": "uint256"
        },
        {
          "internalType": "uint256",
          "name": "price",
          "type": "uint256"
        }
      ],
      "stateMutability": "view",
      "type": "function"
    },
    {
      "inputs": [
        {
          "internalType": "address[]",
          "name": "_addresses",
          "type": "address[]"
        },
        {
          "internalType": "uint256[]",
          "name": "_counts",
          "type": "uint256[]"
        },
        {
          "internalType": "uint256[]",
          "name": "_prices",
          "type": "uint256[]"
        }
      ],
      "name": "batchSetAllowances",
      "outputs": [],
      "stateMutability": "nonpayable",
      "type": "function"
    },
    {
      "inputs": [],
      "name": "fundsAddress",
      "outputs": [
        {
          "internalType": "address",
          "name": "",
          "type": "address"
        }
      ],
      "stateMutability": "view",
      "type": "function"
    },
    {
      "inputs": [],
      "name": "owner",
      "outputs": [
        {
          "internalType": "address",
          "name": "",
          "type": "address"
        }
      ],
      "stateMutability": "view",
      "type": "function"
    },
    {
      "inputs": [],
      "name": "renounceOwnership",
      "outputs": [],
      "stateMutability": "nonpayable",
      "type": "function"
    },
    {
      "inputs": [
        {
          "internalType": "address",
          "name": "_address",
          "type": "address"
        },
        {
          "internalType": "uint256",
          "name": "_count",
          "type": "uint256"
        },
        {
          "internalType": "uint256",
          "name": "_price",
          "type": "uint256"
        }
      ],
      "name": "setAllowance",
      "outputs": [],
      "stateMutability": "nonpayable",
      "type": "function"
    },
    {
      "inputs": [
        {
          "internalType": "address",
          "name": "_address",
          "type": "address"
        }
      ],
      "name": "setFundsAddress",
      "outputs": [],
      "stateMutability": "nonpayable",
      "type": "function"
    },
    {
      "inputs": [
        {
          "internalType": "address",
          "name": "_newTokenContract",
          "type": "address"
        }
      ],
      "name": "setTokenContract",
      "outputs": [],
      "stateMutability": "nonpayable",
      "type": "function"
    },
    {
      "inputs": [],
      "name": "tokenContract",
      "outputs": [
        {
          "internalType": "contract ITheUbiquityStick",
          "name": "",
          "type": "address"
        }
      ],
      "stateMutability": "view",
      "type": "function"
    },
    {
      "inputs": [
        {
          "internalType": "address",
          "name": "newOwner",
          "type": "address"
        }
      ],
      "name": "transferOwnership",
      "outputs": [],
      "stateMutability": "nonpayable",
      "type": "function"
    },
    {
      "inputs": [],
      "name": "withdraw",
      "outputs": [],
      "stateMutability": "nonpayable",
      "type": "function"
    },
    {
      "stateMutability": "payable",
      "type": "receive"
    }
  ],
  "bytecode": {
    "object": "0x608060405234801561001057600080fd5b5061001a33610023565b60018055610073565b600080546001600160a01b038381166001600160a01b0319831681178455604051919092169283917f8be0079c531659141344cd1fd0a4f28419497f9722a3daafe3b4186f6b6457e09190a35050565b611039806100826000396000f3fe6080604052600436106100d65760003560e01c8063715018a61161007f578063a77ccd6e11610059578063a77ccd6e1461075b578063bbcd5bbe14610788578063bdce0b28146107a8578063f2fde38b146107bd57600080fd5b8063715018a6146106fb5780637f19abe0146107105780638da5cb5b1461073057600080fd5b80633e5beab9116100b05780633e5beab91461061457806342dbb4ef1461068957806355a373d6146106a957600080fd5b806304acbb99146105b65780633ccfd60b146105d65780633d0c4924146105eb57600080fd5b366105b1576100e36107dd565b600254604080517f18160ddd00000000000000000000000000000000000000000000000000000000815290516104009273ffffffffffffffffffffffffffffffffffffffff16916318160ddd916004808301926020929190829003018186803b15801561014f57600080fd5b505afa158015610163573d6000803e3d6000fd5b505050506040513d601f19601f820116820180604052508101906101879190610d77565b106101f3576040517f08c379a000000000000000000000000000000000000000000000000000000000815260206004820152600860248201527f536f6c64204f757400000000000000000000000000000000000000000000000060448201526064015b60405180910390fd5b600254604080517f18160ddd000000000000000000000000000000000000000000000000000000008152905160009273ffffffffffffffffffffffffffffffffffffffff16916318160ddd916004808301926020929190829003018186803b15801561025e57600080fd5b505afa158015610272573d6000803e3d6000fd5b505050506040513d601f19601f820116820180604052508101906102969190610d77565b6102a290610400610dbf565b90506000806102f03373ffffffffffffffffffffffffffffffffffffffff16600090815260036020908152604091829020825180840190935280548084526001909101549290910182905291565b909250905081610382576040517f08c379a000000000000000000000000000000000000000000000000000000000815260206004820152603660248201527f4e6f742057686974656c697374656420466f72205468652053616c65204f722060448201527f496e73756666696369656e7420416c6c6f77616e63650000000000000000000060648201526084016101ea565b8183101561038e578291505b6103988183610dd6565b3410156103ac576103a98134610e13565b91505b81600a10156103ba57600a91505b60008211610424576040517f08c379a000000000000000000000000000000000000000000000000000000000815260206004820152601060248201527f4e6f7420656e6f7567682046756e64730000000000000000000000000000000060448201526064016101ea565b3360009081526003602052604081208054849290610443908490610dbf565b90915550600090506104558284610dd6565b6002546040517f5832bcfe0000000000000000000000000000000000000000000000000000000081523360048201526024810186905291925073ffffffffffffffffffffffffffffffffffffffff1690635832bcfe90604401600060405180830381600087803b1580156104c857600080fd5b505af11580156104dc573d6000803e3d6000fd5b505060408051338152602081018790529081018490527f4c209b5fc8ad50758f13e2e1088ba56a560dff690a1c6fef26394f4c03821c4f9250606001905060405180910390a1803411156105a25760006105368234610dbf565b604051909150339082156108fc029083906000818181858888f19350505050158015610566573d6000803e3d6000fd5b5060408051338152602081018390527f8c9cdf934f136ab5b80fe11dfd56363fa7544ecb56d4c440c0d8a14d04bfff4a910160405180910390a1505b505050506105af60018055565b005b600080fd5b3480156105c257600080fd5b506105af6105d1366004610e77565b610851565b3480156105e257600080fd5b506105af61091d565b3480156105f757600080fd5b5061060161040081565b6040519081526020015b60405180910390f35b34801561062057600080fd5b5061067461062f366004610eaa565b73ffffffffffffffffffffffffffffffffffffffff16600090815260036020908152604091829020825180840190935280548084526001909101549290910182905291565b6040805192835260208301919091520161060b565b34801561069557600080fd5b506105af6106a4366004610f18565b61097f565b3480156106b557600080fd5b506002546106d69073ffffffffffffffffffffffffffffffffffffffff1681565b60405173ffffffffffffffffffffffffffffffffffffffff909116815260200161060b565b34801561070757600080fd5b506105af610a20565b34801561071c57600080fd5b506105af61072b366004610eaa565b610a32565b34801561073c57600080fd5b5060005473ffffffffffffffffffffffffffffffffffffffff166106d6565b34801561076757600080fd5b506004546106d69073ffffffffffffffffffffffffffffffffffffffff1681565b34801561079457600080fd5b506105af6107a3366004610eaa565b610afe565b3480156107b457600080fd5b50610601600a81565b3480156107c957600080fd5b506105af6107d8366004610eaa565b610bca565b6002600154141561084a576040517f08c379a000000000000000000000000000000000000000000000000000000000815260206004820152601f60248201527f5265656e7472616e637947756172643a207265656e7472616e742063616c6c0060448201526064016101ea565b6002600155565b610859610c81565b73ffffffffffffffffffffffffffffffffffffffff83166108d6576040517f08c379a000000000000000000000000000000000000000000000000000000000815260206004820152600f60248201527f496e76616c69642041646472657373000000000000000000000000000000000060448201526064016101ea565b604080518082018252928352602080840192835273ffffffffffffffffffffffffffffffffffffffff90941660009081526003909452909220905181559051600190910155565b6109256107dd565b61092d610c81565b60045460405173ffffffffffffffffffffffffffffffffffffffff909116904780156108fc02916000818181858888f19350505050158015610973573d6000803e3d6000fd5b5061097d60018055565b565b610987610c81565b8460005b818161ffff161015610a1657610a0488888361ffff168181106109b0576109b0610fb2565b90506020020160208101906109c59190610eaa565b87878461ffff168181106109db576109db610fb2565b9050602002013586868561ffff168181106109f8576109f8610fb2565b90506020020135610851565b80610a0e81610fe1565b91505061098b565b5050505050505050565b610a28610c81565b61097d6000610d02565b610a3a610c81565b73ffffffffffffffffffffffffffffffffffffffff8116610ab7576040517f08c379a000000000000000000000000000000000000000000000000000000000815260206004820152600f60248201527f496e76616c69642041646472657373000000000000000000000000000000000060448201526064016101ea565b600480547fffffffffffffffffffffffff00000000000000000000000000000000000000001673ffffffffffffffffffffffffffffffffffffffff92909216919091179055565b610b06610c81565b73ffffffffffffffffffffffffffffffffffffffff8116610b83576040517f08c379a000000000000000000000000000000000000000000000000000000000815260206004820152600f60248201527f496e76616c69642041646472657373000000000000000000000000000000000060448201526064016101ea565b600280547fffffffffffffffffffffffff00000000000000000000000000000000000000001673ffffffffffffffffffffffffffffffffffffffff92909216919091179055565b610bd2610c81565b73ffffffffffffffffffffffffffffffffffffffff8116610c75576040517f08c379a000000000000000000000000000000000000000000000000000000000815260206004820152602660248201527f4f776e61626c653a206e6577206f776e657220697320746865207a65726f206160448201527f646472657373000000000000000000000000000000000000000000000000000060648201526084016101ea565b610c7e81610d02565b50565b60005473ffffffffffffffffffffffffffffffffffffffff16331461097d576040517f08c379a000000000000000000000000000000000000000000000000000000000815260206004820181905260248201527f4f776e61626c653a2063616c6c6572206973206e6f7420746865206f776e657260448201526064016101ea565b6000805473ffffffffffffffffffffffffffffffffffffffff8381167fffffffffffffffffffffffff0000000000000000000000000000000000000000831681178455604051919092169283917f8be0079c531659141344cd1fd0a4f28419497f9722a3daafe3b4186f6b6457e09190a35050565b600060208284031215610d8957600080fd5b5051919050565b7f4e487b7100000000000000000000000000000000000000000000000000000000600052601160045260246000fd5b600082821015610dd157610dd1610d90565b500390565b6000817fffffffffffffffffffffffffffffffffffffffffffffffffffffffffffffffff0483118215151615610e0e57610e0e610d90565b500290565b600082610e49577f4e487b7100000000000000000000000000000000000000000000000000000000600052601260045260246000fd5b500490565b803573ffffffffffffffffffffffffffffffffffffffff81168114610e7257600080fd5b919050565b600080600060608486031215610e8c57600080fd5b610e9584610e4e565b95602085013595506040909401359392505050565b600060208284031215610ebc57600080fd5b610ec582610e4e565b9392505050565b60008083601f840112610ede57600080fd5b50813567ffffffffffffffff811115610ef657600080fd5b6020830191508360208260051b8501011115610f1157600080fd5b9250929050565b60008060008060008060608789031215610f3157600080fd5b863567ffffffffffffffff80821115610f4957600080fd5b610f558a838b01610ecc565b90985096506020890135915080821115610f6e57600080fd5b610f7a8a838b01610ecc565b90965094506040890135915080821115610f9357600080fd5b50610fa089828a01610ecc565b979a9699509497509295939492505050565b7f4e487b7100000000000000000000000000000000000000000000000000000000600052603260045260246000fd5b600061ffff80831681811415610ff957610ff9610d90565b600101939250505056fea2646970667358221220783f187a17b13dfb0d899849ac84afcb890afdb11662daab11c665aeb9b784c764736f6c63430008090033",
    "linkReferences": {}
  },
  "methodIdentifiers": {
    "MAXIMUM_PER_TX()": "bdce0b28",
    "MAXIMUM_SUPPLY()": "3d0c4924",
    "allowance(address)": "3e5beab9",
    "batchSetAllowances(address[],uint256[],uint256[])": "42dbb4ef",
    "fundsAddress()": "a77ccd6e",
    "owner()": "8da5cb5b",
    "renounceOwnership()": "715018a6",
    "setAllowance(address,uint256,uint256)": "04acbb99",
    "setFundsAddress(address)": "7f19abe0",
    "setTokenContract(address)": "bbcd5bbe",
    "tokenContract()": "55a373d6",
    "transferOwnership(address)": "f2fde38b",
    "withdraw()": "3ccfd60b"
  },
  "id": 102
}