{
  "abi": [
    {
      "inputs": [
        {
          "internalType": "address",
          "name": "_manager",
          "type": "address"
        }
      ],
      "stateMutability": "nonpayable",
      "type": "constructor"
    },
    {
      "inputs": [
        {
          "internalType": "uint256",
          "name": "dollarsToBurn",
          "type": "uint256"
        }
      ],
      "name": "getCouponAmount",
      "outputs": [
        {
          "internalType": "uint256",
          "name": "",
          "type": "uint256"
        }
      ],
      "stateMutability": "view",
      "type": "function"
    },
    {
      "inputs": [],
      "name": "manager",
      "outputs": [
        {
          "internalType": "contract UbiquityAlgorithmicDollarManager",
          "name": "",
          "type": "address"
        }
      ],
      "stateMutability": "view",
      "type": "function"
    }
  ],
  "bytecode": {
    "object": "0x608060405234801561001057600080fd5b5060405161182d38038061182d83398101604081905261002f91610054565b600080546001600160a01b0319166001600160a01b0392909216919091179055610084565b60006020828403121561006657600080fd5b81516001600160a01b038116811461007d57600080fd5b9392505050565b61179a806100936000396000f3fe608060405234801561001057600080fd5b50600436106100365760003560e01c8063481c6a751461003b5780639172dd2314610085575b600080fd5b60005461005b9073ffffffffffffffffffffffffffffffffffffffff1681565b60405173ffffffffffffffffffffffffffffffffffffffff90911681526020015b60405180910390f35b61009861009336600461169e565b6100a6565b60405190815260200161007c565b60008060009054906101000a900473ffffffffffffffffffffffffffffffffffffffff1673ffffffffffffffffffffffffffffffffffffffff1663bc3ea0186040518163ffffffff1660e01b8152600401602060405180830381865afa158015610114573d6000803e3d6000fd5b505050506040513d601f19601f8201168201806040525081019061013891906116b7565b73ffffffffffffffffffffffffffffffffffffffff166318160ddd6040518163ffffffff1660e01b8152600401602060405180830381865afa158015610182573d6000803e3d6000fd5b505050506040513d601f19601f820116820180604052508101906101a691906116ed565b60008054906101000a900473ffffffffffffffffffffffffffffffffffffffff1673ffffffffffffffffffffffffffffffffffffffff166356593ea36040518163ffffffff1660e01b8152600401602060405180830381865afa158015610211573d6000803e3d6000fd5b505050506040513d601f19601f8201168201806040525081019061023591906116b7565b73ffffffffffffffffffffffffffffffffffffffff1663db87b1ff6040518163ffffffff1660e01b8152600401602060405180830381865afa15801561027f573d6000803e3d6000fd5b505050506040513d601f19601f820116820180604052508101906102a391906116ed565b1061030e576040517f08c379a000000000000000000000000000000000000000000000000000000000815260206004820152601f60248201527f436f75706f6e20746f20646f6c6c61723a20444542545f544f4f5f4849474800604482015260640160405180910390fd5b600061031a6001610652565b9050600061042360008054906101000a900473ffffffffffffffffffffffffffffffffffffffff1673ffffffffffffffffffffffffffffffffffffffff166356593ea36040518163ffffffff1660e01b8152600401602060405180830381865afa15801561038c573d6000803e3d6000fd5b505050506040513d601f19601f820116820180604052508101906103b091906116b7565b73ffffffffffffffffffffffffffffffffffffffff1663db87b1ff6040518163ffffffff1660e01b8152600401602060405180830381865afa1580156103fa573d6000803e3d6000fd5b505050506040513d601f19601f8201168201806040525081019061041e91906116ed565b610652565b9050600061052f61050660008054906101000a900473ffffffffffffffffffffffffffffffffffffffff1673ffffffffffffffffffffffffffffffffffffffff1663bc3ea0186040518163ffffffff1660e01b8152600401602060405180830381865afa158015610498573d6000803e3d6000fd5b505050506040513d601f19601f820116820180604052508101906104bc91906116b7565b73ffffffffffffffffffffffffffffffffffffffff166318160ddd6040518163ffffffff1660e01b8152600401602060405180830381865afa1580156103fa573d6000803e3d6000fd5b7fffffffffffffffffffffffffffffffff000000000000000000000000000000008416906106c0565b905060006105b66105627fffffffffffffffffffffffffffffffff00000000000000000000000000000000861684610b43565b61058e7fffffffffffffffffffffffffffffffff00000000000000000000000000000000871685610b43565b7fffffffffffffffffffffffffffffffff000000000000000000000000000000001690610b78565b905060006105e67fffffffffffffffffffffffffffffffff000000000000000000000000000000008616836106c0565b90506106476106206105f789610652565b7fffffffffffffffffffffffffffffffff00000000000000000000000000000000841690610b78565b7fffffffffffffffffffffffffffffffff0000000000000000000000000000000016610f70565b979650505050505050565b60008160000361066457506000919050565b8160006106708261102e565b90506070811015610689578060700382901b915061069c565b607081111561069c576070810382901c91505b613fff0160701b6dffffffffffffffffffffffffffff919091161760801b92915050565b6000617fff60f084811c8216919084901c81169082900361073c5780617fff0361070f57507f7fff8000000000000000000000000000000000000000000000000000000000009150610b3d9050565b5050507f800000000000000000000000000000000000000000000000000000000000000081168218610b3d565b80617fff036107c3577dffffffffffffffffffffffffffff0000000000000000000000000000000084161561079657507f7fff8000000000000000000000000000000000000000000000000000000000009150610b3d9050565b5050508082187f800000000000000000000000000000000000000000000000000000000000000016610b3d565b7f7fffffffffffffffffffffffffffffff000000000000000000000000000000008416600003610891577f7fffffffffffffffffffffffffffffff00000000000000000000000000000000851660000361084257507f7fff8000000000000000000000000000000000000000000000000000000000009150610b3d9050565b5050508082187f8000000000000000000000000000000000000000000000000000000000000000167f7fff00000000000000000000000000000000000000000000000000000000000017610b3d565b6dffffffffffffffffffffffffffff608085901c1660008290036108b857600191506108ca565b6e010000000000000000000000000000175b6dffffffffffffffffffffffffffff608087901c16600084900361093257801561092d5760006108f98261102e565b6001955060e2039384017fffffffffffffffffffffffffffffffffffffffffffffffffffffffffffffff8e01939190911b90505b610947565b6e0100000000000000000000000000001760721b5b81818161095657610956611706565b049050806000036109be577f8000000000000000000000000000000000000000000000000000000000000000878718166109915760006109b3565b7f80000000000000000000000000000000000000000000000000000000000000005b945050505050610b3d565b6d10000000000000000000000000008110156109dc576109dc611735565b60006e080000000000000000000000000000821015610a3c576e040000000000000000000000000000821015610a31576e020000000000000000000000000000821015610a2a576070610a34565b6071610a34565b60725b60ff16610a45565b610a458261102e565b905083614071018186011115610a6357617fff945060009150610afd565b83818601613ffc011015610a7e576000945060009150610afd565b83818601613f8c011015610acb578385613ffc011115610aa9578385613ffc010382901b9150610ac2565b8385613ffc011015610ac257613ffc8585030382901c91505b60009450610afd565b6070811115610ade576070810382901c91505b6dffffffffffffffffffffffffffff8216915083818601613f8d010394505b81607086901b888a186f8000000000000000000000000000000060801b1660801c6fffffffffffffffffffffffffffffffff16171760801b955050505050505b92915050565b6000610b71837f800000000000000000000000000000000000000000000000000000000000000084186110de565b9392505050565b6000617fff60f084811c8216919084901c811690829003610ccb5780617fff03610c76577fffffffffffffffffffffffffffffffff0000000000000000000000000000000080851690861603610bf5575050507f800000000000000000000000000000000000000000000000000000000000000081168218610b3d565b7fffffffffffffffffffffffffffffffff00000000000000000000000000000000858518167f800000000000000000000000000000000000000000000000000000000000000003610c4b57505050818117610b3d565b507f7fff8000000000000000000000000000000000000000000000000000000000009150610b3d9050565b7f7fffffffffffffffffffffffffffffff00000000000000000000000000000000841660000361070f57507f7fff8000000000000000000000000000000000000000000000000000000000009150610b3d9050565b80617fff03610d56577f7fffffffffffffffffffffffffffffff000000000000000000000000000000008516600003610d2957507f7fff8000000000000000000000000000000000000000000000000000000000009150610b3d9050565b5050507f800000000000000000000000000000000000000000000000000000000000000082168118610b3d565b6dffffffffffffffffffffffffffff608086901c166000839003610d7d5760019250610d8f565b6e010000000000000000000000000000175b6dffffffffffffffffffffffffffff608086901c166000839003610db65760019250610dc8565b6e010000000000000000000000000000175b808202915081600003610e05577f8000000000000000000000000000000000000000000000000000000000000000878718166109915760006109b3565b9282019260007c0200000000000000000000000000000000000000000000000000000000831015610e6a577c0100000000000000000000000000000000000000000000000000000000831015610e6357610e5e8361102e565b610e6d565b60e0610e6d565b60e15b90506140708186011015610e88576000945060009250610f2c565b6140e08186011015610ecb57614070851015610ead57846140700383901c9250610ec2565b614070851115610ec257614070850383901b92505b60009450610f2c565b61c0dd8186011115610ee557617fff945060009250610f2c565b6070811115610efc576070810383901c9250610f0f565b6070811015610f0f578060700383901b92505b6dffffffffffffffffffffffffffff831692506140df8186010394505b82607086901b888a186f8000000000000000000000000000000060801b1660801c6fffffffffffffffffffffffffffffffff16171760801b95505050505050610b3d565b6000617fff60f083901c16613fff811015610f8e5750600092915050565b6f80000000000000000000000000000000608084901c10610fae57600080fd5b6140fe811115610fbd57600080fd5b6e0100000000000000000000000000006dffffffffffffffffffffffffffff608085901c161761406f821015610ff95761406f8290031c610b71565b61406f821115610b71577fffffffffffffffffffffffffffffffffffffffffffffffffffffffffffffbf9182011b9392505050565b600080821161103c57600080fd5b6000700100000000000000000000000000000000831061105e57608092831c92015b68010000000000000000831061107657604092831c92015b640100000000831061108a57602092831c92015b62010000831061109c57601092831c92015b61010083106110ad57600892831c92015b601083106110bd57600492831c92015b600483106110cd57600292831c92015b60028310610b3d5760010192915050565b6000617fff60f084811c8216919084901c8116908290036111425780617fff03611138577fffffffffffffffffffffffffffffffff0000000000000000000000000000000080851690861603610c4b578492505050610b3d565b8492505050610b3d565b80617fff03611155578392505050610b3d565b6f80000000000000000000000000000000608086901c90811015906dffffffffffffffffffffffffffff16600084900361119257600193506111a4565b6e010000000000000000000000000000175b6f80000000000000000000000000000000608087901c90811015906dffffffffffffffffffffffffffff1660008590036111e157600194506111f3565b6e010000000000000000000000000000175b8260000361125a577fffffffffffffffffffffffffffffffff0000000000000000000000000000000088167f80000000000000000000000000000000000000000000000000000000000000001461124a578761124d565b60005b9650505050505050610b3d565b806000036112b1577fffffffffffffffffffffffffffffffff0000000000000000000000000000000089167f80000000000000000000000000000000000000000000000000000000000000001461124a578861124d565b8486038215158515150361143d5760708113156112d75789975050505050505050610b3d565b60008113156112e95790811c90611336565b7fffffffffffffffffffffffffffffffffffffffffffffffffffffffffffffff908112156113205788975050505050505050610b3d565b6000811215611336578060000384901c93508596505b928101926e020000000000000000000000000000841061135c576001968701969390931c925b86617fff036113c05784611390577f7fff0000000000000000000000000000000000000000000000000000000000006113b2565b7fffff0000000000000000000000000000000000000000000000000000000000005b975050505050505050610b3d565b6e0100000000000000000000000000008410156113e057600096506113f4565b6dffffffffffffffffffffffffffff841693505b83607088901b86611406576000611418565b6f800000000000000000000000000000005b6fffffffffffffffffffffffffffffffff16171760801b975050505050505050610b3d565b600081131561145857600184901b935060018703965061146f565b600081121561146f57600182901b91506001860396505b6070811315611481576001915061150a565b600181131561149e576001810360018303901c600101915061150a565b7fffffffffffffffffffffffffffffffffffffffffffffffffffffffffffffff908112156114cf576001935061150a565b7fffffffffffffffffffffffffffffffffffffffffffffffffffffffffffffffff81121561150a576001816000030360018503901c60010193505b81841061151b578184039350611524565b83820393508294505b8360000361153d575060009650610b3d95505050505050565b60006115488561102e565b90508060710361157457600185901c6dffffffffffffffffffffffffffff1694506001880197506115ef565b60708110156115db576070819003808911156115aa578086901b6dffffffffffffffffffffffffffff16955080890398506115d5565b6000987fffffffffffffffffffffffffffffffffffffffffffffffffffffffffffffffff019590951b945b506115ef565b6dffffffffffffffffffffffffffff851694505b87617fff036116545785611623577f7fff000000000000000000000000000000000000000000000000000000000000611645565b7fffff0000000000000000000000000000000000000000000000000000000000005b98505050505050505050610b3d565b84607089901b87611666576000611678565b6f800000000000000000000000000000005b6fffffffffffffffffffffffffffffffff16171760801b98505050505050505050610b3d565b6000602082840312156116b057600080fd5b5035919050565b6000602082840312156116c957600080fd5b815173ffffffffffffffffffffffffffffffffffffffff81168114610b7157600080fd5b6000602082840312156116ff57600080fd5b5051919050565b7f4e487b7100000000000000000000000000000000000000000000000000000000600052601260045260246000fd5b7f4e487b7100000000000000000000000000000000000000000000000000000000600052600160045260246000fdfea2646970667358221220bed54bb3fca2bc36914faf65a2fb8c76ee9f6b51256c7d5f0854c6e1972a991464736f6c63430008100033",
    "linkReferences": {}
  },
  "methodIdentifiers": {
    "getCouponAmount(uint256)": "9172dd23",
    "manager()": "481c6a75"
  },
  "id": 49
}