{
  "abi": [
    {
      "inputs": [
        {
          "internalType": "address",
          "name": "_pool",
          "type": "address"
        },
        {
          "internalType": "address",
          "name": "_uADtoken0",
          "type": "address"
        },
        {
          "internalType": "address",
          "name": "_curve3CRVtoken1",
          "type": "address"
        }
      ],
      "stateMutability": "nonpayable",
      "type": "constructor"
    },
    {
      "inputs": [
        {
          "internalType": "address",
          "name": "token",
          "type": "address"
        }
      ],
      "name": "consult",
      "outputs": [
        {
          "internalType": "uint256",
          "name": "amountOut",
          "type": "uint256"
        }
      ],
      "stateMutability": "view",
      "type": "function"
    },
    {
      "inputs": [],
      "name": "pool",
      "outputs": [
        {
          "internalType": "address",
          "name": "",
          "type": "address"
        }
      ],
      "stateMutability": "view",
      "type": "function"
    },
    {
      "inputs": [],
      "name": "price0Average",
      "outputs": [
        {
          "internalType": "uint256",
          "name": "",
          "type": "uint256"
        }
      ],
      "stateMutability": "view",
      "type": "function"
    },
    {
      "inputs": [],
      "name": "price1Average",
      "outputs": [
        {
          "internalType": "uint256",
          "name": "",
          "type": "uint256"
        }
      ],
      "stateMutability": "view",
      "type": "function"
    },
    {
      "inputs": [
        {
          "internalType": "uint256",
          "name": "",
          "type": "uint256"
        }
      ],
      "name": "priceCumulativeLast",
      "outputs": [
        {
          "internalType": "uint256",
          "name": "",
          "type": "uint256"
        }
      ],
      "stateMutability": "view",
      "type": "function"
    },
    {
      "inputs": [],
      "name": "pricesBlockTimestampLast",
      "outputs": [
        {
          "internalType": "uint256",
          "name": "",
          "type": "uint256"
        }
      ],
      "stateMutability": "view",
      "type": "function"
    },
    {
      "inputs": [],
      "name": "token0",
      "outputs": [
        {
          "internalType": "address",
          "name": "",
          "type": "address"
        }
      ],
      "stateMutability": "view",
      "type": "function"
    },
    {
      "inputs": [],
      "name": "token1",
      "outputs": [
        {
          "internalType": "address",
          "name": "",
          "type": "address"
        }
      ],
      "stateMutability": "view",
      "type": "function"
    },
    {
      "inputs": [],
      "name": "update",
      "outputs": [],
      "stateMutability": "nonpayable",
      "type": "function"
    }
  ],
  "bytecode": {
    "object": "0x60e06040523480156200001157600080fd5b5060405162000fee38038062000fee83398101604081905262000034916200050f565b6001600160a01b03838116608081905260405163c661065760e01b8152600060048201529184169163c66106579060240160206040518083038186803b1580156200007e57600080fd5b505afa15801562000093573d6000803e3d6000fd5b505050506040513d601f19601f82011682018060405250810190620000b9919062000559565b6001600160a01b031614801562000157575060405163c661065760e01b8152600160048201526001600160a01b03808316919085169063c66106579060240160206040518083038186803b1580156200011157600080fd5b505afa15801562000126573d6000803e3d6000fd5b505050506040513d601f19601f820116820180604052508101906200014c919062000559565b6001600160a01b0316145b620001a95760405162461bcd60e51b815260206004820152601f60248201527f545741504f7261636c653a20434f494e5f4f524445525f4d49534d415443480060448201526064015b60405180910390fd5b6001600160a01b0382811660a05281811660c052604051634903b0d160e01b815260006004820181905291851690634903b0d19060240160206040518083038186803b158015620001f957600080fd5b505afa1580156200020e573d6000803e3d6000fd5b505050506040513d601f19601f820116820180604052508101906200023491906200057e565b6001600160701b031690506000846001600160a01b0316634903b0d160016040518263ffffffff1660e01b81526004016200027191815260200190565b60206040518083038186803b1580156200028a57600080fd5b505afa1580156200029f573d6000803e3d6000fd5b505050506040513d601f19601f82011682018060405250810190620002c591906200057e565b6001600160701b031690508115801590620002df57508015155b6200032d5760405162461bcd60e51b815260206004820152601760248201527f545741504f7261636c653a204e4f5f52455345525645530000000000000000006044820152606401620001a0565b8082146200037e5760405162461bcd60e51b815260206004820152601b60248201527f545741504f7261636c653a20504149525f554e42414c414e43454400000000006044820152606401620001a0565b846001600160a01b0316634469e30e6040518163ffffffff1660e01b8152600401604080518083038186803b158015620003b757600080fd5b505afa158015620003cc573d6000803e3d6000fd5b505050506040513d601f19601f82011682018060405250810190620003f2919062000598565b6200040290600390600262000498565b50846001600160a01b03166363543f066040518163ffffffff1660e01b815260040160206040518083038186803b1580156200043d57600080fd5b505afa15801562000452573d6000803e3d6000fd5b505050506040513d601f19601f820116820180604052508101906200047891906200057e565b6002555050670de0b6b3a76400006000819055600155506200062b915050565b8260028101928215620004c9579160200282015b82811115620004c9578251825591602001919060010190620004ac565b50620004d7929150620004db565b5090565b5b80821115620004d75760008155600101620004dc565b80516001600160a01b03811681146200050a57600080fd5b919050565b6000806000606084860312156200052557600080fd5b6200053084620004f2565b92506200054060208501620004f2565b91506200055060408501620004f2565b90509250925092565b6000602082840312156200056c57600080fd5b6200057782620004f2565b9392505050565b6000602082840312156200059157600080fd5b5051919050565b600060408284031215620005ab57600080fd5b82601f830112620005bb57600080fd5b604080519081016001600160401b0381118282101715620005ec57634e487b7160e01b600052604160045260246000fd5b80604052508060408401858111156200060457600080fd5b845b818110156200062057805183526020928301920162000606565b509195945050505050565b60805160a05160c0516109636200068b6000396000818161017e015261020001526000818160c901526101a4015260008181610115015281816102ff015281816103f7015281816104ce01528181610588015261062701526109636000f3fe608060405234801561001057600080fd5b50600436106100a35760003560e01c80635e6aaf2c11610076578063a2e620451161005b578063a2e6204514610166578063a6bb453914610170578063d21220a71461017957600080fd5b80635e6aaf2c1461014a5780637536a2911461015357600080fd5b80630301b16e146100a85780630dfe1681146100c457806316f0115b14610110578063283583c614610137575b600080fd5b6100b160025481565b6040519081526020015b60405180910390f35b6100eb7f000000000000000000000000000000000000000000000000000000000000000081565b60405173ffffffffffffffffffffffffffffffffffffffff90911681526020016100bb565b6100eb7f000000000000000000000000000000000000000000000000000000000000000081565b6100b161014536600461073a565b6101a0565b6100b160015481565b6100b1610161366004610777565b6102bf565b61016e6102d6565b005b6100b160005481565b6100eb7f000000000000000000000000000000000000000000000000000000000000000081565b60007f000000000000000000000000000000000000000000000000000000000000000073ffffffffffffffffffffffffffffffffffffffff168273ffffffffffffffffffffffffffffffffffffffff1614156101fe57505060005490565b7f000000000000000000000000000000000000000000000000000000000000000073ffffffffffffffffffffffffffffffffffffffff168273ffffffffffffffffffffffffffffffffffffffff16146102b7576040517f08c379a000000000000000000000000000000000000000000000000000000000815260206004820152601960248201527f545741504f7261636c653a20494e56414c49445f544f4b454e00000000000000604482015260640160405180910390fd5b505060015490565b600381600281106102cf57600080fd5b0154905081565b6000806102e161057c565b915091506000600254826102f59190610790565b11156105785760007f000000000000000000000000000000000000000000000000000000000000000073ffffffffffffffffffffffffffffffffffffffff16630f6ba8e36003856002548661034a9190610790565b6040518463ffffffff1660e01b8152600401610368939291906107f7565b604080518083038186803b15801561037f57600080fd5b505afa158015610393573d6000803e3d6000fd5b505050506040513d601f19601f820116820180604052508101906103b7919061083d565b6040517f7e42fc0c00000000000000000000000000000000000000000000000000000000815290915073ffffffffffffffffffffffffffffffffffffffff7f00000000000000000000000000000000000000000000000000000000000000001690637e42fc0c9061043c90600090600190670de0b6b3a76400009087906004016108e4565b60206040518083038186803b15801561045457600080fd5b505afa158015610468573d6000803e3d6000fd5b505050506040513d601f19601f8201168201806040525081019061048c9190610914565b60009081556040517f7e42fc0c00000000000000000000000000000000000000000000000000000000815273ffffffffffffffffffffffffffffffffffffffff7f00000000000000000000000000000000000000000000000000000000000000001691637e42fc0c9161051091600191670de0b6b3a76400009087906004016108e4565b60206040518083038186803b15801561052857600080fd5b505afa15801561053c573d6000803e3d6000fd5b505050506040513d601f19601f820116820180604052508101906105609190610914565b60015561057060038460026106c9565b505060028190555b5050565b610584610707565b60007f000000000000000000000000000000000000000000000000000000000000000073ffffffffffffffffffffffffffffffffffffffff16634469e30e6040518163ffffffff1660e01b8152600401604080518083038186803b1580156105eb57600080fd5b505afa1580156105ff573d6000803e3d6000fd5b505050506040513d601f19601f82011682018060405250810190610623919061083d565b91507f000000000000000000000000000000000000000000000000000000000000000073ffffffffffffffffffffffffffffffffffffffff166363543f066040518163ffffffff1660e01b815260040160206040518083038186803b15801561068b57600080fd5b505afa15801561069f573d6000803e3d6000fd5b505050506040513d601f19601f820116820180604052508101906106c39190610914565b90509091565b82600281019282156106f7579160200282015b828111156106f75782518255916020019190600101906106dc565b50610703929150610725565b5090565b60405180604001604052806002906020820280368337509192915050565b5b808211156107035760008155600101610726565b60006020828403121561074c57600080fd5b813573ffffffffffffffffffffffffffffffffffffffff8116811461077057600080fd5b9392505050565b60006020828403121561078957600080fd5b5035919050565b6000828210156107c9577f4e487b7100000000000000000000000000000000000000000000000000000000600052601160045260246000fd5b500390565b8060005b60028110156107f15781518452602093840193909101906001016107d2565b50505050565b60a08101818560005b600281101561081f578154835260209092019160019182019101610800565b50505061082f60408301856107ce565b826080830152949350505050565b60006040828403121561084f57600080fd5b82601f83011261085e57600080fd5b6040516040810181811067ffffffffffffffff821117156108a8577f4e487b7100000000000000000000000000000000000000000000000000000000600052604160045260246000fd5b80604052508060408401858111156108bf57600080fd5b845b818110156108d95780518352602092830192016108c1565b509195945050505050565b600f85810b825284900b60208201526040810183905260a0810161090b60608301846107ce565b95945050505050565b60006020828403121561092657600080fd5b505191905056fea2646970667358221220aa44afc9ebc25b8e1e95b98349cd4e09137596148ed8557545f8f6a4f791867764736f6c63430008090033",
    "linkReferences": {}
  },
  "methodIdentifiers": {
    "consult(address)": "283583c6",
    "pool()": "16f0115b",
    "price0Average()": "a6bb4539",
    "price1Average()": "5e6aaf2c",
    "priceCumulativeLast(uint256)": "7536a291",
    "pricesBlockTimestampLast()": "0301b16e",
    "token0()": "0dfe1681",
    "token1()": "d21220a7",
    "update()": "a2e62045"
  },
  "id": 48
}