{
  "abi": [
    {
      "inputs": [
        {
          "internalType": "address",
          "name": "_token0",
          "type": "address"
        },
        {
          "internalType": "address",
          "name": "_token1",
          "type": "address"
        }
      ],
      "stateMutability": "nonpayable",
      "type": "constructor"
    },
    {
      "inputs": [
        {
          "internalType": "uint256",
          "name": "",
          "type": "uint256"
        }
      ],
      "name": "balances",
      "outputs": [
        {
          "internalType": "uint256",
          "name": "",
          "type": "uint256"
        }
      ],
      "stateMutability": "view",
      "type": "function"
    },
    {
      "inputs": [],
      "name": "block_timestamp_last",
      "outputs": [
        {
          "internalType": "uint256",
          "name": "",
          "type": "uint256"
        }
      ],
      "stateMutability": "view",
      "type": "function"
    },
    {
      "inputs": [
        {
          "internalType": "uint256",
          "name": "",
          "type": "uint256"
        }
      ],
      "name": "coins",
      "outputs": [
        {
          "internalType": "address",
          "name": "",
          "type": "address"
        }
      ],
      "stateMutability": "view",
      "type": "function"
    },
    {
      "inputs": [
        {
          "internalType": "uint256",
          "name": "",
          "type": "uint256"
        }
      ],
      "name": "dy_values",
      "outputs": [
        {
          "internalType": "uint256",
          "name": "",
          "type": "uint256"
        }
      ],
      "stateMutability": "view",
      "type": "function"
    },
    {
      "inputs": [
        {
          "internalType": "int128",
          "name": "i",
          "type": "int128"
        },
        {
          "internalType": "int128",
          "name": "j",
          "type": "int128"
        },
        {
          "internalType": "uint256",
          "name": "dx",
          "type": "uint256"
        },
        {
          "internalType": "uint256[2]",
          "name": "_balances",
          "type": "uint256[2]"
        }
      ],
      "name": "get_dy",
      "outputs": [
        {
          "internalType": "uint256",
          "name": "",
          "type": "uint256"
        }
      ],
      "stateMutability": "view",
      "type": "function"
    },
    {
      "inputs": [],
      "name": "get_price_cumulative_last",
      "outputs": [
        {
          "internalType": "uint256[2]",
          "name": "",
          "type": "uint256[2]"
        }
      ],
      "stateMutability": "view",
      "type": "function"
    },
    {
      "inputs": [
        {
          "internalType": "uint256[2]",
          "name": "_first_balances",
          "type": "uint256[2]"
        },
        {
          "internalType": "uint256[2]",
          "name": "_last_balances",
          "type": "uint256[2]"
        },
        {
          "internalType": "uint256",
          "name": "_time_elapsed",
          "type": "uint256"
        }
      ],
      "name": "get_twap_balances",
      "outputs": [
        {
          "internalType": "uint256[2]",
          "name": "",
          "type": "uint256[2]"
        }
      ],
      "stateMutability": "view",
      "type": "function"
    },
    {
      "inputs": [
        {
          "internalType": "uint256[2]",
          "name": "_price_cumulative_last",
          "type": "uint256[2]"
        },
        {
          "internalType": "uint256",
          "name": "_last_block_timestamp",
          "type": "uint256"
        },
        {
          "internalType": "uint256[2]",
          "name": "_twap_balances",
          "type": "uint256[2]"
        },
        {
          "internalType": "uint256[2]",
          "name": "_dy_values",
          "type": "uint256[2]"
        }
      ],
      "name": "updateMockParams",
      "outputs": [],
      "stateMutability": "nonpayable",
      "type": "function"
    }
  ],
  "bytecode": {
    "object": "0x60c0604052678ac7230489e80000608081815260a0919091526100269060049060026100de565b506040805180820190915268056bc75e2d631000008082526020820152610051906006906002610127565b5060408051808201909152678ac7230489e80000808252602082015261007b9060089060026100de565b50612710600a5534801561008e57600080fd5b506040516107103803806107108339810160408190526100ad91610191565b600280546001600160a01b039384166001600160a01b031991821617909155600380549290931691161790556101c4565b8260028101928215610117579160200282015b8281111561011757825182906001600160401b03169055916020019190600101906100f1565b50610123929150610160565b5090565b8260028101928215610117579160200282015b8281111561011757825182906001600160481b031690559160200191906001019061013a565b5b808211156101235760008155600101610161565b80516001600160a01b038116811461018c57600080fd5b919050565b600080604083850312156101a457600080fd5b6101ad83610175565b91506101bb60208401610175565b90509250929050565b61053d806101d36000396000f3fe608060405234801561001057600080fd5b50600436106100885760003560e01c806363543f061161005b57806363543f06146100f25780637e42fc0c146100fa578063c66106571461010d578063dda647a41461014557600080fd5b80630f6ba8e31461008d5780632cd7dcae146100b65780634469e30e146100d75780634903b0d1146100df575b600080fd5b6100a061009b3660046103be565b61015a565b6040516100ad91906103fc565b60405180910390f35b6100c96100c436600461042d565b610198565b6040519081526020016100ad565b6100a06101af565b6100c96100ed36600461042d565b6101e9565b600a546100c9565b6100c961010836600461045d565b6101f9565b61012061011b36600461042d565b610254565b60405173ffffffffffffffffffffffffffffffffffffffff90911681526020016100ad565b6101586101533660046104c2565b610281565b005b6101626102b6565b60408051808201918290529060049060029082845b81548152602001906001019080831161017757505050505090509392505050565b600681600281106101a857600080fd5b0154905081565b6101b76102b6565b60408051808201918290529060089060029082845b8154815260200190600101908083116101cc575050505050905090565b600481600281106101a857600080fd5b600084600f0b6000148015610211575083600f0b6001145b1561022457600660015b0154905061024c565b84600f0b600114801561023a575083600f0b6000145b15610248576006600061021b565b5060005b949350505050565b6002816002811061026457600080fd5b015473ffffffffffffffffffffffffffffffffffffffff16905081565b61028e60088560026102d4565b50600a8390556102a160048360026102d4565b506102af60068260026102d4565b5050505050565b60405180604001604052806002906020820280368337509192915050565b8260028101928215610302579160200282015b828111156103025782358255916020019190600101906102e7565b5061030e929150610312565b5090565b5b8082111561030e5760008155600101610313565b600082601f83011261033857600080fd5b6040516040810181811067ffffffffffffffff82111715610382577f4e487b7100000000000000000000000000000000000000000000000000000000600052604160045260246000fd5b806040525080604084018581111561039957600080fd5b845b818110156103b357803583526020928301920161039b565b509195945050505050565b600080600060a084860312156103d357600080fd5b6103dd8585610327565b92506103ec8560408601610327565b9150608084013590509250925092565b60408101818360005b6002811015610424578151835260209283019290910190600101610405565b50505092915050565b60006020828403121561043f57600080fd5b5035919050565b8035600f81900b811461045857600080fd5b919050565b60008060008060a0858703121561047357600080fd5b61047c85610446565b935061048a60208601610446565b9250604085013591506104a08660608701610327565b905092959194509250565b80604081018310156104bc57600080fd5b92915050565b60008060008060e085870312156104d857600080fd5b6104e286866104ab565b9350604085013592506104f886606087016104ab565b91506104a08660a087016104ab56fea26469706673582212201478d45f494bd6a3897c6b5a0941dde28d0b484b7d82d665d813e3c950d2be3b64736f6c63430008100033",
    "linkReferences": {}
  },
  "methodIdentifiers": {
    "balances(uint256)": "4903b0d1",
    "block_timestamp_last()": "63543f06",
    "coins(uint256)": "c6610657",
    "dy_values(uint256)": "2cd7dcae",
    "get_dy(int128,int128,uint256,uint256[2])": "7e42fc0c",
    "get_price_cumulative_last()": "4469e30e",
    "get_twap_balances(uint256[2],uint256[2],uint256)": "0f6ba8e3",
    "updateMockParams(uint256[2],uint256,uint256[2],uint256[2])": "dda647a4"
  },
  "id": 91
}