{
  "abi": [
    {
      "inputs": [
        {
          "internalType": "address",
          "name": "_manager",
          "type": "address"
        }
      ],
      "stateMutability": "nonpayable",
      "type": "constructor"
    },
    {
      "inputs": [],
      "name": "getDollarsToMint",
      "outputs": [
        {
          "internalType": "uint256",
          "name": "",
          "type": "uint256"
        }
      ],
      "stateMutability": "view",
      "type": "function"
    },
    {
      "inputs": [],
      "name": "manager",
      "outputs": [
        {
          "internalType": "contract UbiquityAlgorithmicDollarManager",
          "name": "",
          "type": "address"
        }
      ],
      "stateMutability": "view",
      "type": "function"
    }
  ],
  "bytecode": {
    "object": "0x60a060405262000022670de0b6b3a76400006200008560201b6200052f1760201c565b6001600160801b0319166080523480156200003c57600080fd5b5060405162001825380380620018258339810160408190526200005f916200019c565b600080546001600160a01b0319166001600160a01b0392909216919091179055620001ce565b6000816200009557506000919050565b816000620000a382620000ef565b90506070811015620000be578060700382901b9150620000d2565b6070811115620000d2576070810382901c91505b613fff0160701b6001600160701b03919091161760801b92915050565b6000808211620000fe57600080fd5b6000600160801b83106200011457608092831c92015b6801000000000000000083106200012d57604092831c92015b64010000000083106200014257602092831c92015b6201000083106200015557601092831c92015b61010083106200016757600892831c92015b601083106200017857600492831c92015b600483106200018957600292831c92015b6002831062000196576001015b92915050565b600060208284031215620001af57600080fd5b81516001600160a01b0381168114620001c757600080fd5b9392505050565b608051611634620001f16000396000818161031a015261048901526116346000f3fe608060405234801561001057600080fd5b50600436106100365760003560e01c8063481c6a751461003b578063764263cf14610085575b600080fd5b60005461005b9073ffffffffffffffffffffffffffffffffffffffff1681565b60405173ffffffffffffffffffffffffffffffffffffffff90911681526020015b60405180910390f35b61008d61009b565b60405190815260200161007c565b60008054604080517f8fe636830000000000000000000000000000000000000000000000000000000081529051839273ffffffffffffffffffffffffffffffffffffffff1691638fe63683916004808301926020929190829003018186803b15801561010657600080fd5b505afa15801561011a573d6000803e3d6000fd5b505050506040513d601f19601f8201168201806040525081019061013e9190611551565b905060008173ffffffffffffffffffffffffffffffffffffffff1663283583c660008054906101000a900473ffffffffffffffffffffffffffffffffffffffff1673ffffffffffffffffffffffffffffffffffffffff1663bc3ea0186040518163ffffffff1660e01b815260040160206040518083038186803b1580156101c457600080fd5b505afa1580156101d8573d6000803e3d6000fd5b505050506040513d601f19601f820116820180604052508101906101fc9190611551565b6040517fffffffff0000000000000000000000000000000000000000000000000000000060e084901b16815273ffffffffffffffffffffffffffffffffffffffff909116600482015260240160206040518083038186803b15801561026057600080fd5b505afa158015610274573d6000803e3d6000fd5b505050506040513d601f19601f820116820180604052508101906102989190611587565b9050670de0b6b3a7640000811161030f576040517f08c379a000000000000000000000000000000000000000000000000000000000815260206004820181905260248201527f446f6c6c61724d696e74696e6743616c63756c61746f723a206e6f74203e2031604482015260640160405180910390fd5b6105286105016104847f000000000000000000000000000000000000000000000000000000000000000061045c60008054906101000a900473ffffffffffffffffffffffffffffffffffffffff1673ffffffffffffffffffffffffffffffffffffffff1663bc3ea0186040518163ffffffff1660e01b815260040160206040518083038186803b1580156103a257600080fd5b505afa1580156103b6573d6000803e3d6000fd5b505050506040513d601f19601f820116820180604052508101906103da9190611551565b73ffffffffffffffffffffffffffffffffffffffff166318160ddd6040518163ffffffff1660e01b815260040160206040518083038186803b15801561041f57600080fd5b505afa158015610433573d6000803e3d6000fd5b505050506040513d601f19601f820116820180604052508101906104579190611587565b61052f565b7fffffffffffffffffffffffffffffffff00000000000000000000000000000000169061059a565b6104d97f00000000000000000000000000000000000000000000000000000000000000006104b18661052f565b7fffffffffffffffffffffffffffffffff000000000000000000000000000000001690610a0e565b7fffffffffffffffffffffffffffffffff000000000000000000000000000000001690610a43565b7fffffffffffffffffffffffffffffffff0000000000000000000000000000000016610e2d565b9250505090565b60008161053e57506000919050565b81600061054a82610eeb565b90506070811015610563578060700382901b9150610576565b6070811115610576576070810382901c91505b613fff0160701b6dffffffffffffffffffffffffffff919091161760801b92915050565b6000617fff60f084811c8216919084901c8116908214156106175780617fff14156105ea57507f7fff8000000000000000000000000000000000000000000000000000000000009150610a089050565b5050507f800000000000000000000000000000000000000000000000000000000000000081168218610a08565b80617fff141561069f577dffffffffffffffffffffffffffff0000000000000000000000000000000084161561067257507f7fff8000000000000000000000000000000000000000000000000000000000009150610a089050565b5050508082187f800000000000000000000000000000000000000000000000000000000000000016610a08565b7f7fffffffffffffffffffffffffffffff000000000000000000000000000000008416610767577f7fffffffffffffffffffffffffffffff00000000000000000000000000000000851661071857507f7fff8000000000000000000000000000000000000000000000000000000000009150610a089050565b5050508082187f8000000000000000000000000000000000000000000000000000000000000000167f7fff00000000000000000000000000000000000000000000000000000000000017610a08565b6dffffffffffffffffffffffffffff608085901c168161078a576001915061079c565b6e010000000000000000000000000000175b6dffffffffffffffffffffffffffff608087901c16836108005780156107fb5760006107c782610eeb565b6001955060e2039384017fffffffffffffffffffffffffffffffffffffffffffffffffffffffffffffff8e01939190911b90505b610815565b6e0100000000000000000000000000001760721b5b818181610824576108246115a0565b04905080610889577f80000000000000000000000000000000000000000000000000000000000000008787181661085c57600061087e565b7f80000000000000000000000000000000000000000000000000000000000000005b945050505050610a08565b6d10000000000000000000000000008110156108a7576108a76115cf565b60006e080000000000000000000000000000821015610907576e0400000000000000000000000000008210156108fc576e0200000000000000000000000000008210156108f55760706108ff565b60716108ff565b60725b60ff16610910565b61091082610eeb565b90508361407101818601111561092e57617fff9450600091506109c8565b83818601613ffc0110156109495760009450600091506109c8565b83818601613f8c011015610996578385613ffc011115610974578385613ffc010382901b915061098d565b8385613ffc01101561098d57613ffc8585030382901c91505b600094506109c8565b60708111156109a9576070810382901c91505b6dffffffffffffffffffffffffffff8216915083818601613f8d010394505b81607086901b888a186f8000000000000000000000000000000060801b1660801c6fffffffffffffffffffffffffffffffff16171760801b955050505050505b92915050565b6000610a3c837f80000000000000000000000000000000000000000000000000000000000000008418610f9b565b9392505050565b6000617fff60f084811c8216919084901c811690821415610b965780617fff1415610b44577fffffffffffffffffffffffffffffffff000000000000000000000000000000008581169085161415610ac2575050507f800000000000000000000000000000000000000000000000000000000000000081168218610a08565b7f80000000000000000000000000000000000000000000000000000000000000007fffffffffffffffffffffffffffffffff00000000000000000000000000000000868618161415610b1957505050818117610a08565b507f7fff8000000000000000000000000000000000000000000000000000000000009150610a089050565b7f7fffffffffffffffffffffffffffffff0000000000000000000000000000000084166105ea57507f7fff8000000000000000000000000000000000000000000000000000000000009150610a089050565b80617fff1415610c1f577f7fffffffffffffffffffffffffffffff000000000000000000000000000000008516610bf257507f7fff8000000000000000000000000000000000000000000000000000000000009150610a089050565b5050507f800000000000000000000000000000000000000000000000000000000000000082168118610a08565b6dffffffffffffffffffffffffffff608086901c1682610c425760019250610c54565b6e010000000000000000000000000000175b6dffffffffffffffffffffffffffff608086901c1682610c775760019250610c89565b6e010000000000000000000000000000175b9081029081610cc2577f80000000000000000000000000000000000000000000000000000000000000008787181661085c57600061087e565b9282019260007c0200000000000000000000000000000000000000000000000000000000831015610d27577c0100000000000000000000000000000000000000000000000000000000831015610d2057610d1b83610eeb565b610d2a565b60e0610d2a565b60e15b90506140708186011015610d45576000945060009250610de9565b6140e08186011015610d8857614070851015610d6a57846140700383901c9250610d7f565b614070851115610d7f57614070850383901b92505b60009450610de9565b61c0dd8186011115610da257617fff945060009250610de9565b6070811115610db9576070810383901c9250610dcc565b6070811015610dcc578060700383901b92505b6dffffffffffffffffffffffffffff831692506140df8186010394505b82607086901b888a186f8000000000000000000000000000000060801b1660801c6fffffffffffffffffffffffffffffffff16171760801b95505050505050610a08565b6000617fff60f083901c16613fff811015610e4b5750600092915050565b6f80000000000000000000000000000000608084901c10610e6b57600080fd5b6140fe811115610e7a57600080fd5b6e0100000000000000000000000000006dffffffffffffffffffffffffffff608085901c161761406f821015610eb65761406f8290031c610a3c565b61406f821115610a3c577fffffffffffffffffffffffffffffffffffffffffffffffffffffffffffffbf9182011b9392505050565b6000808211610ef957600080fd5b60007001000000000000000000000000000000008310610f1b57608092831c92015b680100000000000000008310610f3357604092831c92015b6401000000008310610f4757602092831c92015b620100008310610f5957601092831c92015b6101008310610f6a57600892831c92015b60108310610f7a57600492831c92015b60048310610f8a57600292831c92015b60028310610a085760010192915050565b6000617fff60f084811c8216919084901c8116908214156110015780617fff1415610ff7577fffffffffffffffffffffffffffffffff000000000000000000000000000000008581169085161415610b19578492505050610a08565b8492505050610a08565b80617fff1415611015578392505050610a08565b6f80000000000000000000000000000000608086901c90811015906dffffffffffffffffffffffffffff168361104e5760019350611060565b6e010000000000000000000000000000175b6f80000000000000000000000000000000608087901c90811015906dffffffffffffffffffffffffffff168461109957600194506110ab565b6e010000000000000000000000000000175b8261110f577fffffffffffffffffffffffffffffffff0000000000000000000000000000000088167f8000000000000000000000000000000000000000000000000000000000000000146110ff5787611102565b60005b9650505050505050610a08565b80611163577fffffffffffffffffffffffffffffffff0000000000000000000000000000000089167f8000000000000000000000000000000000000000000000000000000000000000146110ff5788611102565b84860384151583151514156112f157607081131561118a5789975050505050505050610a08565b600081131561119c5790811c906111e9565b7fffffffffffffffffffffffffffffffffffffffffffffffffffffffffffffff908112156111d35788975050505050505050610a08565b60008112156111e9578060000384901c93508596505b928101926e020000000000000000000000000000841061120f576001968701969390931c925b86617fff14156112745784611244577f7fff000000000000000000000000000000000000000000000000000000000000611266565b7fffff0000000000000000000000000000000000000000000000000000000000005b975050505050505050610a08565b6e01000000000000000000000000000084101561129457600096506112a8565b6dffffffffffffffffffffffffffff841693505b83607088901b866112ba5760006112cc565b6f800000000000000000000000000000005b6fffffffffffffffffffffffffffffffff16171760801b975050505050505050610a08565b600081131561130c57600184901b9350600187039650611323565b600081121561132357600182901b91506001860396505b607081131561133557600191506113be565b6001811315611352576001810360018303901c60010191506113be565b7fffffffffffffffffffffffffffffffffffffffffffffffffffffffffffffff9081121561138357600193506113be565b7fffffffffffffffffffffffffffffffffffffffffffffffffffffffffffffffff8112156113be576001816000030360018503901c60010193505b8184106113cf5781840393506113d8565b83820393508294505b836113ee575060009650610a0895505050505050565b60006113f985610eeb565b9050806071141561142657600185901c6dffffffffffffffffffffffffffff1694506001880197506114a1565b607081101561148d5760708190038089111561145c578086901b6dffffffffffffffffffffffffffff1695508089039850611487565b6000987fffffffffffffffffffffffffffffffffffffffffffffffffffffffffffffffff019590951b945b506114a1565b6dffffffffffffffffffffffffffff851694505b87617fff141561150757856114d6577f7fff0000000000000000000000000000000000000000000000000000000000006114f8565b7fffff0000000000000000000000000000000000000000000000000000000000005b98505050505050505050610a08565b84607089901b8761151957600061152b565b6f800000000000000000000000000000005b6fffffffffffffffffffffffffffffffff16171760801b98505050505050505050610a08565b60006020828403121561156357600080fd5b815173ffffffffffffffffffffffffffffffffffffffff81168114610a3c57600080fd5b60006020828403121561159957600080fd5b5051919050565b7f4e487b7100000000000000000000000000000000000000000000000000000000600052601260045260246000fd5b7f4e487b7100000000000000000000000000000000000000000000000000000000600052600160045260246000fdfea2646970667358221220dd8eac0e69e1049a1dba5512c39131f64202ccf8beec348f2354f1b8d2e020e764736f6c63430008090033",
    "linkReferences": {}
  },
  "methodIdentifiers": {
    "getDollarsToMint()": "764263cf",
    "manager()": "481c6a75"
  },
  "id": 42
}