{
  "abi": [
    {
      "inputs": [
        {
          "internalType": "address",
          "name": "_manager",
          "type": "address"
        }
      ],
      "stateMutability": "nonpayable",
      "type": "constructor"
    },
    {
      "anonymous": false,
      "inputs": [
        {
          "indexed": true,
          "internalType": "address",
          "name": "_account",
          "type": "address"
        },
        {
          "indexed": false,
          "internalType": "bool",
          "name": "_isExempt",
          "type": "bool"
        }
      ],
      "name": "ExemptAddressUpdate",
      "type": "event"
    },
    {
      "inputs": [
        {
          "internalType": "address",
          "name": "sender",
          "type": "address"
        },
        {
          "internalType": "address",
          "name": "receiver",
          "type": "address"
        },
        {
          "internalType": "address",
          "name": "",
          "type": "address"
        },
        {
          "internalType": "uint256",
          "name": "amountIn",
          "type": "uint256"
        }
      ],
      "name": "incentivize",
      "outputs": [],
      "stateMutability": "nonpayable",
      "type": "function"
    },
    {
      "inputs": [],
      "name": "isBuyIncentiveOn",
      "outputs": [
        {
          "internalType": "bool",
          "name": "",
          "type": "bool"
        }
      ],
      "stateMutability": "view",
      "type": "function"
    },
    {
      "inputs": [
        {
          "internalType": "address",
          "name": "account",
          "type": "address"
        }
      ],
      "name": "isExemptAddress",
      "outputs": [
        {
          "internalType": "bool",
          "name": "",
          "type": "bool"
        }
      ],
      "stateMutability": "view",
      "type": "function"
    },
    {
      "inputs": [],
      "name": "isSellPenaltyOn",
      "outputs": [
        {
          "internalType": "bool",
          "name": "",
          "type": "bool"
        }
      ],
      "stateMutability": "view",
      "type": "function"
    },
    {
      "inputs": [],
      "name": "manager",
      "outputs": [
        {
          "internalType": "contract UbiquityAlgorithmicDollarManager",
          "name": "",
          "type": "address"
        }
      ],
      "stateMutability": "view",
      "type": "function"
    },
    {
      "inputs": [
        {
          "internalType": "address",
          "name": "account",
          "type": "address"
        },
        {
          "internalType": "bool",
          "name": "isExempt",
          "type": "bool"
        }
      ],
      "name": "setExemptAddress",
      "outputs": [],
      "stateMutability": "nonpayable",
      "type": "function"
    },
    {
      "inputs": [],
      "name": "switchBuyIncentive",
      "outputs": [],
      "stateMutability": "nonpayable",
      "type": "function"
    },
    {
      "inputs": [],
      "name": "switchSellPenalty",
      "outputs": [],
      "stateMutability": "nonpayable",
      "type": "function"
    }
  ],
  "bytecode": {
    "object": "0x60a06040526000805461ffff60a01b191661010160a01b17905562000038670de0b6b3a76400006200009b602090811b62000b5117901c565b6001600160801b0319166080523480156200005257600080fd5b50604051620028f5380380620028f58339810160408190526200007591620001b2565b600080546001600160a01b0319166001600160a01b0392909216919091179055620001e4565b600081620000ab57506000919050565b816000620000b98262000105565b90506070811015620000d4578060700382901b9150620000e8565b6070811115620000e8576070810382901c91505b613fff0160701b6001600160701b03919091161760801b92915050565b60008082116200011457600080fd5b6000600160801b83106200012a57608092831c92015b6801000000000000000083106200014357604092831c92015b64010000000083106200015857602092831c92015b6201000083106200016b57601092831c92015b61010083106200017d57600892831c92015b601083106200018e57600492831c92015b600483106200019f57600292831c92015b60028310620001ac576001015b92915050565b600060208284031215620001c557600080fd5b81516001600160a01b0381168114620001dd57600080fd5b9392505050565b6080516126ee62000207600039600081816112f2015261137101526126ee6000f3fe608060405234801561001057600080fd5b50600436106100885760003560e01c80636e22230d1161005b5780636e22230d1461013d5780639679e3a314610150578063a913592114610175578063b1c6bd751461019b57600080fd5b806342db95501461008d578063481c6a75146100a25780635a5759b4146100ec5780636cce8e1f14610135575b600080fd5b6100a061009b366004612521565b6101a3565b005b6000546100c29073ffffffffffffffffffffffffffffffffffffffff1681565b60405173ffffffffffffffffffffffffffffffffffffffff90911681526020015b60405180910390f35b6101256100fa36600461255a565b73ffffffffffffffffffffffffffffffffffffffff1660009081526001602052604090205460ff1690565b60405190151581526020016100e3565b6100a06103d0565b6100a061014b366004612577565b6105bb565b6000546101259074010000000000000000000000000000000000000000900460ff1681565b600054610125907501000000000000000000000000000000000000000000900460ff1681565b6100a0610965565b600054604080517f57f6a22a000000000000000000000000000000000000000000000000000000008152905173ffffffffffffffffffffffffffffffffffffffff909216916391d148549183916357f6a22a91600480820192602092909190829003018186803b15801561021657600080fd5b505afa15801561022a573d6000803e3d6000fd5b505050506040513d601f19601f8201168201806040525081019061024e91906125c8565b6040517fffffffff0000000000000000000000000000000000000000000000000000000060e084901b168152600481019190915233602482015260440160206040518083038186803b1580156102a357600080fd5b505afa1580156102b7573d6000803e3d6000fd5b505050506040513d601f19601f820116820180604052508101906102db91906125e1565b610346576040517f08c379a000000000000000000000000000000000000000000000000000000000815260206004820152601960248201527f4375727665496e63656e746976653a206e6f742061646d696e0000000000000060448201526064015b60405180910390fd5b73ffffffffffffffffffffffffffffffffffffffff821660008181526001602090815260409182902080547fffffffffffffffffffffffffffffffffffffffffffffffffffffffffffffff001685151590811790915591519182527f9226cd0a5a90eb4694e1351c175c4ad131831340dc7a82c2d7693683c1b5afff910160405180910390a25050565b600054604080517f57f6a22a000000000000000000000000000000000000000000000000000000008152905173ffffffffffffffffffffffffffffffffffffffff909216916391d148549183916357f6a22a91600480820192602092909190829003018186803b15801561044357600080fd5b505afa158015610457573d6000803e3d6000fd5b505050506040513d601f19601f8201168201806040525081019061047b91906125c8565b6040517fffffffff0000000000000000000000000000000000000000000000000000000060e084901b168152600481019190915233602482015260440160206040518083038186803b1580156104d057600080fd5b505afa1580156104e4573d6000803e3d6000fd5b505050506040513d601f19601f8201168201806040525081019061050891906125e1565b61056e576040517f08c379a000000000000000000000000000000000000000000000000000000000815260206004820152601960248201527f4375727665496e63656e746976653a206e6f742061646d696e00000000000000604482015260640161033d565b600080547fffffffffffffffffffffff00ffffffffffffffffffffffffffffffffffffffff8116740100000000000000000000000000000000000000009182900460ff1615909102179055565b60008054906101000a900473ffffffffffffffffffffffffffffffffffffffff1673ffffffffffffffffffffffffffffffffffffffff1663bc3ea0186040518163ffffffff1660e01b815260040160206040518083038186803b15801561062157600080fd5b505afa158015610635573d6000803e3d6000fd5b505050506040513d601f19601f8201168201806040525081019061065991906125fe565b73ffffffffffffffffffffffffffffffffffffffff163373ffffffffffffffffffffffffffffffffffffffff1614610713576040517f08c379a000000000000000000000000000000000000000000000000000000000815260206004820152602160248201527f4375727665496e63656e746976653a2043616c6c6572206973206e6f7420754160448201527f4400000000000000000000000000000000000000000000000000000000000000606482015260840161033d565b8273ffffffffffffffffffffffffffffffffffffffff168473ffffffffffffffffffffffffffffffffffffffff1614156107a9576040517f08c379a000000000000000000000000000000000000000000000000000000000815260206004820181905260248201527f4375727665496e63656e746976653a2063616e6e6f742073656e642073656c66604482015260640161033d565b60008054906101000a900473ffffffffffffffffffffffffffffffffffffffff1673ffffffffffffffffffffffffffffffffffffffff1663d3815fb96040518163ffffffff1660e01b815260040160206040518083038186803b15801561080f57600080fd5b505afa158015610823573d6000803e3d6000fd5b505050506040513d601f19601f8201168201806040525081019061084791906125fe565b73ffffffffffffffffffffffffffffffffffffffff168473ffffffffffffffffffffffffffffffffffffffff161415610884576108848382610bbc565b60008054906101000a900473ffffffffffffffffffffffffffffffffffffffff1673ffffffffffffffffffffffffffffffffffffffff1663d3815fb96040518163ffffffff1660e01b815260040160206040518083038186803b1580156108ea57600080fd5b505afa1580156108fe573d6000803e3d6000fd5b505050506040513d601f19601f8201168201806040525081019061092291906125fe565b73ffffffffffffffffffffffffffffffffffffffff168373ffffffffffffffffffffffffffffffffffffffff16141561095f5761095f8482610d5f565b50505050565b600054604080517f57f6a22a000000000000000000000000000000000000000000000000000000008152905173ffffffffffffffffffffffffffffffffffffffff909216916391d148549183916357f6a22a91600480820192602092909190829003018186803b1580156109d857600080fd5b505afa1580156109ec573d6000803e3d6000fd5b505050506040513d601f19601f82011682018060405250810190610a1091906125c8565b6040517fffffffff0000000000000000000000000000000000000000000000000000000060e084901b168152600481019190915233602482015260440160206040518083038186803b158015610a6557600080fd5b505afa158015610a79573d6000803e3d6000fd5b505050506040513d601f19601f82011682018060405250810190610a9d91906125e1565b610b03576040517f08c379a000000000000000000000000000000000000000000000000000000000815260206004820152601960248201527f4375727665496e63656e746976653a206e6f742061646d696e00000000000000604482015260640161033d565b600080547fffffffffffffffffffff00ffffffffffffffffffffffffffffffffffffffffff811675010000000000000000000000000000000000000000009182900460ff1615909102179055565b600081610b6057506000919050565b816000610b6c8261110d565b90506070811015610b85578060700382901b9150610b98565b6070811115610b98576070810382901c91505b613fff0160701b6dffffffffffffffffffffffffffff919091161760801b92915050565b610bc46111be565b73ffffffffffffffffffffffffffffffffffffffff821660009081526001602052604090205460ff1680610c1457506000547501000000000000000000000000000000000000000000900460ff16155b15610c1d575050565b6000610c28826112b7565b90508015610d5a5760008054906101000a900473ffffffffffffffffffffffffffffffffffffffff1673ffffffffffffffffffffffffffffffffffffffff1663b42165d06040518163ffffffff1660e01b815260040160206040518083038186803b158015610c9657600080fd5b505afa158015610caa573d6000803e3d6000fd5b505050506040513d601f19601f82011682018060405250810190610cce91906125fe565b6040517f40c10f1900000000000000000000000000000000000000000000000000000000815273ffffffffffffffffffffffffffffffffffffffff85811660048301526024820184905291909116906340c10f19906044015b600060405180830381600087803b158015610d4157600080fd5b505af1158015610d55573d6000803e3d6000fd5b505050505b505050565b610d676111be565b73ffffffffffffffffffffffffffffffffffffffff821660009081526001602052604090205460ff1680610db6575060005474010000000000000000000000000000000000000000900460ff16155b15610dbf575050565b6000610dca826112b7565b90508015610d5a57818110610e3b576040517f08c379a000000000000000000000000000000000000000000000000000000000815260206004820152601f60248201527f446f6c6c61723a206275726e20657863656564732074726164652073697a6500604482015260640161033d565b610e45828261261b565b60008054906101000a900473ffffffffffffffffffffffffffffffffffffffff1673ffffffffffffffffffffffffffffffffffffffff1663bc3ea0186040518163ffffffff1660e01b815260040160206040518083038186803b158015610eab57600080fd5b505afa158015610ebf573d6000803e3d6000fd5b505050506040513d601f19601f82011682018060405250810190610ee391906125fe565b6040517f70a0823100000000000000000000000000000000000000000000000000000000815273ffffffffffffffffffffffffffffffffffffffff868116600483015291909116906370a082319060240160206040518083038186803b158015610f4c57600080fd5b505afa158015610f60573d6000803e3d6000fd5b505050506040513d601f19601f82011682018060405250810190610f8491906125c8565b1015611012576040517f08c379a000000000000000000000000000000000000000000000000000000000815260206004820152602860248201527f446f6c6c61723a2062616c616e636520746f6f206c6f7720746f20676574207060448201527f656e616c697a6564000000000000000000000000000000000000000000000000606482015260840161033d565b60008054906101000a900473ffffffffffffffffffffffffffffffffffffffff1673ffffffffffffffffffffffffffffffffffffffff1663bc3ea0186040518163ffffffff1660e01b815260040160206040518083038186803b15801561107857600080fd5b505afa15801561108c573d6000803e3d6000fd5b505050506040513d601f19601f820116820180604052508101906110b091906125fe565b6040517f79cc679000000000000000000000000000000000000000000000000000000000815273ffffffffffffffffffffffffffffffffffffffff85811660048301526024820184905291909116906379cc679090604401610d27565b600080821161111b57600080fd5b6000700100000000000000000000000000000000831061113d57608092831c92015b68010000000000000000831061115557604092831c92015b640100000000831061116957602092831c92015b62010000831061117b57601092831c92015b610100831061118c57600892831c92015b6010831061119c57600492831c92015b600483106111ac57600292831c92015b600283106111b8576001015b92915050565b60008054906101000a900473ffffffffffffffffffffffffffffffffffffffff1673ffffffffffffffffffffffffffffffffffffffff16638fe636836040518163ffffffff1660e01b815260040160206040518083038186803b15801561122457600080fd5b505afa158015611238573d6000803e3d6000fd5b505050506040513d601f19601f8201168201806040525081019061125c91906125fe565b73ffffffffffffffffffffffffffffffffffffffff1663a2e620456040518163ffffffff1660e01b8152600401600060405180830381600087803b1580156112a357600080fd5b505af115801561095f573d6000803e3d6000fd5b60006112c16111be565b60006112cb6113ee565b9050670de0b6b3a764000081106112e55750600092915050565b60006113e66113bf6113427f000000000000000000000000000000000000000000000000000000000000000061131a88610b51565b7fffffffffffffffffffffffffffffffff0000000000000000000000000000000016906115e9565b61139761134e86610b51565b7fffffffffffffffffffffffffffffffff000000000000000000000000000000007f00000000000000000000000000000000000000000000000000000000000000001690611a5b565b7fffffffffffffffffffffffffffffffff000000000000000000000000000000001690611a90565b7fffffffffffffffffffffffffffffffff0000000000000000000000000000000016611e7a565b949350505050565b60008060009054906101000a900473ffffffffffffffffffffffffffffffffffffffff1673ffffffffffffffffffffffffffffffffffffffff16638fe636836040518163ffffffff1660e01b815260040160206040518083038186803b15801561145757600080fd5b505afa15801561146b573d6000803e3d6000fd5b505050506040513d601f19601f8201168201806040525081019061148f91906125fe565b73ffffffffffffffffffffffffffffffffffffffff1663283583c660008054906101000a900473ffffffffffffffffffffffffffffffffffffffff1673ffffffffffffffffffffffffffffffffffffffff1663bc3ea0186040518163ffffffff1660e01b815260040160206040518083038186803b15801561151057600080fd5b505afa158015611524573d6000803e3d6000fd5b505050506040513d601f19601f8201168201806040525081019061154891906125fe565b6040517fffffffff0000000000000000000000000000000000000000000000000000000060e084901b16815273ffffffffffffffffffffffffffffffffffffffff909116600482015260240160206040518083038186803b1580156115ac57600080fd5b505afa1580156115c0573d6000803e3d6000fd5b505050506040513d601f19601f820116820180604052508101906115e491906125c8565b905090565b6000617fff60f084811c8216919084901c8116908214156116665780617fff141561163957507f7fff80000000000000000000000000000000000000000000000000000000000091506111b89050565b5050507f8000000000000000000000000000000000000000000000000000000000000000811682186111b8565b80617fff14156116ee577dffffffffffffffffffffffffffff000000000000000000000000000000008416156116c157507f7fff80000000000000000000000000000000000000000000000000000000000091506111b89050565b5050508082187f8000000000000000000000000000000000000000000000000000000000000000166111b8565b7f7fffffffffffffffffffffffffffffff0000000000000000000000000000000084166117b6577f7fffffffffffffffffffffffffffffff00000000000000000000000000000000851661176757507f7fff80000000000000000000000000000000000000000000000000000000000091506111b89050565b5050508082187f8000000000000000000000000000000000000000000000000000000000000000167f7fff000000000000000000000000000000000000000000000000000000000000176111b8565b6dffffffffffffffffffffffffffff608085901c16816117d957600191506117eb565b6e010000000000000000000000000000175b6dffffffffffffffffffffffffffff608087901c168361184f57801561184a5760006118168261110d565b6001955060e2039384017fffffffffffffffffffffffffffffffffffffffffffffffffffffffffffffff8e01939190911b90505b611864565b6e0100000000000000000000000000001760721b5b8181816118735761187361265a565b049050806118d8577f8000000000000000000000000000000000000000000000000000000000000000878718166118ab5760006118cd565b7f80000000000000000000000000000000000000000000000000000000000000005b9450505050506111b8565b6d10000000000000000000000000008110156118f6576118f6612689565b60006e080000000000000000000000000000821015611956576e04000000000000000000000000000082101561194b576e02000000000000000000000000000082101561194457607061194e565b607161194e565b60725b60ff1661195f565b61195f8261110d565b90508361407101818601111561197d57617fff945060009150611a17565b83818601613ffc011015611998576000945060009150611a17565b83818601613f8c0110156119e5578385613ffc0111156119c3578385613ffc010382901b91506119dc565b8385613ffc0110156119dc57613ffc8585030382901c91505b60009450611a17565b60708111156119f8576070810382901c91505b6dffffffffffffffffffffffffffff8216915083818601613f8d010394505b81607086901b888a186f8000000000000000000000000000000060801b1660801c6fffffffffffffffffffffffffffffffff16171760801b955050505050506111b8565b6000611a89837f80000000000000000000000000000000000000000000000000000000000000008418611f38565b9392505050565b6000617fff60f084811c8216919084901c811690821415611be35780617fff1415611b91577fffffffffffffffffffffffffffffffff000000000000000000000000000000008581169085161415611b0f575050507f8000000000000000000000000000000000000000000000000000000000000000811682186111b8565b7f80000000000000000000000000000000000000000000000000000000000000007fffffffffffffffffffffffffffffffff00000000000000000000000000000000868618161415611b66575050508181176111b8565b507f7fff80000000000000000000000000000000000000000000000000000000000091506111b89050565b7f7fffffffffffffffffffffffffffffff00000000000000000000000000000000841661163957507f7fff80000000000000000000000000000000000000000000000000000000000091506111b89050565b80617fff1415611c6c577f7fffffffffffffffffffffffffffffff000000000000000000000000000000008516611c3f57507f7fff80000000000000000000000000000000000000000000000000000000000091506111b89050565b5050507f8000000000000000000000000000000000000000000000000000000000000000821681186111b8565b6dffffffffffffffffffffffffffff608086901c1682611c8f5760019250611ca1565b6e010000000000000000000000000000175b6dffffffffffffffffffffffffffff608086901c1682611cc45760019250611cd6565b6e010000000000000000000000000000175b9081029081611d0f577f8000000000000000000000000000000000000000000000000000000000000000878718166118ab5760006118cd565b9282019260007c0200000000000000000000000000000000000000000000000000000000831015611d74577c0100000000000000000000000000000000000000000000000000000000831015611d6d57611d688361110d565b611d77565b60e0611d77565b60e15b90506140708186011015611d92576000945060009250611e36565b6140e08186011015611dd557614070851015611db757846140700383901c9250611dcc565b614070851115611dcc57614070850383901b92505b60009450611e36565b61c0dd8186011115611def57617fff945060009250611e36565b6070811115611e06576070810383901c9250611e19565b6070811015611e19578060700383901b92505b6dffffffffffffffffffffffffffff831692506140df8186010394505b82607086901b888a186f8000000000000000000000000000000060801b1660801c6fffffffffffffffffffffffffffffffff16171760801b955050505050506111b8565b6000617fff60f083901c16613fff811015611e985750600092915050565b6f80000000000000000000000000000000608084901c10611eb857600080fd5b6140fe811115611ec757600080fd5b6e0100000000000000000000000000006dffffffffffffffffffffffffffff608085901c161761406f821015611f035761406f8290031c611a89565b61406f821115611a89577fffffffffffffffffffffffffffffffffffffffffffffffffffffffffffffbf9182011b9392505050565b6000617fff60f084811c8216919084901c811690821415611f9e5780617fff1415611f94577fffffffffffffffffffffffffffffffff000000000000000000000000000000008581169085161415611b665784925050506111b8565b84925050506111b8565b80617fff1415611fb25783925050506111b8565b6f80000000000000000000000000000000608086901c90811015906dffffffffffffffffffffffffffff1683611feb5760019350611ffd565b6e010000000000000000000000000000175b6f80000000000000000000000000000000608087901c90811015906dffffffffffffffffffffffffffff16846120365760019450612048565b6e010000000000000000000000000000175b826120ac577fffffffffffffffffffffffffffffffff0000000000000000000000000000000088167f80000000000000000000000000000000000000000000000000000000000000001461209c578761209f565b60005b96505050505050506111b8565b80612100577fffffffffffffffffffffffffffffffff0000000000000000000000000000000089167f80000000000000000000000000000000000000000000000000000000000000001461209c578861209f565b848603841515831515141561228e57607081131561212757899750505050505050506111b8565b60008113156121395790811c90612186565b7fffffffffffffffffffffffffffffffffffffffffffffffffffffffffffffff9081121561217057889750505050505050506111b8565b6000811215612186578060000384901c93508596505b928101926e02000000000000000000000000000084106121ac576001968701969390931c925b86617fff141561221157846121e1577f7fff000000000000000000000000000000000000000000000000000000000000612203565b7fffff0000000000000000000000000000000000000000000000000000000000005b9750505050505050506111b8565b6e0100000000000000000000000000008410156122315760009650612245565b6dffffffffffffffffffffffffffff841693505b83607088901b86612257576000612269565b6f800000000000000000000000000000005b6fffffffffffffffffffffffffffffffff16171760801b9750505050505050506111b8565b60008113156122a957600184901b93506001870396506122c0565b60008112156122c057600182901b91506001860396505b60708113156122d2576001915061235b565b60018113156122ef576001810360018303901c600101915061235b565b7fffffffffffffffffffffffffffffffffffffffffffffffffffffffffffffff90811215612320576001935061235b565b7fffffffffffffffffffffffffffffffffffffffffffffffffffffffffffffffff81121561235b576001816000030360018503901c60010193505b81841061236c578184039350612375565b83820393508294505b8361238b5750600096506111b895505050505050565b60006123968561110d565b905080607114156123c357600185901c6dffffffffffffffffffffffffffff16945060018801975061243e565b607081101561242a576070819003808911156123f9578086901b6dffffffffffffffffffffffffffff1695508089039850612424565b6000987fffffffffffffffffffffffffffffffffffffffffffffffffffffffffffffffff019590951b945b5061243e565b6dffffffffffffffffffffffffffff851694505b87617fff14156124a45785612473577f7fff000000000000000000000000000000000000000000000000000000000000612495565b7fffff0000000000000000000000000000000000000000000000000000000000005b985050505050505050506111b8565b84607089901b876124b65760006124c8565b6f800000000000000000000000000000005b6fffffffffffffffffffffffffffffffff16171760801b985050505050505050506111b8565b73ffffffffffffffffffffffffffffffffffffffff8116811461251057600080fd5b50565b801515811461251057600080fd5b6000806040838503121561253457600080fd5b823561253f816124ee565b9150602083013561254f81612513565b809150509250929050565b60006020828403121561256c57600080fd5b8135611a89816124ee565b6000806000806080858703121561258d57600080fd5b8435612598816124ee565b935060208501356125a8816124ee565b925060408501356125b8816124ee565b9396929550929360600135925050565b6000602082840312156125da57600080fd5b5051919050565b6000602082840312156125f357600080fd5b8151611a8981612513565b60006020828403121561261057600080fd5b8151611a89816124ee565b60008219821115612655577f4e487b7100000000000000000000000000000000000000000000000000000000600052601160045260246000fd5b500190565b7f4e487b7100000000000000000000000000000000000000000000000000000000600052601260045260246000fd5b7f4e487b7100000000000000000000000000000000000000000000000000000000600052600160045260246000fdfea2646970667358221220d43748e796d3f79f1691e1c939cbfc235cc8c69fe94a01205a31c20db591bfdf64736f6c63430008090033",
    "linkReferences": {}
  },
  "methodIdentifiers": {
    "incentivize(address,address,address,uint256)": "6e22230d",
    "isBuyIncentiveOn()": "a9135921",
    "isExemptAddress(address)": "5a5759b4",
    "isSellPenaltyOn()": "9679e3a3",
    "manager()": "481c6a75",
    "setExemptAddress(address,bool)": "42db9550",
    "switchBuyIncentive()": "b1c6bd75",
    "switchSellPenalty()": "6cce8e1f"
  },
  "id": 39
}