{
  "abi": [
    {
      "inputs": [
        {
          "internalType": "uint256",
          "name": "totalDebt",
          "type": "uint256"
        }
      ],
      "stateMutability": "nonpayable",
      "type": "constructor"
    },
    {
      "anonymous": false,
      "inputs": [
        {
          "indexed": true,
          "internalType": "address",
          "name": "account",
          "type": "address"
        },
        {
          "indexed": true,
          "internalType": "address",
          "name": "operator",
          "type": "address"
        },
        {
          "indexed": false,
          "internalType": "bool",
          "name": "approved",
          "type": "bool"
        }
      ],
      "name": "ApprovalForAll",
      "type": "event"
    },
    {
      "anonymous": false,
      "inputs": [
        {
          "indexed": true,
          "internalType": "address",
          "name": "owner",
          "type": "address"
        },
        {
          "indexed": false,
          "internalType": "uint256",
          "name": "amount",
          "type": "uint256"
        },
        {
          "indexed": false,
          "internalType": "uint256",
          "name": "expiryBlockNumber",
          "type": "uint256"
        }
      ],
      "name": "BurntCoupons",
      "type": "event"
    },
    {
      "anonymous": false,
      "inputs": [
        {
          "indexed": true,
          "internalType": "address",
          "name": "receiver",
          "type": "address"
        },
        {
          "indexed": false,
          "internalType": "uint256",
          "name": "couponsToMint",
          "type": "uint256"
        },
        {
          "indexed": false,
          "internalType": "uint256",
          "name": "expiryBlockNumber",
          "type": "uint256"
        }
      ],
      "name": "MintedCoupons",
      "type": "event"
    },
    {
      "anonymous": false,
      "inputs": [
        {
          "indexed": true,
          "internalType": "address",
          "name": "operator",
          "type": "address"
        },
        {
          "indexed": true,
          "internalType": "address",
          "name": "from",
          "type": "address"
        },
        {
          "indexed": true,
          "internalType": "address",
          "name": "to",
          "type": "address"
        },
        {
          "indexed": false,
          "internalType": "uint256[]",
          "name": "ids",
          "type": "uint256[]"
        },
        {
          "indexed": false,
          "internalType": "uint256[]",
          "name": "values",
          "type": "uint256[]"
        }
      ],
      "name": "TransferBatch",
      "type": "event"
    },
    {
      "anonymous": false,
      "inputs": [
        {
          "indexed": true,
          "internalType": "address",
          "name": "operator",
          "type": "address"
        },
        {
          "indexed": true,
          "internalType": "address",
          "name": "from",
          "type": "address"
        },
        {
          "indexed": true,
          "internalType": "address",
          "name": "to",
          "type": "address"
        },
        {
          "indexed": false,
          "internalType": "uint256",
          "name": "id",
          "type": "uint256"
        },
        {
          "indexed": false,
          "internalType": "uint256",
          "name": "value",
          "type": "uint256"
        }
      ],
      "name": "TransferSingle",
      "type": "event"
    },
    {
      "anonymous": false,
      "inputs": [
        {
          "indexed": false,
          "internalType": "string",
          "name": "value",
          "type": "string"
        },
        {
          "indexed": true,
          "internalType": "uint256",
          "name": "id",
          "type": "uint256"
        }
      ],
      "name": "URI",
      "type": "event"
    },
    {
      "inputs": [
        {
          "internalType": "address",
          "name": "receiver",
          "type": "address"
        },
        {
          "internalType": "uint256",
          "name": "id",
          "type": "uint256"
        }
      ],
      "name": "balanceOf",
      "outputs": [
        {
          "internalType": "uint256",
          "name": "",
          "type": "uint256"
        }
      ],
      "stateMutability": "view",
      "type": "function"
    },
    {
      "inputs": [
        {
          "internalType": "address[]",
          "name": "accounts",
          "type": "address[]"
        },
        {
          "internalType": "uint256[]",
          "name": "ids",
          "type": "uint256[]"
        }
      ],
      "name": "balanceOfBatch",
      "outputs": [
        {
          "internalType": "uint256[]",
          "name": "",
          "type": "uint256[]"
        }
      ],
      "stateMutability": "view",
      "type": "function"
    },
    {
      "inputs": [
        {
          "internalType": "address",
          "name": "couponOwner",
          "type": "address"
        },
        {
          "internalType": "uint256",
          "name": "amount",
          "type": "uint256"
        },
        {
          "internalType": "uint256",
          "name": "expiryBlockNumber",
          "type": "uint256"
        }
      ],
      "name": "burnCoupons",
      "outputs": [],
      "stateMutability": "nonpayable",
      "type": "function"
    },
    {
      "inputs": [],
      "name": "checkPoint",
      "outputs": [
        {
          "internalType": "uint256",
          "name": "",
          "type": "uint256"
        }
      ],
      "stateMutability": "view",
      "type": "function"
    },
    {
      "inputs": [],
      "name": "getTotalOutstandingDebt",
      "outputs": [
        {
          "internalType": "uint256",
          "name": "",
          "type": "uint256"
        }
      ],
      "stateMutability": "view",
      "type": "function"
    },
    {
      "inputs": [
        {
          "internalType": "address",
          "name": "account",
          "type": "address"
        },
        {
          "internalType": "address",
          "name": "operator",
          "type": "address"
        }
      ],
      "name": "isApprovedForAll",
      "outputs": [
        {
          "internalType": "bool",
          "name": "",
          "type": "bool"
        }
      ],
      "stateMutability": "view",
      "type": "function"
    },
    {
      "inputs": [
        {
          "internalType": "address",
          "name": "receiver",
          "type": "address"
        },
        {
          "internalType": "uint256",
          "name": "couponsToMint",
          "type": "uint256"
        },
        {
          "internalType": "uint256",
          "name": "expiryBlockNumber",
          "type": "uint256"
        }
      ],
      "name": "mintCoupons",
      "outputs": [],
      "stateMutability": "nonpayable",
      "type": "function"
    },
    {
      "inputs": [
        {
          "internalType": "address",
          "name": "from",
          "type": "address"
        },
        {
          "internalType": "address",
          "name": "to",
          "type": "address"
        },
        {
          "internalType": "uint256[]",
          "name": "ids",
          "type": "uint256[]"
        },
        {
          "internalType": "uint256[]",
          "name": "amounts",
          "type": "uint256[]"
        },
        {
          "internalType": "bytes",
          "name": "data",
          "type": "bytes"
        }
      ],
      "name": "safeBatchTransferFrom",
      "outputs": [],
      "stateMutability": "nonpayable",
      "type": "function"
    },
    {
      "inputs": [
        {
          "internalType": "address",
          "name": "from",
          "type": "address"
        },
        {
          "internalType": "address",
          "name": "to",
          "type": "address"
        },
        {
          "internalType": "uint256",
          "name": "id",
          "type": "uint256"
        },
        {
          "internalType": "uint256",
          "name": "amount",
          "type": "uint256"
        },
        {
          "internalType": "bytes",
          "name": "data",
          "type": "bytes"
        }
      ],
      "name": "safeTransferFrom",
      "outputs": [],
      "stateMutability": "nonpayable",
      "type": "function"
    },
    {
      "inputs": [
        {
          "internalType": "address",
          "name": "operator",
          "type": "address"
        },
        {
          "internalType": "bool",
          "name": "approved",
          "type": "bool"
        }
      ],
      "name": "setApprovalForAll",
      "outputs": [],
      "stateMutability": "nonpayable",
      "type": "function"
    },
    {
      "inputs": [
        {
          "internalType": "uint256",
          "name": "totalDebt",
          "type": "uint256"
        }
      ],
      "name": "setTotalOutstandingDebt",
      "outputs": [],
      "stateMutability": "nonpayable",
      "type": "function"
    },
    {
      "inputs": [
        {
          "internalType": "bytes4",
          "name": "interfaceId",
          "type": "bytes4"
        }
      ],
      "name": "supportsInterface",
      "outputs": [
        {
          "internalType": "bool",
          "name": "",
          "type": "bool"
        }
      ],
      "stateMutability": "view",
      "type": "function"
    },
    {
      "inputs": [],
      "name": "updateTotalDebt",
      "outputs": [],
      "stateMutability": "nonpayable",
      "type": "function"
    },
    {
      "inputs": [
        {
          "internalType": "uint256",
          "name": "",
          "type": "uint256"
        }
      ],
      "name": "uri",
      "outputs": [
        {
          "internalType": "string",
          "name": "",
          "type": "string"
        }
      ],
      "stateMutability": "view",
      "type": "function"
    }
  ],
  "bytecode": {
    "object": "0x60806040523480156200001157600080fd5b5060405162001ea738038062001ea7833981016040819052620000349162000122565b60408051808201909152600381526255524960e81b6020820152620000598162000063565b5060035562000179565b8051620000789060029060208401906200007c565b5050565b8280546200008a906200013c565b90600052602060002090601f016020900481019282620000ae5760008555620000f9565b82601f10620000c957805160ff1916838001178555620000f9565b82800160010185558215620000f9579182015b82811115620000f9578251825591602001919060010190620000dc565b50620001079291506200010b565b5090565b5b808211156200010757600081556001016200010c565b6000602082840312156200013557600080fd5b5051919050565b600181811c908216806200015157607f821691505b602082108114156200017357634e487b7160e01b600052602260045260246000fd5b50919050565b611d1e80620001896000396000f3fe608060405234801561001057600080fd5b50600436106100e95760003560e01c8063cff805ab1161008c578063e71fc58f11610066578063e71fc58f14610206578063e985e9c514610219578063f242432a14610262578063f7ffe84a1461027557600080fd5b8063cff805ab146101e2578063db87b1ff146101eb578063de62feed146101f357600080fd5b80632eb2c2d6116100c85780632eb2c2d6146101875780634e1273f41461019c578063738f0cf1146101bc578063a22cb465146101cf57600080fd5b8062fdd58e146100ee57806301ffc9a7146101445780630e89341c14610167575b600080fd5b6101316100fc366004611483565b73ffffffffffffffffffffffffffffffffffffffff919091166000908152600560209081526040808320938352929052205490565b6040519081526020015b60405180910390f35b6101576101523660046114de565b61027e565b604051901515815260200161013b565b61017a610175366004611502565b610363565b60405161013b9190611586565b61019a61019536600461173a565b6103f7565b005b6101af6101aa3660046117e4565b6104c5565b60405161013b91906118ea565b61019a6101ca3660046118fd565b61064d565b61019a6101dd366004611930565b610765565b61013160045481565b600354610131565b61019a610201366004611502565b600355565b61019a6102143660046118fd565b610774565b61015761022736600461196c565b73ffffffffffffffffffffffffffffffffffffffff918216600090815260016020908152604080832093909416825291909152205460ff1690565b61019a61027036600461199f565b610822565b61019a43600455565b60007fffffffff0000000000000000000000000000000000000000000000000000000082167fd9b67a2600000000000000000000000000000000000000000000000000000000148061031157507fffffffff0000000000000000000000000000000000000000000000000000000082167f0e89341c00000000000000000000000000000000000000000000000000000000145b8061035d57507f01ffc9a7000000000000000000000000000000000000000000000000000000007fffffffff000000000000000000000000000000000000000000000000000000008316145b92915050565b60606002805461037290611a04565b80601f016020809104026020016040519081016040528092919081815260200182805461039e90611a04565b80156103eb5780601f106103c0576101008083540402835291602001916103eb565b820191906000526020600020905b8154815290600101906020018083116103ce57829003601f168201915b50505050509050919050565b73ffffffffffffffffffffffffffffffffffffffff851633148061042057506104208533610227565b6104b1576040517f08c379a000000000000000000000000000000000000000000000000000000000815260206004820152602e60248201527f455243313135353a2063616c6c6572206973206e6f7420746f6b656e206f776e60448201527f6572206f7220617070726f76656400000000000000000000000000000000000060648201526084015b60405180910390fd5b6104be85858585856108e4565b5050505050565b60608151835114610558576040517f08c379a000000000000000000000000000000000000000000000000000000000815260206004820152602960248201527f455243313135353a206163636f756e747320616e6420696473206c656e67746860448201527f206d69736d61746368000000000000000000000000000000000000000000000060648201526084016104a8565b6000835167ffffffffffffffff81111561057457610574611599565b60405190808252806020026020018201604052801561059d578160200160208202803683370190505b50905060005b8451811015610645576106188582815181106105c1576105c1611a58565b60200260200101518583815181106105db576105db611a58565b602002602001015173ffffffffffffffffffffffffffffffffffffffff919091166000908152600560209081526040808320938352929052205490565b82828151811061062a5761062a611a58565b602090810291909101015261063e81611ab6565b90506105a3565b509392505050565b73ffffffffffffffffffffffffffffffffffffffff83166000908152600560209081526040808320848452909152902054828110156106e8576040517f08c379a000000000000000000000000000000000000000000000000000000000815260206004820152601460248201527f496e73756666696369656e742062616c616e636500000000000000000000000060448201526064016104a8565b6106f28382611aef565b73ffffffffffffffffffffffffffffffffffffffff8516600081815260056020908152604080832087845282529182902093909355805186815292830185905290917fd777e17079725e1f6762b576356700067dda85b60e96a043f6caaa1e411e0b3d910160405180910390a250505050565b610770338383610c1e565b5050565b73ffffffffffffffffffffffffffffffffffffffff831660009081526005602090815260408083208484529091529020546107b0908390611b06565b73ffffffffffffffffffffffffffffffffffffffff8416600081815260056020908152604080832086845282529182902093909355805185815292830184905290917fee6a2b6b9d52e9b905b3b53a76ff201a4762f6d3c40a5a976a7bfbb7cce2499f910160405180910390a2505050565b73ffffffffffffffffffffffffffffffffffffffff851633148061084b575061084b8533610227565b6108d7576040517f08c379a000000000000000000000000000000000000000000000000000000000815260206004820152602e60248201527f455243313135353a2063616c6c6572206973206e6f7420746f6b656e206f776e60448201527f6572206f7220617070726f76656400000000000000000000000000000000000060648201526084016104a8565b6104be8585858585610d72565b8151835114610975576040517f08c379a000000000000000000000000000000000000000000000000000000000815260206004820152602860248201527f455243313135353a2069647320616e6420616d6f756e7473206c656e6774682060448201527f6d69736d6174636800000000000000000000000000000000000000000000000060648201526084016104a8565b73ffffffffffffffffffffffffffffffffffffffff8416610a18576040517f08c379a000000000000000000000000000000000000000000000000000000000815260206004820152602560248201527f455243313135353a207472616e7366657220746f20746865207a65726f20616460448201527f647265737300000000000000000000000000000000000000000000000000000060648201526084016104a8565b3360005b8451811015610b89576000858281518110610a3957610a39611a58565b602002602001015190506000858381518110610a5757610a57611a58565b6020908102919091018101516000848152808352604080822073ffffffffffffffffffffffffffffffffffffffff8e168352909352919091205490915081811015610b24576040517f08c379a000000000000000000000000000000000000000000000000000000000815260206004820152602a60248201527f455243313135353a20696e73756666696369656e742062616c616e636520666f60448201527f72207472616e736665720000000000000000000000000000000000000000000060648201526084016104a8565b60008381526020818152604080832073ffffffffffffffffffffffffffffffffffffffff8e8116855292528083208585039055908b16825281208054849290610b6e908490611b06565b9250508190555050505080610b8290611ab6565b9050610a1c565b508473ffffffffffffffffffffffffffffffffffffffff168673ffffffffffffffffffffffffffffffffffffffff168273ffffffffffffffffffffffffffffffffffffffff167f4a39dc06d4c0dbc64b70af90fd698a233a518aa5d07e595d983b8c0526c8f7fb8787604051610c00929190611b1e565b60405180910390a4610c16818787878787610fb0565b505050505050565b8173ffffffffffffffffffffffffffffffffffffffff168373ffffffffffffffffffffffffffffffffffffffff161415610cda576040517f08c379a000000000000000000000000000000000000000000000000000000000815260206004820152602960248201527f455243313135353a2073657474696e6720617070726f76616c2073746174757360448201527f20666f722073656c66000000000000000000000000000000000000000000000060648201526084016104a8565b73ffffffffffffffffffffffffffffffffffffffff83811660008181526001602090815260408083209487168084529482529182902080547fffffffffffffffffffffffffffffffffffffffffffffffffffffffffffffff001686151590811790915591519182527f17307eab39ab6107e8899845ad3d59bd9653f200f220920489ca2b5937696c31910160405180910390a3505050565b73ffffffffffffffffffffffffffffffffffffffff8416610e15576040517f08c379a000000000000000000000000000000000000000000000000000000000815260206004820152602560248201527f455243313135353a207472616e7366657220746f20746865207a65726f20616460448201527f647265737300000000000000000000000000000000000000000000000000000060648201526084016104a8565b336000610e2185611253565b90506000610e2e85611253565b905060008681526020818152604080832073ffffffffffffffffffffffffffffffffffffffff8c16845290915290205485811015610eee576040517f08c379a000000000000000000000000000000000000000000000000000000000815260206004820152602a60248201527f455243313135353a20696e73756666696369656e742062616c616e636520666f60448201527f72207472616e736665720000000000000000000000000000000000000000000060648201526084016104a8565b60008781526020818152604080832073ffffffffffffffffffffffffffffffffffffffff8d8116855292528083208985039055908a16825281208054889290610f38908490611b06565b9091555050604080518881526020810188905273ffffffffffffffffffffffffffffffffffffffff808b16928c821692918816917fc3d58168c5ae7397731d063d5bbf3d657854427343f4c083240f7aacaa2d0f62910160405180910390a4610fa5848a8a8a8a8a61129e565b505050505050505050565b73ffffffffffffffffffffffffffffffffffffffff84163b15610c16576040517fbc197c8100000000000000000000000000000000000000000000000000000000815273ffffffffffffffffffffffffffffffffffffffff85169063bc197c81906110279089908990889088908890600401611b4c565b602060405180830381600087803b15801561104157600080fd5b505af192505050801561108f575060408051601f3d9081017fffffffffffffffffffffffffffffffffffffffffffffffffffffffffffffffe016820190925261108c91810190611bb7565b60015b6111795761109b611bd4565b806308c379a014156110ef57506110b0611bf0565b806110bb57506110f1565b806040517f08c379a00000000000000000000000000000000000000000000000000000000081526004016104a89190611586565b505b6040517f08c379a000000000000000000000000000000000000000000000000000000000815260206004820152603460248201527f455243313135353a207472616e7366657220746f206e6f6e2d4552433131353560448201527f526563656976657220696d706c656d656e74657200000000000000000000000060648201526084016104a8565b7fffffffff0000000000000000000000000000000000000000000000000000000081167fbc197c81000000000000000000000000000000000000000000000000000000001461124a576040517f08c379a000000000000000000000000000000000000000000000000000000000815260206004820152602860248201527f455243313135353a204552433131353552656365697665722072656a6563746560448201527f6420746f6b656e7300000000000000000000000000000000000000000000000060648201526084016104a8565b50505050505050565b6040805160018082528183019092526060916000919060208083019080368337019050509050828160008151811061128d5761128d611a58565b602090810291909101015292915050565b73ffffffffffffffffffffffffffffffffffffffff84163b15610c16576040517ff23a6e6100000000000000000000000000000000000000000000000000000000815273ffffffffffffffffffffffffffffffffffffffff85169063f23a6e61906113159089908990889088908890600401611c98565b602060405180830381600087803b15801561132f57600080fd5b505af192505050801561137d575060408051601f3d9081017fffffffffffffffffffffffffffffffffffffffffffffffffffffffffffffffe016820190925261137a91810190611bb7565b60015b6113895761109b611bd4565b7fffffffff0000000000000000000000000000000000000000000000000000000081167ff23a6e61000000000000000000000000000000000000000000000000000000001461124a576040517f08c379a000000000000000000000000000000000000000000000000000000000815260206004820152602860248201527f455243313135353a204552433131353552656365697665722072656a6563746560448201527f6420746f6b656e7300000000000000000000000000000000000000000000000060648201526084016104a8565b803573ffffffffffffffffffffffffffffffffffffffff8116811461147e57600080fd5b919050565b6000806040838503121561149657600080fd5b61149f8361145a565b946020939093013593505050565b7fffffffff00000000000000000000000000000000000000000000000000000000811681146114db57600080fd5b50565b6000602082840312156114f057600080fd5b81356114fb816114ad565b9392505050565b60006020828403121561151457600080fd5b5035919050565b6000815180845260005b8181101561154157602081850181015186830182015201611525565b81811115611553576000602083870101525b50601f017fffffffffffffffffffffffffffffffffffffffffffffffffffffffffffffffe0169290920160200192915050565b6020815260006114fb602083018461151b565b7f4e487b7100000000000000000000000000000000000000000000000000000000600052604160045260246000fd5b7fffffffffffffffffffffffffffffffffffffffffffffffffffffffffffffffe0601f830116810181811067ffffffffffffffff8211171561160c5761160c611599565b6040525050565b600067ffffffffffffffff82111561162d5761162d611599565b5060051b60200190565b600082601f83011261164857600080fd5b8135602061165582611613565b60405161166282826115c8565b83815260059390931b850182019282810191508684111561168257600080fd5b8286015b8481101561169d5780358352918301918301611686565b509695505050505050565b600082601f8301126116b957600080fd5b813567ffffffffffffffff8111156116d3576116d3611599565b60405161170860207fffffffffffffffffffffffffffffffffffffffffffffffffffffffffffffffe0601f85011601826115c8565b81815284602083860101111561171d57600080fd5b816020850160208301376000918101602001919091529392505050565b600080600080600060a0868803121561175257600080fd5b61175b8661145a565b94506117696020870161145a565b9350604086013567ffffffffffffffff8082111561178657600080fd5b61179289838a01611637565b945060608801359150808211156117a857600080fd5b6117b489838a01611637565b935060808801359150808211156117ca57600080fd5b506117d7888289016116a8565b9150509295509295909350565b600080604083850312156117f757600080fd5b823567ffffffffffffffff8082111561180f57600080fd5b818501915085601f83011261182357600080fd5b8135602061183082611613565b60405161183d82826115c8565b83815260059390931b850182019282810191508984111561185d57600080fd5b948201945b83861015611882576118738661145a565b82529482019490820190611862565b9650508601359250508082111561189857600080fd5b506118a585828601611637565b9150509250929050565b600081518084526020808501945080840160005b838110156118df578151875295820195908201906001016118c3565b509495945050505050565b6020815260006114fb60208301846118af565b60008060006060848603121561191257600080fd5b61191b8461145a565b95602085013595506040909401359392505050565b6000806040838503121561194357600080fd5b61194c8361145a565b91506020830135801515811461196157600080fd5b809150509250929050565b6000806040838503121561197f57600080fd5b6119888361145a565b91506119966020840161145a565b90509250929050565b600080600080600060a086880312156119b757600080fd5b6119c08661145a565b94506119ce6020870161145a565b93506040860135925060608601359150608086013567ffffffffffffffff8111156119f857600080fd5b6117d7888289016116a8565b600181811c90821680611a1857607f821691505b60208210811415611a52577f4e487b7100000000000000000000000000000000000000000000000000000000600052602260045260246000fd5b50919050565b7f4e487b7100000000000000000000000000000000000000000000000000000000600052603260045260246000fd5b7f4e487b7100000000000000000000000000000000000000000000000000000000600052601160045260246000fd5b60007fffffffffffffffffffffffffffffffffffffffffffffffffffffffffffffffff821415611ae857611ae8611a87565b5060010190565b600082821015611b0157611b01611a87565b500390565b60008219821115611b1957611b19611a87565b500190565b604081526000611b3160408301856118af565b8281036020840152611b4381856118af565b95945050505050565b600073ffffffffffffffffffffffffffffffffffffffff808816835280871660208401525060a06040830152611b8560a08301866118af565b8281036060840152611b9781866118af565b90508281036080840152611bab818561151b565b98975050505050505050565b600060208284031215611bc957600080fd5b81516114fb816114ad565b600060033d1115611bed5760046000803e5060005160e01c5b90565b600060443d1015611bfe5790565b6040517ffffffffffffffffffffffffffffffffffffffffffffffffffffffffffffffffc803d016004833e81513d67ffffffffffffffff8160248401118184111715611c4c57505050505090565b8285019150815181811115611c645750505050505090565b843d8701016020828501011115611c7e5750505050505090565b611c8d602082860101876115c8565b509095945050505050565b600073ffffffffffffffffffffffffffffffffffffffff808816835280871660208401525084604083015283606083015260a06080830152611cdd60a083018461151b565b97965050505050505056fea26469706673582212209dc6e09bdbb23a6be8ee25dec8e09b787e2eed332d2835a2630c2adc2717cab964736f6c63430008090033",
    "linkReferences": {}
  },
  "methodIdentifiers": {
    "balanceOf(address,uint256)": "00fdd58e",
    "balanceOfBatch(address[],uint256[])": "4e1273f4",
    "burnCoupons(address,uint256,uint256)": "738f0cf1",
    "checkPoint()": "cff805ab",
    "getTotalOutstandingDebt()": "db87b1ff",
    "isApprovedForAll(address,address)": "e985e9c5",
    "mintCoupons(address,uint256,uint256)": "e71fc58f",
    "safeBatchTransferFrom(address,address,uint256[],uint256[],bytes)": "2eb2c2d6",
    "safeTransferFrom(address,address,uint256,uint256,bytes)": "f242432a",
    "setApprovalForAll(address,bool)": "a22cb465",
    "setTotalOutstandingDebt(uint256)": "de62feed",
    "supportsInterface(bytes4)": "01ffc9a7",
    "updateTotalDebt()": "f7ffe84a",
    "uri(uint256)": "0e89341c"
  },
  "id": 94
}