{
  "abi": [
    {
      "inputs": [
        {
          "internalType": "uint256",
          "name": "totalDebt",
          "type": "uint256"
        }
      ],
      "stateMutability": "nonpayable",
      "type": "constructor"
    },
    {
      "anonymous": false,
      "inputs": [
        {
          "indexed": true,
          "internalType": "address",
          "name": "account",
          "type": "address"
        },
        {
          "indexed": true,
          "internalType": "address",
          "name": "operator",
          "type": "address"
        },
        {
          "indexed": false,
          "internalType": "bool",
          "name": "approved",
          "type": "bool"
        }
      ],
      "name": "ApprovalForAll",
      "type": "event"
    },
    {
      "anonymous": false,
      "inputs": [
        {
          "indexed": true,
          "internalType": "address",
          "name": "receiver",
          "type": "address"
        },
        {
          "indexed": false,
          "internalType": "uint256",
          "name": "couponsToMint",
          "type": "uint256"
        },
        {
          "indexed": false,
          "internalType": "uint256",
          "name": "expiryBlockNumber",
          "type": "uint256"
        }
      ],
      "name": "MintedCoupons",
      "type": "event"
    },
    {
      "anonymous": false,
      "inputs": [
        {
          "indexed": true,
          "internalType": "address",
          "name": "operator",
          "type": "address"
        },
        {
          "indexed": true,
          "internalType": "address",
          "name": "from",
          "type": "address"
        },
        {
          "indexed": true,
          "internalType": "address",
          "name": "to",
          "type": "address"
        },
        {
          "indexed": false,
          "internalType": "uint256[]",
          "name": "ids",
          "type": "uint256[]"
        },
        {
          "indexed": false,
          "internalType": "uint256[]",
          "name": "values",
          "type": "uint256[]"
        }
      ],
      "name": "TransferBatch",
      "type": "event"
    },
    {
      "anonymous": false,
      "inputs": [
        {
          "indexed": true,
          "internalType": "address",
          "name": "operator",
          "type": "address"
        },
        {
          "indexed": true,
          "internalType": "address",
          "name": "from",
          "type": "address"
        },
        {
          "indexed": true,
          "internalType": "address",
          "name": "to",
          "type": "address"
        },
        {
          "indexed": false,
          "internalType": "uint256",
          "name": "id",
          "type": "uint256"
        },
        {
          "indexed": false,
          "internalType": "uint256",
          "name": "value",
          "type": "uint256"
        }
      ],
      "name": "TransferSingle",
      "type": "event"
    },
    {
      "anonymous": false,
      "inputs": [
        {
          "indexed": false,
          "internalType": "string",
          "name": "value",
          "type": "string"
        },
        {
          "indexed": true,
          "internalType": "uint256",
          "name": "id",
          "type": "uint256"
        }
      ],
      "name": "URI",
      "type": "event"
    },
    {
      "inputs": [
        {
          "internalType": "address",
          "name": "account",
          "type": "address"
        },
        {
          "internalType": "uint256",
          "name": "id",
          "type": "uint256"
        }
      ],
      "name": "balanceOf",
      "outputs": [
        {
          "internalType": "uint256",
          "name": "",
          "type": "uint256"
        }
      ],
      "stateMutability": "view",
      "type": "function"
    },
    {
      "inputs": [
        {
          "internalType": "address[]",
          "name": "accounts",
          "type": "address[]"
        },
        {
          "internalType": "uint256[]",
          "name": "ids",
          "type": "uint256[]"
        }
      ],
      "name": "balanceOfBatch",
      "outputs": [
        {
          "internalType": "uint256[]",
          "name": "",
          "type": "uint256[]"
        }
      ],
      "stateMutability": "view",
      "type": "function"
    },
    {
      "inputs": [],
      "name": "checkPoint",
      "outputs": [
        {
          "internalType": "uint256",
          "name": "",
          "type": "uint256"
        }
      ],
      "stateMutability": "view",
      "type": "function"
    },
    {
      "inputs": [],
      "name": "getTotalOutstandingDebt",
      "outputs": [
        {
          "internalType": "uint256",
          "name": "",
          "type": "uint256"
        }
      ],
      "stateMutability": "view",
      "type": "function"
    },
    {
      "inputs": [
        {
          "internalType": "address",
          "name": "account",
          "type": "address"
        },
        {
          "internalType": "address",
          "name": "operator",
          "type": "address"
        }
      ],
      "name": "isApprovedForAll",
      "outputs": [
        {
          "internalType": "bool",
          "name": "",
          "type": "bool"
        }
      ],
      "stateMutability": "view",
      "type": "function"
    },
    {
      "inputs": [
        {
          "internalType": "address",
          "name": "receiver",
          "type": "address"
        },
        {
          "internalType": "uint256",
          "name": "couponsToMint",
          "type": "uint256"
        },
        {
          "internalType": "uint256",
          "name": "expiryBlockNumber",
          "type": "uint256"
        }
      ],
      "name": "mintCoupons",
      "outputs": [],
      "stateMutability": "nonpayable",
      "type": "function"
    },
    {
      "inputs": [
        {
          "internalType": "address",
          "name": "from",
          "type": "address"
        },
        {
          "internalType": "address",
          "name": "to",
          "type": "address"
        },
        {
          "internalType": "uint256[]",
          "name": "ids",
          "type": "uint256[]"
        },
        {
          "internalType": "uint256[]",
          "name": "amounts",
          "type": "uint256[]"
        },
        {
          "internalType": "bytes",
          "name": "data",
          "type": "bytes"
        }
      ],
      "name": "safeBatchTransferFrom",
      "outputs": [],
      "stateMutability": "nonpayable",
      "type": "function"
    },
    {
      "inputs": [
        {
          "internalType": "address",
          "name": "from",
          "type": "address"
        },
        {
          "internalType": "address",
          "name": "to",
          "type": "address"
        },
        {
          "internalType": "uint256",
          "name": "id",
          "type": "uint256"
        },
        {
          "internalType": "uint256",
          "name": "amount",
          "type": "uint256"
        },
        {
          "internalType": "bytes",
          "name": "data",
          "type": "bytes"
        }
      ],
      "name": "safeTransferFrom",
      "outputs": [],
      "stateMutability": "nonpayable",
      "type": "function"
    },
    {
      "inputs": [
        {
          "internalType": "address",
          "name": "operator",
          "type": "address"
        },
        {
          "internalType": "bool",
          "name": "approved",
          "type": "bool"
        }
      ],
      "name": "setApprovalForAll",
      "outputs": [],
      "stateMutability": "nonpayable",
      "type": "function"
    },
    {
      "inputs": [
        {
          "internalType": "uint256",
          "name": "totalDebt",
          "type": "uint256"
        }
      ],
      "name": "setTotalOutstandingDebt",
      "outputs": [],
      "stateMutability": "nonpayable",
      "type": "function"
    },
    {
      "inputs": [
        {
          "internalType": "bytes4",
          "name": "interfaceId",
          "type": "bytes4"
        }
      ],
      "name": "supportsInterface",
      "outputs": [
        {
          "internalType": "bool",
          "name": "",
          "type": "bool"
        }
      ],
      "stateMutability": "view",
      "type": "function"
    },
    {
      "inputs": [],
      "name": "updateTotalDebt",
      "outputs": [],
      "stateMutability": "nonpayable",
      "type": "function"
    },
    {
      "inputs": [
        {
          "internalType": "uint256",
          "name": "",
          "type": "uint256"
        }
      ],
      "name": "uri",
      "outputs": [
        {
          "internalType": "string",
          "name": "",
          "type": "string"
        }
      ],
      "stateMutability": "view",
      "type": "function"
    }
  ],
  "bytecode": {
    "object": "0x60806040523480156200001157600080fd5b5060405162001d7a38038062001d7a833981016040819052620000349162000122565b60408051808201909152600381526255524960e81b6020820152620000598162000063565b5060035562000179565b8051620000789060029060208401906200007c565b5050565b8280546200008a906200013c565b90600052602060002090601f016020900481019282620000ae5760008555620000f9565b82601f10620000c957805160ff1916838001178555620000f9565b82800160010185558215620000f9579182015b82811115620000f9578251825591602001919060010190620000dc565b50620001079291506200010b565b5090565b5b808211156200010757600081556001016200010c565b6000602082840312156200013557600080fd5b5051919050565b600181811c908216806200015157607f821691505b602082108114156200017357634e487b7160e01b600052602260045260246000fd5b50919050565b611bf180620001896000396000f3fe608060405234801561001057600080fd5b50600436106100de5760003560e01c8063cff805ab1161008c578063e71fc58f11610066578063e71fc58f146101b8578063e985e9c5146101cb578063f242432a14610214578063f7ffe84a1461022757600080fd5b8063cff805ab14610194578063db87b1ff1461019d578063de62feed146101a557600080fd5b80632eb2c2d6116100bd5780632eb2c2d61461014c5780634e1273f414610161578063a22cb4651461018157600080fd5b8062fdd58e146100e357806301ffc9a7146101095780630e89341c1461012c575b600080fd5b6100f66100f136600461136d565b610230565b6040519081526020015b60405180910390f35b61011c6101173660046113c8565b61030d565b6040519015158152602001610100565b61013f61013a3660046113ec565b6103f2565b6040516101009190611470565b61015f61015a366004611624565b610486565b005b61017461016f3660046116ce565b61054f565b60405161010091906117d4565b61015f61018f3660046117e7565b6106a7565b6100f660045481565b6003546100f6565b61015f6101b33660046113ec565b600355565b61015f6101c6366004611823565b6106b6565b61011c6101d9366004611856565b73ffffffffffffffffffffffffffffffffffffffff918216600090815260016020908152604080832093909416825291909152205460ff1690565b61015f610222366004611889565b61070c565b61015f43600455565b600073ffffffffffffffffffffffffffffffffffffffff83166102da576040517f08c379a000000000000000000000000000000000000000000000000000000000815260206004820152602a60248201527f455243313135353a2061646472657373207a65726f206973206e6f742061207660448201527f616c6964206f776e65720000000000000000000000000000000000000000000060648201526084015b60405180910390fd5b5060009081526020818152604080832073ffffffffffffffffffffffffffffffffffffffff949094168352929052205490565b60007fffffffff0000000000000000000000000000000000000000000000000000000082167fd9b67a260000000000000000000000000000000000000000000000000000000014806103a057507fffffffff0000000000000000000000000000000000000000000000000000000082167f0e89341c00000000000000000000000000000000000000000000000000000000145b806103ec57507f01ffc9a7000000000000000000000000000000000000000000000000000000007fffffffff000000000000000000000000000000000000000000000000000000008316145b92915050565b606060028054610401906118ee565b80601f016020809104026020016040519081016040528092919081815260200182805461042d906118ee565b801561047a5780601f1061044f5761010080835404028352916020019161047a565b820191906000526020600020905b81548152906001019060200180831161045d57829003601f168201915b50505050509050919050565b73ffffffffffffffffffffffffffffffffffffffff85163314806104af57506104af85336101d9565b61053b576040517f08c379a000000000000000000000000000000000000000000000000000000000815260206004820152602e60248201527f455243313135353a2063616c6c6572206973206e6f7420746f6b656e206f776e60448201527f6572206f7220617070726f76656400000000000000000000000000000000000060648201526084016102d1565b61054885858585856107ce565b5050505050565b606081518351146105e2576040517f08c379a000000000000000000000000000000000000000000000000000000000815260206004820152602960248201527f455243313135353a206163636f756e747320616e6420696473206c656e67746860448201527f206d69736d61746368000000000000000000000000000000000000000000000060648201526084016102d1565b6000835167ffffffffffffffff8111156105fe576105fe611483565b604051908082528060200260200182016040528015610627578160200160208202803683370190505b50905060005b845181101561069f5761067285828151811061064b5761064b611942565b602002602001015185838151811061066557610665611942565b6020026020010151610230565b82828151811061068457610684611942565b6020908102919091010152610698816119a0565b905061062d565b509392505050565b6106b2338383610b08565b5050565b604080518381526020810183905273ffffffffffffffffffffffffffffffffffffffff8516917fee6a2b6b9d52e9b905b3b53a76ff201a4762f6d3c40a5a976a7bfbb7cce2499f910160405180910390a2505050565b73ffffffffffffffffffffffffffffffffffffffff8516331480610735575061073585336101d9565b6107c1576040517f08c379a000000000000000000000000000000000000000000000000000000000815260206004820152602e60248201527f455243313135353a2063616c6c6572206973206e6f7420746f6b656e206f776e60448201527f6572206f7220617070726f76656400000000000000000000000000000000000060648201526084016102d1565b6105488585858585610c5c565b815183511461085f576040517f08c379a000000000000000000000000000000000000000000000000000000000815260206004820152602860248201527f455243313135353a2069647320616e6420616d6f756e7473206c656e6774682060448201527f6d69736d6174636800000000000000000000000000000000000000000000000060648201526084016102d1565b73ffffffffffffffffffffffffffffffffffffffff8416610902576040517f08c379a000000000000000000000000000000000000000000000000000000000815260206004820152602560248201527f455243313135353a207472616e7366657220746f20746865207a65726f20616460448201527f647265737300000000000000000000000000000000000000000000000000000060648201526084016102d1565b3360005b8451811015610a7357600085828151811061092357610923611942565b60200260200101519050600085838151811061094157610941611942565b6020908102919091018101516000848152808352604080822073ffffffffffffffffffffffffffffffffffffffff8e168352909352919091205490915081811015610a0e576040517f08c379a000000000000000000000000000000000000000000000000000000000815260206004820152602a60248201527f455243313135353a20696e73756666696369656e742062616c616e636520666f60448201527f72207472616e736665720000000000000000000000000000000000000000000060648201526084016102d1565b60008381526020818152604080832073ffffffffffffffffffffffffffffffffffffffff8e8116855292528083208585039055908b16825281208054849290610a589084906119d9565b9250508190555050505080610a6c906119a0565b9050610906565b508473ffffffffffffffffffffffffffffffffffffffff168673ffffffffffffffffffffffffffffffffffffffff168273ffffffffffffffffffffffffffffffffffffffff167f4a39dc06d4c0dbc64b70af90fd698a233a518aa5d07e595d983b8c0526c8f7fb8787604051610aea9291906119f1565b60405180910390a4610b00818787878787610e9a565b505050505050565b8173ffffffffffffffffffffffffffffffffffffffff168373ffffffffffffffffffffffffffffffffffffffff161415610bc4576040517f08c379a000000000000000000000000000000000000000000000000000000000815260206004820152602960248201527f455243313135353a2073657474696e6720617070726f76616c2073746174757360448201527f20666f722073656c66000000000000000000000000000000000000000000000060648201526084016102d1565b73ffffffffffffffffffffffffffffffffffffffff83811660008181526001602090815260408083209487168084529482529182902080547fffffffffffffffffffffffffffffffffffffffffffffffffffffffffffffff001686151590811790915591519182527f17307eab39ab6107e8899845ad3d59bd9653f200f220920489ca2b5937696c31910160405180910390a3505050565b73ffffffffffffffffffffffffffffffffffffffff8416610cff576040517f08c379a000000000000000000000000000000000000000000000000000000000815260206004820152602560248201527f455243313135353a207472616e7366657220746f20746865207a65726f20616460448201527f647265737300000000000000000000000000000000000000000000000000000060648201526084016102d1565b336000610d0b8561113d565b90506000610d188561113d565b905060008681526020818152604080832073ffffffffffffffffffffffffffffffffffffffff8c16845290915290205485811015610dd8576040517f08c379a000000000000000000000000000000000000000000000000000000000815260206004820152602a60248201527f455243313135353a20696e73756666696369656e742062616c616e636520666f60448201527f72207472616e736665720000000000000000000000000000000000000000000060648201526084016102d1565b60008781526020818152604080832073ffffffffffffffffffffffffffffffffffffffff8d8116855292528083208985039055908a16825281208054889290610e229084906119d9565b9091555050604080518881526020810188905273ffffffffffffffffffffffffffffffffffffffff808b16928c821692918816917fc3d58168c5ae7397731d063d5bbf3d657854427343f4c083240f7aacaa2d0f62910160405180910390a4610e8f848a8a8a8a8a611188565b505050505050505050565b73ffffffffffffffffffffffffffffffffffffffff84163b15610b00576040517fbc197c8100000000000000000000000000000000000000000000000000000000815273ffffffffffffffffffffffffffffffffffffffff85169063bc197c8190610f119089908990889088908890600401611a1f565b602060405180830381600087803b158015610f2b57600080fd5b505af1925050508015610f79575060408051601f3d9081017fffffffffffffffffffffffffffffffffffffffffffffffffffffffffffffffe0168201909252610f7691810190611a8a565b60015b61106357610f85611aa7565b806308c379a01415610fd95750610f9a611ac3565b80610fa55750610fdb565b806040517f08c379a00000000000000000000000000000000000000000000000000000000081526004016102d19190611470565b505b6040517f08c379a000000000000000000000000000000000000000000000000000000000815260206004820152603460248201527f455243313135353a207472616e7366657220746f206e6f6e2d4552433131353560448201527f526563656976657220696d706c656d656e74657200000000000000000000000060648201526084016102d1565b7fffffffff0000000000000000000000000000000000000000000000000000000081167fbc197c810000000000000000000000000000000000000000000000000000000014611134576040517f08c379a000000000000000000000000000000000000000000000000000000000815260206004820152602860248201527f455243313135353a204552433131353552656365697665722072656a6563746560448201527f6420746f6b656e7300000000000000000000000000000000000000000000000060648201526084016102d1565b50505050505050565b6040805160018082528183019092526060916000919060208083019080368337019050509050828160008151811061117757611177611942565b602090810291909101015292915050565b73ffffffffffffffffffffffffffffffffffffffff84163b15610b00576040517ff23a6e6100000000000000000000000000000000000000000000000000000000815273ffffffffffffffffffffffffffffffffffffffff85169063f23a6e61906111ff9089908990889088908890600401611b6b565b602060405180830381600087803b15801561121957600080fd5b505af1925050508015611267575060408051601f3d9081017fffffffffffffffffffffffffffffffffffffffffffffffffffffffffffffffe016820190925261126491810190611a8a565b60015b61127357610f85611aa7565b7fffffffff0000000000000000000000000000000000000000000000000000000081167ff23a6e610000000000000000000000000000000000000000000000000000000014611134576040517f08c379a000000000000000000000000000000000000000000000000000000000815260206004820152602860248201527f455243313135353a204552433131353552656365697665722072656a6563746560448201527f6420746f6b656e7300000000000000000000000000000000000000000000000060648201526084016102d1565b803573ffffffffffffffffffffffffffffffffffffffff8116811461136857600080fd5b919050565b6000806040838503121561138057600080fd5b61138983611344565b946020939093013593505050565b7fffffffff00000000000000000000000000000000000000000000000000000000811681146113c557600080fd5b50565b6000602082840312156113da57600080fd5b81356113e581611397565b9392505050565b6000602082840312156113fe57600080fd5b5035919050565b6000815180845260005b8181101561142b5760208185018101518683018201520161140f565b8181111561143d576000602083870101525b50601f017fffffffffffffffffffffffffffffffffffffffffffffffffffffffffffffffe0169290920160200192915050565b6020815260006113e56020830184611405565b7f4e487b7100000000000000000000000000000000000000000000000000000000600052604160045260246000fd5b7fffffffffffffffffffffffffffffffffffffffffffffffffffffffffffffffe0601f830116810181811067ffffffffffffffff821117156114f6576114f6611483565b6040525050565b600067ffffffffffffffff82111561151757611517611483565b5060051b60200190565b600082601f83011261153257600080fd5b8135602061153f826114fd565b60405161154c82826114b2565b83815260059390931b850182019282810191508684111561156c57600080fd5b8286015b848110156115875780358352918301918301611570565b509695505050505050565b600082601f8301126115a357600080fd5b813567ffffffffffffffff8111156115bd576115bd611483565b6040516115f260207fffffffffffffffffffffffffffffffffffffffffffffffffffffffffffffffe0601f85011601826114b2565b81815284602083860101111561160757600080fd5b816020850160208301376000918101602001919091529392505050565b600080600080600060a0868803121561163c57600080fd5b61164586611344565b945061165360208701611344565b9350604086013567ffffffffffffffff8082111561167057600080fd5b61167c89838a01611521565b9450606088013591508082111561169257600080fd5b61169e89838a01611521565b935060808801359150808211156116b457600080fd5b506116c188828901611592565b9150509295509295909350565b600080604083850312156116e157600080fd5b823567ffffffffffffffff808211156116f957600080fd5b818501915085601f83011261170d57600080fd5b8135602061171a826114fd565b60405161172782826114b2565b83815260059390931b850182019282810191508984111561174757600080fd5b948201945b8386101561176c5761175d86611344565b8252948201949082019061174c565b9650508601359250508082111561178257600080fd5b5061178f85828601611521565b9150509250929050565b600081518084526020808501945080840160005b838110156117c9578151875295820195908201906001016117ad565b509495945050505050565b6020815260006113e56020830184611799565b600080604083850312156117fa57600080fd5b61180383611344565b91506020830135801515811461181857600080fd5b809150509250929050565b60008060006060848603121561183857600080fd5b61184184611344565b95602085013595506040909401359392505050565b6000806040838503121561186957600080fd5b61187283611344565b915061188060208401611344565b90509250929050565b600080600080600060a086880312156118a157600080fd5b6118aa86611344565b94506118b860208701611344565b93506040860135925060608601359150608086013567ffffffffffffffff8111156118e257600080fd5b6116c188828901611592565b600181811c9082168061190257607f821691505b6020821081141561193c577f4e487b7100000000000000000000000000000000000000000000000000000000600052602260045260246000fd5b50919050565b7f4e487b7100000000000000000000000000000000000000000000000000000000600052603260045260246000fd5b7f4e487b7100000000000000000000000000000000000000000000000000000000600052601160045260246000fd5b60007fffffffffffffffffffffffffffffffffffffffffffffffffffffffffffffffff8214156119d2576119d2611971565b5060010190565b600082198211156119ec576119ec611971565b500190565b604081526000611a046040830185611799565b8281036020840152611a168185611799565b95945050505050565b600073ffffffffffffffffffffffffffffffffffffffff808816835280871660208401525060a06040830152611a5860a0830186611799565b8281036060840152611a6a8186611799565b90508281036080840152611a7e8185611405565b98975050505050505050565b600060208284031215611a9c57600080fd5b81516113e581611397565b600060033d1115611ac05760046000803e5060005160e01c5b90565b600060443d1015611ad15790565b6040517ffffffffffffffffffffffffffffffffffffffffffffffffffffffffffffffffc803d016004833e81513d67ffffffffffffffff8160248401118184111715611b1f57505050505090565b8285019150815181811115611b375750505050505090565b843d8701016020828501011115611b515750505050505090565b611b60602082860101876114b2565b509095945050505050565b600073ffffffffffffffffffffffffffffffffffffffff808816835280871660208401525084604083015283606083015260a06080830152611bb060a0830184611405565b97965050505050505056fea2646970667358221220c3e85a685a5449e5f7eee0f6d59b0a56962bebc9f58fe5b9682fa26b65d5123664736f6c63430008090033",
    "linkReferences": {}
  },
  "methodIdentifiers": {
    "balanceOf(address,uint256)": "00fdd58e",
    "balanceOfBatch(address[],uint256[])": "4e1273f4",
    "checkPoint()": "cff805ab",
    "getTotalOutstandingDebt()": "db87b1ff",
    "isApprovedForAll(address,address)": "e985e9c5",
    "mintCoupons(address,uint256,uint256)": "e71fc58f",
    "safeBatchTransferFrom(address,address,uint256[],uint256[],bytes)": "2eb2c2d6",
    "safeTransferFrom(address,address,uint256,uint256,bytes)": "f242432a",
    "setApprovalForAll(address,bool)": "a22cb465",
    "setTotalOutstandingDebt(uint256)": "de62feed",
    "supportsInterface(bytes4)": "01ffc9a7",
    "updateTotalDebt()": "f7ffe84a",
    "uri(uint256)": "0e89341c"
  },
  "id": 55
}