{
  "abi": [
    {
      "inputs": [
        {
          "internalType": "uint256",
          "name": "totalDebt",
          "type": "uint256"
        }
      ],
      "stateMutability": "nonpayable",
      "type": "constructor"
    },
    {
      "anonymous": false,
      "inputs": [
        {
          "indexed": true,
          "internalType": "address",
          "name": "account",
          "type": "address"
        },
        {
          "indexed": true,
          "internalType": "address",
          "name": "operator",
          "type": "address"
        },
        {
          "indexed": false,
          "internalType": "bool",
          "name": "approved",
          "type": "bool"
        }
      ],
      "name": "ApprovalForAll",
      "type": "event"
    },
    {
      "anonymous": false,
      "inputs": [
        {
          "indexed": true,
          "internalType": "address",
          "name": "operator",
          "type": "address"
        },
        {
          "indexed": true,
          "internalType": "address",
          "name": "from",
          "type": "address"
        },
        {
          "indexed": true,
          "internalType": "address",
          "name": "to",
          "type": "address"
        },
        {
          "indexed": false,
          "internalType": "uint256[]",
          "name": "ids",
          "type": "uint256[]"
        },
        {
          "indexed": false,
          "internalType": "uint256[]",
          "name": "values",
          "type": "uint256[]"
        }
      ],
      "name": "TransferBatch",
      "type": "event"
    },
    {
      "anonymous": false,
      "inputs": [
        {
          "indexed": true,
          "internalType": "address",
          "name": "operator",
          "type": "address"
        },
        {
          "indexed": true,
          "internalType": "address",
          "name": "from",
          "type": "address"
        },
        {
          "indexed": true,
          "internalType": "address",
          "name": "to",
          "type": "address"
        },
        {
          "indexed": false,
          "internalType": "uint256",
          "name": "id",
          "type": "uint256"
        },
        {
          "indexed": false,
          "internalType": "uint256",
          "name": "value",
          "type": "uint256"
        }
      ],
      "name": "TransferSingle",
      "type": "event"
    },
    {
      "anonymous": false,
      "inputs": [
        {
          "indexed": false,
          "internalType": "string",
          "name": "value",
          "type": "string"
        },
        {
          "indexed": true,
          "internalType": "uint256",
          "name": "id",
          "type": "uint256"
        }
      ],
      "name": "URI",
      "type": "event"
    },
    {
      "inputs": [
        {
          "internalType": "address",
          "name": "account",
          "type": "address"
        },
        {
          "internalType": "uint256",
          "name": "id",
          "type": "uint256"
        }
      ],
      "name": "balanceOf",
      "outputs": [
        {
          "internalType": "uint256",
          "name": "",
          "type": "uint256"
        }
      ],
      "stateMutability": "view",
      "type": "function"
    },
    {
      "inputs": [
        {
          "internalType": "address[]",
          "name": "accounts",
          "type": "address[]"
        },
        {
          "internalType": "uint256[]",
          "name": "ids",
          "type": "uint256[]"
        }
      ],
      "name": "balanceOfBatch",
      "outputs": [
        {
          "internalType": "uint256[]",
          "name": "",
          "type": "uint256[]"
        }
      ],
      "stateMutability": "view",
      "type": "function"
    },
    {
      "inputs": [],
      "name": "getTotalOutstandingDebt",
      "outputs": [
        {
          "internalType": "uint256",
          "name": "",
          "type": "uint256"
        }
      ],
      "stateMutability": "view",
      "type": "function"
    },
    {
      "inputs": [
        {
          "internalType": "address",
          "name": "account",
          "type": "address"
        },
        {
          "internalType": "address",
          "name": "operator",
          "type": "address"
        }
      ],
      "name": "isApprovedForAll",
      "outputs": [
        {
          "internalType": "bool",
          "name": "",
          "type": "bool"
        }
      ],
      "stateMutability": "view",
      "type": "function"
    },
    {
      "inputs": [
        {
          "internalType": "address",
          "name": "from",
          "type": "address"
        },
        {
          "internalType": "address",
          "name": "to",
          "type": "address"
        },
        {
          "internalType": "uint256[]",
          "name": "ids",
          "type": "uint256[]"
        },
        {
          "internalType": "uint256[]",
          "name": "amounts",
          "type": "uint256[]"
        },
        {
          "internalType": "bytes",
          "name": "data",
          "type": "bytes"
        }
      ],
      "name": "safeBatchTransferFrom",
      "outputs": [],
      "stateMutability": "nonpayable",
      "type": "function"
    },
    {
      "inputs": [
        {
          "internalType": "address",
          "name": "from",
          "type": "address"
        },
        {
          "internalType": "address",
          "name": "to",
          "type": "address"
        },
        {
          "internalType": "uint256",
          "name": "id",
          "type": "uint256"
        },
        {
          "internalType": "uint256",
          "name": "amount",
          "type": "uint256"
        },
        {
          "internalType": "bytes",
          "name": "data",
          "type": "bytes"
        }
      ],
      "name": "safeTransferFrom",
      "outputs": [],
      "stateMutability": "nonpayable",
      "type": "function"
    },
    {
      "inputs": [
        {
          "internalType": "address",
          "name": "operator",
          "type": "address"
        },
        {
          "internalType": "bool",
          "name": "approved",
          "type": "bool"
        }
      ],
      "name": "setApprovalForAll",
      "outputs": [],
      "stateMutability": "nonpayable",
      "type": "function"
    },
    {
      "inputs": [
        {
          "internalType": "uint256",
          "name": "totalDebt",
          "type": "uint256"
        }
      ],
      "name": "setTotalOutstandingDebt",
      "outputs": [],
      "stateMutability": "nonpayable",
      "type": "function"
    },
    {
      "inputs": [
        {
          "internalType": "bytes4",
          "name": "interfaceId",
          "type": "bytes4"
        }
      ],
      "name": "supportsInterface",
      "outputs": [
        {
          "internalType": "bool",
          "name": "",
          "type": "bool"
        }
      ],
      "stateMutability": "view",
      "type": "function"
    },
    {
      "inputs": [
        {
          "internalType": "uint256",
          "name": "",
          "type": "uint256"
        }
      ],
      "name": "uri",
      "outputs": [
        {
          "internalType": "string",
          "name": "",
          "type": "string"
        }
      ],
      "stateMutability": "view",
      "type": "function"
    }
  ],
  "bytecode": {
    "object": "0x60806040523480156200001157600080fd5b5060405162001cab38038062001cab833981016040819052620000349162000122565b60408051808201909152600381526255524960e81b6020820152620000598162000063565b5060035562000179565b8051620000789060029060208401906200007c565b5050565b8280546200008a906200013c565b90600052602060002090601f016020900481019282620000ae5760008555620000f9565b82601f10620000c957805160ff1916838001178555620000f9565b82800160010185558215620000f9579182015b82811115620000f9578251825591602001919060010190620000dc565b50620001079291506200010b565b5090565b5b808211156200010757600081556001016200010c565b6000602082840312156200013557600080fd5b5051919050565b600181811c908216806200015157607f821691505b602082108114156200017357634e487b7160e01b600052602260045260246000fd5b50919050565b611b2280620001896000396000f3fe608060405234801561001057600080fd5b50600436106100bd5760003560e01c8063a22cb46511610076578063de62feed1161005b578063de62feed1461017b578063e985e9c51461018e578063f242432a146101d757600080fd5b8063a22cb46514610160578063db87b1ff1461017357600080fd5b80630e89341c116100a75780630e89341c1461010b5780632eb2c2d61461012b5780634e1273f41461014057600080fd5b8062fdd58e146100c257806301ffc9a7146100e8575b600080fd5b6100d56100d03660046112d1565b6101ea565b6040519081526020015b60405180910390f35b6100fb6100f636600461132c565b6102c7565b60405190151581526020016100df565b61011e610119366004611350565b6103ac565b6040516100df91906113d4565b61013e610139366004611588565b610440565b005b61015361014e366004611632565b610509565b6040516100df9190611738565b61013e61016e36600461174b565b610661565b6003546100d5565b61013e610189366004611350565b600355565b6100fb61019c366004611787565b73ffffffffffffffffffffffffffffffffffffffff918216600090815260016020908152604080832093909416825291909152205460ff1690565b61013e6101e53660046117ba565b610670565b600073ffffffffffffffffffffffffffffffffffffffff8316610294576040517f08c379a000000000000000000000000000000000000000000000000000000000815260206004820152602a60248201527f455243313135353a2061646472657373207a65726f206973206e6f742061207660448201527f616c6964206f776e65720000000000000000000000000000000000000000000060648201526084015b60405180910390fd5b5060009081526020818152604080832073ffffffffffffffffffffffffffffffffffffffff949094168352929052205490565b60007fffffffff0000000000000000000000000000000000000000000000000000000082167fd9b67a2600000000000000000000000000000000000000000000000000000000148061035a57507fffffffff0000000000000000000000000000000000000000000000000000000082167f0e89341c00000000000000000000000000000000000000000000000000000000145b806103a657507f01ffc9a7000000000000000000000000000000000000000000000000000000007fffffffff000000000000000000000000000000000000000000000000000000008316145b92915050565b6060600280546103bb9061181f565b80601f01602080910402602001604051908101604052809291908181526020018280546103e79061181f565b80156104345780601f1061040957610100808354040283529160200191610434565b820191906000526020600020905b81548152906001019060200180831161041757829003601f168201915b50505050509050919050565b73ffffffffffffffffffffffffffffffffffffffff85163314806104695750610469853361019c565b6104f5576040517f08c379a000000000000000000000000000000000000000000000000000000000815260206004820152602e60248201527f455243313135353a2063616c6c6572206973206e6f7420746f6b656e206f776e60448201527f6572206f7220617070726f766564000000000000000000000000000000000000606482015260840161028b565b6105028585858585610732565b5050505050565b6060815183511461059c576040517f08c379a000000000000000000000000000000000000000000000000000000000815260206004820152602960248201527f455243313135353a206163636f756e747320616e6420696473206c656e67746860448201527f206d69736d617463680000000000000000000000000000000000000000000000606482015260840161028b565b6000835167ffffffffffffffff8111156105b8576105b86113e7565b6040519080825280602002602001820160405280156105e1578160200160208202803683370190505b50905060005b84518110156106595761062c85828151811061060557610605611873565b602002602001015185838151811061061f5761061f611873565b60200260200101516101ea565b82828151811061063e5761063e611873565b6020908102919091010152610652816118d1565b90506105e7565b509392505050565b61066c338383610a6c565b5050565b73ffffffffffffffffffffffffffffffffffffffff85163314806106995750610699853361019c565b610725576040517f08c379a000000000000000000000000000000000000000000000000000000000815260206004820152602e60248201527f455243313135353a2063616c6c6572206973206e6f7420746f6b656e206f776e60448201527f6572206f7220617070726f766564000000000000000000000000000000000000606482015260840161028b565b6105028585858585610bc0565b81518351146107c3576040517f08c379a000000000000000000000000000000000000000000000000000000000815260206004820152602860248201527f455243313135353a2069647320616e6420616d6f756e7473206c656e6774682060448201527f6d69736d61746368000000000000000000000000000000000000000000000000606482015260840161028b565b73ffffffffffffffffffffffffffffffffffffffff8416610866576040517f08c379a000000000000000000000000000000000000000000000000000000000815260206004820152602560248201527f455243313135353a207472616e7366657220746f20746865207a65726f20616460448201527f6472657373000000000000000000000000000000000000000000000000000000606482015260840161028b565b3360005b84518110156109d757600085828151811061088757610887611873565b6020026020010151905060008583815181106108a5576108a5611873565b6020908102919091018101516000848152808352604080822073ffffffffffffffffffffffffffffffffffffffff8e168352909352919091205490915081811015610972576040517f08c379a000000000000000000000000000000000000000000000000000000000815260206004820152602a60248201527f455243313135353a20696e73756666696369656e742062616c616e636520666f60448201527f72207472616e7366657200000000000000000000000000000000000000000000606482015260840161028b565b60008381526020818152604080832073ffffffffffffffffffffffffffffffffffffffff8e8116855292528083208585039055908b168252812080548492906109bc90849061190a565b92505081905550505050806109d0906118d1565b905061086a565b508473ffffffffffffffffffffffffffffffffffffffff168673ffffffffffffffffffffffffffffffffffffffff168273ffffffffffffffffffffffffffffffffffffffff167f4a39dc06d4c0dbc64b70af90fd698a233a518aa5d07e595d983b8c0526c8f7fb8787604051610a4e929190611922565b60405180910390a4610a64818787878787610dfe565b505050505050565b8173ffffffffffffffffffffffffffffffffffffffff168373ffffffffffffffffffffffffffffffffffffffff161415610b28576040517f08c379a000000000000000000000000000000000000000000000000000000000815260206004820152602960248201527f455243313135353a2073657474696e6720617070726f76616c2073746174757360448201527f20666f722073656c660000000000000000000000000000000000000000000000606482015260840161028b565b73ffffffffffffffffffffffffffffffffffffffff83811660008181526001602090815260408083209487168084529482529182902080547fffffffffffffffffffffffffffffffffffffffffffffffffffffffffffffff001686151590811790915591519182527f17307eab39ab6107e8899845ad3d59bd9653f200f220920489ca2b5937696c31910160405180910390a3505050565b73ffffffffffffffffffffffffffffffffffffffff8416610c63576040517f08c379a000000000000000000000000000000000000000000000000000000000815260206004820152602560248201527f455243313135353a207472616e7366657220746f20746865207a65726f20616460448201527f6472657373000000000000000000000000000000000000000000000000000000606482015260840161028b565b336000610c6f856110a1565b90506000610c7c856110a1565b905060008681526020818152604080832073ffffffffffffffffffffffffffffffffffffffff8c16845290915290205485811015610d3c576040517f08c379a000000000000000000000000000000000000000000000000000000000815260206004820152602a60248201527f455243313135353a20696e73756666696369656e742062616c616e636520666f60448201527f72207472616e7366657200000000000000000000000000000000000000000000606482015260840161028b565b60008781526020818152604080832073ffffffffffffffffffffffffffffffffffffffff8d8116855292528083208985039055908a16825281208054889290610d8690849061190a565b9091555050604080518881526020810188905273ffffffffffffffffffffffffffffffffffffffff808b16928c821692918816917fc3d58168c5ae7397731d063d5bbf3d657854427343f4c083240f7aacaa2d0f62910160405180910390a4610df3848a8a8a8a8a6110ec565b505050505050505050565b73ffffffffffffffffffffffffffffffffffffffff84163b15610a64576040517fbc197c8100000000000000000000000000000000000000000000000000000000815273ffffffffffffffffffffffffffffffffffffffff85169063bc197c8190610e759089908990889088908890600401611950565b602060405180830381600087803b158015610e8f57600080fd5b505af1925050508015610edd575060408051601f3d9081017fffffffffffffffffffffffffffffffffffffffffffffffffffffffffffffffe0168201909252610eda918101906119bb565b60015b610fc757610ee96119d8565b806308c379a01415610f3d5750610efe6119f4565b80610f095750610f3f565b806040517f08c379a000000000000000000000000000000000000000000000000000000000815260040161028b91906113d4565b505b6040517f08c379a000000000000000000000000000000000000000000000000000000000815260206004820152603460248201527f455243313135353a207472616e7366657220746f206e6f6e2d4552433131353560448201527f526563656976657220696d706c656d656e746572000000000000000000000000606482015260840161028b565b7fffffffff0000000000000000000000000000000000000000000000000000000081167fbc197c810000000000000000000000000000000000000000000000000000000014611098576040517f08c379a000000000000000000000000000000000000000000000000000000000815260206004820152602860248201527f455243313135353a204552433131353552656365697665722072656a6563746560448201527f6420746f6b656e73000000000000000000000000000000000000000000000000606482015260840161028b565b50505050505050565b604080516001808252818301909252606091600091906020808301908036833701905050905082816000815181106110db576110db611873565b602090810291909101015292915050565b73ffffffffffffffffffffffffffffffffffffffff84163b15610a64576040517ff23a6e6100000000000000000000000000000000000000000000000000000000815273ffffffffffffffffffffffffffffffffffffffff85169063f23a6e61906111639089908990889088908890600401611a9c565b602060405180830381600087803b15801561117d57600080fd5b505af19250505080156111cb575060408051601f3d9081017fffffffffffffffffffffffffffffffffffffffffffffffffffffffffffffffe01682019092526111c8918101906119bb565b60015b6111d757610ee96119d8565b7fffffffff0000000000000000000000000000000000000000000000000000000081167ff23a6e610000000000000000000000000000000000000000000000000000000014611098576040517f08c379a000000000000000000000000000000000000000000000000000000000815260206004820152602860248201527f455243313135353a204552433131353552656365697665722072656a6563746560448201527f6420746f6b656e73000000000000000000000000000000000000000000000000606482015260840161028b565b803573ffffffffffffffffffffffffffffffffffffffff811681146112cc57600080fd5b919050565b600080604083850312156112e457600080fd5b6112ed836112a8565b946020939093013593505050565b7fffffffff000000000000000000000000000000000000000000000000000000008116811461132957600080fd5b50565b60006020828403121561133e57600080fd5b8135611349816112fb565b9392505050565b60006020828403121561136257600080fd5b5035919050565b6000815180845260005b8181101561138f57602081850181015186830182015201611373565b818111156113a1576000602083870101525b50601f017fffffffffffffffffffffffffffffffffffffffffffffffffffffffffffffffe0169290920160200192915050565b6020815260006113496020830184611369565b7f4e487b7100000000000000000000000000000000000000000000000000000000600052604160045260246000fd5b7fffffffffffffffffffffffffffffffffffffffffffffffffffffffffffffffe0601f830116810181811067ffffffffffffffff8211171561145a5761145a6113e7565b6040525050565b600067ffffffffffffffff82111561147b5761147b6113e7565b5060051b60200190565b600082601f83011261149657600080fd5b813560206114a382611461565b6040516114b08282611416565b83815260059390931b85018201928281019150868411156114d057600080fd5b8286015b848110156114eb57803583529183019183016114d4565b509695505050505050565b600082601f83011261150757600080fd5b813567ffffffffffffffff811115611521576115216113e7565b60405161155660207fffffffffffffffffffffffffffffffffffffffffffffffffffffffffffffffe0601f8501160182611416565b81815284602083860101111561156b57600080fd5b816020850160208301376000918101602001919091529392505050565b600080600080600060a086880312156115a057600080fd5b6115a9866112a8565b94506115b7602087016112a8565b9350604086013567ffffffffffffffff808211156115d457600080fd5b6115e089838a01611485565b945060608801359150808211156115f657600080fd5b61160289838a01611485565b9350608088013591508082111561161857600080fd5b50611625888289016114f6565b9150509295509295909350565b6000806040838503121561164557600080fd5b823567ffffffffffffffff8082111561165d57600080fd5b818501915085601f83011261167157600080fd5b8135602061167e82611461565b60405161168b8282611416565b83815260059390931b85018201928281019150898411156116ab57600080fd5b948201945b838610156116d0576116c1866112a8565b825294820194908201906116b0565b965050860135925050808211156116e657600080fd5b506116f385828601611485565b9150509250929050565b600081518084526020808501945080840160005b8381101561172d57815187529582019590820190600101611711565b509495945050505050565b60208152600061134960208301846116fd565b6000806040838503121561175e57600080fd5b611767836112a8565b91506020830135801515811461177c57600080fd5b809150509250929050565b6000806040838503121561179a57600080fd5b6117a3836112a8565b91506117b1602084016112a8565b90509250929050565b600080600080600060a086880312156117d257600080fd5b6117db866112a8565b94506117e9602087016112a8565b93506040860135925060608601359150608086013567ffffffffffffffff81111561181357600080fd5b611625888289016114f6565b600181811c9082168061183357607f821691505b6020821081141561186d577f4e487b7100000000000000000000000000000000000000000000000000000000600052602260045260246000fd5b50919050565b7f4e487b7100000000000000000000000000000000000000000000000000000000600052603260045260246000fd5b7f4e487b7100000000000000000000000000000000000000000000000000000000600052601160045260246000fd5b60007fffffffffffffffffffffffffffffffffffffffffffffffffffffffffffffffff821415611903576119036118a2565b5060010190565b6000821982111561191d5761191d6118a2565b500190565b60408152600061193560408301856116fd565b828103602084015261194781856116fd565b95945050505050565b600073ffffffffffffffffffffffffffffffffffffffff808816835280871660208401525060a0604083015261198960a08301866116fd565b828103606084015261199b81866116fd565b905082810360808401526119af8185611369565b98975050505050505050565b6000602082840312156119cd57600080fd5b8151611349816112fb565b600060033d11156119f15760046000803e5060005160e01c5b90565b600060443d1015611a025790565b6040517ffffffffffffffffffffffffffffffffffffffffffffffffffffffffffffffffc803d016004833e81513d67ffffffffffffffff8160248401118184111715611a5057505050505090565b8285019150815181811115611a685750505050505090565b843d8701016020828501011115611a825750505050505090565b611a9160208286010187611416565b509095945050505050565b600073ffffffffffffffffffffffffffffffffffffffff808816835280871660208401525084604083015283606083015260a06080830152611ae160a0830184611369565b97965050505050505056fea26469706673582212209be8890c1b19f86014f7a098de10cef2e9b040a92a90c224c33771d0f938b2b764736f6c63430008090033",
    "linkReferences": {}
  },
  "methodIdentifiers": {
    "balanceOf(address,uint256)": "00fdd58e",
    "balanceOfBatch(address[],uint256[])": "4e1273f4",
    "getTotalOutstandingDebt()": "db87b1ff",
    "isApprovedForAll(address,address)": "e985e9c5",
    "safeBatchTransferFrom(address,address,uint256[],uint256[],bytes)": "2eb2c2d6",
    "safeTransferFrom(address,address,uint256,uint256,bytes)": "f242432a",
    "setApprovalForAll(address,bool)": "a22cb465",
    "setTotalOutstandingDebt(uint256)": "de62feed",
    "supportsInterface(bytes4)": "01ffc9a7",
    "uri(uint256)": "0e89341c"
  },
  "id": 93
}