{
  "abi": [
    {
      "inputs": [
        {
          "internalType": "uint256",
          "name": "totalDebt",
          "type": "uint256"
        }
      ],
      "stateMutability": "nonpayable",
      "type": "constructor"
    },
    {
      "anonymous": false,
      "inputs": [
        {
          "indexed": true,
          "internalType": "address",
          "name": "account",
          "type": "address"
        },
        {
          "indexed": true,
          "internalType": "address",
          "name": "operator",
          "type": "address"
        },
        {
          "indexed": false,
          "internalType": "bool",
          "name": "approved",
          "type": "bool"
        }
      ],
      "name": "ApprovalForAll",
      "type": "event"
    },
    {
      "anonymous": false,
      "inputs": [
        {
          "indexed": true,
          "internalType": "address",
          "name": "operator",
          "type": "address"
        },
        {
          "indexed": true,
          "internalType": "address",
          "name": "from",
          "type": "address"
        },
        {
          "indexed": true,
          "internalType": "address",
          "name": "to",
          "type": "address"
        },
        {
          "indexed": false,
          "internalType": "uint256[]",
          "name": "ids",
          "type": "uint256[]"
        },
        {
          "indexed": false,
          "internalType": "uint256[]",
          "name": "values",
          "type": "uint256[]"
        }
      ],
      "name": "TransferBatch",
      "type": "event"
    },
    {
      "anonymous": false,
      "inputs": [
        {
          "indexed": true,
          "internalType": "address",
          "name": "operator",
          "type": "address"
        },
        {
          "indexed": true,
          "internalType": "address",
          "name": "from",
          "type": "address"
        },
        {
          "indexed": true,
          "internalType": "address",
          "name": "to",
          "type": "address"
        },
        {
          "indexed": false,
          "internalType": "uint256",
          "name": "id",
          "type": "uint256"
        },
        {
          "indexed": false,
          "internalType": "uint256",
          "name": "value",
          "type": "uint256"
        }
      ],
      "name": "TransferSingle",
      "type": "event"
    },
    {
      "anonymous": false,
      "inputs": [
        {
          "indexed": false,
          "internalType": "string",
          "name": "value",
          "type": "string"
        },
        {
          "indexed": true,
          "internalType": "uint256",
          "name": "id",
          "type": "uint256"
        }
      ],
      "name": "URI",
      "type": "event"
    },
    {
      "inputs": [
        {
          "internalType": "address",
          "name": "account",
          "type": "address"
        },
        {
          "internalType": "uint256",
          "name": "id",
          "type": "uint256"
        }
      ],
      "name": "balanceOf",
      "outputs": [
        {
          "internalType": "uint256",
          "name": "",
          "type": "uint256"
        }
      ],
      "stateMutability": "view",
      "type": "function"
    },
    {
      "inputs": [
        {
          "internalType": "address[]",
          "name": "accounts",
          "type": "address[]"
        },
        {
          "internalType": "uint256[]",
          "name": "ids",
          "type": "uint256[]"
        }
      ],
      "name": "balanceOfBatch",
      "outputs": [
        {
          "internalType": "uint256[]",
          "name": "",
          "type": "uint256[]"
        }
      ],
      "stateMutability": "view",
      "type": "function"
    },
    {
      "inputs": [],
      "name": "getTotalOutstandingDebt",
      "outputs": [
        {
          "internalType": "uint256",
          "name": "",
          "type": "uint256"
        }
      ],
      "stateMutability": "view",
      "type": "function"
    },
    {
      "inputs": [
        {
          "internalType": "address",
          "name": "account",
          "type": "address"
        },
        {
          "internalType": "address",
          "name": "operator",
          "type": "address"
        }
      ],
      "name": "isApprovedForAll",
      "outputs": [
        {
          "internalType": "bool",
          "name": "",
          "type": "bool"
        }
      ],
      "stateMutability": "view",
      "type": "function"
    },
    {
      "inputs": [
        {
          "internalType": "address",
          "name": "from",
          "type": "address"
        },
        {
          "internalType": "address",
          "name": "to",
          "type": "address"
        },
        {
          "internalType": "uint256[]",
          "name": "ids",
          "type": "uint256[]"
        },
        {
          "internalType": "uint256[]",
          "name": "amounts",
          "type": "uint256[]"
        },
        {
          "internalType": "bytes",
          "name": "data",
          "type": "bytes"
        }
      ],
      "name": "safeBatchTransferFrom",
      "outputs": [],
      "stateMutability": "nonpayable",
      "type": "function"
    },
    {
      "inputs": [
        {
          "internalType": "address",
          "name": "from",
          "type": "address"
        },
        {
          "internalType": "address",
          "name": "to",
          "type": "address"
        },
        {
          "internalType": "uint256",
          "name": "id",
          "type": "uint256"
        },
        {
          "internalType": "uint256",
          "name": "amount",
          "type": "uint256"
        },
        {
          "internalType": "bytes",
          "name": "data",
          "type": "bytes"
        }
      ],
      "name": "safeTransferFrom",
      "outputs": [],
      "stateMutability": "nonpayable",
      "type": "function"
    },
    {
      "inputs": [
        {
          "internalType": "address",
          "name": "operator",
          "type": "address"
        },
        {
          "internalType": "bool",
          "name": "approved",
          "type": "bool"
        }
      ],
      "name": "setApprovalForAll",
      "outputs": [],
      "stateMutability": "nonpayable",
      "type": "function"
    },
    {
      "inputs": [
        {
          "internalType": "bytes4",
          "name": "interfaceId",
          "type": "bytes4"
        }
      ],
      "name": "supportsInterface",
      "outputs": [
        {
          "internalType": "bool",
          "name": "",
          "type": "bool"
        }
      ],
      "stateMutability": "view",
      "type": "function"
    },
    {
      "inputs": [
        {
          "internalType": "uint256",
          "name": "",
          "type": "uint256"
        }
      ],
      "name": "uri",
      "outputs": [
        {
          "internalType": "string",
          "name": "",
          "type": "string"
        }
      ],
      "stateMutability": "view",
      "type": "function"
    }
  ],
  "bytecode": {
    "object": "0x60806040523480156200001157600080fd5b5060405162001c7d38038062001c7d833981016040819052620000349162000122565b60408051808201909152600381526255524960e81b6020820152620000598162000063565b5060035562000179565b8051620000789060029060208401906200007c565b5050565b8280546200008a906200013c565b90600052602060002090601f016020900481019282620000ae5760008555620000f9565b82601f10620000c957805160ff1916838001178555620000f9565b82800160010185558215620000f9579182015b82811115620000f9578251825591602001919060010190620000dc565b50620001079291506200010b565b5090565b5b808211156200010757600081556001016200010c565b6000602082840312156200013557600080fd5b5051919050565b600181811c908216806200015157607f821691505b602082108114156200017357634e487b7160e01b600052602260045260246000fd5b50919050565b611af480620001896000396000f3fe608060405234801561001057600080fd5b50600436106100a25760003560e01c80634e1273f411610076578063db87b1ff1161005b578063db87b1ff14610158578063e985e9c514610160578063f242432a146101a957600080fd5b80634e1273f414610125578063a22cb4651461014557600080fd5b8062fdd58e146100a757806301ffc9a7146100cd5780630e89341c146100f05780632eb2c2d614610110575b600080fd5b6100ba6100b53660046112a3565b6101bc565b6040519081526020015b60405180910390f35b6100e06100db3660046112fe565b610299565b60405190151581526020016100c4565b6101036100fe366004611322565b61037e565b6040516100c491906113a6565b61012361011e36600461155a565b610412565b005b610138610133366004611604565b6104db565b6040516100c4919061170a565b61012361015336600461171d565b610633565b6003546100ba565b6100e061016e366004611759565b73ffffffffffffffffffffffffffffffffffffffff918216600090815260016020908152604080832093909416825291909152205460ff1690565b6101236101b736600461178c565b610642565b600073ffffffffffffffffffffffffffffffffffffffff8316610266576040517f08c379a000000000000000000000000000000000000000000000000000000000815260206004820152602a60248201527f455243313135353a2061646472657373207a65726f206973206e6f742061207660448201527f616c6964206f776e65720000000000000000000000000000000000000000000060648201526084015b60405180910390fd5b5060009081526020818152604080832073ffffffffffffffffffffffffffffffffffffffff949094168352929052205490565b60007fffffffff0000000000000000000000000000000000000000000000000000000082167fd9b67a2600000000000000000000000000000000000000000000000000000000148061032c57507fffffffff0000000000000000000000000000000000000000000000000000000082167f0e89341c00000000000000000000000000000000000000000000000000000000145b8061037857507f01ffc9a7000000000000000000000000000000000000000000000000000000007fffffffff000000000000000000000000000000000000000000000000000000008316145b92915050565b60606002805461038d906117f1565b80601f01602080910402602001604051908101604052809291908181526020018280546103b9906117f1565b80156104065780601f106103db57610100808354040283529160200191610406565b820191906000526020600020905b8154815290600101906020018083116103e957829003601f168201915b50505050509050919050565b73ffffffffffffffffffffffffffffffffffffffff851633148061043b575061043b853361016e565b6104c7576040517f08c379a000000000000000000000000000000000000000000000000000000000815260206004820152602e60248201527f455243313135353a2063616c6c6572206973206e6f7420746f6b656e206f776e60448201527f6572206f7220617070726f766564000000000000000000000000000000000000606482015260840161025d565b6104d48585858585610704565b5050505050565b6060815183511461056e576040517f08c379a000000000000000000000000000000000000000000000000000000000815260206004820152602960248201527f455243313135353a206163636f756e747320616e6420696473206c656e67746860448201527f206d69736d617463680000000000000000000000000000000000000000000000606482015260840161025d565b6000835167ffffffffffffffff81111561058a5761058a6113b9565b6040519080825280602002602001820160405280156105b3578160200160208202803683370190505b50905060005b845181101561062b576105fe8582815181106105d7576105d7611845565b60200260200101518583815181106105f1576105f1611845565b60200260200101516101bc565b82828151811061061057610610611845565b6020908102919091010152610624816118a3565b90506105b9565b509392505050565b61063e338383610a3e565b5050565b73ffffffffffffffffffffffffffffffffffffffff851633148061066b575061066b853361016e565b6106f7576040517f08c379a000000000000000000000000000000000000000000000000000000000815260206004820152602e60248201527f455243313135353a2063616c6c6572206973206e6f7420746f6b656e206f776e60448201527f6572206f7220617070726f766564000000000000000000000000000000000000606482015260840161025d565b6104d48585858585610b92565b8151835114610795576040517f08c379a000000000000000000000000000000000000000000000000000000000815260206004820152602860248201527f455243313135353a2069647320616e6420616d6f756e7473206c656e6774682060448201527f6d69736d61746368000000000000000000000000000000000000000000000000606482015260840161025d565b73ffffffffffffffffffffffffffffffffffffffff8416610838576040517f08c379a000000000000000000000000000000000000000000000000000000000815260206004820152602560248201527f455243313135353a207472616e7366657220746f20746865207a65726f20616460448201527f6472657373000000000000000000000000000000000000000000000000000000606482015260840161025d565b3360005b84518110156109a957600085828151811061085957610859611845565b60200260200101519050600085838151811061087757610877611845565b6020908102919091018101516000848152808352604080822073ffffffffffffffffffffffffffffffffffffffff8e168352909352919091205490915081811015610944576040517f08c379a000000000000000000000000000000000000000000000000000000000815260206004820152602a60248201527f455243313135353a20696e73756666696369656e742062616c616e636520666f60448201527f72207472616e7366657200000000000000000000000000000000000000000000606482015260840161025d565b60008381526020818152604080832073ffffffffffffffffffffffffffffffffffffffff8e8116855292528083208585039055908b1682528120805484929061098e9084906118dc565b92505081905550505050806109a2906118a3565b905061083c565b508473ffffffffffffffffffffffffffffffffffffffff168673ffffffffffffffffffffffffffffffffffffffff168273ffffffffffffffffffffffffffffffffffffffff167f4a39dc06d4c0dbc64b70af90fd698a233a518aa5d07e595d983b8c0526c8f7fb8787604051610a209291906118f4565b60405180910390a4610a36818787878787610dd0565b505050505050565b8173ffffffffffffffffffffffffffffffffffffffff168373ffffffffffffffffffffffffffffffffffffffff161415610afa576040517f08c379a000000000000000000000000000000000000000000000000000000000815260206004820152602960248201527f455243313135353a2073657474696e6720617070726f76616c2073746174757360448201527f20666f722073656c660000000000000000000000000000000000000000000000606482015260840161025d565b73ffffffffffffffffffffffffffffffffffffffff83811660008181526001602090815260408083209487168084529482529182902080547fffffffffffffffffffffffffffffffffffffffffffffffffffffffffffffff001686151590811790915591519182527f17307eab39ab6107e8899845ad3d59bd9653f200f220920489ca2b5937696c31910160405180910390a3505050565b73ffffffffffffffffffffffffffffffffffffffff8416610c35576040517f08c379a000000000000000000000000000000000000000000000000000000000815260206004820152602560248201527f455243313135353a207472616e7366657220746f20746865207a65726f20616460448201527f6472657373000000000000000000000000000000000000000000000000000000606482015260840161025d565b336000610c4185611073565b90506000610c4e85611073565b905060008681526020818152604080832073ffffffffffffffffffffffffffffffffffffffff8c16845290915290205485811015610d0e576040517f08c379a000000000000000000000000000000000000000000000000000000000815260206004820152602a60248201527f455243313135353a20696e73756666696369656e742062616c616e636520666f60448201527f72207472616e7366657200000000000000000000000000000000000000000000606482015260840161025d565b60008781526020818152604080832073ffffffffffffffffffffffffffffffffffffffff8d8116855292528083208985039055908a16825281208054889290610d589084906118dc565b9091555050604080518881526020810188905273ffffffffffffffffffffffffffffffffffffffff808b16928c821692918816917fc3d58168c5ae7397731d063d5bbf3d657854427343f4c083240f7aacaa2d0f62910160405180910390a4610dc5848a8a8a8a8a6110be565b505050505050505050565b73ffffffffffffffffffffffffffffffffffffffff84163b15610a36576040517fbc197c8100000000000000000000000000000000000000000000000000000000815273ffffffffffffffffffffffffffffffffffffffff85169063bc197c8190610e479089908990889088908890600401611922565b602060405180830381600087803b158015610e6157600080fd5b505af1925050508015610eaf575060408051601f3d9081017fffffffffffffffffffffffffffffffffffffffffffffffffffffffffffffffe0168201909252610eac9181019061198d565b60015b610f9957610ebb6119aa565b806308c379a01415610f0f5750610ed06119c6565b80610edb5750610f11565b806040517f08c379a000000000000000000000000000000000000000000000000000000000815260040161025d91906113a6565b505b6040517f08c379a000000000000000000000000000000000000000000000000000000000815260206004820152603460248201527f455243313135353a207472616e7366657220746f206e6f6e2d4552433131353560448201527f526563656976657220696d706c656d656e746572000000000000000000000000606482015260840161025d565b7fffffffff0000000000000000000000000000000000000000000000000000000081167fbc197c81000000000000000000000000000000000000000000000000000000001461106a576040517f08c379a000000000000000000000000000000000000000000000000000000000815260206004820152602860248201527f455243313135353a204552433131353552656365697665722072656a6563746560448201527f6420746f6b656e73000000000000000000000000000000000000000000000000606482015260840161025d565b50505050505050565b604080516001808252818301909252606091600091906020808301908036833701905050905082816000815181106110ad576110ad611845565b602090810291909101015292915050565b73ffffffffffffffffffffffffffffffffffffffff84163b15610a36576040517ff23a6e6100000000000000000000000000000000000000000000000000000000815273ffffffffffffffffffffffffffffffffffffffff85169063f23a6e61906111359089908990889088908890600401611a6e565b602060405180830381600087803b15801561114f57600080fd5b505af192505050801561119d575060408051601f3d9081017fffffffffffffffffffffffffffffffffffffffffffffffffffffffffffffffe016820190925261119a9181019061198d565b60015b6111a957610ebb6119aa565b7fffffffff0000000000000000000000000000000000000000000000000000000081167ff23a6e61000000000000000000000000000000000000000000000000000000001461106a576040517f08c379a000000000000000000000000000000000000000000000000000000000815260206004820152602860248201527f455243313135353a204552433131353552656365697665722072656a6563746560448201527f6420746f6b656e73000000000000000000000000000000000000000000000000606482015260840161025d565b803573ffffffffffffffffffffffffffffffffffffffff8116811461129e57600080fd5b919050565b600080604083850312156112b657600080fd5b6112bf8361127a565b946020939093013593505050565b7fffffffff00000000000000000000000000000000000000000000000000000000811681146112fb57600080fd5b50565b60006020828403121561131057600080fd5b813561131b816112cd565b9392505050565b60006020828403121561133457600080fd5b5035919050565b6000815180845260005b8181101561136157602081850181015186830182015201611345565b81811115611373576000602083870101525b50601f017fffffffffffffffffffffffffffffffffffffffffffffffffffffffffffffffe0169290920160200192915050565b60208152600061131b602083018461133b565b7f4e487b7100000000000000000000000000000000000000000000000000000000600052604160045260246000fd5b7fffffffffffffffffffffffffffffffffffffffffffffffffffffffffffffffe0601f830116810181811067ffffffffffffffff8211171561142c5761142c6113b9565b6040525050565b600067ffffffffffffffff82111561144d5761144d6113b9565b5060051b60200190565b600082601f83011261146857600080fd5b8135602061147582611433565b60405161148282826113e8565b83815260059390931b85018201928281019150868411156114a257600080fd5b8286015b848110156114bd57803583529183019183016114a6565b509695505050505050565b600082601f8301126114d957600080fd5b813567ffffffffffffffff8111156114f3576114f36113b9565b60405161152860207fffffffffffffffffffffffffffffffffffffffffffffffffffffffffffffffe0601f85011601826113e8565b81815284602083860101111561153d57600080fd5b816020850160208301376000918101602001919091529392505050565b600080600080600060a0868803121561157257600080fd5b61157b8661127a565b94506115896020870161127a565b9350604086013567ffffffffffffffff808211156115a657600080fd5b6115b289838a01611457565b945060608801359150808211156115c857600080fd5b6115d489838a01611457565b935060808801359150808211156115ea57600080fd5b506115f7888289016114c8565b9150509295509295909350565b6000806040838503121561161757600080fd5b823567ffffffffffffffff8082111561162f57600080fd5b818501915085601f83011261164357600080fd5b8135602061165082611433565b60405161165d82826113e8565b83815260059390931b850182019282810191508984111561167d57600080fd5b948201945b838610156116a2576116938661127a565b82529482019490820190611682565b965050860135925050808211156116b857600080fd5b506116c585828601611457565b9150509250929050565b600081518084526020808501945080840160005b838110156116ff578151875295820195908201906001016116e3565b509495945050505050565b60208152600061131b60208301846116cf565b6000806040838503121561173057600080fd5b6117398361127a565b91506020830135801515811461174e57600080fd5b809150509250929050565b6000806040838503121561176c57600080fd5b6117758361127a565b91506117836020840161127a565b90509250929050565b600080600080600060a086880312156117a457600080fd5b6117ad8661127a565b94506117bb6020870161127a565b93506040860135925060608601359150608086013567ffffffffffffffff8111156117e557600080fd5b6115f7888289016114c8565b600181811c9082168061180557607f821691505b6020821081141561183f577f4e487b7100000000000000000000000000000000000000000000000000000000600052602260045260246000fd5b50919050565b7f4e487b7100000000000000000000000000000000000000000000000000000000600052603260045260246000fd5b7f4e487b7100000000000000000000000000000000000000000000000000000000600052601160045260246000fd5b60007fffffffffffffffffffffffffffffffffffffffffffffffffffffffffffffffff8214156118d5576118d5611874565b5060010190565b600082198211156118ef576118ef611874565b500190565b60408152600061190760408301856116cf565b828103602084015261191981856116cf565b95945050505050565b600073ffffffffffffffffffffffffffffffffffffffff808816835280871660208401525060a0604083015261195b60a08301866116cf565b828103606084015261196d81866116cf565b90508281036080840152611981818561133b565b98975050505050505050565b60006020828403121561199f57600080fd5b815161131b816112cd565b600060033d11156119c35760046000803e5060005160e01c5b90565b600060443d10156119d45790565b6040517ffffffffffffffffffffffffffffffffffffffffffffffffffffffffffffffffc803d016004833e81513d67ffffffffffffffff8160248401118184111715611a2257505050505090565b8285019150815181811115611a3a5750505050505090565b843d8701016020828501011115611a545750505050505090565b611a63602082860101876113e8565b509095945050505050565b600073ffffffffffffffffffffffffffffffffffffffff808816835280871660208401525084604083015283606083015260a06080830152611ab360a083018461133b565b97965050505050505056fea2646970667358221220603fdbeb1146aa38118f2ffadaba3d19aada6558987caeb3a44e0ba0d9af17b464736f6c63430008090033",
    "linkReferences": {}
  },
  "methodIdentifiers": {
    "balanceOf(address,uint256)": "00fdd58e",
    "balanceOfBatch(address[],uint256[])": "4e1273f4",
    "getTotalOutstandingDebt()": "db87b1ff",
    "isApprovedForAll(address,address)": "e985e9c5",
    "safeBatchTransferFrom(address,address,uint256[],uint256[],bytes)": "2eb2c2d6",
    "safeTransferFrom(address,address,uint256,uint256,bytes)": "f242432a",
    "setApprovalForAll(address,bool)": "a22cb465",
    "supportsInterface(bytes4)": "01ffc9a7",
    "uri(uint256)": "0e89341c"
  },
  "id": 92
}