{
  "abi": [
    {
      "inputs": [
        {
          "internalType": "address",
          "name": "_manager",
          "type": "address"
        }
      ],
      "stateMutability": "nonpayable",
      "type": "constructor"
    },
    {
      "inputs": [],
      "name": "factory",
      "outputs": [
        {
          "internalType": "contract IUniswapV2Factory",
          "name": "",
          "type": "address"
        }
      ],
      "stateMutability": "view",
      "type": "function"
    },
    {
      "inputs": [],
      "name": "manager",
      "outputs": [
        {
          "internalType": "contract UbiquityAlgorithmicDollarManager",
          "name": "",
          "type": "address"
        }
      ],
      "stateMutability": "view",
      "type": "function"
    },
    {
      "inputs": [],
      "name": "pair",
      "outputs": [
        {
          "internalType": "contract IUniswapV2Pair",
          "name": "",
          "type": "address"
        }
      ],
      "stateMutability": "view",
      "type": "function"
    }
  ],
  "bytecode": {
    "object": "0x6080604052600080546001600160a01b03191673c0aee478e3658e2610c5f7a4a2e1777ce9e4f2ac17905534801561003657600080fd5b50604051610627380380610627833981016040819052610055916104ec565b600180546001600160a01b0319166001600160a01b03831690811790915560408051631787d40360e31b815290516000929163bc3ea0189160048083019260209291908290030181865afa1580156100b1573d6000803e3d6000fd5b505050506040513d601f19601f820116820180604052508101906100d591906104ec565b6001600160a01b0316036101305760405162461bcd60e51b815260206004820152601660248201527f446f6c6c61722061646472657373206e6f74207365740000000000000000000060448201526064015b60405180910390fd5b60015460408051630b42165d60e41b815290516000926001600160a01b03169163b42165d09160048083019260209291908290030181865afa15801561017a573d6000803e3d6000fd5b505050506040513d601f19601f8201168201806040525081019061019e91906104ec565b6001600160a01b0316036101f45760405162461bcd60e51b815260206004820152601460248201527f75474f562041646472657373206e6f74207365740000000000000000000000006044820152606401610127565b6000805460015460408051631787d40360e31b815290516001600160a01b039384169363e6a4390593169163bc3ea0189160048083019260209291908290030181865afa158015610249573d6000803e3d6000fd5b505050506040513d601f19601f8201168201806040525081019061026d91906104ec565b600160009054906101000a90046001600160a01b03166001600160a01b031663b42165d06040518163ffffffff1660e01b8152600401602060405180830381865afa1580156102c0573d6000803e3d6000fd5b505050506040513d601f19601f820116820180604052508101906102e491906104ec565b6040516001600160e01b031960e085901b1681526001600160a01b03928316600482015291166024820152604401602060405180830381865afa15801561032f573d6000803e3d6000fd5b505050506040513d601f19601f8201168201806040525081019061035391906104ec565b90506001600160a01b0381166104c65760005460015460408051631787d40360e31b815290516001600160a01b039384169363c9c6539693169163bc3ea0189160048083019260209291908290030181865afa1580156103b7573d6000803e3d6000fd5b505050506040513d601f19601f820116820180604052508101906103db91906104ec565b600160009054906101000a90046001600160a01b03166001600160a01b031663b42165d06040518163ffffffff1660e01b8152600401602060405180830381865afa15801561042e573d6000803e3d6000fd5b505050506040513d601f19601f8201168201806040525081019061045291906104ec565b6040516001600160e01b031960e085901b1681526001600160a01b039283166004820152911660248201526044016020604051808303816000875af115801561049f573d6000803e3d6000fd5b505050506040513d601f19601f820116820180604052508101906104c391906104ec565b90505b600280546001600160a01b0319166001600160a01b03929092169190911790555061051c565b6000602082840312156104fe57600080fd5b81516001600160a01b038116811461051557600080fd5b9392505050565b60fd8061052a6000396000f3fe6080604052348015600f57600080fd5b5060043610603c5760003560e01c8063481c6a75146041578063a8aa1b31146089578063c45a01551460a8575b600080fd5b60015460609073ffffffffffffffffffffffffffffffffffffffff1681565b60405173ffffffffffffffffffffffffffffffffffffffff909116815260200160405180910390f35b60025460609073ffffffffffffffffffffffffffffffffffffffff1681565b60005460609073ffffffffffffffffffffffffffffffffffffffff168156fea26469706673582212204d4ed1c6daa6a95b6a857c94bdbc7d7194bfd4c046d3f47f5360bd2519c2a91e64736f6c63430008100033",
    "linkReferences": {}
  },
  "methodIdentifiers": {
    "factory()": "c45a0155",
    "manager()": "481c6a75",
    "pair()": "a8aa1b31"
  },
  "id": 60
}