{
  "abi": [
    {
      "inputs": [
        {
          "internalType": "address",
          "name": "_manager",
          "type": "address"
        },
        {
          "internalType": "address",
          "name": "_bondingFormulasAddress",
          "type": "address"
        },
        {
          "internalType": "address[]",
          "name": "_originals",
          "type": "address[]"
        },
        {
          "internalType": "uint256[]",
          "name": "_lpBalances",
          "type": "uint256[]"
        },
        {
          "internalType": "uint256[]",
          "name": "_weeks",
          "type": "uint256[]"
        }
      ],
      "stateMutability": "nonpayable",
      "type": "constructor"
    },
    {
      "anonymous": false,
      "inputs": [
        {
          "indexed": true,
          "internalType": "address",
          "name": "_user",
          "type": "address"
        },
        {
          "indexed": true,
          "internalType": "uint256",
          "name": "_id",
          "type": "uint256"
        },
        {
          "indexed": false,
          "internalType": "uint256",
          "name": "_lpAmount",
          "type": "uint256"
        },
        {
          "indexed": false,
          "internalType": "uint256",
          "name": "_bondingShareAmount",
          "type": "uint256"
        }
      ],
      "name": "AddLiquidityFromBond",
      "type": "event"
    },
    {
      "anonymous": false,
      "inputs": [
        {
          "indexed": false,
          "internalType": "uint256",
          "name": "_blockCountInAWeek",
          "type": "uint256"
        }
      ],
      "name": "BlockCountInAWeekUpdated",
      "type": "event"
    },
    {
      "anonymous": false,
      "inputs": [
        {
          "indexed": false,
          "internalType": "uint256",
          "name": "_bondingDiscountMultiplier",
          "type": "uint256"
        }
      ],
      "name": "BondingDiscountMultiplierUpdated",
      "type": "event"
    },
    {
      "anonymous": false,
      "inputs": [
        {
          "indexed": true,
          "internalType": "address",
          "name": "_user",
          "type": "address"
        },
        {
          "indexed": true,
          "internalType": "uint256",
          "name": "_id",
          "type": "uint256"
        },
        {
          "indexed": false,
          "internalType": "uint256",
          "name": "_lpAmount",
          "type": "uint256"
        },
        {
          "indexed": false,
          "internalType": "uint256",
          "name": "_bondingShareAmount",
          "type": "uint256"
        },
        {
          "indexed": false,
          "internalType": "uint256",
          "name": "_weeks",
          "type": "uint256"
        },
        {
          "indexed": false,
          "internalType": "uint256",
          "name": "_endBlock",
          "type": "uint256"
        }
      ],
      "name": "Deposit",
      "type": "event"
    },
    {
      "anonymous": false,
      "inputs": [
        {
          "indexed": false,
          "internalType": "address",
          "name": "_to",
          "type": "address"
        },
        {
          "indexed": false,
          "internalType": "address",
          "name": "token",
          "type": "address"
        },
        {
          "indexed": false,
          "internalType": "uint256",
          "name": "amount",
          "type": "uint256"
        }
      ],
      "name": "DustSent",
      "type": "event"
    },
    {
      "anonymous": false,
      "inputs": [
        {
          "indexed": true,
          "internalType": "address",
          "name": "_user",
          "type": "address"
        },
        {
          "indexed": true,
          "internalType": "uint256",
          "name": "_id",
          "type": "uint256"
        },
        {
          "indexed": false,
          "internalType": "uint256",
          "name": "_lpsAmount",
          "type": "uint256"
        },
        {
          "indexed": false,
          "internalType": "uint256",
          "name": "_sharesAmount",
          "type": "uint256"
        },
        {
          "indexed": false,
          "internalType": "uint256",
          "name": "_weeks",
          "type": "uint256"
        }
      ],
      "name": "Migrated",
      "type": "event"
    },
    {
      "anonymous": false,
      "inputs": [
        {
          "indexed": false,
          "internalType": "address",
          "name": "account",
          "type": "address"
        }
      ],
      "name": "Paused",
      "type": "event"
    },
    {
      "anonymous": false,
      "inputs": [
        {
          "indexed": false,
          "internalType": "address",
          "name": "_tokenWithdrawn",
          "type": "address"
        },
        {
          "indexed": false,
          "internalType": "uint256",
          "name": "_amountWithdrawn",
          "type": "uint256"
        },
        {
          "indexed": false,
          "internalType": "uint256",
          "name": "_amountTransfered",
          "type": "uint256"
        }
      ],
      "name": "PriceReset",
      "type": "event"
    },
    {
      "anonymous": false,
      "inputs": [
        {
          "indexed": false,
          "internalType": "address",
          "name": "_token",
          "type": "address"
        }
      ],
      "name": "ProtocolTokenAdded",
      "type": "event"
    },
    {
      "anonymous": false,
      "inputs": [
        {
          "indexed": false,
          "internalType": "address",
          "name": "_token",
          "type": "address"
        }
      ],
      "name": "ProtocolTokenRemoved",
      "type": "event"
    },
    {
      "anonymous": false,
      "inputs": [
        {
          "indexed": true,
          "internalType": "address",
          "name": "_user",
          "type": "address"
        },
        {
          "indexed": true,
          "internalType": "uint256",
          "name": "_id",
          "type": "uint256"
        },
        {
          "indexed": false,
          "internalType": "uint256",
          "name": "_lpAmount",
          "type": "uint256"
        },
        {
          "indexed": false,
          "internalType": "uint256",
          "name": "_lpAmountTransferred",
          "type": "uint256"
        },
        {
          "indexed": false,
          "internalType": "uint256",
          "name": "_lprewards",
          "type": "uint256"
        },
        {
          "indexed": false,
          "internalType": "uint256",
          "name": "_bondingShareAmount",
          "type": "uint256"
        }
      ],
      "name": "RemoveLiquidityFromBond",
      "type": "event"
    },
    {
      "anonymous": false,
      "inputs": [
        {
          "indexed": false,
          "internalType": "address",
          "name": "account",
          "type": "address"
        }
      ],
      "name": "Unpaused",
      "type": "event"
    },
    {
      "inputs": [],
      "name": "ETH_ADDRESS",
      "outputs": [
        {
          "internalType": "address",
          "name": "",
          "type": "address"
        }
      ],
      "stateMutability": "view",
      "type": "function"
    },
    {
      "inputs": [],
      "name": "ONE",
      "outputs": [
        {
          "internalType": "uint256",
          "name": "",
          "type": "uint256"
        }
      ],
      "stateMutability": "view",
      "type": "function"
    },
    {
      "inputs": [],
      "name": "accLpRewardPerShare",
      "outputs": [
        {
          "internalType": "uint256",
          "name": "",
          "type": "uint256"
        }
      ],
      "stateMutability": "view",
      "type": "function"
    },
    {
      "inputs": [
        {
          "internalType": "uint256",
          "name": "_amount",
          "type": "uint256"
        },
        {
          "internalType": "uint256",
          "name": "_id",
          "type": "uint256"
        },
        {
          "internalType": "uint256",
          "name": "_weeks",
          "type": "uint256"
        }
      ],
      "name": "addLiquidity",
      "outputs": [],
      "stateMutability": "nonpayable",
      "type": "function"
    },
    {
      "inputs": [
        {
          "internalType": "address",
          "name": "_token",
          "type": "address"
        }
      ],
      "name": "addProtocolToken",
      "outputs": [],
      "stateMutability": "nonpayable",
      "type": "function"
    },
    {
      "inputs": [
        {
          "internalType": "address",
          "name": "_original",
          "type": "address"
        },
        {
          "internalType": "uint256",
          "name": "_lpBalance",
          "type": "uint256"
        },
        {
          "internalType": "uint256",
          "name": "_weeks",
          "type": "uint256"
        }
      ],
      "name": "addUserToMigrate",
      "outputs": [],
      "stateMutability": "nonpayable",
      "type": "function"
    },
    {
      "inputs": [],
      "name": "blockCountInAWeek",
      "outputs": [
        {
          "internalType": "uint256",
          "name": "",
          "type": "uint256"
        }
      ],
      "stateMutability": "view",
      "type": "function"
    },
    {
      "inputs": [],
      "name": "bondingDiscountMultiplier",
      "outputs": [
        {
          "internalType": "uint256",
          "name": "",
          "type": "uint256"
        }
      ],
      "stateMutability": "view",
      "type": "function"
    },
    {
      "inputs": [],
      "name": "bondingFormulasAddress",
      "outputs": [
        {
          "internalType": "address",
          "name": "",
          "type": "address"
        }
      ],
      "stateMutability": "view",
      "type": "function"
    },
    {
      "inputs": [
        {
          "internalType": "uint256",
          "name": "amount",
          "type": "uint256"
        }
      ],
      "name": "crvPriceReset",
      "outputs": [],
      "stateMutability": "nonpayable",
      "type": "function"
    },
    {
      "inputs": [],
      "name": "currentShareValue",
      "outputs": [
        {
          "internalType": "uint256",
          "name": "priceShare",
          "type": "uint256"
        }
      ],
      "stateMutability": "view",
      "type": "function"
    },
    {
      "inputs": [],
      "name": "data",
      "outputs": [
        {
          "internalType": "bytes",
          "name": "",
          "type": "bytes"
        }
      ],
      "stateMutability": "view",
      "type": "function"
    },
    {
      "inputs": [
        {
          "internalType": "uint256",
          "name": "_lpsAmount",
          "type": "uint256"
        },
        {
          "internalType": "uint256",
          "name": "_weeks",
          "type": "uint256"
        }
      ],
      "name": "deposit",
      "outputs": [
        {
          "internalType": "uint256",
          "name": "_id",
          "type": "uint256"
        }
      ],
      "stateMutability": "nonpayable",
      "type": "function"
    },
    {
      "inputs": [
        {
          "internalType": "uint256",
          "name": "amount",
          "type": "uint256"
        },
        {
          "internalType": "uint256",
          "name": "lpRewardDebt",
          "type": "uint256"
        }
      ],
      "name": "lpRewardForShares",
      "outputs": [
        {
          "internalType": "uint256",
          "name": "pendingLpReward",
          "type": "uint256"
        }
      ],
      "stateMutability": "view",
      "type": "function"
    },
    {
      "inputs": [],
      "name": "lpRewards",
      "outputs": [
        {
          "internalType": "uint256",
          "name": "",
          "type": "uint256"
        }
      ],
      "stateMutability": "view",
      "type": "function"
    },
    {
      "inputs": [],
      "name": "manager",
      "outputs": [
        {
          "internalType": "contract UbiquityAlgorithmicDollarManager",
          "name": "",
          "type": "address"
        }
      ],
      "stateMutability": "view",
      "type": "function"
    },
    {
      "inputs": [],
      "name": "migrate",
      "outputs": [
        {
          "internalType": "uint256",
          "name": "_id",
          "type": "uint256"
        }
      ],
      "stateMutability": "nonpayable",
      "type": "function"
    },
    {
      "inputs": [],
      "name": "migrating",
      "outputs": [
        {
          "internalType": "bool",
          "name": "",
          "type": "bool"
        }
      ],
      "stateMutability": "view",
      "type": "function"
    },
    {
      "inputs": [],
      "name": "migrator",
      "outputs": [
        {
          "internalType": "address",
          "name": "",
          "type": "address"
        }
      ],
      "stateMutability": "view",
      "type": "function"
    },
    {
      "inputs": [],
      "name": "pause",
      "outputs": [],
      "stateMutability": "nonpayable",
      "type": "function"
    },
    {
      "inputs": [],
      "name": "paused",
      "outputs": [
        {
          "internalType": "bool",
          "name": "",
          "type": "bool"
        }
      ],
      "stateMutability": "view",
      "type": "function"
    },
    {
      "inputs": [
        {
          "internalType": "uint256",
          "name": "_id",
          "type": "uint256"
        }
      ],
      "name": "pendingLpRewards",
      "outputs": [
        {
          "internalType": "uint256",
          "name": "",
          "type": "uint256"
        }
      ],
      "stateMutability": "view",
      "type": "function"
    },
    {
      "inputs": [
        {
          "internalType": "uint256",
          "name": "_amount",
          "type": "uint256"
        },
        {
          "internalType": "uint256",
          "name": "_id",
          "type": "uint256"
        }
      ],
      "name": "removeLiquidity",
      "outputs": [],
      "stateMutability": "nonpayable",
      "type": "function"
    },
    {
      "inputs": [
        {
          "internalType": "address",
          "name": "_token",
          "type": "address"
        }
      ],
      "name": "removeProtocolToken",
      "outputs": [],
      "stateMutability": "nonpayable",
      "type": "function"
    },
    {
      "inputs": [
        {
          "internalType": "address",
          "name": "_to",
          "type": "address"
        },
        {
          "internalType": "address",
          "name": "_token",
          "type": "address"
        },
        {
          "internalType": "uint256",
          "name": "_amount",
          "type": "uint256"
        }
      ],
      "name": "sendDust",
      "outputs": [],
      "stateMutability": "nonpayable",
      "type": "function"
    },
    {
      "inputs": [
        {
          "internalType": "uint256",
          "name": "_blockCountInAWeek",
          "type": "uint256"
        }
      ],
      "name": "setBlockCountInAWeek",
      "outputs": [],
      "stateMutability": "nonpayable",
      "type": "function"
    },
    {
      "inputs": [
        {
          "internalType": "uint256",
          "name": "_bondingDiscountMultiplier",
          "type": "uint256"
        }
      ],
      "name": "setBondingDiscountMultiplier",
      "outputs": [],
      "stateMutability": "nonpayable",
      "type": "function"
    },
    {
      "inputs": [
        {
          "internalType": "address",
          "name": "_bondingFormulasAddress",
          "type": "address"
        }
      ],
      "name": "setBondingFormulasAddress",
      "outputs": [],
      "stateMutability": "nonpayable",
      "type": "function"
    },
    {
      "inputs": [
        {
          "internalType": "bool",
          "name": "_migrating",
          "type": "bool"
        }
      ],
      "name": "setMigrating",
      "outputs": [],
      "stateMutability": "nonpayable",
      "type": "function"
    },
    {
      "inputs": [
        {
          "internalType": "address",
          "name": "_migrator",
          "type": "address"
        }
      ],
      "name": "setMigrator",
      "outputs": [],
      "stateMutability": "nonpayable",
      "type": "function"
    },
    {
      "inputs": [
        {
          "internalType": "address",
          "name": "",
          "type": "address"
        }
      ],
      "name": "toMigrateId",
      "outputs": [
        {
          "internalType": "uint256",
          "name": "",
          "type": "uint256"
        }
      ],
      "stateMutability": "view",
      "type": "function"
    },
    {
      "inputs": [],
      "name": "totalLpToMigrate",
      "outputs": [
        {
          "internalType": "uint256",
          "name": "",
          "type": "uint256"
        }
      ],
      "stateMutability": "view",
      "type": "function"
    },
    {
      "inputs": [
        {
          "internalType": "uint256",
          "name": "amount",
          "type": "uint256"
        }
      ],
      "name": "uADPriceReset",
      "outputs": [],
      "stateMutability": "nonpayable",
      "type": "function"
    },
    {
      "inputs": [],
      "name": "unpause",
      "outputs": [],
      "stateMutability": "nonpayable",
      "type": "function"
    },
    {
      "stateMutability": "payable",
      "type": "receive"
    }
  ],
  "bytecode": {
    "object": "0x60a06040819052600060808190526200001b91600391620002a0565b5066038d7ea4c6800060055561b13160065560006007556010805460ff191690553480156200004957600080fd5b5060405162006a5a38038062006a5a8339810160408190526200006c91620004da565b6002805460ff19169055600480546001600160a01b038088166001600160a01b031992831617909255600a805492871692821692909217909155600b805490911633179055825180620001065760405162461bcd60e51b815260206004820152601360248201527f6164647265737320617272617920656d7074790000000000000000000000000060448201526064015b60405180910390fd5b82518114620001585760405162461bcd60e51b815260206004820152601e60248201527f62616c616e636573206172726179206e6f742073616d65206c656e67746800006044820152606401620000fd565b81518114620001aa5760405162461bcd60e51b815260206004820152601b60248201527f7765656b73206172726179206e6f742073616d65206c656e67746800000000006044820152606401620000fd565b8351620001bf90600c9060208701906200032f565b508251620001d590600d90602086019062000387565b508151620001eb90600e90602085019062000387565b5060005b818110156200029357620002058160016200060e565b600f60008784815181106200021e576200021e62000629565b60200260200101516001600160a01b03166001600160a01b03168152602001908152602001600020819055508381815181106200025f576200025f62000629565b6020026020010151600960008282546200027a91906200060e565b909155506200028b9050816200063f565b9050620001ef565b505050505050506200069a565b828054620002ae906200065d565b90600052602060002090601f016020900481019282620002d257600085556200031d565b82601f10620002ed57805160ff19168380011785556200031d565b828001600101855582156200031d579182015b828111156200031d57825182559160200191906001019062000300565b506200032b929150620003c4565b5090565b8280548282559060005260206000209081019282156200031d579160200282015b828111156200031d57825182546001600160a01b0319166001600160a01b0390911617825560209092019160019091019062000350565b8280548282559060005260206000209081019282156200031d57916020028201828111156200031d57825182559160200191906001019062000300565b5b808211156200032b5760008155600101620003c5565b80516001600160a01b0381168114620003f357600080fd5b919050565b634e487b7160e01b600052604160045260246000fd5b604051601f8201601f191681016001600160401b0381118282101715620004395762000439620003f8565b604052919050565b60006001600160401b038211156200045d576200045d620003f8565b5060051b60200190565b600082601f8301126200047957600080fd5b81516020620004926200048c8362000441565b6200040e565b82815260059290921b84018101918181019086841115620004b257600080fd5b8286015b84811015620004cf5780518352918301918301620004b6565b509695505050505050565b600080600080600060a08688031215620004f357600080fd5b620004fe86620003db565b945060206200050f818801620003db565b60408801519095506001600160401b03808211156200052d57600080fd5b818901915089601f8301126200054257600080fd5b8151620005536200048c8262000441565b81815260059190911b8301840190848101908c8311156200057357600080fd5b938501935b828510156200059c576200058c85620003db565b8252938501939085019062000578565b60608c01519098509450505080831115620005b657600080fd5b620005c48a848b0162000467565b94506080890151925080831115620005db57600080fd5b5050620005eb8882890162000467565b9150509295509295909350565b634e487b7160e01b600052601160045260246000fd5b60008219821115620006245762000624620005f8565b500190565b634e487b7160e01b600052603260045260246000fd5b6000600019821415620006565762000656620005f8565b5060010190565b600181811c908216806200067257607f821691505b602082108114156200069457634e487b7160e01b600052602260045260246000fd5b50919050565b6163b080620006aa6000396000f3fe60806040526004361061021d5760003560e01c80638f88f38d1161011d578063bf0d68e4116100b0578063dc0c00c41161007f578063f785f03d11610064578063f785f03d146105e0578063f941717d14610600578063fa3305c91461062d57600080fd5b8063dc0c00c4146105a0578063e2bbb158146105c057600080fd5b8063bf0d68e414610524578063c2ee3a0814610544578063c5d1cb6314610560578063cd6c212b1461058057600080fd5b8063a734f06e116100ec578063a734f06e146104b1578063aa1ec70a146104d9578063aadc68a5146104ef578063b167d4ea1461050457600080fd5b80638f88f38d146104465780638fd3ab801461045c5780639d7de6b314610471578063a194bcde1461049157600080fd5b8063481c6a75116101b057806365566d651161017f5780637cc6bd41116101645780637cc6bd41146103f15780637cd07e47146104115780638456cb591461043157600080fd5b806365566d65146103b957806373d4a13a146103cf57600080fd5b8063481c6a751461031f5780634956cf1c1461035757806352159150146103815780635c975abb146103a157600080fd5b80632f72589e116101ec5780632f72589e146102aa5780633b1ba367146102ca5780633f4ba83a146102ea578063422f1043146102ff57600080fd5b80630c76214114610229578063118c03ec1461025257806323cf3118146102685780632db8c1291461028a57600080fd5b3661022457005b600080fd5b34801561023557600080fd5b5061023f60085481565b6040519081526020015b60405180910390f35b34801561025e57600080fd5b5061023f60095481565b34801561027457600080fd5b50610288610283366004615e1c565b61064d565b005b34801561029657600080fd5b506102886102a5366004615e40565b6106e6565b3480156102b657600080fd5b506102886102c5366004615e81565b61086c565b3480156102d657600080fd5b506102886102e5366004615e81565b610a1e565b3480156102f657600080fd5b50610288611140565b34801561030b57600080fd5b5061028861031a366004615e9a565b6112c0565b34801561032b57600080fd5b5060045461033f906001600160a01b031681565b6040516001600160a01b039091168152602001610249565b34801561036357600080fd5b506010546103719060ff1681565b6040519015158152602001610249565b34801561038d57600080fd5b5061023f61039c366004615e81565b611adc565b3480156103ad57600080fd5b5060025460ff16610371565b3480156103c557600080fd5b5061023f60075481565b3480156103db57600080fd5b506103e46120c2565b6040516102499190615f3c565b3480156103fd57600080fd5b5061028861040c366004615e81565b612150565b34801561041d57600080fd5b50600b5461033f906001600160a01b031681565b34801561043d57600080fd5b5061028861280c565b34801561045257600080fd5b5061023f60055481565b34801561046857600080fd5b5061023f61298a565b34801561047d57600080fd5b5061028861048c366004615f4f565b612acd565b34801561049d57600080fd5b506102886104ac366004615e81565b613470565b3480156104bd57600080fd5b5061033f73eeeeeeeeeeeeeeeeeeeeeeeeeeeeeeeeeeeeeeee81565b3480156104e557600080fd5b5061023f60065481565b3480156104fb57600080fd5b5061023f61361b565b34801561051057600080fd5b5061028861051f366004615f71565b61394e565b34801561053057600080fd5b5061028861053f366004615e1c565b613aa1565b34801561055057600080fd5b5061023f670de0b6b3a764000081565b34801561056c57600080fd5b5061023f61057b366004615f4f565b613c23565b34801561058c57600080fd5b50600a5461033f906001600160a01b031681565b3480156105ac57600080fd5b506102886105bb366004615e1c565b613c60565b3480156105cc57600080fd5b5061023f6105db366004615f4f565b613e10565b3480156105ec57600080fd5b506102886105fb366004615fb4565b614294565b34801561060c57600080fd5b5061023f61061b366004615e1c565b600f6020526000908152604090205481565b34801561063957600080fd5b50610288610648366004615e1c565b61431f565b600b546001600160a01b031633146106ac5760405162461bcd60e51b815260206004820152600c60248201527f6e6f74206d69677261746f72000000000000000000000000000000000000000060448201526064015b60405180910390fd5b600b80547fffffffffffffffffffffffff0000000000000000000000000000000000000000166001600160a01b0392909216919091179055565b60048054604080517fe6c7354000000000000000000000000000000000000000000000000000000000815290516001600160a01b03909216926391d1485492849263e6c735409281810192602092909190829003018186803b15801561074b57600080fd5b505afa15801561075f573d6000803e3d6000fd5b505050506040513d601f19601f820116820180604052508101906107839190615fd1565b6040517fffffffff0000000000000000000000000000000000000000000000000000000060e084901b168152600481019190915233602482015260440160206040518083038186803b1580156107d857600080fd5b505afa1580156107ec573d6000803e3d6000fd5b505050506040513d601f19601f820116820180604052508101906108109190615fea565b61085c5760405162461bcd60e51b815260206004820152600b60248201527f6e6f74206d616e6167657200000000000000000000000000000000000000000060448201526064016106a3565b61086783838361449e565b505050565b60048054604080517fe6c7354000000000000000000000000000000000000000000000000000000000815290516001600160a01b03909216926391d1485492849263e6c735409281810192602092909190829003018186803b1580156108d157600080fd5b505afa1580156108e5573d6000803e3d6000fd5b505050506040513d601f19601f820116820180604052508101906109099190615fd1565b6040517fffffffff0000000000000000000000000000000000000000000000000000000060e084901b168152600481019190915233602482015260440160206040518083038186803b15801561095e57600080fd5b505afa158015610972573d6000803e3d6000fd5b505050506040513d601f19601f820116820180604052508101906109969190615fea565b6109e25760405162461bcd60e51b815260206004820152600b60248201527f6e6f74206d616e6167657200000000000000000000000000000000000000000060448201526064016106a3565b60068190556040518181527f3a1c0b7d3cdecbab83b82697d51cbcdb308b3bbae63e597cbc958deb9c830e50906020015b60405180910390a150565b60048054604080517fe6c7354000000000000000000000000000000000000000000000000000000000815290516001600160a01b03909216926391d1485492849263e6c735409281810192602092909190829003018186803b158015610a8357600080fd5b505afa158015610a97573d6000803e3d6000fd5b505050506040513d601f19601f82011682018060405250810190610abb9190615fd1565b6040517fffffffff0000000000000000000000000000000000000000000000000000000060e084901b168152600481019190915233602482015260440160206040518083038186803b158015610b1057600080fd5b505afa158015610b24573d6000803e3d6000fd5b505050506040513d601f19601f82011682018060405250810190610b489190615fea565b610b945760405162461bcd60e51b815260206004820152600b60248201527f6e6f74206d616e6167657200000000000000000000000000000000000000000060448201526064016106a3565b6000600460009054906101000a90046001600160a01b03166001600160a01b031663d3815fb96040518163ffffffff1660e01b815260040160206040518083038186803b158015610be457600080fd5b505afa158015610bf8573d6000803e3d6000fd5b505050506040513d601f19601f82011682018060405250810190610c1c9190616007565b6040517f1a4d01d200000000000000000000000000000000000000000000000000000000815260048101849052600060248201819052604482018190529192506001600160a01b03831690631a4d01d290606401602060405180830381600087803b158015610c8a57600080fd5b505af1158015610c9e573d6000803e3d6000fd5b505050506040513d601f19601f82011682018060405250810190610cc29190615fd1565b9050600460009054906101000a90046001600160a01b03166001600160a01b0316638fe636836040518163ffffffff1660e01b815260040160206040518083038186803b158015610d1257600080fd5b505afa158015610d26573d6000803e3d6000fd5b505050506040513d601f19601f82011682018060405250810190610d4a9190616007565b6001600160a01b031663a2e620456040518163ffffffff1660e01b8152600401600060405180830381600087803b158015610d8457600080fd5b505af1158015610d98573d6000803e3d6000fd5b505050506000600460009054906101000a90046001600160a01b03166001600160a01b031663bc3ea0186040518163ffffffff1660e01b815260040160206040518083038186803b158015610dec57600080fd5b505afa158015610e00573d6000803e3d6000fd5b505050506040513d601f19601f82011682018060405250810190610e249190616007565b6040517f70a082310000000000000000000000000000000000000000000000000000000081523060048201526001600160a01b0391909116906370a082319060240160206040518083038186803b158015610e7e57600080fd5b505afa158015610e92573d6000803e3d6000fd5b505050506040513d601f19601f82011682018060405250810190610eb69190615fd1565b9050600460009054906101000a90046001600160a01b03166001600160a01b031663bc3ea0186040518163ffffffff1660e01b815260040160206040518083038186803b158015610f0657600080fd5b505afa158015610f1a573d6000803e3d6000fd5b505050506040513d601f19601f82011682018060405250810190610f3e9190616007565b6001600160a01b031663a9059cbb600460009054906101000a90046001600160a01b03166001600160a01b031663c5f956af6040518163ffffffff1660e01b815260040160206040518083038186803b158015610f9a57600080fd5b505afa158015610fae573d6000803e3d6000fd5b505050506040513d601f19601f82011682018060405250810190610fd29190616007565b6040517fffffffff0000000000000000000000000000000000000000000000000000000060e084901b1681526001600160a01b03909116600482015260248101849052604401602060405180830381600087803b15801561103257600080fd5b505af1158015611046573d6000803e3d6000fd5b505050506040513d601f19601f8201168201806040525081019061106a9190615fea565b507f621af463096d58966fa48f497088db472e960b9f399d8cbf787ec0f7d2253365600460009054906101000a90046001600160a01b03166001600160a01b031663bc3ea0186040518163ffffffff1660e01b815260040160206040518083038186803b1580156110da57600080fd5b505afa1580156110ee573d6000803e3d6000fd5b505050506040513d601f19601f820116820180604052508101906111129190616007565b604080516001600160a01b03909216825260208201859052810183905260600160405180910390a150505050565b60048054604080517fe63ab1e900000000000000000000000000000000000000000000000000000000815290516001600160a01b03909216926391d1485492849263e63ab1e99281810192602092909190829003018186803b1580156111a557600080fd5b505afa1580156111b9573d6000803e3d6000fd5b505050506040513d601f19601f820116820180604052508101906111dd9190615fd1565b6040517fffffffff0000000000000000000000000000000000000000000000000000000060e084901b168152600481019190915233602482015260440160206040518083038186803b15801561123257600080fd5b505afa158015611246573d6000803e3d6000fd5b505050506040513d601f19601f8201168201806040525081019061126a9190615fea565b6112b65760405162461bcd60e51b815260206004820152600a60248201527f6e6f74207061757365720000000000000000000000000000000000000000000060448201526064016106a3565b6112be61465d565b565b6112c86146cd565b6000806112d484614720565b815191935091506112e3614c76565b60006112f3828460600151613c23565b9050306001600160a01b031663cd6c212b6040518163ffffffff1660e01b815260040160206040518083038186803b15801561132e57600080fd5b505afa158015611342573d6000803e3d6000fd5b505050506040513d601f19601f820116820180604052508101906113669190616007565b6001600160a01b031663d5a8cf648486846040518463ffffffff1660e01b815260040161139593929190616053565b60206040518083038186803b1580156113ad57600080fd5b505afa1580156113c1573d6000803e3d6000fd5b505050506040513d601f19601f820116820180604052508101906113e59190615fd1565b9050808360a0018181516113f99190616102565b9052506008805482919060009061141190849061611a565b925050819055506114b5333089600460009054906101000a90046001600160a01b03166001600160a01b031663d3815fb96040518163ffffffff1660e01b815260040160206040518083038186803b15801561146c57600080fd5b505afa158015611480573d6000803e3d6000fd5b505050506040513d601f19601f820116820180604052508101906114a49190616007565b6001600160a01b0316929190615082565b868360a0018181516114c79190616102565b90525060048054604080517f221e2e6000000000000000000000000000000000000000000000000000000000815290516001600160a01b039092169263221e2e60928282019260209290829003018186803b15801561152557600080fd5b505afa158015611539573d6000803e3d6000fd5b505050506040513d601f19601f8201168201806040525081019061155d9190616007565b6040517fb5c5f67200000000000000000000000000000000000000000000000000000000815233600482015260248101849052604481018890526001600160a01b03919091169063b5c5f67290606401600060405180830381600087803b1580156115c757600080fd5b505af11580156115db573d6000803e3d6000fd5b505050506000600460009054906101000a90046001600160a01b03166001600160a01b031663214f78826040518163ffffffff1660e01b815260040160206040518083038186803b15801561162f57600080fd5b505afa158015611643573d6000803e3d6000fd5b505050506040513d601f19601f820116820180604052508101906116679190616007565b60a08501516005546040517f5b374a4000000000000000000000000000000000000000000000000000000000815260048101929092526024820189905260448201526001600160a01b039190911690635b374a409060640160206040518083038186803b1580156116d757600080fd5b505afa1580156116eb573d6000803e3d6000fd5b505050506040513d601f19601f8201168201806040525081019061170f9190615fd1565b9050600460009054906101000a90046001600160a01b03166001600160a01b031663221e2e606040518163ffffffff1660e01b815260040160206040518083038186803b15801561175f57600080fd5b505afa158015611773573d6000803e3d6000fd5b505050506040513d601f19601f820116820180604052508101906117979190616007565b6040517f0efe6a8b00000000000000000000000000000000000000000000000000000000815233600482015260248101839052604481018990526001600160a01b039190911690630efe6a8b90606401600060405180830381600087803b15801561180157600080fd5b505af1158015611815573d6000803e3d6000fd5b50505050600654866118279190616131565b6118319043616102565b608085015261183e614c76565b64e8d4a51000600754600460009054906101000a90046001600160a01b03166001600160a01b031663221e2e606040518163ffffffff1660e01b815260040160206040518083038186803b15801561189557600080fd5b505afa1580156118a9573d6000803e3d6000fd5b505050506040513d601f19601f820116820180604052508101906118cd9190616007565b6001600160a01b0316637b80a5c08a6040518263ffffffff1660e01b81526004016118fa91815260200190565b604080518083038186803b15801561191157600080fd5b505afa158015611925573d6000803e3d6000fd5b505050506040513d601f19601f82011682018060405250810190611949919061619d565b516119549190616131565b61195e919061621d565b606085015260048054604080517fc431e83c00000000000000000000000000000000000000000000000000000000815290516001600160a01b039092169263c431e83c928282019260209290829003018186803b1580156119be57600080fd5b505afa1580156119d2573d6000803e3d6000fd5b505050506040513d601f19601f820116820180604052508101906119f69190616007565b60a0850151606086015160808701516040517fa7573cea000000000000000000000000000000000000000000000000000000008152600481018c90526024810193909352604483019190915260648201526001600160a01b03919091169063a7573cea90608401600060405180830381600087803b158015611a7757600080fd5b505af1158015611a8b573d6000803e3d6000fd5b50505060a0850151604080519182526020820184905289925033917f4419681a20e94d59aaa91e563559dc52e7fb9ec1540b072ce92014f31961ce0091015b60405180910390a35050505050505050565b60048054604080517fc431e83c000000000000000000000000000000000000000000000000000000008152905160009384936001600160a01b03169263c431e83c9281830192602092829003018186803b158015611b3957600080fd5b505afa158015611b4d573d6000803e3d6000fd5b505050506040513d601f19601f82011682018060405250810190611b719190616007565b6040517fd8fe7642000000000000000000000000000000000000000000000000000000008152600481018590529091506000906001600160a01b0383169063d8fe76429060240160c06040518083038186803b158015611bd057600080fd5b505afa158015611be4573d6000803e3d6000fd5b505050506040513d601f19601f82011682018060405250810190611c089190616258565b90506000600460009054906101000a90046001600160a01b03166001600160a01b031663221e2e606040518163ffffffff1660e01b815260040160206040518083038186803b158015611c5a57600080fd5b505afa158015611c6e573d6000803e3d6000fd5b505050506040513d601f19601f82011682018060405250810190611c929190616007565b6001600160a01b0316637b80a5c0866040518263ffffffff1660e01b8152600401611cbf91815260200190565b604080518083038186803b158015611cd657600080fd5b505afa158015611cea573d6000803e3d6000fd5b505050506040513d601f19601f82011682018060405250810190611d0e919061619d565b90506000600460009054906101000a90046001600160a01b03166001600160a01b031663d3815fb96040518163ffffffff1660e01b815260040160206040518083038186803b158015611d6057600080fd5b505afa158015611d74573d6000803e3d6000fd5b505050506040513d601f19601f82011682018060405250810190611d989190616007565b6040517f70a082310000000000000000000000000000000000000000000000000000000081523060048201526001600160a01b0391909116906370a082319060240160206040518083038186803b158015611df257600080fd5b505afa158015611e06573d6000803e3d6000fd5b505050506040513d601f19601f82011682018060405250810190611e2a9190615fd1565b9050600954846001600160a01b031663132c4feb6040518163ffffffff1660e01b815260040160206040518083038186803b158015611e6857600080fd5b505afa158015611e7c573d6000803e3d6000fd5b505050506040513d601f19601f82011682018060405250810190611ea09190615fd1565b611eaa9190616102565b81106120b6576000600954856001600160a01b031663132c4feb6040518163ffffffff1660e01b815260040160206040518083038186803b158015611eee57600080fd5b505afa158015611f02573d6000803e3d6000fd5b505050506040513d601f19601f82011682018060405250810190611f269190615fd1565b611f309190616102565b611f3a908361611a565b6007546008549192509082111561207d57600060085483611f5b919061611a565b9050600460009054906101000a90046001600160a01b03166001600160a01b031663221e2e606040518163ffffffff1660e01b815260040160206040518083038186803b158015611fab57600080fd5b505afa158015611fbf573d6000803e3d6000fd5b505050506040513d601f19601f82011682018060405250810190611fe39190616007565b6001600160a01b0316633a98ef396040518163ffffffff1660e01b815260040160206040518083038186803b15801561201b57600080fd5b505afa15801561202f573d6000803e3d6000fd5b505050506040513d601f19601f820116820180604052508101906120539190615fd1565b6120628264e8d4a51000616131565b61206c919061621d565b6007546120799190616102565b9150505b6060850151845164e8d4a5100090612096908490616131565b6120a0919061621d565b6120aa919061611a565b98975050505050505050565b50600095945050505050565b600380546120cf906162db565b80601f01602080910402602001604051908101604052809291908181526020018280546120fb906162db565b80156121485780601f1061211d57610100808354040283529160200191612148565b820191906000526020600020905b81548152906001019060200180831161212b57829003601f168201915b505050505081565b60048054604080517fe6c7354000000000000000000000000000000000000000000000000000000000815290516001600160a01b03909216926391d1485492849263e6c735409281810192602092909190829003018186803b1580156121b557600080fd5b505afa1580156121c9573d6000803e3d6000fd5b505050506040513d601f19601f820116820180604052508101906121ed9190615fd1565b6040517fffffffff0000000000000000000000000000000000000000000000000000000060e084901b168152600481019190915233602482015260440160206040518083038186803b15801561224257600080fd5b505afa158015612256573d6000803e3d6000fd5b505050506040513d601f19601f8201168201806040525081019061227a9190615fea565b6122c65760405162461bcd60e51b815260206004820152600b60248201527f6e6f74206d616e6167657200000000000000000000000000000000000000000060448201526064016106a3565b6000600460009054906101000a90046001600160a01b03166001600160a01b031663d3815fb96040518163ffffffff1660e01b815260040160206040518083038186803b15801561231657600080fd5b505afa15801561232a573d6000803e3d6000fd5b505050506040513d601f19601f8201168201806040525081019061234e9190616007565b6040517f1a4d01d200000000000000000000000000000000000000000000000000000000815260048101849052600160248201526000604482018190529192506001600160a01b03831690631a4d01d290606401602060405180830381600087803b1580156123bc57600080fd5b505af11580156123d0573d6000803e3d6000fd5b505050506040513d601f19601f820116820180604052508101906123f49190615fd1565b9050600460009054906101000a90046001600160a01b03166001600160a01b0316638fe636836040518163ffffffff1660e01b815260040160206040518083038186803b15801561244457600080fd5b505afa158015612458573d6000803e3d6000fd5b505050506040513d601f19601f8201168201806040525081019061247c9190616007565b6001600160a01b031663a2e620456040518163ffffffff1660e01b8152600401600060405180830381600087803b1580156124b657600080fd5b505af11580156124ca573d6000803e3d6000fd5b505050506000600460009054906101000a90046001600160a01b03166001600160a01b031663017df3276040518163ffffffff1660e01b815260040160206040518083038186803b15801561251e57600080fd5b505afa158015612532573d6000803e3d6000fd5b505050506040513d601f19601f820116820180604052508101906125569190616007565b6040517f70a082310000000000000000000000000000000000000000000000000000000081523060048201526001600160a01b0391909116906370a082319060240160206040518083038186803b1580156125b057600080fd5b505afa1580156125c4573d6000803e3d6000fd5b505050506040513d601f19601f820116820180604052508101906125e89190615fd1565b9050600460009054906101000a90046001600160a01b03166001600160a01b031663017df3276040518163ffffffff1660e01b815260040160206040518083038186803b15801561263857600080fd5b505afa15801561264c573d6000803e3d6000fd5b505050506040513d601f19601f820116820180604052508101906126709190616007565b6001600160a01b031663a9059cbb600460009054906101000a90046001600160a01b03166001600160a01b031663c5f956af6040518163ffffffff1660e01b815260040160206040518083038186803b1580156126cc57600080fd5b505afa1580156126e0573d6000803e3d6000fd5b505050506040513d601f19601f820116820180604052508101906127049190616007565b6040517fffffffff0000000000000000000000000000000000000000000000000000000060e084901b1681526001600160a01b03909116600482015260248101849052604401602060405180830381600087803b15801561276457600080fd5b505af1158015612778573d6000803e3d6000fd5b505050506040513d601f19601f8201168201806040525081019061279c9190615fea565b507f621af463096d58966fa48f497088db472e960b9f399d8cbf787ec0f7d2253365600460009054906101000a90046001600160a01b03166001600160a01b031663017df3276040518163ffffffff1660e01b815260040160206040518083038186803b1580156110da57600080fd5b60048054604080517fe63ab1e900000000000000000000000000000000000000000000000000000000815290516001600160a01b03909216926391d1485492849263e63ab1e99281810192602092909190829003018186803b15801561287157600080fd5b505afa158015612885573d6000803e3d6000fd5b505050506040513d601f19601f820116820180604052508101906128a99190615fd1565b6040517fffffffff0000000000000000000000000000000000000000000000000000000060e084901b168152600481019190915233602482015260440160206040518083038186803b1580156128fe57600080fd5b505afa158015612912573d6000803e3d6000fd5b505050506040513d601f19601f820116820180604052508101906129369190615fea565b6129825760405162461bcd60e51b815260206004820152600a60248201527f6e6f74207061757365720000000000000000000000000000000000000000000060448201526064016106a3565b6112be615151565b60105460009060ff166129df5760405162461bcd60e51b815260206004820152601060248201527f6e6f7420696e206d6967726174696f6e0000000000000000000000000000000060448201526064016106a3565b50336000908152600f602052604090205480612a3d5760405162461bcd60e51b815260206004820152600e60248201527f6e6f74207631206164647265737300000000000000000000000000000000000060448201526064016106a3565b612ac9600c612a4d60018461611a565b81548110612a5d57612a5d616024565b6000918252602090912001546001600160a01b0316600d612a7f60018561611a565b81548110612a8f57612a8f616024565b9060005260206000200154600e600185612aa9919061611a565b81548110612ab957612ab9616024565b90600052602060002001546151ac565b5090565b612ad56146cd565b600080612ae183614720565b91509150838160a001511015612b395760405162461bcd60e51b815260206004820152601760248201527f426f6e64696e673a20616d6f756e7420746f6f2062696700000000000000000060448201526064016106a3565b6000306001600160a01b031663cd6c212b6040518163ffffffff1660e01b815260040160206040518083038186803b158015612b7457600080fd5b505afa158015612b88573d6000803e3d6000fd5b505050506040513d601f19601f82011682018060405250810190612bac9190616007565b6001600160a01b031663629056cb8385886040518463ffffffff1660e01b8152600401612bdb93929190616053565b60206040518083038186803b158015612bf357600080fd5b505afa158015612c07573d6000803e3d6000fd5b505050506040513d601f19601f82011682018060405250810190612c2b9190615fd1565b9050612c35614c76565b82516060830151600091612c4891613c23565b9050600460009054906101000a90046001600160a01b03166001600160a01b031663221e2e606040518163ffffffff1660e01b815260040160206040518083038186803b158015612c9857600080fd5b505afa158015612cac573d6000803e3d6000fd5b505050506040513d601f19601f82011682018060405250810190612cd09190616007565b6040517fb5c5f67200000000000000000000000000000000000000000000000000000000815233600482015260248101849052604481018790526001600160a01b03919091169063b5c5f67290606401600060405180830381600087803b158015612d3a57600080fd5b505af1158015612d4e573d6000803e3d6000fd5b505050506000600460009054906101000a90046001600160a01b03166001600160a01b031663d3815fb96040518163ffffffff1660e01b815260040160206040518083038186803b158015612da257600080fd5b505afa158015612db6573d6000803e3d6000fd5b505050506040513d601f19601f82011682018060405250810190612dda9190616007565b9050306001600160a01b031663cd6c212b6040518163ffffffff1660e01b815260040160206040518083038186803b158015612e1557600080fd5b505afa158015612e29573d6000803e3d6000fd5b505050506040513d601f19601f82011682018060405250810190612e4d9190616007565b6001600160a01b031663a64154f08587856040518463ffffffff1660e01b8152600401612e7c93929190616053565b60206040518083038186803b158015612e9457600080fd5b505afa158015612ea8573d6000803e3d6000fd5b505050506040513d601f19601f82011682018060405250810190612ecc9190615fd1565b91506000306001600160a01b031663cd6c212b6040518163ffffffff1660e01b815260040160206040518083038186803b158015612f0957600080fd5b505afa158015612f1d573d6000803e3d6000fd5b505050506040513d601f19601f82011682018060405250810190612f419190616007565b6001600160a01b031663a609d912600460009054906101000a90046001600160a01b03166001600160a01b031663c431e83c6040518163ffffffff1660e01b815260040160206040518083038186803b158015612f9d57600080fd5b505afa158015612fb1573d6000803e3d6000fd5b505050506040513d601f19601f82011682018060405250810190612fd59190616007565b6001600160a01b031663132c4feb6040518163ffffffff1660e01b815260040160206040518083038186803b15801561300d57600080fd5b505afa158015613021573d6000803e3d6000fd5b505050506040513d601f19601f820116820180604052508101906130459190615fd1565b6008546040517f70a082310000000000000000000000000000000000000000000000000000000081523060048201526001600160a01b038716906370a082319060240160206040518083038186803b1580156130a057600080fd5b505afa1580156130b4573d6000803e3d6000fd5b505050506040513d601f19601f820116820180604052508101906130d89190615fd1565b6130e2919061611a565b6040517fffffffff0000000000000000000000000000000000000000000000000000000060e085901b16815260048101929092526024820152604481018b905260640160206040518083038186803b15801561313d57600080fd5b505afa158015613151573d6000803e3d6000fd5b505050506040513d601f19601f820116820180604052508101906131759190615fd1565b90508260086000828254613189919061611a565b92505081905550878560a0018181516131a2919061611a565b90525060075460048054604080517f221e2e60000000000000000000000000000000000000000000000000000000008152905164e8d4a5100094936001600160a01b039093169263221e2e6092808201926020929091829003018186803b15801561320c57600080fd5b505afa158015613220573d6000803e3d6000fd5b505050506040513d601f19601f820116820180604052508101906132449190616007565b6001600160a01b0316637b80a5c08a6040518263ffffffff1660e01b815260040161327191815260200190565b604080518083038186803b15801561328857600080fd5b505afa15801561329c573d6000803e3d6000fd5b505050506040513d601f19601f820116820180604052508101906132c0919061619d565b516132cb9190616131565b6132d5919061621d565b606086015260048054604080517fc431e83c00000000000000000000000000000000000000000000000000000000815290516001600160a01b039092169263c431e83c928282019260209290829003018186803b15801561333557600080fd5b505afa158015613349573d6000803e3d6000fd5b505050506040513d601f19601f8201168201806040525081019061336d9190616007565b60a0860151606087015160808801516040517fa7573cea000000000000000000000000000000000000000000000000000000008152600481018c90526024810193909352604483019190915260648201526001600160a01b03919091169063a7573cea90608401600060405180830381600087803b1580156133ee57600080fd5b505af1158015613402573d6000803e3d6000fd5b505050506134273384836134169190616102565b6001600160a01b03851691906155ea565b604080518981526020810183905290810184905260608101859052879033907fc37eb4d6b54bc2ffba48f4514cb217734c7ecd7c680cd2861e64ca48bc37a95590608001611aca565b60048054604080517fe6c7354000000000000000000000000000000000000000000000000000000000815290516001600160a01b03909216926391d1485492849263e6c735409281810192602092909190829003018186803b1580156134d557600080fd5b505afa1580156134e9573d6000803e3d6000fd5b505050506040513d601f19601f8201168201806040525081019061350d9190615fd1565b6040517fffffffff0000000000000000000000000000000000000000000000000000000060e084901b168152600481019190915233602482015260440160206040518083038186803b15801561356257600080fd5b505afa158015613576573d6000803e3d6000fd5b505050506040513d601f19601f8201168201806040525081019061359a9190615fea565b6135e65760405162461bcd60e51b815260206004820152600b60248201527f6e6f74206d616e6167657200000000000000000000000000000000000000000060448201526064016106a3565b60058190556040518181527fd04894175d9fa4e8890c5d32ca8845426912f890c3d8ac5b5a561045892f899590602001610a13565b60048054604080517f221e2e60000000000000000000000000000000000000000000000000000000008152905160009384936001600160a01b03169263221e2e609281830192602092829003018186803b15801561367857600080fd5b505afa15801561368c573d6000803e3d6000fd5b505050506040513d601f19601f820116820180604052508101906136b09190616007565b6001600160a01b0316633a98ef396040518163ffffffff1660e01b815260040160206040518083038186803b1580156136e857600080fd5b505afa1580156136fc573d6000803e3d6000fd5b505050506040513d601f19601f820116820180604052508101906137209190615fd1565b9050600460009054906101000a90046001600160a01b03166001600160a01b031663214f78826040518163ffffffff1660e01b815260040160206040518083038186803b15801561377057600080fd5b505afa158015613784573d6000803e3d6000fd5b505050506040513d601f19601f820116820180604052508101906137a89190616007565b6001600160a01b031663cd324209600460009054906101000a90046001600160a01b03166001600160a01b031663c431e83c6040518163ffffffff1660e01b815260040160206040518083038186803b15801561380457600080fd5b505afa158015613818573d6000803e3d6000fd5b505050506040513d601f19601f8201168201806040525081019061383c9190616007565b6001600160a01b031663132c4feb6040518163ffffffff1660e01b815260040160206040518083038186803b15801561387457600080fd5b505afa158015613888573d6000803e3d6000fd5b505050506040513d601f19601f820116820180604052508101906138ac9190615fd1565b6040517fffffffff0000000000000000000000000000000000000000000000000000000060e084901b168152600481019190915260248101849052670de0b6b3a7640000604482015260640160206040518083038186803b15801561391057600080fd5b505afa158015613924573d6000803e3d6000fd5b505050506040513d601f19601f820116820180604052508101906139489190615fd1565b91505090565b600b546001600160a01b031633146139a85760405162461bcd60e51b815260206004820152600c60248201527f6e6f74206d69677261746f72000000000000000000000000000000000000000060448201526064016106a3565b600c805460018082019092557fdf6966c971051c3d54ec59162606531493a51404a002842f56009d7e5cf4a8c70180547fffffffffffffffffffffffff0000000000000000000000000000000000000000166001600160a01b038616179055600d8054918201815560009081527fd7b6990105719101dabeb77144f2a3385c8033acd3af97e9423a695e81ad1eb590910183905560098054849290613a4e908490616102565b9091555050600e8054600181019091557fbb7b4a454dc3493923482f07822329ed19e8244eff582cc204f8554c3620c3fd015550600c546001600160a01b039091166000908152600f6020526040902055565b60048054604080517fe6c7354000000000000000000000000000000000000000000000000000000000815290516001600160a01b03909216926391d1485492849263e6c735409281810192602092909190829003018186803b158015613b0657600080fd5b505afa158015613b1a573d6000803e3d6000fd5b505050506040513d601f19601f82011682018060405250810190613b3e9190615fd1565b6040517fffffffff0000000000000000000000000000000000000000000000000000000060e084901b168152600481019190915233602482015260440160206040518083038186803b158015613b9357600080fd5b505afa158015613ba7573d6000803e3d6000fd5b505050506040513d601f19601f82011682018060405250810190613bcb9190615fea565b613c175760405162461bcd60e51b815260206004820152600b60248201527f6e6f74206d616e6167657200000000000000000000000000000000000000000060448201526064016106a3565b613c2081615633565b50565b60075460009015613c5a578164e8d4a5100060075485613c439190616131565b613c4d919061621d565b613c57919061611a565b90505b92915050565b60048054604080517fe6c7354000000000000000000000000000000000000000000000000000000000815290516001600160a01b03909216926391d1485492849263e6c735409281810192602092909190829003018186803b158015613cc557600080fd5b505afa158015613cd9573d6000803e3d6000fd5b505050506040513d601f19601f82011682018060405250810190613cfd9190615fd1565b6040517fffffffff0000000000000000000000000000000000000000000000000000000060e084901b168152600481019190915233602482015260440160206040518083038186803b158015613d5257600080fd5b505afa158015613d66573d6000803e3d6000fd5b505050506040513d601f19601f82011682018060405250810190613d8a9190615fea565b613dd65760405162461bcd60e51b815260206004820152600b60248201527f6e6f74206d616e6167657200000000000000000000000000000000000000000060448201526064016106a3565b600a80547fffffffffffffffffffffffff0000000000000000000000000000000000000000166001600160a01b0392909216919091179055565b6000613e1a6146cd565b81600111158015613e2c575060d08211155b613e9e5760405162461bcd60e51b815260206004820152603160248201527f426f6e64696e673a206475726174696f6e206d7573742062652062657477656560448201527f6e203120616e6420323038207765656b7300000000000000000000000000000060648201526084016106a3565b60048054604080517f8fe6368300000000000000000000000000000000000000000000000000000000815290516001600160a01b0390921692638fe63683928282019260209290829003018186803b158015613ef957600080fd5b505afa158015613f0d573d6000803e3d6000fd5b505050506040513d601f19601f82011682018060405250810190613f319190616007565b6001600160a01b031663a2e620456040518163ffffffff1660e01b8152600401600060405180830381600087803b158015613f6b57600080fd5b505af1158015613f7f573d6000803e3d6000fd5b50505050613f8b614c76565b613fdf333085600460009054906101000a90046001600160a01b03166001600160a01b031663d3815fb96040518163ffffffff1660e01b815260040160206040518083038186803b15801561146c57600080fd5b6000600460009054906101000a90046001600160a01b03166001600160a01b031663214f78826040518163ffffffff1660e01b815260040160206040518083038186803b15801561402f57600080fd5b505afa158015614043573d6000803e3d6000fd5b505050506040513d601f19601f820116820180604052508101906140679190616007565b6005546040517f5b374a40000000000000000000000000000000000000000000000000000000008152600481018790526024810186905260448101919091526001600160a01b039190911690635b374a409060640160206040518083038186803b1580156140d457600080fd5b505afa1580156140e8573d6000803e3d6000fd5b505050506040513d601f19601f8201168201806040525081019061410c9190615fd1565b905060006006548461411e9190616131565b6141289043616102565b9050614136338684846156f5565b9250600460009054906101000a90046001600160a01b03166001600160a01b031663221e2e606040518163ffffffff1660e01b815260040160206040518083038186803b15801561418657600080fd5b505afa15801561419a573d6000803e3d6000fd5b505050506040513d601f19601f820116820180604052508101906141be9190616007565b6040517f0efe6a8b00000000000000000000000000000000000000000000000000000000815233600482015260248101849052604481018590526001600160a01b039190911690630efe6a8b90606401600060405180830381600087803b15801561422857600080fd5b505af115801561423c573d6000803e3d6000fd5b50506040805188815260208101869052908101879052606081018490528592503391507ff943cf10ef4d1e3239f4716ddecdf546e8ba8ab0e41deafd9a71a99936827e459060800160405180910390a3505092915050565b600b546001600160a01b031633146142ee5760405162461bcd60e51b815260206004820152600c60248201527f6e6f74206d69677261746f72000000000000000000000000000000000000000060448201526064016106a3565b601080547fffffffffffffffffffffffffffffffffffffffffffffffffffffffffffffff0016911515919091179055565b60048054604080517fe6c7354000000000000000000000000000000000000000000000000000000000815290516001600160a01b03909216926391d1485492849263e6c735409281810192602092909190829003018186803b15801561438457600080fd5b505afa158015614398573d6000803e3d6000fd5b505050506040513d601f19601f820116820180604052508101906143bc9190615fd1565b6040517fffffffff0000000000000000000000000000000000000000000000000000000060e084901b168152600481019190915233602482015260440160206040518083038186803b15801561441157600080fd5b505afa158015614425573d6000803e3d6000fd5b505050506040513d601f19601f820116820180604052508101906144499190615fea565b6144955760405162461bcd60e51b815260206004820152600b60248201527f6e6f74206d616e6167657200000000000000000000000000000000000000000060448201526064016106a3565b613c20816158d5565b6001600160a01b03831661451a5760405162461bcd60e51b815260206004820152603060248201527f636f6c6c65637461626c652d647573743a3a63616e742d73656e642d6475737460448201527f2d746f2d7a65726f2d616464726573730000000000000000000000000000000060648201526084016106a3565b614525600083615998565b156145985760405162461bcd60e51b815260206004820152602f60248201527f636f6c6c65637461626c652d647573743a3a746f6b656e2d69732d706172742d60448201527f6f662d7468652d70726f746f636f6c000000000000000000000000000000000060648201526084016106a3565b6001600160a01b03821673eeeeeeeeeeeeeeeeeeeeeeeeeeeeeeeeeeeeeeee14156145f9576040516001600160a01b0384169082156108fc029083906000818181858888f193505050501580156145f3573d6000803e3d6000fd5b5061460d565b61460d6001600160a01b03831684836155ea565b604080516001600160a01b038086168252841660208201529081018290527f1e34c1aee8e83c2dcc14c21bb4bfeea7f46c0c998cb797ac7cc4d7a18f5c656b9060600160405180910390a1505050565b6146656159ba565b600280547fffffffffffffffffffffffffffffffffffffffffffffffffffffffffffffff001690557f5db9ee0a495bf2e6ff9c91a7834c1ba4fdd244a5e8aa4e537bd38aeae4b073aa335b6040516001600160a01b03909116815260200160405180910390a1565b60025460ff16156112be5760405162461bcd60e51b815260206004820152601060248201527f5061757361626c653a207061757365640000000000000000000000000000000060448201526064016106a3565b614728615de9565b61476a6040518060c0016040528060006001600160a01b0316815260200160008152602001600081526020016000815260200160008152602001600081525090565b60048054604080517fc431e83c00000000000000000000000000000000000000000000000000000000815290516001600160a01b039092169263c431e83c928282019260209290829003018186803b1580156147c557600080fd5b505afa1580156147d9573d6000803e3d6000fd5b505050506040513d601f19601f820116820180604052508101906147fd9190616007565b6040517efdd58e000000000000000000000000000000000000000000000000000000008152336004820152602481018590526001600160a01b03919091169062fdd58e9060440160206040518083038186803b15801561485c57600080fd5b505afa158015614870573d6000803e3d6000fd5b505050506040513d601f19601f820116820180604052508101906148949190615fd1565b6001146148e35760405162461bcd60e51b815260206004820152601c60248201527f426f6e64696e673a2063616c6c6572206973206e6f74206f776e65720000000060448201526064016106a3565b6000600460009054906101000a90046001600160a01b03166001600160a01b031663c431e83c6040518163ffffffff1660e01b815260040160206040518083038186803b15801561493357600080fd5b505afa158015614947573d6000803e3d6000fd5b505050506040513d601f19601f8201168201806040525081019061496b9190616007565b6040517fd8fe7642000000000000000000000000000000000000000000000000000000008152600481018690529091506001600160a01b0382169063d8fe76429060240160c06040518083038186803b1580156149c757600080fd5b505afa1580156149db573d6000803e3d6000fd5b505050506040513d601f19601f820116820180604052508101906149ff9190616258565b915081608001514311614a7a5760405162461bcd60e51b815260206004820152602f60248201527f426f6e64696e673a2052656465656d206e6f7420616c6c6f776564206265666f60448201527f726520626f6e64696e672074696d65000000000000000000000000000000000060648201526084016106a3565b60048054604080517f8fe6368300000000000000000000000000000000000000000000000000000000815290516001600160a01b0390921692638fe63683928282019260209290829003018186803b158015614ad557600080fd5b505afa158015614ae9573d6000803e3d6000fd5b505050506040513d601f19601f82011682018060405250810190614b0d9190616007565b6001600160a01b031663a2e620456040518163ffffffff1660e01b8152600401600060405180830381600087803b158015614b4757600080fd5b505af1158015614b5b573d6000803e3d6000fd5b505060048054604080517f221e2e6000000000000000000000000000000000000000000000000000000000815290516001600160a01b03909216945063221e2e6093508083019260209291829003018186803b158015614bba57600080fd5b505afa158015614bce573d6000803e3d6000fd5b505050506040513d601f19601f82011682018060405250810190614bf29190616007565b6001600160a01b0316637b80a5c0856040518263ffffffff1660e01b8152600401614c1f91815260200190565b604080518083038186803b158015614c3657600080fd5b505afa158015614c4a573d6000803e3d6000fd5b505050506040513d601f19601f82011682018060405250810190614c6e919061619d565b925050915091565b6000600460009054906101000a90046001600160a01b03166001600160a01b031663c431e83c6040518163ffffffff1660e01b815260040160206040518083038186803b158015614cc657600080fd5b505afa158015614cda573d6000803e3d6000fd5b505050506040513d601f19601f82011682018060405250810190614cfe9190616007565b90506000600460009054906101000a90046001600160a01b03166001600160a01b031663d3815fb96040518163ffffffff1660e01b815260040160206040518083038186803b158015614d5057600080fd5b505afa158015614d64573d6000803e3d6000fd5b505050506040513d601f19601f82011682018060405250810190614d889190616007565b6040517f70a082310000000000000000000000000000000000000000000000000000000081523060048201526001600160a01b0391909116906370a082319060240160206040518083038186803b158015614de257600080fd5b505afa158015614df6573d6000803e3d6000fd5b505050506040513d601f19601f82011682018060405250810190614e1a9190615fd1565b90506000600460009054906101000a90046001600160a01b03166001600160a01b031663221e2e606040518163ffffffff1660e01b815260040160206040518083038186803b158015614e6c57600080fd5b505afa158015614e80573d6000803e3d6000fd5b505050506040513d601f19601f82011682018060405250810190614ea49190616007565b6001600160a01b0316633a98ef396040518163ffffffff1660e01b815260040160206040518083038186803b158015614edc57600080fd5b505afa158015614ef0573d6000803e3d6000fd5b505050506040513d601f19601f82011682018060405250810190614f149190615fd1565b9050600954836001600160a01b031663132c4feb6040518163ffffffff1660e01b815260040160206040518083038186803b158015614f5257600080fd5b505afa158015614f66573d6000803e3d6000fd5b505050506040513d601f19601f82011682018060405250810190614f8a9190615fd1565b614f949190616102565b8210158015614fa35750600081115b15610867576000600954846001600160a01b031663132c4feb6040518163ffffffff1660e01b815260040160206040518083038186803b158015614fe657600080fd5b505afa158015614ffa573d6000803e3d6000fd5b505050506040513d601f19601f8201168201806040525081019061501e9190615fd1565b6150289190616102565b615032908461611a565b905060085481111561507c57816008548261504d919061611a565b61505c9064e8d4a51000616131565b615066919061621d565b6007546150739190616102565b60075560088190555b50505050565b6040516001600160a01b038085166024830152831660448201526064810182905261507c9085907f23b872dd00000000000000000000000000000000000000000000000000000000906084015b604080517fffffffffffffffffffffffffffffffffffffffffffffffffffffffffffffffe08184030181529190526020810180517bffffffffffffffffffffffffffffffffffffffffffffffffffffffff167fffffffff0000000000000000000000000000000000000000000000000000000090931692909217909152615a0c565b6151596146cd565b600280547fffffffffffffffffffffffffffffffffffffffffffffffffffffffffffffff001660011790557f62e78cea01bee320cd4e420270b5ea74000d11b0c9f74754ebdbfc544b05a2586146b03390565b6001600160a01b0383166000908152600f60205260408120546152115760405162461bcd60e51b815260206004820152600e60248201527f6e6f74207631206164647265737300000000000000000000000000000000000060448201526064016106a3565b600083116152615760405162461bcd60e51b815260206004820152601160248201527f4c5020616d6f756e74206973207a65726f00000000000000000000000000000060448201526064016106a3565b81600111158015615273575060d08211155b6152e55760405162461bcd60e51b815260206004820152602860248201527f4475726174696f6e206d757374206265206265747765656e203120616e64203260448201527f3038207765656b7300000000000000000000000000000000000000000000000060648201526084016106a3565b6001600160a01b038085166000908152600f602090815260408083208390556004805482517f214f788200000000000000000000000000000000000000000000000000000000815292519495169363214f78829383830193909290829003018186803b15801561535457600080fd5b505afa158015615368573d6000803e3d6000fd5b505050506040513d601f19601f8201168201806040525081019061538c9190616007565b6005546040517f5b374a40000000000000000000000000000000000000000000000000000000008152600481018790526024810186905260448101919091526001600160a01b039190911690635b374a409060640160206040518083038186803b1580156153f957600080fd5b505afa15801561540d573d6000803e3d6000fd5b505050506040513d601f19601f820116820180604052508101906154319190615fd1565b905061543b614c76565b60006006548461544b9190616131565b6154559043616102565b9050615463868684846156f5565b92508460096000828254615477919061611a565b909155505060048054604080517f221e2e6000000000000000000000000000000000000000000000000000000000815290516001600160a01b039092169263221e2e60928282019260209290829003018186803b1580156154d757600080fd5b505afa1580156154eb573d6000803e3d6000fd5b505050506040513d601f19601f8201168201806040525081019061550f9190616007565b6040517f0efe6a8b0000000000000000000000000000000000000000000000000000000081526001600160a01b03888116600483015260248201859052604482018690529190911690630efe6a8b90606401600060405180830381600087803b15801561557b57600080fd5b505af115801561558f573d6000803e3d6000fd5b505060408051888152602081018690529081018790528592506001600160a01b03891691507fc8102fa5c0a66c20caa3ebb502aecfcc6e0ea963896d5a14c1bd8c10c456c5539060600160405180910390a350509392505050565b6040516001600160a01b0383166024820152604481018290526108679084907fa9059cbb00000000000000000000000000000000000000000000000000000000906064016150cf565b61563e600082615998565b6156b05760405162461bcd60e51b815260206004820152603060248201527f636f6c6c65637461626c652d647573743a3a746f6b656e2d6e6f742d7061727460448201527f2d6f662d7468652d70726f746f636f6c0000000000000000000000000000000060648201526084016106a3565b6156bb600082615af1565b506040516001600160a01b03821681527fddd12a8c3ce9bea5c97a5d25c8b777caab85752828f56b7b8ad5a0b30340a25f90602001610a13565b60008061570061361b565b9050806157755760405162461bcd60e51b815260206004820152602760248201527f426f6e64696e673a2073686172652076616c75652073686f756c64206e6f742060448201527f6265206e756c6c0000000000000000000000000000000000000000000000000060648201526084016106a3565b600064e8d4a510006007548661578b9190616131565b615795919061621d565b9050600460009054906101000a90046001600160a01b03166001600160a01b031663c431e83c6040518163ffffffff1660e01b815260040160206040518083038186803b1580156157e557600080fd5b505afa1580156157f9573d6000803e3d6000fd5b505050506040513d601f19601f8201168201806040525081019061581d9190616007565b6040517fa647e8ec0000000000000000000000000000000000000000000000000000000081526001600160a01b038981166004830152602482018990526044820184905260648201879052919091169063a647e8ec90608401602060405180830381600087803b15801561589057600080fd5b505af11580156158a4573d6000803e3d6000fd5b505050506040513d601f19601f820116820180604052508101906158c89190615fd1565b925050505b949350505050565b6158e0600082615998565b156159535760405162461bcd60e51b815260206004820152602f60248201527f636f6c6c65637461626c652d647573743a3a746f6b656e2d69732d706172742d60448201527f6f662d7468652d70726f746f636f6c000000000000000000000000000000000060648201526084016106a3565b61595e600082615b06565b506040516001600160a01b03821681527fa3e4ba856dd0fdee3a33ab9b82499fd01f05236f3d08cc4e7108698c6e3e7e5090602001610a13565b6001600160a01b03811660009081526001830160205260408120541515613c57565b60025460ff166112be5760405162461bcd60e51b815260206004820152601460248201527f5061757361626c653a206e6f742070617573656400000000000000000000000060448201526064016106a3565b6000615a61826040518060400160405280602081526020017f5361666545524332303a206c6f772d6c6576656c2063616c6c206661696c6564815250856001600160a01b0316615b1b9092919063ffffffff16565b8051909150156108675780806020019051810190615a7f9190615fea565b6108675760405162461bcd60e51b815260206004820152602a60248201527f5361666545524332303a204552433230206f7065726174696f6e20646964206e60448201527f6f7420737563636565640000000000000000000000000000000000000000000060648201526084016106a3565b6000613c57836001600160a01b038416615b2a565b6000613c57836001600160a01b038416615c1d565b60606158cd8484600085615c6c565b60008181526001830160205260408120548015615c13576000615b4e60018361611a565b8554909150600090615b629060019061611a565b9050818114615bc7576000866000018281548110615b8257615b82616024565b9060005260206000200154905080876000018481548110615ba557615ba5616024565b6000918252602080832090910192909255918252600188019052604090208390555b8554869080615bd857615bd861632f565b600190038181906000526020600020016000905590558560010160008681526020019081526020016000206000905560019350505050613c5a565b6000915050613c5a565b6000818152600183016020526040812054615c6457508154600181810184556000848152602080822090930184905584548482528286019093526040902091909155613c5a565b506000613c5a565b606082471015615ce45760405162461bcd60e51b815260206004820152602660248201527f416464726573733a20696e73756666696369656e742062616c616e636520666f60448201527f722063616c6c000000000000000000000000000000000000000000000000000060648201526084016106a3565b600080866001600160a01b03168587604051615d00919061635e565b60006040518083038185875af1925050503d8060008114615d3d576040519150601f19603f3d011682016040523d82523d6000602084013e615d42565b606091505b50915091506158c88783838760608315615dba578251615db3576001600160a01b0385163b615db35760405162461bcd60e51b815260206004820152601d60248201527f416464726573733a2063616c6c20746f206e6f6e2d636f6e747261637400000060448201526064016106a3565b50816158cd565b6158cd8383815115615dcf5781518083602001fd5b8060405162461bcd60e51b81526004016106a39190615f3c565b60405180604001604052806002906020820280368337509192915050565b6001600160a01b0381168114613c2057600080fd5b600060208284031215615e2e57600080fd5b8135615e3981615e07565b9392505050565b600080600060608486031215615e5557600080fd5b8335615e6081615e07565b92506020840135615e7081615e07565b929592945050506040919091013590565b600060208284031215615e9357600080fd5b5035919050565b600080600060608486031215615eaf57600080fd5b505081359360208301359350604090920135919050565b60005b83811015615ee1578181015183820152602001615ec9565b8381111561507c5750506000910152565b60008151808452615f0a816020860160208601615ec6565b601f017fffffffffffffffffffffffffffffffffffffffffffffffffffffffffffffffe0169290920160200192915050565b602081526000613c576020830184615ef2565b60008060408385031215615f6257600080fd5b50508035926020909101359150565b600080600060608486031215615f8657600080fd5b8335615f9181615e07565b95602085013595506040909401359392505050565b8015158114613c2057600080fd5b600060208284031215615fc657600080fd5b8135615e3981615fa6565b600060208284031215615fe357600080fd5b5051919050565b600060208284031215615ffc57600080fd5b8151615e3981615fa6565b60006020828403121561601957600080fd5b8151615e3981615e07565b7f4e487b7100000000000000000000000000000000000000000000000000000000600052603260045260246000fd5b6000610120820190506001600160a01b0385511682526020808601518184015260408601516040840152606086015160608401526080860151608084015260a086015160a084015260c083018560005b60028110156160c0578151835291830191908301906001016160a3565b5050505082610100830152949350505050565b7f4e487b7100000000000000000000000000000000000000000000000000000000600052601160045260246000fd5b60008219821115616115576161156160d3565b500190565b60008282101561612c5761612c6160d3565b500390565b6000817fffffffffffffffffffffffffffffffffffffffffffffffffffffffffffffffff0483118215151615616169576161696160d3565b500290565b7f4e487b7100000000000000000000000000000000000000000000000000000000600052604160045260246000fd5b6000604082840312156161af57600080fd5b82601f8301126161be57600080fd5b6040516040810181811067ffffffffffffffff821117156161e1576161e161616e565b80604052508060408401858111156161f857600080fd5b845b818110156162125780518352602092830192016161fa565b509195945050505050565b600082616253577f4e487b7100000000000000000000000000000000000000000000000000000000600052601260045260246000fd5b500490565b600060c0828403121561626a57600080fd5b60405160c0810181811067ffffffffffffffff8211171561628d5761628d61616e565b604052825161629b81615e07565b808252506020830151602082015260408301516040820152606083015160608201526080830151608082015260a083015160a08201528091505092915050565b600181811c908216806162ef57607f821691505b60208210811415616329577f4e487b7100000000000000000000000000000000000000000000000000000000600052602260045260246000fd5b50919050565b7f4e487b7100000000000000000000000000000000000000000000000000000000600052603160045260246000fd5b60008251616370818460208701615ec6565b919091019291505056fea2646970667358221220eb4a0580abc8c5e2ca9f3c3da3bd28f9528bd24bac5acf7c18037de6feff604164736f6c63430008090033",
    "linkReferences": {}
  },
  "methodIdentifiers": {
    "ETH_ADDRESS()": "a734f06e",
    "ONE()": "c2ee3a08",
    "accLpRewardPerShare()": "65566d65",
    "addLiquidity(uint256,uint256,uint256)": "422f1043",
    "addProtocolToken(address)": "fa3305c9",
    "addUserToMigrate(address,uint256,uint256)": "b167d4ea",
    "blockCountInAWeek()": "aa1ec70a",
    "bondingDiscountMultiplier()": "8f88f38d",
    "bondingFormulasAddress()": "cd6c212b",
    "crvPriceReset(uint256)": "7cc6bd41",
    "currentShareValue()": "aadc68a5",
    "data()": "73d4a13a",
    "deposit(uint256,uint256)": "e2bbb158",
    "lpRewardForShares(uint256,uint256)": "c5d1cb63",
    "lpRewards()": "0c762141",
    "manager()": "481c6a75",
    "migrate()": "8fd3ab80",
    "migrating()": "4956cf1c",
    "migrator()": "7cd07e47",
    "pause()": "8456cb59",
    "paused()": "5c975abb",
    "pendingLpRewards(uint256)": "52159150",
    "removeLiquidity(uint256,uint256)": "9d7de6b3",
    "removeProtocolToken(address)": "bf0d68e4",
    "sendDust(address,address,uint256)": "2db8c129",
    "setBlockCountInAWeek(uint256)": "2f72589e",
    "setBondingDiscountMultiplier(uint256)": "a194bcde",
    "setBondingFormulasAddress(address)": "dc0c00c4",
    "setMigrating(bool)": "f785f03d",
    "setMigrator(address)": "23cf3118",
    "toMigrateId(address)": "f941717d",
    "totalLpToMigrate()": "118c03ec",
    "uADPriceReset(uint256)": "3b1ba367",
    "unpause()": "3f4ba83a"
  },
  "id": 42
}