{
  "abi": [
    {
      "inputs": [
        {
          "internalType": "address",
          "name": "_manager",
          "type": "address"
        },
        {
          "internalType": "address",
          "name": "_sablier",
          "type": "address"
        }
      ],
      "stateMutability": "nonpayable",
      "type": "constructor"
    },
    {
      "anonymous": false,
      "inputs": [
        {
          "indexed": false,
          "internalType": "uint256",
          "name": "_blockCountInAWeek",
          "type": "uint256"
        }
      ],
      "name": "BlockCountInAWeekUpdated",
      "type": "event"
    },
    {
      "anonymous": false,
      "inputs": [
        {
          "indexed": false,
          "internalType": "uint256",
          "name": "_blockRonding",
          "type": "uint256"
        }
      ],
      "name": "BlockRondingUpdated",
      "type": "event"
    },
    {
      "anonymous": false,
      "inputs": [
        {
          "indexed": false,
          "internalType": "uint256",
          "name": "_bondingDiscountMultiplier",
          "type": "uint256"
        }
      ],
      "name": "BondingDiscountMultiplierUpdated",
      "type": "event"
    },
    {
      "anonymous": false,
      "inputs": [
        {
          "indexed": false,
          "internalType": "address",
          "name": "_to",
          "type": "address"
        },
        {
          "indexed": false,
          "internalType": "address",
          "name": "token",
          "type": "address"
        },
        {
          "indexed": false,
          "internalType": "uint256",
          "name": "amount",
          "type": "uint256"
        }
      ],
      "name": "DustSent",
      "type": "event"
    },
    {
      "anonymous": false,
      "inputs": [
        {
          "indexed": false,
          "internalType": "uint256",
          "name": "_maxBondingPrice",
          "type": "uint256"
        }
      ],
      "name": "MaxBondingPriceUpdated",
      "type": "event"
    },
    {
      "anonymous": false,
      "inputs": [
        {
          "indexed": false,
          "internalType": "address",
          "name": "_token",
          "type": "address"
        }
      ],
      "name": "ProtocolTokenAdded",
      "type": "event"
    },
    {
      "anonymous": false,
      "inputs": [
        {
          "indexed": false,
          "internalType": "address",
          "name": "_token",
          "type": "address"
        }
      ],
      "name": "ProtocolTokenRemoved",
      "type": "event"
    },
    {
      "anonymous": false,
      "inputs": [
        {
          "indexed": false,
          "internalType": "uint256",
          "name": "_redeemStreamTime",
          "type": "uint256"
        }
      ],
      "name": "RedeemStreamTimeUpdated",
      "type": "event"
    },
    {
      "anonymous": false,
      "inputs": [
        {
          "indexed": false,
          "internalType": "address",
          "name": "_sablier",
          "type": "address"
        }
      ],
      "name": "SablierUpdated",
      "type": "event"
    },
    {
      "anonymous": false,
      "inputs": [
        {
          "indexed": false,
          "internalType": "uint256",
          "name": "_uGOVPerBlock",
          "type": "uint256"
        }
      ],
      "name": "UGOVPerBlockUpdated",
      "type": "event"
    },
    {
      "inputs": [],
      "name": "ETH_ADDRESS",
      "outputs": [
        {
          "internalType": "address",
          "name": "",
          "type": "address"
        }
      ],
      "stateMutability": "view",
      "type": "function"
    },
    {
      "inputs": [],
      "name": "ONE",
      "outputs": [
        {
          "internalType": "uint256",
          "name": "",
          "type": "uint256"
        }
      ],
      "stateMutability": "view",
      "type": "function"
    },
    {
      "inputs": [
        {
          "internalType": "address",
          "name": "_token",
          "type": "address"
        }
      ],
      "name": "addProtocolToken",
      "outputs": [],
      "stateMutability": "nonpayable",
      "type": "function"
    },
    {
      "inputs": [],
      "name": "blockCountInAWeek",
      "outputs": [
        {
          "internalType": "uint256",
          "name": "",
          "type": "uint256"
        }
      ],
      "stateMutability": "view",
      "type": "function"
    },
    {
      "inputs": [],
      "name": "blockRonding",
      "outputs": [
        {
          "internalType": "uint256",
          "name": "",
          "type": "uint256"
        }
      ],
      "stateMutability": "view",
      "type": "function"
    },
    {
      "inputs": [],
      "name": "bondingDiscountMultiplier",
      "outputs": [
        {
          "internalType": "uint256",
          "name": "",
          "type": "uint256"
        }
      ],
      "stateMutability": "view",
      "type": "function"
    },
    {
      "inputs": [
        {
          "internalType": "uint256",
          "name": "amount",
          "type": "uint256"
        }
      ],
      "name": "crvPriceReset",
      "outputs": [],
      "stateMutability": "nonpayable",
      "type": "function"
    },
    {
      "inputs": [],
      "name": "currentShareValue",
      "outputs": [
        {
          "internalType": "uint256",
          "name": "priceShare",
          "type": "uint256"
        }
      ],
      "stateMutability": "view",
      "type": "function"
    },
    {
      "inputs": [],
      "name": "currentTokenPrice",
      "outputs": [
        {
          "internalType": "uint256",
          "name": "",
          "type": "uint256"
        }
      ],
      "stateMutability": "view",
      "type": "function"
    },
    {
      "inputs": [],
      "name": "data",
      "outputs": [
        {
          "internalType": "bytes",
          "name": "",
          "type": "bytes"
        }
      ],
      "stateMutability": "view",
      "type": "function"
    },
    {
      "inputs": [
        {
          "internalType": "uint256",
          "name": "_lpsAmount",
          "type": "uint256"
        },
        {
          "internalType": "uint256",
          "name": "_weeks",
          "type": "uint256"
        }
      ],
      "name": "deposit",
      "outputs": [
        {
          "internalType": "uint256",
          "name": "_id",
          "type": "uint256"
        }
      ],
      "stateMutability": "nonpayable",
      "type": "function"
    },
    {
      "inputs": [],
      "name": "manager",
      "outputs": [
        {
          "internalType": "contract UbiquityAlgorithmicDollarManager",
          "name": "",
          "type": "address"
        }
      ],
      "stateMutability": "view",
      "type": "function"
    },
    {
      "inputs": [],
      "name": "redeemStreamTime",
      "outputs": [
        {
          "internalType": "uint256",
          "name": "",
          "type": "uint256"
        }
      ],
      "stateMutability": "view",
      "type": "function"
    },
    {
      "inputs": [
        {
          "internalType": "address",
          "name": "_token",
          "type": "address"
        }
      ],
      "name": "removeProtocolToken",
      "outputs": [],
      "stateMutability": "nonpayable",
      "type": "function"
    },
    {
      "inputs": [],
      "name": "sablier",
      "outputs": [
        {
          "internalType": "contract ISablier",
          "name": "",
          "type": "address"
        }
      ],
      "stateMutability": "view",
      "type": "function"
    },
    {
      "inputs": [
        {
          "internalType": "address",
          "name": "_to",
          "type": "address"
        },
        {
          "internalType": "address",
          "name": "_token",
          "type": "address"
        },
        {
          "internalType": "uint256",
          "name": "_amount",
          "type": "uint256"
        }
      ],
      "name": "sendDust",
      "outputs": [],
      "stateMutability": "nonpayable",
      "type": "function"
    },
    {
      "inputs": [
        {
          "internalType": "uint256",
          "name": "_blockCountInAWeek",
          "type": "uint256"
        }
      ],
      "name": "setBlockCountInAWeek",
      "outputs": [],
      "stateMutability": "nonpayable",
      "type": "function"
    },
    {
      "inputs": [
        {
          "internalType": "uint256",
          "name": "_blockRonding",
          "type": "uint256"
        }
      ],
      "name": "setBlockRonding",
      "outputs": [],
      "stateMutability": "nonpayable",
      "type": "function"
    },
    {
      "inputs": [
        {
          "internalType": "uint256",
          "name": "_bondingDiscountMultiplier",
          "type": "uint256"
        }
      ],
      "name": "setBondingDiscountMultiplier",
      "outputs": [],
      "stateMutability": "nonpayable",
      "type": "function"
    },
    {
      "inputs": [
        {
          "internalType": "uint256",
          "name": "_redeemStreamTime",
          "type": "uint256"
        }
      ],
      "name": "setRedeemStreamTime",
      "outputs": [],
      "stateMutability": "nonpayable",
      "type": "function"
    },
    {
      "inputs": [
        {
          "internalType": "address",
          "name": "_sablier",
          "type": "address"
        }
      ],
      "name": "setSablier",
      "outputs": [],
      "stateMutability": "nonpayable",
      "type": "function"
    },
    {
      "inputs": [
        {
          "internalType": "uint256",
          "name": "_uGOVPerBlock",
          "type": "uint256"
        }
      ],
      "name": "setUGOVPerBlock",
      "outputs": [],
      "stateMutability": "nonpayable",
      "type": "function"
    },
    {
      "inputs": [
        {
          "internalType": "uint256",
          "name": "amount",
          "type": "uint256"
        }
      ],
      "name": "uADPriceReset",
      "outputs": [],
      "stateMutability": "nonpayable",
      "type": "function"
    },
    {
      "inputs": [],
      "name": "uGOVPerBlock",
      "outputs": [
        {
          "internalType": "uint256",
          "name": "",
          "type": "uint256"
        }
      ],
      "stateMutability": "view",
      "type": "function"
    },
    {
      "inputs": [
        {
          "internalType": "uint256",
          "name": "_sharesAmount",
          "type": "uint256"
        },
        {
          "internalType": "uint256",
          "name": "_id",
          "type": "uint256"
        }
      ],
      "name": "withdraw",
      "outputs": [],
      "stateMutability": "nonpayable",
      "type": "function"
    },
    {
      "stateMutability": "payable",
      "type": "receive"
    }
  ],
  "bytecode": {
    "object": "0x60a06040819052600060808190526200001b91600291620000a0565b5066038d7ea4c680006005556201518060065561b131600755606460085560016009553480156200004b57600080fd5b50604051620042ab380380620042ab8339810160408190526200006e9162000163565b600380546001600160a01b039384166001600160a01b03199182161790915560048054929093169116179055620001d8565b828054620000ae906200019b565b90600052602060002090601f016020900481019282620000d257600085556200011d565b82601f10620000ed57805160ff19168380011785556200011d565b828001600101855582156200011d579182015b828111156200011d57825182559160200191906001019062000100565b506200012b9291506200012f565b5090565b5b808211156200012b576000815560010162000130565b80516001600160a01b03811681146200015e57600080fd5b919050565b600080604083850312156200017757600080fd5b620001828362000146565b9150620001926020840162000146565b90509250929050565b600181811c90821680620001b057607f821691505b60208210811415620001d257634e487b7160e01b600052602260045260246000fd5b50919050565b6140c380620001e86000396000f3fe60806040526004361061019a5760003560e01c80638039d081116100e1578063aadc68a51161008a578063e2bbb15811610064578063e2bbb1581461043b578063e8a8fad51461045b578063fa3305c914610471578063ffd65a491461049157600080fd5b8063aadc68a5146103ea578063bf0d68e4146103ff578063c2ee3a081461041f57600080fd5b8063a194bcde116100bb578063a194bcde1461038c578063a734f06e146103ac578063aa1ec70a146103d457600080fd5b80638039d081146103405780638f88f38d14610356578063900965561461036c57600080fd5b8063482879aa1161014357806371cc5c0b1161011d57806371cc5c0b146102de57806373d4a13a146102fe5780637cc6bd411461032057600080fd5b8063482879aa146102895780636b71f457146102a957806371b3659e146102c957600080fd5b8063441a3e7011610174578063441a3e701461020857806347e54e3814610228578063481c6a751461025157600080fd5b80632db8c129146101a65780632f72589e146101c85780633b1ba367146101e857600080fd5b366101a157005b600080fd5b3480156101b257600080fd5b506101c66101c1366004613c4d565b6104b1565b005b3480156101d457600080fd5b506101c66101e3366004613c8e565b61063d565b3480156101f457600080fd5b506101c6610203366004613c8e565b6107f0565b34801561021457600080fd5b506101c6610223366004613ca7565b610f01565b34801561023457600080fd5b5061023e60095481565b6040519081526020015b60405180910390f35b34801561025d57600080fd5b50600354610271906001600160a01b031681565b6040516001600160a01b039091168152602001610248565b34801561029557600080fd5b50600454610271906001600160a01b031681565b3480156102b557600080fd5b506101c66102c4366004613c8e565b6114ba565b3480156102d557600080fd5b5061023e611666565b3480156102ea57600080fd5b506101c66102f9366004613c8e565b611824565b34801561030a57600080fd5b506103136119d0565b6040516102489190613d3f565b34801561032c57600080fd5b506101c661033b366004613c8e565b611a5e565b34801561034c57600080fd5b5061023e60085481565b34801561036257600080fd5b5061023e60055481565b34801561037857600080fd5b506101c6610387366004613d52565b6120df565b34801561039857600080fd5b506101c66103a7366004613c8e565b6122bc565b3480156103b857600080fd5b5061027173eeeeeeeeeeeeeeeeeeeeeeeeeeeeeeeeeeeeeeee81565b3480156103e057600080fd5b5061023e60075481565b3480156103f657600080fd5b5061023e612468565b34801561040b57600080fd5b506101c661041a366004613d52565b6127b4565b34801561042b57600080fd5b5061023e670de0b6b3a764000081565b34801561044757600080fd5b5061023e610456366004613ca7565b612937565b34801561046757600080fd5b5061023e60065481565b34801561047d57600080fd5b506101c661048c366004613d52565b612cef565b34801561049d57600080fd5b506101c66104ac366004613c8e565b612e6f565b600354604080517fe6c7354000000000000000000000000000000000000000000000000000000000815290516001600160a01b03909216916391d1485491839163e6c7354091600480820192602092909190829003018186803b15801561051757600080fd5b505afa15801561052b573d6000803e3d6000fd5b505050506040513d601f19601f8201168201806040525081019061054f9190613d76565b6040517fffffffff0000000000000000000000000000000000000000000000000000000060e084901b168152600481019190915233602482015260440160206040518083038186803b1580156105a457600080fd5b505afa1580156105b8573d6000803e3d6000fd5b505050506040513d601f19601f820116820180604052508101906105dc9190613d8f565b61062d5760405162461bcd60e51b815260206004820152601f60248201527f43616c6c6572206973206e6f74206120626f6e64696e67206d616e616765720060448201526064015b60405180910390fd5b61063883838361301b565b505050565b600354604080517fe6c7354000000000000000000000000000000000000000000000000000000000815290516001600160a01b03909216916391d1485491839163e6c7354091600480820192602092909190829003018186803b1580156106a357600080fd5b505afa1580156106b7573d6000803e3d6000fd5b505050506040513d601f19601f820116820180604052508101906106db9190613d76565b6040517fffffffff0000000000000000000000000000000000000000000000000000000060e084901b168152600481019190915233602482015260440160206040518083038186803b15801561073057600080fd5b505afa158015610744573d6000803e3d6000fd5b505050506040513d601f19601f820116820180604052508101906107689190613d8f565b6107b45760405162461bcd60e51b815260206004820152601f60248201527f43616c6c6572206973206e6f74206120626f6e64696e67206d616e61676572006044820152606401610624565b60078190556040518181527f3a1c0b7d3cdecbab83b82697d51cbcdb308b3bbae63e597cbc958deb9c830e50906020015b60405180910390a150565b600354604080517fe6c7354000000000000000000000000000000000000000000000000000000000815290516001600160a01b03909216916391d1485491839163e6c7354091600480820192602092909190829003018186803b15801561085657600080fd5b505afa15801561086a573d6000803e3d6000fd5b505050506040513d601f19601f8201168201806040525081019061088e9190613d76565b6040517fffffffff0000000000000000000000000000000000000000000000000000000060e084901b168152600481019190915233602482015260440160206040518083038186803b1580156108e357600080fd5b505afa1580156108f7573d6000803e3d6000fd5b505050506040513d601f19601f8201168201806040525081019061091b9190613d8f565b6109675760405162461bcd60e51b815260206004820152601f60248201527f43616c6c6572206973206e6f74206120626f6e64696e67206d616e61676572006044820152606401610624565b600354604080517fd3815fb900000000000000000000000000000000000000000000000000000000815290516000926001600160a01b03169163d3815fb9916004808301926020929190829003018186803b1580156109c557600080fd5b505afa1580156109d9573d6000803e3d6000fd5b505050506040513d601f19601f820116820180604052508101906109fd9190613db1565b9050610a9a3083600360009054906101000a90046001600160a01b03166001600160a01b031663d3815fb96040518163ffffffff1660e01b815260040160206040518083038186803b158015610a5257600080fd5b505afa158015610a66573d6000803e3d6000fd5b505050506040513d601f19601f82011682018060405250810190610a8a9190613db1565b6001600160a01b031691906131da565b6040517fcc2b27d700000000000000000000000000000000000000000000000000000000815260048101839052600060248201819052906064906001600160a01b0384169063cc2b27d79060440160206040518083038186803b158015610b0057600080fd5b505afa158015610b14573d6000803e3d6000fd5b505050506040513d601f19601f82011682018060405250810190610b389190613d76565b610b43906063613dfd565b610b4d9190613e69565b6040517f1a4d01d20000000000000000000000000000000000000000000000000000000081526004810185905260006024820152604481018290529091506001600160a01b03831690631a4d01d290606401602060405180830381600087803b158015610bb957600080fd5b505af1158015610bcd573d6000803e3d6000fd5b505050506040513d601f19601f82011682018060405250810190610bf19190613d76565b50600360009054906101000a90046001600160a01b03166001600160a01b0316638fe636836040518163ffffffff1660e01b815260040160206040518083038186803b158015610c4057600080fd5b505afa158015610c54573d6000803e3d6000fd5b505050506040513d601f19601f82011682018060405250810190610c789190613db1565b6001600160a01b031663a2e620456040518163ffffffff1660e01b8152600401600060405180830381600087803b158015610cb257600080fd5b505af1158015610cc6573d6000803e3d6000fd5b50505050610638600360009054906101000a90046001600160a01b03166001600160a01b031663c5f956af6040518163ffffffff1660e01b815260040160206040518083038186803b158015610d1b57600080fd5b505afa158015610d2f573d6000803e3d6000fd5b505050506040513d601f19601f82011682018060405250810190610d539190613db1565b600360009054906101000a90046001600160a01b03166001600160a01b031663bc3ea0186040518163ffffffff1660e01b815260040160206040518083038186803b158015610da157600080fd5b505afa158015610db5573d6000803e3d6000fd5b505050506040513d601f19601f82011682018060405250810190610dd99190613db1565b6040517f70a082310000000000000000000000000000000000000000000000000000000081523060048201526001600160a01b0391909116906370a082319060240160206040518083038186803b158015610e3357600080fd5b505afa158015610e47573d6000803e3d6000fd5b505050506040513d601f19601f82011682018060405250810190610e6b9190613d76565b600360009054906101000a90046001600160a01b03166001600160a01b031663bc3ea0186040518163ffffffff1660e01b815260040160206040518083038186803b158015610eb957600080fd5b505afa158015610ecd573d6000803e3d6000fd5b505050506040513d601f19601f82011682018060405250810190610ef19190613db1565b6001600160a01b031691906133b5565b804311610f765760405162461bcd60e51b815260206004820152602f60248201527f426f6e64696e673a2052656465656d206e6f7420616c6c6f776564206265666f60448201527f726520626f6e64696e672074696d6500000000000000000000000000000000006064820152608401610624565b600354604080517fc431e83c000000000000000000000000000000000000000000000000000000008152905184926001600160a01b03169163c431e83c916004808301926020929190829003018186803b158015610fd357600080fd5b505afa158015610fe7573d6000803e3d6000fd5b505050506040513d601f19601f8201168201806040525081019061100b9190613db1565b6040517efdd58e000000000000000000000000000000000000000000000000000000008152336004820152602481018490526001600160a01b03919091169062fdd58e9060440160206040518083038186803b15801561106a57600080fd5b505afa15801561107e573d6000803e3d6000fd5b505050506040513d601f19601f820116820180604052508101906110a29190613d76565b10156111165760405162461bcd60e51b815260206004820152602b60248201527f426f6e64696e673a2063616c6c657220646f6573206e6f74206861766520656e60448201527f6f756768207368617265730000000000000000000000000000000000000000006064820152608401610624565b61111e6133fe565b600360009054906101000a90046001600160a01b03166001600160a01b031663221e2e606040518163ffffffff1660e01b815260040160206040518083038186803b15801561116c57600080fd5b505afa158015611180573d6000803e3d6000fd5b505050506040513d601f19601f820116820180604052508101906111a49190613db1565b6040517fb5c5f67200000000000000000000000000000000000000000000000000000000815233600482015260248101849052604481018390526001600160a01b03919091169063b5c5f67290606401600060405180830381600087803b15801561120e57600080fd5b505af1158015611222573d6000803e3d6000fd5b505050506000611230612468565b9050600360009054906101000a90046001600160a01b03166001600160a01b031663c431e83c6040518163ffffffff1660e01b815260040160206040518083038186803b15801561128057600080fd5b505afa158015611294573d6000803e3d6000fd5b505050506040513d601f19601f820116820180604052508101906112b89190613db1565b6040517ff5298aca00000000000000000000000000000000000000000000000000000000815233600482015260248101849052604481018590526001600160a01b03919091169063f5298aca90606401600060405180830381600087803b15801561132257600080fd5b505af1158015611336573d6000803e3d6000fd5b5050505061063833600360009054906101000a90046001600160a01b03166001600160a01b031663214f78826040518163ffffffff1660e01b815260040160206040518083038186803b15801561138c57600080fd5b505afa1580156113a0573d6000803e3d6000fd5b505050506040513d601f19601f820116820180604052508101906113c49190613db1565b6040517fd58d45a80000000000000000000000000000000000000000000000000000000081526004810187905260248101859052670de0b6b3a764000060448201526001600160a01b03919091169063d58d45a89060640160206040518083038186803b15801561143457600080fd5b505afa158015611448573d6000803e3d6000fd5b505050506040513d601f19601f8201168201806040525081019061146c9190613d76565b600360009054906101000a90046001600160a01b03166001600160a01b031663d3815fb96040518163ffffffff1660e01b815260040160206040518083038186803b158015610eb957600080fd5b600354604080517fe6c7354000000000000000000000000000000000000000000000000000000000815290516001600160a01b03909216916391d1485491839163e6c7354091600480820192602092909190829003018186803b15801561152057600080fd5b505afa158015611534573d6000803e3d6000fd5b505050506040513d601f19601f820116820180604052508101906115589190613d76565b6040517fffffffff0000000000000000000000000000000000000000000000000000000060e084901b168152600481019190915233602482015260440160206040518083038186803b1580156115ad57600080fd5b505afa1580156115c1573d6000803e3d6000fd5b505050506040513d601f19601f820116820180604052508101906115e59190613d8f565b6116315760405162461bcd60e51b815260206004820152601f60248201527f43616c6c6572206973206e6f74206120626f6e64696e67206d616e61676572006044820152606401610624565b60068190556040518181527f52e79878e695c50b75f241e6e286fa05123b26ab77b631b3d6dbae872718add7906020016107e5565b600354604080517f8fe6368300000000000000000000000000000000000000000000000000000000815290516000926001600160a01b031691638fe63683916004808301926020929190829003018186803b1580156116c457600080fd5b505afa1580156116d8573d6000803e3d6000fd5b505050506040513d601f19601f820116820180604052508101906116fc9190613db1565b6001600160a01b031663283583c6600360009054906101000a90046001600160a01b03166001600160a01b031663bc3ea0186040518163ffffffff1660e01b815260040160206040518083038186803b15801561175857600080fd5b505afa15801561176c573d6000803e3d6000fd5b505050506040513d601f19601f820116820180604052508101906117909190613db1565b6040517fffffffff0000000000000000000000000000000000000000000000000000000060e084901b1681526001600160a01b03909116600482015260240160206040518083038186803b1580156117e757600080fd5b505afa1580156117fb573d6000803e3d6000fd5b505050506040513d601f19601f8201168201806040525081019061181f9190613d76565b905090565b600354604080517fe6c7354000000000000000000000000000000000000000000000000000000000815290516001600160a01b03909216916391d1485491839163e6c7354091600480820192602092909190829003018186803b15801561188a57600080fd5b505afa15801561189e573d6000803e3d6000fd5b505050506040513d601f19601f820116820180604052508101906118c29190613d76565b6040517fffffffff0000000000000000000000000000000000000000000000000000000060e084901b168152600481019190915233602482015260440160206040518083038186803b15801561191757600080fd5b505afa15801561192b573d6000803e3d6000fd5b505050506040513d601f19601f8201168201806040525081019061194f9190613d8f565b61199b5760405162461bcd60e51b815260206004820152601f60248201527f43616c6c6572206973206e6f74206120626f6e64696e67206d616e61676572006044820152606401610624565b60088190556040518181527f3ea14a9ca9078eab3bb86287b1d08190ecdf30412b4f465e05655efca79e18b5906020016107e5565b600280546119dd90613e7d565b80601f0160208091040260200160405190810160405280929190818152602001828054611a0990613e7d565b8015611a565780601f10611a2b57610100808354040283529160200191611a56565b820191906000526020600020905b815481529060010190602001808311611a3957829003601f168201915b505050505081565b600354604080517fe6c7354000000000000000000000000000000000000000000000000000000000815290516001600160a01b03909216916391d1485491839163e6c7354091600480820192602092909190829003018186803b158015611ac457600080fd5b505afa158015611ad8573d6000803e3d6000fd5b505050506040513d601f19601f82011682018060405250810190611afc9190613d76565b6040517fffffffff0000000000000000000000000000000000000000000000000000000060e084901b168152600481019190915233602482015260440160206040518083038186803b158015611b5157600080fd5b505afa158015611b65573d6000803e3d6000fd5b505050506040513d601f19601f82011682018060405250810190611b899190613d8f565b611bd55760405162461bcd60e51b815260206004820152601f60248201527f43616c6c6572206973206e6f74206120626f6e64696e67206d616e61676572006044820152606401610624565b600354604080517fd3815fb900000000000000000000000000000000000000000000000000000000815290516000926001600160a01b03169163d3815fb9916004808301926020929190829003018186803b158015611c3357600080fd5b505afa158015611c47573d6000803e3d6000fd5b505050506040513d601f19601f82011682018060405250810190611c6b9190613db1565b9050611cc03083600360009054906101000a90046001600160a01b03166001600160a01b031663d3815fb96040518163ffffffff1660e01b815260040160206040518083038186803b158015610a5257600080fd5b6040517fcc2b27d700000000000000000000000000000000000000000000000000000000815260048101839052600160248201526000906064906001600160a01b0384169063cc2b27d79060440160206040518083038186803b158015611d2657600080fd5b505afa158015611d3a573d6000803e3d6000fd5b505050506040513d601f19601f82011682018060405250810190611d5e9190613d76565b611d69906063613dfd565b611d739190613e69565b6040517f1a4d01d20000000000000000000000000000000000000000000000000000000081526004810185905260016024820152604481018290529091506001600160a01b03831690631a4d01d290606401602060405180830381600087803b158015611ddf57600080fd5b505af1158015611df3573d6000803e3d6000fd5b505050506040513d601f19601f82011682018060405250810190611e179190613d76565b50600360009054906101000a90046001600160a01b03166001600160a01b0316638fe636836040518163ffffffff1660e01b815260040160206040518083038186803b158015611e6657600080fd5b505afa158015611e7a573d6000803e3d6000fd5b505050506040513d601f19601f82011682018060405250810190611e9e9190613db1565b6001600160a01b031663a2e620456040518163ffffffff1660e01b8152600401600060405180830381600087803b158015611ed857600080fd5b505af1158015611eec573d6000803e3d6000fd5b50505050610638600360009054906101000a90046001600160a01b03166001600160a01b031663c5f956af6040518163ffffffff1660e01b815260040160206040518083038186803b158015611f4157600080fd5b505afa158015611f55573d6000803e3d6000fd5b505050506040513d601f19601f82011682018060405250810190611f799190613db1565b600360009054906101000a90046001600160a01b03166001600160a01b031663017df3276040518163ffffffff1660e01b815260040160206040518083038186803b158015611fc757600080fd5b505afa158015611fdb573d6000803e3d6000fd5b505050506040513d601f19601f82011682018060405250810190611fff9190613db1565b6040517f70a082310000000000000000000000000000000000000000000000000000000081523060048201526001600160a01b0391909116906370a082319060240160206040518083038186803b15801561205957600080fd5b505afa15801561206d573d6000803e3d6000fd5b505050506040513d601f19601f820116820180604052508101906120919190613d76565b600360009054906101000a90046001600160a01b03166001600160a01b031663017df3276040518163ffffffff1660e01b815260040160206040518083038186803b158015610eb957600080fd5b600354604080517fe6c7354000000000000000000000000000000000000000000000000000000000815290516001600160a01b03909216916391d1485491839163e6c7354091600480820192602092909190829003018186803b15801561214557600080fd5b505afa158015612159573d6000803e3d6000fd5b505050506040513d601f19601f8201168201806040525081019061217d9190613d76565b6040517fffffffff0000000000000000000000000000000000000000000000000000000060e084901b168152600481019190915233602482015260440160206040518083038186803b1580156121d257600080fd5b505afa1580156121e6573d6000803e3d6000fd5b505050506040513d601f19601f8201168201806040525081019061220a9190613d8f565b6122565760405162461bcd60e51b815260206004820152601f60248201527f43616c6c6572206973206e6f74206120626f6e64696e67206d616e61676572006044820152606401610624565b600480547fffffffffffffffffffffffff0000000000000000000000000000000000000000166001600160a01b0383169081179091556040519081527fede46239079ed9c62ee2a695104eb8fcdb9fb7b8ad77863caa0641b7e2fa5201906020016107e5565b600354604080517fe6c7354000000000000000000000000000000000000000000000000000000000815290516001600160a01b03909216916391d1485491839163e6c7354091600480820192602092909190829003018186803b15801561232257600080fd5b505afa158015612336573d6000803e3d6000fd5b505050506040513d601f19601f8201168201806040525081019061235a9190613d76565b6040517fffffffff0000000000000000000000000000000000000000000000000000000060e084901b168152600481019190915233602482015260440160206040518083038186803b1580156123af57600080fd5b505afa1580156123c3573d6000803e3d6000fd5b505050506040513d601f19601f820116820180604052508101906123e79190613d8f565b6124335760405162461bcd60e51b815260206004820152601f60248201527f43616c6c6572206973206e6f74206120626f6e64696e67206d616e61676572006044820152606401610624565b60058190556040518181527fd04894175d9fa4e8890c5d32ca8845426912f890c3d8ac5b5a561045892f8995906020016107e5565b600080600360009054906101000a90046001600160a01b03166001600160a01b031663d3815fb96040518163ffffffff1660e01b815260040160206040518083038186803b1580156124b957600080fd5b505afa1580156124cd573d6000803e3d6000fd5b505050506040513d601f19601f820116820180604052508101906124f19190613db1565b6040517f70a082310000000000000000000000000000000000000000000000000000000081523060048201526001600160a01b0391909116906370a082319060240160206040518083038186803b15801561254b57600080fd5b505afa15801561255f573d6000803e3d6000fd5b505050506040513d601f19601f820116820180604052508101906125839190613d76565b90506000600360009054906101000a90046001600160a01b03166001600160a01b031663c431e83c6040518163ffffffff1660e01b815260040160206040518083038186803b1580156125d557600080fd5b505afa1580156125e9573d6000803e3d6000fd5b505050506040513d601f19601f8201168201806040525081019061260d9190613db1565b6001600160a01b03166318160ddd6040518163ffffffff1660e01b815260040160206040518083038186803b15801561264557600080fd5b505afa158015612659573d6000803e3d6000fd5b505050506040513d601f19601f8201168201806040525081019061267d9190613d76565b9050600360009054906101000a90046001600160a01b03166001600160a01b031663214f78826040518163ffffffff1660e01b815260040160206040518083038186803b1580156126cd57600080fd5b505afa1580156126e1573d6000803e3d6000fd5b505050506040513d601f19601f820116820180604052508101906127059190613db1565b6040517fcd3242090000000000000000000000000000000000000000000000000000000081526004810184905260248101839052670de0b6b3a764000060448201526001600160a01b03919091169063cd3242099060640160206040518083038186803b15801561277557600080fd5b505afa158015612789573d6000803e3d6000fd5b505050506040513d601f19601f820116820180604052508101906127ad9190613d76565b9250505090565b600354604080517fe6c7354000000000000000000000000000000000000000000000000000000000815290516001600160a01b03909216916391d1485491839163e6c7354091600480820192602092909190829003018186803b15801561281a57600080fd5b505afa15801561282e573d6000803e3d6000fd5b505050506040513d601f19601f820116820180604052508101906128529190613d76565b6040517fffffffff0000000000000000000000000000000000000000000000000000000060e084901b168152600481019190915233602482015260440160206040518083038186803b1580156128a757600080fd5b505afa1580156128bb573d6000803e3d6000fd5b505050506040513d601f19601f820116820180604052508101906128df9190613d8f565b61292b5760405162461bcd60e51b815260206004820152601f60248201527f43616c6c6572206973206e6f74206120626f6e64696e67206d616e61676572006044820152606401610624565b612934816134d8565b50565b60008160011115801561294b575060d08211155b6129bd5760405162461bcd60e51b815260206004820152603160248201527f426f6e64696e673a206475726174696f6e206d7573742062652062657477656560448201527f6e203120616e6420323038207765656b730000000000000000000000000000006064820152608401610624565b6129c56133fe565b612a62333085600360009054906101000a90046001600160a01b03166001600160a01b031663d3815fb96040518163ffffffff1660e01b815260040160206040518083038186803b158015612a1957600080fd5b505afa158015612a2d573d6000803e3d6000fd5b505050506040513d601f19601f82011682018060405250810190612a519190613db1565b6001600160a01b031692919061359a565b600354604080517f214f788200000000000000000000000000000000000000000000000000000000815290516000926001600160a01b03169163214f7882916004808301926020929190829003018186803b158015612ac057600080fd5b505afa158015612ad4573d6000803e3d6000fd5b505050506040513d601f19601f82011682018060405250810190612af89190613db1565b6005546040517f5b374a40000000000000000000000000000000000000000000000000000000008152600481018790526024810186905260448101919091526001600160a01b039190911690635b374a409060640160206040518083038186803b158015612b6557600080fd5b505afa158015612b79573d6000803e3d6000fd5b505050506040513d601f19601f82011682018060405250810190612b9d9190613d76565b9050600060075484612baf9190613dfd565b612bb99043613ed1565b905060085481612bc99190613ee9565b612bd39082613efd565b9250612bdf82846135eb565b600360009054906101000a90046001600160a01b03166001600160a01b031663221e2e606040518163ffffffff1660e01b815260040160206040518083038186803b158015612c2d57600080fd5b505afa158015612c41573d6000803e3d6000fd5b505050506040513d601f19601f82011682018060405250810190612c659190613db1565b6040517f0efe6a8b00000000000000000000000000000000000000000000000000000000815233600482015260248101849052604481018590526001600160a01b039190911690630efe6a8b90606401600060405180830381600087803b158015612ccf57600080fd5b505af1158015612ce3573d6000803e3d6000fd5b50505050505092915050565b600354604080517fe6c7354000000000000000000000000000000000000000000000000000000000815290516001600160a01b03909216916391d1485491839163e6c7354091600480820192602092909190829003018186803b158015612d5557600080fd5b505afa158015612d69573d6000803e3d6000fd5b505050506040513d601f19601f82011682018060405250810190612d8d9190613d76565b6040517fffffffff0000000000000000000000000000000000000000000000000000000060e084901b168152600481019190915233602482015260440160206040518083038186803b158015612de257600080fd5b505afa158015612df6573d6000803e3d6000fd5b505050506040513d601f19601f82011682018060405250810190612e1a9190613d8f565b612e665760405162461bcd60e51b815260206004820152601f60248201527f43616c6c6572206973206e6f74206120626f6e64696e67206d616e61676572006044820152606401610624565b61293481613759565b600354604080517fe6c7354000000000000000000000000000000000000000000000000000000000815290516001600160a01b03909216916391d1485491839163e6c7354091600480820192602092909190829003018186803b158015612ed557600080fd5b505afa158015612ee9573d6000803e3d6000fd5b505050506040513d601f19601f82011682018060405250810190612f0d9190613d76565b6040517fffffffff0000000000000000000000000000000000000000000000000000000060e084901b168152600481019190915233602482015260440160206040518083038186803b158015612f6257600080fd5b505afa158015612f76573d6000803e3d6000fd5b505050506040513d601f19601f82011682018060405250810190612f9a9190613d8f565b612fe65760405162461bcd60e51b815260206004820152601f60248201527f43616c6c6572206973206e6f74206120626f6e64696e67206d616e61676572006044820152606401610624565b60098190556040518181527f291233015412afe6d80870385b5c5eaa1bd28ef79ce03048c75522fa8ac77f21906020016107e5565b6001600160a01b0383166130975760405162461bcd60e51b815260206004820152603060248201527f636f6c6c65637461626c652d647573743a3a63616e742d73656e642d6475737460448201527f2d746f2d7a65726f2d61646472657373000000000000000000000000000000006064820152608401610624565b6130a260008361381c565b156131155760405162461bcd60e51b815260206004820152602f60248201527f636f6c6c65637461626c652d647573743a3a746f6b656e2d69732d706172742d60448201527f6f662d7468652d70726f746f636f6c00000000000000000000000000000000006064820152608401610624565b6001600160a01b03821673eeeeeeeeeeeeeeeeeeeeeeeeeeeeeeeeeeeeeeee1415613176576040516001600160a01b0384169082156108fc029083906000818181858888f19350505050158015613170573d6000803e3d6000fd5b5061318a565b61318a6001600160a01b03831684836133b5565b604080516001600160a01b038086168252841660208201529081018290527f1e34c1aee8e83c2dcc14c21bb4bfeea7f46c0c998cb797ac7cc4d7a18f5c656b9060600160405180910390a1505050565b80158061327c57506040517fdd62ed3e0000000000000000000000000000000000000000000000000000000081523060048201526001600160a01b03838116602483015284169063dd62ed3e9060440160206040518083038186803b15801561324257600080fd5b505afa158015613256573d6000803e3d6000fd5b505050506040513d601f19601f8201168201806040525081019061327a9190613d76565b155b6132ee5760405162461bcd60e51b815260206004820152603660248201527f5361666545524332303a20617070726f76652066726f6d206e6f6e2d7a65726f60448201527f20746f206e6f6e2d7a65726f20616c6c6f77616e6365000000000000000000006064820152608401610624565b6040516001600160a01b0383166024820152604481018290526106389084907f095ea7b300000000000000000000000000000000000000000000000000000000906064015b604080517fffffffffffffffffffffffffffffffffffffffffffffffffffffffffffffffe08184030181529190526020810180517bffffffffffffffffffffffffffffffffffffffffffffffffffffffff167fffffffff0000000000000000000000000000000000000000000000000000000090931692909217909152613843565b6040516001600160a01b0383166024820152604481018290526106389084907fa9059cbb0000000000000000000000000000000000000000000000000000000090606401613333565b600360009054906101000a90046001600160a01b03166001600160a01b0316638fe636836040518163ffffffff1660e01b815260040160206040518083038186803b15801561344c57600080fd5b505afa158015613460573d6000803e3d6000fd5b505050506040513d601f19601f820116820180604052508101906134849190613db1565b6001600160a01b031663a2e620456040518163ffffffff1660e01b8152600401600060405180830381600087803b1580156134be57600080fd5b505af11580156134d2573d6000803e3d6000fd5b50505050565b6134e360008261381c565b6135555760405162461bcd60e51b815260206004820152603060248201527f636f6c6c65637461626c652d647573743a3a746f6b656e2d6e6f742d7061727460448201527f2d6f662d7468652d70726f746f636f6c000000000000000000000000000000006064820152608401610624565b613560600082613928565b506040516001600160a01b03821681527fddd12a8c3ce9bea5c97a5d25c8b777caab85752828f56b7b8ad5a0b30340a25f906020016107e5565b6040516001600160a01b03808516602483015283166044820152606481018290526134d29085907f23b872dd0000000000000000000000000000000000000000000000000000000090608401613333565b60006135f5612468565b90508061366a5760405162461bcd60e51b815260206004820152602760248201527f426f6e64696e673a2073686172652076616c75652073686f756c64206e6f742060448201527f6265206e756c6c000000000000000000000000000000000000000000000000006064820152608401610624565b600360009054906101000a90046001600160a01b03166001600160a01b031663c431e83c6040518163ffffffff1660e01b815260040160206040518083038186803b1580156136b857600080fd5b505afa1580156136cc573d6000803e3d6000fd5b505050506040513d601f19601f820116820180604052508101906136f09190613db1565b6001600160a01b031663731133e933848660026040518563ffffffff1660e01b81526004016137229493929190613f14565b600060405180830381600087803b15801561373c57600080fd5b505af1158015613750573d6000803e3d6000fd5b50505050505050565b61376460008261381c565b156137d75760405162461bcd60e51b815260206004820152602f60248201527f636f6c6c65637461626c652d647573743a3a746f6b656e2d69732d706172742d60448201527f6f662d7468652d70726f746f636f6c00000000000000000000000000000000006064820152608401610624565b6137e260008261393d565b506040516001600160a01b03821681527fa3e4ba856dd0fdee3a33ab9b82499fd01f05236f3d08cc4e7108698c6e3e7e50906020016107e5565b6001600160a01b038116600090815260018301602052604081205415155b90505b92915050565b6000613898826040518060400160405280602081526020017f5361666545524332303a206c6f772d6c6576656c2063616c6c206661696c6564815250856001600160a01b03166139529092919063ffffffff16565b80519091501561063857808060200190518101906138b69190613d8f565b6106385760405162461bcd60e51b815260206004820152602a60248201527f5361666545524332303a204552433230206f7065726174696f6e20646964206e60448201527f6f742073756363656564000000000000000000000000000000000000000000006064820152608401610624565b600061383a836001600160a01b038416613969565b600061383a836001600160a01b038416613a5c565b60606139618484600085613aab565b949350505050565b60008181526001830160205260408120548015613a5257600061398d600183613efd565b85549091506000906139a190600190613efd565b9050818114613a065760008660000182815481106139c1576139c1614013565b90600052602060002001549050808760000184815481106139e4576139e4614013565b6000918252602080832090910192909255918252600188019052604090208390555b8554869080613a1757613a17614042565b60019003818190600052602060002001600090559055856001016000868152602001908152602001600020600090556001935050505061383d565b600091505061383d565b6000818152600183016020526040812054613aa35750815460018181018455600084815260208082209093018490558454848252828601909352604090209190915561383d565b50600061383d565b606082471015613b235760405162461bcd60e51b815260206004820152602660248201527f416464726573733a20696e73756666696369656e742062616c616e636520666f60448201527f722063616c6c00000000000000000000000000000000000000000000000000006064820152608401610624565b600080866001600160a01b03168587604051613b3f9190614071565b60006040518083038185875af1925050503d8060008114613b7c576040519150601f19603f3d011682016040523d82523d6000602084013e613b81565b606091505b5091509150613b9287838387613b9d565b979650505050505050565b60608315613c09578251613c02576001600160a01b0385163b613c025760405162461bcd60e51b815260206004820152601d60248201527f416464726573733a2063616c6c20746f206e6f6e2d636f6e74726163740000006044820152606401610624565b5081613961565b6139618383815115613c1e5781518083602001fd5b8060405162461bcd60e51b81526004016106249190613d3f565b6001600160a01b038116811461293457600080fd5b600080600060608486031215613c6257600080fd5b8335613c6d81613c38565b92506020840135613c7d81613c38565b929592945050506040919091013590565b600060208284031215613ca057600080fd5b5035919050565b60008060408385031215613cba57600080fd5b50508035926020909101359150565b60005b83811015613ce4578181015183820152602001613ccc565b838111156134d25750506000910152565b60008151808452613d0d816020860160208601613cc9565b601f017fffffffffffffffffffffffffffffffffffffffffffffffffffffffffffffffe0169290920160200192915050565b60208152600061383a6020830184613cf5565b600060208284031215613d6457600080fd5b8135613d6f81613c38565b9392505050565b600060208284031215613d8857600080fd5b5051919050565b600060208284031215613da157600080fd5b81518015158114613d6f57600080fd5b600060208284031215613dc357600080fd5b8151613d6f81613c38565b7f4e487b7100000000000000000000000000000000000000000000000000000000600052601160045260246000fd5b6000817fffffffffffffffffffffffffffffffffffffffffffffffffffffffffffffffff0483118215151615613e3557613e35613dce565b500290565b7f4e487b7100000000000000000000000000000000000000000000000000000000600052601260045260246000fd5b600082613e7857613e78613e3a565b500490565b600181811c90821680613e9157607f821691505b60208210811415613ecb577f4e487b7100000000000000000000000000000000000000000000000000000000600052602260045260246000fd5b50919050565b60008219821115613ee457613ee4613dce565b500190565b600082613ef857613ef8613e3a565b500690565b600082821015613f0f57613f0f613dce565b500390565b6001600160a01b0385168152600060208581840152846040840152608060608401526000845481600182811c915080831680613f5157607f831692505b858310811415613f88577f4e487b710000000000000000000000000000000000000000000000000000000085526022600452602485fd5b6080880183905260a08801818015613fa75760018114613fd657614001565b7fffffffffffffffffffffffffffffffffffffffffffffffffffffffffffffff00861682528782019650614001565b60008b81526020902060005b86811015613ffb57815484820152908501908901613fe2565b83019750505b50949c9b505050505050505050505050565b7f4e487b7100000000000000000000000000000000000000000000000000000000600052603260045260246000fd5b7f4e487b7100000000000000000000000000000000000000000000000000000000600052603160045260246000fd5b60008251614083818460208701613cc9565b919091019291505056fea26469706673582212205994b105ca1d608815a1d3e549ce3ee990f3387c6d00b3aaf2cf99c13f58b76e64736f6c63430008090033",
    "linkReferences": {}
  },
  "methodIdentifiers": {
    "ETH_ADDRESS()": "a734f06e",
    "ONE()": "c2ee3a08",
    "addProtocolToken(address)": "fa3305c9",
    "blockCountInAWeek()": "aa1ec70a",
    "blockRonding()": "8039d081",
    "bondingDiscountMultiplier()": "8f88f38d",
    "crvPriceReset(uint256)": "7cc6bd41",
    "currentShareValue()": "aadc68a5",
    "currentTokenPrice()": "71b3659e",
    "data()": "73d4a13a",
    "deposit(uint256,uint256)": "e2bbb158",
    "manager()": "481c6a75",
    "redeemStreamTime()": "e8a8fad5",
    "removeProtocolToken(address)": "bf0d68e4",
    "sablier()": "482879aa",
    "sendDust(address,address,uint256)": "2db8c129",
    "setBlockCountInAWeek(uint256)": "2f72589e",
    "setBlockRonding(uint256)": "71cc5c0b",
    "setBondingDiscountMultiplier(uint256)": "a194bcde",
    "setRedeemStreamTime(uint256)": "6b71f457",
    "setSablier(address)": "90096556",
    "setUGOVPerBlock(uint256)": "ffd65a49",
    "uADPriceReset(uint256)": "3b1ba367",
    "uGOVPerBlock()": "47e54e38",
    "withdraw(uint256,uint256)": "441a3e70"
  },
  "id": 74
}