{
  "abi": [
    {
      "inputs": [
        {
          "internalType": "address",
          "name": "_manager",
          "type": "address"
        }
      ],
      "stateMutability": "nonpayable",
      "type": "constructor"
    },
    {
      "anonymous": false,
      "inputs": [
        {
          "indexed": true,
          "internalType": "address",
          "name": "account",
          "type": "address"
        },
        {
          "indexed": true,
          "internalType": "address",
          "name": "operator",
          "type": "address"
        },
        {
          "indexed": false,
          "internalType": "bool",
          "name": "approved",
          "type": "bool"
        }
      ],
      "name": "ApprovalForAll",
      "type": "event"
    },
    {
      "anonymous": false,
      "inputs": [
        {
          "indexed": false,
          "internalType": "address",
          "name": "couponHolder",
          "type": "address"
        },
        {
          "indexed": false,
          "internalType": "uint256",
          "name": "expiryBlock",
          "type": "uint256"
        },
        {
          "indexed": false,
          "internalType": "uint256",
          "name": "amount",
          "type": "uint256"
        }
      ],
      "name": "BurnedCoupons",
      "type": "event"
    },
    {
      "anonymous": false,
      "inputs": [
        {
          "indexed": false,
          "internalType": "address",
          "name": "recipient",
          "type": "address"
        },
        {
          "indexed": false,
          "internalType": "uint256",
          "name": "expiryBlock",
          "type": "uint256"
        },
        {
          "indexed": false,
          "internalType": "uint256",
          "name": "amount",
          "type": "uint256"
        }
      ],
      "name": "MintedCoupons",
      "type": "event"
    },
    {
      "anonymous": false,
      "inputs": [
        {
          "indexed": false,
          "internalType": "address",
          "name": "account",
          "type": "address"
        }
      ],
      "name": "Paused",
      "type": "event"
    },
    {
      "anonymous": false,
      "inputs": [
        {
          "indexed": true,
          "internalType": "address",
          "name": "operator",
          "type": "address"
        },
        {
          "indexed": true,
          "internalType": "address",
          "name": "from",
          "type": "address"
        },
        {
          "indexed": true,
          "internalType": "address",
          "name": "to",
          "type": "address"
        },
        {
          "indexed": false,
          "internalType": "uint256[]",
          "name": "ids",
          "type": "uint256[]"
        },
        {
          "indexed": false,
          "internalType": "uint256[]",
          "name": "values",
          "type": "uint256[]"
        }
      ],
      "name": "TransferBatch",
      "type": "event"
    },
    {
      "anonymous": false,
      "inputs": [
        {
          "indexed": true,
          "internalType": "address",
          "name": "operator",
          "type": "address"
        },
        {
          "indexed": true,
          "internalType": "address",
          "name": "from",
          "type": "address"
        },
        {
          "indexed": true,
          "internalType": "address",
          "name": "to",
          "type": "address"
        },
        {
          "indexed": false,
          "internalType": "uint256",
          "name": "id",
          "type": "uint256"
        },
        {
          "indexed": false,
          "internalType": "uint256",
          "name": "value",
          "type": "uint256"
        }
      ],
      "name": "TransferSingle",
      "type": "event"
    },
    {
      "anonymous": false,
      "inputs": [
        {
          "indexed": false,
          "internalType": "string",
          "name": "value",
          "type": "string"
        },
        {
          "indexed": true,
          "internalType": "uint256",
          "name": "id",
          "type": "uint256"
        }
      ],
      "name": "URI",
      "type": "event"
    },
    {
      "anonymous": false,
      "inputs": [
        {
          "indexed": false,
          "internalType": "address",
          "name": "account",
          "type": "address"
        }
      ],
      "name": "Unpaused",
      "type": "event"
    },
    {
      "inputs": [
        {
          "internalType": "address",
          "name": "account",
          "type": "address"
        },
        {
          "internalType": "uint256",
          "name": "id",
          "type": "uint256"
        }
      ],
      "name": "balanceOf",
      "outputs": [
        {
          "internalType": "uint256",
          "name": "",
          "type": "uint256"
        }
      ],
      "stateMutability": "view",
      "type": "function"
    },
    {
      "inputs": [
        {
          "internalType": "address[]",
          "name": "accounts",
          "type": "address[]"
        },
        {
          "internalType": "uint256[]",
          "name": "ids",
          "type": "uint256[]"
        }
      ],
      "name": "balanceOfBatch",
      "outputs": [
        {
          "internalType": "uint256[]",
          "name": "",
          "type": "uint256[]"
        }
      ],
      "stateMutability": "view",
      "type": "function"
    },
    {
      "inputs": [
        {
          "internalType": "address",
          "name": "account",
          "type": "address"
        },
        {
          "internalType": "uint256",
          "name": "id",
          "type": "uint256"
        },
        {
          "internalType": "uint256",
          "name": "value",
          "type": "uint256"
        }
      ],
      "name": "burn",
      "outputs": [],
      "stateMutability": "nonpayable",
      "type": "function"
    },
    {
      "inputs": [
        {
          "internalType": "address",
          "name": "account",
          "type": "address"
        },
        {
          "internalType": "uint256[]",
          "name": "ids",
          "type": "uint256[]"
        },
        {
          "internalType": "uint256[]",
          "name": "values",
          "type": "uint256[]"
        }
      ],
      "name": "burnBatch",
      "outputs": [],
      "stateMutability": "nonpayable",
      "type": "function"
    },
    {
      "inputs": [
        {
          "internalType": "address",
          "name": "couponOwner",
          "type": "address"
        },
        {
          "internalType": "uint256",
          "name": "amount",
          "type": "uint256"
        },
        {
          "internalType": "uint256",
          "name": "expiryBlockNumber",
          "type": "uint256"
        }
      ],
      "name": "burnCoupons",
      "outputs": [],
      "stateMutability": "nonpayable",
      "type": "function"
    },
    {
      "inputs": [],
      "name": "getTotalOutstandingDebt",
      "outputs": [
        {
          "internalType": "uint256",
          "name": "",
          "type": "uint256"
        }
      ],
      "stateMutability": "view",
      "type": "function"
    },
    {
      "inputs": [
        {
          "internalType": "address",
          "name": "holder",
          "type": "address"
        }
      ],
      "name": "holderTokens",
      "outputs": [
        {
          "internalType": "uint256[]",
          "name": "",
          "type": "uint256[]"
        }
      ],
      "stateMutability": "view",
      "type": "function"
    },
    {
      "inputs": [
        {
          "internalType": "address",
          "name": "account",
          "type": "address"
        },
        {
          "internalType": "address",
          "name": "operator",
          "type": "address"
        }
      ],
      "name": "isApprovedForAll",
      "outputs": [
        {
          "internalType": "bool",
          "name": "",
          "type": "bool"
        }
      ],
      "stateMutability": "view",
      "type": "function"
    },
    {
      "inputs": [],
      "name": "manager",
      "outputs": [
        {
          "internalType": "contract UbiquityAlgorithmicDollarManager",
          "name": "",
          "type": "address"
        }
      ],
      "stateMutability": "view",
      "type": "function"
    },
    {
      "inputs": [
        {
          "internalType": "address",
          "name": "to",
          "type": "address"
        },
        {
          "internalType": "uint256",
          "name": "id",
          "type": "uint256"
        },
        {
          "internalType": "uint256",
          "name": "amount",
          "type": "uint256"
        },
        {
          "internalType": "bytes",
          "name": "data",
          "type": "bytes"
        }
      ],
      "name": "mint",
      "outputs": [],
      "stateMutability": "nonpayable",
      "type": "function"
    },
    {
      "inputs": [
        {
          "internalType": "address",
          "name": "to",
          "type": "address"
        },
        {
          "internalType": "uint256[]",
          "name": "ids",
          "type": "uint256[]"
        },
        {
          "internalType": "uint256[]",
          "name": "amounts",
          "type": "uint256[]"
        },
        {
          "internalType": "bytes",
          "name": "data",
          "type": "bytes"
        }
      ],
      "name": "mintBatch",
      "outputs": [],
      "stateMutability": "nonpayable",
      "type": "function"
    },
    {
      "inputs": [
        {
          "internalType": "address",
          "name": "recipient",
          "type": "address"
        },
        {
          "internalType": "uint256",
          "name": "amount",
          "type": "uint256"
        },
        {
          "internalType": "uint256",
          "name": "expiryBlockNumber",
          "type": "uint256"
        }
      ],
      "name": "mintCoupons",
      "outputs": [],
      "stateMutability": "nonpayable",
      "type": "function"
    },
    {
      "inputs": [],
      "name": "pause",
      "outputs": [],
      "stateMutability": "nonpayable",
      "type": "function"
    },
    {
      "inputs": [],
      "name": "paused",
      "outputs": [
        {
          "internalType": "bool",
          "name": "",
          "type": "bool"
        }
      ],
      "stateMutability": "view",
      "type": "function"
    },
    {
      "inputs": [
        {
          "internalType": "address",
          "name": "from",
          "type": "address"
        },
        {
          "internalType": "address",
          "name": "to",
          "type": "address"
        },
        {
          "internalType": "uint256[]",
          "name": "ids",
          "type": "uint256[]"
        },
        {
          "internalType": "uint256[]",
          "name": "amounts",
          "type": "uint256[]"
        },
        {
          "internalType": "bytes",
          "name": "data",
          "type": "bytes"
        }
      ],
      "name": "safeBatchTransferFrom",
      "outputs": [],
      "stateMutability": "nonpayable",
      "type": "function"
    },
    {
      "inputs": [
        {
          "internalType": "address",
          "name": "from",
          "type": "address"
        },
        {
          "internalType": "address",
          "name": "to",
          "type": "address"
        },
        {
          "internalType": "uint256",
          "name": "id",
          "type": "uint256"
        },
        {
          "internalType": "uint256",
          "name": "amount",
          "type": "uint256"
        },
        {
          "internalType": "bytes",
          "name": "data",
          "type": "bytes"
        }
      ],
      "name": "safeTransferFrom",
      "outputs": [],
      "stateMutability": "nonpayable",
      "type": "function"
    },
    {
      "inputs": [
        {
          "internalType": "address",
          "name": "operator",
          "type": "address"
        },
        {
          "internalType": "bool",
          "name": "approved",
          "type": "bool"
        }
      ],
      "name": "setApprovalForAll",
      "outputs": [],
      "stateMutability": "nonpayable",
      "type": "function"
    },
    {
      "inputs": [
        {
          "internalType": "bytes4",
          "name": "interfaceId",
          "type": "bytes4"
        }
      ],
      "name": "supportsInterface",
      "outputs": [
        {
          "internalType": "bool",
          "name": "",
          "type": "bool"
        }
      ],
      "stateMutability": "view",
      "type": "function"
    },
    {
      "inputs": [],
      "name": "totalSupply",
      "outputs": [
        {
          "internalType": "uint256",
          "name": "",
          "type": "uint256"
        }
      ],
      "stateMutability": "view",
      "type": "function"
    },
    {
      "inputs": [],
      "name": "unpause",
      "outputs": [],
      "stateMutability": "nonpayable",
      "type": "function"
    },
    {
      "inputs": [],
      "name": "updateTotalDebt",
      "outputs": [],
      "stateMutability": "nonpayable",
      "type": "function"
    },
    {
      "inputs": [
        {
          "internalType": "uint256",
          "name": "",
          "type": "uint256"
        }
      ],
      "name": "uri",
      "outputs": [
        {
          "internalType": "string",
          "name": "",
          "type": "string"
        }
      ],
      "stateMutability": "view",
      "type": "function"
    }
  ],
  "bytecode": {
    "object": "0x60806040523480156200001157600080fd5b5060405162003d3c38038062003d3c833981016040819052620000349162000165565b60408051808201909152600381526255524960e81b60208201528190806200005c81620000a6565b5050600380546001600160a01b0393841661010090810294909316909202610100600160a81b0319166001600160a81b0319909216919091179190911790556000600655620001d4565b8051620000bb906002906020840190620000bf565b5050565b828054620000cd9062000197565b90600052602060002090601f016020900481019282620000f157600085556200013c565b82601f106200010c57805160ff19168380011785556200013c565b828001600101855582156200013c579182015b828111156200013c5782518255916020019190600101906200011f565b506200014a9291506200014e565b5090565b5b808211156200014a57600081556001016200014f565b6000602082840312156200017857600080fd5b81516001600160a01b03811681146200019057600080fd5b9392505050565b600181811c90821680620001ac57607f821691505b60208210811415620001ce57634e487b7160e01b600052602260045260246000fd5b50919050565b613b5880620001e46000396000f3fe608060405234801561001057600080fd5b50600436106101815760003560e01c8063731133e9116100d8578063db87b1ff1161008c578063f242432a11610066578063f242432a14610367578063f5298aca1461037a578063f7ffe84a1461038d57600080fd5b8063db87b1ff14610303578063e71fc58f1461030b578063e985e9c51461031e57600080fd5b80637b48c3fd116100bd5780637b48c3fd146102d55780638456cb59146102e8578063a22cb465146102f057600080fd5b8063731133e9146102af578063738f0cf1146102c257600080fd5b80632eb2c2d61161013a5780634e1273f4116101145780634e1273f4146102715780635c975abb146102915780636b20c4541461029c57600080fd5b80632eb2c2d61461020c5780633f4ba83a1461021f578063481c6a751461022757600080fd5b80630e89341c1161016b5780630e89341c146101cf57806318160ddd146101ef5780631f7fdffa146101f757600080fd5b8062fdd58e1461018657806301ffc9a7146101ac575b600080fd5b610199610194366004613108565b610395565b6040519081526020015b60405180910390f35b6101bf6101ba366004613163565b61045b565b60405190151581526020016101a3565b6101e26101dd366004613180565b61053e565b6040516101a39190613204565b600554610199565b61020a6102053660046133b8565b6105d2565b005b61020a61021a366004613451565b6107f1565b61020a610834565b60035461024c90610100900473ffffffffffffffffffffffffffffffffffffffff1681565b60405173ffffffffffffffffffffffffffffffffffffffff90911681526020016101a3565b61028461027f3660046134fb565b6109c6565b6040516101a39190613601565b60035460ff166101bf565b61020a6102aa366004613614565b610b04565b61020a6102bd366004613688565b610baf565b61020a6102d03660046136dd565b610d89565b6102846102e3366004613710565b61100b565b61020a611083565b61020a6102fe366004613739565b611213565b610199611222565b61020a6103193660046136dd565b611294565b6101bf61032c366004613770565b73ffffffffffffffffffffffffffffffffffffffff918216600090815260016020908152604080832093909416825291909152205460ff1690565b61020a6103753660046137a3565b6114d1565b61020a6103883660046136dd565b61150d565b61020a6115b3565b600073ffffffffffffffffffffffffffffffffffffffff83166104255760405162461bcd60e51b815260206004820152602a60248201527f455243313135353a2061646472657373207a65726f206973206e6f742061207660448201527f616c6964206f776e65720000000000000000000000000000000000000000000060648201526084015b60405180910390fd5b5060008181526020818152604080832073ffffffffffffffffffffffffffffffffffffffff861684529091529020545b92915050565b60007fffffffff0000000000000000000000000000000000000000000000000000000082167fd9b67a260000000000000000000000000000000000000000000000000000000014806104ee57507fffffffff0000000000000000000000000000000000000000000000000000000082167f0e89341c00000000000000000000000000000000000000000000000000000000145b8061045557507f01ffc9a7000000000000000000000000000000000000000000000000000000007fffffffff00000000000000000000000000000000000000000000000000000000831614610455565b60606002805461054d90613808565b80601f016020809104026020016040519081016040528092919081815260200182805461057990613808565b80156105c65780601f1061059b576101008083540402835291602001916105c6565b820191906000526020600020905b8154815290600101906020018083116105a957829003601f168201915b50505050509050919050565b600354604080517f2f533cb7000000000000000000000000000000000000000000000000000000008152905161010090920473ffffffffffffffffffffffffffffffffffffffff16916391d14854918391632f533cb791600480820192602092909190829003018186803b15801561064957600080fd5b505afa15801561065d573d6000803e3d6000fd5b505050506040513d601f19601f82011682018060405250810190610681919061385c565b6040517fffffffff0000000000000000000000000000000000000000000000000000000060e084901b168152600481019190915233602482015260440160206040518083038186803b1580156106d657600080fd5b505afa1580156106ea573d6000803e3d6000fd5b505050506040513d601f19601f8201168201806040525081019061070e9190613875565b61075a5760405162461bcd60e51b815260206004820152601c60248201527f476f7665726e616e636520746f6b656e3a206e6f74206d696e74657200000000604482015260640161041c565b61076261163e565b61076e84848484611691565b60005b83518110156107bb5782818151811061078c5761078c613892565b6020026020010151600560008282546107a591906138f0565b909155506107b4905081613908565b9050610771565b5073ffffffffffffffffffffffffffffffffffffffff841660009081526004602052604090206107eb90846118e5565b50505050565b6107fe85858585856119a2565b73ffffffffffffffffffffffffffffffffffffffff8416600090815260046020526040902061082d90846118e5565b5050505050565b600354604080517fe63ab1e9000000000000000000000000000000000000000000000000000000008152905161010090920473ffffffffffffffffffffffffffffffffffffffff16916391d1485491839163e63ab1e991600480820192602092909190829003018186803b1580156108ab57600080fd5b505afa1580156108bf573d6000803e3d6000fd5b505050506040513d601f19601f820116820180604052508101906108e3919061385c565b6040517fffffffff0000000000000000000000000000000000000000000000000000000060e084901b168152600481019190915233602482015260440160206040518083038186803b15801561093857600080fd5b505afa15801561094c573d6000803e3d6000fd5b505050506040513d601f19601f820116820180604052508101906109709190613875565b6109bc5760405162461bcd60e51b815260206004820152601c60248201527f476f7665726e616e636520746f6b656e3a206e6f742070617573657200000000604482015260640161041c565b6109c4611a4a565b565b60608151835114610a3f5760405162461bcd60e51b815260206004820152602960248201527f455243313135353a206163636f756e747320616e6420696473206c656e67746860448201527f206d69736d617463680000000000000000000000000000000000000000000000606482015260840161041c565b6000835167ffffffffffffffff811115610a5b57610a5b613217565b604051908082528060200260200182016040528015610a84578160200160208202803683370190505b50905060005b8451811015610afc57610acf858281518110610aa857610aa8613892565b6020026020010151858381518110610ac257610ac2613892565b6020026020010151610395565b828281518110610ae157610ae1613892565b6020908102919091010152610af581613908565b9050610a8a565b509392505050565b73ffffffffffffffffffffffffffffffffffffffff8316331480610b2d5750610b2d833361032c565b610b9f5760405162461bcd60e51b815260206004820152602e60248201527f455243313135353a2063616c6c6572206973206e6f7420746f6b656e206f776e60448201527f6572206f7220617070726f766564000000000000000000000000000000000000606482015260840161041c565b610baa838383611ac7565b505050565b600354604080517f2f533cb7000000000000000000000000000000000000000000000000000000008152905161010090920473ffffffffffffffffffffffffffffffffffffffff16916391d14854918391632f533cb791600480820192602092909190829003018186803b158015610c2657600080fd5b505afa158015610c3a573d6000803e3d6000fd5b505050506040513d601f19601f82011682018060405250810190610c5e919061385c565b6040517fffffffff0000000000000000000000000000000000000000000000000000000060e084901b168152600481019190915233602482015260440160206040518083038186803b158015610cb357600080fd5b505afa158015610cc7573d6000803e3d6000fd5b505050506040513d601f19601f82011682018060405250810190610ceb9190613875565b610d375760405162461bcd60e51b815260206004820152601c60248201527f476f7665726e616e636520746f6b656e3a206e6f74206d696e74657200000000604482015260640161041c565b610d4384848484611b27565b8160056000828254610d5591906138f0565b909155505073ffffffffffffffffffffffffffffffffffffffff841660009081526004602052604090206107eb9084611c8d565b600354604080517fa41dd6e6000000000000000000000000000000000000000000000000000000008152905161010090920473ffffffffffffffffffffffffffffffffffffffff16916391d1485491839163a41dd6e691600480820192602092909190829003018186803b158015610e0057600080fd5b505afa158015610e14573d6000803e3d6000fd5b505050506040513d601f19601f82011682018060405250810190610e38919061385c565b6040517fffffffff0000000000000000000000000000000000000000000000000000000060e084901b168152600481019190915233602482015260440160206040518083038186803b158015610e8d57600080fd5b505afa158015610ea1573d6000803e3d6000fd5b505050506040513d601f19601f82011682018060405250810190610ec59190613875565b610f115760405162461bcd60e51b815260206004820152601e60248201527f43616c6c6572206973206e6f74206120636f75706f6e206d616e616765720000604482015260640161041c565b81610f1c8483610395565b1015610f6a5760405162461bcd60e51b815260206004820152601f60248201527f436f75706f6e206f776e6572206e6f7420656e6f75676820636f75706f6e7300604482015260640161041c565b610f7583828461150d565b6040805173ffffffffffffffffffffffffffffffffffffffff85168152602081018390529081018390527ffe9cd66a03bb9bae13904547cf3265727d3fb385e165cfca832f24f62fad083d9060600160405180910390a1600081815260076020526040902054610fe6908390613941565b600082815260076020526040902055600654611003908390613941565b600655505050565b73ffffffffffffffffffffffffffffffffffffffff81166000908152600460209081526040918290208054835181840281018401909452808452606093928301828280156105c657602002820191906000526020600020905b8154815260200190600101908083116110645750505050509050919050565b600354604080517fe63ab1e9000000000000000000000000000000000000000000000000000000008152905161010090920473ffffffffffffffffffffffffffffffffffffffff16916391d1485491839163e63ab1e991600480820192602092909190829003018186803b1580156110fa57600080fd5b505afa15801561110e573d6000803e3d6000fd5b505050506040513d601f19601f82011682018060405250810190611132919061385c565b6040517fffffffff0000000000000000000000000000000000000000000000000000000060e084901b168152600481019190915233602482015260440160206040518083038186803b15801561118757600080fd5b505afa15801561119b573d6000803e3d6000fd5b505050506040513d601f19601f820116820180604052508101906111bf9190613875565b61120b5760405162461bcd60e51b815260206004820152601c60248201527f476f7665726e616e636520746f6b656e3a206e6f742070617573657200000000604482015260640161041c565b6109c4611ced565b61121e338383611d48565b5050565b6006546000908180611235600882611e82565b9150505b8115801561124657508015155b1561128c574381111561125c5760019150611278565b6000818152600760205260409020546112759084613941565b92505b611283600882611e82565b91506112399050565b509092915050565b600354604080517fa41dd6e6000000000000000000000000000000000000000000000000000000008152905161010090920473ffffffffffffffffffffffffffffffffffffffff16916391d1485491839163a41dd6e691600480820192602092909190829003018186803b15801561130b57600080fd5b505afa15801561131f573d6000803e3d6000fd5b505050506040513d601f19601f82011682018060405250810190611343919061385c565b6040517fffffffff0000000000000000000000000000000000000000000000000000000060e084901b168152600481019190915233602482015260440160206040518083038186803b15801561139857600080fd5b505afa1580156113ac573d6000803e3d6000fd5b505050506040513d601f19601f820116820180604052508101906113d09190613875565b61141c5760405162461bcd60e51b815260206004820152601e60248201527f43616c6c6572206973206e6f74206120636f75706f6e206d616e616765720000604482015260640161041c565b61143783828460405180602001604052806000815250610baf565b6040805173ffffffffffffffffffffffffffffffffffffffff85168152602081018390529081018390527fee6a2b6b9d52e9b905b3b53a76ff201a4762f6d3c40a5a976a7bfbb7cce2499f9060600160405180910390a1611499600882611e9c565b506000818152600760205260409020546114b49083906138f0565b6000828152600760205260409020556006546110039083906138f0565b6114de8585858585611eb1565b73ffffffffffffffffffffffffffffffffffffffff8416600090815260046020526040902061082d9084611c8d565b73ffffffffffffffffffffffffffffffffffffffff83163314806115365750611536833361032c565b6115a85760405162461bcd60e51b815260206004820152602e60248201527f455243313135353a2063616c6c6572206973206e6f7420746f6b656e206f776e60448201527f6572206f7220617070726f766564000000000000000000000000000000000000606482015260840161041c565b610baa838383611f59565b6000806115c06008611f88565b90505b811580156115d057508015155b1561121e57438111156115f2576115e8600882611f95565b506001915061162d565b60008181526007602052604090205460065461160e9190613941565b60065560008181526007602052604081205561162b600882611fa3565b505b6116376008611f88565b90506115c3565b60035460ff16156109c45760405162461bcd60e51b815260206004820152601060248201527f5061757361626c653a2070617573656400000000000000000000000000000000604482015260640161041c565b73ffffffffffffffffffffffffffffffffffffffff841661171a5760405162461bcd60e51b815260206004820152602160248201527f455243313135353a206d696e7420746f20746865207a65726f2061646472657360448201527f7300000000000000000000000000000000000000000000000000000000000000606482015260840161041c565b81518351146117915760405162461bcd60e51b815260206004820152602860248201527f455243313135353a2069647320616e6420616d6f756e7473206c656e6774682060448201527f6d69736d61746368000000000000000000000000000000000000000000000000606482015260840161041c565b336117a18160008787878761203c565b60005b8451811015611856578381815181106117bf576117bf613892565b60200260200101516000808784815181106117dc576117dc613892565b6020026020010151815260200190815260200160002060008873ffffffffffffffffffffffffffffffffffffffff1673ffffffffffffffffffffffffffffffffffffffff168152602001908152602001600020600082825461183e91906138f0565b9091555081905061184e81613908565b9150506117a4565b508473ffffffffffffffffffffffffffffffffffffffff16600073ffffffffffffffffffffffffffffffffffffffff168273ffffffffffffffffffffffffffffffffffffffff167f4a39dc06d4c0dbc64b70af90fd698a233a518aa5d07e595d983b8c0526c8f7fb87876040516118ce929190613958565b60405180910390a461082d81600087878787612052565b60005b8151811015610baa576000805b84548110156119565783838151811061191057611910613892565b602002602001015185828154811061192a5761192a613892565b906000526020600020015414156119445760019150611956565b8061194e81613908565b9150506118f5565b508061198f578383838151811061196f5761196f613892565b602090810291909101810151825460018101845560009384529190922001555b508061199a81613908565b9150506118e8565b73ffffffffffffffffffffffffffffffffffffffff85163314806119cb57506119cb853361032c565b611a3d5760405162461bcd60e51b815260206004820152602e60248201527f455243313135353a2063616c6c6572206973206e6f7420746f6b656e206f776e60448201527f6572206f7220617070726f766564000000000000000000000000000000000000606482015260840161041c565b61082d858585858561229e565b611a52612590565b600380547fffffffffffffffffffffffffffffffffffffffffffffffffffffffffffffff001690557f5db9ee0a495bf2e6ff9c91a7834c1ba4fdd244a5e8aa4e537bd38aeae4b073aa335b60405173ffffffffffffffffffffffffffffffffffffffff909116815260200160405180910390a1565b611acf61163e565b611ada8383836125e2565b60005b82518110156107eb57818181518110611af857611af8613892565b602002602001015160056000828254611b119190613941565b90915550611b20905081613908565b9050611add565b73ffffffffffffffffffffffffffffffffffffffff8416611bb05760405162461bcd60e51b815260206004820152602160248201527f455243313135353a206d696e7420746f20746865207a65726f2061646472657360448201527f7300000000000000000000000000000000000000000000000000000000000000606482015260840161041c565b336000611bbc856128cd565b90506000611bc9856128cd565b9050611bda8360008985858961203c565b60008681526020818152604080832073ffffffffffffffffffffffffffffffffffffffff8b16845290915281208054879290611c179084906138f0565b9091555050604080518781526020810187905273ffffffffffffffffffffffffffffffffffffffff808a1692600092918716917fc3d58168c5ae7397731d063d5bbf3d657854427343f4c083240f7aacaa2d0f62910160405180910390a4611c8483600089898989612918565b50505050505050565b60005b8254811015611cd45781838281548110611cac57611cac613892565b90600052602060002001541415611cc257505050565b80611ccc81613908565b915050611c90565b5081546001810183556000928352602090922090910155565b611cf561163e565b600380547fffffffffffffffffffffffffffffffffffffffffffffffffffffffffffffff001660011790557f62e78cea01bee320cd4e420270b5ea74000d11b0c9f74754ebdbfc544b05a258611a9d3390565b8173ffffffffffffffffffffffffffffffffffffffff168373ffffffffffffffffffffffffffffffffffffffff161415611dea5760405162461bcd60e51b815260206004820152602960248201527f455243313135353a2073657474696e6720617070726f76616c2073746174757360448201527f20666f722073656c660000000000000000000000000000000000000000000000606482015260840161041c565b73ffffffffffffffffffffffffffffffffffffffff83811660008181526001602090815260408083209487168084529482529182902080547fffffffffffffffffffffffffffffffffffffffffffffffffffffffffffffff001686151590811790915591519182527f17307eab39ab6107e8899845ad3d59bd9653f200f220920489ca2b5937696c31910160405180910390a3505050565b600080611e9184846001612aba565b915091509250929050565b6000611eaa83836000612b01565b9392505050565b73ffffffffffffffffffffffffffffffffffffffff8516331480611eda5750611eda853361032c565b611f4c5760405162461bcd60e51b815260206004820152602e60248201527f455243313135353a2063616c6c6572206973206e6f7420746f6b656e206f776e60448201527f6572206f7220617070726f766564000000000000000000000000000000000000606482015260840161041c565b61082d8585858585612b18565b611f6161163e565b611f6c838383612d30565b8060056000828254611f7e9190613941565b9091555050505050565b6000610455826001612f1a565b6000611eaa83836001612b01565b6000811580611fb95750611fb78383612f37565b155b15611fc657506000610455565b600082815260018481016020818152604080852085805280835281862080548688528388208054808a52878752858a208a80528752858a20839055918952958552838820878952855292872092909255909152839055829055845490918591612030908490613941565b90915550919392505050565b61204a868686868686612fbb565b505050505050565b73ffffffffffffffffffffffffffffffffffffffff84163b1561204a576040517fbc197c8100000000000000000000000000000000000000000000000000000000815273ffffffffffffffffffffffffffffffffffffffff85169063bc197c81906120c99089908990889088908890600401613986565b602060405180830381600087803b1580156120e357600080fd5b505af1925050508015612131575060408051601f3d9081017fffffffffffffffffffffffffffffffffffffffffffffffffffffffffffffffe016820190925261212e918101906139f1565b60015b6121e75761213d613a0e565b806308c379a014156121775750612152613a2a565b8061215d5750612179565b8060405162461bcd60e51b815260040161041c9190613204565b505b60405162461bcd60e51b815260206004820152603460248201527f455243313135353a207472616e7366657220746f206e6f6e2d4552433131353560448201527f526563656976657220696d706c656d656e746572000000000000000000000000606482015260840161041c565b7fffffffff0000000000000000000000000000000000000000000000000000000081167fbc197c810000000000000000000000000000000000000000000000000000000014611c845760405162461bcd60e51b815260206004820152602860248201527f455243313135353a204552433131353552656365697665722072656a6563746560448201527f6420746f6b656e73000000000000000000000000000000000000000000000000606482015260840161041c565b81518351146123155760405162461bcd60e51b815260206004820152602860248201527f455243313135353a2069647320616e6420616d6f756e7473206c656e6774682060448201527f6d69736d61746368000000000000000000000000000000000000000000000000606482015260840161041c565b73ffffffffffffffffffffffffffffffffffffffff841661239e5760405162461bcd60e51b815260206004820152602560248201527f455243313135353a207472616e7366657220746f20746865207a65726f20616460448201527f6472657373000000000000000000000000000000000000000000000000000000606482015260840161041c565b336123ad81878787878761203c565b60005b84518110156125035760008582815181106123cd576123cd613892565b6020026020010151905060008583815181106123eb576123eb613892565b6020908102919091018101516000848152808352604080822073ffffffffffffffffffffffffffffffffffffffff8e16835290935291909120549091508181101561249e5760405162461bcd60e51b815260206004820152602a60248201527f455243313135353a20696e73756666696369656e742062616c616e636520666f60448201527f72207472616e7366657200000000000000000000000000000000000000000000606482015260840161041c565b60008381526020818152604080832073ffffffffffffffffffffffffffffffffffffffff8e8116855292528083208585039055908b168252812080548492906124e89084906138f0565b92505081905550505050806124fc90613908565b90506123b0565b508473ffffffffffffffffffffffffffffffffffffffff168673ffffffffffffffffffffffffffffffffffffffff168273ffffffffffffffffffffffffffffffffffffffff167f4a39dc06d4c0dbc64b70af90fd698a233a518aa5d07e595d983b8c0526c8f7fb878760405161257a929190613958565b60405180910390a461204a818787878787612052565b60035460ff166109c45760405162461bcd60e51b815260206004820152601460248201527f5061757361626c653a206e6f7420706175736564000000000000000000000000604482015260640161041c565b73ffffffffffffffffffffffffffffffffffffffff831661266b5760405162461bcd60e51b815260206004820152602360248201527f455243313135353a206275726e2066726f6d20746865207a65726f206164647260448201527f6573730000000000000000000000000000000000000000000000000000000000606482015260840161041c565b80518251146126e25760405162461bcd60e51b815260206004820152602860248201527f455243313135353a2069647320616e6420616d6f756e7473206c656e6774682060448201527f6d69736d61746368000000000000000000000000000000000000000000000000606482015260840161041c565b60003390506127058185600086866040518060200160405280600081525061203c565b60005b835181101561283957600084828151811061272557612725613892565b60200260200101519050600084838151811061274357612743613892565b6020908102919091018101516000848152808352604080822073ffffffffffffffffffffffffffffffffffffffff8c1683529093529190912054909150818110156127f55760405162461bcd60e51b8152602060048201526024808201527f455243313135353a206275726e20616d6f756e7420657863656564732062616c60448201527f616e636500000000000000000000000000000000000000000000000000000000606482015260840161041c565b60009283526020838152604080852073ffffffffffffffffffffffffffffffffffffffff8b168652909152909220910390558061283181613908565b915050612708565b50600073ffffffffffffffffffffffffffffffffffffffff168473ffffffffffffffffffffffffffffffffffffffff168273ffffffffffffffffffffffffffffffffffffffff167f4a39dc06d4c0dbc64b70af90fd698a233a518aa5d07e595d983b8c0526c8f7fb86866040516128b1929190613958565b60405180910390a46040805160208101909152600090526107eb565b6040805160018082528183019092526060916000919060208083019080368337019050509050828160008151811061290757612907613892565b602090810291909101015292915050565b73ffffffffffffffffffffffffffffffffffffffff84163b1561204a576040517ff23a6e6100000000000000000000000000000000000000000000000000000000815273ffffffffffffffffffffffffffffffffffffffff85169063f23a6e619061298f9089908990889088908890600401613ad2565b602060405180830381600087803b1580156129a957600080fd5b505af19250505080156129f7575060408051601f3d9081017fffffffffffffffffffffffffffffffffffffffffffffffffffffffffffffffe01682019092526129f4918101906139f1565b60015b612a035761213d613a0e565b7fffffffff0000000000000000000000000000000000000000000000000000000081167ff23a6e610000000000000000000000000000000000000000000000000000000014611c845760405162461bcd60e51b815260206004820152602860248201527f455243313135353a204552433131353552656365697665722072656a6563746560448201527f6420746f6b656e73000000000000000000000000000000000000000000000000606482015260840161041c565b600080612ac78585612f37565b612ad657506000905080612af9565b505060008281526001848101602090815260408084208515158552909152909120545b935093915050565b6000612b108460008585613034565b949350505050565b73ffffffffffffffffffffffffffffffffffffffff8416612ba15760405162461bcd60e51b815260206004820152602560248201527f455243313135353a207472616e7366657220746f20746865207a65726f20616460448201527f6472657373000000000000000000000000000000000000000000000000000000606482015260840161041c565b336000612bad856128cd565b90506000612bba856128cd565b9050612bca83898985858961203c565b60008681526020818152604080832073ffffffffffffffffffffffffffffffffffffffff8c16845290915290205485811015612c6e5760405162461bcd60e51b815260206004820152602a60248201527f455243313135353a20696e73756666696369656e742062616c616e636520666f60448201527f72207472616e7366657200000000000000000000000000000000000000000000606482015260840161041c565b60008781526020818152604080832073ffffffffffffffffffffffffffffffffffffffff8d8116855292528083208985039055908a16825281208054889290612cb89084906138f0565b9091555050604080518881526020810188905273ffffffffffffffffffffffffffffffffffffffff808b16928c821692918816917fc3d58168c5ae7397731d063d5bbf3d657854427343f4c083240f7aacaa2d0f62910160405180910390a4612d25848a8a8a8a8a612918565b505050505050505050565b73ffffffffffffffffffffffffffffffffffffffff8316612db95760405162461bcd60e51b815260206004820152602360248201527f455243313135353a206275726e2066726f6d20746865207a65726f206164647260448201527f6573730000000000000000000000000000000000000000000000000000000000606482015260840161041c565b336000612dc5846128cd565b90506000612dd2846128cd565b9050612df28387600085856040518060200160405280600081525061203c565b60008581526020818152604080832073ffffffffffffffffffffffffffffffffffffffff8a16845290915290205484811015612e955760405162461bcd60e51b8152602060048201526024808201527f455243313135353a206275726e20616d6f756e7420657863656564732062616c60448201527f616e636500000000000000000000000000000000000000000000000000000000606482015260840161041c565b60008681526020818152604080832073ffffffffffffffffffffffffffffffffffffffff8b81168086529184528285208a8703905582518b81529384018a90529092908816917fc3d58168c5ae7397731d063d5bbf3d657854427343f4c083240f7aacaa2d0f62910160405180910390a4604080516020810190915260009052611c84565b600080612f2984600085612aba565b9150612b1090508482611fa3565b60008181526001830160209081526040808320838052909152812054158015612f7a57506000828152600180850160209081526040808420928452919052902054155b15612fb3576000808052600180850160209081526040808420928452919052902054821415612fab57506001610455565b506000610455565b506001610455565b60035460ff161561204a5760405162461bcd60e51b815260206004820152602c60248201527f455243313135355061757361626c653a20746f6b656e207472616e736665722060448201527f7768696c65207061757365640000000000000000000000000000000000000000606482015260840161041c565b60006130408584612f37565b15801561305257506130528585612f37565b156130d45760008481526001868101602081815260408085208715801580885291845282872080548b8952868652848920838a52808752858a208e9055918c90558089529585528388209188529084528287208a905590865290915283208190558754909288916130c49084906138f0565b9091555060019250612b10915050565b506000949350505050565b803573ffffffffffffffffffffffffffffffffffffffff8116811461310357600080fd5b919050565b6000806040838503121561311b57600080fd5b613124836130df565b946020939093013593505050565b7fffffffff000000000000000000000000000000000000000000000000000000008116811461316057600080fd5b50565b60006020828403121561317557600080fd5b8135611eaa81613132565b60006020828403121561319257600080fd5b5035919050565b6000815180845260005b818110156131bf576020818501810151868301820152016131a3565b818111156131d1576000602083870101525b50601f017fffffffffffffffffffffffffffffffffffffffffffffffffffffffffffffffe0169290920160200192915050565b602081526000611eaa6020830184613199565b7f4e487b7100000000000000000000000000000000000000000000000000000000600052604160045260246000fd5b7fffffffffffffffffffffffffffffffffffffffffffffffffffffffffffffffe0601f830116810181811067ffffffffffffffff8211171561328a5761328a613217565b6040525050565b600067ffffffffffffffff8211156132ab576132ab613217565b5060051b60200190565b600082601f8301126132c657600080fd5b813560206132d382613291565b6040516132e08282613246565b83815260059390931b850182019282810191508684111561330057600080fd5b8286015b8481101561331b5780358352918301918301613304565b509695505050505050565b600082601f83011261333757600080fd5b813567ffffffffffffffff81111561335157613351613217565b60405161338660207fffffffffffffffffffffffffffffffffffffffffffffffffffffffffffffffe0601f8501160182613246565b81815284602083860101111561339b57600080fd5b816020850160208301376000918101602001919091529392505050565b600080600080608085870312156133ce57600080fd5b6133d7856130df565b9350602085013567ffffffffffffffff808211156133f457600080fd5b613400888389016132b5565b9450604087013591508082111561341657600080fd5b613422888389016132b5565b9350606087013591508082111561343857600080fd5b5061344587828801613326565b91505092959194509250565b600080600080600060a0868803121561346957600080fd5b613472866130df565b9450613480602087016130df565b9350604086013567ffffffffffffffff8082111561349d57600080fd5b6134a989838a016132b5565b945060608801359150808211156134bf57600080fd5b6134cb89838a016132b5565b935060808801359150808211156134e157600080fd5b506134ee88828901613326565b9150509295509295909350565b6000806040838503121561350e57600080fd5b823567ffffffffffffffff8082111561352657600080fd5b818501915085601f83011261353a57600080fd5b8135602061354782613291565b6040516135548282613246565b83815260059390931b850182019282810191508984111561357457600080fd5b948201945b838610156135995761358a866130df565b82529482019490820190613579565b965050860135925050808211156135af57600080fd5b506135bc858286016132b5565b9150509250929050565b600081518084526020808501945080840160005b838110156135f6578151875295820195908201906001016135da565b509495945050505050565b602081526000611eaa60208301846135c6565b60008060006060848603121561362957600080fd5b613632846130df565b9250602084013567ffffffffffffffff8082111561364f57600080fd5b61365b878388016132b5565b9350604086013591508082111561367157600080fd5b5061367e868287016132b5565b9150509250925092565b6000806000806080858703121561369e57600080fd5b6136a7856130df565b93506020850135925060408501359150606085013567ffffffffffffffff8111156136d157600080fd5b61344587828801613326565b6000806000606084860312156136f257600080fd5b6136fb846130df565b95602085013595506040909401359392505050565b60006020828403121561372257600080fd5b611eaa826130df565b801515811461316057600080fd5b6000806040838503121561374c57600080fd5b613755836130df565b915060208301356137658161372b565b809150509250929050565b6000806040838503121561378357600080fd5b61378c836130df565b915061379a602084016130df565b90509250929050565b600080600080600060a086880312156137bb57600080fd5b6137c4866130df565b94506137d2602087016130df565b93506040860135925060608601359150608086013567ffffffffffffffff8111156137fc57600080fd5b6134ee88828901613326565b600181811c9082168061381c57607f821691505b60208210811415613856577f4e487b7100000000000000000000000000000000000000000000000000000000600052602260045260246000fd5b50919050565b60006020828403121561386e57600080fd5b5051919050565b60006020828403121561388757600080fd5b8151611eaa8161372b565b7f4e487b7100000000000000000000000000000000000000000000000000000000600052603260045260246000fd5b7f4e487b7100000000000000000000000000000000000000000000000000000000600052601160045260246000fd5b60008219821115613903576139036138c1565b500190565b60007fffffffffffffffffffffffffffffffffffffffffffffffffffffffffffffffff82141561393a5761393a6138c1565b5060010190565b600082821015613953576139536138c1565b500390565b60408152600061396b60408301856135c6565b828103602084015261397d81856135c6565b95945050505050565b600073ffffffffffffffffffffffffffffffffffffffff808816835280871660208401525060a060408301526139bf60a08301866135c6565b82810360608401526139d181866135c6565b905082810360808401526139e58185613199565b98975050505050505050565b600060208284031215613a0357600080fd5b8151611eaa81613132565b600060033d1115613a275760046000803e5060005160e01c5b90565b600060443d1015613a385790565b6040517ffffffffffffffffffffffffffffffffffffffffffffffffffffffffffffffffc803d016004833e81513d67ffffffffffffffff8160248401118184111715613a8657505050505090565b8285019150815181811115613a9e5750505050505090565b843d8701016020828501011115613ab85750505050505090565b613ac760208286010187613246565b509095945050505050565b600073ffffffffffffffffffffffffffffffffffffffff808816835280871660208401525084604083015283606083015260a06080830152613b1760a0830184613199565b97965050505050505056fea26469706673582212207a6ca6bc5c50ef7ee67d0d17c97a28dbd41d78c3a411d4bfb13db9df4839c97264736f6c63430008090033",
    "linkReferences": {}
  },
  "methodIdentifiers": {
    "balanceOf(address,uint256)": "00fdd58e",
    "balanceOfBatch(address[],uint256[])": "4e1273f4",
    "burn(address,uint256,uint256)": "f5298aca",
    "burnBatch(address,uint256[],uint256[])": "6b20c454",
    "burnCoupons(address,uint256,uint256)": "738f0cf1",
    "getTotalOutstandingDebt()": "db87b1ff",
    "holderTokens(address)": "7b48c3fd",
    "isApprovedForAll(address,address)": "e985e9c5",
    "manager()": "481c6a75",
    "mint(address,uint256,uint256,bytes)": "731133e9",
    "mintBatch(address,uint256[],uint256[],bytes)": "1f7fdffa",
    "mintCoupons(address,uint256,uint256)": "e71fc58f",
    "pause()": "8456cb59",
    "paused()": "5c975abb",
    "safeBatchTransferFrom(address,address,uint256[],uint256[],bytes)": "2eb2c2d6",
    "safeTransferFrom(address,address,uint256,uint256,bytes)": "f242432a",
    "setApprovalForAll(address,bool)": "a22cb465",
    "supportsInterface(bytes4)": "01ffc9a7",
    "totalSupply()": "18160ddd",
    "unpause()": "3f4ba83a",
    "updateTotalDebt()": "f7ffe84a",
    "uri(uint256)": "0e89341c"
  },
  "id": 49
}