{
  "_format": "hh-sol-artifact-1",
  "contractName": "Bonding",
  "sourceName": "contracts/Bonding.sol",
  "abi": [
    {
      "inputs": [
        {
          "internalType": "address",
          "name": "_manager",
          "type": "address"
        },
        {
          "internalType": "address",
          "name": "_sablier",
          "type": "address"
        }
      ],
      "stateMutability": "nonpayable",
      "type": "constructor"
    },
    {
      "anonymous": false,
      "inputs": [
        {
          "indexed": false,
          "internalType": "uint256",
          "name": "_blockCountInAWeek",
          "type": "uint256"
        }
      ],
      "name": "BlockCountInAWeekUpdated",
      "type": "event"
    },
    {
      "anonymous": false,
      "inputs": [
        {
          "indexed": false,
          "internalType": "uint256",
          "name": "_blockRonding",
          "type": "uint256"
        }
      ],
      "name": "BlockRondingUpdated",
      "type": "event"
    },
    {
      "anonymous": false,
      "inputs": [
        {
          "indexed": false,
          "internalType": "uint256",
          "name": "_bondingDiscountMultiplier",
          "type": "uint256"
        }
      ],
      "name": "BondingDiscountMultiplierUpdated",
      "type": "event"
    },
    {
      "anonymous": false,
      "inputs": [
        {
          "indexed": false,
          "internalType": "address",
          "name": "_to",
          "type": "address"
        },
        {
          "indexed": false,
          "internalType": "address",
          "name": "token",
          "type": "address"
        },
        {
          "indexed": false,
          "internalType": "uint256",
          "name": "amount",
          "type": "uint256"
        }
      ],
      "name": "DustSent",
      "type": "event"
    },
    {
      "anonymous": false,
      "inputs": [
        {
          "indexed": false,
          "internalType": "uint256",
          "name": "_maxBondingPrice",
          "type": "uint256"
        }
      ],
      "name": "MaxBondingPriceUpdated",
      "type": "event"
    },
    {
      "anonymous": false,
      "inputs": [
        {
          "indexed": false,
          "internalType": "address",
          "name": "_token",
          "type": "address"
        }
      ],
      "name": "ProtocolTokenAdded",
      "type": "event"
    },
    {
      "anonymous": false,
      "inputs": [
        {
          "indexed": false,
          "internalType": "address",
          "name": "_token",
          "type": "address"
        }
      ],
      "name": "ProtocolTokenRemoved",
      "type": "event"
    },
    {
      "anonymous": false,
      "inputs": [
        {
          "indexed": false,
          "internalType": "uint256",
          "name": "_redeemStreamTime",
          "type": "uint256"
        }
      ],
      "name": "RedeemStreamTimeUpdated",
      "type": "event"
    },
    {
      "anonymous": false,
      "inputs": [
        {
          "indexed": false,
          "internalType": "address",
          "name": "_sablier",
          "type": "address"
        }
      ],
      "name": "SablierUpdated",
      "type": "event"
    },
    {
      "anonymous": false,
      "inputs": [
        {
          "indexed": false,
          "internalType": "uint256",
          "name": "_uGOVPerBlock",
          "type": "uint256"
        }
      ],
      "name": "UGOVPerBlockUpdated",
      "type": "event"
    },
    {
      "inputs": [],
      "name": "ETH_ADDRESS",
      "outputs": [
        {
          "internalType": "address",
          "name": "",
          "type": "address"
        }
      ],
      "stateMutability": "view",
      "type": "function"
    },
    {
      "inputs": [],
      "name": "ONE",
      "outputs": [
        {
          "internalType": "uint256",
          "name": "",
          "type": "uint256"
        }
      ],
      "stateMutability": "view",
      "type": "function"
    },
    {
      "inputs": [
        {
          "internalType": "address",
          "name": "_token",
          "type": "address"
        }
      ],
      "name": "addProtocolToken",
      "outputs": [],
      "stateMutability": "nonpayable",
      "type": "function"
    },
    {
      "inputs": [],
      "name": "blockCountInAWeek",
      "outputs": [
        {
          "internalType": "uint256",
          "name": "",
          "type": "uint256"
        }
      ],
      "stateMutability": "view",
      "type": "function"
    },
    {
      "inputs": [],
      "name": "blockRonding",
      "outputs": [
        {
          "internalType": "uint256",
          "name": "",
          "type": "uint256"
        }
      ],
      "stateMutability": "view",
      "type": "function"
    },
    {
      "inputs": [],
      "name": "bondingDiscountMultiplier",
      "outputs": [
        {
          "internalType": "uint256",
          "name": "",
          "type": "uint256"
        }
      ],
      "stateMutability": "view",
      "type": "function"
    },
    {
      "inputs": [],
      "name": "currentShareValue",
      "outputs": [
        {
          "internalType": "uint256",
          "name": "priceShare",
          "type": "uint256"
        }
      ],
      "stateMutability": "view",
      "type": "function"
    },
    {
      "inputs": [],
      "name": "currentTokenPrice",
      "outputs": [
        {
          "internalType": "uint256",
          "name": "",
          "type": "uint256"
        }
      ],
      "stateMutability": "view",
      "type": "function"
    },
    {
      "inputs": [],
      "name": "data",
      "outputs": [
        {
          "internalType": "bytes",
          "name": "",
          "type": "bytes"
        }
      ],
      "stateMutability": "view",
      "type": "function"
    },
    {
      "inputs": [
        {
          "internalType": "uint256",
          "name": "_lpsAmount",
          "type": "uint256"
        },
        {
          "internalType": "uint256",
          "name": "_weeks",
          "type": "uint256"
        }
      ],
      "name": "deposit",
      "outputs": [
        {
          "internalType": "uint256",
          "name": "_id",
          "type": "uint256"
        }
      ],
      "stateMutability": "nonpayable",
      "type": "function"
    },
    {
      "inputs": [],
      "name": "manager",
      "outputs": [
        {
          "internalType": "contract UbiquityAlgorithmicDollarManager",
          "name": "",
          "type": "address"
        }
      ],
      "stateMutability": "view",
      "type": "function"
    },
    {
      "inputs": [
        {
          "internalType": "uint256",
          "name": "amount",
          "type": "uint256"
        }
      ],
      "name": "priceReset",
      "outputs": [],
      "stateMutability": "nonpayable",
      "type": "function"
    },
    {
      "inputs": [],
      "name": "redeemStreamTime",
      "outputs": [
        {
          "internalType": "uint256",
          "name": "",
          "type": "uint256"
        }
      ],
      "stateMutability": "view",
      "type": "function"
    },
    {
      "inputs": [
        {
          "internalType": "address",
          "name": "_token",
          "type": "address"
        }
      ],
      "name": "removeProtocolToken",
      "outputs": [],
      "stateMutability": "nonpayable",
      "type": "function"
    },
    {
      "inputs": [],
      "name": "sablier",
      "outputs": [
        {
          "internalType": "contract ISablier",
          "name": "",
          "type": "address"
        }
      ],
      "stateMutability": "view",
      "type": "function"
    },
    {
      "inputs": [
        {
          "internalType": "address",
          "name": "_to",
          "type": "address"
        },
        {
          "internalType": "address",
          "name": "_token",
          "type": "address"
        },
        {
          "internalType": "uint256",
          "name": "_amount",
          "type": "uint256"
        }
      ],
      "name": "sendDust",
      "outputs": [],
      "stateMutability": "nonpayable",
      "type": "function"
    },
    {
      "inputs": [
        {
          "internalType": "uint256",
          "name": "_blockCountInAWeek",
          "type": "uint256"
        }
      ],
      "name": "setBlockCountInAWeek",
      "outputs": [],
      "stateMutability": "nonpayable",
      "type": "function"
    },
    {
      "inputs": [
        {
          "internalType": "uint256",
          "name": "_blockRonding",
          "type": "uint256"
        }
      ],
      "name": "setBlockRonding",
      "outputs": [],
      "stateMutability": "nonpayable",
      "type": "function"
    },
    {
      "inputs": [
        {
          "internalType": "uint256",
          "name": "_bondingDiscountMultiplier",
          "type": "uint256"
        }
      ],
      "name": "setBondingDiscountMultiplier",
      "outputs": [],
      "stateMutability": "nonpayable",
      "type": "function"
    },
    {
      "inputs": [
        {
          "internalType": "uint256",
          "name": "_redeemStreamTime",
          "type": "uint256"
        }
      ],
      "name": "setRedeemStreamTime",
      "outputs": [],
      "stateMutability": "nonpayable",
      "type": "function"
    },
    {
      "inputs": [
        {
          "internalType": "address",
          "name": "_sablier",
          "type": "address"
        }
      ],
      "name": "setSablier",
      "outputs": [],
      "stateMutability": "nonpayable",
      "type": "function"
    },
    {
      "inputs": [
        {
          "internalType": "uint256",
          "name": "_uGOVPerBlock",
          "type": "uint256"
        }
      ],
      "name": "setUGOVPerBlock",
      "outputs": [],
      "stateMutability": "nonpayable",
      "type": "function"
    },
    {
      "inputs": [],
      "name": "uGOVPerBlock",
      "outputs": [
        {
          "internalType": "uint256",
          "name": "",
          "type": "uint256"
        }
      ],
      "stateMutability": "view",
      "type": "function"
    },
    {
      "inputs": [
        {
          "internalType": "uint256",
          "name": "_sharesAmount",
          "type": "uint256"
        },
        {
          "internalType": "uint256",
          "name": "_id",
          "type": "uint256"
        }
      ],
      "name": "withdraw",
      "outputs": [],
      "stateMutability": "nonpayable",
      "type": "function"
    },
    {
      "stateMutability": "payable",
      "type": "receive"
    }
  ],
  "bytecode": "0x60a06040819052600060808190526200001b91600291620000a0565b5066038d7ea4c680006005556201518060065561b131600755606460085560016009553480156200004b57600080fd5b50604051620035d1380380620035d18339810160408190526200006e9162000163565b600380546001600160a01b039384166001600160a01b03199182161790915560048054929093169116179055620001d7565b828054620000ae906200019a565b90600052602060002090601f016020900481019282620000d257600085556200011d565b82601f10620000ed57805160ff19168380011785556200011d565b828001600101855582156200011d579182015b828111156200011d57825182559160200191906001019062000100565b506200012b9291506200012f565b5090565b5b808211156200012b576000815560010162000130565b80516001600160a01b03811681146200015e57600080fd5b919050565b6000806040838503121562000176578182fd5b620001818362000146565b9150620001916020840162000146565b90509250929050565b600181811c90821680620001af57607f821691505b60208210811415620001d157634e487b7160e01b600052602260045260246000fd5b50919050565b6133ea80620001e76000396000f3fe60806040526004361061018f5760003560e01c806390096556116100d6578063c2ee3a081161007f578063fa3305c911610059578063fa3305c914610426578063fb8a70d814610446578063ffd65a491461046657610196565b8063c2ee3a08146103d4578063e2bbb158146103f0578063e8a8fad51461041057610196565b8063aa1ec70a116100b0578063aa1ec70a14610389578063aadc68a51461039f578063bf0d68e4146103b457610196565b80639009655614610321578063a194bcde14610341578063a734f06e1461036157610196565b80636b71f4571161013857806373d4a13a1161011257806373d4a13a146102d35780638039d081146102f55780638f88f38d1461030b57610196565b80636b71f4571461027e57806371b3659e1461029e57806371cc5c0b146102b357610196565b806347e54e381161016957806347e54e38146101fd578063481c6a7514610226578063482879aa1461025e57610196565b80632db8c1291461019b5780632f72589e146101bd578063441a3e70146101dd57610196565b3661019657005b600080fd5b3480156101a757600080fd5b506101bb6101b63660046130cd565b610486565b005b3480156101c957600080fd5b506101bb6101d8366004613145565b6105cf565b3480156101e957600080fd5b506101bb6101f836600461315d565b61073f565b34801561020957600080fd5b5061021360095481565b6040519081526020015b60405180910390f35b34801561023257600080fd5b50600354610246906001600160a01b031681565b6040516001600160a01b03909116815260200161021d565b34801561026a57600080fd5b50600454610246906001600160a01b031681565b34801561028a57600080fd5b506101bb610299366004613145565b610cba565b3480156102aa57600080fd5b50610213610e23565b3480156102bf57600080fd5b506101bb6102ce366004613145565b610fb0565b3480156102df57600080fd5b506102e8611119565b60405161021d919061328c565b34801561030157600080fd5b5061021360085481565b34801561031757600080fd5b5061021360055481565b34801561032d57600080fd5b506101bb61033c366004613095565b6111a7565b34801561034d57600080fd5b506101bb61035c366004613145565b611341565b34801561036d57600080fd5b5061024673eeeeeeeeeeeeeeeeeeeeeeeeeeeeeeeeeeeeeeee81565b34801561039557600080fd5b5061021360075481565b3480156103ab57600080fd5b506102136114aa565b3480156103c057600080fd5b506101bb6103cf366004613095565b6117c4565b3480156103e057600080fd5b50610213670de0b6b3a764000081565b3480156103fc57600080fd5b5061021361040b36600461315d565b611904565b34801561041c57600080fd5b5061021360065481565b34801561043257600080fd5b506101bb610441366004613095565b611c6a565b34801561045257600080fd5b506101bb610461366004613145565b611da7565b34801561047257600080fd5b506101bb610481366004613145565b6123eb565b6003546040805163039b1cd560e61b815290516001600160a01b03909216916391d1485491839163e6c7354091600480820192602092909190829003018186803b1580156104d357600080fd5b505afa1580156104e7573d6000803e3d6000fd5b505050506040513d601f19601f8201168201806040525081019061050b919061312d565b6040516001600160e01b031960e084901b168152600481019190915233602482015260440160206040518083038186803b15801561054857600080fd5b505afa15801561055c573d6000803e3d6000fd5b505050506040513d601f19601f82011682018060405250810190610580919061310d565b6105bf5760405162461bcd60e51b815260206004820152601f60248201526000805160206133be83398151915260448201526064015b60405180910390fd5b6105ca838383612554565b505050565b6003546040805163039b1cd560e61b815290516001600160a01b03909216916391d1485491839163e6c7354091600480820192602092909190829003018186803b15801561061c57600080fd5b505afa158015610630573d6000803e3d6000fd5b505050506040513d601f19601f82011682018060405250810190610654919061312d565b6040516001600160e01b031960e084901b168152600481019190915233602482015260440160206040518083038186803b15801561069157600080fd5b505afa1580156106a5573d6000803e3d6000fd5b505050506040513d601f19601f820116820180604052508101906106c9919061310d565b6107035760405162461bcd60e51b815260206004820152601f60248201526000805160206133be83398151915260448201526064016105b6565b60078190556040518181527f3a1c0b7d3cdecbab83b82697d51cbcdb308b3bbae63e597cbc958deb9c830e50906020015b60405180910390a150565b8043116107b45760405162461bcd60e51b815260206004820152602f60248201527f426f6e64696e673a2052656465656d206e6f7420616c6c6f776564206265666f60448201527f726520626f6e64696e672074696d65000000000000000000000000000000000060648201526084016105b6565b6003546040805163310c7a0f60e21b8152905184926001600160a01b03169163c431e83c916004808301926020929190829003018186803b1580156107f857600080fd5b505afa15801561080c573d6000803e3d6000fd5b505050506040513d601f19601f8201168201806040525081019061083091906130b1565b604051627eeac760e11b8152336004820152602481018490526001600160a01b03919091169062fdd58e9060440160206040518083038186803b15801561087657600080fd5b505afa15801561088a573d6000803e3d6000fd5b505050506040513d601f19601f820116820180604052508101906108ae919061312d565b10156109225760405162461bcd60e51b815260206004820152602b60248201527f426f6e64696e673a2043616c6c657220646f6573206e6f74206861766520656e60448201527f6f7567682073686172657300000000000000000000000000000000000000000060648201526084016105b6565b61092a612705565b600360009054906101000a90046001600160a01b03166001600160a01b031663221e2e606040518163ffffffff1660e01b815260040160206040518083038186803b15801561097857600080fd5b505afa15801561098c573d6000803e3d6000fd5b505050506040513d601f19601f820116820180604052508101906109b091906130b1565b604051627b8a6760e11b8152600481018490523360248201526001600160a01b03919091169062f714ce90604401600060405180830381600087803b1580156109f857600080fd5b505af1158015610a0c573d6000803e3d6000fd5b505050506000610a1a6114aa565b9050600360009054906101000a90046001600160a01b03166001600160a01b031663c431e83c6040518163ffffffff1660e01b815260040160206040518083038186803b158015610a6a57600080fd5b505afa158015610a7e573d6000803e3d6000fd5b505050506040513d601f19601f82011682018060405250810190610aa291906130b1565b604051637a94c56560e11b815233600482015260248101849052604481018590526001600160a01b03919091169063f5298aca90606401600060405180830381600087803b158015610af357600080fd5b505af1158015610b07573d6000803e3d6000fd5b505050506105ca33600360009054906101000a90046001600160a01b03166001600160a01b031663214f78826040518163ffffffff1660e01b815260040160206040518083038186803b158015610b5d57600080fd5b505afa158015610b71573d6000803e3d6000fd5b505050506040513d601f19601f82011682018060405250810190610b9591906130b1565b604051631ab1a8b560e31b81526004810187905260248101859052670de0b6b3a764000060448201526001600160a01b03919091169063d58d45a89060640160206040518083038186803b158015610bec57600080fd5b505afa158015610c00573d6000803e3d6000fd5b505050506040513d601f19601f82011682018060405250810190610c24919061312d565b600360009054906101000a90046001600160a01b03166001600160a01b031663d3815fb96040518163ffffffff1660e01b815260040160206040518083038186803b158015610c7257600080fd5b505afa158015610c86573d6000803e3d6000fd5b505050506040513d601f19601f82011682018060405250810190610caa91906130b1565b6001600160a01b031691906127df565b6003546040805163039b1cd560e61b815290516001600160a01b03909216916391d1485491839163e6c7354091600480820192602092909190829003018186803b158015610d0757600080fd5b505afa158015610d1b573d6000803e3d6000fd5b505050506040513d601f19601f82011682018060405250810190610d3f919061312d565b6040516001600160e01b031960e084901b168152600481019190915233602482015260440160206040518083038186803b158015610d7c57600080fd5b505afa158015610d90573d6000803e3d6000fd5b505050506040513d601f19601f82011682018060405250810190610db4919061310d565b610dee5760405162461bcd60e51b815260206004820152601f60248201526000805160206133be83398151915260448201526064016105b6565b60068190556040518181527f52e79878e695c50b75f241e6e286fa05123b26ab77b631b3d6dbae872718add790602001610734565b60035460408051638fe6368360e01b815290516000926001600160a01b031691638fe63683916004808301926020929190829003018186803b158015610e6857600080fd5b505afa158015610e7c573d6000803e3d6000fd5b505050506040513d601f19601f82011682018060405250810190610ea091906130b1565b6001600160a01b031663283583c6600360009054906101000a90046001600160a01b03166001600160a01b031663bc2ec02f6040518163ffffffff1660e01b815260040160206040518083038186803b158015610efc57600080fd5b505afa158015610f10573d6000803e3d6000fd5b505050506040513d601f19601f82011682018060405250810190610f3491906130b1565b6040516001600160e01b031960e084901b1681526001600160a01b03909116600482015260240160206040518083038186803b158015610f7357600080fd5b505afa158015610f87573d6000803e3d6000fd5b505050506040513d601f19601f82011682018060405250810190610fab919061312d565b905090565b6003546040805163039b1cd560e61b815290516001600160a01b03909216916391d1485491839163e6c7354091600480820192602092909190829003018186803b158015610ffd57600080fd5b505afa158015611011573d6000803e3d6000fd5b505050506040513d601f19601f82011682018060405250810190611035919061312d565b6040516001600160e01b031960e084901b168152600481019190915233602482015260440160206040518083038186803b15801561107257600080fd5b505afa158015611086573d6000803e3d6000fd5b505050506040513d601f19601f820116820180604052508101906110aa919061310d565b6110e45760405162461bcd60e51b815260206004820152601f60248201526000805160206133be83398151915260448201526064016105b6565b60088190556040518181527f3ea14a9ca9078eab3bb86287b1d08190ecdf30412b4f465e05655efca79e18b590602001610734565b600280546111269061332d565b80601f01602080910402602001604051908101604052809291908181526020018280546111529061332d565b801561119f5780601f106111745761010080835404028352916020019161119f565b820191906000526020600020905b81548152906001019060200180831161118257829003601f168201915b505050505081565b6003546040805163039b1cd560e61b815290516001600160a01b03909216916391d1485491839163e6c7354091600480820192602092909190829003018186803b1580156111f457600080fd5b505afa158015611208573d6000803e3d6000fd5b505050506040513d601f19601f8201168201806040525081019061122c919061312d565b6040516001600160e01b031960e084901b168152600481019190915233602482015260440160206040518083038186803b15801561126957600080fd5b505afa15801561127d573d6000803e3d6000fd5b505050506040513d601f19601f820116820180604052508101906112a1919061310d565b6112db5760405162461bcd60e51b815260206004820152601f60248201526000805160206133be83398151915260448201526064016105b6565b600480547fffffffffffffffffffffffff0000000000000000000000000000000000000000166001600160a01b0383169081179091556040519081527fede46239079ed9c62ee2a695104eb8fcdb9fb7b8ad77863caa0641b7e2fa520190602001610734565b6003546040805163039b1cd560e61b815290516001600160a01b03909216916391d1485491839163e6c7354091600480820192602092909190829003018186803b15801561138e57600080fd5b505afa1580156113a2573d6000803e3d6000fd5b505050506040513d601f19601f820116820180604052508101906113c6919061312d565b6040516001600160e01b031960e084901b168152600481019190915233602482015260440160206040518083038186803b15801561140357600080fd5b505afa158015611417573d6000803e3d6000fd5b505050506040513d601f19601f8201168201806040525081019061143b919061310d565b6114755760405162461bcd60e51b815260206004820152601f60248201526000805160206133be83398151915260448201526064016105b6565b60058190556040518181527fd04894175d9fa4e8890c5d32ca8845426912f890c3d8ac5b5a561045892f899590602001610734565b600080600360009054906101000a90046001600160a01b03166001600160a01b031663d3815fb96040518163ffffffff1660e01b815260040160206040518083038186803b1580156114fb57600080fd5b505afa15801561150f573d6000803e3d6000fd5b505050506040513d601f19601f8201168201806040525081019061153391906130b1565b6040516370a0823160e01b81523060048201526001600160a01b0391909116906370a082319060240160206040518083038186803b15801561157457600080fd5b505afa158015611588573d6000803e3d6000fd5b505050506040513d601f19601f820116820180604052508101906115ac919061312d565b90506000600360009054906101000a90046001600160a01b03166001600160a01b031663c431e83c6040518163ffffffff1660e01b815260040160206040518083038186803b1580156115fe57600080fd5b505afa158015611612573d6000803e3d6000fd5b505050506040513d601f19601f8201168201806040525081019061163691906130b1565b6001600160a01b03166318160ddd6040518163ffffffff1660e01b815260040160206040518083038186803b15801561166e57600080fd5b505afa158015611682573d6000803e3d6000fd5b505050506040513d601f19601f820116820180604052508101906116a6919061312d565b9050600360009054906101000a90046001600160a01b03166001600160a01b031663214f78826040518163ffffffff1660e01b815260040160206040518083038186803b1580156116f657600080fd5b505afa15801561170a573d6000803e3d6000fd5b505050506040513d601f19601f8201168201806040525081019061172e91906130b1565b60405163cd32420960e01b81526004810184905260248101839052670de0b6b3a764000060448201526001600160a01b03919091169063cd3242099060640160206040518083038186803b15801561178557600080fd5b505afa158015611799573d6000803e3d6000fd5b505050506040513d601f19601f820116820180604052508101906117bd919061312d565b9250505090565b6003546040805163039b1cd560e61b815290516001600160a01b03909216916391d1485491839163e6c7354091600480820192602092909190829003018186803b15801561181157600080fd5b505afa158015611825573d6000803e3d6000fd5b505050506040513d601f19601f82011682018060405250810190611849919061312d565b6040516001600160e01b031960e084901b168152600481019190915233602482015260440160206040518083038186803b15801561188657600080fd5b505afa15801561189a573d6000803e3d6000fd5b505050506040513d601f19601f820116820180604052508101906118be919061310d565b6118f85760405162461bcd60e51b815260206004820152601f60248201526000805160206133be83398151915260448201526064016105b6565b61190181612857565b50565b600081600111158015611918575060d08211155b61198a5760405162461bcd60e51b815260206004820152603160248201527f426f6e64696e673a206475726174696f6e206d7573742062652062657477656560448201527f6e203120616e6420323038207765656b7300000000000000000000000000000060648201526084016105b6565b611992612705565b611a2f333085600360009054906101000a90046001600160a01b03166001600160a01b031663d3815fb96040518163ffffffff1660e01b815260040160206040518083038186803b1580156119e657600080fd5b505afa1580156119fa573d6000803e3d6000fd5b505050506040513d601f19601f82011682018060405250810190611a1e91906130b1565b6001600160a01b0316929190612919565b600354604080516310a7bc4160e11b815290516000926001600160a01b03169163214f7882916004808301926020929190829003018186803b158015611a7457600080fd5b505afa158015611a88573d6000803e3d6000fd5b505050506040513d601f19601f82011682018060405250810190611aac91906130b1565b60055460405163016cdd2960e61b8152600481018790526024810186905260448101919091526001600160a01b039190911690635b374a409060640160206040518083038186803b158015611b0057600080fd5b505afa158015611b14573d6000803e3d6000fd5b505050506040513d601f19601f82011682018060405250810190611b38919061312d565b9050600060075484611b4a91906132cb565b611b54904361329f565b905060085481611b649190613368565b611b6e90826132ea565b9250611b7a8284612951565b600360009054906101000a90046001600160a01b03166001600160a01b031663221e2e606040518163ffffffff1660e01b815260040160206040518083038186803b158015611bc857600080fd5b505afa158015611bdc573d6000803e3d6000fd5b505050506040513d601f19601f82011682018060405250810190611c0091906130b1565b604051636e553f6560e01b8152600481018490523360248201526001600160a01b039190911690636e553f6590604401600060405180830381600087803b158015611c4a57600080fd5b505af1158015611c5e573d6000803e3d6000fd5b50505050505092915050565b6003546040805163039b1cd560e61b815290516001600160a01b03909216916391d1485491839163e6c7354091600480820192602092909190829003018186803b158015611cb757600080fd5b505afa158015611ccb573d6000803e3d6000fd5b505050506040513d601f19601f82011682018060405250810190611cef919061312d565b6040516001600160e01b031960e084901b168152600481019190915233602482015260440160206040518083038186803b158015611d2c57600080fd5b505afa158015611d40573d6000803e3d6000fd5b505050506040513d601f19601f82011682018060405250810190611d64919061310d565b611d9e5760405162461bcd60e51b815260206004820152601f60248201526000805160206133be83398151915260448201526064016105b6565b61190181612a88565b6003546040805163039b1cd560e61b815290516001600160a01b03909216916391d1485491839163e6c7354091600480820192602092909190829003018186803b158015611df457600080fd5b505afa158015611e08573d6000803e3d6000fd5b505050506040513d601f19601f82011682018060405250810190611e2c919061312d565b6040516001600160e01b031960e084901b168152600481019190915233602482015260440160206040518083038186803b158015611e6957600080fd5b505afa158015611e7d573d6000803e3d6000fd5b505050506040513d601f19601f82011682018060405250810190611ea1919061310d565b611edb5760405162461bcd60e51b815260206004820152601f60248201526000805160206133be83398151915260448201526064016105b6565b6003546040805163d3815fb960e01b815290516000926001600160a01b03169163d3815fb9916004808301926020929190829003018186803b158015611f2057600080fd5b505afa158015611f34573d6000803e3d6000fd5b505050506040513d601f19601f82011682018060405250810190611f5891906130b1565b9050611ff53083600360009054906101000a90046001600160a01b03166001600160a01b031663d3815fb96040518163ffffffff1660e01b815260040160206040518083038186803b158015611fad57600080fd5b505afa158015611fc1573d6000803e3d6000fd5b505050506040513d601f19601f82011682018060405250810190611fe591906130b1565b6001600160a01b03169190612b3d565b60405163cc2b27d760e01b815260048101839052600060248201819052906064906001600160a01b0384169063cc2b27d79060440160206040518083038186803b15801561204257600080fd5b505afa158015612056573d6000803e3d6000fd5b505050506040513d601f19601f8201168201806040525081019061207a919061312d565b6120859060636132cb565b61208f91906132b7565b604051630d2680e960e11b81526004810185905260006024820152604481018290529091506001600160a01b03831690631a4d01d290606401602060405180830381600087803b1580156120e257600080fd5b505af11580156120f6573d6000803e3d6000fd5b505050506040513d601f19601f8201168201806040525081019061211a919061312d565b50600360009054906101000a90046001600160a01b03166001600160a01b0316638fe636836040518163ffffffff1660e01b815260040160206040518083038186803b15801561216957600080fd5b505afa15801561217d573d6000803e3d6000fd5b505050506040513d601f19601f820116820180604052508101906121a191906130b1565b6001600160a01b031663a2e620456040518163ffffffff1660e01b8152600401600060405180830381600087803b1580156121db57600080fd5b505af11580156121ef573d6000803e3d6000fd5b50505050600360009054906101000a90046001600160a01b03166001600160a01b031663bc2ec02f6040518163ffffffff1660e01b815260040160206040518083038186803b15801561224157600080fd5b505afa158015612255573d6000803e3d6000fd5b505050506040513d601f19601f8201168201806040525081019061227991906130b1565b6001600160a01b03166379cc679030600360009054906101000a90046001600160a01b03166001600160a01b031663bc2ec02f6040518163ffffffff1660e01b815260040160206040518083038186803b1580156122d657600080fd5b505afa1580156122ea573d6000803e3d6000fd5b505050506040513d601f19601f8201168201806040525081019061230e91906130b1565b6040516370a0823160e01b81523060048201526001600160a01b0391909116906370a082319060240160206040518083038186803b15801561234f57600080fd5b505afa158015612363573d6000803e3d6000fd5b505050506040513d601f19601f82011682018060405250810190612387919061312d565b6040516001600160e01b031960e085901b1681526001600160a01b03909216600483015260248201526044015b600060405180830381600087803b1580156123ce57600080fd5b505af11580156123e2573d6000803e3d6000fd5b50505050505050565b6003546040805163039b1cd560e61b815290516001600160a01b03909216916391d1485491839163e6c7354091600480820192602092909190829003018186803b15801561243857600080fd5b505afa15801561244c573d6000803e3d6000fd5b505050506040513d601f19601f82011682018060405250810190612470919061312d565b6040516001600160e01b031960e084901b168152600481019190915233602482015260440160206040518083038186803b1580156124ad57600080fd5b505afa1580156124c1573d6000803e3d6000fd5b505050506040513d601f19601f820116820180604052508101906124e5919061310d565b61251f5760405162461bcd60e51b815260206004820152601f60248201526000805160206133be83398151915260448201526064016105b6565b60098190556040518181527f291233015412afe6d80870385b5c5eaa1bd28ef79ce03048c75522fa8ac77f2190602001610734565b6001600160a01b0383166125d05760405162461bcd60e51b815260206004820152603060248201527f636f6c6c65637461626c652d647573743a3a63616e742d73656e642d6475737460448201527f2d746f2d7a65726f2d616464726573730000000000000000000000000000000060648201526084016105b6565b6125db600083612c68565b156126405760405162461bcd60e51b815260206004820152602f60248201527f636f6c6c65637461626c652d647573743a3a746f6b656e2d69732d706172742d60448201526e1bd98b5d1a194b5c1c9bdd1bd8dbdb608a1b60648201526084016105b6565b6001600160a01b03821673eeeeeeeeeeeeeeeeeeeeeeeeeeeeeeeeeeeeeeee14156126a1576040516001600160a01b0384169082156108fc029083906000818181858888f1935050505015801561269b573d6000803e3d6000fd5b506126b5565b6126b56001600160a01b03831684836127df565b604080516001600160a01b038086168252841660208201529081018290527f1e34c1aee8e83c2dcc14c21bb4bfeea7f46c0c998cb797ac7cc4d7a18f5c656b9060600160405180910390a1505050565b600360009054906101000a90046001600160a01b03166001600160a01b0316638fe636836040518163ffffffff1660e01b815260040160206040518083038186803b15801561275357600080fd5b505afa158015612767573d6000803e3d6000fd5b505050506040513d601f19601f8201168201806040525081019061278b91906130b1565b6001600160a01b031663a2e620456040518163ffffffff1660e01b8152600401600060405180830381600087803b1580156127c557600080fd5b505af11580156127d9573d6000803e3d6000fd5b50505050565b6040516001600160a01b0383166024820152604481018290526105ca90849063a9059cbb60e01b906064015b60408051601f198184030181529190526020810180517bffffffffffffffffffffffffffffffffffffffffffffffffffffffff166001600160e01b031990931692909217909152612c8f565b612862600082612c68565b6128d45760405162461bcd60e51b815260206004820152603060248201527f636f6c6c65637461626c652d647573743a3a746f6b656e2d6e6f742d7061727460448201527f2d6f662d7468652d70726f746f636f6c0000000000000000000000000000000060648201526084016105b6565b6128df600082612d74565b506040516001600160a01b03821681527fddd12a8c3ce9bea5c97a5d25c8b777caab85752828f56b7b8ad5a0b30340a25f90602001610734565b6040516001600160a01b03808516602483015283166044820152606481018290526127d99085906323b872dd60e01b9060840161280b565b600061295b6114aa565b9050806129d05760405162461bcd60e51b815260206004820152602660248201527f426f6e64696e673a2053686172652056616c75652073686f756c64206e6f742060448201527f6265206e756c000000000000000000000000000000000000000000000000000060648201526084016105b6565b600360009054906101000a90046001600160a01b03166001600160a01b031663c431e83c6040518163ffffffff1660e01b815260040160206040518083038186803b158015612a1e57600080fd5b505afa158015612a32573d6000803e3d6000fd5b505050506040513d601f19601f82011682018060405250810190612a5691906130b1565b6001600160a01b031663731133e933848660026040518563ffffffff1660e01b81526004016123b494939291906131c6565b612a93600082612c68565b15612af85760405162461bcd60e51b815260206004820152602f60248201527f636f6c6c65637461626c652d647573743a3a746f6b656e2d69732d706172742d60448201526e1bd98b5d1a194b5c1c9bdd1bd8dbdb608a1b60648201526084016105b6565b612b03600082612d89565b506040516001600160a01b03821681527fa3e4ba856dd0fdee3a33ab9b82499fd01f05236f3d08cc4e7108698c6e3e7e5090602001610734565b801580612bc65750604051636eb1769f60e11b81523060048201526001600160a01b03838116602483015284169063dd62ed3e9060440160206040518083038186803b158015612b8c57600080fd5b505afa158015612ba0573d6000803e3d6000fd5b505050506040513d601f19601f82011682018060405250810190612bc4919061312d565b155b612c385760405162461bcd60e51b815260206004820152603660248201527f5361666545524332303a20617070726f76652066726f6d206e6f6e2d7a65726f60448201527f20746f206e6f6e2d7a65726f20616c6c6f77616e63650000000000000000000060648201526084016105b6565b6040516001600160a01b0383166024820152604481018290526105ca90849063095ea7b360e01b9060640161280b565b6001600160a01b038116600090815260018301602052604081205415155b90505b92915050565b6000612ce4826040518060400160405280602081526020017f5361666545524332303a206c6f772d6c6576656c2063616c6c206661696c6564815250856001600160a01b0316612d9e9092919063ffffffff16565b8051909150156105ca5780806020019051810190612d02919061310d565b6105ca5760405162461bcd60e51b815260206004820152602a60248201527f5361666545524332303a204552433230206f7065726174696f6e20646964206e60448201527f6f7420737563636565640000000000000000000000000000000000000000000060648201526084016105b6565b6000612c86836001600160a01b038416612db7565b6000612c86836001600160a01b038416612ece565b6060612dad8484600085612f1d565b90505b9392505050565b60008181526001830160205260408120548015612ec4576000612ddb6001836132ea565b8554909150600090612def906001906132ea565b90506000866000018281548110612e1657634e487b7160e01b600052603260045260246000fd5b9060005260206000200154905080876000018481548110612e4757634e487b7160e01b600052603260045260246000fd5b600091825260208083209091019290925582815260018901909152604090208490558654879080612e8857634e487b7160e01b600052603160045260246000fd5b60019003818190600052602060002001600090559055866001016000878152602001908152602001600020600090556001945050505050612c89565b6000915050612c89565b6000818152600183016020526040812054612f1557508154600181810184556000848152602080822090930184905584548482528286019093526040902091909155612c89565b506000612c89565b606082471015612f955760405162461bcd60e51b815260206004820152602660248201527f416464726573733a20696e73756666696369656e742062616c616e636520666f60448201527f722063616c6c000000000000000000000000000000000000000000000000000060648201526084016105b6565b843b612fe35760405162461bcd60e51b815260206004820152601d60248201527f416464726573733a2063616c6c20746f206e6f6e2d636f6e747261637400000060448201526064016105b6565b600080866001600160a01b03168587604051612fff91906131aa565b60006040518083038185875af1925050503d806000811461303c576040519150601f19603f3d011682016040523d82523d6000602084013e613041565b606091505b509150915061305182828661305c565b979650505050505050565b6060831561306b575081612db0565b82511561307b5782518084602001fd5b8160405162461bcd60e51b81526004016105b6919061328c565b6000602082840312156130a6578081fd5b8135612db0816133a8565b6000602082840312156130c2578081fd5b8151612db0816133a8565b6000806000606084860312156130e1578182fd5b83356130ec816133a8565b925060208401356130fc816133a8565b929592945050506040919091013590565b60006020828403121561311e578081fd5b81518015158114612db0578182fd5b60006020828403121561313e578081fd5b5051919050565b600060208284031215613156578081fd5b5035919050565b6000806040838503121561316f578182fd5b50508035926020909101359150565b60008151808452613196816020860160208601613301565b601f01601f19169290920160200192915050565b600082516131bc818460208701613301565b9190910192915050565b60006001600160a01b0386168252602085818401528460408401526080606084015281845483600182811c91508083168061320257607f831692505b85831081141561322057634e487b7160e01b87526022600452602487fd5b6080880183905260a0880181801561323f57600181146132505761327a565b60ff1986168252878201965061327a565b60008b815260209020895b868110156132745781548482015290850190890161325b565b83019750505b50949c9b505050505050505050505050565b600060208252612c86602083018461317e565b600082198211156132b2576132b261337c565b500190565b6000826132c6576132c6613392565b500490565b60008160001904831182151516156132e5576132e561337c565b500290565b6000828210156132fc576132fc61337c565b500390565b60005b8381101561331c578181015183820152602001613304565b838111156127d95750506000910152565b600181811c9082168061334157607f821691505b6020821081141561336257634e487b7160e01b600052602260045260246000fd5b50919050565b60008261337757613377613392565b500690565b634e487b7160e01b600052601160045260246000fd5b634e487b7160e01b600052601260045260246000fd5b6001600160a01b038116811461190157600080fdfe43616c6c6572206973206e6f74206120626f6e64696e67206d616e6167657200a164736f6c6343000803000a",
  "linkReferences": {},
  "deployedLinkReferences": {}
}