{
  "abi": [
    {
      "inputs": [
        {
          "internalType": "contract UbiquityAlgorithmicDollarManager",
          "name": "_manager",
          "type": "address"
        },
        {
          "internalType": "uint256",
          "name": "_ubqPerBlock",
          "type": "uint256"
        },
        {
          "internalType": "uint256",
          "name": "_startBlock",
          "type": "uint256"
        },
        {
          "internalType": "uint256",
          "name": "_bonusEndBlock",
          "type": "uint256"
        }
      ],
      "stateMutability": "nonpayable",
      "type": "constructor"
    },
    {
      "anonymous": false,
      "inputs": [
        {
          "indexed": true,
          "internalType": "address",
          "name": "user",
          "type": "address"
        },
        {
          "indexed": true,
          "internalType": "uint256",
          "name": "pid",
          "type": "uint256"
        },
        {
          "indexed": false,
          "internalType": "uint256",
          "name": "amount",
          "type": "uint256"
        }
      ],
      "name": "Deposit",
      "type": "event"
    },
    {
      "anonymous": false,
      "inputs": [
        {
          "indexed": true,
          "internalType": "address",
          "name": "user",
          "type": "address"
        },
        {
          "indexed": true,
          "internalType": "uint256",
          "name": "pid",
          "type": "uint256"
        },
        {
          "indexed": false,
          "internalType": "uint256",
          "name": "amount",
          "type": "uint256"
        }
      ],
      "name": "EmergencyWithdraw",
      "type": "event"
    },
    {
      "anonymous": false,
      "inputs": [
        {
          "indexed": true,
          "internalType": "address",
          "name": "previousOwner",
          "type": "address"
        },
        {
          "indexed": true,
          "internalType": "address",
          "name": "newOwner",
          "type": "address"
        }
      ],
      "name": "OwnershipTransferred",
      "type": "event"
    },
    {
      "anonymous": false,
      "inputs": [
        {
          "indexed": true,
          "internalType": "address",
          "name": "user",
          "type": "address"
        },
        {
          "indexed": true,
          "internalType": "uint256",
          "name": "pid",
          "type": "uint256"
        },
        {
          "indexed": false,
          "internalType": "uint256",
          "name": "amount",
          "type": "uint256"
        }
      ],
      "name": "Withdraw",
      "type": "event"
    },
    {
      "inputs": [],
      "name": "BONUS_MULTIPLIER",
      "outputs": [
        {
          "internalType": "uint256",
          "name": "",
          "type": "uint256"
        }
      ],
      "stateMutability": "view",
      "type": "function"
    },
    {
      "inputs": [
        {
          "internalType": "uint256",
          "name": "_allocPoint",
          "type": "uint256"
        },
        {
          "internalType": "contract IERC20",
          "name": "_lpToken",
          "type": "address"
        },
        {
          "internalType": "bool",
          "name": "_withUpdate",
          "type": "bool"
        }
      ],
      "name": "add",
      "outputs": [],
      "stateMutability": "nonpayable",
      "type": "function"
    },
    {
      "inputs": [],
      "name": "bonusEndBlock",
      "outputs": [
        {
          "internalType": "uint256",
          "name": "",
          "type": "uint256"
        }
      ],
      "stateMutability": "view",
      "type": "function"
    },
    {
      "inputs": [
        {
          "internalType": "uint256",
          "name": "_pid",
          "type": "uint256"
        },
        {
          "internalType": "uint256",
          "name": "_amount",
          "type": "uint256"
        }
      ],
      "name": "deposit",
      "outputs": [],
      "stateMutability": "nonpayable",
      "type": "function"
    },
    {
      "inputs": [
        {
          "internalType": "uint256",
          "name": "_pid",
          "type": "uint256"
        }
      ],
      "name": "emergencyWithdraw",
      "outputs": [],
      "stateMutability": "nonpayable",
      "type": "function"
    },
    {
      "inputs": [
        {
          "internalType": "uint256",
          "name": "_from",
          "type": "uint256"
        },
        {
          "internalType": "uint256",
          "name": "_to",
          "type": "uint256"
        }
      ],
      "name": "getMultiplier",
      "outputs": [
        {
          "internalType": "uint256",
          "name": "",
          "type": "uint256"
        }
      ],
      "stateMutability": "view",
      "type": "function"
    },
    {
      "inputs": [],
      "name": "manager",
      "outputs": [
        {
          "internalType": "contract UbiquityAlgorithmicDollarManager",
          "name": "",
          "type": "address"
        }
      ],
      "stateMutability": "view",
      "type": "function"
    },
    {
      "inputs": [],
      "name": "massUpdatePools",
      "outputs": [],
      "stateMutability": "nonpayable",
      "type": "function"
    },
    {
      "inputs": [],
      "name": "owner",
      "outputs": [
        {
          "internalType": "address",
          "name": "",
          "type": "address"
        }
      ],
      "stateMutability": "view",
      "type": "function"
    },
    {
      "inputs": [
        {
          "internalType": "uint256",
          "name": "_pid",
          "type": "uint256"
        },
        {
          "internalType": "address",
          "name": "_user",
          "type": "address"
        }
      ],
      "name": "pendingUBQ",
      "outputs": [
        {
          "internalType": "uint256",
          "name": "",
          "type": "uint256"
        }
      ],
      "stateMutability": "view",
      "type": "function"
    },
    {
      "inputs": [
        {
          "internalType": "uint256",
          "name": "",
          "type": "uint256"
        }
      ],
      "name": "poolInfo",
      "outputs": [
        {
          "internalType": "contract IERC20",
          "name": "lpToken",
          "type": "address"
        },
        {
          "internalType": "uint256",
          "name": "allocPoint",
          "type": "uint256"
        },
        {
          "internalType": "uint256",
          "name": "lastRewardBlock",
          "type": "uint256"
        },
        {
          "internalType": "uint256",
          "name": "accUbqPerShare",
          "type": "uint256"
        }
      ],
      "stateMutability": "view",
      "type": "function"
    },
    {
      "inputs": [],
      "name": "poolLength",
      "outputs": [
        {
          "internalType": "uint256",
          "name": "",
          "type": "uint256"
        }
      ],
      "stateMutability": "view",
      "type": "function"
    },
    {
      "inputs": [],
      "name": "renounceOwnership",
      "outputs": [],
      "stateMutability": "nonpayable",
      "type": "function"
    },
    {
      "inputs": [
        {
          "internalType": "uint256",
          "name": "_pid",
          "type": "uint256"
        },
        {
          "internalType": "uint256",
          "name": "_allocPoint",
          "type": "uint256"
        },
        {
          "internalType": "bool",
          "name": "_withUpdate",
          "type": "bool"
        }
      ],
      "name": "set",
      "outputs": [],
      "stateMutability": "nonpayable",
      "type": "function"
    },
    {
      "inputs": [
        {
          "internalType": "uint256",
          "name": "_ubqPerBlock",
          "type": "uint256"
        }
      ],
      "name": "setUBQPerBlock",
      "outputs": [],
      "stateMutability": "nonpayable",
      "type": "function"
    },
    {
      "inputs": [
        {
          "internalType": "uint256",
          "name": "_uGOVDivider",
          "type": "uint256"
        }
      ],
      "name": "setUGOVShareForTreasury",
      "outputs": [],
      "stateMutability": "nonpayable",
      "type": "function"
    },
    {
      "inputs": [],
      "name": "startBlock",
      "outputs": [
        {
          "internalType": "uint256",
          "name": "",
          "type": "uint256"
        }
      ],
      "stateMutability": "view",
      "type": "function"
    },
    {
      "inputs": [],
      "name": "totalAllocPoint",
      "outputs": [
        {
          "internalType": "uint256",
          "name": "",
          "type": "uint256"
        }
      ],
      "stateMutability": "view",
      "type": "function"
    },
    {
      "inputs": [
        {
          "internalType": "address",
          "name": "newOwner",
          "type": "address"
        }
      ],
      "name": "transferOwnership",
      "outputs": [],
      "stateMutability": "nonpayable",
      "type": "function"
    },
    {
      "inputs": [],
      "name": "uGOVDivider",
      "outputs": [
        {
          "internalType": "uint256",
          "name": "",
          "type": "uint256"
        }
      ],
      "stateMutability": "view",
      "type": "function"
    },
    {
      "inputs": [],
      "name": "ubqPerBlock",
      "outputs": [
        {
          "internalType": "uint256",
          "name": "",
          "type": "uint256"
        }
      ],
      "stateMutability": "view",
      "type": "function"
    },
    {
      "inputs": [
        {
          "internalType": "uint256",
          "name": "_pid",
          "type": "uint256"
        }
      ],
      "name": "updatePool",
      "outputs": [],
      "stateMutability": "nonpayable",
      "type": "function"
    },
    {
      "inputs": [
        {
          "internalType": "uint256",
          "name": "",
          "type": "uint256"
        },
        {
          "internalType": "address",
          "name": "",
          "type": "address"
        }
      ],
      "name": "userInfo",
      "outputs": [
        {
          "internalType": "uint256",
          "name": "amount",
          "type": "uint256"
        },
        {
          "internalType": "uint256",
          "name": "rewardDebt",
          "type": "uint256"
        }
      ],
      "stateMutability": "view",
      "type": "function"
    },
    {
      "inputs": [
        {
          "internalType": "uint256",
          "name": "_pid",
          "type": "uint256"
        },
        {
          "internalType": "uint256",
          "name": "_amount",
          "type": "uint256"
        }
      ],
      "name": "withdraw",
      "outputs": [],
      "stateMutability": "nonpayable",
      "type": "function"
    }
  ],
  "bytecode": {
    "object": "0x608060405260006007553480156200001657600080fd5b5060405162001fa438038062001fa48339810160408190526200003991620000cf565b62000044336200007f565b600180546001600160a01b0319166001600160a01b03959095169490941790935560039190915560029190915560085560056004556200011c565b600080546001600160a01b038381166001600160a01b0319831681178455604051919092169283917f8be0079c531659141344cd1fd0a4f28419497f9722a3daafe3b4186f6b6457e09190a35050565b60008060008060808587031215620000e657600080fd5b84516001600160a01b0381168114620000fe57600080fd5b60208601516040870151606090970151919890975090945092505050565b611e78806200012c6000396000f3fe608060405234801561001057600080fd5b50600436106101985760003560e01c8063715018a6116100e357806393f1a40b1161008c578063e2bbb15811610066578063e2bbb15814610391578063ecc38471146103a4578063f2fde38b146103ad57600080fd5b806393f1a40b14610324578063a5a643de1461036b578063d61f45381461037e57600080fd5b80638aa28550116100bd5780638aa28550146102eb5780638da5cb5b146102f35780638dbb1e3a1461031157600080fd5b8063715018a6146102c75780637e7d09ca146102cf57806389c80b6b146102d857600080fd5b8063481c6a75116101455780635312ea8e1161011f5780635312ea8e14610299578063630b5ba1146102ac57806364482f79146102b457600080fd5b8063481c6a751461023857806348cd4cb11461027d57806351eb05a61461028657600080fd5b80631aed6553116101765780631aed6553146102075780631eaaa04514610210578063441a3e701461022557600080fd5b8063081e3eda1461019d5780631526fe27146101b457806317caf6f1146101fe575b600080fd5b6005545b6040519081526020015b60405180910390f35b6101c76101c2366004611ae9565b6103c0565b6040805173ffffffffffffffffffffffffffffffffffffffff909516855260208501939093529183015260608201526080016101ab565b6101a160075481565b6101a160025481565b61022361021e366004611b32565b610411565b005b610223610233366004611b74565b610561565b6001546102589073ffffffffffffffffffffffffffffffffffffffff1681565b60405173ffffffffffffffffffffffffffffffffffffffff90911681526020016101ab565b6101a160085481565b610223610294366004611ae9565b6106ee565b6102236102a7366004611ae9565b610b68565b610223610c17565b6102236102c2366004611b96565b610c42565b610223610cc9565b6101a160045481565b6102236102e6366004611ae9565b610cdd565b6101a1600a81565b60005473ffffffffffffffffffffffffffffffffffffffff16610258565b6101a161031f366004611b74565b610e80565b610356610332366004611bc4565b60066020908152600092835260408084209091529082529020805460019091015482565b604080519283526020830191909152016101ab565b610223610379366004611ae9565b610ef2565b6101a161038c366004611bc4565b611095565b61022361039f366004611b74565b61123a565b6101a160035481565b6102236103bb366004611bf4565b611360565b600581815481106103d057600080fd5b6000918252602090912060049091020180546001820154600283015460039093015473ffffffffffffffffffffffffffffffffffffffff9092169350919084565b610419611417565b801561042757610427610c17565b6000600854431161043a5760085461043c565b435b90508360075461044c9190611c47565b6007556040805160808101825273ffffffffffffffffffffffffffffffffffffffff94851681526020810195865290810191825260006060820181815260058054600181018255925291517f036b6384b5eca791c62761152d0c79bb0604c104a5fb6f4eb0703f3154bb3db0600490920291820180547fffffffffffffffffffffffff000000000000000000000000000000000000000016919096161790945593517f036b6384b5eca791c62761152d0c79bb0604c104a5fb6f4eb0703f3154bb3db1840155517f036b6384b5eca791c62761152d0c79bb0604c104a5fb6f4eb0703f3154bb3db28301555090517f036b6384b5eca791c62761152d0c79bb0604c104a5fb6f4eb0703f3154bb3db390910155565b60006005838154811061057657610576611c5f565b60009182526020808320868452600682526040808520338652909252922080546004909202909201925083111561060e576040517f08c379a000000000000000000000000000000000000000000000000000000000815260206004820152601260248201527f77697468647261773a206e6f7420676f6f64000000000000000000000000000060448201526064015b60405180910390fd5b610617846106ee565b6000816001015464e8d4a51000846003015484600001546106389190611c8e565b6106429190611ccb565b61064c9190611d06565b90506106583382611498565b8154610665908590611d06565b808355600384015464e8d4a510009161067e9190611c8e565b6106889190611ccb565b600183015582546106b09073ffffffffffffffffffffffffffffffffffffffff163386611635565b604051848152859033907ff279e6a1f5e320cca91135676d9cb6e44ca8a08c0b88342bcdb1144f6511b5689060200160405180910390a35050505050565b60006005828154811061070357610703611c5f565b9060005260206000209060040201905080600201544311610722575050565b80546040517f70a0823100000000000000000000000000000000000000000000000000000000815230600482015260009173ffffffffffffffffffffffffffffffffffffffff16906370a082319060240160206040518083038186803b15801561078b57600080fd5b505afa15801561079f573d6000803e3d6000fd5b505050506040513d601f19601f820116820180604052508101906107c39190611d1d565b9050806107d557504360029091015550565b60006107e5836002015443610e80565b905060006007548460010154600354846107ff9190611c8e565b6108099190611c8e565b6108139190611ccb565b9050600160009054906101000a900473ffffffffffffffffffffffffffffffffffffffff1673ffffffffffffffffffffffffffffffffffffffff1663b42165d06040518163ffffffff1660e01b815260040160206040518083038186803b15801561087d57600080fd5b505afa158015610891573d6000803e3d6000fd5b505050506040513d601f19601f820116820180604052508101906108b59190611d36565b73ffffffffffffffffffffffffffffffffffffffff166340c10f19600160009054906101000a900473ffffffffffffffffffffffffffffffffffffffff1673ffffffffffffffffffffffffffffffffffffffff1663c5f956af6040518163ffffffff1660e01b815260040160206040518083038186803b15801561093857600080fd5b505afa15801561094c573d6000803e3d6000fd5b505050506040513d601f19601f820116820180604052508101906109709190611d36565b60045461097d9085611ccb565b6040517fffffffff0000000000000000000000000000000000000000000000000000000060e085901b16815273ffffffffffffffffffffffffffffffffffffffff90921660048301526024820152604401600060405180830381600087803b1580156109e857600080fd5b505af11580156109fc573d6000803e3d6000fd5b50505050600160009054906101000a900473ffffffffffffffffffffffffffffffffffffffff1673ffffffffffffffffffffffffffffffffffffffff1663b42165d06040518163ffffffff1660e01b815260040160206040518083038186803b158015610a6857600080fd5b505afa158015610a7c573d6000803e3d6000fd5b505050506040513d601f19601f82011682018060405250810190610aa09190611d36565b6040517f40c10f190000000000000000000000000000000000000000000000000000000081523060048201526024810183905273ffffffffffffffffffffffffffffffffffffffff91909116906340c10f1990604401600060405180830381600087803b158015610b1057600080fd5b505af1158015610b24573d6000803e3d6000fd5b50505050828164e8d4a51000610b3a9190611c8e565b610b449190611ccb565b8460030154610b539190611c47565b60038501555050436002909201919091555050565b600060058281548110610b7d57610b7d611c5f565b60009182526020808320858452600682526040808520338087529352909320805460049093029093018054909450610bcf9273ffffffffffffffffffffffffffffffffffffffff919091169190611635565b8054604051908152839033907fbb757047c2b5f3974fe26b7c10f732e7bce710b0952a71082702781e62ae05959060200160405180910390a360008082556001909101555050565b60055460005b81811015610c3e57610c2e816106ee565b610c3781611d53565b9050610c1d565b5050565b610c4a611417565b8015610c5857610c58610c17565b8160058481548110610c6c57610c6c611c5f565b906000526020600020906004020160010154600754610c8b9190611d06565b610c959190611c47565b6007819055508160058481548110610caf57610caf611c5f565b906000526020600020906004020160010181905550505050565b610cd1611417565b610cdb600061170e565b565b600154604080517f3b4d9773000000000000000000000000000000000000000000000000000000008152905173ffffffffffffffffffffffffffffffffffffffff909216916391d14854918391633b4d977391600480820192602092909190829003018186803b158015610d5057600080fd5b505afa158015610d64573d6000803e3d6000fd5b505050506040513d601f19601f82011682018060405250810190610d889190611d1d565b6040517fffffffff0000000000000000000000000000000000000000000000000000000060e084901b168152600481019190915233602482015260440160206040518083038186803b158015610ddd57600080fd5b505afa158015610df1573d6000803e3d6000fd5b505050506040513d601f19601f82011682018060405250810190610e159190611d8c565b610e7b576040517f08c379a000000000000000000000000000000000000000000000000000000000815260206004820152601b60248201527f4d6173746572436865663a206e6f7420554251206d616e6167657200000000006044820152606401610605565b600455565b60006002548211610ea857600a610e978484611d06565b610ea19190611c8e565b9050610eec565b6002548310610ebb57610ea18383611d06565b600254610ec89083611d06565b600a84600254610ed89190611d06565b610ee29190611c8e565b610ea19190611c47565b92915050565b600154604080517f3b4d9773000000000000000000000000000000000000000000000000000000008152905173ffffffffffffffffffffffffffffffffffffffff909216916391d14854918391633b4d977391600480820192602092909190829003018186803b158015610f6557600080fd5b505afa158015610f79573d6000803e3d6000fd5b505050506040513d601f19601f82011682018060405250810190610f9d9190611d1d565b6040517fffffffff0000000000000000000000000000000000000000000000000000000060e084901b168152600481019190915233602482015260440160206040518083038186803b158015610ff257600080fd5b505afa158015611006573d6000803e3d6000fd5b505050506040513d601f19601f8201168201806040525081019061102a9190611d8c565b611090576040517f08c379a000000000000000000000000000000000000000000000000000000000815260206004820152601b60248201527f4d6173746572436865663a206e6f7420554251206d616e6167657200000000006044820152606401610605565b600355565b600080600584815481106110ab576110ab611c5f565b6000918252602080832087845260068252604080852073ffffffffffffffffffffffffffffffffffffffff8981168752935280852060049485029092016003810154815492517f70a08231000000000000000000000000000000000000000000000000000000008152309681019690965290965091949193919216906370a082319060240160206040518083038186803b15801561114857600080fd5b505afa15801561115c573d6000803e3d6000fd5b505050506040513d601f19601f820116820180604052508101906111809190611d1d565b905083600201544311801561119457508015155b156112025760006111a9856002015443610e80565b905060006007548660010154600354846111c39190611c8e565b6111cd9190611c8e565b6111d79190611ccb565b9050826111e98264e8d4a51000611c8e565b6111f39190611ccb565b6111fd9085611c47565b935050505b6001830154835464e8d4a510009061121b908590611c8e565b6112259190611ccb565b61122f9190611d06565b979650505050505050565b60006005838154811061124f5761124f611c5f565b60009182526020808320868452600682526040808520338652909252922060049091029091019150611280846106ee565b8054156112ca576000816001015464e8d4a51000846003015484600001546112a89190611c8e565b6112b29190611ccb565b6112bc9190611d06565b90506112c83382611498565b505b81546112ee9073ffffffffffffffffffffffffffffffffffffffff16333086611783565b80546112fb908490611c47565b808255600383015464e8d4a51000916113149190611c8e565b61131e9190611ccb565b6001820155604051838152849033907f90890809c654f11d6e72a28fa60149770a0d11ec6c92319d6ceb2bb0a4ea1a159060200160405180910390a350505050565b611368611417565b73ffffffffffffffffffffffffffffffffffffffff811661140b576040517f08c379a000000000000000000000000000000000000000000000000000000000815260206004820152602660248201527f4f776e61626c653a206e6577206f776e657220697320746865207a65726f206160448201527f64647265737300000000000000000000000000000000000000000000000000006064820152608401610605565b6114148161170e565b50565b60005473ffffffffffffffffffffffffffffffffffffffff163314610cdb576040517f08c379a000000000000000000000000000000000000000000000000000000000815260206004820181905260248201527f4f776e61626c653a2063616c6c6572206973206e6f7420746865206f776e65726044820152606401610605565b600154604080517fb42165d0000000000000000000000000000000000000000000000000000000008152905160009273ffffffffffffffffffffffffffffffffffffffff169163b42165d0916004808301926020929190829003018186803b15801561150357600080fd5b505afa158015611517573d6000803e3d6000fd5b505050506040513d601f19601f8201168201806040525081019061153b9190611d36565b6040517f70a0823100000000000000000000000000000000000000000000000000000000815230600482015290915060009073ffffffffffffffffffffffffffffffffffffffff8316906370a082319060240160206040518083038186803b1580156115a657600080fd5b505afa1580156115ba573d6000803e3d6000fd5b505050506040513d601f19601f820116820180604052508101906115de9190611d1d565b90508083111561160e5761160973ffffffffffffffffffffffffffffffffffffffff83168583611635565b61162f565b61162f73ffffffffffffffffffffffffffffffffffffffff83168585611635565b50505050565b60405173ffffffffffffffffffffffffffffffffffffffff83166024820152604481018290526117099084907fa9059cbb00000000000000000000000000000000000000000000000000000000906064015b604080517fffffffffffffffffffffffffffffffffffffffffffffffffffffffffffffffe08184030181529190526020810180517bffffffffffffffffffffffffffffffffffffffffffffffffffffffff167fffffffff00000000000000000000000000000000000000000000000000000000909316929092179091526117e1565b505050565b6000805473ffffffffffffffffffffffffffffffffffffffff8381167fffffffffffffffffffffffff0000000000000000000000000000000000000000831681178455604051919092169283917f8be0079c531659141344cd1fd0a4f28419497f9722a3daafe3b4186f6b6457e09190a35050565b60405173ffffffffffffffffffffffffffffffffffffffff8085166024830152831660448201526064810182905261162f9085907f23b872dd0000000000000000000000000000000000000000000000000000000090608401611687565b6000611843826040518060400160405280602081526020017f5361666545524332303a206c6f772d6c6576656c2063616c6c206661696c65648152508573ffffffffffffffffffffffffffffffffffffffff166118ed9092919063ffffffff16565b80519091501561170957808060200190518101906118619190611d8c565b611709576040517f08c379a000000000000000000000000000000000000000000000000000000000815260206004820152602a60248201527f5361666545524332303a204552433230206f7065726174696f6e20646964206e60448201527f6f742073756363656564000000000000000000000000000000000000000000006064820152608401610605565b60606118fc8484600085611904565b949350505050565b606082471015611996576040517f08c379a000000000000000000000000000000000000000000000000000000000815260206004820152602660248201527f416464726573733a20696e73756666696369656e742062616c616e636520666f60448201527f722063616c6c00000000000000000000000000000000000000000000000000006064820152608401610605565b6000808673ffffffffffffffffffffffffffffffffffffffff1685876040516119bf9190611dd5565b60006040518083038185875af1925050503d80600081146119fc576040519150601f19603f3d011682016040523d82523d6000602084013e611a01565b606091505b509150915061122f8783838760608315611aa0578251611a995773ffffffffffffffffffffffffffffffffffffffff85163b611a99576040517f08c379a000000000000000000000000000000000000000000000000000000000815260206004820152601d60248201527f416464726573733a2063616c6c20746f206e6f6e2d636f6e74726163740000006044820152606401610605565b50816118fc565b6118fc8383815115611ab55781518083602001fd5b806040517f08c379a00000000000000000000000000000000000000000000000000000000081526004016106059190611df1565b600060208284031215611afb57600080fd5b5035919050565b73ffffffffffffffffffffffffffffffffffffffff8116811461141457600080fd5b801515811461141457600080fd5b600080600060608486031215611b4757600080fd5b833592506020840135611b5981611b02565b91506040840135611b6981611b24565b809150509250925092565b60008060408385031215611b8757600080fd5b50508035926020909101359150565b600080600060608486031215611bab57600080fd5b83359250602084013591506040840135611b6981611b24565b60008060408385031215611bd757600080fd5b823591506020830135611be981611b02565b809150509250929050565b600060208284031215611c0657600080fd5b8135611c1181611b02565b9392505050565b7f4e487b7100000000000000000000000000000000000000000000000000000000600052601160045260246000fd5b60008219821115611c5a57611c5a611c18565b500190565b7f4e487b7100000000000000000000000000000000000000000000000000000000600052603260045260246000fd5b6000817fffffffffffffffffffffffffffffffffffffffffffffffffffffffffffffffff0483118215151615611cc657611cc6611c18565b500290565b600082611d01577f4e487b7100000000000000000000000000000000000000000000000000000000600052601260045260246000fd5b500490565b600082821015611d1857611d18611c18565b500390565b600060208284031215611d2f57600080fd5b5051919050565b600060208284031215611d4857600080fd5b8151611c1181611b02565b60007fffffffffffffffffffffffffffffffffffffffffffffffffffffffffffffffff821415611d8557611d85611c18565b5060010190565b600060208284031215611d9e57600080fd5b8151611c1181611b24565b60005b83811015611dc4578181015183820152602001611dac565b8381111561162f5750506000910152565b60008251611de7818460208701611da9565b9190910192915050565b6020815260008251806020840152611e10816040850160208701611da9565b601f017fffffffffffffffffffffffffffffffffffffffffffffffffffffffffffffffe016919091016040019291505056fea26469706673582212205337ae3814df48bb7237e65f0c9e1f47562c4a7da5d96eb23e900b43373323ec64736f6c63430008090033",
    "linkReferences": {}
  },
  "methodIdentifiers": {
    "BONUS_MULTIPLIER()": "8aa28550",
    "add(uint256,address,bool)": "1eaaa045",
    "bonusEndBlock()": "1aed6553",
    "deposit(uint256,uint256)": "e2bbb158",
    "emergencyWithdraw(uint256)": "5312ea8e",
    "getMultiplier(uint256,uint256)": "8dbb1e3a",
    "manager()": "481c6a75",
    "massUpdatePools()": "630b5ba1",
    "owner()": "8da5cb5b",
    "pendingUBQ(uint256,address)": "d61f4538",
    "poolInfo(uint256)": "1526fe27",
    "poolLength()": "081e3eda",
    "renounceOwnership()": "715018a6",
    "set(uint256,uint256,bool)": "64482f79",
    "setUBQPerBlock(uint256)": "a5a643de",
    "setUGOVShareForTreasury(uint256)": "89c80b6b",
    "startBlock()": "48cd4cb1",
    "totalAllocPoint()": "17caf6f1",
    "transferOwnership(address)": "f2fde38b",
    "uGOVDivider()": "7e7d09ca",
    "ubqPerBlock()": "ecc38471",
    "updatePool(uint256)": "51eb05a6",
    "userInfo(uint256,address)": "93f1a40b",
    "withdraw(uint256,uint256)": "441a3e70"
  },
  "id": 52
}