{
  "abi": [
    {
      "inputs": [
        {
          "internalType": "address",
          "name": "_manager",
          "type": "address"
        }
      ],
      "stateMutability": "nonpayable",
      "type": "constructor"
    },
    {
      "anonymous": false,
      "inputs": [
        {
          "indexed": true,
          "internalType": "address",
          "name": "user",
          "type": "address"
        },
        {
          "indexed": false,
          "internalType": "uint256",
          "name": "amount",
          "type": "uint256"
        }
      ],
      "name": "Deposit",
      "type": "event"
    },
    {
      "anonymous": false,
      "inputs": [
        {
          "indexed": true,
          "internalType": "address",
          "name": "user",
          "type": "address"
        },
        {
          "indexed": false,
          "internalType": "uint256",
          "name": "amount",
          "type": "uint256"
        }
      ],
      "name": "Withdraw",
      "type": "event"
    },
    {
      "inputs": [
        {
          "internalType": "uint256",
          "name": "_amount",
          "type": "uint256"
        },
        {
          "internalType": "address",
          "name": "sender",
          "type": "address"
        }
      ],
      "name": "deposit",
      "outputs": [],
      "stateMutability": "nonpayable",
      "type": "function"
    },
    {
      "inputs": [],
      "name": "getRewards",
      "outputs": [
        {
          "internalType": "uint256",
          "name": "",
          "type": "uint256"
        }
      ],
      "stateMutability": "nonpayable",
      "type": "function"
    },
    {
      "inputs": [],
      "name": "lastPrice",
      "outputs": [
        {
          "internalType": "uint256",
          "name": "",
          "type": "uint256"
        }
      ],
      "stateMutability": "view",
      "type": "function"
    },
    {
      "inputs": [],
      "name": "manager",
      "outputs": [
        {
          "internalType": "contract UbiquityAlgorithmicDollarManager",
          "name": "",
          "type": "address"
        }
      ],
      "stateMutability": "view",
      "type": "function"
    },
    {
      "inputs": [],
      "name": "minPriceDiffToUpdateMultiplier",
      "outputs": [
        {
          "internalType": "uint256",
          "name": "",
          "type": "uint256"
        }
      ],
      "stateMutability": "view",
      "type": "function"
    },
    {
      "inputs": [
        {
          "internalType": "address",
          "name": "_user",
          "type": "address"
        }
      ],
      "name": "pendingUGOV",
      "outputs": [
        {
          "internalType": "uint256",
          "name": "",
          "type": "uint256"
        }
      ],
      "stateMutability": "view",
      "type": "function"
    },
    {
      "inputs": [],
      "name": "pool",
      "outputs": [
        {
          "internalType": "uint256",
          "name": "lastRewardBlock",
          "type": "uint256"
        },
        {
          "internalType": "uint256",
          "name": "accuGOVPerShare",
          "type": "uint256"
        }
      ],
      "stateMutability": "view",
      "type": "function"
    },
    {
      "inputs": [
        {
          "internalType": "uint256",
          "name": "_minPriceDiffToUpdateMultiplier",
          "type": "uint256"
        }
      ],
      "name": "setMinPriceDiffToUpdateMultiplier",
      "outputs": [],
      "stateMutability": "nonpayable",
      "type": "function"
    },
    {
      "inputs": [
        {
          "internalType": "uint256",
          "name": "_uGOVPerBlock",
          "type": "uint256"
        }
      ],
      "name": "setUGOVPerBlock",
      "outputs": [],
      "stateMutability": "nonpayable",
      "type": "function"
    },
    {
      "inputs": [],
      "name": "uGOVPerBlock",
      "outputs": [
        {
          "internalType": "uint256",
          "name": "",
          "type": "uint256"
        }
      ],
      "stateMutability": "view",
      "type": "function"
    },
    {
      "inputs": [],
      "name": "uGOVmultiplier",
      "outputs": [
        {
          "internalType": "uint256",
          "name": "",
          "type": "uint256"
        }
      ],
      "stateMutability": "view",
      "type": "function"
    },
    {
      "inputs": [
        {
          "internalType": "address",
          "name": "",
          "type": "address"
        }
      ],
      "name": "userInfo",
      "outputs": [
        {
          "internalType": "uint256",
          "name": "amount",
          "type": "uint256"
        },
        {
          "internalType": "uint256",
          "name": "rewardDebt",
          "type": "uint256"
        }
      ],
      "stateMutability": "view",
      "type": "function"
    },
    {
      "inputs": [
        {
          "internalType": "uint256",
          "name": "_amount",
          "type": "uint256"
        },
        {
          "internalType": "address",
          "name": "sender",
          "type": "address"
        }
      ],
      "name": "withdraw",
      "outputs": [],
      "stateMutability": "nonpayable",
      "type": "function"
    }
  ],
  "bytecode": {
    "object": "0x6080604052670de0b6b3a7640000600155670de0b6b3a764000060025566038d7ea4c68000600355670de0b6b3a76400006004553480156200004057600080fd5b50604051620020cd380380620020cd8339810160408190526200006391620003ad565b600080546001600160a01b0319166001600160a01b038316178155436005556006556200008f62000096565b506200041f565b6000620000a26200020c565b90506000600454821115620000cc57600354600454620000c39084620003df565b119050620000e3565b60035482600454620000df9190620003df565b1190505b8015620002085760008054906101000a90046001600160a01b03166001600160a01b031663214f78826040518163ffffffff1660e01b815260040160206040518083038186803b1580156200013757600080fd5b505afa1580156200014c573d6000803e3d6000fd5b505050506040513d601f19601f82011682018060405250810190620001729190620003ad565b6001600160a01b031663794e955c600254846040518363ffffffff1660e01b8152600401620001ab929190918252602082015260400190565b60206040518083038186803b158015620001c457600080fd5b505afa158015620001d9573d6000803e3d6000fd5b505050506040513d601f19601f82011682018060405250810190620001ff919062000405565b60025560048290555b5050565b60008060009054906101000a90046001600160a01b03166001600160a01b0316638fe636836040518163ffffffff1660e01b815260040160206040518083038186803b1580156200025c57600080fd5b505afa15801562000271573d6000803e3d6000fd5b505050506040513d601f19601f82011682018060405250810190620002979190620003ad565b6001600160a01b031663283583c660008054906101000a90046001600160a01b03166001600160a01b031663bc3ea0186040518163ffffffff1660e01b815260040160206040518083038186803b158015620002f257600080fd5b505afa15801562000307573d6000803e3d6000fd5b505050506040513d601f19601f820116820180604052508101906200032d9190620003ad565b6040516001600160e01b031960e084901b1681526001600160a01b03909116600482015260240160206040518083038186803b1580156200036d57600080fd5b505afa15801562000382573d6000803e3d6000fd5b505050506040513d601f19601f82011682018060405250810190620003a8919062000405565b905090565b600060208284031215620003c057600080fd5b81516001600160a01b0381168114620003d857600080fd5b9392505050565b6000828210156200040057634e487b7160e01b600052601160045260246000fd5b500390565b6000602082840312156200041857600080fd5b5051919050565b611c9e806200042f6000396000f3fe608060405234801561001057600080fd5b50600436106100de5760003560e01c8063219339331161008c5780636e553f65116100665780636e553f65146101c657806378b3139b146101d9578063f22b1ded146101ec578063ffd65a49146101ff57600080fd5b8063219339331461016f57806347e54e3814610178578063481c6a751461018157600080fd5b806316f0115b116100bd57806316f0115b1461011c5780631959a0021461013f5780631aeb2d091461016657600080fd5b8062f714ce146100e3578063053f14da146100f85780630572b0cc14610114575b600080fd5b6100f66100f1366004611a34565b610212565b005b61010160045481565b6040519081526020015b60405180910390f35b6101016104a4565b60055460065461012a919082565b6040805192835260208301919091520161010b565b61012a61014d366004611a64565b6007602052600090815260409020805460019091015482565b61010160025481565b61010160035481565b61010160015481565b6000546101a19073ffffffffffffffffffffffffffffffffffffffff1681565b60405173ffffffffffffffffffffffffffffffffffffffff909116815260200161010b565b6100f66101d4366004611a34565b610527565b6100f66101e7366004611a88565b610751565b6101016101fa366004611a64565b6108f4565b6100f661020d366004611a88565b610ad3565b60008054906101000a900473ffffffffffffffffffffffffffffffffffffffff1673ffffffffffffffffffffffffffffffffffffffff1663de71c1db6040518163ffffffff1660e01b815260040160206040518083038186803b15801561027857600080fd5b505afa15801561028c573d6000803e3d6000fd5b505050506040513d601f19601f820116820180604052508101906102b09190611aa1565b73ffffffffffffffffffffffffffffffffffffffff163373ffffffffffffffffffffffffffffffffffffffff1614610349576040517f08c379a000000000000000000000000000000000000000000000000000000000815260206004820181905260248201527f4d6173746572436865663a206e6f7420426f6e64696e6720436f6e747261637460448201526064015b60405180910390fd5b73ffffffffffffffffffffffffffffffffffffffff8116600090815260076020526040902080548311156103d9576040517f08c379a000000000000000000000000000000000000000000000000000000000815260206004820152601360248201527f4d433a20616d6f756e7420746f6f2068696768000000000000000000000000006044820152606401610340565b6103e1610c76565b600181015460065482546000929164e8d4a51000916104009190611aed565b61040a9190611b2a565b6104149190611b65565b90506104208382611126565b815461042d908590611b65565b80835560065464e8d4a51000916104449190611aed565b61044e9190611b2a565b600183015560405184815273ffffffffffffffffffffffffffffffffffffffff8416907f884edad9ce6fa2440d8a54cc123490eb96d2768479d49ff9c7366125a94243649060200160405180910390a250505050565b3360009081526007602052604081206104bb610c76565b600181015460065482546000929164e8d4a51000916104da9190611aed565b6104e49190611b2a565b6104ee9190611b65565b90506104fa3382611126565b600654825464e8d4a510009161050f91611aed565b6105199190611b2a565b600190920191909155919050565b60008054906101000a900473ffffffffffffffffffffffffffffffffffffffff1673ffffffffffffffffffffffffffffffffffffffff1663de71c1db6040518163ffffffff1660e01b815260040160206040518083038186803b15801561058d57600080fd5b505afa1580156105a1573d6000803e3d6000fd5b505050506040513d601f19601f820116820180604052508101906105c59190611aa1565b73ffffffffffffffffffffffffffffffffffffffff163373ffffffffffffffffffffffffffffffffffffffff1614610659576040517f08c379a000000000000000000000000000000000000000000000000000000000815260206004820181905260248201527f4d6173746572436865663a206e6f7420426f6e64696e6720436f6e74726163746044820152606401610340565b73ffffffffffffffffffffffffffffffffffffffff81166000908152600760205260409020610686610c76565b8054156106ce57600181015460065482546000929164e8d4a51000916106ac9190611aed565b6106b69190611b2a565b6106c09190611b65565b90506106cc8382611126565b505b80546106db908490611b7c565b80825560065464e8d4a51000916106f29190611aed565b6106fc9190611b2a565b600182015560405183815273ffffffffffffffffffffffffffffffffffffffff8316907fe1fffcc4923d04b559f4d29a8bfc6cda04eb5b0d3c460751c2402c5c5cc9109c9060200160405180910390a2505050565b600054604080517f3b4d9773000000000000000000000000000000000000000000000000000000008152905173ffffffffffffffffffffffffffffffffffffffff909216916391d14854918391633b4d977391600480820192602092909190829003018186803b1580156107c457600080fd5b505afa1580156107d8573d6000803e3d6000fd5b505050506040513d601f19601f820116820180604052508101906107fc9190611b94565b6040517fffffffff0000000000000000000000000000000000000000000000000000000060e084901b168152600481019190915233602482015260440160206040518083038186803b15801561085157600080fd5b505afa158015610865573d6000803e3d6000fd5b505050506040513d601f19601f820116820180604052508101906108899190611bad565b6108ef576040517f08c379a000000000000000000000000000000000000000000000000000000000815260206004820152601b60248201527f4d6173746572436865663a206e6f7420554251206d616e6167657200000000006044820152606401610340565b600355565b73ffffffffffffffffffffffffffffffffffffffff8082166000908152600760209081526040808320600654845483517fc431e83c00000000000000000000000000000000000000000000000000000000815293519596929591948794919093169263c431e83c92600480840193829003018186803b15801561097657600080fd5b505afa15801561098a573d6000803e3d6000fd5b505050506040513d601f19601f820116820180604052508101906109ae9190611aa1565b73ffffffffffffffffffffffffffffffffffffffff166318160ddd6040518163ffffffff1660e01b815260040160206040518083038186803b1580156109f357600080fd5b505afa158015610a07573d6000803e3d6000fd5b505050506040513d601f19601f82011682018060405250810190610a2b9190611b94565b60055490915043118015610a3e57508015155b15610a9d576000610a4d6112c1565b90506000670de0b6b3a764000060015483610a689190611aed565b610a729190611b2a565b905082610a848264e8d4a51000611aed565b610a8e9190611b2a565b610a989085611b7c565b935050505b6001830154835464e8d4a5100090610ab6908590611aed565b610ac09190611b2a565b610aca9190611b65565b95945050505050565b600054604080517f3b4d9773000000000000000000000000000000000000000000000000000000008152905173ffffffffffffffffffffffffffffffffffffffff909216916391d14854918391633b4d977391600480820192602092909190829003018186803b158015610b4657600080fd5b505afa158015610b5a573d6000803e3d6000fd5b505050506040513d601f19601f82011682018060405250810190610b7e9190611b94565b6040517fffffffff0000000000000000000000000000000000000000000000000000000060e084901b168152600481019190915233602482015260440160206040518083038186803b158015610bd357600080fd5b505afa158015610be7573d6000803e3d6000fd5b505050506040513d601f19601f82011682018060405250810190610c0b9190611bad565b610c71576040517f08c379a000000000000000000000000000000000000000000000000000000000815260206004820152601b60248201527f4d6173746572436865663a206e6f7420554251206d616e6167657200000000006044820152606401610340565b600155565b6005544311610c8157565b610c896112e4565b60008060009054906101000a900473ffffffffffffffffffffffffffffffffffffffff1673ffffffffffffffffffffffffffffffffffffffff1663c431e83c6040518163ffffffff1660e01b815260040160206040518083038186803b158015610cf257600080fd5b505afa158015610d06573d6000803e3d6000fd5b505050506040513d601f19601f82011682018060405250810190610d2a9190611aa1565b73ffffffffffffffffffffffffffffffffffffffff166318160ddd6040518163ffffffff1660e01b815260040160206040518083038186803b158015610d6f57600080fd5b505afa158015610d83573d6000803e3d6000fd5b505050506040513d601f19601f82011682018060405250810190610da79190611b94565b905080610db5575043600555565b6000610dbf6112c1565b90506000670de0b6b3a764000060015483610dda9190611aed565b610de49190611b2a565b905060008054906101000a900473ffffffffffffffffffffffffffffffffffffffff1673ffffffffffffffffffffffffffffffffffffffff1663b42165d06040518163ffffffff1660e01b815260040160206040518083038186803b158015610e4c57600080fd5b505afa158015610e60573d6000803e3d6000fd5b505050506040513d601f19601f82011682018060405250810190610e849190611aa1565b6040517f40c10f190000000000000000000000000000000000000000000000000000000081523060048201526024810183905273ffffffffffffffffffffffffffffffffffffffff91909116906340c10f1990604401600060405180830381600087803b158015610ef457600080fd5b505af1158015610f08573d6000803e3d6000fd5b5050505060008054906101000a900473ffffffffffffffffffffffffffffffffffffffff1673ffffffffffffffffffffffffffffffffffffffff1663b42165d06040518163ffffffff1660e01b815260040160206040518083038186803b158015610f7257600080fd5b505afa158015610f86573d6000803e3d6000fd5b505050506040513d601f19601f82011682018060405250810190610faa9190611aa1565b73ffffffffffffffffffffffffffffffffffffffff166340c10f1960008054906101000a900473ffffffffffffffffffffffffffffffffffffffff1673ffffffffffffffffffffffffffffffffffffffff1663c5f956af6040518163ffffffff1660e01b815260040160206040518083038186803b15801561102b57600080fd5b505afa15801561103f573d6000803e3d6000fd5b505050506040513d601f19601f820116820180604052508101906110639190611aa1565b61106e600585611b2a565b6040517fffffffff0000000000000000000000000000000000000000000000000000000060e085901b16815273ffffffffffffffffffffffffffffffffffffffff90921660048301526024820152604401600060405180830381600087803b1580156110d957600080fd5b505af11580156110ed573d6000803e3d6000fd5b50505050828164e8d4a510006111039190611aed565b61110d9190611b2a565b60065461111a9190611b7c565b60065550504360055550565b60008060009054906101000a900473ffffffffffffffffffffffffffffffffffffffff1673ffffffffffffffffffffffffffffffffffffffff1663b42165d06040518163ffffffff1660e01b815260040160206040518083038186803b15801561118f57600080fd5b505afa1580156111a3573d6000803e3d6000fd5b505050506040513d601f19601f820116820180604052508101906111c79190611aa1565b6040517f70a0823100000000000000000000000000000000000000000000000000000000815230600482015290915060009073ffffffffffffffffffffffffffffffffffffffff8316906370a082319060240160206040518083038186803b15801561123257600080fd5b505afa158015611246573d6000803e3d6000fd5b505050506040513d601f19601f8201168201806040525081019061126a9190611b94565b90508083111561129a5761129573ffffffffffffffffffffffffffffffffffffffff8316858361146f565b6112bb565b6112bb73ffffffffffffffffffffffffffffffffffffffff8316858561146f565b50505050565b600254600554600091906112d59043611b65565b6112df9190611aed565b905090565b60006112ee611501565b905060006004548211156113145760035460045461130c9084611b65565b119050611329565b600354826004546113259190611b65565b1190505b801561146b5760008054906101000a900473ffffffffffffffffffffffffffffffffffffffff1673ffffffffffffffffffffffffffffffffffffffff1663214f78826040518163ffffffff1660e01b815260040160206040518083038186803b15801561139557600080fd5b505afa1580156113a9573d6000803e3d6000fd5b505050506040513d601f19601f820116820180604052508101906113cd9190611aa1565b73ffffffffffffffffffffffffffffffffffffffff1663794e955c600254846040518363ffffffff1660e01b8152600401611412929190918252602082015260400190565b60206040518083038186803b15801561142a57600080fd5b505afa15801561143e573d6000803e3d6000fd5b505050506040513d601f19601f820116820180604052508101906114629190611b94565b60025560048290555b5050565b6040805173ffffffffffffffffffffffffffffffffffffffff8416602482015260448082018490528251808303909101815260649091019091526020810180517bffffffffffffffffffffffffffffffffffffffffffffffffffffffff167fa9059cbb000000000000000000000000000000000000000000000000000000001790526114fc9084906116f7565b505050565b60008060009054906101000a900473ffffffffffffffffffffffffffffffffffffffff1673ffffffffffffffffffffffffffffffffffffffff16638fe636836040518163ffffffff1660e01b815260040160206040518083038186803b15801561156a57600080fd5b505afa15801561157e573d6000803e3d6000fd5b505050506040513d601f19601f820116820180604052508101906115a29190611aa1565b73ffffffffffffffffffffffffffffffffffffffff1663283583c660008054906101000a900473ffffffffffffffffffffffffffffffffffffffff1673ffffffffffffffffffffffffffffffffffffffff1663bc3ea0186040518163ffffffff1660e01b815260040160206040518083038186803b15801561162357600080fd5b505afa158015611637573d6000803e3d6000fd5b505050506040513d601f19601f8201168201806040525081019061165b9190611aa1565b6040517fffffffff0000000000000000000000000000000000000000000000000000000060e084901b16815273ffffffffffffffffffffffffffffffffffffffff909116600482015260240160206040518083038186803b1580156116bf57600080fd5b505afa1580156116d3573d6000803e3d6000fd5b505050506040513d601f19601f820116820180604052508101906112df9190611b94565b6000611759826040518060400160405280602081526020017f5361666545524332303a206c6f772d6c6576656c2063616c6c206661696c65648152508573ffffffffffffffffffffffffffffffffffffffff166118039092919063ffffffff16565b8051909150156114fc57808060200190518101906117779190611bad565b6114fc576040517f08c379a000000000000000000000000000000000000000000000000000000000815260206004820152602a60248201527f5361666545524332303a204552433230206f7065726174696f6e20646964206e60448201527f6f742073756363656564000000000000000000000000000000000000000000006064820152608401610340565b6060611812848460008561181a565b949350505050565b6060824710156118ac576040517f08c379a000000000000000000000000000000000000000000000000000000000815260206004820152602660248201527f416464726573733a20696e73756666696369656e742062616c616e636520666f60448201527f722063616c6c00000000000000000000000000000000000000000000000000006064820152608401610340565b6000808673ffffffffffffffffffffffffffffffffffffffff1685876040516118d59190611bfb565b60006040518083038185875af1925050503d8060008114611912576040519150601f19603f3d011682016040523d82523d6000602084013e611917565b606091505b509150915061192887838387611933565b979650505050505050565b606083156119c65782516119bf5773ffffffffffffffffffffffffffffffffffffffff85163b6119bf576040517f08c379a000000000000000000000000000000000000000000000000000000000815260206004820152601d60248201527f416464726573733a2063616c6c20746f206e6f6e2d636f6e74726163740000006044820152606401610340565b5081611812565b61181283838151156119db5781518083602001fd5b806040517f08c379a00000000000000000000000000000000000000000000000000000000081526004016103409190611c17565b73ffffffffffffffffffffffffffffffffffffffff81168114611a3157600080fd5b50565b60008060408385031215611a4757600080fd5b823591506020830135611a5981611a0f565b809150509250929050565b600060208284031215611a7657600080fd5b8135611a8181611a0f565b9392505050565b600060208284031215611a9a57600080fd5b5035919050565b600060208284031215611ab357600080fd5b8151611a8181611a0f565b7f4e487b7100000000000000000000000000000000000000000000000000000000600052601160045260246000fd5b6000817fffffffffffffffffffffffffffffffffffffffffffffffffffffffffffffffff0483118215151615611b2557611b25611abe565b500290565b600082611b60577f4e487b7100000000000000000000000000000000000000000000000000000000600052601260045260246000fd5b500490565b600082821015611b7757611b77611abe565b500390565b60008219821115611b8f57611b8f611abe565b500190565b600060208284031215611ba657600080fd5b5051919050565b600060208284031215611bbf57600080fd5b81518015158114611a8157600080fd5b60005b83811015611bea578181015183820152602001611bd2565b838111156112bb5750506000910152565b60008251611c0d818460208701611bcf565b9190910192915050565b6020815260008251806020840152611c36816040850160208701611bcf565b601f017fffffffffffffffffffffffffffffffffffffffffffffffffffffffffffffffe016919091016040019291505056fea26469706673582212206dbff2a177aaf9f53781c364714838d1b76119984fc15f79c259e2c3dbc73e8164736f6c63430008090033",
    "linkReferences": {}
  },
  "methodIdentifiers": {
    "deposit(uint256,address)": "6e553f65",
    "getRewards()": "0572b0cc",
    "lastPrice()": "053f14da",
    "manager()": "481c6a75",
    "minPriceDiffToUpdateMultiplier()": "21933933",
    "pendingUGOV(address)": "f22b1ded",
    "pool()": "16f0115b",
    "setMinPriceDiffToUpdateMultiplier(uint256)": "78b3139b",
    "setUGOVPerBlock(uint256)": "ffd65a49",
    "uGOVPerBlock()": "47e54e38",
    "uGOVmultiplier()": "1aeb2d09",
    "userInfo(address)": "1959a002",
    "withdraw(uint256,address)": "00f714ce"
  },
  "id": 51
}