{
  "abi": [
    {
      "inputs": [
        {
          "internalType": "address",
          "name": "_manager",
          "type": "address"
        }
      ],
      "stateMutability": "nonpayable",
      "type": "constructor"
    },
    {
      "inputs": [
        {
          "internalType": "uint256",
          "name": "dollarsToBurn",
          "type": "uint256"
        }
      ],
      "name": "getCouponAmount",
      "outputs": [
        {
          "internalType": "uint256",
          "name": "",
          "type": "uint256"
        }
      ],
      "stateMutability": "view",
      "type": "function"
    },
    {
      "inputs": [],
      "name": "manager",
      "outputs": [
        {
          "internalType": "contract UbiquityAlgorithmicDollarManager",
          "name": "",
          "type": "address"
        }
      ],
      "stateMutability": "view",
      "type": "function"
    }
  ],
  "bytecode": {
    "object": "0x608060405234801561001057600080fd5b5060405161186738038061186783398101604081905261002f91610054565b600080546001600160a01b0319166001600160a01b0392909216919091179055610084565b60006020828403121561006657600080fd5b81516001600160a01b038116811461007d57600080fd5b9392505050565b6117d4806100936000396000f3fe608060405234801561001057600080fd5b50600436106100365760003560e01c8063481c6a751461003b5780639172dd2314610085575b600080fd5b60005461005b9073ffffffffffffffffffffffffffffffffffffffff1681565b60405173ffffffffffffffffffffffffffffffffffffffff90911681526020015b60405180910390f35b6100986100933660046116d8565b6100a6565b60405190815260200161007c565b60008060009054906101000a900473ffffffffffffffffffffffffffffffffffffffff1673ffffffffffffffffffffffffffffffffffffffff1663bc3ea0186040518163ffffffff1660e01b815260040160206040518083038186803b15801561010f57600080fd5b505afa158015610123573d6000803e3d6000fd5b505050506040513d601f19601f8201168201806040525081019061014791906116f1565b73ffffffffffffffffffffffffffffffffffffffff166318160ddd6040518163ffffffff1660e01b815260040160206040518083038186803b15801561018c57600080fd5b505afa1580156101a0573d6000803e3d6000fd5b505050506040513d601f19601f820116820180604052508101906101c49190611727565b60008054906101000a900473ffffffffffffffffffffffffffffffffffffffff1673ffffffffffffffffffffffffffffffffffffffff166356593ea36040518163ffffffff1660e01b815260040160206040518083038186803b15801561022a57600080fd5b505afa15801561023e573d6000803e3d6000fd5b505050506040513d601f19601f8201168201806040525081019061026291906116f1565b73ffffffffffffffffffffffffffffffffffffffff1663db87b1ff6040518163ffffffff1660e01b815260040160206040518083038186803b1580156102a757600080fd5b505afa1580156102bb573d6000803e3d6000fd5b505050506040513d601f19601f820116820180604052508101906102df9190611727565b1061034a576040517f08c379a000000000000000000000000000000000000000000000000000000000815260206004820152601f60248201527f436f75706f6e20746f20646f6c6c61723a20444542545f544f4f5f4849474800604482015260640160405180910390fd5b600061035660016106b6565b9050600061047d60008054906101000a900473ffffffffffffffffffffffffffffffffffffffff1673ffffffffffffffffffffffffffffffffffffffff166356593ea36040518163ffffffff1660e01b815260040160206040518083038186803b1580156103c357600080fd5b505afa1580156103d7573d6000803e3d6000fd5b505050506040513d601f19601f820116820180604052508101906103fb91906116f1565b73ffffffffffffffffffffffffffffffffffffffff1663db87b1ff6040518163ffffffff1660e01b815260040160206040518083038186803b15801561044057600080fd5b505afa158015610454573d6000803e3d6000fd5b505050506040513d601f19601f820116820180604052508101906104789190611727565b6106b6565b9050600061059361056a60008054906101000a900473ffffffffffffffffffffffffffffffffffffffff1673ffffffffffffffffffffffffffffffffffffffff1663bc3ea0186040518163ffffffff1660e01b815260040160206040518083038186803b1580156104ed57600080fd5b505afa158015610501573d6000803e3d6000fd5b505050506040513d601f19601f8201168201806040525081019061052591906116f1565b73ffffffffffffffffffffffffffffffffffffffff166318160ddd6040518163ffffffff1660e01b815260040160206040518083038186803b15801561044057600080fd5b7fffffffffffffffffffffffffffffffff00000000000000000000000000000000841690610721565b9050600061061a6105c67fffffffffffffffffffffffffffffffff00000000000000000000000000000000861684610b95565b6105f27fffffffffffffffffffffffffffffffff00000000000000000000000000000000871685610b95565b7fffffffffffffffffffffffffffffffff000000000000000000000000000000001690610bca565b9050600061064a7fffffffffffffffffffffffffffffffff00000000000000000000000000000000861683610721565b90506106ab61068461065b896106b6565b7fffffffffffffffffffffffffffffffff00000000000000000000000000000000841690610bca565b7fffffffffffffffffffffffffffffffff0000000000000000000000000000000016610fb4565b979650505050505050565b6000816106c557506000919050565b8160006106d182611072565b905060708110156106ea578060700382901b91506106fd565b60708111156106fd576070810382901c91505b613fff0160701b6dffffffffffffffffffffffffffff919091161760801b92915050565b6000617fff60f084811c8216919084901c81169082141561079e5780617fff141561077157507f7fff8000000000000000000000000000000000000000000000000000000000009150610b8f9050565b5050507f800000000000000000000000000000000000000000000000000000000000000081168218610b8f565b80617fff1415610826577dffffffffffffffffffffffffffff000000000000000000000000000000008416156107f957507f7fff8000000000000000000000000000000000000000000000000000000000009150610b8f9050565b5050508082187f800000000000000000000000000000000000000000000000000000000000000016610b8f565b7f7fffffffffffffffffffffffffffffff0000000000000000000000000000000084166108ee577f7fffffffffffffffffffffffffffffff00000000000000000000000000000000851661089f57507f7fff8000000000000000000000000000000000000000000000000000000000009150610b8f9050565b5050508082187f8000000000000000000000000000000000000000000000000000000000000000167f7fff00000000000000000000000000000000000000000000000000000000000017610b8f565b6dffffffffffffffffffffffffffff608085901c16816109115760019150610923565b6e010000000000000000000000000000175b6dffffffffffffffffffffffffffff608087901c168361098757801561098257600061094e82611072565b6001955060e2039384017fffffffffffffffffffffffffffffffffffffffffffffffffffffffffffffff8e01939190911b90505b61099c565b6e0100000000000000000000000000001760721b5b8181816109ab576109ab611740565b04905080610a10577f8000000000000000000000000000000000000000000000000000000000000000878718166109e3576000610a05565b7f80000000000000000000000000000000000000000000000000000000000000005b945050505050610b8f565b6d1000000000000000000000000000811015610a2e57610a2e61176f565b60006e080000000000000000000000000000821015610a8e576e040000000000000000000000000000821015610a83576e020000000000000000000000000000821015610a7c576070610a86565b6071610a86565b60725b60ff16610a97565b610a9782611072565b905083614071018186011115610ab557617fff945060009150610b4f565b83818601613ffc011015610ad0576000945060009150610b4f565b83818601613f8c011015610b1d578385613ffc011115610afb578385613ffc010382901b9150610b14565b8385613ffc011015610b1457613ffc8585030382901c91505b60009450610b4f565b6070811115610b30576070810382901c91505b6dffffffffffffffffffffffffffff8216915083818601613f8d010394505b81607086901b888a186f8000000000000000000000000000000060801b1660801c6fffffffffffffffffffffffffffffffff16171760801b955050505050505b92915050565b6000610bc3837f80000000000000000000000000000000000000000000000000000000000000008418611122565b9392505050565b6000617fff60f084811c8216919084901c811690821415610d1d5780617fff1415610ccb577fffffffffffffffffffffffffffffffff000000000000000000000000000000008581169085161415610c49575050507f800000000000000000000000000000000000000000000000000000000000000081168218610b8f565b7f80000000000000000000000000000000000000000000000000000000000000007fffffffffffffffffffffffffffffffff00000000000000000000000000000000868618161415610ca057505050818117610b8f565b507f7fff8000000000000000000000000000000000000000000000000000000000009150610b8f9050565b7f7fffffffffffffffffffffffffffffff00000000000000000000000000000000841661077157507f7fff8000000000000000000000000000000000000000000000000000000000009150610b8f9050565b80617fff1415610da6577f7fffffffffffffffffffffffffffffff000000000000000000000000000000008516610d7957507f7fff8000000000000000000000000000000000000000000000000000000000009150610b8f9050565b5050507f800000000000000000000000000000000000000000000000000000000000000082168118610b8f565b6dffffffffffffffffffffffffffff608086901c1682610dc95760019250610ddb565b6e010000000000000000000000000000175b6dffffffffffffffffffffffffffff608086901c1682610dfe5760019250610e10565b6e010000000000000000000000000000175b9081029081610e49577f8000000000000000000000000000000000000000000000000000000000000000878718166109e3576000610a05565b9282019260007c0200000000000000000000000000000000000000000000000000000000831015610eae577c0100000000000000000000000000000000000000000000000000000000831015610ea757610ea283611072565b610eb1565b60e0610eb1565b60e15b90506140708186011015610ecc576000945060009250610f70565b6140e08186011015610f0f57614070851015610ef157846140700383901c9250610f06565b614070851115610f0657614070850383901b92505b60009450610f70565b61c0dd8186011115610f2957617fff945060009250610f70565b6070811115610f40576070810383901c9250610f53565b6070811015610f53578060700383901b92505b6dffffffffffffffffffffffffffff831692506140df8186010394505b82607086901b888a186f8000000000000000000000000000000060801b1660801c6fffffffffffffffffffffffffffffffff16171760801b95505050505050610b8f565b6000617fff60f083901c16613fff811015610fd25750600092915050565b6f80000000000000000000000000000000608084901c10610ff257600080fd5b6140fe81111561100157600080fd5b6e0100000000000000000000000000006dffffffffffffffffffffffffffff608085901c161761406f82101561103d5761406f8290031c610bc3565b61406f821115610bc3577fffffffffffffffffffffffffffffffffffffffffffffffffffffffffffffbf9182011b9392505050565b600080821161108057600080fd5b600070010000000000000000000000000000000083106110a257608092831c92015b6801000000000000000083106110ba57604092831c92015b64010000000083106110ce57602092831c92015b6201000083106110e057601092831c92015b61010083106110f157600892831c92015b6010831061110157600492831c92015b6004831061111157600292831c92015b60028310610b8f5760010192915050565b6000617fff60f084811c8216919084901c8116908214156111885780617fff141561117e577fffffffffffffffffffffffffffffffff000000000000000000000000000000008581169085161415610ca0578492505050610b8f565b8492505050610b8f565b80617fff141561119c578392505050610b8f565b6f80000000000000000000000000000000608086901c90811015906dffffffffffffffffffffffffffff16836111d557600193506111e7565b6e010000000000000000000000000000175b6f80000000000000000000000000000000608087901c90811015906dffffffffffffffffffffffffffff16846112205760019450611232565b6e010000000000000000000000000000175b82611296577fffffffffffffffffffffffffffffffff0000000000000000000000000000000088167f8000000000000000000000000000000000000000000000000000000000000000146112865787611289565b60005b9650505050505050610b8f565b806112ea577fffffffffffffffffffffffffffffffff0000000000000000000000000000000089167f8000000000000000000000000000000000000000000000000000000000000000146112865788611289565b84860384151583151514156114785760708113156113115789975050505050505050610b8f565b60008113156113235790811c90611370565b7fffffffffffffffffffffffffffffffffffffffffffffffffffffffffffffff9081121561135a5788975050505050505050610b8f565b6000811215611370578060000384901c93508596505b928101926e0200000000000000000000000000008410611396576001968701969390931c925b86617fff14156113fb57846113cb577f7fff0000000000000000000000000000000000000000000000000000000000006113ed565b7fffff0000000000000000000000000000000000000000000000000000000000005b975050505050505050610b8f565b6e01000000000000000000000000000084101561141b576000965061142f565b6dffffffffffffffffffffffffffff841693505b83607088901b86611441576000611453565b6f800000000000000000000000000000005b6fffffffffffffffffffffffffffffffff16171760801b975050505050505050610b8f565b600081131561149357600184901b93506001870396506114aa565b60008112156114aa57600182901b91506001860396505b60708113156114bc5760019150611545565b60018113156114d9576001810360018303901c6001019150611545565b7fffffffffffffffffffffffffffffffffffffffffffffffffffffffffffffff9081121561150a5760019350611545565b7fffffffffffffffffffffffffffffffffffffffffffffffffffffffffffffffff811215611545576001816000030360018503901c60010193505b81841061155657818403935061155f565b83820393508294505b83611575575060009650610b8f95505050505050565b600061158085611072565b905080607114156115ad57600185901c6dffffffffffffffffffffffffffff169450600188019750611628565b6070811015611614576070819003808911156115e3578086901b6dffffffffffffffffffffffffffff169550808903985061160e565b6000987fffffffffffffffffffffffffffffffffffffffffffffffffffffffffffffffff019590951b945b50611628565b6dffffffffffffffffffffffffffff851694505b87617fff141561168e578561165d577f7fff00000000000000000000000000000000000000000000000000000000000061167f565b7fffff0000000000000000000000000000000000000000000000000000000000005b98505050505050505050610b8f565b84607089901b876116a05760006116b2565b6f800000000000000000000000000000005b6fffffffffffffffffffffffffffffffff16171760801b98505050505050505050610b8f565b6000602082840312156116ea57600080fd5b5035919050565b60006020828403121561170357600080fd5b815173ffffffffffffffffffffffffffffffffffffffff81168114610bc357600080fd5b60006020828403121561173957600080fd5b5051919050565b7f4e487b7100000000000000000000000000000000000000000000000000000000600052601260045260246000fd5b7f4e487b7100000000000000000000000000000000000000000000000000000000600052600160045260246000fdfea2646970667358221220ad446ab4a53aebfb1cb39c594a498e20c3c1137f01782f97a9c463d78a00ab4464736f6c63430008090033",
    "linkReferences": {}
  },
  "methodIdentifiers": {
    "getCouponAmount(uint256)": "9172dd23",
    "manager()": "481c6a75"
  },
  "id": 47
}