{
  "abi": [
    {
      "anonymous": false,
      "inputs": [
        {
          "indexed": true,
          "internalType": "address",
          "name": "sender",
          "type": "address"
        },
        {
          "indexed": true,
          "internalType": "address",
          "name": "recipient",
          "type": "address"
        },
        {
          "indexed": false,
          "internalType": "address",
          "name": "operator",
          "type": "address"
        },
        {
          "indexed": false,
          "internalType": "uint256",
          "name": "amount",
          "type": "uint256"
        }
      ],
      "name": "Incentivized",
      "type": "event"
    },
    {
      "inputs": [
        {
          "internalType": "address",
          "name": "sender",
          "type": "address"
        },
        {
          "internalType": "address",
          "name": "recipient",
          "type": "address"
        },
        {
          "internalType": "address",
          "name": "operator",
          "type": "address"
        },
        {
          "internalType": "uint256",
          "name": "amount",
          "type": "uint256"
        }
      ],
      "name": "incentivize",
      "outputs": [],
      "stateMutability": "nonpayable",
      "type": "function"
    }
  ],
  "bytecode": {
    "object": "0x608060405234801561001057600080fd5b5061014d806100206000396000f3fe608060405234801561001057600080fd5b506004361061002b5760003560e01c80636e22230d14610030575b600080fd5b61004361003e3660046100cc565b610045565b005b6040805173ffffffffffffffffffffffffffffffffffffffff84811682526020820184905280861692908716917fa45063c6a0668e56dbdbab12fba7371e7720255a754071bca8ab9803a3fd4385910160405180910390a350505050565b803573ffffffffffffffffffffffffffffffffffffffff811681146100c757600080fd5b919050565b600080600080608085870312156100e257600080fd5b6100eb856100a3565b93506100f9602086016100a3565b9250610107604086016100a3565b939692955092936060013592505056fea264697066735822122051d57f95a9e361bff4e47c29088eec3d8ce7170be19cb715813dd24e75a5e61064736f6c63430008090033",
    "linkReferences": {}
  },
  "methodIdentifiers": {
    "incentivize(address,address,address,uint256)": "6e22230d"
  },
  "id": 78
}