{
  "abi": [
    {
      "inputs": [
        {
          "internalType": "address",
          "name": "_manager",
          "type": "address"
        }
      ],
      "stateMutability": "nonpayable",
      "type": "constructor"
    },
    {
      "anonymous": false,
      "inputs": [
        {
          "indexed": true,
          "internalType": "address",
          "name": "_account",
          "type": "address"
        },
        {
          "indexed": false,
          "internalType": "bool",
          "name": "_isExempt",
          "type": "bool"
        }
      ],
      "name": "ExemptAddressUpdate",
      "type": "event"
    },
    {
      "inputs": [
        {
          "internalType": "address",
          "name": "sender",
          "type": "address"
        },
        {
          "internalType": "address",
          "name": "receiver",
          "type": "address"
        },
        {
          "internalType": "address",
          "name": "",
          "type": "address"
        },
        {
          "internalType": "uint256",
          "name": "amountIn",
          "type": "uint256"
        }
      ],
      "name": "incentivize",
      "outputs": [],
      "stateMutability": "nonpayable",
      "type": "function"
    },
    {
      "inputs": [],
      "name": "isBuyIncentiveOn",
      "outputs": [
        {
          "internalType": "bool",
          "name": "",
          "type": "bool"
        }
      ],
      "stateMutability": "view",
      "type": "function"
    },
    {
      "inputs": [
        {
          "internalType": "address",
          "name": "account",
          "type": "address"
        }
      ],
      "name": "isExemptAddress",
      "outputs": [
        {
          "internalType": "bool",
          "name": "",
          "type": "bool"
        }
      ],
      "stateMutability": "view",
      "type": "function"
    },
    {
      "inputs": [],
      "name": "isSellPenaltyOn",
      "outputs": [
        {
          "internalType": "bool",
          "name": "",
          "type": "bool"
        }
      ],
      "stateMutability": "view",
      "type": "function"
    },
    {
      "inputs": [],
      "name": "manager",
      "outputs": [
        {
          "internalType": "contract UbiquityAlgorithmicDollarManager",
          "name": "",
          "type": "address"
        }
      ],
      "stateMutability": "view",
      "type": "function"
    },
    {
      "inputs": [
        {
          "internalType": "address",
          "name": "account",
          "type": "address"
        },
        {
          "internalType": "bool",
          "name": "isExempt",
          "type": "bool"
        }
      ],
      "name": "setExemptAddress",
      "outputs": [],
      "stateMutability": "nonpayable",
      "type": "function"
    },
    {
      "inputs": [],
      "name": "switchBuyIncentive",
      "outputs": [],
      "stateMutability": "nonpayable",
      "type": "function"
    },
    {
      "inputs": [],
      "name": "switchSellPenalty",
      "outputs": [],
      "stateMutability": "nonpayable",
      "type": "function"
    }
  ],
  "bytecode": {
    "object": "0x60a06040526000805461ffff60a01b191661010160a01b17905562000038670de0b6b3a76400006200009b602090811b62000ac717901c565b6001600160801b0319166080523480156200005257600080fd5b506040516200281b3803806200281b8339810160408190526200007591620001b5565b600080546001600160a01b0319166001600160a01b0392909216919091179055620001e7565b600081600003620000ae57506000919050565b816000620000bc8262000108565b90506070811015620000d7578060700382901b9150620000eb565b6070811115620000eb576070810382901c91505b613fff0160701b6001600160701b03919091161760801b92915050565b60008082116200011757600080fd5b6000600160801b83106200012d57608092831c92015b6801000000000000000083106200014657604092831c92015b64010000000083106200015b57602092831c92015b6201000083106200016e57601092831c92015b61010083106200018057600892831c92015b601083106200019157600492831c92015b60048310620001a257600292831c92015b60028310620001af576001015b92915050565b600060208284031215620001c857600080fd5b81516001600160a01b0381168114620001e057600080fd5b9392505050565b6080516126116200020a60003960008181611220015261129f01526126116000f3fe608060405234801561001057600080fd5b50600436106100885760003560e01c80636e22230d1161005b5780636e22230d1461013d5780639679e3a314610150578063a913592114610175578063b1c6bd751461019b57600080fd5b806342db95501461008d578063481c6a75146100a25780635a5759b4146100ec5780636cce8e1f14610135575b600080fd5b6100a061009b366004612449565b6101a3565b005b6000546100c29073ffffffffffffffffffffffffffffffffffffffff1681565b60405173ffffffffffffffffffffffffffffffffffffffff90911681526020015b60405180910390f35b6101256100fa366004612482565b73ffffffffffffffffffffffffffffffffffffffff1660009081526001602052604090205460ff1690565b60405190151581526020016100e3565b6100a06103b2565b6100a061014b36600461249f565b61057f565b6000546101259074010000000000000000000000000000000000000000900460ff1681565b600054610125907501000000000000000000000000000000000000000000900460ff1681565b6100a06108f9565b600054604080517f57f6a22a000000000000000000000000000000000000000000000000000000008152905173ffffffffffffffffffffffffffffffffffffffff909216916391d148549183916357f6a22a916004808201926020929091908290030181865afa15801561021b573d6000803e3d6000fd5b505050506040513d601f19601f8201168201806040525081019061023f91906124f0565b6040517fffffffff0000000000000000000000000000000000000000000000000000000060e084901b1681526004810191909152336024820152604401602060405180830381865afa158015610299573d6000803e3d6000fd5b505050506040513d601f19601f820116820180604052508101906102bd9190612509565b610328576040517f08c379a000000000000000000000000000000000000000000000000000000000815260206004820152601960248201527f4375727665496e63656e746976653a206e6f742061646d696e0000000000000060448201526064015b60405180910390fd5b73ffffffffffffffffffffffffffffffffffffffff821660008181526001602090815260409182902080547fffffffffffffffffffffffffffffffffffffffffffffffffffffffffffffff001685151590811790915591519182527f9226cd0a5a90eb4694e1351c175c4ad131831340dc7a82c2d7693683c1b5afff910160405180910390a25050565b600054604080517f57f6a22a000000000000000000000000000000000000000000000000000000008152905173ffffffffffffffffffffffffffffffffffffffff909216916391d148549183916357f6a22a916004808201926020929091908290030181865afa15801561042a573d6000803e3d6000fd5b505050506040513d601f19601f8201168201806040525081019061044e91906124f0565b6040517fffffffff0000000000000000000000000000000000000000000000000000000060e084901b1681526004810191909152336024820152604401602060405180830381865afa1580156104a8573d6000803e3d6000fd5b505050506040513d601f19601f820116820180604052508101906104cc9190612509565b610532576040517f08c379a000000000000000000000000000000000000000000000000000000000815260206004820152601960248201527f4375727665496e63656e746976653a206e6f742061646d696e00000000000000604482015260640161031f565b600080547fffffffffffffffffffffff00ffffffffffffffffffffffffffffffffffffffff8116740100000000000000000000000000000000000000009182900460ff1615909102179055565b60008054906101000a900473ffffffffffffffffffffffffffffffffffffffff1673ffffffffffffffffffffffffffffffffffffffff1663bc3ea0186040518163ffffffff1660e01b8152600401602060405180830381865afa1580156105ea573d6000803e3d6000fd5b505050506040513d601f19601f8201168201806040525081019061060e9190612526565b73ffffffffffffffffffffffffffffffffffffffff163373ffffffffffffffffffffffffffffffffffffffff16146106c8576040517f08c379a000000000000000000000000000000000000000000000000000000000815260206004820152602160248201527f4375727665496e63656e746976653a2043616c6c6572206973206e6f7420754160448201527f4400000000000000000000000000000000000000000000000000000000000000606482015260840161031f565b8273ffffffffffffffffffffffffffffffffffffffff168473ffffffffffffffffffffffffffffffffffffffff160361075d576040517f08c379a000000000000000000000000000000000000000000000000000000000815260206004820181905260248201527f4375727665496e63656e746976653a2063616e6e6f742073656e642073656c66604482015260640161031f565b60008054906101000a900473ffffffffffffffffffffffffffffffffffffffff1673ffffffffffffffffffffffffffffffffffffffff1663d3815fb96040518163ffffffff1660e01b8152600401602060405180830381865afa1580156107c8573d6000803e3d6000fd5b505050506040513d601f19601f820116820180604052508101906107ec9190612526565b73ffffffffffffffffffffffffffffffffffffffff168473ffffffffffffffffffffffffffffffffffffffff1603610828576108288382610b35565b60008054906101000a900473ffffffffffffffffffffffffffffffffffffffff1673ffffffffffffffffffffffffffffffffffffffff1663d3815fb96040518163ffffffff1660e01b8152600401602060405180830381865afa158015610893573d6000803e3d6000fd5b505050506040513d601f19601f820116820180604052508101906108b79190612526565b73ffffffffffffffffffffffffffffffffffffffff168373ffffffffffffffffffffffffffffffffffffffff16036108f3576108f38482610cc9565b50505050565b600054604080517f57f6a22a000000000000000000000000000000000000000000000000000000008152905173ffffffffffffffffffffffffffffffffffffffff909216916391d148549183916357f6a22a916004808201926020929091908290030181865afa158015610971573d6000803e3d6000fd5b505050506040513d601f19601f8201168201806040525081019061099591906124f0565b6040517fffffffff0000000000000000000000000000000000000000000000000000000060e084901b1681526004810191909152336024820152604401602060405180830381865afa1580156109ef573d6000803e3d6000fd5b505050506040513d601f19601f82011682018060405250810190610a139190612509565b610a79576040517f08c379a000000000000000000000000000000000000000000000000000000000815260206004820152601960248201527f4375727665496e63656e746976653a206e6f742061646d696e00000000000000604482015260640161031f565b600080547fffffffffffffffffffff00ffffffffffffffffffffffffffffffffffffffffff811675010000000000000000000000000000000000000000009182900460ff1615909102179055565b600081600003610ad957506000919050565b816000610ae58261104a565b90506070811015610afe578060700382901b9150610b11565b6070811115610b11576070810382901c91505b613fff0160701b6dffffffffffffffffffffffffffff919091161760801b92915050565b610b3d6110fb565b73ffffffffffffffffffffffffffffffffffffffff821660009081526001602052604090205460ff1680610b8d57506000547501000000000000000000000000000000000000000000900460ff16155b15610b96575050565b6000610ba1826111e5565b90508015610cc45760008054906101000a900473ffffffffffffffffffffffffffffffffffffffff1673ffffffffffffffffffffffffffffffffffffffff1663b42165d06040518163ffffffff1660e01b8152600401602060405180830381865afa158015610c14573d6000803e3d6000fd5b505050506040513d601f19601f82011682018060405250810190610c389190612526565b6040517f40c10f1900000000000000000000000000000000000000000000000000000000815273ffffffffffffffffffffffffffffffffffffffff85811660048301526024820184905291909116906340c10f19906044015b600060405180830381600087803b158015610cab57600080fd5b505af1158015610cbf573d6000803e3d6000fd5b505050505b505050565b610cd16110fb565b73ffffffffffffffffffffffffffffffffffffffff821660009081526001602052604090205460ff1680610d20575060005474010000000000000000000000000000000000000000900460ff16155b15610d29575050565b6000610d34826111e5565b90508015610cc457818110610da5576040517f08c379a000000000000000000000000000000000000000000000000000000000815260206004820152601f60248201527f446f6c6c61723a206275726e20657863656564732074726164652073697a6500604482015260640161031f565b610daf8282612543565b60008054906101000a900473ffffffffffffffffffffffffffffffffffffffff1673ffffffffffffffffffffffffffffffffffffffff1663bc3ea0186040518163ffffffff1660e01b8152600401602060405180830381865afa158015610e1a573d6000803e3d6000fd5b505050506040513d601f19601f82011682018060405250810190610e3e9190612526565b6040517f70a0823100000000000000000000000000000000000000000000000000000000815273ffffffffffffffffffffffffffffffffffffffff868116600483015291909116906370a0823190602401602060405180830381865afa158015610eac573d6000803e3d6000fd5b505050506040513d601f19601f82011682018060405250810190610ed091906124f0565b1015610f5e576040517f08c379a000000000000000000000000000000000000000000000000000000000815260206004820152602860248201527f446f6c6c61723a2062616c616e636520746f6f206c6f7720746f20676574207060448201527f656e616c697a6564000000000000000000000000000000000000000000000000606482015260840161031f565b60008054906101000a900473ffffffffffffffffffffffffffffffffffffffff1673ffffffffffffffffffffffffffffffffffffffff1663bc3ea0186040518163ffffffff1660e01b8152600401602060405180830381865afa158015610fc9573d6000803e3d6000fd5b505050506040513d601f19601f82011682018060405250810190610fed9190612526565b6040517f79cc679000000000000000000000000000000000000000000000000000000000815273ffffffffffffffffffffffffffffffffffffffff85811660048301526024820184905291909116906379cc679090604401610c91565b600080821161105857600080fd5b6000700100000000000000000000000000000000831061107a57608092831c92015b68010000000000000000831061109257604092831c92015b64010000000083106110a657602092831c92015b6201000083106110b857601092831c92015b61010083106110c957600892831c92015b601083106110d957600492831c92015b600483106110e957600292831c92015b600283106110f5576001015b92915050565b60008054906101000a900473ffffffffffffffffffffffffffffffffffffffff1673ffffffffffffffffffffffffffffffffffffffff16638fe636836040518163ffffffff1660e01b8152600401602060405180830381865afa158015611166573d6000803e3d6000fd5b505050506040513d601f19601f8201168201806040525081019061118a9190612526565b73ffffffffffffffffffffffffffffffffffffffff1663a2e620456040518163ffffffff1660e01b8152600401600060405180830381600087803b1580156111d157600080fd5b505af11580156108f3573d6000803e3d6000fd5b60006111ef6110fb565b60006111f961131c565b9050670de0b6b3a764000081106112135750600092915050565b60006113146112ed6112707f000000000000000000000000000000000000000000000000000000000000000061124888610ac7565b7fffffffffffffffffffffffffffffffff0000000000000000000000000000000016906114ea565b6112c561127c86610ac7565b7fffffffffffffffffffffffffffffffff000000000000000000000000000000007f0000000000000000000000000000000000000000000000000000000000000000169061196b565b7fffffffffffffffffffffffffffffffff0000000000000000000000000000000016906119a0565b7fffffffffffffffffffffffffffffffff0000000000000000000000000000000016611d98565b949350505050565b60008060009054906101000a900473ffffffffffffffffffffffffffffffffffffffff1673ffffffffffffffffffffffffffffffffffffffff16638fe636836040518163ffffffff1660e01b8152600401602060405180830381865afa15801561138a573d6000803e3d6000fd5b505050506040513d601f19601f820116820180604052508101906113ae9190612526565b73ffffffffffffffffffffffffffffffffffffffff1663283583c660008054906101000a900473ffffffffffffffffffffffffffffffffffffffff1673ffffffffffffffffffffffffffffffffffffffff1663bc3ea0186040518163ffffffff1660e01b8152600401602060405180830381865afa158015611434573d6000803e3d6000fd5b505050506040513d601f19601f820116820180604052508101906114589190612526565b6040517fffffffff0000000000000000000000000000000000000000000000000000000060e084901b16815273ffffffffffffffffffffffffffffffffffffffff9091166004820152602401602060405180830381865afa1580156114c1573d6000803e3d6000fd5b505050506040513d601f19601f820116820180604052508101906114e591906124f0565b905090565b6000617fff60f084811c8216919084901c8116908290036115665780617fff0361153957507f7fff80000000000000000000000000000000000000000000000000000000000091506110f59050565b5050507f8000000000000000000000000000000000000000000000000000000000000000811682186110f5565b80617fff036115ed577dffffffffffffffffffffffffffff000000000000000000000000000000008416156115c057507f7fff80000000000000000000000000000000000000000000000000000000000091506110f59050565b5050508082187f8000000000000000000000000000000000000000000000000000000000000000166110f5565b7f7fffffffffffffffffffffffffffffff0000000000000000000000000000000084166000036116bb577f7fffffffffffffffffffffffffffffff00000000000000000000000000000000851660000361166c57507f7fff80000000000000000000000000000000000000000000000000000000000091506110f59050565b5050508082187f8000000000000000000000000000000000000000000000000000000000000000167f7fff000000000000000000000000000000000000000000000000000000000000176110f5565b6dffffffffffffffffffffffffffff608085901c1660008290036116e257600191506116f4565b6e010000000000000000000000000000175b6dffffffffffffffffffffffffffff608087901c16600084900361175c5780156117575760006117238261104a565b6001955060e2039384017fffffffffffffffffffffffffffffffffffffffffffffffffffffffffffffff8e01939190911b90505b611771565b6e0100000000000000000000000000001760721b5b8181816117805761178061257d565b049050806000036117e8577f8000000000000000000000000000000000000000000000000000000000000000878718166117bb5760006117dd565b7f80000000000000000000000000000000000000000000000000000000000000005b9450505050506110f5565b6d1000000000000000000000000000811015611806576118066125ac565b60006e080000000000000000000000000000821015611866576e04000000000000000000000000000082101561185b576e02000000000000000000000000000082101561185457607061185e565b607161185e565b60725b60ff1661186f565b61186f8261104a565b90508361407101818601111561188d57617fff945060009150611927565b83818601613ffc0110156118a8576000945060009150611927565b83818601613f8c0110156118f5578385613ffc0111156118d3578385613ffc010382901b91506118ec565b8385613ffc0110156118ec57613ffc8585030382901c91505b60009450611927565b6070811115611908576070810382901c91505b6dffffffffffffffffffffffffffff8216915083818601613f8d010394505b81607086901b888a186f8000000000000000000000000000000060801b1660801c6fffffffffffffffffffffffffffffffff16171760801b955050505050506110f5565b6000611999837f80000000000000000000000000000000000000000000000000000000000000008418611e56565b9392505050565b6000617fff60f084811c8216919084901c811690829003611af35780617fff03611a9e577fffffffffffffffffffffffffffffffff0000000000000000000000000000000080851690861603611a1d575050507f8000000000000000000000000000000000000000000000000000000000000000811682186110f5565b7fffffffffffffffffffffffffffffffff00000000000000000000000000000000858518167f800000000000000000000000000000000000000000000000000000000000000003611a73575050508181176110f5565b507f7fff80000000000000000000000000000000000000000000000000000000000091506110f59050565b7f7fffffffffffffffffffffffffffffff00000000000000000000000000000000841660000361153957507f7fff80000000000000000000000000000000000000000000000000000000000091506110f59050565b80617fff03611b7e577f7fffffffffffffffffffffffffffffff000000000000000000000000000000008516600003611b5157507f7fff80000000000000000000000000000000000000000000000000000000000091506110f59050565b5050507f8000000000000000000000000000000000000000000000000000000000000000821681186110f5565b6dffffffffffffffffffffffffffff608086901c166000839003611ba55760019250611bb7565b6e010000000000000000000000000000175b6dffffffffffffffffffffffffffff608086901c166000839003611bde5760019250611bf0565b6e010000000000000000000000000000175b808202915081600003611c2d577f8000000000000000000000000000000000000000000000000000000000000000878718166117bb5760006117dd565b9282019260007c0200000000000000000000000000000000000000000000000000000000831015611c92577c0100000000000000000000000000000000000000000000000000000000831015611c8b57611c868361104a565b611c95565b60e0611c95565b60e15b90506140708186011015611cb0576000945060009250611d54565b6140e08186011015611cf357614070851015611cd557846140700383901c9250611cea565b614070851115611cea57614070850383901b92505b60009450611d54565b61c0dd8186011115611d0d57617fff945060009250611d54565b6070811115611d24576070810383901c9250611d37565b6070811015611d37578060700383901b92505b6dffffffffffffffffffffffffffff831692506140df8186010394505b82607086901b888a186f8000000000000000000000000000000060801b1660801c6fffffffffffffffffffffffffffffffff16171760801b955050505050506110f5565b6000617fff60f083901c16613fff811015611db65750600092915050565b6f80000000000000000000000000000000608084901c10611dd657600080fd5b6140fe811115611de557600080fd5b6e0100000000000000000000000000006dffffffffffffffffffffffffffff608085901c161761406f821015611e215761406f8290031c611999565b61406f821115611999577fffffffffffffffffffffffffffffffffffffffffffffffffffffffffffffbf9182011b9392505050565b6000617fff60f084811c8216919084901c811690829003611eba5780617fff03611eb0577fffffffffffffffffffffffffffffffff0000000000000000000000000000000080851690861603611a735784925050506110f5565b84925050506110f5565b80617fff03611ecd5783925050506110f5565b6f80000000000000000000000000000000608086901c90811015906dffffffffffffffffffffffffffff166000849003611f0a5760019350611f1c565b6e010000000000000000000000000000175b6f80000000000000000000000000000000608087901c90811015906dffffffffffffffffffffffffffff166000859003611f595760019450611f6b565b6e010000000000000000000000000000175b82600003611fd2577fffffffffffffffffffffffffffffffff0000000000000000000000000000000088167f800000000000000000000000000000000000000000000000000000000000000014611fc25787611fc5565b60005b96505050505050506110f5565b80600003612029577fffffffffffffffffffffffffffffffff0000000000000000000000000000000089167f800000000000000000000000000000000000000000000000000000000000000014611fc25788611fc5565b848603821515851515036121b557607081131561204f57899750505050505050506110f5565b60008113156120615790811c906120ae565b7fffffffffffffffffffffffffffffffffffffffffffffffffffffffffffffff9081121561209857889750505050505050506110f5565b60008112156120ae578060000384901c93508596505b928101926e02000000000000000000000000000084106120d4576001968701969390931c925b86617fff036121385784612108577f7fff00000000000000000000000000000000000000000000000000000000000061212a565b7fffff0000000000000000000000000000000000000000000000000000000000005b9750505050505050506110f5565b6e010000000000000000000000000000841015612158576000965061216c565b6dffffffffffffffffffffffffffff841693505b83607088901b8661217e576000612190565b6f800000000000000000000000000000005b6fffffffffffffffffffffffffffffffff16171760801b9750505050505050506110f5565b60008113156121d057600184901b93506001870396506121e7565b60008112156121e757600182901b91506001860396505b60708113156121f95760019150612282565b6001811315612216576001810360018303901c6001019150612282565b7fffffffffffffffffffffffffffffffffffffffffffffffffffffffffffffff908112156122475760019350612282565b7fffffffffffffffffffffffffffffffffffffffffffffffffffffffffffffffff811215612282576001816000030360018503901c60010193505b81841061229357818403935061229c565b83820393508294505b836000036122b55750600096506110f595505050505050565b60006122c08561104a565b9050806071036122ec57600185901c6dffffffffffffffffffffffffffff169450600188019750612367565b607081101561235357607081900380891115612322578086901b6dffffffffffffffffffffffffffff169550808903985061234d565b6000987fffffffffffffffffffffffffffffffffffffffffffffffffffffffffffffffff019590951b945b50612367565b6dffffffffffffffffffffffffffff851694505b87617fff036123cc578561239b577f7fff0000000000000000000000000000000000000000000000000000000000006123bd565b7fffff0000000000000000000000000000000000000000000000000000000000005b985050505050505050506110f5565b84607089901b876123de5760006123f0565b6f800000000000000000000000000000005b6fffffffffffffffffffffffffffffffff16171760801b985050505050505050506110f5565b73ffffffffffffffffffffffffffffffffffffffff8116811461243857600080fd5b50565b801515811461243857600080fd5b6000806040838503121561245c57600080fd5b823561246781612416565b915060208301356124778161243b565b809150509250929050565b60006020828403121561249457600080fd5b813561199981612416565b600080600080608085870312156124b557600080fd5b84356124c081612416565b935060208501356124d081612416565b925060408501356124e081612416565b9396929550929360600135925050565b60006020828403121561250257600080fd5b5051919050565b60006020828403121561251b57600080fd5b81516119998161243b565b60006020828403121561253857600080fd5b815161199981612416565b808201808211156110f5577f4e487b7100000000000000000000000000000000000000000000000000000000600052601160045260246000fd5b7f4e487b7100000000000000000000000000000000000000000000000000000000600052601260045260246000fd5b7f4e487b7100000000000000000000000000000000000000000000000000000000600052600160045260246000fdfea2646970667358221220768b67124367fa7683ed461424a0f463dcabe2b2d246e623a75c05077526c96664736f6c63430008100033",
    "linkReferences": {}
  },
  "methodIdentifiers": {
    "incentivize(address,address,address,uint256)": "6e22230d",
    "isBuyIncentiveOn()": "a9135921",
    "isExemptAddress(address)": "5a5759b4",
    "isSellPenaltyOn()": "9679e3a3",
    "manager()": "481c6a75",
    "setExemptAddress(address,bool)": "42db9550",
    "switchBuyIncentive()": "b1c6bd75",
    "switchSellPenalty()": "6cce8e1f"
  },
  "id": 50
}