{
  "abi": [
    {
      "inputs": [
        {
          "internalType": "address",
          "name": "_manager",
          "type": "address"
        }
      ],
      "stateMutability": "nonpayable",
      "type": "constructor"
    },
    {
      "anonymous": false,
      "inputs": [
        {
          "indexed": true,
          "internalType": "address",
          "name": "owner",
          "type": "address"
        },
        {
          "indexed": true,
          "internalType": "address",
          "name": "spender",
          "type": "address"
        },
        {
          "indexed": false,
          "internalType": "uint256",
          "name": "value",
          "type": "uint256"
        }
      ],
      "name": "Approval",
      "type": "event"
    },
    {
      "anonymous": false,
      "inputs": [
        {
          "indexed": true,
          "internalType": "address",
          "name": "_burned",
          "type": "address"
        },
        {
          "indexed": false,
          "internalType": "uint256",
          "name": "_amount",
          "type": "uint256"
        }
      ],
      "name": "Burning",
      "type": "event"
    },
    {
      "anonymous": false,
      "inputs": [
        {
          "indexed": true,
          "internalType": "address",
          "name": "_to",
          "type": "address"
        },
        {
          "indexed": true,
          "internalType": "address",
          "name": "_minter",
          "type": "address"
        },
        {
          "indexed": false,
          "internalType": "uint256",
          "name": "_amount",
          "type": "uint256"
        }
      ],
      "name": "Minting",
      "type": "event"
    },
    {
      "anonymous": false,
      "inputs": [
        {
          "indexed": false,
          "internalType": "address",
          "name": "account",
          "type": "address"
        }
      ],
      "name": "Paused",
      "type": "event"
    },
    {
      "anonymous": false,
      "inputs": [
        {
          "indexed": true,
          "internalType": "address",
          "name": "from",
          "type": "address"
        },
        {
          "indexed": true,
          "internalType": "address",
          "name": "to",
          "type": "address"
        },
        {
          "indexed": false,
          "internalType": "uint256",
          "name": "value",
          "type": "uint256"
        }
      ],
      "name": "Transfer",
      "type": "event"
    },
    {
      "anonymous": false,
      "inputs": [
        {
          "indexed": false,
          "internalType": "address",
          "name": "account",
          "type": "address"
        }
      ],
      "name": "Unpaused",
      "type": "event"
    },
    {
      "inputs": [],
      "name": "DOMAIN_SEPARATOR",
      "outputs": [
        {
          "internalType": "bytes32",
          "name": "",
          "type": "bytes32"
        }
      ],
      "stateMutability": "view",
      "type": "function"
    },
    {
      "inputs": [],
      "name": "PERMIT_TYPEHASH",
      "outputs": [
        {
          "internalType": "bytes32",
          "name": "",
          "type": "bytes32"
        }
      ],
      "stateMutability": "view",
      "type": "function"
    },
    {
      "inputs": [
        {
          "internalType": "address",
          "name": "owner",
          "type": "address"
        },
        {
          "internalType": "address",
          "name": "spender",
          "type": "address"
        }
      ],
      "name": "allowance",
      "outputs": [
        {
          "internalType": "uint256",
          "name": "",
          "type": "uint256"
        }
      ],
      "stateMutability": "view",
      "type": "function"
    },
    {
      "inputs": [
        {
          "internalType": "address",
          "name": "spender",
          "type": "address"
        },
        {
          "internalType": "uint256",
          "name": "amount",
          "type": "uint256"
        }
      ],
      "name": "approve",
      "outputs": [
        {
          "internalType": "bool",
          "name": "",
          "type": "bool"
        }
      ],
      "stateMutability": "nonpayable",
      "type": "function"
    },
    {
      "inputs": [
        {
          "internalType": "address",
          "name": "account",
          "type": "address"
        }
      ],
      "name": "balanceOf",
      "outputs": [
        {
          "internalType": "uint256",
          "name": "",
          "type": "uint256"
        }
      ],
      "stateMutability": "view",
      "type": "function"
    },
    {
      "inputs": [
        {
          "internalType": "uint256",
          "name": "amount",
          "type": "uint256"
        }
      ],
      "name": "burn",
      "outputs": [],
      "stateMutability": "nonpayable",
      "type": "function"
    },
    {
      "inputs": [
        {
          "internalType": "address",
          "name": "account",
          "type": "address"
        },
        {
          "internalType": "uint256",
          "name": "amount",
          "type": "uint256"
        }
      ],
      "name": "burnFrom",
      "outputs": [],
      "stateMutability": "nonpayable",
      "type": "function"
    },
    {
      "inputs": [],
      "name": "decimals",
      "outputs": [
        {
          "internalType": "uint8",
          "name": "",
          "type": "uint8"
        }
      ],
      "stateMutability": "view",
      "type": "function"
    },
    {
      "inputs": [
        {
          "internalType": "address",
          "name": "spender",
          "type": "address"
        },
        {
          "internalType": "uint256",
          "name": "subtractedValue",
          "type": "uint256"
        }
      ],
      "name": "decreaseAllowance",
      "outputs": [
        {
          "internalType": "bool",
          "name": "",
          "type": "bool"
        }
      ],
      "stateMutability": "nonpayable",
      "type": "function"
    },
    {
      "inputs": [
        {
          "internalType": "address",
          "name": "spender",
          "type": "address"
        },
        {
          "internalType": "uint256",
          "name": "addedValue",
          "type": "uint256"
        }
      ],
      "name": "increaseAllowance",
      "outputs": [
        {
          "internalType": "bool",
          "name": "",
          "type": "bool"
        }
      ],
      "stateMutability": "nonpayable",
      "type": "function"
    },
    {
      "inputs": [],
      "name": "manager",
      "outputs": [
        {
          "internalType": "contract UbiquityAlgorithmicDollarManager",
          "name": "",
          "type": "address"
        }
      ],
      "stateMutability": "view",
      "type": "function"
    },
    {
      "inputs": [
        {
          "internalType": "address",
          "name": "to",
          "type": "address"
        },
        {
          "internalType": "uint256",
          "name": "amount",
          "type": "uint256"
        }
      ],
      "name": "mint",
      "outputs": [],
      "stateMutability": "nonpayable",
      "type": "function"
    },
    {
      "inputs": [],
      "name": "name",
      "outputs": [
        {
          "internalType": "string",
          "name": "",
          "type": "string"
        }
      ],
      "stateMutability": "view",
      "type": "function"
    },
    {
      "inputs": [
        {
          "internalType": "address",
          "name": "",
          "type": "address"
        }
      ],
      "name": "nonces",
      "outputs": [
        {
          "internalType": "uint256",
          "name": "",
          "type": "uint256"
        }
      ],
      "stateMutability": "view",
      "type": "function"
    },
    {
      "inputs": [],
      "name": "pause",
      "outputs": [],
      "stateMutability": "nonpayable",
      "type": "function"
    },
    {
      "inputs": [],
      "name": "paused",
      "outputs": [
        {
          "internalType": "bool",
          "name": "",
          "type": "bool"
        }
      ],
      "stateMutability": "view",
      "type": "function"
    },
    {
      "inputs": [
        {
          "internalType": "address",
          "name": "owner",
          "type": "address"
        },
        {
          "internalType": "address",
          "name": "spender",
          "type": "address"
        },
        {
          "internalType": "uint256",
          "name": "value",
          "type": "uint256"
        },
        {
          "internalType": "uint256",
          "name": "deadline",
          "type": "uint256"
        },
        {
          "internalType": "uint8",
          "name": "v",
          "type": "uint8"
        },
        {
          "internalType": "bytes32",
          "name": "r",
          "type": "bytes32"
        },
        {
          "internalType": "bytes32",
          "name": "s",
          "type": "bytes32"
        }
      ],
      "name": "permit",
      "outputs": [],
      "stateMutability": "nonpayable",
      "type": "function"
    },
    {
      "inputs": [
        {
          "internalType": "uint256",
          "name": "amount",
          "type": "uint256"
        }
      ],
      "name": "raiseCapital",
      "outputs": [],
      "stateMutability": "nonpayable",
      "type": "function"
    },
    {
      "inputs": [
        {
          "internalType": "string",
          "name": "newName",
          "type": "string"
        }
      ],
      "name": "setName",
      "outputs": [],
      "stateMutability": "nonpayable",
      "type": "function"
    },
    {
      "inputs": [
        {
          "internalType": "string",
          "name": "newSymbol",
          "type": "string"
        }
      ],
      "name": "setSymbol",
      "outputs": [],
      "stateMutability": "nonpayable",
      "type": "function"
    },
    {
      "inputs": [],
      "name": "symbol",
      "outputs": [
        {
          "internalType": "string",
          "name": "",
          "type": "string"
        }
      ],
      "stateMutability": "view",
      "type": "function"
    },
    {
      "inputs": [],
      "name": "totalSupply",
      "outputs": [
        {
          "internalType": "uint256",
          "name": "",
          "type": "uint256"
        }
      ],
      "stateMutability": "view",
      "type": "function"
    },
    {
      "inputs": [
        {
          "internalType": "address",
          "name": "to",
          "type": "address"
        },
        {
          "internalType": "uint256",
          "name": "amount",
          "type": "uint256"
        }
      ],
      "name": "transfer",
      "outputs": [
        {
          "internalType": "bool",
          "name": "",
          "type": "bool"
        }
      ],
      "stateMutability": "nonpayable",
      "type": "function"
    },
    {
      "inputs": [
        {
          "internalType": "address",
          "name": "from",
          "type": "address"
        },
        {
          "internalType": "address",
          "name": "to",
          "type": "address"
        },
        {
          "internalType": "uint256",
          "name": "amount",
          "type": "uint256"
        }
      ],
      "name": "transferFrom",
      "outputs": [
        {
          "internalType": "bool",
          "name": "",
          "type": "bool"
        }
      ],
      "stateMutability": "nonpayable",
      "type": "function"
    },
    {
      "inputs": [],
      "name": "unpause",
      "outputs": [],
      "stateMutability": "nonpayable",
      "type": "function"
    }
  ],
  "bytecode": {
    "object": "0x60806040523480156200001157600080fd5b506040516200297038038062002970833981016040819052620000349162000467565b806040518060400160405280601481526020017f5562697175697479204175746f2052656465656d000000000000000000000000815250604051806040016040528060038152602001623aa0a960e91b81525081818160039080519060200190620000a1929190620003c1565b508051620000b7906004906020840190620003c1565b50506005805460ff19169055508151620000d9906008906020850190620003c1565b508051620000ef906009906020840190620003c1565b5060058054610100600160a81b0319166101006001600160a01b03868116820292909217928390556040805163a217fddf60e01b8152905191909304909116916391d1485491839163a217fddf916004808301926020929190829003018186803b1580156200015d57600080fd5b505afa15801562000172573d6000803e3d6000fd5b505050506040513d601f19601f8201168201806040525081019062000198919062000499565b6040516001600160e01b031960e084901b168152600481019190915233602482015260440160206040518083038186803b158015620001d657600080fd5b505afa158015620001eb573d6000803e3d6000fd5b505050506040513d601f19601f82011682018060405250810190620002119190620004b3565b620002705760405162461bcd60e51b815260206004820152602560248201527f45524332303a206465706c6f796572206d757374206265206d616e616765722060448201526430b236b4b760d91b606482015260840160405180910390fd5b467f8b73c3c69bb8fe3d512ecc4cf759cc79239f7b179b0ffacaa9a75d522b39400f6200029c62000327565b805160209182012060408051808201825260018152603160f81b90840152805192830193909352918101919091527fc89efdaa54c0f20c7adf612882df0950f5a951637e0307cdcb4c672f298b8bc66060820152608081018290523060a082015260c00160405160208183030381529060405280519060200120600681905550505050505062000514565b6060600880546200033890620004d7565b80601f01602080910402602001604051908101604052809291908181526020018280546200036690620004d7565b8015620003b75780601f106200038b57610100808354040283529160200191620003b7565b820191906000526020600020905b8154815290600101906020018083116200039957829003601f168201915b5050505050905090565b828054620003cf90620004d7565b90600052602060002090601f016020900481019282620003f357600085556200043e565b82601f106200040e57805160ff19168380011785556200043e565b828001600101855582156200043e579182015b828111156200043e57825182559160200191906001019062000421565b506200044c92915062000450565b5090565b5b808211156200044c576000815560010162000451565b6000602082840312156200047a57600080fd5b81516001600160a01b03811681146200049257600080fd5b9392505050565b600060208284031215620004ac57600080fd5b5051919050565b600060208284031215620004c657600080fd5b815180151581146200049257600080fd5b600181811c90821680620004ec57607f821691505b602082108114156200050e57634e487b7160e01b600052602260045260246000fd5b50919050565b61244c80620005246000396000f3fe608060405234801561001057600080fd5b50600436106101a35760003560e01c80635c975abb116100ee578063a457c2d711610097578063c47f002711610071578063c47f002714610397578063c621bf8a146103aa578063d505accf146103bd578063dd62ed3e146103d057600080fd5b8063a457c2d71461035e578063a9059cbb14610371578063b84c82461461038457600080fd5b80637ecebe00116100c85780637ecebe001461032e5780638456cb591461034e57806395d89b411461035657600080fd5b80635c975abb146102da57806370a08231146102e557806379cc67901461031b57600080fd5b80633644e5151161015057806340c10f191161012a57806340c10f191461026a57806342966c681461027d578063481c6a751461029057600080fd5b80633644e51514610244578063395093511461024d5780633f4ba83a1461026057600080fd5b806323b872dd1161018157806323b872dd146101fb57806330adf81f1461020e578063313ce5671461023557600080fd5b806306fdde03146101a8578063095ea7b3146101c657806318160ddd146101e9575b600080fd5b6101b0610416565b6040516101bd9190611ffd565b60405180910390f35b6101d96101d4366004612092565b6104a8565b60405190151581526020016101bd565b6002545b6040519081526020016101bd565b6101d96102093660046120be565b6104c0565b6101ed7f6e71edae12b1b97f4d1f60370fef10105fa2faae0126114a169c64845d6126c981565b604051601281526020016101bd565b6101ed60065481565b6101d961025b366004612092565b6104e4565b610268610530565b005b610268610278366004612092565b6106e1565b61026861028b3660046120ff565b6108e6565b6005546102b590610100900473ffffffffffffffffffffffffffffffffffffffff1681565b60405173ffffffffffffffffffffffffffffffffffffffff90911681526020016101bd565b60055460ff166101d9565b6101ed6102f3366004612118565b73ffffffffffffffffffffffffffffffffffffffff1660009081526020819052604090205490565b610268610329366004612092565b61092f565b6101ed61033c366004612118565b60076020526000908152604090205481565b610268610b37565b6101b0610ce1565b6101d961036c366004612092565b610cf0565b6101d961037f366004612092565b610dc1565b61026861039236600461216b565b610dcf565b6102686103a536600461216b565b610fae565b6102686103b83660046120ff565b611189565b6102686103cb36600461223a565b611237565b6101ed6103de3660046122b1565b73ffffffffffffffffffffffffffffffffffffffff918216600090815260016020908152604080832093909416825291909152205490565b606060088054610425906122ea565b80601f0160208091040260200160405190810160405280929190818152602001828054610451906122ea565b801561049e5780601f106104735761010080835404028352916020019161049e565b820191906000526020600020905b81548152906001019060200180831161048157829003601f168201915b5050505050905090565b6000336104b6818585611522565b5060019392505050565b6000336104ce8582856116d5565b6104d98585856117ac565b506001949350505050565b33600081815260016020908152604080832073ffffffffffffffffffffffffffffffffffffffff871684529091528120549091906104b6908290869061052b90879061236d565b611522565b600554604080517fe63ab1e9000000000000000000000000000000000000000000000000000000008152905161010090920473ffffffffffffffffffffffffffffffffffffffff16916391d1485491839163e63ab1e991600480820192602092909190829003018186803b1580156105a757600080fd5b505afa1580156105bb573d6000803e3d6000fd5b505050506040513d601f19601f820116820180604052508101906105df9190612385565b6040517fffffffff0000000000000000000000000000000000000000000000000000000060e084901b168152600481019190915233602482015260440160206040518083038186803b15801561063457600080fd5b505afa158015610648573d6000803e3d6000fd5b505050506040513d601f19601f8201168201806040525081019061066c919061239e565b6106d7576040517f08c379a000000000000000000000000000000000000000000000000000000000815260206004820152601c60248201527f476f7665726e616e636520746f6b656e3a206e6f74207061757365720000000060448201526064015b60405180910390fd5b6106df6117c4565b565b600554604080517f2f533cb7000000000000000000000000000000000000000000000000000000008152905161010090920473ffffffffffffffffffffffffffffffffffffffff16916391d14854918391632f533cb791600480820192602092909190829003018186803b15801561075857600080fd5b505afa15801561076c573d6000803e3d6000fd5b505050506040513d601f19601f820116820180604052508101906107909190612385565b6040517fffffffff0000000000000000000000000000000000000000000000000000000060e084901b168152600481019190915233602482015260440160206040518083038186803b1580156107e557600080fd5b505afa1580156107f9573d6000803e3d6000fd5b505050506040513d601f19601f8201168201806040525081019061081d919061239e565b610883576040517f08c379a000000000000000000000000000000000000000000000000000000000815260206004820152601c60248201527f476f7665726e616e636520746f6b656e3a206e6f74206d696e7465720000000060448201526064016106ce565b61088b611841565b61089582826118ae565b604051818152339073ffffffffffffffffffffffffffffffffffffffff8416907fb1233017d63154bc561d57c16f7b6a55e2e1acd7fcac94045a9f35fb31a850ca9060200160405180910390a35050565b6108ee611841565b6108f7816119ad565b60405181815233907f62626c8ae1f1f3ad3b2f42ba7b806bbc48e9a59dab06414984113eaab612fe479060200160405180910390a250565b600554604080517ff39e5a47000000000000000000000000000000000000000000000000000000008152905161010090920473ffffffffffffffffffffffffffffffffffffffff16916391d1485491839163f39e5a4791600480820192602092909190829003018186803b1580156109a657600080fd5b505afa1580156109ba573d6000803e3d6000fd5b505050506040513d601f19601f820116820180604052508101906109de9190612385565b6040517fffffffff0000000000000000000000000000000000000000000000000000000060e084901b168152600481019190915233602482015260440160206040518083038186803b158015610a3357600080fd5b505afa158015610a47573d6000803e3d6000fd5b505050506040513d601f19601f82011682018060405250810190610a6b919061239e565b610ad1576040517f08c379a000000000000000000000000000000000000000000000000000000000815260206004820152601c60248201527f476f7665726e616e636520746f6b656e3a206e6f74206275726e65720000000060448201526064016106ce565b610ad9611841565b610ae382826119ba565b8173ffffffffffffffffffffffffffffffffffffffff167f62626c8ae1f1f3ad3b2f42ba7b806bbc48e9a59dab06414984113eaab612fe4782604051610b2b91815260200190565b60405180910390a25050565b600554604080517fe63ab1e9000000000000000000000000000000000000000000000000000000008152905161010090920473ffffffffffffffffffffffffffffffffffffffff16916391d1485491839163e63ab1e991600480820192602092909190829003018186803b158015610bae57600080fd5b505afa158015610bc2573d6000803e3d6000fd5b505050506040513d601f19601f82011682018060405250810190610be69190612385565b6040517fffffffff0000000000000000000000000000000000000000000000000000000060e084901b168152600481019190915233602482015260440160206040518083038186803b158015610c3b57600080fd5b505afa158015610c4f573d6000803e3d6000fd5b505050506040513d601f19601f82011682018060405250810190610c73919061239e565b610cd9576040517f08c379a000000000000000000000000000000000000000000000000000000000815260206004820152601c60248201527f476f7665726e616e636520746f6b656e3a206e6f74207061757365720000000060448201526064016106ce565b6106df611b8a565b606060098054610425906122ea565b33600081815260016020908152604080832073ffffffffffffffffffffffffffffffffffffffff8716845290915281205490919083811015610db4576040517f08c379a000000000000000000000000000000000000000000000000000000000815260206004820152602560248201527f45524332303a2064656372656173656420616c6c6f77616e63652062656c6f7760448201527f207a65726f00000000000000000000000000000000000000000000000000000060648201526084016106ce565b6104d98286868403611522565b6000336104b68185856117ac565b600554604080517fa217fddf000000000000000000000000000000000000000000000000000000008152905161010090920473ffffffffffffffffffffffffffffffffffffffff16916391d1485491839163a217fddf91600480820192602092909190829003018186803b158015610e4657600080fd5b505afa158015610e5a573d6000803e3d6000fd5b505050506040513d601f19601f82011682018060405250810190610e7e9190612385565b6040517fffffffff0000000000000000000000000000000000000000000000000000000060e084901b168152600481019190915233602482015260440160206040518083038186803b158015610ed357600080fd5b505afa158015610ee7573d6000803e3d6000fd5b505050506040513d601f19601f82011682018060405250810190610f0b919061239e565b610f97576040517f08c379a000000000000000000000000000000000000000000000000000000000815260206004820152602560248201527f45524332303a206465706c6f796572206d757374206265206d616e616765722060448201527f61646d696e00000000000000000000000000000000000000000000000000000060648201526084016106ce565b8051610faa906009906020840190611f64565b5050565b600554604080517fa217fddf000000000000000000000000000000000000000000000000000000008152905161010090920473ffffffffffffffffffffffffffffffffffffffff16916391d1485491839163a217fddf91600480820192602092909190829003018186803b15801561102557600080fd5b505afa158015611039573d6000803e3d6000fd5b505050506040513d601f19601f8201168201806040525081019061105d9190612385565b6040517fffffffff0000000000000000000000000000000000000000000000000000000060e084901b168152600481019190915233602482015260440160206040518083038186803b1580156110b257600080fd5b505afa1580156110c6573d6000803e3d6000fd5b505050506040513d601f19601f820116820180604052508101906110ea919061239e565b611176576040517f08c379a000000000000000000000000000000000000000000000000000000000815260206004820152602560248201527f45524332303a206465706c6f796572206d757374206265206d616e616765722060448201527f61646d696e00000000000000000000000000000000000000000000000000000060648201526084016106ce565b8051610faa906008906020840190611f64565b6000600560019054906101000a900473ffffffffffffffffffffffffffffffffffffffff1673ffffffffffffffffffffffffffffffffffffffff1663c5f956af6040518163ffffffff1660e01b815260040160206040518083038186803b1580156111f357600080fd5b505afa158015611207573d6000803e3d6000fd5b505050506040513d601f19601f8201168201806040525081019061122b91906123c0565b9050610faa81836106e1565b428410156112a1576040517f08c379a000000000000000000000000000000000000000000000000000000000815260206004820152600f60248201527f446f6c6c61723a2045585049524544000000000000000000000000000000000060448201526064016106ce565b60065473ffffffffffffffffffffffffffffffffffffffff8816600090815260076020526040812080549192917f6e71edae12b1b97f4d1f60370fef10105fa2faae0126114a169c64845d6126c9918b918b918b919087611301836123dd565b9091555060408051602081019690965273ffffffffffffffffffffffffffffffffffffffff94851690860152929091166060840152608083015260a082015260c0810187905260e001604051602081830303815290604052805190602001206040516020016113a29291907f190100000000000000000000000000000000000000000000000000000000000081526002810192909252602282015260420190565b604080517fffffffffffffffffffffffffffffffffffffffffffffffffffffffffffffffe08184030181528282528051602091820120600080855291840180845281905260ff88169284019290925260608301869052608083018590529092509060019060a0016020604051602081039080840390855afa15801561142b573d6000803e3d6000fd5b50506040517fffffffffffffffffffffffffffffffffffffffffffffffffffffffffffffffe0015191505073ffffffffffffffffffffffffffffffffffffffff8116158015906114a657508873ffffffffffffffffffffffffffffffffffffffff168173ffffffffffffffffffffffffffffffffffffffff16145b61150c576040517f08c379a000000000000000000000000000000000000000000000000000000000815260206004820152601960248201527f446f6c6c61723a20494e56414c49445f5349474e41545552450000000000000060448201526064016106ce565b611517898989611522565b505050505050505050565b73ffffffffffffffffffffffffffffffffffffffff83166115c4576040517f08c379a0000000000000000000000000000000000000000000000000000000008152602060048201526024808201527f45524332303a20617070726f76652066726f6d20746865207a65726f2061646460448201527f726573730000000000000000000000000000000000000000000000000000000060648201526084016106ce565b73ffffffffffffffffffffffffffffffffffffffff8216611667576040517f08c379a000000000000000000000000000000000000000000000000000000000815260206004820152602260248201527f45524332303a20617070726f766520746f20746865207a65726f20616464726560448201527f737300000000000000000000000000000000000000000000000000000000000060648201526084016106ce565b73ffffffffffffffffffffffffffffffffffffffff83811660008181526001602090815260408083209487168084529482529182902085905590518481527f8c5be1e5ebec7d5bd14f71427d1e84f3dd0314c0f7b2291e5b200ac8c7c3b925910160405180910390a3505050565b73ffffffffffffffffffffffffffffffffffffffff8381166000908152600160209081526040808320938616835292905220547fffffffffffffffffffffffffffffffffffffffffffffffffffffffffffffffff81146117a65781811015611799576040517f08c379a000000000000000000000000000000000000000000000000000000000815260206004820152601d60248201527f45524332303a20696e73756666696369656e7420616c6c6f77616e636500000060448201526064016106ce565b6117a68484848403611522565b50505050565b6117b4611841565b6117bf838383611be5565b505050565b6117cc611e5f565b600580547fffffffffffffffffffffffffffffffffffffffffffffffffffffffffffffff001690557f5db9ee0a495bf2e6ff9c91a7834c1ba4fdd244a5e8aa4e537bd38aeae4b073aa335b60405173ffffffffffffffffffffffffffffffffffffffff909116815260200160405180910390a1565b60055460ff16156106df576040517f08c379a000000000000000000000000000000000000000000000000000000000815260206004820152601060248201527f5061757361626c653a207061757365640000000000000000000000000000000060448201526064016106ce565b73ffffffffffffffffffffffffffffffffffffffff821661192b576040517f08c379a000000000000000000000000000000000000000000000000000000000815260206004820152601f60248201527f45524332303a206d696e7420746f20746865207a65726f20616464726573730060448201526064016106ce565b61193760008383611ecb565b8060026000828254611949919061236d565b909155505073ffffffffffffffffffffffffffffffffffffffff8216600081815260208181526040808320805486019055518481527fddf252ad1be2c89b69c2b068fc378daa952ba7f163c4a11628f55a4df523b3ef910160405180910390a35050565b6119b733826119ba565b50565b73ffffffffffffffffffffffffffffffffffffffff8216611a5d576040517f08c379a000000000000000000000000000000000000000000000000000000000815260206004820152602160248201527f45524332303a206275726e2066726f6d20746865207a65726f2061646472657360448201527f730000000000000000000000000000000000000000000000000000000000000060648201526084016106ce565b611a6982600083611ecb565b73ffffffffffffffffffffffffffffffffffffffff821660009081526020819052604090205481811015611b1f576040517f08c379a000000000000000000000000000000000000000000000000000000000815260206004820152602260248201527f45524332303a206275726e20616d6f756e7420657863656564732062616c616e60448201527f636500000000000000000000000000000000000000000000000000000000000060648201526084016106ce565b73ffffffffffffffffffffffffffffffffffffffff83166000818152602081815260408083208686039055600280548790039055518581529192917fddf252ad1be2c89b69c2b068fc378daa952ba7f163c4a11628f55a4df523b3ef910160405180910390a3505050565b611b92611841565b600580547fffffffffffffffffffffffffffffffffffffffffffffffffffffffffffffff001660011790557f62e78cea01bee320cd4e420270b5ea74000d11b0c9f74754ebdbfc544b05a2586118173390565b73ffffffffffffffffffffffffffffffffffffffff8316611c88576040517f08c379a000000000000000000000000000000000000000000000000000000000815260206004820152602560248201527f45524332303a207472616e736665722066726f6d20746865207a65726f20616460448201527f647265737300000000000000000000000000000000000000000000000000000060648201526084016106ce565b73ffffffffffffffffffffffffffffffffffffffff8216611d2b576040517f08c379a000000000000000000000000000000000000000000000000000000000815260206004820152602360248201527f45524332303a207472616e7366657220746f20746865207a65726f206164647260448201527f657373000000000000000000000000000000000000000000000000000000000060648201526084016106ce565b611d36838383611ecb565b73ffffffffffffffffffffffffffffffffffffffff831660009081526020819052604090205481811015611dec576040517f08c379a000000000000000000000000000000000000000000000000000000000815260206004820152602660248201527f45524332303a207472616e7366657220616d6f756e742065786365656473206260448201527f616c616e6365000000000000000000000000000000000000000000000000000060648201526084016106ce565b73ffffffffffffffffffffffffffffffffffffffff848116600081815260208181526040808320878703905593871680835291849020805487019055925185815290927fddf252ad1be2c89b69c2b068fc378daa952ba7f163c4a11628f55a4df523b3ef910160405180910390a36117a6565b60055460ff166106df576040517f08c379a000000000000000000000000000000000000000000000000000000000815260206004820152601460248201527f5061757361626c653a206e6f742070617573656400000000000000000000000060448201526064016106ce565b6117bf83838360055460ff16156117bf576040517f08c379a000000000000000000000000000000000000000000000000000000000815260206004820152602a60248201527f45524332305061757361626c653a20746f6b656e207472616e7366657220776860448201527f696c65207061757365640000000000000000000000000000000000000000000060648201526084016106ce565b828054611f70906122ea565b90600052602060002090601f016020900481019282611f925760008555611fd8565b82601f10611fab57805160ff1916838001178555611fd8565b82800160010185558215611fd8579182015b82811115611fd8578251825591602001919060010190611fbd565b50611fe4929150611fe8565b5090565b5b80821115611fe45760008155600101611fe9565b600060208083528351808285015260005b8181101561202a5785810183015185820160400152820161200e565b8181111561203c576000604083870101525b50601f017fffffffffffffffffffffffffffffffffffffffffffffffffffffffffffffffe016929092016040019392505050565b73ffffffffffffffffffffffffffffffffffffffff811681146119b757600080fd5b600080604083850312156120a557600080fd5b82356120b081612070565b946020939093013593505050565b6000806000606084860312156120d357600080fd5b83356120de81612070565b925060208401356120ee81612070565b929592945050506040919091013590565b60006020828403121561211157600080fd5b5035919050565b60006020828403121561212a57600080fd5b813561213581612070565b9392505050565b7f4e487b7100000000000000000000000000000000000000000000000000000000600052604160045260246000fd5b60006020828403121561217d57600080fd5b813567ffffffffffffffff8082111561219557600080fd5b818401915084601f8301126121a957600080fd5b8135818111156121bb576121bb61213c565b604051601f82017fffffffffffffffffffffffffffffffffffffffffffffffffffffffffffffffe0908116603f011681019083821181831017156122015761220161213c565b8160405282815287602084870101111561221a57600080fd5b826020860160208301376000928101602001929092525095945050505050565b600080600080600080600060e0888a03121561225557600080fd5b873561226081612070565b9650602088013561227081612070565b95506040880135945060608801359350608088013560ff8116811461229457600080fd5b9699959850939692959460a0840135945060c09093013592915050565b600080604083850312156122c457600080fd5b82356122cf81612070565b915060208301356122df81612070565b809150509250929050565b600181811c908216806122fe57607f821691505b60208210811415612338577f4e487b7100000000000000000000000000000000000000000000000000000000600052602260045260246000fd5b50919050565b7f4e487b7100000000000000000000000000000000000000000000000000000000600052601160045260246000fd5b600082198211156123805761238061233e565b500190565b60006020828403121561239757600080fd5b5051919050565b6000602082840312156123b057600080fd5b8151801515811461213557600080fd5b6000602082840312156123d257600080fd5b815161213581612070565b60007fffffffffffffffffffffffffffffffffffffffffffffffffffffffffffffffff82141561240f5761240f61233e565b506001019056fea264697066735822122011ed7eb831576d6d6ae5a3847750ec189ac3897fc4318e3b43a40cf9dd69cbfa64736f6c63430008090033",
    "linkReferences": {}
  },
  "methodIdentifiers": {
    "DOMAIN_SEPARATOR()": "3644e515",
    "PERMIT_TYPEHASH()": "30adf81f",
    "allowance(address,address)": "dd62ed3e",
    "approve(address,uint256)": "095ea7b3",
    "balanceOf(address)": "70a08231",
    "burn(uint256)": "42966c68",
    "burnFrom(address,uint256)": "79cc6790",
    "decimals()": "313ce567",
    "decreaseAllowance(address,uint256)": "a457c2d7",
    "increaseAllowance(address,uint256)": "39509351",
    "manager()": "481c6a75",
    "mint(address,uint256)": "40c10f19",
    "name()": "06fdde03",
    "nonces(address)": "7ecebe00",
    "pause()": "8456cb59",
    "paused()": "5c975abb",
    "permit(address,address,uint256,uint256,uint8,bytes32,bytes32)": "d505accf",
    "raiseCapital(uint256)": "c621bf8a",
    "setName(string)": "c47f0027",
    "setSymbol(string)": "b84c8246",
    "symbol()": "95d89b41",
    "totalSupply()": "18160ddd",
    "transfer(address,uint256)": "a9059cbb",
    "transferFrom(address,address,uint256)": "23b872dd",
    "unpause()": "3f4ba83a"
  },
  "id": 61
}