{
  "abi": [
    {
      "inputs": [],
      "stateMutability": "nonpayable",
      "type": "constructor"
    },
    {
      "inputs": [
        {
          "internalType": "uint256",
          "name": "dollarsToBurn",
          "type": "uint256"
        }
      ],
      "name": "getCouponAmount",
      "outputs": [
        {
          "internalType": "uint256",
          "name": "",
          "type": "uint256"
        }
      ],
      "stateMutability": "view",
      "type": "function"
    }
  ],
  "bytecode": {
    "object": "0x6080604052348015600f57600080fd5b50609b8061001e6000396000f3fe6080604052348015600f57600080fd5b506004361060285760003560e01c80639172dd2314602d575b600080fd5b603b6038366004604d565b90565b60405190815260200160405180910390f35b600060208284031215605e57600080fd5b503591905056fea264697066735822122068c2b0c05f0f816cc9f5b9de58e496343d2b9e5137e9cd606960d8ad6da1c58a64736f6c63430008090033",
    "linkReferences": {}
  },
  "methodIdentifiers": {
    "getCouponAmount(uint256)": "9172dd23"
  },
  "id": 73
}