{
  "abi": [
    {
      "inputs": [],
      "stateMutability": "nonpayable",
      "type": "constructor"
    },
    {
      "inputs": [
        {
          "internalType": "uint256",
          "name": "dollarsToBurn",
          "type": "uint256"
        }
      ],
      "name": "getCouponAmount",
      "outputs": [
        {
          "internalType": "uint256",
          "name": "",
          "type": "uint256"
        }
      ],
      "stateMutability": "view",
      "type": "function"
    }
  ],
  "bytecode": {
    "object": "0x6080604052348015600f57600080fd5b50609b8061001e6000396000f3fe6080604052348015600f57600080fd5b506004361060285760003560e01c80639172dd2314602d575b600080fd5b603b6038366004604d565b90565b60405190815260200160405180910390f35b600060208284031215605e57600080fd5b503591905056fea26469706673582212207fcd1e99ea23116c67b78c78f64e6ba10b64da3b5dcc2fa6a0e1e7bc3e9cfc3f64736f6c63430008090033",
    "linkReferences": {}
  },
  "methodIdentifiers": {
    "getCouponAmount(uint256)": "9172dd23"
  },
  "id": 64
}