{
  "abi": [
    {
      "inputs": [
        {
          "internalType": "address",
          "name": "_manager",
          "type": "address"
        }
      ],
      "stateMutability": "nonpayable",
      "type": "constructor"
    },
    {
      "inputs": [],
      "name": "factory",
      "outputs": [
        {
          "internalType": "contract IUniswapV2Factory",
          "name": "",
          "type": "address"
        }
      ],
      "stateMutability": "view",
      "type": "function"
    },
    {
      "inputs": [],
      "name": "manager",
      "outputs": [
        {
          "internalType": "contract UbiquityAlgorithmicDollarManager",
          "name": "",
          "type": "address"
        }
      ],
      "stateMutability": "view",
      "type": "function"
    },
    {
      "inputs": [],
      "name": "pair",
      "outputs": [
        {
          "internalType": "contract IUniswapV2Pair",
          "name": "",
          "type": "address"
        }
      ],
      "stateMutability": "view",
      "type": "function"
    }
  ],
  "bytecode": {
    "object": "0x6080604052600080546001600160a01b03191673c0aee478e3658e2610c5f7a4a2e1777ce9e4f2ac17905534801561003657600080fd5b506040516106a13803806106a183398101604081905261005591610566565b600180546001600160a01b0319166001600160a01b03831690811790915560408051631787d40360e31b815290516000929163bc3ea018916004808301926020929190829003018186803b1580156100ac57600080fd5b505afa1580156100c0573d6000803e3d6000fd5b505050506040513d601f19601f820116820180604052508101906100e49190610566565b6001600160a01b031614156101405760405162461bcd60e51b815260206004820152601660248201527f446f6c6c61722061646472657373206e6f74207365740000000000000000000060448201526064015b60405180910390fd5b60015460408051630b42165d60e41b815290516000926001600160a01b03169163b42165d0916004808301926020929190829003018186803b15801561018557600080fd5b505afa158015610199573d6000803e3d6000fd5b505050506040513d601f19601f820116820180604052508101906101bd9190610566565b6001600160a01b031614156102145760405162461bcd60e51b815260206004820152601460248201527f75474f562041646472657373206e6f74207365740000000000000000000000006044820152606401610137565b6000805460015460408051631787d40360e31b815290516001600160a01b039384169363e6a4390593169163bc3ea018916004808301926020929190829003018186803b15801561026457600080fd5b505afa158015610278573d6000803e3d6000fd5b505050506040513d601f19601f8201168201806040525081019061029c9190610566565b600160009054906101000a90046001600160a01b03166001600160a01b031663b42165d06040518163ffffffff1660e01b815260040160206040518083038186803b1580156102ea57600080fd5b505afa1580156102fe573d6000803e3d6000fd5b505050506040513d601f19601f820116820180604052508101906103229190610566565b6040516001600160e01b031960e085901b1681526001600160a01b0392831660048201529116602482015260440160206040518083038186803b15801561036857600080fd5b505afa15801561037c573d6000803e3d6000fd5b505050506040513d601f19601f820116820180604052508101906103a09190610566565b90506001600160a01b0381166105405760005460015460408051631787d40360e31b815290516001600160a01b039384169363c9c6539693169163bc3ea018916004808301926020929190829003018186803b1580156103ff57600080fd5b505afa158015610413573d6000803e3d6000fd5b505050506040513d601f19601f820116820180604052508101906104379190610566565b600160009054906101000a90046001600160a01b03166001600160a01b031663b42165d06040518163ffffffff1660e01b815260040160206040518083038186803b15801561048557600080fd5b505afa158015610499573d6000803e3d6000fd5b505050506040513d601f19601f820116820180604052508101906104bd9190610566565b6040516001600160e01b031960e085901b1681526001600160a01b03928316600482015291166024820152604401602060405180830381600087803b15801561050557600080fd5b505af1158015610519573d6000803e3d6000fd5b505050506040513d601f19601f8201168201806040525081019061053d9190610566565b90505b600280546001600160a01b0319166001600160a01b039290921691909117905550610596565b60006020828403121561057857600080fd5b81516001600160a01b038116811461058f57600080fd5b9392505050565b60fd806105a46000396000f3fe6080604052348015600f57600080fd5b5060043610603c5760003560e01c8063481c6a75146041578063a8aa1b31146089578063c45a01551460a8575b600080fd5b60015460609073ffffffffffffffffffffffffffffffffffffffff1681565b60405173ffffffffffffffffffffffffffffffffffffffff909116815260200160405180910390f35b60025460609073ffffffffffffffffffffffffffffffffffffffff1681565b60005460609073ffffffffffffffffffffffffffffffffffffffff168156fea26469706673582212208c2cb9cd9ae6bacce2a6cd86e29a30d12a555d7f4fc20e040f839b582ce2334c64736f6c63430008090033",
    "linkReferences": {}
  },
  "methodIdentifiers": {
    "factory()": "c45a0155",
    "manager()": "481c6a75",
    "pair()": "a8aa1b31"
  },
  "id": 54
}