{
  "abi": [
    {
      "inputs": [],
      "name": "ONE",
      "outputs": [
        {
          "internalType": "uint256",
          "name": "",
          "type": "uint256"
        }
      ],
      "stateMutability": "view",
      "type": "function"
    },
    {
      "inputs": [
        {
          "internalType": "uint256",
          "name": "_totalLpDeposited",
          "type": "uint256"
        },
        {
          "internalType": "uint256",
          "name": "_bondingLpBalance",
          "type": "uint256"
        },
        {
          "internalType": "uint256",
          "name": "_amount",
          "type": "uint256"
        }
      ],
      "name": "correctedAmountToWithdraw",
      "outputs": [
        {
          "internalType": "uint256",
          "name": "",
          "type": "uint256"
        }
      ],
      "stateMutability": "pure",
      "type": "function"
    },
    {
      "inputs": [
        {
          "components": [
            {
              "internalType": "address",
              "name": "minter",
              "type": "address"
            },
            {
              "internalType": "uint256",
              "name": "lpFirstDeposited",
              "type": "uint256"
            },
            {
              "internalType": "uint256",
              "name": "creationBlock",
              "type": "uint256"
            },
            {
              "internalType": "uint256",
              "name": "lpRewardDebt",
              "type": "uint256"
            },
            {
              "internalType": "uint256",
              "name": "endBlock",
              "type": "uint256"
            },
            {
              "internalType": "uint256",
              "name": "lpAmount",
              "type": "uint256"
            }
          ],
          "internalType": "struct BondingShareV2.Bond",
          "name": "_bond",
          "type": "tuple"
        },
        {
          "internalType": "uint256[2]",
          "name": "_shareInfo",
          "type": "uint256[2]"
        },
        {
          "internalType": "uint256",
          "name": "_amount",
          "type": "uint256"
        }
      ],
      "name": "lpRewardsAddLiquidityNormalization",
      "outputs": [
        {
          "internalType": "uint256",
          "name": "",
          "type": "uint256"
        }
      ],
      "stateMutability": "pure",
      "type": "function"
    },
    {
      "inputs": [
        {
          "components": [
            {
              "internalType": "address",
              "name": "minter",
              "type": "address"
            },
            {
              "internalType": "uint256",
              "name": "lpFirstDeposited",
              "type": "uint256"
            },
            {
              "internalType": "uint256",
              "name": "creationBlock",
              "type": "uint256"
            },
            {
              "internalType": "uint256",
              "name": "lpRewardDebt",
              "type": "uint256"
            },
            {
              "internalType": "uint256",
              "name": "endBlock",
              "type": "uint256"
            },
            {
              "internalType": "uint256",
              "name": "lpAmount",
              "type": "uint256"
            }
          ],
          "internalType": "struct BondingShareV2.Bond",
          "name": "_bond",
          "type": "tuple"
        },
        {
          "internalType": "uint256[2]",
          "name": "_shareInfo",
          "type": "uint256[2]"
        },
        {
          "internalType": "uint256",
          "name": "_amount",
          "type": "uint256"
        }
      ],
      "name": "lpRewardsRemoveLiquidityNormalization",
      "outputs": [
        {
          "internalType": "uint256",
          "name": "",
          "type": "uint256"
        }
      ],
      "stateMutability": "pure",
      "type": "function"
    },
    {
      "inputs": [
        {
          "components": [
            {
              "internalType": "address",
              "name": "minter",
              "type": "address"
            },
            {
              "internalType": "uint256",
              "name": "lpFirstDeposited",
              "type": "uint256"
            },
            {
              "internalType": "uint256",
              "name": "creationBlock",
              "type": "uint256"
            },
            {
              "internalType": "uint256",
              "name": "lpRewardDebt",
              "type": "uint256"
            },
            {
              "internalType": "uint256",
              "name": "endBlock",
              "type": "uint256"
            },
            {
              "internalType": "uint256",
              "name": "lpAmount",
              "type": "uint256"
            }
          ],
          "internalType": "struct BondingShareV2.Bond",
          "name": "_bond",
          "type": "tuple"
        },
        {
          "internalType": "uint256[2]",
          "name": "_shareInfo",
          "type": "uint256[2]"
        },
        {
          "internalType": "uint256",
          "name": "_amount",
          "type": "uint256"
        }
      ],
      "name": "sharesForLP",
      "outputs": [
        {
          "internalType": "uint256",
          "name": "_uLP",
          "type": "uint256"
        }
      ],
      "stateMutability": "pure",
      "type": "function"
    }
  ],
  "bytecode": {
    "object": "0x608060405234801561001057600080fd5b50610e5f806100206000396000f3fe608060405234801561001057600080fd5b50600436106100675760003560e01c8063a64154f011610050578063a64154f0146100a4578063c2ee3a08146100b8578063d5a8cf64146100a457600080fd5b8063629056cb1461006c578063a609d91214610091575b600080fd5b61007f61007a366004610cf5565b6100c7565b60405190815260200160405180910390f35b61007f61009f366004610d9f565b610184565b61007f6100b2366004610cf5565b92915050565b61007f670de0b6b3a764000081565b815160009081906100d7906101f7565b905060006100e4846101f7565b905060006100f58760a001516101f7565b90506101796101528261012a7fffffffffffffffffffffffffffffffff00000000000000000000000000000000871686610262565b7fffffffffffffffffffffffffffffffff0000000000000000000000000000000016906106a7565b7fffffffffffffffffffffffffffffffff0000000000000000000000000000000016610abf565b979650505050505050565b600083831080156101955750600083115b156101ed576101e66101526101a9866101f7565b61012a6101b5876101f7565b6101be876101f7565b7fffffffffffffffffffffffffffffffff000000000000000000000000000000001690610262565b90506101f0565b50805b9392505050565b60008161020657506000919050565b81600061021282610b7d565b9050607081101561022b578060700382901b915061023e565b607081111561023e576070810382901c91505b613fff0160701b6dffffffffffffffffffffffffffff919091161760801b92915050565b6000617fff60f084811c8216919084901c8116908214156103e25780617fff1415610363577fffffffffffffffffffffffffffffffff0000000000000000000000000000000085811690851614156102e1575050507f8000000000000000000000000000000000000000000000000000000000000000811682186100b2565b7f80000000000000000000000000000000000000000000000000000000000000007fffffffffffffffffffffffffffffffff00000000000000000000000000000000868618161415610338575050508181176100b2565b507f7fff80000000000000000000000000000000000000000000000000000000000091506100b29050565b7f7fffffffffffffffffffffffffffffff0000000000000000000000000000000084166103b557507f7fff80000000000000000000000000000000000000000000000000000000000091506100b29050565b5050507f8000000000000000000000000000000000000000000000000000000000000000811682186100b2565b80617fff141561046b577f7fffffffffffffffffffffffffffffff00000000000000000000000000000000851661043e57507f7fff80000000000000000000000000000000000000000000000000000000000091506100b29050565b5050507f8000000000000000000000000000000000000000000000000000000000000000821681186100b2565b6dffffffffffffffffffffffffffff608086901c168261048e57600192506104a0565b6e010000000000000000000000000000175b6dffffffffffffffffffffffffffff608086901c16826104c357600192506104d5565b6e010000000000000000000000000000175b908102908161053b577f80000000000000000000000000000000000000000000000000000000000000008787181661050e576000610530565b7f80000000000000000000000000000000000000000000000000000000000000005b9450505050506100b2565b9282019260007c02000000000000000000000000000000000000000000000000000000008310156105a0577c01000000000000000000000000000000000000000000000000000000008310156105995761059483610b7d565b6105a3565b60e06105a3565b60e15b905061407081860110156105be576000945060009250610662565b6140e08186011015610601576140708510156105e357846140700383901c92506105f8565b6140708511156105f857614070850383901b92505b60009450610662565b61c0dd818601111561061b57617fff945060009250610662565b6070811115610632576070810383901c9250610645565b6070811015610645578060700383901b92505b6dffffffffffffffffffffffffffff831692506140df8186010394505b82607086901b888a186f8000000000000000000000000000000060801b1660801c6fffffffffffffffffffffffffffffffff16171760801b9550505050505092915050565b6000617fff60f084811c8216919084901c8116908214156106f75780617fff14156103b557507f7fff80000000000000000000000000000000000000000000000000000000000091506100b29050565b80617fff141561077f577dffffffffffffffffffffffffffff0000000000000000000000000000000084161561075257507f7fff80000000000000000000000000000000000000000000000000000000000091506100b29050565b5050508082187f8000000000000000000000000000000000000000000000000000000000000000166100b2565b7f7fffffffffffffffffffffffffffffff000000000000000000000000000000008416610847577f7fffffffffffffffffffffffffffffff0000000000000000000000000000000085166107f857507f7fff80000000000000000000000000000000000000000000000000000000000091506100b29050565b5050508082187f8000000000000000000000000000000000000000000000000000000000000000167f7fff000000000000000000000000000000000000000000000000000000000000176100b2565b6dffffffffffffffffffffffffffff608085901c168161086a576001915061087c565b6e010000000000000000000000000000175b6dffffffffffffffffffffffffffff608087901c16836108e05780156108db5760006108a782610b7d565b6001955060e2039384017fffffffffffffffffffffffffffffffffffffffffffffffffffffffffffffff8e01939190911b90505b6108f5565b6e0100000000000000000000000000001760721b5b81818161090457610904610dcb565b0490508061093c577f80000000000000000000000000000000000000000000000000000000000000008787181661050e576000610530565b6d100000000000000000000000000081101561095a5761095a610dfa565b60006e0800000000000000000000000000008210156109ba576e0400000000000000000000000000008210156109af576e0200000000000000000000000000008210156109a85760706109b2565b60716109b2565b60725b60ff166109c3565b6109c382610b7d565b9050836140710181860111156109e157617fff945060009150610a7b565b83818601613ffc0110156109fc576000945060009150610a7b565b83818601613f8c011015610a49578385613ffc011115610a27578385613ffc010382901b9150610a40565b8385613ffc011015610a4057613ffc8585030382901c91505b60009450610a7b565b6070811115610a5c576070810382901c91505b6dffffffffffffffffffffffffffff8216915083818601613f8d010394505b81607086901b888a186f8000000000000000000000000000000060801b1660801c6fffffffffffffffffffffffffffffffff16171760801b955050505050506100b2565b6000617fff60f083901c16613fff811015610add5750600092915050565b6f80000000000000000000000000000000608084901c10610afd57600080fd5b6140fe811115610b0c57600080fd5b6e0100000000000000000000000000006dffffffffffffffffffffffffffff608085901c161761406f821015610b485761406f8290031c6101f0565b61406f8211156101f0577fffffffffffffffffffffffffffffffffffffffffffffffffffffffffffffbf9182011b9392505050565b6000808211610b8b57600080fd5b60007001000000000000000000000000000000008310610bad57608092831c92015b680100000000000000008310610bc557604092831c92015b6401000000008310610bd957602092831c92015b620100008310610beb57601092831c92015b6101008310610bfc57600892831c92015b60108310610c0c57600492831c92015b60048310610c1c57600292831c92015b600283106100b25760010192915050565b7f4e487b7100000000000000000000000000000000000000000000000000000000600052604160045260246000fd5b60405160c0810167ffffffffffffffff81118282101715610c7f57610c7f610c2d565b60405290565b600082601f830112610c9657600080fd5b6040516040810181811067ffffffffffffffff82111715610cb957610cb9610c2d565b8060405250806040840185811115610cd057600080fd5b845b81811015610cea578035835260209283019201610cd2565b509195945050505050565b6000806000838503610120811215610d0c57600080fd5b60c0811215610d1a57600080fd5b50610d23610c5c565b843573ffffffffffffffffffffffffffffffffffffffff81168114610d4757600080fd5b808252506020850135602082015260408501356040820152606085013560608201526080850135608082015260a085013560a082015280935050610d8e8560c08601610c85565b915061010084013590509250925092565b600080600060608486031215610db457600080fd5b505081359360208301359350604090920135919050565b7f4e487b7100000000000000000000000000000000000000000000000000000000600052601260045260246000fd5b7f4e487b7100000000000000000000000000000000000000000000000000000000600052600160045260246000fdfea26469706673582212206359e3837d59076aa7c3a0408dacb67db964fb87e9c804022ccbd4ff20dd441c64736f6c63430008090033",
    "linkReferences": {}
  },
  "methodIdentifiers": {
    "ONE()": "c2ee3a08",
    "correctedAmountToWithdraw(uint256,uint256,uint256)": "a609d912",
    "lpRewardsAddLiquidityNormalization((address,uint256,uint256,uint256,uint256,uint256),uint256[2],uint256)": "d5a8cf64",
    "lpRewardsRemoveLiquidityNormalization((address,uint256,uint256,uint256,uint256,uint256),uint256[2],uint256)": "a64154f0",
    "sharesForLP((address,uint256,uint256,uint256,uint256,uint256),uint256[2],uint256)": "629056cb"
  },
  "id": 44
}