{
  "_format": "hh-sol-artifact-1",
  "contractName": "UbiquityAlgorithmicDollarManager",
  "sourceName": "contracts/UbiquityAlgorithmicDollarManager.sol",
  "abi": [
    {
      "inputs": [
        {
          "internalType": "address",
          "name": "_admin",
          "type": "address"
        }
      ],
      "stateMutability": "nonpayable",
      "type": "constructor"
    },
    {
      "anonymous": false,
      "inputs": [
        {
          "indexed": true,
          "internalType": "bytes32",
          "name": "role",
          "type": "bytes32"
        },
        {
          "indexed": true,
          "internalType": "bytes32",
          "name": "previousAdminRole",
          "type": "bytes32"
        },
        {
          "indexed": true,
          "internalType": "bytes32",
          "name": "newAdminRole",
          "type": "bytes32"
        }
      ],
      "name": "RoleAdminChanged",
      "type": "event"
    },
    {
      "anonymous": false,
      "inputs": [
        {
          "indexed": true,
          "internalType": "bytes32",
          "name": "role",
          "type": "bytes32"
        },
        {
          "indexed": true,
          "internalType": "address",
          "name": "account",
          "type": "address"
        },
        {
          "indexed": true,
          "internalType": "address",
          "name": "sender",
          "type": "address"
        }
      ],
      "name": "RoleGranted",
      "type": "event"
    },
    {
      "anonymous": false,
      "inputs": [
        {
          "indexed": true,
          "internalType": "bytes32",
          "name": "role",
          "type": "bytes32"
        },
        {
          "indexed": true,
          "internalType": "address",
          "name": "account",
          "type": "address"
        },
        {
          "indexed": true,
          "internalType": "address",
          "name": "sender",
          "type": "address"
        }
      ],
      "name": "RoleRevoked",
      "type": "event"
    },
    {
      "inputs": [],
      "name": "BONDING_MANAGER_ROLE",
      "outputs": [
        {
          "internalType": "bytes32",
          "name": "",
          "type": "bytes32"
        }
      ],
      "stateMutability": "view",
      "type": "function"
    },
    {
      "inputs": [],
      "name": "COUPON_MANAGER_ROLE",
      "outputs": [
        {
          "internalType": "bytes32",
          "name": "",
          "type": "bytes32"
        }
      ],
      "stateMutability": "view",
      "type": "function"
    },
    {
      "inputs": [],
      "name": "DEFAULT_ADMIN_ROLE",
      "outputs": [
        {
          "internalType": "bytes32",
          "name": "",
          "type": "bytes32"
        }
      ],
      "stateMutability": "view",
      "type": "function"
    },
    {
      "inputs": [],
      "name": "INCENTIVE_MANAGER_ROLE",
      "outputs": [
        {
          "internalType": "bytes32",
          "name": "",
          "type": "bytes32"
        }
      ],
      "stateMutability": "view",
      "type": "function"
    },
    {
      "inputs": [],
      "name": "PAUSER_ROLE",
      "outputs": [
        {
          "internalType": "bytes32",
          "name": "",
          "type": "bytes32"
        }
      ],
      "stateMutability": "view",
      "type": "function"
    },
    {
      "inputs": [],
      "name": "UBQ_BURNER_ROLE",
      "outputs": [
        {
          "internalType": "bytes32",
          "name": "",
          "type": "bytes32"
        }
      ],
      "stateMutability": "view",
      "type": "function"
    },
    {
      "inputs": [],
      "name": "UBQ_MINTER_ROLE",
      "outputs": [
        {
          "internalType": "bytes32",
          "name": "",
          "type": "bytes32"
        }
      ],
      "stateMutability": "view",
      "type": "function"
    },
    {
      "inputs": [],
      "name": "UBQ_TOKEN_MANAGER_ROLE",
      "outputs": [
        {
          "internalType": "bytes32",
          "name": "",
          "type": "bytes32"
        }
      ],
      "stateMutability": "view",
      "type": "function"
    },
    {
      "inputs": [],
      "name": "autoRedeemTokenAddress",
      "outputs": [
        {
          "internalType": "address",
          "name": "",
          "type": "address"
        }
      ],
      "stateMutability": "view",
      "type": "function"
    },
    {
      "inputs": [],
      "name": "bondingContractAddress",
      "outputs": [
        {
          "internalType": "address",
          "name": "",
          "type": "address"
        }
      ],
      "stateMutability": "view",
      "type": "function"
    },
    {
      "inputs": [],
      "name": "bondingShareAddress",
      "outputs": [
        {
          "internalType": "address",
          "name": "",
          "type": "address"
        }
      ],
      "stateMutability": "view",
      "type": "function"
    },
    {
      "inputs": [],
      "name": "couponCalculatorAddress",
      "outputs": [
        {
          "internalType": "address",
          "name": "",
          "type": "address"
        }
      ],
      "stateMutability": "view",
      "type": "function"
    },
    {
      "inputs": [],
      "name": "curve3PoolTokenAddress",
      "outputs": [
        {
          "internalType": "address",
          "name": "",
          "type": "address"
        }
      ],
      "stateMutability": "view",
      "type": "function"
    },
    {
      "inputs": [],
      "name": "debtCouponAddress",
      "outputs": [
        {
          "internalType": "address",
          "name": "",
          "type": "address"
        }
      ],
      "stateMutability": "view",
      "type": "function"
    },
    {
      "inputs": [
        {
          "internalType": "address",
          "name": "_curveFactory",
          "type": "address"
        },
        {
          "internalType": "address",
          "name": "_crvBasePool",
          "type": "address"
        },
        {
          "internalType": "address",
          "name": "_crv3PoolTokenAddress",
          "type": "address"
        },
        {
          "internalType": "uint256",
          "name": "_amplificationCoefficient",
          "type": "uint256"
        },
        {
          "internalType": "uint256",
          "name": "_fee",
          "type": "uint256"
        }
      ],
      "name": "deployStableSwapPool",
      "outputs": [],
      "stateMutability": "nonpayable",
      "type": "function"
    },
    {
      "inputs": [],
      "name": "dollarMintingCalculatorAddress",
      "outputs": [
        {
          "internalType": "address",
          "name": "",
          "type": "address"
        }
      ],
      "stateMutability": "view",
      "type": "function"
    },
    {
      "inputs": [],
      "name": "formulasAddress",
      "outputs": [
        {
          "internalType": "address",
          "name": "",
          "type": "address"
        }
      ],
      "stateMutability": "view",
      "type": "function"
    },
    {
      "inputs": [
        {
          "internalType": "address",
          "name": "_debtCouponManagerAddress",
          "type": "address"
        }
      ],
      "name": "getExcessDollarsDistributor",
      "outputs": [
        {
          "internalType": "address",
          "name": "",
          "type": "address"
        }
      ],
      "stateMutability": "view",
      "type": "function"
    },
    {
      "inputs": [
        {
          "internalType": "bytes32",
          "name": "role",
          "type": "bytes32"
        }
      ],
      "name": "getRoleAdmin",
      "outputs": [
        {
          "internalType": "bytes32",
          "name": "",
          "type": "bytes32"
        }
      ],
      "stateMutability": "view",
      "type": "function"
    },
    {
      "inputs": [
        {
          "internalType": "bytes32",
          "name": "role",
          "type": "bytes32"
        },
        {
          "internalType": "address",
          "name": "account",
          "type": "address"
        }
      ],
      "name": "grantRole",
      "outputs": [],
      "stateMutability": "nonpayable",
      "type": "function"
    },
    {
      "inputs": [
        {
          "internalType": "bytes32",
          "name": "role",
          "type": "bytes32"
        },
        {
          "internalType": "address",
          "name": "account",
          "type": "address"
        }
      ],
      "name": "hasRole",
      "outputs": [
        {
          "internalType": "bool",
          "name": "",
          "type": "bool"
        }
      ],
      "stateMutability": "view",
      "type": "function"
    },
    {
      "inputs": [],
      "name": "masterChefAddress",
      "outputs": [
        {
          "internalType": "address",
          "name": "",
          "type": "address"
        }
      ],
      "stateMutability": "view",
      "type": "function"
    },
    {
      "inputs": [
        {
          "internalType": "bytes32",
          "name": "role",
          "type": "bytes32"
        },
        {
          "internalType": "address",
          "name": "account",
          "type": "address"
        }
      ],
      "name": "renounceRole",
      "outputs": [],
      "stateMutability": "nonpayable",
      "type": "function"
    },
    {
      "inputs": [
        {
          "internalType": "bytes32",
          "name": "role",
          "type": "bytes32"
        },
        {
          "internalType": "address",
          "name": "account",
          "type": "address"
        }
      ],
      "name": "revokeRole",
      "outputs": [],
      "stateMutability": "nonpayable",
      "type": "function"
    },
    {
      "inputs": [
        {
          "internalType": "address",
          "name": "_bondingContractAddress",
          "type": "address"
        }
      ],
      "name": "setBondingContractAddress",
      "outputs": [],
      "stateMutability": "nonpayable",
      "type": "function"
    },
    {
      "inputs": [
        {
          "internalType": "address",
          "name": "_bondingShareAddress",
          "type": "address"
        }
      ],
      "name": "setBondingShareAddress",
      "outputs": [],
      "stateMutability": "nonpayable",
      "type": "function"
    },
    {
      "inputs": [
        {
          "internalType": "address",
          "name": "_couponCalculatorAddress",
          "type": "address"
        }
      ],
      "name": "setCouponCalculatorAddress",
      "outputs": [],
      "stateMutability": "nonpayable",
      "type": "function"
    },
    {
      "inputs": [
        {
          "internalType": "address",
          "name": "_debtCouponAddress",
          "type": "address"
        }
      ],
      "name": "setDebtCouponAddress",
      "outputs": [],
      "stateMutability": "nonpayable",
      "type": "function"
    },
    {
      "inputs": [
        {
          "internalType": "address",
          "name": "_dollarMintingCalculatorAddress",
          "type": "address"
        }
      ],
      "name": "setDollarMintingCalculatorAddress",
      "outputs": [],
      "stateMutability": "nonpayable",
      "type": "function"
    },
    {
      "inputs": [
        {
          "internalType": "address",
          "name": "debtCouponManagerAddress",
          "type": "address"
        },
        {
          "internalType": "address",
          "name": "excessCouponDistributor",
          "type": "address"
        }
      ],
      "name": "setExcessDollarsDistributor",
      "outputs": [],
      "stateMutability": "nonpayable",
      "type": "function"
    },
    {
      "inputs": [
        {
          "internalType": "address",
          "name": "_formulasAddress",
          "type": "address"
        }
      ],
      "name": "setFormulasAddress",
      "outputs": [],
      "stateMutability": "nonpayable",
      "type": "function"
    },
    {
      "inputs": [
        {
          "internalType": "address",
          "name": "_account",
          "type": "address"
        },
        {
          "internalType": "address",
          "name": "_incentiveAddress",
          "type": "address"
        }
      ],
      "name": "setIncentiveToUAD",
      "outputs": [],
      "stateMutability": "nonpayable",
      "type": "function"
    },
    {
      "inputs": [
        {
          "internalType": "address",
          "name": "_masterChefAddress",
          "type": "address"
        }
      ],
      "name": "setMasterChefAddress",
      "outputs": [],
      "stateMutability": "nonpayable",
      "type": "function"
    },
    {
      "inputs": [
        {
          "internalType": "address",
          "name": "_stableSwapMetaPoolAddress",
          "type": "address"
        }
      ],
      "name": "setStableSwapMetaPoolAddress",
      "outputs": [],
      "stateMutability": "nonpayable",
      "type": "function"
    },
    {
      "inputs": [
        {
          "internalType": "address",
          "name": "_sushiSwapPoolAddress",
          "type": "address"
        }
      ],
      "name": "setSushiSwapPoolAddress",
      "outputs": [],
      "stateMutability": "nonpayable",
      "type": "function"
    },
    {
      "inputs": [
        {
          "internalType": "address",
          "name": "_treasuryAddress",
          "type": "address"
        }
      ],
      "name": "setTreasuryAddress",
      "outputs": [],
      "stateMutability": "nonpayable",
      "type": "function"
    },
    {
      "inputs": [
        {
          "internalType": "address",
          "name": "_twapOracleAddress",
          "type": "address"
        }
      ],
      "name": "setTwapOracleAddress",
      "outputs": [],
      "stateMutability": "nonpayable",
      "type": "function"
    },
    {
      "inputs": [
        {
          "internalType": "address",
          "name": "_uarCalculatorAddress",
          "type": "address"
        }
      ],
      "name": "setUARCalculatorAddress",
      "outputs": [],
      "stateMutability": "nonpayable",
      "type": "function"
    },
    {
      "inputs": [
        {
          "internalType": "address",
          "name": "_uADTokenAddress",
          "type": "address"
        }
      ],
      "name": "setuADTokenAddress",
      "outputs": [],
      "stateMutability": "nonpayable",
      "type": "function"
    },
    {
      "inputs": [
        {
          "internalType": "address",
          "name": "_uarTokenAddress",
          "type": "address"
        }
      ],
      "name": "setuARTokenAddress",
      "outputs": [],
      "stateMutability": "nonpayable",
      "type": "function"
    },
    {
      "inputs": [
        {
          "internalType": "address",
          "name": "_uGOVTokenAddress",
          "type": "address"
        }
      ],
      "name": "setuGOVTokenAddress",
      "outputs": [],
      "stateMutability": "nonpayable",
      "type": "function"
    },
    {
      "inputs": [],
      "name": "stableSwapMetaPoolAddress",
      "outputs": [
        {
          "internalType": "address",
          "name": "",
          "type": "address"
        }
      ],
      "stateMutability": "view",
      "type": "function"
    },
    {
      "inputs": [
        {
          "internalType": "bytes4",
          "name": "interfaceId",
          "type": "bytes4"
        }
      ],
      "name": "supportsInterface",
      "outputs": [
        {
          "internalType": "bool",
          "name": "",
          "type": "bool"
        }
      ],
      "stateMutability": "view",
      "type": "function"
    },
    {
      "inputs": [],
      "name": "sushiSwapPoolAddress",
      "outputs": [
        {
          "internalType": "address",
          "name": "",
          "type": "address"
        }
      ],
      "stateMutability": "view",
      "type": "function"
    },
    {
      "inputs": [],
      "name": "treasuryAddress",
      "outputs": [
        {
          "internalType": "address",
          "name": "",
          "type": "address"
        }
      ],
      "stateMutability": "view",
      "type": "function"
    },
    {
      "inputs": [],
      "name": "twapOracleAddress",
      "outputs": [
        {
          "internalType": "address",
          "name": "",
          "type": "address"
        }
      ],
      "stateMutability": "view",
      "type": "function"
    },
    {
      "inputs": [],
      "name": "uADTokenAddress",
      "outputs": [
        {
          "internalType": "address",
          "name": "",
          "type": "address"
        }
      ],
      "stateMutability": "view",
      "type": "function"
    },
    {
      "inputs": [],
      "name": "uGOVTokenAddress",
      "outputs": [
        {
          "internalType": "address",
          "name": "",
          "type": "address"
        }
      ],
      "stateMutability": "view",
      "type": "function"
    },
    {
      "inputs": [],
      "name": "uarCalculatorAddress",
      "outputs": [
        {
          "internalType": "address",
          "name": "",
          "type": "address"
        }
      ],
      "stateMutability": "view",
      "type": "function"
    }
  ],
  "bytecode": "0x60806040523480156200001157600080fd5b506040516200267a3803806200267a833981016040819052620000349162000200565b6200004160008262000150565b6200006d7f3a2e010201653e4743db35ee85e81b63eb19cf8948f24794ef2b4dba5ecf49c98262000150565b620000997f65d7a28e3265b37a6474929f336521b332c1681b933f6cb9f3376673440d862a8262000150565b620000c57feaff283aa1cb5c8448e8e6df1f1d9256a0b9e1d4a11bca9e915ecfb8d881be7e8262000150565b620000f17fb59de930ba65d9ac0d4dbd09127a305101a071683af551ffece1d125909542d88262000150565b6200011d7faf1a415cb2281de448f1771a3c8144f554e6e38bb3bc1acc8218c01a5d75721d8262000150565b620001497f9a46abf6358a50f8b5f443e7d26ec0762bffead3f6c78af4ff80f12ba16bb5683062000150565b5062000230565b6200015c828262000160565b5050565b6000828152602081815260408083206001600160a01b038516845290915290205460ff166200015c576000828152602081815260408083206001600160a01b03851684529091529020805460ff19166001179055620001bc3390565b6001600160a01b0316816001600160a01b0316837f2f8788117e7eff1d82e926ec794901d17c78024a50270940304540a733656f0d60405160405180910390a45050565b60006020828403121562000212578081fd5b81516001600160a01b038116811462000229578182fd5b9392505050565b61243a80620002406000396000f3fe608060405234801561001057600080fd5b506004361061032b5760003560e01c80635b1fd415116101b2578063bc2ec02f116100f9578063d547741f116100a2578063e6c735401161007c578063e6c735401461076a578063f39e5a4714610791578063f6f172cb146107b8578063fbff3a41146107cb5761032b565b8063d547741f1461071d578063de71c1db14610730578063e63ab1e9146107435761032b565b8063c5ba7598116100d3578063c5ba7598146106e4578063c5f956af146106f7578063d3815fb91461070a5761032b565b8063bc2ec02f146106ab578063be1d86e1146106be578063c431e83c146106d15761032b565b8063923246111161015b578063aef6be3c11610135578063aef6be3c14610659578063b3094fd614610685578063b90bbaff146106985761032b565b80639232461114610617578063a217fddf1461062a578063a41dd6e6146106325761032b565b8063749cface1161018c578063749cface146105ba5780638fe63683146105cd57806391d14854146105e05761032b565b80635b1fd415146105815780636605bfda146105945780636c6ae480146105a75761032b565b806338174654116102765780634ac116081161021f57806356593ea3116101f957806356593ea31461053457806357f6a22a1461054757806359f6deac1461056e5761032b565b80634ac11608146104fb5780634c9f5d861461050e57806353b07507146105215761032b565b80633b4d9773116102505780633b4d9773146104ae5780633e916ced146104d557806347091398146104e85761032b565b806338174654146104755780633ae3d9a4146104885780633b194dcc1461049b5761032b565b8063221e2e60116102d85780632f533cb7116102b25780632f533cb71461042857806336568abe1461044f57806336c3df24146104625761032b565b8063221e2e60146103d1578063248a9ca3146103e45780632f2ff15d146104155761032b565b8063147f1b9611610309578063147f1b961461039857806315f97398146103ab578063214f7882146103be5761032b565b8063017df3271461033057806301ffc9a7146103605780630bcf9ca314610383575b600080fd5b600954610343906001600160a01b031681565b6040516001600160a01b0390911681526020015b60405180910390f35b61037361036e3660046120d6565b6107de565b6040519015158152602001610357565b610396610391366004611fb0565b610815565b005b6103966103a6366004611fb0565b610896565b6103966103b9366004611fb0565b610912565b600e54610343906001600160a01b031681565b600d54610343906001600160a01b031681565b6104076103f236600461209a565b60009081526020819052604090206001015490565b604051908152602001610357565b6103966104233660046120b2565b61098e565b6104077f3a2e010201653e4743db35ee85e81b63eb19cf8948f24794ef2b4dba5ecf49c981565b61039661045d3660046120b2565b6109ba565b600c54610343906001600160a01b031681565b610396610483366004611fb0565b610a46565b600f54610343906001600160a01b031681565b6103966104a9366004611fb0565b610ac2565b6104077f9a46abf6358a50f8b5f443e7d26ec0762bffead3f6c78af4ff80f12ba16bb56881565b600454610343906001600160a01b031681565b6103966104f6366004611fb0565b610b8e565b610396610509366004611fb0565b610c0a565b61039661051c366004611fb0565b610c86565b61039661052f366004611fe8565b610d02565b600254610343906001600160a01b031681565b6104077faf1a415cb2281de448f1771a3c8144f554e6e38bb3bc1acc8218c01a5d75721d81565b600554610343906001600160a01b031681565b61039661058f366004611fb0565b610dab565b6103966105a2366004611fb0565b610e27565b600b54610343906001600160a01b031681565b601054610343906001600160a01b031681565b600154610343906001600160a01b031681565b6103736105ee3660046120b2565b6000918252602082815260408084206001600160a01b0393909316845291905290205460ff1690565b610396610625366004611fb0565b610ea3565b610407600081565b6104077feaff283aa1cb5c8448e8e6df1f1d9256a0b9e1d4a11bca9e915ecfb8d881be7e81565b610343610667366004611fb0565b6001600160a01b039081166000908152601160205260409020541690565b610396610693366004611fb0565b610f1f565b6103966106a6366004611fb0565b610f9b565b600354610343906001600160a01b031681565b6103966106cc366004611fb0565b611017565b600654610343906001600160a01b031681565b6103966106f2366004611fb0565b611093565b600a54610343906001600160a01b031681565b600854610343906001600160a01b031681565b61039661072b3660046120b2565b61110f565b600754610343906001600160a01b031681565b6104077f65d7a28e3265b37a6474929f336521b332c1681b933f6cb9f3376673440d862a81565b6104077fb59de930ba65d9ac0d4dbd09127a305101a071683af551ffece1d125909542d881565b6104077fa3405bb4244d0786f3e4178acef3953ebb3f56c1e97e9530871f50739923c1cf81565b6103966107c6366004611fe8565b611135565b6103966107d9366004612020565b6111bd565b60006001600160e01b03198216637965db0b60e01b148061080f57506301ffc9a760e01b6001600160e01b03198316145b92915050565b33600090815260008051602061240e833981519152602052604090205460ff166108745760405162461bcd60e51b815260206004820152601b60248201526000805160206123ee83398151915260448201526064015b60405180910390fd5b600680546001600160a01b0319166001600160a01b0392909216919091179055565b33600090815260008051602061240e833981519152602052604090205460ff166108f05760405162461bcd60e51b815260206004820152601b60248201526000805160206123ee833981519152604482015260640161086b565b600c80546001600160a01b0319166001600160a01b0392909216919091179055565b33600090815260008051602061240e833981519152602052604090205460ff1661096c5760405162461bcd60e51b815260206004820152601b60248201526000805160206123ee833981519152604482015260640161086b565b600e80546001600160a01b0319166001600160a01b0392909216919091179055565b6000828152602081905260409020600101546109ab81335b611849565b6109b583836118c7565b505050565b6001600160a01b0381163314610a385760405162461bcd60e51b815260206004820152602f60248201527f416363657373436f6e74726f6c3a2063616e206f6e6c792072656e6f756e636560448201527f20726f6c657320666f722073656c660000000000000000000000000000000000606482015260840161086b565b610a428282611965565b5050565b33600090815260008051602061240e833981519152602052604090205460ff16610aa05760405162461bcd60e51b815260206004820152601b60248201526000805160206123ee833981519152604482015260640161086b565b600480546001600160a01b0319166001600160a01b0392909216919091179055565b33600090815260008051602061240e833981519152602052604090205460ff16610b1c5760405162461bcd60e51b815260206004820152601b60248201526000805160206123ee833981519152604482015260640161086b565b600180546001600160a01b0319166001600160a01b0383169081179091556040805163a2e6204560e01b81529051829163a2e6204591600480830192600092919082900301818387803b158015610b7257600080fd5b505af1158015610b86573d6000803e3d6000fd5b505050505050565b33600090815260008051602061240e833981519152602052604090205460ff16610be85760405162461bcd60e51b815260206004820152601b60248201526000805160206123ee833981519152604482015260640161086b565b600280546001600160a01b0319166001600160a01b0392909216919091179055565b33600090815260008051602061240e833981519152602052604090205460ff16610c645760405162461bcd60e51b815260206004820152601b60248201526000805160206123ee833981519152604482015260640161086b565b601080546001600160a01b0319166001600160a01b0392909216919091179055565b33600090815260008051602061240e833981519152602052604090205460ff16610ce05760405162461bcd60e51b815260206004820152601b60248201526000805160206123ee833981519152604482015260640161086b565b600580546001600160a01b0319166001600160a01b0392909216919091179055565b33600090815260008051602061240e833981519152602052604090205460ff16610d5c5760405162461bcd60e51b815260206004820152601b60248201526000805160206123ee833981519152604482015260640161086b565b60035460405163b6232c9960e01b81526001600160a01b03848116600483015283811660248301529091169063b6232c9990604401600060405180830381600087803b158015610b7257600080fd5b33600090815260008051602061240e833981519152602052604090205460ff16610e055760405162461bcd60e51b815260206004820152601b60248201526000805160206123ee833981519152604482015260640161086b565b600b80546001600160a01b0319166001600160a01b0392909216919091179055565b33600090815260008051602061240e833981519152602052604090205460ff16610e815760405162461bcd60e51b815260206004820152601b60248201526000805160206123ee833981519152604482015260640161086b565b600a80546001600160a01b0319166001600160a01b0392909216919091179055565b33600090815260008051602061240e833981519152602052604090205460ff16610efd5760405162461bcd60e51b815260206004820152601b60248201526000805160206123ee833981519152604482015260640161086b565b600880546001600160a01b0319166001600160a01b0392909216919091179055565b33600090815260008051602061240e833981519152602052604090205460ff16610f795760405162461bcd60e51b815260206004820152601b60248201526000805160206123ee833981519152604482015260640161086b565b600780546001600160a01b0319166001600160a01b0392909216919091179055565b33600090815260008051602061240e833981519152602052604090205460ff16610ff55760405162461bcd60e51b815260206004820152601b60248201526000805160206123ee833981519152604482015260640161086b565b600f80546001600160a01b0319166001600160a01b0392909216919091179055565b33600090815260008051602061240e833981519152602052604090205460ff166110715760405162461bcd60e51b815260206004820152601b60248201526000805160206123ee833981519152604482015260640161086b565b600d80546001600160a01b0319166001600160a01b0392909216919091179055565b33600090815260008051602061240e833981519152602052604090205460ff166110ed5760405162461bcd60e51b815260206004820152601b60248201526000805160206123ee833981519152604482015260640161086b565b600380546001600160a01b0319166001600160a01b0392909216919091179055565b60008281526020819052604090206001015461112b81336109a6565b6109b58383611965565b33600090815260008051602061240e833981519152602052604090205460ff1661118f5760405162461bcd60e51b815260206004820152601b60248201526000805160206123ee833981519152604482015260640161086b565b6001600160a01b03918216600090815260116020526040902080546001600160a01b03191691909216179055565b33600090815260008051602061240e833981519152602052604090205460ff166112175760405162461bcd60e51b815260206004820152601b60248201526000805160206123ee833981519152604482015260640161086b565b6000856001600160a01b031663e339eb4f86600360009054906101000a90046001600160a01b03166001600160a01b03166306fdde036040518163ffffffff1660e01b815260040160006040518083038186803b15801561127757600080fd5b505afa15801561128b573d6000803e3d6000fd5b505050506040513d6000823e601f3d908101601f191682016040526112b391908101906120fe565b600360009054906101000a90046001600160a01b03166001600160a01b03166395d89b416040518163ffffffff1660e01b815260040160006040518083038186803b15801561130157600080fd5b505afa158015611315573d6000803e3d6000fd5b505050506040513d6000823e601f3d908101601f1916820160405261133d91908101906120fe565b6003546040516001600160e01b031960e087901b168152611371949392916001600160a01b0316908a908a9060040161227d565b602060405180830381600087803b15801561138b57600080fd5b505af115801561139f573d6000803e3d6000fd5b505050506040513d601f19601f820116820180604052508101906113c39190611fcc565b600880546001600160a01b0319166001600160a01b03838116919091179091556040516370a0823160e01b8152306004820152919250600091908616906370a082319060240160206040518083038186803b15801561142157600080fd5b505afa158015611435573d6000803e3d6000fd5b505050506040513d601f19601f82011682018060405250810190611459919061219c565b6003546040516370a0823160e01b81523060048201529192506000916001600160a01b03909116906370a082319060240160206040518083038186803b1580156114a257600080fd5b505afa1580156114b6573d6000803e3d6000fd5b505050506040513d601f19601f820116820180604052508101906114da919061219c565b90506114f16001600160a01b0387168460006119e4565b6115056001600160a01b03871684846119e4565b60035461151d906001600160a01b03168460006119e4565b600354611534906001600160a01b031684836119e4565b60035460405163c661065760e01b8152600060048201526001600160a01b039182169185169063c66106579060240160206040518083038186803b15801561157b57600080fd5b505afa15801561158f573d6000803e3d6000fd5b505050506040513d601f19601f820116820180604052508101906115b39190611fcc565b6001600160a01b031614801561164c575060405163c661065760e01b8152600160048201526001600160a01b03808816919085169063c66106579060240160206040518083038186803b15801561160957600080fd5b505afa15801561161d573d6000803e3d6000fd5b505050506040513d601f19601f820116820180604052508101906116419190611fcc565b6001600160a01b0316145b6116985760405162461bcd60e51b815260206004820152601b60248201527f7541444d47523a20434f494e5f4f524445525f4d49534d415443480000000000604482015260640161086b565b60408051808201918290526003546370a0823160e01b90925230604482015260009181906001600160a01b03166370a082316064830160206040518083038186803b1580156116e657600080fd5b505afa1580156116fa573d6000803e3d6000fd5b505050506040513d601f19601f8201168201806040525081019061171e919061219c565b81526040516370a0823160e01b81523060048201526020909101906001600160a01b038a16906370a082319060240160206040518083038186803b15801561176557600080fd5b505afa158015611779573d6000803e3d6000fd5b505050506040513d601f19601f8201168201806040525081019061179d919061219c565b9052600980546001600160a01b0319166001600160a01b038a81169190911790915560405163030f92d560e21b8152919250851690630c3e4b54906117eb90849060009033906004016122d0565b602060405180830381600087803b15801561180557600080fd5b505af1158015611819573d6000803e3d6000fd5b505050506040513d601f19601f8201168201806040525081019061183d919061219c565b50505050505050505050565b6000828152602081815260408083206001600160a01b038516845290915290205460ff16610a4257611885816001600160a01b03166014611b46565b611890836020611b46565b6040516020016118a19291906121fc565b60408051601f198184030181529082905262461bcd60e51b825261086b91600401612318565b6000828152602081815260408083206001600160a01b038516845290915290205460ff16610a42576000828152602081815260408083206001600160a01b03851684529091529020805460ff191660011790556119213390565b6001600160a01b0316816001600160a01b0316837f2f8788117e7eff1d82e926ec794901d17c78024a50270940304540a733656f0d60405160405180910390a45050565b6000828152602081815260408083206001600160a01b038516845290915290205460ff1615610a42576000828152602081815260408083206001600160a01b0385168085529252808320805460ff1916905551339285917ff6391f5c32d9c69d2a47ea670b442974b53935d1edc7fd64eb21e047a839171b9190a45050565b801580611a6d5750604051636eb1769f60e11b81523060048201526001600160a01b03838116602483015284169063dd62ed3e9060440160206040518083038186803b158015611a3357600080fd5b505afa158015611a47573d6000803e3d6000fd5b505050506040513d601f19601f82011682018060405250810190611a6b919061219c565b155b611adf5760405162461bcd60e51b815260206004820152603660248201527f5361666545524332303a20617070726f76652066726f6d206e6f6e2d7a65726f60448201527f20746f206e6f6e2d7a65726f20616c6c6f77616e636500000000000000000000606482015260840161086b565b604080516001600160a01b038416602482015260448082018490528251808303909101815260649091019091526020810180517bffffffffffffffffffffffffffffffffffffffffffffffffffffffff1663095ea7b360e01b1790526109b5908490611d3c565b60606000611b55836002612343565b611b6090600261232b565b67ffffffffffffffff811115611b8657634e487b7160e01b600052604160045260246000fd5b6040519080825280601f01601f191660200182016040528015611bb0576020820181803683370190505b509050600360fc1b81600081518110611bd957634e487b7160e01b600052603260045260246000fd5b60200101906001600160f81b031916908160001a905350600f60fb1b81600181518110611c1657634e487b7160e01b600052603260045260246000fd5b60200101906001600160f81b031916908160001a9053506000611c3a846002612343565b611c4590600161232b565b90505b6001811115611ce6577f303132333435363738396162636465660000000000000000000000000000000085600f1660108110611c9457634e487b7160e01b600052603260045260246000fd5b1a60f81b828281518110611cb857634e487b7160e01b600052603260045260246000fd5b60200101906001600160f81b031916908160001a90535060049490941c93611cdf81612392565b9050611c48565b508315611d355760405162461bcd60e51b815260206004820181905260248201527f537472696e67733a20686578206c656e67746820696e73756666696369656e74604482015260640161086b565b9392505050565b6000611d91826040518060400160405280602081526020017f5361666545524332303a206c6f772d6c6576656c2063616c6c206661696c6564815250856001600160a01b0316611e219092919063ffffffff16565b8051909150156109b55780806020019051810190611daf919061207a565b6109b55760405162461bcd60e51b815260206004820152602a60248201527f5361666545524332303a204552433230206f7065726174696f6e20646964206e60448201527f6f74207375636365656400000000000000000000000000000000000000000000606482015260840161086b565b6060611e308484600085611e38565b949350505050565b606082471015611eb05760405162461bcd60e51b815260206004820152602660248201527f416464726573733a20696e73756666696369656e742062616c616e636520666f60448201527f722063616c6c0000000000000000000000000000000000000000000000000000606482015260840161086b565b843b611efe5760405162461bcd60e51b815260206004820152601d60248201527f416464726573733a2063616c6c20746f206e6f6e2d636f6e7472616374000000604482015260640161086b565b600080866001600160a01b03168587604051611f1a91906121e0565b60006040518083038185875af1925050503d8060008114611f57576040519150601f19603f3d011682016040523d82523d6000602084013e611f5c565b606091505b5091509150611f6c828286611f77565b979650505050505050565b60608315611f86575081611d35565b825115611f965782518084602001fd5b8160405162461bcd60e51b815260040161086b9190612318565b600060208284031215611fc1578081fd5b8135611d35816123d5565b600060208284031215611fdd578081fd5b8151611d35816123d5565b60008060408385031215611ffa578081fd5b8235612005816123d5565b91506020830135612015816123d5565b809150509250929050565b600080600080600060a08688031215612037578081fd5b8535612042816123d5565b94506020860135612052816123d5565b93506040860135612062816123d5565b94979396509394606081013594506080013592915050565b60006020828403121561208b578081fd5b81518015158114611d35578182fd5b6000602082840312156120ab578081fd5b5035919050565b600080604083850312156120c4578182fd5b823591506020830135612015816123d5565b6000602082840312156120e7578081fd5b81356001600160e01b031981168114611d35578182fd5b60006020828403121561210f578081fd5b815167ffffffffffffffff80821115612126578283fd5b818401915084601f830112612139578283fd5b81518181111561214b5761214b6123bf565b604051601f8201601f19908116603f01168101908382118183101715612173576121736123bf565b8160405282815287602084870101111561218b578586fd5b611f6c836020830160208801612362565b6000602082840312156121ad578081fd5b5051919050565b600081518084526121cc816020860160208601612362565b601f01601f19169290920160200192915050565b600082516121f2818460208701612362565b9190910192915050565b60007f416363657373436f6e74726f6c3a206163636f756e742000000000000000000082528351612234816017850160208801612362565b7f206973206d697373696e6720726f6c65200000000000000000000000000000006017918401918201528351612271816028840160208801612362565b01602801949350505050565b60006001600160a01b03808916835260c060208401526122a060c08401896121b4565b83810360408501526122b281896121b4565b91909616606084015260808301949094525060a00152949350505050565b60808101818560005b60028110156122f85781518352602092830192909101906001016122d9565b5050508360408301526001600160a01b0383166060830152949350505050565b600060208252611d3560208301846121b4565b6000821982111561233e5761233e6123a9565b500190565b600081600019048311821515161561235d5761235d6123a9565b500290565b60005b8381101561237d578181015183820152602001612365565b8381111561238c576000848401525b50505050565b6000816123a1576123a16123a9565b506000190190565b634e487b7160e01b600052601160045260246000fd5b634e487b7160e01b600052604160045260246000fd5b6001600160a01b03811681146123ea57600080fd5b5056fe7541444d47523a2043616c6c6572206973206e6f742061646d696e0000000000ad3228b676f7d3cd4284a5443f17f1962b36e491b30a40b2405849e597ba5fb5a164736f6c6343000803000a",
  "linkReferences": {},
  "deployedLinkReferences": {}
}