{
  "abi": [
    {
      "inputs": [
        {
          "internalType": "contract IERC4626",
          "name": "strategy_",
          "type": "address"
        },
        {
          "internalType": "address",
          "name": "manager_",
          "type": "address"
        },
        {
          "internalType": "uint16",
          "name": "minSplit_",
          "type": "uint16"
        },
        {
          "internalType": "uint16",
          "name": "premium_",
          "type": "uint16"
        }
      ],
      "stateMutability": "nonpayable",
      "type": "constructor"
    },
    {
      "anonymous": false,
      "inputs": [
        {
          "indexed": true,
          "internalType": "address",
          "name": "owner",
          "type": "address"
        },
        {
          "indexed": true,
          "internalType": "address",
          "name": "spender",
          "type": "address"
        },
        {
          "indexed": false,
          "internalType": "uint256",
          "name": "value",
          "type": "uint256"
        }
      ],
      "name": "Approval",
      "type": "event"
    },
    {
      "anonymous": false,
      "inputs": [
        {
          "indexed": true,
          "internalType": "address",
          "name": "sender",
          "type": "address"
        },
        {
          "indexed": true,
          "internalType": "address",
          "name": "owner",
          "type": "address"
        },
        {
          "indexed": false,
          "internalType": "uint256",
          "name": "assets",
          "type": "uint256"
        },
        {
          "indexed": false,
          "internalType": "uint256",
          "name": "shares",
          "type": "uint256"
        }
      ],
      "name": "Deposit",
      "type": "event"
    },
    {
      "anonymous": false,
      "inputs": [
        {
          "indexed": false,
          "internalType": "address",
          "name": "account",
          "type": "address"
        }
      ],
      "name": "Paused",
      "type": "event"
    },
    {
      "anonymous": false,
      "inputs": [
        {
          "indexed": true,
          "internalType": "uint256",
          "name": "redeemed",
          "type": "uint256"
        },
        {
          "indexed": true,
          "internalType": "uint256",
          "name": "premium",
          "type": "uint256"
        },
        {
          "indexed": true,
          "internalType": "uint256",
          "name": "shares",
          "type": "uint256"
        },
        {
          "indexed": false,
          "internalType": "uint256",
          "name": "split",
          "type": "uint256"
        }
      ],
      "name": "RedeemSplit",
      "type": "event"
    },
    {
      "anonymous": false,
      "inputs": [
        {
          "indexed": true,
          "internalType": "address",
          "name": "from",
          "type": "address"
        },
        {
          "indexed": true,
          "internalType": "address",
          "name": "to",
          "type": "address"
        },
        {
          "indexed": false,
          "internalType": "uint256",
          "name": "value",
          "type": "uint256"
        }
      ],
      "name": "Transfer",
      "type": "event"
    },
    {
      "anonymous": false,
      "inputs": [
        {
          "indexed": false,
          "internalType": "address",
          "name": "account",
          "type": "address"
        }
      ],
      "name": "Unpaused",
      "type": "event"
    },
    {
      "anonymous": false,
      "inputs": [
        {
          "indexed": true,
          "internalType": "address",
          "name": "sender",
          "type": "address"
        },
        {
          "indexed": true,
          "internalType": "address",
          "name": "receiver",
          "type": "address"
        },
        {
          "indexed": true,
          "internalType": "address",
          "name": "owner",
          "type": "address"
        },
        {
          "indexed": false,
          "internalType": "uint256",
          "name": "assets",
          "type": "uint256"
        },
        {
          "indexed": false,
          "internalType": "uint256",
          "name": "shares",
          "type": "uint256"
        }
      ],
      "name": "Withdraw",
      "type": "event"
    },
    {
      "anonymous": false,
      "inputs": [
        {
          "indexed": true,
          "internalType": "address",
          "name": "caller",
          "type": "address"
        },
        {
          "indexed": true,
          "internalType": "address",
          "name": "receiver",
          "type": "address"
        },
        {
          "indexed": true,
          "internalType": "uint256",
          "name": "strategyAssets",
          "type": "uint256"
        },
        {
          "indexed": false,
          "internalType": "uint256",
          "name": "totalStrategyAssets",
          "type": "uint256"
        }
      ],
      "name": "vaultShareAdded",
      "type": "event"
    },
    {
      "inputs": [
        {
          "internalType": "address",
          "name": "owner",
          "type": "address"
        },
        {
          "internalType": "address",
          "name": "spender",
          "type": "address"
        }
      ],
      "name": "allowance",
      "outputs": [
        {
          "internalType": "uint256",
          "name": "",
          "type": "uint256"
        }
      ],
      "stateMutability": "view",
      "type": "function"
    },
    {
      "inputs": [
        {
          "internalType": "address",
          "name": "spender",
          "type": "address"
        },
        {
          "internalType": "uint256",
          "name": "amount",
          "type": "uint256"
        }
      ],
      "name": "approve",
      "outputs": [
        {
          "internalType": "bool",
          "name": "",
          "type": "bool"
        }
      ],
      "stateMutability": "nonpayable",
      "type": "function"
    },
    {
      "inputs": [],
      "name": "asset",
      "outputs": [
        {
          "internalType": "address",
          "name": "",
          "type": "address"
        }
      ],
      "stateMutability": "view",
      "type": "function"
    },
    {
      "inputs": [
        {
          "internalType": "address",
          "name": "account",
          "type": "address"
        }
      ],
      "name": "balanceOf",
      "outputs": [
        {
          "internalType": "uint256",
          "name": "",
          "type": "uint256"
        }
      ],
      "stateMutability": "view",
      "type": "function"
    },
    {
      "inputs": [
        {
          "internalType": "uint256",
          "name": "shares",
          "type": "uint256"
        }
      ],
      "name": "convertToAssets",
      "outputs": [
        {
          "internalType": "uint256",
          "name": "assets",
          "type": "uint256"
        }
      ],
      "stateMutability": "view",
      "type": "function"
    },
    {
      "inputs": [
        {
          "internalType": "uint256",
          "name": "assets",
          "type": "uint256"
        }
      ],
      "name": "convertToShares",
      "outputs": [
        {
          "internalType": "uint256",
          "name": "shares",
          "type": "uint256"
        }
      ],
      "stateMutability": "view",
      "type": "function"
    },
    {
      "inputs": [],
      "name": "decimals",
      "outputs": [
        {
          "internalType": "uint8",
          "name": "",
          "type": "uint8"
        }
      ],
      "stateMutability": "view",
      "type": "function"
    },
    {
      "inputs": [
        {
          "internalType": "address",
          "name": "spender",
          "type": "address"
        },
        {
          "internalType": "uint256",
          "name": "subtractedValue",
          "type": "uint256"
        }
      ],
      "name": "decreaseAllowance",
      "outputs": [
        {
          "internalType": "bool",
          "name": "",
          "type": "bool"
        }
      ],
      "stateMutability": "nonpayable",
      "type": "function"
    },
    {
      "inputs": [
        {
          "internalType": "uint256",
          "name": "assets",
          "type": "uint256"
        },
        {
          "internalType": "address",
          "name": "receiver",
          "type": "address"
        }
      ],
      "name": "deposit",
      "outputs": [
        {
          "internalType": "uint256",
          "name": "",
          "type": "uint256"
        }
      ],
      "stateMutability": "nonpayable",
      "type": "function"
    },
    {
      "inputs": [
        {
          "internalType": "address",
          "name": "receiver",
          "type": "address"
        },
        {
          "internalType": "uint256",
          "name": "assets",
          "type": "uint256"
        }
      ],
      "name": "depositWithStrategyAsset",
      "outputs": [
        {
          "internalType": "uint256",
          "name": "",
          "type": "uint256"
        }
      ],
      "stateMutability": "nonpayable",
      "type": "function"
    },
    {
      "inputs": [],
      "name": "getMinSplit",
      "outputs": [
        {
          "internalType": "uint256",
          "name": "",
          "type": "uint256"
        }
      ],
      "stateMutability": "view",
      "type": "function"
    },
    {
      "inputs": [],
      "name": "getPremium",
      "outputs": [
        {
          "internalType": "uint256",
          "name": "",
          "type": "uint256"
        }
      ],
      "stateMutability": "view",
      "type": "function"
    },
    {
      "inputs": [
        {
          "internalType": "address",
          "name": "spender",
          "type": "address"
        },
        {
          "internalType": "uint256",
          "name": "addedValue",
          "type": "uint256"
        }
      ],
      "name": "increaseAllowance",
      "outputs": [
        {
          "internalType": "bool",
          "name": "",
          "type": "bool"
        }
      ],
      "stateMutability": "nonpayable",
      "type": "function"
    },
    {
      "inputs": [
        {
          "internalType": "contract ERC4626",
          "name": "strategy_",
          "type": "address"
        }
      ],
      "name": "manageVault",
      "outputs": [],
      "stateMutability": "nonpayable",
      "type": "function"
    },
    {
      "inputs": [
        {
          "internalType": "address",
          "name": "",
          "type": "address"
        }
      ],
      "name": "maxDeposit",
      "outputs": [
        {
          "internalType": "uint256",
          "name": "",
          "type": "uint256"
        }
      ],
      "stateMutability": "view",
      "type": "function"
    },
    {
      "inputs": [
        {
          "internalType": "address",
          "name": "",
          "type": "address"
        }
      ],
      "name": "maxMint",
      "outputs": [
        {
          "internalType": "uint256",
          "name": "",
          "type": "uint256"
        }
      ],
      "stateMutability": "view",
      "type": "function"
    },
    {
      "inputs": [
        {
          "internalType": "address",
          "name": "owner",
          "type": "address"
        }
      ],
      "name": "maxRedeem",
      "outputs": [
        {
          "internalType": "uint256",
          "name": "",
          "type": "uint256"
        }
      ],
      "stateMutability": "view",
      "type": "function"
    },
    {
      "inputs": [
        {
          "internalType": "address",
          "name": "owner",
          "type": "address"
        }
      ],
      "name": "maxWithdraw",
      "outputs": [
        {
          "internalType": "uint256",
          "name": "",
          "type": "uint256"
        }
      ],
      "stateMutability": "view",
      "type": "function"
    },
    {
      "inputs": [
        {
          "internalType": "uint256",
          "name": "shares",
          "type": "uint256"
        },
        {
          "internalType": "address",
          "name": "receiver",
          "type": "address"
        }
      ],
      "name": "mint",
      "outputs": [
        {
          "internalType": "uint256",
          "name": "",
          "type": "uint256"
        }
      ],
      "stateMutability": "nonpayable",
      "type": "function"
    },
    {
      "inputs": [],
      "name": "name",
      "outputs": [
        {
          "internalType": "string",
          "name": "",
          "type": "string"
        }
      ],
      "stateMutability": "view",
      "type": "function"
    },
    {
      "inputs": [],
      "name": "pause",
      "outputs": [],
      "stateMutability": "nonpayable",
      "type": "function"
    },
    {
      "inputs": [],
      "name": "paused",
      "outputs": [
        {
          "internalType": "bool",
          "name": "",
          "type": "bool"
        }
      ],
      "stateMutability": "view",
      "type": "function"
    },
    {
      "inputs": [
        {
          "internalType": "uint256",
          "name": "assets",
          "type": "uint256"
        }
      ],
      "name": "previewDeposit",
      "outputs": [
        {
          "internalType": "uint256",
          "name": "",
          "type": "uint256"
        }
      ],
      "stateMutability": "view",
      "type": "function"
    },
    {
      "inputs": [
        {
          "internalType": "uint256",
          "name": "shares",
          "type": "uint256"
        }
      ],
      "name": "previewMint",
      "outputs": [
        {
          "internalType": "uint256",
          "name": "",
          "type": "uint256"
        }
      ],
      "stateMutability": "view",
      "type": "function"
    },
    {
      "inputs": [
        {
          "internalType": "uint256",
          "name": "shares",
          "type": "uint256"
        }
      ],
      "name": "previewRedeem",
      "outputs": [
        {
          "internalType": "uint256",
          "name": "",
          "type": "uint256"
        }
      ],
      "stateMutability": "view",
      "type": "function"
    },
    {
      "inputs": [
        {
          "internalType": "uint256",
          "name": "assets",
          "type": "uint256"
        }
      ],
      "name": "previewWithdraw",
      "outputs": [
        {
          "internalType": "uint256",
          "name": "",
          "type": "uint256"
        }
      ],
      "stateMutability": "view",
      "type": "function"
    },
    {
      "inputs": [
        {
          "internalType": "uint256",
          "name": "shares",
          "type": "uint256"
        },
        {
          "internalType": "address",
          "name": "receiver",
          "type": "address"
        },
        {
          "internalType": "address",
          "name": "owner",
          "type": "address"
        }
      ],
      "name": "redeem",
      "outputs": [
        {
          "internalType": "uint256",
          "name": "",
          "type": "uint256"
        }
      ],
      "stateMutability": "nonpayable",
      "type": "function"
    },
    {
      "inputs": [
        {
          "internalType": "uint256",
          "name": "shares",
          "type": "uint256"
        },
        {
          "internalType": "address",
          "name": "receiver",
          "type": "address"
        },
        {
          "internalType": "address",
          "name": "owner",
          "type": "address"
        },
        {
          "internalType": "uint16",
          "name": "split",
          "type": "uint16"
        }
      ],
      "name": "redeemWithSplit",
      "outputs": [
        {
          "internalType": "uint256",
          "name": "",
          "type": "uint256"
        }
      ],
      "stateMutability": "nonpayable",
      "type": "function"
    },
    {
      "inputs": [
        {
          "internalType": "uint256",
          "name": "shares",
          "type": "uint256"
        },
        {
          "internalType": "address",
          "name": "receiver",
          "type": "address"
        },
        {
          "internalType": "address",
          "name": "owner",
          "type": "address"
        },
        {
          "internalType": "uint16",
          "name": "split",
          "type": "uint16"
        }
      ],
      "name": "reedemStrategyAsset",
      "outputs": [
        {
          "internalType": "uint256",
          "name": "",
          "type": "uint256"
        }
      ],
      "stateMutability": "nonpayable",
      "type": "function"
    },
    {
      "inputs": [
        {
          "internalType": "uint16",
          "name": "_split",
          "type": "uint16"
        }
      ],
      "name": "setMinSplit",
      "outputs": [],
      "stateMutability": "nonpayable",
      "type": "function"
    },
    {
      "inputs": [
        {
          "internalType": "uint16",
          "name": "premium_",
          "type": "uint16"
        }
      ],
      "name": "setPremium",
      "outputs": [],
      "stateMutability": "nonpayable",
      "type": "function"
    },
    {
      "inputs": [],
      "name": "symbol",
      "outputs": [
        {
          "internalType": "string",
          "name": "",
          "type": "string"
        }
      ],
      "stateMutability": "view",
      "type": "function"
    },
    {
      "inputs": [],
      "name": "totalAssets",
      "outputs": [
        {
          "internalType": "uint256",
          "name": "",
          "type": "uint256"
        }
      ],
      "stateMutability": "view",
      "type": "function"
    },
    {
      "inputs": [],
      "name": "totalSupply",
      "outputs": [
        {
          "internalType": "uint256",
          "name": "",
          "type": "uint256"
        }
      ],
      "stateMutability": "view",
      "type": "function"
    },
    {
      "inputs": [
        {
          "internalType": "address",
          "name": "to",
          "type": "address"
        },
        {
          "internalType": "uint256",
          "name": "amount",
          "type": "uint256"
        }
      ],
      "name": "transfer",
      "outputs": [
        {
          "internalType": "bool",
          "name": "",
          "type": "bool"
        }
      ],
      "stateMutability": "nonpayable",
      "type": "function"
    },
    {
      "inputs": [
        {
          "internalType": "address",
          "name": "from",
          "type": "address"
        },
        {
          "internalType": "address",
          "name": "to",
          "type": "address"
        },
        {
          "internalType": "uint256",
          "name": "amount",
          "type": "uint256"
        }
      ],
      "name": "transferFrom",
      "outputs": [
        {
          "internalType": "bool",
          "name": "",
          "type": "bool"
        }
      ],
      "stateMutability": "nonpayable",
      "type": "function"
    },
    {
      "inputs": [],
      "name": "unpause",
      "outputs": [],
      "stateMutability": "nonpayable",
      "type": "function"
    },
    {
      "inputs": [
        {
          "internalType": "uint256",
          "name": "assets",
          "type": "uint256"
        },
        {
          "internalType": "address",
          "name": "receiver",
          "type": "address"
        },
        {
          "internalType": "address",
          "name": "owner",
          "type": "address"
        }
      ],
      "name": "withdraw",
      "outputs": [
        {
          "internalType": "uint256",
          "name": "",
          "type": "uint256"
        }
      ],
      "stateMutability": "nonpayable",
      "type": "function"
    },
    {
      "inputs": [
        {
          "internalType": "uint256",
          "name": "assets",
          "type": "uint256"
        },
        {
          "internalType": "address",
          "name": "receiver",
          "type": "address"
        },
        {
          "internalType": "address",
          "name": "owner",
          "type": "address"
        },
        {
          "internalType": "uint16",
          "name": "split",
          "type": "uint16"
        }
      ],
      "name": "withdrawStrategyAsset",
      "outputs": [
        {
          "internalType": "uint256",
          "name": "",
          "type": "uint256"
        }
      ],
      "stateMutability": "nonpayable",
      "type": "function"
    },
    {
      "inputs": [
        {
          "internalType": "uint256",
          "name": "assets",
          "type": "uint256"
        },
        {
          "internalType": "address",
          "name": "receiver",
          "type": "address"
        },
        {
          "internalType": "address",
          "name": "owner",
          "type": "address"
        },
        {
          "internalType": "uint16",
          "name": "split",
          "type": "uint16"
        }
      ],
      "name": "withdrawWithSplit",
      "outputs": [
        {
          "internalType": "uint256",
          "name": "",
          "type": "uint256"
        }
      ],
      "stateMutability": "nonpayable",
      "type": "function"
    }
  ],
  "bytecode": {
    "object": "0x60c06040523480156200001157600080fd5b50604051620038a6380380620038a68339810160408190526200003491620001cf565b6040805180820182526011815270383937bc3c903cb4b2b632103a37b5b2b760791b60208083019190915282518084019093526004808452631c16531160e21b918401919091526000805460ff19169055869290620000948382620002d6565b506005620000a38282620002d6565b5050506000816001600160a01b031663313ce5676040518163ffffffff1660e01b8152600401602060405180830381865afa92505050801562000105575060408051601f3d908101601f191682019092526200010291810190620003a2565b60015b62000127576200011f6200019960201b62001e491760201c565b90506200012a565b90505b6001600160a01b0391821660805260ff1660a052600680546001600160a01b0319169482169490941790935560078054949093166001600160b01b031990941693909317600160a01b61ffff948516021761ffff60b01b1916600160b01b9190931602919091179055620003ce565b601290565b6001600160a01b0381168114620001b457600080fd5b50565b805161ffff81168114620001ca57600080fd5b919050565b60008060008060808587031215620001e657600080fd5b8451620001f3816200019e565b602086015190945062000206816200019e565b92506200021660408601620001b7565b91506200022660608601620001b7565b905092959194509250565b634e487b7160e01b600052604160045260246000fd5b600181811c908216806200025c57607f821691505b6020821081036200027d57634e487b7160e01b600052602260045260246000fd5b50919050565b601f821115620002d157600081815260208120601f850160051c81016020861015620002ac5750805b601f850160051c820191505b81811015620002cd57828155600101620002b8565b5050505b505050565b81516001600160401b03811115620002f257620002f262000231565b6200030a8162000303845462000247565b8462000283565b602080601f831160018114620003425760008415620003295750858301515b600019600386901b1c1916600185901b178555620002cd565b600085815260208120601f198616915b82811015620003735788860151825594840194600190910190840162000352565b5085821015620003925787850151600019600388901b60f8161c191681555b5050505050600190811b01905550565b600060208284031215620003b557600080fd5b815160ff81168114620003c757600080fd5b9392505050565b60805160a0516134ab620003fb600039600061037b0152600081816103bf015261285801526134ab6000f3fe608060405234801561001057600080fd5b50600436106102c85760003560e01c80637da0650c1161017b578063c218b515116100d8578063d905777e1161008c578063ef8b30f711610071578063ef8b30f7146105a7578063f39f3a031461064a578063f3f454261461065d57600080fd5b8063d905777e146105f1578063dd62ed3e1461060457600080fd5b8063c6e6f592116100bd578063c6e6f592146105a7578063c9744029146105ba578063ce96cb77146105de57600080fd5b8063c218b51514610561578063c63d75b61461057457600080fd5b8063a9059cbb1161012f578063b460af9411610114578063b460af9414610528578063ba0876521461053b578063c0b6e3d01461054e57600080fd5b8063a9059cbb14610502578063b3d7f6b91461051557600080fd5b806394bf804d1161016057806394bf804d146104d457806395d89b41146104e7578063a457c2d7146104ef57600080fd5b80637da0650c146104b95780638456cb59146104cc57600080fd5b806339509351116102295780635c975abb116101dd57806366bcdd6c116101c257806366bcdd6c1461044a5780636e553f651461047057806370a082311461048357600080fd5b80635c975abb1461042c5780636003fed21461043757600080fd5b80633f4ba83a1161020e5780633f4ba83a14610411578063402d267d146104195780634cdad506146102fd57600080fd5b806339509351146103e95780633c4b6f24146103fc57600080fd5b80630c1727ed1161028057806323b872dd1161026557806323b872dd14610361578063313ce5671461037457806338d52e0f146103a557600080fd5b80630c1727ed1461034657806318160ddd1461035957600080fd5b806307a2d13a116102b157806307a2d13a146102fd578063095ea7b3146103105780630a28a4771461033357600080fd5b806301e1d114146102cd57806306fdde03146102e8575b600080fd5b6102d5610670565b6040519081526020015b60405180910390f35b6102f0610708565b6040516102df9190613047565b6102d561030b366004613098565b61079a565b61032361031e3660046130d6565b6107ad565b60405190151581526020016102df565b6102d5610341366004613098565b6107c5565b6102d5610354366004613119565b6107d2565b6003546102d5565b61032361036f36600461316a565b61094f565b60405160ff7f00000000000000000000000000000000000000000000000000000000000000001681526020016102df565b60405173ffffffffffffffffffffffffffffffffffffffff7f00000000000000000000000000000000000000000000000000000000000000001681526020016102df565b6103236103f73660046130d6565b610975565b61040f61040a3660046131ab565b6109c1565b005b61040f610bfa565b6102d56104273660046131c6565b610d6a565b60005460ff16610323565b61040f6104453660046131ab565b610dfd565b600754760100000000000000000000000000000000000000000000900461ffff166102d5565b6102d561047e3660046131e3565b611032565b6102d56104913660046131c6565b73ffffffffffffffffffffffffffffffffffffffff1660009081526001602052604090205490565b6102d56104c7366004613119565b6110a5565b61040f611287565b6102d56104e23660046131e3565b6113f5565b6102f061140f565b6103236104fd3660046130d6565b61141e565b6103236105103660046130d6565b6114e0565b6102d5610523366004613098565b6114ee565b6102d5610536366004613213565b6114fb565b6102d5610549366004613213565b6115b4565b6102d561055c366004613119565b6115d2565b6102d561056f3660046130d6565b611715565b6102d56105823660046131c6565b507fffffffffffffffffffffffffffffffffffffffffffffffffffffffffffffffff90565b6102d56105b5366004613098565b611aa6565b60075474010000000000000000000000000000000000000000900461ffff166102d5565b6102d56105ec3660046131c6565b611ab3565b6102d56105ff3660046131c6565b611ae4565b6102d5610612366004613255565b73ffffffffffffffffffffffffffffffffffffffff918216600090815260026020908152604080832093909416825291909152205490565b6102d5610658366004613119565b611b0f565b61040f61066b3660046131c6565b611c4c565b6007546040517f70a0823100000000000000000000000000000000000000000000000000000000815230600482015260009173ffffffffffffffffffffffffffffffffffffffff16906370a0823190602401602060405180830381865afa1580156106df573d6000803e3d6000fd5b505050506040513d601f19601f820116820180604052508101906107039190613283565b905090565b6060600480546107179061329c565b80601f01602080910402602001604051908101604052809291908181526020018280546107439061329c565b80156107905780601f1061076557610100808354040283529160200191610790565b820191906000526020600020905b81548152906001019060200180831161077357829003601f168201915b5050505050905090565b60006107a7826000611e4e565b92915050565b6000336107bb818585611e81565b5060019392505050565b60006107a7826001612000565b60075460009061ffff7601000000000000000000000000000000000000000000009091048116908316101561084e5760405162461bcd60e51b815260206004820152601160248201527f505969656c643a3a73706c69743c6d696e00000000000000000000000000000060448201526064015b60405180910390fd5b61271061ffff831611156108a45760405162461bcd60e51b815260206004820152601160248201527f505969656c643a3a73706c69743e6d61780000000000000000000000000000006044820152606401610845565b6108ad83611ab3565b8511156108fc5760405162461bcd60e51b815260206004820152601460248201527f505969656c643a3a77697468647261773e6d61780000000000000000000000006044820152606401610845565b6000610907866107c5565b9050600061091a335b87878a8689612032565b60075490915073ffffffffffffffffffffffffffffffffffffffff16610941818884612418565b50909150505b949350505050565b60003361095d8582856124f1565b6109688585856125ae565b60019150505b9392505050565b33600081815260026020908152604080832073ffffffffffffffffffffffffffffffffffffffff871684529091528120549091906107bb90829086906109bc90879061331e565b611e81565b600654604080517f57f6a22a000000000000000000000000000000000000000000000000000000008152905173ffffffffffffffffffffffffffffffffffffffff909216916391d148549183916357f6a22a916004808201926020929091908290030181865afa158015610a39573d6000803e3d6000fd5b505050506040513d601f19601f82011682018060405250810190610a5d9190613283565b6040517fffffffff0000000000000000000000000000000000000000000000000000000060e084901b1681526004810191909152336024820152604401602060405180830381865afa158015610ab7573d6000803e3d6000fd5b505050506040513d601f19601f82011682018060405250810190610adb9190613331565b610b275760405162461bcd60e51b815260206004820152601660248201527f505969656c643a3a21696e63656e74697665204d6772000000000000000000006044820152606401610845565b60075461ffff8281167601000000000000000000000000000000000000000000009092041614801590610b5f575061271061ffff8216105b610bab5760405162461bcd60e51b815260206004820152601260248201527f505969656c643a3a6f75744f6652616e676500000000000000000000000000006044820152606401610845565b6007805461ffff909216760100000000000000000000000000000000000000000000027fffffffffffffffff0000ffffffffffffffffffffffffffffffffffffffffffff909216919091179055565b600654604080517f57f6a22a000000000000000000000000000000000000000000000000000000008152905173ffffffffffffffffffffffffffffffffffffffff909216916391d148549183916357f6a22a916004808201926020929091908290030181865afa158015610c72573d6000803e3d6000fd5b505050506040513d601f19601f82011682018060405250810190610c969190613283565b6040517fffffffff0000000000000000000000000000000000000000000000000000000060e084901b1681526004810191909152336024820152604401602060405180830381865afa158015610cf0573d6000803e3d6000fd5b505050506040513d601f19601f82011682018060405250810190610d149190613331565b610d605760405162461bcd60e51b815260206004820152601660248201527f505969656c643a3a21696e63656e74697665204d6772000000000000000000006044820152606401610845565b610d686127d6565b565b6007546040517f402d267d00000000000000000000000000000000000000000000000000000000815230600482015260009173ffffffffffffffffffffffffffffffffffffffff169063402d267d90602401602060405180830381865afa158015610dd9573d6000803e3d6000fd5b505050506040513d601f19601f820116820180604052508101906107a79190613283565b600654604080517f57f6a22a000000000000000000000000000000000000000000000000000000008152905173ffffffffffffffffffffffffffffffffffffffff909216916391d148549183916357f6a22a916004808201926020929091908290030181865afa158015610e75573d6000803e3d6000fd5b505050506040513d601f19601f82011682018060405250810190610e999190613283565b6040517fffffffff0000000000000000000000000000000000000000000000000000000060e084901b1681526004810191909152336024820152604401602060405180830381865afa158015610ef3573d6000803e3d6000fd5b505050506040513d601f19601f82011682018060405250810190610f179190613331565b610f635760405162461bcd60e51b815260206004820152601660248201527f505969656c643a3a21696e63656e74697665204d6772000000000000000000006044820152606401610845565b60075461ffff828116740100000000000000000000000000000000000000009092041614801590610f99575061271061ffff8216105b610fe55760405162461bcd60e51b815260206004820152601260248201527f505969656c643a3a6f75744f6652616e676500000000000000000000000000006044820152606401610845565b6007805461ffff90921674010000000000000000000000000000000000000000027fffffffffffffffffffff0000ffffffffffffffffffffffffffffffffffffffff909216919091179055565b600061103d82610d6a565b83111561108c5760405162461bcd60e51b815260206004820152601e60248201527f455243343632363a206465706f736974206d6f7265207468616e206d617800006044820152606401610845565b600061109784611aa6565b905061096e33848684612853565b60075460009061ffff7601000000000000000000000000000000000000000000009091048116908316101561111c5760405162461bcd60e51b815260206004820152601160248201527f505969656c643a3a73706c69743c6d696e0000000000000000000000000000006044820152606401610845565b61271061ffff831611156111725760405162461bcd60e51b815260206004820152601160248201527f505969656c643a3a73706c69743e6d61780000000000000000000000000000006044820152606401610845565b61117b83611ab3565b8511156111ca5760405162461bcd60e51b815260206004820152601460248201527f505969656c643a3a77697468647261773e6d61780000000000000000000000006044820152606401610845565b60006111d5866107c5565b905060006111e233610910565b6007546040517fba0876520000000000000000000000000000000000000000000000000000000081526004810183905273ffffffffffffffffffffffffffffffffffffffff898116602483015230604483015292935091169063ba087652906064016020604051808303816000875af1158015611263573d6000803e3d6000fd5b505050506040513d601f19601f820116820180604052508101906109419190613283565b600654604080517f57f6a22a000000000000000000000000000000000000000000000000000000008152905173ffffffffffffffffffffffffffffffffffffffff909216916391d148549183916357f6a22a916004808201926020929091908290030181865afa1580156112ff573d6000803e3d6000fd5b505050506040513d601f19601f820116820180604052508101906113239190613283565b6040517fffffffff0000000000000000000000000000000000000000000000000000000060e084901b1681526004810191909152336024820152604401602060405180830381865afa15801561137d573d6000803e3d6000fd5b505050506040513d601f19601f820116820180604052508101906113a19190613331565b6113ed5760405162461bcd60e51b815260206004820152601660248201527f505969656c643a3a21696e63656e74697665204d6772000000000000000000006044820152606401610845565b610d686128ff565b600080611401846114ee565b905061096e33848387612853565b6060600580546107179061329c565b33600081815260026020908152604080832073ffffffffffffffffffffffffffffffffffffffff87168452909152812054909190838110156114c85760405162461bcd60e51b815260206004820152602560248201527f45524332303a2064656372656173656420616c6c6f77616e63652062656c6f7760448201527f207a65726f0000000000000000000000000000000000000000000000000000006064820152608401610845565b6114d58286868403611e81565b506001949350505050565b6000336107bb8185856125ae565b60006107a7826001611e4e565b600061150682611ab3565b8411156115555760405162461bcd60e51b815260206004820152601460248201527f505969656c643a3a77697468647261773e6d61780000000000000000000000006044820152606401610845565b6000611560856107c5565b905060006115823386868986600760169054906101000a900461ffff16612032565b60075490915073ffffffffffffffffffffffffffffffffffffffff166115a9818784612418565b509095945050505050565b6000610947848484600760169054906101000a900461ffff16611b0f565b60075460009061ffff760100000000000000000000000000000000000000000000909104811690831610156116495760405162461bcd60e51b815260206004820152601160248201527f505969656c643a3a73706c69743c6d696e0000000000000000000000000000006044820152606401610845565b61271061ffff8316111561169f5760405162461bcd60e51b815260206004820152601160248201527f505969656c643a3a73706c69743e6d61780000000000000000000000000000006044820152606401610845565b6116a883611ae4565b8511156116f75760405162461bcd60e51b815260206004820152601260248201527f505969656c643a3a72656465656d3e6d617800000000000000000000000000006044820152606401610845565b60006117028661079a565b905060006111e2335b8787858b89612032565b60008082116117665760405162461bcd60e51b815260206004820152601060248201527f505969656c643a3a61737365743d3d30000000000000000000000000000000006044820152606401610845565b600754604080517f38d52e0f000000000000000000000000000000000000000000000000000000008152905160009273ffffffffffffffffffffffffffffffffffffffff16916338d52e0f9160048083019260209291908290030181865afa1580156117d6573d6000803e3d6000fd5b505050506040513d601f19601f820116820180604052508101906117fa9190613353565b90506118088133308661295a565b6007546040517fef8b30f70000000000000000000000000000000000000000000000000000000081526004810185905260009173ffffffffffffffffffffffffffffffffffffffff169063ef8b30f790602401602060405180830381865afa158015611878573d6000803e3d6000fd5b505050506040513d601f19601f8201168201806040525081019061189c9190613283565b6007546040517f095ea7b300000000000000000000000000000000000000000000000000000000815273ffffffffffffffffffffffffffffffffffffffff91821660048201526024810187905291925083169063095ea7b3906044016020604051808303816000875af1158015611917573d6000803e3d6000fd5b505050506040513d601f19601f8201168201806040525081019061193b9190613331565b506007546040517f94bf804d0000000000000000000000000000000000000000000000000000000081526004810183905230602482015260009173ffffffffffffffffffffffffffffffffffffffff16906394bf804d906044016020604051808303816000875af11580156119b4573d6000803e3d6000fd5b505050506040513d601f19601f820116820180604052508101906119d89190613283565b90506119e386610d6a565b811115611a325760405162461bcd60e51b815260206004820152601360248201527f505969656c643a3a6465706f7369743e6d6178000000000000000000000000006044820152606401610845565b6000611a3d82611aa6565b9050611a4987826129b8565b604080518381526020810183905273ffffffffffffffffffffffffffffffffffffffff89169133917fdcbc1c05240f31ff3ad067ef1ee35ce4997762752e3a095284754544f4c709d7910160405180910390a39695505050505050565b60006107a7826000612000565b73ffffffffffffffffffffffffffffffffffffffff81166000908152600160205260408120546107a7906000611e4e565b73ffffffffffffffffffffffffffffffffffffffff81166000908152600160205260408120546107a7565b60075460009061ffff76010000000000000000000000000000000000000000000090910481169083161015611b865760405162461bcd60e51b815260206004820152601160248201527f505969656c643a3a73706c69743c6d696e0000000000000000000000000000006044820152606401610845565b61271061ffff83161115611bdc5760405162461bcd60e51b815260206004820152601160248201527f505969656c643a3a73706c69743e6d61780000000000000000000000000000006044820152606401610845565b611be583611ae4565b851115611c345760405162461bcd60e51b815260206004820152601260248201527f505969656c643a3a72656465656d3e6d617800000000000000000000000000006044820152606401610845565b6000611c3f8661079a565b9050600061091a3361170b565b600654604080517f57f6a22a000000000000000000000000000000000000000000000000000000008152905173ffffffffffffffffffffffffffffffffffffffff909216916391d148549183916357f6a22a916004808201926020929091908290030181865afa158015611cc4573d6000803e3d6000fd5b505050506040513d601f19601f82011682018060405250810190611ce89190613283565b6040517fffffffff0000000000000000000000000000000000000000000000000000000060e084901b1681526004810191909152336024820152604401602060405180830381865afa158015611d42573d6000803e3d6000fd5b505050506040513d601f19601f82011682018060405250810190611d669190613331565b611db25760405162461bcd60e51b815260206004820152601660248201527f505969656c643a3a21696e63656e74697665204d6772000000000000000000006044820152606401610845565b60035415611e025760405162461bcd60e51b815260206004820152601060248201527f505969656c643a3a737570706c793e30000000000000000000000000000000006044820152606401610845565b600780547fffffffffffffffffffffffff00000000000000000000000000000000000000001673ffffffffffffffffffffffffffffffffffffffff92909216919091179055565b601290565b600080611e5a60035490565b90508015611e7b57611e76611e6d610670565b85908386612a93565b610947565b83610947565b73ffffffffffffffffffffffffffffffffffffffff8316611f095760405162461bcd60e51b8152602060048201526024808201527f45524332303a20617070726f76652066726f6d20746865207a65726f2061646460448201527f72657373000000000000000000000000000000000000000000000000000000006064820152608401610845565b73ffffffffffffffffffffffffffffffffffffffff8216611f925760405162461bcd60e51b815260206004820152602260248201527f45524332303a20617070726f766520746f20746865207a65726f20616464726560448201527f73730000000000000000000000000000000000000000000000000000000000006064820152608401610845565b73ffffffffffffffffffffffffffffffffffffffff83811660008181526002602090815260408083209487168084529482529182902085905590518481527f8c5be1e5ebec7d5bd14f71427d1e84f3dd0314c0f7b2291e5b200ac8c7c3b925910160405180910390a3505050565b60008061200c60035490565b9050831580612019575080155b611e7b57611e7681612029610670565b86919086612a93565b600061203c612af0565b8473ffffffffffffffffffffffffffffffffffffffff168773ffffffffffffffffffffffffffffffffffffffff161461207a5761207a8588856124f1565b6120848584612b43565b60006127106120978661ffff8616613370565b6120a191906133dc565b905060006120af8287613417565b600754600654604080517fc5f956af000000000000000000000000000000000000000000000000000000008152905193945073ffffffffffffffffffffffffffffffffffffffff92831693612156938593169163c5f956af9160048083019260209291908290030181865afa15801561212c573d6000803e3d6000fd5b505050506040513d601f19601f820116820180604052508101906121509190613353565b85612418565b6007546040517f4cdad5060000000000000000000000000000000000000000000000000000000081526004810185905260009173ffffffffffffffffffffffffffffffffffffffff1690634cdad50690602401602060405180830381865afa1580156121c6573d6000803e3d6000fd5b505050506040513d601f19601f820116820180604052508101906121ea9190613283565b6007549091506000906127109061221e90849074010000000000000000000000000000000000000000900461ffff16613370565b61222891906133dc565b9050600660009054906101000a900473ffffffffffffffffffffffffffffffffffffffff1673ffffffffffffffffffffffffffffffffffffffff16633ae3d9a46040518163ffffffff1660e01b8152600401602060405180830381865afa158015612297573d6000803e3d6000fd5b505050506040513d601f19601f820116820180604052508101906122bb9190613353565b6040517f40c10f1900000000000000000000000000000000000000000000000000000000815273ffffffffffffffffffffffffffffffffffffffff8d811660048301526024820184905291909116906340c10f1990604401600060405180830381600087803b15801561232d57600080fd5b505af1158015612341573d6000803e3d6000fd5b505050508781857f1f3cf8bd46676ce1bf44e082ce801477c0bb42925c5bdc389479fad5cf6800c48860405161237991815260200190565b60405180910390a48973ffffffffffffffffffffffffffffffffffffffff168b73ffffffffffffffffffffffffffffffffffffffff168d73ffffffffffffffffffffffffffffffffffffffff167ffbde797d201c681b91056529119e0b02407c7bb96a4a2c75c01fc9667232c8db8c8c604051612400929190918252602082015260400190565b60405180910390a450919a9950505050505050505050565b60405173ffffffffffffffffffffffffffffffffffffffff83166024820152604481018290526124ec9084907fa9059cbb00000000000000000000000000000000000000000000000000000000906064015b604080517fffffffffffffffffffffffffffffffffffffffffffffffffffffffffffffffe08184030181529190526020810180517bffffffffffffffffffffffffffffffffffffffffffffffffffffffff167fffffffff0000000000000000000000000000000000000000000000000000000090931692909217909152612cd5565b505050565b73ffffffffffffffffffffffffffffffffffffffff8381166000908152600260209081526040808320938616835292905220547fffffffffffffffffffffffffffffffffffffffffffffffffffffffffffffffff81146125a8578181101561259b5760405162461bcd60e51b815260206004820152601d60248201527f45524332303a20696e73756666696369656e7420616c6c6f77616e63650000006044820152606401610845565b6125a88484848403611e81565b50505050565b73ffffffffffffffffffffffffffffffffffffffff83166126375760405162461bcd60e51b815260206004820152602560248201527f45524332303a207472616e736665722066726f6d20746865207a65726f20616460448201527f64726573730000000000000000000000000000000000000000000000000000006064820152608401610845565b73ffffffffffffffffffffffffffffffffffffffff82166126c05760405162461bcd60e51b815260206004820152602360248201527f45524332303a207472616e7366657220746f20746865207a65726f206164647260448201527f65737300000000000000000000000000000000000000000000000000000000006064820152608401610845565b73ffffffffffffffffffffffffffffffffffffffff83166000908152600160205260409020548181101561275c5760405162461bcd60e51b815260206004820152602660248201527f45524332303a207472616e7366657220616d6f756e742065786365656473206260448201527f616c616e636500000000000000000000000000000000000000000000000000006064820152608401610845565b73ffffffffffffffffffffffffffffffffffffffff80851660008181526001602052604080822086860390559286168082529083902080548601905591517fddf252ad1be2c89b69c2b068fc378daa952ba7f163c4a11628f55a4df523b3ef906127c99086815260200190565b60405180910390a36125a8565b6127de612dc7565b600080547fffffffffffffffffffffffffffffffffffffffffffffffffffffffffffffff001690557f5db9ee0a495bf2e6ff9c91a7834c1ba4fdd244a5e8aa4e537bd38aeae4b073aa335b60405173ffffffffffffffffffffffffffffffffffffffff909116815260200160405180910390a1565b61287f7f000000000000000000000000000000000000000000000000000000000000000085308561295a565b61288983826129b8565b8273ffffffffffffffffffffffffffffffffffffffff168473ffffffffffffffffffffffffffffffffffffffff167fdcbc1c05240f31ff3ad067ef1ee35ce4997762752e3a095284754544f4c709d784846040516128f1929190918252602082015260400190565b60405180910390a350505050565b612907612af0565b600080547fffffffffffffffffffffffffffffffffffffffffffffffffffffffffffffff001660011790557f62e78cea01bee320cd4e420270b5ea74000d11b0c9f74754ebdbfc544b05a2586128293390565b60405173ffffffffffffffffffffffffffffffffffffffff808516602483015283166044820152606481018290526125a89085907f23b872dd000000000000000000000000000000000000000000000000000000009060840161246a565b73ffffffffffffffffffffffffffffffffffffffff8216612a1b5760405162461bcd60e51b815260206004820152601f60248201527f45524332303a206d696e7420746f20746865207a65726f2061646472657373006044820152606401610845565b8060036000828254612a2d919061331e565b909155505073ffffffffffffffffffffffffffffffffffffffff82166000818152600160209081526040808320805486019055518481527fddf252ad1be2c89b69c2b068fc378daa952ba7f163c4a11628f55a4df523b3ef910160405180910390a35050565b600080612aa1868686612e19565b90506001836002811115612ab757612ab761342a565b148015612ad4575060008480612acf57612acf6133ad565b868809115b15612ae757612ae460018261331e565b90505b95945050505050565b60005460ff1615610d685760405162461bcd60e51b815260206004820152601060248201527f5061757361626c653a20706175736564000000000000000000000000000000006044820152606401610845565b73ffffffffffffffffffffffffffffffffffffffff8216612bcc5760405162461bcd60e51b815260206004820152602160248201527f45524332303a206275726e2066726f6d20746865207a65726f2061646472657360448201527f73000000000000000000000000000000000000000000000000000000000000006064820152608401610845565b73ffffffffffffffffffffffffffffffffffffffff821660009081526001602052604090205481811015612c685760405162461bcd60e51b815260206004820152602260248201527f45524332303a206275726e20616d6f756e7420657863656564732062616c616e60448201527f63650000000000000000000000000000000000000000000000000000000000006064820152608401610845565b73ffffffffffffffffffffffffffffffffffffffff831660008181526001602090815260408083208686039055600380548790039055518581529192917fddf252ad1be2c89b69c2b068fc378daa952ba7f163c4a11628f55a4df523b3ef910160405180910390a3505050565b6000612d37826040518060400160405280602081526020017f5361666545524332303a206c6f772d6c6576656c2063616c6c206661696c65648152508573ffffffffffffffffffffffffffffffffffffffff16612ee69092919063ffffffff16565b8051909150156124ec5780806020019051810190612d559190613331565b6124ec5760405162461bcd60e51b815260206004820152602a60248201527f5361666545524332303a204552433230206f7065726174696f6e20646964206e60448201527f6f742073756363656564000000000000000000000000000000000000000000006064820152608401610845565b60005460ff16610d685760405162461bcd60e51b815260206004820152601460248201527f5061757361626c653a206e6f74207061757365640000000000000000000000006044820152606401610845565b600080807fffffffffffffffffffffffffffffffffffffffffffffffffffffffffffffffff85870985870292508281108382030391505080600003612e7157838281612e6757612e676133ad565b049250505061096e565b808411612e7d57600080fd5b60008486880960026001871981018816978890046003810283188082028403028082028403028082028403028082028403028082028403029081029092039091026000889003889004909101858311909403939093029303949094049190911702949350505050565b60606109478484600085856000808673ffffffffffffffffffffffffffffffffffffffff168587604051612f1a9190613459565b60006040518083038185875af1925050503d8060008114612f57576040519150601f19603f3d011682016040523d82523d6000602084013e612f5c565b606091505b5091509150612f6d87838387612f78565b979650505050505050565b60608315612ff4578251600003612fed5773ffffffffffffffffffffffffffffffffffffffff85163b612fed5760405162461bcd60e51b815260206004820152601d60248201527f416464726573733a2063616c6c20746f206e6f6e2d636f6e74726163740000006044820152606401610845565b5081610947565b61094783838151156130095781518083602001fd5b8060405162461bcd60e51b81526004016108459190613047565b60005b8381101561303e578181015183820152602001613026565b50506000910152565b6020815260008251806020840152613066816040850160208701613023565b601f017fffffffffffffffffffffffffffffffffffffffffffffffffffffffffffffffe0169190910160400192915050565b6000602082840312156130aa57600080fd5b5035919050565b73ffffffffffffffffffffffffffffffffffffffff811681146130d357600080fd5b50565b600080604083850312156130e957600080fd5b82356130f4816130b1565b946020939093013593505050565b803561ffff8116811461311457600080fd5b919050565b6000806000806080858703121561312f57600080fd5b843593506020850135613141816130b1565b92506040850135613151816130b1565b915061315f60608601613102565b905092959194509250565b60008060006060848603121561317f57600080fd5b833561318a816130b1565b9250602084013561319a816130b1565b929592945050506040919091013590565b6000602082840312156131bd57600080fd5b61096e82613102565b6000602082840312156131d857600080fd5b813561096e816130b1565b600080604083850312156131f657600080fd5b823591506020830135613208816130b1565b809150509250929050565b60008060006060848603121561322857600080fd5b83359250602084013561323a816130b1565b9150604084013561324a816130b1565b809150509250925092565b6000806040838503121561326857600080fd5b8235613273816130b1565b91506020830135613208816130b1565b60006020828403121561329557600080fd5b5051919050565b600181811c908216806132b057607f821691505b6020821081036132e9577f4e487b7100000000000000000000000000000000000000000000000000000000600052602260045260246000fd5b50919050565b7f4e487b7100000000000000000000000000000000000000000000000000000000600052601160045260246000fd5b808201808211156107a7576107a76132ef565b60006020828403121561334357600080fd5b8151801515811461096e57600080fd5b60006020828403121561336557600080fd5b815161096e816130b1565b6000817fffffffffffffffffffffffffffffffffffffffffffffffffffffffffffffffff04831182151516156133a8576133a86132ef565b500290565b7f4e487b7100000000000000000000000000000000000000000000000000000000600052601260045260246000fd5b600082613412577f4e487b7100000000000000000000000000000000000000000000000000000000600052601260045260246000fd5b500490565b818103818111156107a7576107a76132ef565b7f4e487b7100000000000000000000000000000000000000000000000000000000600052602160045260246000fd5b6000825161346b818460208701613023565b919091019291505056fea2646970667358221220175f980b1d1dc94753df68e6156ff1e3921ed0142d5cdf03f8261edd71a0d8b664736f6c63430008100033",
    "linkReferences": {}
  },
  "methodIdentifiers": {
    "allowance(address,address)": "dd62ed3e",
    "approve(address,uint256)": "095ea7b3",
    "asset()": "38d52e0f",
    "balanceOf(address)": "70a08231",
    "convertToAssets(uint256)": "07a2d13a",
    "convertToShares(uint256)": "c6e6f592",
    "decimals()": "313ce567",
    "decreaseAllowance(address,uint256)": "a457c2d7",
    "deposit(uint256,address)": "6e553f65",
    "depositWithStrategyAsset(address,uint256)": "c218b515",
    "getMinSplit()": "66bcdd6c",
    "getPremium()": "c9744029",
    "increaseAllowance(address,uint256)": "39509351",
    "manageVault(address)": "f3f45426",
    "maxDeposit(address)": "402d267d",
    "maxMint(address)": "c63d75b6",
    "maxRedeem(address)": "d905777e",
    "maxWithdraw(address)": "ce96cb77",
    "mint(uint256,address)": "94bf804d",
    "name()": "06fdde03",
    "pause()": "8456cb59",
    "paused()": "5c975abb",
    "previewDeposit(uint256)": "ef8b30f7",
    "previewMint(uint256)": "b3d7f6b9",
    "previewRedeem(uint256)": "4cdad506",
    "previewWithdraw(uint256)": "0a28a477",
    "redeem(uint256,address,address)": "ba087652",
    "redeemWithSplit(uint256,address,address,uint16)": "f39f3a03",
    "reedemStrategyAsset(uint256,address,address,uint16)": "c0b6e3d0",
    "setMinSplit(uint16)": "3c4b6f24",
    "setPremium(uint16)": "6003fed2",
    "symbol()": "95d89b41",
    "totalAssets()": "01e1d114",
    "totalSupply()": "18160ddd",
    "transfer(address,uint256)": "a9059cbb",
    "transferFrom(address,address,uint256)": "23b872dd",
    "unpause()": "3f4ba83a",
    "withdraw(uint256,address,address)": "b460af94",
    "withdrawStrategyAsset(uint256,address,address,uint16)": "7da0650c",
    "withdrawWithSplit(uint256,address,address,uint16)": "0c1727ed"
  },
  "userdoc": {
    "version": 1,
    "kind": "user",
    "methods": {
      "constructor": {
        "notice": "proxy yield constructor that will invest in a strategy and used the strategy shares as underlying asset"
      },
      "getMinSplit()": {
        "notice": "get the minimum split"
      },
      "getPremium()": {
        "notice": "get the premium"
      },
      "setMinSplit(uint16)": {
        "notice": "set the minimum split percentage for uAR split"
      },
      "setPremium(uint16)": {
        "notice": "set the premium for uAR split"
      }
    }
  },
  "devdoc": {
    "version": 1,
    "kind": "dev",
    "methods": {
      "allowance(address,address)": {
        "details": "See {IERC20-allowance}."
      },
      "approve(address,uint256)": {
        "details": "See {IERC20-approve}. NOTE: If `amount` is the maximum `uint256`, the allowance is not updated on `transferFrom`. This is semantically equivalent to an infinite approval. Requirements: - `spender` cannot be the zero address."
      },
      "asset()": {
        "details": "See {IERC4626-asset}. "
      },
      "balanceOf(address)": {
        "details": "See {IERC20-balanceOf}."
      },
      "constructor": {
        "details": "a premium can be 0 up to PRECISION i.e a premium of 500 would mean a 5% increased reward on the uAR split",
        "params": {
          "manager_": "address of ubiquity Dollar manager",
          "minSplit_": "proportion of rewards to be withdrawn in uAR",
          "premium_": "premium for the uAR rewards",
          "strategy_": "address of ubiquity Dollar manager"
        }
      },
      "convertToAssets(uint256)": {
        "details": "See {IERC4626-convertToAssets}. "
      },
      "convertToShares(uint256)": {
        "details": "See {IERC4626-convertToShares}. "
      },
      "decimals()": {
        "details": "See {IERC20Metadata-decimals}. "
      },
      "decreaseAllowance(address,uint256)": {
        "details": "Atomically decreases the allowance granted to `spender` by the caller. This is an alternative to {approve} that can be used as a mitigation for problems described in {IERC20-approve}. Emits an {Approval} event indicating the updated allowance. Requirements: - `spender` cannot be the zero address. - `spender` must have allowance for the caller of at least `subtractedValue`."
      },
      "deposit(uint256,address)": {
        "details": "See {IERC4626-deposit}. "
      },
      "depositWithStrategyAsset(address,uint256)": {
        "details": "Deposit into the proxy with the strategy asset i.e DAI/USDC and return proxy shares"
      },
      "increaseAllowance(address,uint256)": {
        "details": "Atomically increases the allowance granted to `spender` by the caller. This is an alternative to {approve} that can be used as a mitigation for problems described in {IERC20-approve}. Emits an {Approval} event indicating the updated allowance. Requirements: - `spender` cannot be the zero address."
      },
      "maxDeposit(address)": {
        "details": "See {IERC4626-maxDeposit}."
      },
      "maxMint(address)": {
        "details": "See {IERC4626-maxMint}. "
      },
      "maxRedeem(address)": {
        "details": "See {IERC4626-maxRedeem}. "
      },
      "maxWithdraw(address)": {
        "details": "See {IERC4626-maxWithdraw}. "
      },
      "mint(uint256,address)": {
        "details": "See {IERC4626-mint}. "
      },
      "name()": {
        "details": "Returns the name of the token."
      },
      "paused()": {
        "details": "Returns true if the contract is paused, and false otherwise."
      },
      "previewDeposit(uint256)": {
        "details": "See {IERC4626-previewDeposit}. "
      },
      "previewMint(uint256)": {
        "details": "See {IERC4626-previewMint}. "
      },
      "previewRedeem(uint256)": {
        "details": "See {IERC4626-previewRedeem}. "
      },
      "previewWithdraw(uint256)": {
        "details": "See {IERC4626-previewWithdraw}. "
      },
      "redeem(uint256,address,address)": {
        "details": "See {IERC4626-redeem}. "
      },
      "reedemStrategyAsset(uint256,address,address,uint16)": {
        "details": "Redeem proxy shares for underlying strategy asset i.e provide pDAI and return DAI"
      },
      "setMinSplit(uint16)": {
        "details": "a _split can be from minSplit up to PRECISION i.e a premium of 500 would mean a 5% split",
        "params": {
          "_split": "new premium for uAR split"
        }
      },
      "setPremium(uint16)": {
        "details": "a premium can be 0 up to PRECISION i.e a premium of 500 would mean a 5% split",
        "params": {
          "premium_": "new premium for uAR split"
        }
      },
      "symbol()": {
        "details": "Returns the symbol of the token, usually a shorter version of the name."
      },
      "totalAssets()": {
        "details": "See {IERC4626-totalAssets}. "
      },
      "totalSupply()": {
        "details": "See {IERC20-totalSupply}."
      },
      "transfer(address,uint256)": {
        "details": "See {IERC20-transfer}. Requirements: - `to` cannot be the zero address. - the caller must have a balance of at least `amount`."
      },
      "transferFrom(address,address,uint256)": {
        "details": "See {IERC20-transferFrom}. Emits an {Approval} event indicating the updated allowance. This is not required by the EIP. See the note at the beginning of {ERC20}. NOTE: Does not update the allowance if the current allowance is the maximum `uint256`. Requirements: - `from` and `to` cannot be the zero address. - `from` must have a balance of at least `amount`. - the caller must have allowance for ``from``'s tokens of at least `amount`."
      },
      "withdraw(uint256,address,address)": {
        "details": "See {IERC4626-withdraw}."
      },
      "withdrawStrategyAsset(uint256,address,address,uint16)": {
        "details": "Withdraw proxy asset for underlying strategy asset i.e provide sDAI amount and return DAI"
      }
    }
  },
  "id": 59
}