{
  "abi": [
    {
      "inputs": [
        {
          "internalType": "address",
          "name": "_manager",
          "type": "address"
        },
        {
          "internalType": "address[]",
          "name": "_tos",
          "type": "address[]"
        },
        {
          "internalType": "uint256[]",
          "name": "_amounts",
          "type": "uint256[]"
        },
        {
          "internalType": "uint256[]",
          "name": "_bondingShareIDs",
          "type": "uint256[]"
        }
      ],
      "stateMutability": "nonpayable",
      "type": "constructor"
    },
    {
      "anonymous": false,
      "inputs": [
        {
          "indexed": true,
          "internalType": "address",
          "name": "user",
          "type": "address"
        },
        {
          "indexed": false,
          "internalType": "uint256",
          "name": "amount",
          "type": "uint256"
        },
        {
          "indexed": true,
          "internalType": "uint256",
          "name": "bondingShareId",
          "type": "uint256"
        }
      ],
      "name": "Deposit",
      "type": "event"
    },
    {
      "anonymous": false,
      "inputs": [
        {
          "indexed": true,
          "internalType": "uint256",
          "name": "minPriceDiffToUpdateMultiplier",
          "type": "uint256"
        }
      ],
      "name": "MinPriceDiffToUpdateMultiplierModified",
      "type": "event"
    },
    {
      "anonymous": false,
      "inputs": [
        {
          "indexed": true,
          "internalType": "uint256",
          "name": "uGOVPerBlock",
          "type": "uint256"
        }
      ],
      "name": "UGOVPerBlockModified",
      "type": "event"
    },
    {
      "anonymous": false,
      "inputs": [
        {
          "indexed": true,
          "internalType": "address",
          "name": "user",
          "type": "address"
        },
        {
          "indexed": false,
          "internalType": "uint256",
          "name": "amount",
          "type": "uint256"
        },
        {
          "indexed": true,
          "internalType": "uint256",
          "name": "bondingShareId",
          "type": "uint256"
        }
      ],
      "name": "Withdraw",
      "type": "event"
    },
    {
      "inputs": [
        {
          "internalType": "address",
          "name": "to",
          "type": "address"
        },
        {
          "internalType": "uint256",
          "name": "_amount",
          "type": "uint256"
        },
        {
          "internalType": "uint256",
          "name": "_bondingShareID",
          "type": "uint256"
        }
      ],
      "name": "deposit",
      "outputs": [],
      "stateMutability": "nonpayable",
      "type": "function"
    },
    {
      "inputs": [
        {
          "internalType": "uint256",
          "name": "_id",
          "type": "uint256"
        }
      ],
      "name": "getBondingShareInfo",
      "outputs": [
        {
          "internalType": "uint256[2]",
          "name": "",
          "type": "uint256[2]"
        }
      ],
      "stateMutability": "view",
      "type": "function"
    },
    {
      "inputs": [
        {
          "internalType": "uint256",
          "name": "bondingShareID",
          "type": "uint256"
        }
      ],
      "name": "getRewards",
      "outputs": [
        {
          "internalType": "uint256",
          "name": "",
          "type": "uint256"
        }
      ],
      "stateMutability": "nonpayable",
      "type": "function"
    },
    {
      "inputs": [],
      "name": "lastPrice",
      "outputs": [
        {
          "internalType": "uint256",
          "name": "",
          "type": "uint256"
        }
      ],
      "stateMutability": "view",
      "type": "function"
    },
    {
      "inputs": [],
      "name": "manager",
      "outputs": [
        {
          "internalType": "contract UbiquityAlgorithmicDollarManager",
          "name": "",
          "type": "address"
        }
      ],
      "stateMutability": "view",
      "type": "function"
    },
    {
      "inputs": [],
      "name": "minPriceDiffToUpdateMultiplier",
      "outputs": [
        {
          "internalType": "uint256",
          "name": "",
          "type": "uint256"
        }
      ],
      "stateMutability": "view",
      "type": "function"
    },
    {
      "inputs": [
        {
          "internalType": "uint256",
          "name": "bondingShareID",
          "type": "uint256"
        }
      ],
      "name": "pendingUGOV",
      "outputs": [
        {
          "internalType": "uint256",
          "name": "",
          "type": "uint256"
        }
      ],
      "stateMutability": "view",
      "type": "function"
    },
    {
      "inputs": [],
      "name": "pool",
      "outputs": [
        {
          "internalType": "uint256",
          "name": "lastRewardBlock",
          "type": "uint256"
        },
        {
          "internalType": "uint256",
          "name": "accuGOVPerShare",
          "type": "uint256"
        }
      ],
      "stateMutability": "view",
      "type": "function"
    },
    {
      "inputs": [
        {
          "internalType": "uint256",
          "name": "_minPriceDiffToUpdateMultiplier",
          "type": "uint256"
        }
      ],
      "name": "setMinPriceDiffToUpdateMultiplier",
      "outputs": [],
      "stateMutability": "nonpayable",
      "type": "function"
    },
    {
      "inputs": [
        {
          "internalType": "uint256",
          "name": "_uGOVPerBlock",
          "type": "uint256"
        }
      ],
      "name": "setUGOVPerBlock",
      "outputs": [],
      "stateMutability": "nonpayable",
      "type": "function"
    },
    {
      "inputs": [
        {
          "internalType": "uint256",
          "name": "_uGOVDivider",
          "type": "uint256"
        }
      ],
      "name": "setUGOVShareForTreasury",
      "outputs": [],
      "stateMutability": "nonpayable",
      "type": "function"
    },
    {
      "inputs": [],
      "name": "totalShares",
      "outputs": [
        {
          "internalType": "uint256",
          "name": "",
          "type": "uint256"
        }
      ],
      "stateMutability": "view",
      "type": "function"
    },
    {
      "inputs": [],
      "name": "uGOVDivider",
      "outputs": [
        {
          "internalType": "uint256",
          "name": "",
          "type": "uint256"
        }
      ],
      "stateMutability": "view",
      "type": "function"
    },
    {
      "inputs": [],
      "name": "uGOVPerBlock",
      "outputs": [
        {
          "internalType": "uint256",
          "name": "",
          "type": "uint256"
        }
      ],
      "stateMutability": "view",
      "type": "function"
    },
    {
      "inputs": [],
      "name": "uGOVmultiplier",
      "outputs": [
        {
          "internalType": "uint256",
          "name": "",
          "type": "uint256"
        }
      ],
      "stateMutability": "view",
      "type": "function"
    },
    {
      "inputs": [
        {
          "internalType": "address",
          "name": "to",
          "type": "address"
        },
        {
          "internalType": "uint256",
          "name": "_amount",
          "type": "uint256"
        },
        {
          "internalType": "uint256",
          "name": "_bondingShareID",
          "type": "uint256"
        }
      ],
      "name": "withdraw",
      "outputs": [],
      "stateMutability": "nonpayable",
      "type": "function"
    }
  ],
  "bytecode": {
    "object": "0x6080604052670de0b6b3a764000060045566038d7ea4c68000600555670de0b6b3a76400006006553480156200003457600080fd5b50604051620030d2380380620030d2833981016040819052620000579162000e68565b60016000908155600280546001600160a01b0319166001600160a01b0387161790554360085560095560056007556200008f620001da565b825182518114620000e75760405162461bcd60e51b815260206004820152601e60248201527f5f616d6f756e7473206172726179206e6f742073616d65206c656e677468000060448201526064015b60405180910390fd5b81518114620001485760405162461bcd60e51b815260206004820152602660248201527f5f626f6e64696e675368617265494473206172726179206e6f742073616d65206044820152650d8cadccee8d60d31b6064820152608401620000de565b60005b81811015620001ce57620001bb8582815181106200016d576200016d62000f74565b60200260200101518583815181106200018a576200018a62000f74565b6020026020010151858481518110620001a757620001a762000f74565b60200260200101516200034b60201b60201c565b620001c68162000fa0565b90506200014b565b5050505050506200111d565b6000620001e662000459565b90506000600654821115620002105760055460065462000207908462000fbe565b11905062000227565b6005548260065462000223919062000fbe565b1190505b80156200034757600260009054906101000a90046001600160a01b03166001600160a01b031663214f78826040518163ffffffff1660e01b815260040160206040518083038186803b1580156200027d57600080fd5b505afa15801562000292573d6000803e3d6000fd5b505050506040513d601f19601f82011682018060405250810190620002b8919062000fd8565b60048054604051631e53a55760e21b815291820152602481018490526001600160a01b03919091169063794e955c9060440160206040518083038186803b1580156200030357600080fd5b505afa15801562000318573d6000803e3d6000fd5b505050506040513d601f19601f820116820180604052508101906200033e919062000ffd565b60045560068290555b5050565b6000818152600a6020526040902062000363620005f2565b805415620003b457600181015460095482546000929164e8d4a51000916200038c919062001017565b62000398919062001039565b620003a4919062000fbe565b9050620003b2858262000908565b505b82816000016000828254620003ca91906200105c565b9091555050600954815464e8d4a5100091620003e69162001017565b620003f2919062001039565b816001018190555082600160008282546200040e91906200105c565b909155505060405183815282906001600160a01b038616907f90890809c654f11d6e72a28fa60149770a0d11ec6c92319d6ceb2bb0a4ea1a159060200160405180910390a350505050565b60025460408051638fe6368360e01b815290516000926001600160a01b031691638fe63683916004808301926020929190829003018186803b1580156200049f57600080fd5b505afa158015620004b4573d6000803e3d6000fd5b505050506040513d601f19601f82011682018060405250810190620004da919062000fd8565b6001600160a01b031663283583c6600260009054906101000a90046001600160a01b03166001600160a01b031663bc3ea0186040518163ffffffff1660e01b815260040160206040518083038186803b1580156200053757600080fd5b505afa1580156200054c573d6000803e3d6000fd5b505050506040513d601f19601f8201168201806040525081019062000572919062000fd8565b6040516001600160e01b031960e084901b1681526001600160a01b03909116600482015260240160206040518083038186803b158015620005b257600080fd5b505afa158015620005c7573d6000803e3d6000fd5b505050506040513d601f19601f82011682018060405250810190620005ed919062000ffd565b905090565b6008544311620005fe57565b62000608620001da565b600154620006165743600855565b60006200062262000a6b565b90506000670de0b6b3a7640000600354836200063f919062001017565b6200064b919062001039565b9050600260009054906101000a90046001600160a01b03166001600160a01b031663b42165d06040518163ffffffff1660e01b815260040160206040518083038186803b1580156200069c57600080fd5b505afa158015620006b1573d6000803e3d6000fd5b505050506040513d601f19601f82011682018060405250810190620006d7919062000fd8565b6040516340c10f1960e01b8152306004820152602481018390526001600160a01b0391909116906340c10f1990604401600060405180830381600087803b1580156200072257600080fd5b505af115801562000737573d6000803e3d6000fd5b50505050600260009054906101000a90046001600160a01b03166001600160a01b031663b42165d06040518163ffffffff1660e01b815260040160206040518083038186803b1580156200078a57600080fd5b505afa1580156200079f573d6000803e3d6000fd5b505050506040513d601f19601f82011682018060405250810190620007c5919062000fd8565b6001600160a01b03166340c10f19600260009054906101000a90046001600160a01b03166001600160a01b031663c5f956af6040518163ffffffff1660e01b815260040160206040518083038186803b1580156200082257600080fd5b505afa15801562000837573d6000803e3d6000fd5b505050506040513d601f19601f820116820180604052508101906200085d919062000fd8565b6007546200086c908562001039565b6040516001600160e01b031960e085901b1681526001600160a01b0390921660048301526024820152604401600060405180830381600087803b158015620008b357600080fd5b505af1158015620008c8573d6000803e3d6000fd5b505050506001548164e8d4a51000620008e2919062001017565b620008ee919062001039565b600954620008fd91906200105c565b600955505043600855565b60025460408051630b42165d60e41b815290516000926001600160a01b03169163b42165d0916004808301926020929190829003018186803b1580156200094e57600080fd5b505afa15801562000963573d6000803e3d6000fd5b505050506040513d601f19601f8201168201806040525081019062000989919062000fd8565b6040516370a0823160e01b81523060048201529091506000906001600160a01b038316906370a082319060240160206040518083038186803b158015620009cf57600080fd5b505afa158015620009e4573d6000803e3d6000fd5b505050506040513d601f19601f8201168201806040525081019062000a0a919062000ffd565b90508083111562000a405762000a3a8482846001600160a01b031662000a8d60201b62000ecd179092919060201c565b62000a65565b62000a658484846001600160a01b031662000a8d60201b62000ecd179092919060201c565b50505050565b6004546008546000919062000a81904362000fbe565b620005ed919062001017565b604080516001600160a01b038416602482015260448082018490528251808303909101815260649091019091526020810180516001600160e01b0390811663a9059cbb60e01b1790915262000ae591859162000aea16565b505050565b600062000b46826040518060400160405280602081526020017f5361666545524332303a206c6f772d6c6576656c2063616c6c206661696c6564815250856001600160a01b031662000bc860201b62000f5a179092919060201c565b80519091501562000ae5578080602001905181019062000b67919062001077565b62000ae55760405162461bcd60e51b815260206004820152602a60248201527f5361666545524332303a204552433230206f7065726174696f6e20646964206e6044820152691bdd081cdd58d8d9595960b21b6064820152608401620000de565b606062000bd9848460008562000be1565b949350505050565b60608247101562000c445760405162461bcd60e51b815260206004820152602660248201527f416464726573733a20696e73756666696369656e742062616c616e636520666f6044820152651c8818d85b1b60d21b6064820152608401620000de565b600080866001600160a01b0316858760405162000c629190620010ca565b60006040518083038185875af1925050503d806000811462000ca1576040519150601f19603f3d011682016040523d82523d6000602084013e62000ca6565b606091505b50909250905062000cba8783838762000cc5565b979650505050505050565b6060831562000d3657825162000d2e576001600160a01b0385163b62000d2e5760405162461bcd60e51b815260206004820152601d60248201527f416464726573733a2063616c6c20746f206e6f6e2d636f6e74726163740000006044820152606401620000de565b508162000bd9565b62000bd9838381511562000d4d5781518083602001fd5b8060405162461bcd60e51b8152600401620000de9190620010e8565b80516001600160a01b038116811462000d8157600080fd5b919050565b634e487b7160e01b600052604160045260246000fd5b604051601f8201601f191681016001600160401b038111828210171562000dc75762000dc762000d86565b604052919050565b60006001600160401b0382111562000deb5762000deb62000d86565b5060051b60200190565b600082601f83011262000e0757600080fd5b8151602062000e2062000e1a8362000dcf565b62000d9c565b82815260059290921b8401810191818101908684111562000e4057600080fd5b8286015b8481101562000e5d578051835291830191830162000e44565b509695505050505050565b6000806000806080858703121562000e7f57600080fd5b62000e8a8562000d69565b602086810151919550906001600160401b038082111562000eaa57600080fd5b818801915088601f83011262000ebf57600080fd5b815162000ed062000e1a8262000dcf565b81815260059190911b8301840190848101908b83111562000ef057600080fd5b938501935b8285101562000f195762000f098562000d69565b8252938501939085019062000ef5565b60408b0151909850945050508083111562000f3357600080fd5b62000f4189848a0162000df5565b9450606088015192508083111562000f5857600080fd5b505062000f688782880162000df5565b91505092959194509250565b634e487b7160e01b600052603260045260246000fd5b634e487b7160e01b600052601160045260246000fd5b600060001982141562000fb75762000fb762000f8a565b5060010190565b60008282101562000fd35762000fd362000f8a565b500390565b60006020828403121562000feb57600080fd5b62000ff68262000d69565b9392505050565b6000602082840312156200101057600080fd5b5051919050565b600081600019048311821515161562001034576200103462000f8a565b500290565b6000826200105757634e487b7160e01b600052601260045260246000fd5b500490565b6000821982111562001072576200107262000f8a565b500190565b6000602082840312156200108a57600080fd5b8151801515811462000ff657600080fd5b60005b83811015620010b85781810151838201526020016200109e565b8381111562000a655750506000910152565b60008251620010de8184602087016200109b565b9190910192915050565b6020815260008251806020840152620011098160408501602087016200109b565b601f01601f19169190910160400192915050565b611fa5806200112d6000396000f3fe608060405234801561001057600080fd5b50600436106101005760003560e01c806378b3139b1161009757806389c80b6b1161006657806389c80b6b14610210578063b5c5f67214610223578063c0d8012c14610236578063ffd65a491461024957600080fd5b806378b3139b146101c15780637b80a5c0146101d45780637e7d09ca146101f45780637eb751c7146101fd57600080fd5b806321933933116100d357806321933933146101625780633a98ef391461016b57806347e54e3814610173578063481c6a751461017c57600080fd5b8063053f14da146101055780630efe6a8b1461012157806316f0115b146101365780631aeb2d0914610159575b600080fd5b61010e60065481565b6040519081526020015b60405180910390f35b61013461012f366004611d22565b61025c565b005b600854600954610144919082565b60408051928352602083019190915201610118565b61010e60045481565b61010e60055481565b60015461010e565b61010e60035481565b60025461019c9073ffffffffffffffffffffffffffffffffffffffff1681565b60405173ffffffffffffffffffffffffffffffffffffffff9091168152602001610118565b6101346101cf366004611d57565b6103b7565b6101e76101e2366004611d57565b610588565b6040516101189190611d70565b61010e60075481565b61010e61020b366004611d57565b6105c0565b61013461021e366004611d57565b61067a565b610134610231366004611d22565b61081d565b61010e610244366004611d57565b610ac9565b610134610257366004611d57565b610cfc565b610264610f69565b600260009054906101000a900473ffffffffffffffffffffffffffffffffffffffff1673ffffffffffffffffffffffffffffffffffffffff1663de71c1db6040518163ffffffff1660e01b815260040160206040518083038186803b1580156102cc57600080fd5b505afa1580156102e0573d6000803e3d6000fd5b505050506040513d601f19601f820116820180604052508101906103049190611da1565b73ffffffffffffffffffffffffffffffffffffffff163373ffffffffffffffffffffffffffffffffffffffff161461039d576040517f08c379a000000000000000000000000000000000000000000000000000000000815260206004820181905260248201527f4d6173746572436865663a206e6f7420426f6e64696e6720436f6e747261637460448201526064015b60405180910390fd5b6103a8838383610fdd565b6103b26001600055565b505050565b600254604080517f3b4d9773000000000000000000000000000000000000000000000000000000008152905173ffffffffffffffffffffffffffffffffffffffff909216916391d14854918391633b4d977391600480820192602092909190829003018186803b15801561042a57600080fd5b505afa15801561043e573d6000803e3d6000fd5b505050506040513d601f19601f820116820180604052508101906104629190611dc5565b6040517fffffffff0000000000000000000000000000000000000000000000000000000060e084901b168152600481019190915233602482015260440160206040518083038186803b1580156104b757600080fd5b505afa1580156104cb573d6000803e3d6000fd5b505050506040513d601f19601f820116820180604052508101906104ef9190611dde565b610555576040517f08c379a000000000000000000000000000000000000000000000000000000000815260206004820152601b60248201527f4d6173746572436865663a206e6f7420554251206d616e6167657200000000006044820152606401610394565b600581905560405181907fee9ca614114d0b14b7c182d61fbc2e9aed69823d5f4a3a6436f95da3a6d0a82490600090a250565b610590611cdf565b506040805180820182526000838152600a6020818152938220805484529490915282526001909201549082015290565b6000818152600a60205260408120600954600854431180156105e3575060015415155b156106455760006105f26110e5565b90506000670de0b6b3a76400006003548361060d9190611e2f565b6106179190611e6c565b60015490915061062c8264e8d4a51000611e2f565b6106369190611e6c565b6106409084611ea7565b925050505b6001820154825464e8d4a510009061065e908490611e2f565b6106689190611e6c565b6106729190611ebf565b949350505050565b600254604080517f3b4d9773000000000000000000000000000000000000000000000000000000008152905173ffffffffffffffffffffffffffffffffffffffff909216916391d14854918391633b4d977391600480820192602092909190829003018186803b1580156106ed57600080fd5b505afa158015610701573d6000803e3d6000fd5b505050506040513d601f19601f820116820180604052508101906107259190611dc5565b6040517fffffffff0000000000000000000000000000000000000000000000000000000060e084901b168152600481019190915233602482015260440160206040518083038186803b15801561077a57600080fd5b505afa15801561078e573d6000803e3d6000fd5b505050506040513d601f19601f820116820180604052508101906107b29190611dde565b610818576040517f08c379a000000000000000000000000000000000000000000000000000000000815260206004820152601b60248201527f4d6173746572436865663a206e6f7420554251206d616e6167657200000000006044820152606401610394565b600755565b610825610f69565b600260009054906101000a900473ffffffffffffffffffffffffffffffffffffffff1673ffffffffffffffffffffffffffffffffffffffff1663de71c1db6040518163ffffffff1660e01b815260040160206040518083038186803b15801561088d57600080fd5b505afa1580156108a1573d6000803e3d6000fd5b505050506040513d601f19601f820116820180604052508101906108c59190611da1565b73ffffffffffffffffffffffffffffffffffffffff163373ffffffffffffffffffffffffffffffffffffffff1614610959576040517f08c379a000000000000000000000000000000000000000000000000000000000815260206004820181905260248201527f4d6173746572436865663a206e6f7420426f6e64696e6720436f6e74726163746044820152606401610394565b6000818152600a6020526040902080548311156109d2576040517f08c379a000000000000000000000000000000000000000000000000000000000815260206004820152601360248201527f4d433a20616d6f756e7420746f6f2068696768000000000000000000000000006044820152606401610394565b6109da611108565b600181015460095482546000929164e8d4a51000916109f99190611e2f565b610a039190611e6c565b610a0d9190611ebf565b9050610a1985826114a2565b83826000016000828254610a2d9190611ebf565b9091555050600954825464e8d4a5100091610a4791611e2f565b610a519190611e6c565b82600101819055508360016000828254610a6b9190611ebf565b9091555050604051848152839073ffffffffffffffffffffffffffffffffffffffff8716907ff279e6a1f5e320cca91135676d9cb6e44ca8a08c0b88342bcdb1144f6511b5689060200160405180910390a350506103b26001600055565b600254604080517fc431e83c000000000000000000000000000000000000000000000000000000008152905160009273ffffffffffffffffffffffffffffffffffffffff169163c431e83c916004808301926020929190829003018186803b158015610b3457600080fd5b505afa158015610b48573d6000803e3d6000fd5b505050506040513d601f19601f82011682018060405250810190610b6c9190611da1565b6040517efdd58e0000000000000000000000000000000000000000000000000000000081523360048201526024810184905273ffffffffffffffffffffffffffffffffffffffff919091169062fdd58e9060440160206040518083038186803b158015610bd857600080fd5b505afa158015610bec573d6000803e3d6000fd5b505050506040513d601f19601f82011682018060405250810190610c109190611dc5565b600114610c79576040517f08c379a000000000000000000000000000000000000000000000000000000000815260206004820152601760248201527f4d533a2063616c6c6572206973206e6f74206f776e65720000000000000000006044820152606401610394565b6000828152600a60205260409020610c8f611108565b600181015460095482546000929164e8d4a5100091610cae9190611e2f565b610cb89190611e6c565b610cc29190611ebf565b9050610cce33826114a2565b600954825464e8d4a5100091610ce391611e2f565b610ced9190611e6c565b60019092019190915592915050565b600254604080517f3b4d9773000000000000000000000000000000000000000000000000000000008152905173ffffffffffffffffffffffffffffffffffffffff909216916391d14854918391633b4d977391600480820192602092909190829003018186803b158015610d6f57600080fd5b505afa158015610d83573d6000803e3d6000fd5b505050506040513d601f19601f82011682018060405250810190610da79190611dc5565b6040517fffffffff0000000000000000000000000000000000000000000000000000000060e084901b168152600481019190915233602482015260440160206040518083038186803b158015610dfc57600080fd5b505afa158015610e10573d6000803e3d6000fd5b505050506040513d601f19601f82011682018060405250810190610e349190611dde565b610e9a576040517f08c379a000000000000000000000000000000000000000000000000000000000815260206004820152601b60248201527f4d6173746572436865663a206e6f7420554251206d616e6167657200000000006044820152606401610394565b600381905560405181907f7f2defb81cc3cff687ded0c71592c972625223425d9b43db42a0a79b0fbf4bb790600090a250565b6040805173ffffffffffffffffffffffffffffffffffffffff8416602482015260448082018490528251808303909101815260649091019091526020810180517bffffffffffffffffffffffffffffffffffffffffffffffffffffffff167fa9059cbb000000000000000000000000000000000000000000000000000000001790526103b290849061163f565b6060610672848460008561174b565b60026000541415610fd6576040517f08c379a000000000000000000000000000000000000000000000000000000000815260206004820152601f60248201527f5265656e7472616e637947756172643a207265656e7472616e742063616c6c006044820152606401610394565b6002600055565b6000818152600a60205260409020610ff3611108565b80541561103b57600181015460095482546000929164e8d4a51000916110199190611e2f565b6110239190611e6c565b61102d9190611ebf565b905061103985826114a2565b505b8281600001600082825461104f9190611ea7565b9091555050600954815464e8d4a510009161106991611e2f565b6110739190611e6c565b8160010181905550826001600082825461108d9190611ea7565b9091555050604051838152829073ffffffffffffffffffffffffffffffffffffffff8616907f90890809c654f11d6e72a28fa60149770a0d11ec6c92319d6ceb2bb0a4ea1a159060200160405180910390a350505050565b600454600854600091906110f99043611ebf565b6111039190611e2f565b905090565b600854431161111357565b61111b611864565b6001546111285743600855565b60006111326110e5565b90506000670de0b6b3a76400006003548361114d9190611e2f565b6111579190611e6c565b9050600260009054906101000a900473ffffffffffffffffffffffffffffffffffffffff1673ffffffffffffffffffffffffffffffffffffffff1663b42165d06040518163ffffffff1660e01b815260040160206040518083038186803b1580156111c157600080fd5b505afa1580156111d5573d6000803e3d6000fd5b505050506040513d601f19601f820116820180604052508101906111f99190611da1565b6040517f40c10f190000000000000000000000000000000000000000000000000000000081523060048201526024810183905273ffffffffffffffffffffffffffffffffffffffff91909116906340c10f1990604401600060405180830381600087803b15801561126957600080fd5b505af115801561127d573d6000803e3d6000fd5b50505050600260009054906101000a900473ffffffffffffffffffffffffffffffffffffffff1673ffffffffffffffffffffffffffffffffffffffff1663b42165d06040518163ffffffff1660e01b815260040160206040518083038186803b1580156112e957600080fd5b505afa1580156112fd573d6000803e3d6000fd5b505050506040513d601f19601f820116820180604052508101906113219190611da1565b73ffffffffffffffffffffffffffffffffffffffff166340c10f19600260009054906101000a900473ffffffffffffffffffffffffffffffffffffffff1673ffffffffffffffffffffffffffffffffffffffff1663c5f956af6040518163ffffffff1660e01b815260040160206040518083038186803b1580156113a457600080fd5b505afa1580156113b8573d6000803e3d6000fd5b505050506040513d601f19601f820116820180604052508101906113dc9190611da1565b6007546113e99085611e6c565b6040517fffffffff0000000000000000000000000000000000000000000000000000000060e085901b16815273ffffffffffffffffffffffffffffffffffffffff90921660048301526024820152604401600060405180830381600087803b15801561145457600080fd5b505af1158015611468573d6000803e3d6000fd5b505050506001548164e8d4a510006114809190611e2f565b61148a9190611e6c565b6009546114979190611ea7565b600955505043600855565b600254604080517fb42165d0000000000000000000000000000000000000000000000000000000008152905160009273ffffffffffffffffffffffffffffffffffffffff169163b42165d0916004808301926020929190829003018186803b15801561150d57600080fd5b505afa158015611521573d6000803e3d6000fd5b505050506040513d601f19601f820116820180604052508101906115459190611da1565b6040517f70a0823100000000000000000000000000000000000000000000000000000000815230600482015290915060009073ffffffffffffffffffffffffffffffffffffffff8316906370a082319060240160206040518083038186803b1580156115b057600080fd5b505afa1580156115c4573d6000803e3d6000fd5b505050506040513d601f19601f820116820180604052508101906115e89190611dc5565b9050808311156116185761161373ffffffffffffffffffffffffffffffffffffffff83168583610ecd565b611639565b61163973ffffffffffffffffffffffffffffffffffffffff83168585610ecd565b50505050565b60006116a1826040518060400160405280602081526020017f5361666545524332303a206c6f772d6c6576656c2063616c6c206661696c65648152508573ffffffffffffffffffffffffffffffffffffffff16610f5a9092919063ffffffff16565b8051909150156103b257808060200190518101906116bf9190611dde565b6103b2576040517f08c379a000000000000000000000000000000000000000000000000000000000815260206004820152602a60248201527f5361666545524332303a204552433230206f7065726174696f6e20646964206e60448201527f6f742073756363656564000000000000000000000000000000000000000000006064820152608401610394565b6060824710156117dd576040517f08c379a000000000000000000000000000000000000000000000000000000000815260206004820152602660248201527f416464726573733a20696e73756666696369656e742062616c616e636520666f60448201527f722063616c6c00000000000000000000000000000000000000000000000000006064820152608401610394565b6000808673ffffffffffffffffffffffffffffffffffffffff1685876040516118069190611f02565b60006040518083038185875af1925050503d8060008114611843576040519150601f19603f3d011682016040523d82523d6000602084013e611848565b606091505b509150915061185987838387611a04565b979650505050505050565b600061186e611aa1565b905060006006548211156118945760055460065461188c9084611ebf565b1190506118a9565b600554826006546118a59190611ebf565b1190505b8015611a0057600260009054906101000a900473ffffffffffffffffffffffffffffffffffffffff1673ffffffffffffffffffffffffffffffffffffffff1663214f78826040518163ffffffff1660e01b815260040160206040518083038186803b15801561191757600080fd5b505afa15801561192b573d6000803e3d6000fd5b505050506040513d601f19601f8201168201806040525081019061194f9190611da1565b600480546040517f794e955c000000000000000000000000000000000000000000000000000000008152918201526024810184905273ffffffffffffffffffffffffffffffffffffffff919091169063794e955c9060440160206040518083038186803b1580156119bf57600080fd5b505afa1580156119d3573d6000803e3d6000fd5b505050506040513d601f19601f820116820180604052508101906119f79190611dc5565b60045560068290555b5050565b60608315611a97578251611a905773ffffffffffffffffffffffffffffffffffffffff85163b611a90576040517f08c379a000000000000000000000000000000000000000000000000000000000815260206004820152601d60248201527f416464726573733a2063616c6c20746f206e6f6e2d636f6e74726163740000006044820152606401610394565b5081610672565b6106728383611c9b565b600254604080517f8fe63683000000000000000000000000000000000000000000000000000000008152905160009273ffffffffffffffffffffffffffffffffffffffff1691638fe63683916004808301926020929190829003018186803b158015611b0c57600080fd5b505afa158015611b20573d6000803e3d6000fd5b505050506040513d601f19601f82011682018060405250810190611b449190611da1565b73ffffffffffffffffffffffffffffffffffffffff1663283583c6600260009054906101000a900473ffffffffffffffffffffffffffffffffffffffff1673ffffffffffffffffffffffffffffffffffffffff1663bc3ea0186040518163ffffffff1660e01b815260040160206040518083038186803b158015611bc757600080fd5b505afa158015611bdb573d6000803e3d6000fd5b505050506040513d601f19601f82011682018060405250810190611bff9190611da1565b6040517fffffffff0000000000000000000000000000000000000000000000000000000060e084901b16815273ffffffffffffffffffffffffffffffffffffffff909116600482015260240160206040518083038186803b158015611c6357600080fd5b505afa158015611c77573d6000803e3d6000fd5b505050506040513d601f19601f820116820180604052508101906111039190611dc5565b815115611cab5781518083602001fd5b806040517f08c379a00000000000000000000000000000000000000000000000000000000081526004016103949190611f1e565b60405180604001604052806002906020820280368337509192915050565b73ffffffffffffffffffffffffffffffffffffffff81168114611d1f57600080fd5b50565b600080600060608486031215611d3757600080fd5b8335611d4281611cfd565b95602085013595506040909401359392505050565b600060208284031215611d6957600080fd5b5035919050565b60408101818360005b6002811015611d98578151835260209283019290910190600101611d79565b50505092915050565b600060208284031215611db357600080fd5b8151611dbe81611cfd565b9392505050565b600060208284031215611dd757600080fd5b5051919050565b600060208284031215611df057600080fd5b81518015158114611dbe57600080fd5b7f4e487b7100000000000000000000000000000000000000000000000000000000600052601160045260246000fd5b6000817fffffffffffffffffffffffffffffffffffffffffffffffffffffffffffffffff0483118215151615611e6757611e67611e00565b500290565b600082611ea2577f4e487b7100000000000000000000000000000000000000000000000000000000600052601260045260246000fd5b500490565b60008219821115611eba57611eba611e00565b500190565b600082821015611ed157611ed1611e00565b500390565b60005b83811015611ef1578181015183820152602001611ed9565b838111156116395750506000910152565b60008251611f14818460208701611ed6565b9190910192915050565b6020815260008251806020840152611f3d816040850160208701611ed6565b601f017fffffffffffffffffffffffffffffffffffffffffffffffffffffffffffffffe016919091016040019291505056fea2646970667358221220ea0b1da0a66b97a2d177f5ec2178969ee6e89a1fad7c8f79eba97f4185f58c9e64736f6c63430008090033",
    "linkReferences": {}
  },
  "methodIdentifiers": {
    "deposit(address,uint256,uint256)": "0efe6a8b",
    "getBondingShareInfo(uint256)": "7b80a5c0",
    "getRewards(uint256)": "c0d8012c",
    "lastPrice()": "053f14da",
    "manager()": "481c6a75",
    "minPriceDiffToUpdateMultiplier()": "21933933",
    "pendingUGOV(uint256)": "7eb751c7",
    "pool()": "16f0115b",
    "setMinPriceDiffToUpdateMultiplier(uint256)": "78b3139b",
    "setUGOVPerBlock(uint256)": "ffd65a49",
    "setUGOVShareForTreasury(uint256)": "89c80b6b",
    "totalShares()": "3a98ef39",
    "uGOVDivider()": "7e7d09ca",
    "uGOVPerBlock()": "47e54e38",
    "uGOVmultiplier()": "1aeb2d09",
    "withdraw(address,uint256,uint256)": "b5c5f672"
  },
  "id": 53
}