{
  "abi": [
    {
      "inputs": [],
      "stateMutability": "nonpayable",
      "type": "constructor"
    },
    {
      "anonymous": false,
      "inputs": [
        {
          "indexed": false,
          "internalType": "address",
          "name": "from",
          "type": "address"
        },
        {
          "indexed": false,
          "internalType": "uint256",
          "name": "count",
          "type": "uint256"
        },
        {
          "indexed": false,
          "internalType": "uint256",
          "name": "price",
          "type": "uint256"
        }
      ],
      "name": "Mint",
      "type": "event"
    },
    {
      "anonymous": false,
      "inputs": [
        {
          "indexed": true,
          "internalType": "address",
          "name": "previousOwner",
          "type": "address"
        },
        {
          "indexed": true,
          "internalType": "address",
          "name": "newOwner",
          "type": "address"
        }
      ],
      "name": "OwnershipTransferred",
      "type": "event"
    },
    {
      "anonymous": false,
      "inputs": [
        {
          "indexed": false,
          "internalType": "address",
          "name": "to",
          "type": "address"
        },
        {
          "indexed": false,
          "internalType": "uint256",
          "name": "unspent",
          "type": "uint256"
        }
      ],
      "name": "Payback",
      "type": "event"
    },
    {
      "anonymous": false,
      "inputs": [
        {
          "indexed": false,
          "internalType": "address",
          "name": "to",
          "type": "address"
        },
        {
          "indexed": false,
          "internalType": "address",
          "name": "token",
          "type": "address"
        },
        {
          "indexed": false,
          "internalType": "uint256",
          "name": "amount",
          "type": "uint256"
        }
      ],
      "name": "Withdraw",
      "type": "event"
    },
    {
      "inputs": [],
      "name": "MAXIMUM_PER_TX",
      "outputs": [
        {
          "internalType": "uint256",
          "name": "",
          "type": "uint256"
        }
      ],
      "stateMutability": "view",
      "type": "function"
    },
    {
      "inputs": [],
      "name": "MAXIMUM_SUPPLY",
      "outputs": [
        {
          "internalType": "uint256",
          "name": "",
          "type": "uint256"
        }
      ],
      "stateMutability": "view",
      "type": "function"
    },
    {
      "inputs": [
        {
          "internalType": "address",
          "name": "_address",
          "type": "address"
        }
      ],
      "name": "allowance",
      "outputs": [
        {
          "internalType": "uint256",
          "name": "count",
          "type": "uint256"
        },
        {
          "internalType": "uint256",
          "name": "price",
          "type": "uint256"
        }
      ],
      "stateMutability": "view",
      "type": "function"
    },
    {
      "inputs": [
        {
          "internalType": "address[]",
          "name": "_addresses",
          "type": "address[]"
        },
        {
          "internalType": "uint256[]",
          "name": "_counts",
          "type": "uint256[]"
        },
        {
          "internalType": "uint256[]",
          "name": "_prices",
          "type": "uint256[]"
        }
      ],
      "name": "batchSetAllowances",
      "outputs": [],
      "stateMutability": "nonpayable",
      "type": "function"
    },
    {
      "inputs": [],
      "name": "fundsAddress",
      "outputs": [
        {
          "internalType": "address",
          "name": "",
          "type": "address"
        }
      ],
      "stateMutability": "view",
      "type": "function"
    },
    {
      "inputs": [],
      "name": "owner",
      "outputs": [
        {
          "internalType": "address",
          "name": "",
          "type": "address"
        }
      ],
      "stateMutability": "view",
      "type": "function"
    },
    {
      "inputs": [],
      "name": "renounceOwnership",
      "outputs": [],
      "stateMutability": "nonpayable",
      "type": "function"
    },
    {
      "inputs": [
        {
          "internalType": "address",
          "name": "_address",
          "type": "address"
        },
        {
          "internalType": "uint256",
          "name": "_count",
          "type": "uint256"
        },
        {
          "internalType": "uint256",
          "name": "_price",
          "type": "uint256"
        }
      ],
      "name": "setAllowance",
      "outputs": [],
      "stateMutability": "nonpayable",
      "type": "function"
    },
    {
      "inputs": [
        {
          "internalType": "address",
          "name": "_address",
          "type": "address"
        }
      ],
      "name": "setFundsAddress",
      "outputs": [],
      "stateMutability": "nonpayable",
      "type": "function"
    },
    {
      "inputs": [
        {
          "internalType": "address",
          "name": "_newTokenContract",
          "type": "address"
        }
      ],
      "name": "setTokenContract",
      "outputs": [],
      "stateMutability": "nonpayable",
      "type": "function"
    },
    {
      "inputs": [],
      "name": "tokenContract",
      "outputs": [
        {
          "internalType": "contract ITheUbiquityStick",
          "name": "",
          "type": "address"
        }
      ],
      "stateMutability": "view",
      "type": "function"
    },
    {
      "inputs": [
        {
          "internalType": "address",
          "name": "newOwner",
          "type": "address"
        }
      ],
      "name": "transferOwnership",
      "outputs": [],
      "stateMutability": "nonpayable",
      "type": "function"
    },
    {
      "inputs": [],
      "name": "withdraw",
      "outputs": [],
      "stateMutability": "nonpayable",
      "type": "function"
    },
    {
      "stateMutability": "payable",
      "type": "receive"
    }
  ],
  "bytecode": {
    "object": "0x608060405234801561001057600080fd5b5061001a33610023565b60018055610073565b600080546001600160a01b038381166001600160a01b0319831681178455604051919092169283917f8be0079c531659141344cd1fd0a4f28419497f9722a3daafe3b4186f6b6457e09190a35050565b61101b806100826000396000f3fe6080604052600436106100d65760003560e01c8063715018a61161007f578063a77ccd6e11610059578063a77ccd6e1461073d578063bbcd5bbe1461076a578063bdce0b281461078a578063f2fde38b1461079f57600080fd5b8063715018a6146106dd5780637f19abe0146106f25780638da5cb5b1461071257600080fd5b80633e5beab9116100b05780633e5beab9146105f657806342dbb4ef1461066b57806355a373d61461068b57600080fd5b806304acbb99146105985780633ccfd60b146105b85780633d0c4924146105cd57600080fd5b36610593576100e36107bf565b600254604080517f18160ddd00000000000000000000000000000000000000000000000000000000815290516104009273ffffffffffffffffffffffffffffffffffffffff16916318160ddd9160048083019260209291908290030181865afa158015610154573d6000803e3d6000fd5b505050506040513d601f19601f820116820180604052508101906101789190610d58565b106101e4576040517f08c379a000000000000000000000000000000000000000000000000000000000815260206004820152600860248201527f536f6c64204f757400000000000000000000000000000000000000000000000060448201526064015b60405180910390fd5b600254604080517f18160ddd000000000000000000000000000000000000000000000000000000008152905160009273ffffffffffffffffffffffffffffffffffffffff16916318160ddd9160048083019260209291908290030181865afa158015610254573d6000803e3d6000fd5b505050506040513d601f19601f820116820180604052508101906102789190610d58565b61028490610400610da0565b90506000806102d23373ffffffffffffffffffffffffffffffffffffffff16600090815260036020908152604091829020825180840190935280548084526001909101549290910182905291565b909250905081610364576040517f08c379a000000000000000000000000000000000000000000000000000000000815260206004820152603660248201527f4e6f742057686974656c697374656420466f72205468652053616c65204f722060448201527f496e73756666696369656e7420416c6c6f77616e63650000000000000000000060648201526084016101db565b81831015610370578291505b61037a8183610db9565b34101561038e5761038b8134610df6565b91505b81600a101561039c57600a91505b60008211610406576040517f08c379a000000000000000000000000000000000000000000000000000000000815260206004820152601060248201527f4e6f7420656e6f7567682046756e64730000000000000000000000000000000060448201526064016101db565b3360009081526003602052604081208054849290610425908490610da0565b90915550600090506104378284610db9565b6002546040517f5832bcfe0000000000000000000000000000000000000000000000000000000081523360048201526024810186905291925073ffffffffffffffffffffffffffffffffffffffff1690635832bcfe90604401600060405180830381600087803b1580156104aa57600080fd5b505af11580156104be573d6000803e3d6000fd5b505060408051338152602081018790529081018490527f4c209b5fc8ad50758f13e2e1088ba56a560dff690a1c6fef26394f4c03821c4f9250606001905060405180910390a1803411156105845760006105188234610da0565b604051909150339082156108fc029083906000818181858888f19350505050158015610548573d6000803e3d6000fd5b5060408051338152602081018390527f8c9cdf934f136ab5b80fe11dfd56363fa7544ecb56d4c440c0d8a14d04bfff4a910160405180910390a1505b5050505061059160018055565b005b600080fd5b3480156105a457600080fd5b506105916105b3366004610e5a565b610832565b3480156105c457600080fd5b506105916108fe565b3480156105d957600080fd5b506105e361040081565b6040519081526020015b60405180910390f35b34801561060257600080fd5b50610656610611366004610e8d565b73ffffffffffffffffffffffffffffffffffffffff16600090815260036020908152604091829020825180840190935280548084526001909101549290910182905291565b604080519283526020830191909152016105ed565b34801561067757600080fd5b50610591610686366004610efb565b610960565b34801561069757600080fd5b506002546106b89073ffffffffffffffffffffffffffffffffffffffff1681565b60405173ffffffffffffffffffffffffffffffffffffffff90911681526020016105ed565b3480156106e957600080fd5b50610591610a01565b3480156106fe57600080fd5b5061059161070d366004610e8d565b610a13565b34801561071e57600080fd5b5060005473ffffffffffffffffffffffffffffffffffffffff166106b8565b34801561074957600080fd5b506004546106b89073ffffffffffffffffffffffffffffffffffffffff1681565b34801561077657600080fd5b50610591610785366004610e8d565b610adf565b34801561079657600080fd5b506105e3600a81565b3480156107ab57600080fd5b506105916107ba366004610e8d565b610bab565b60026001540361082b576040517f08c379a000000000000000000000000000000000000000000000000000000000815260206004820152601f60248201527f5265656e7472616e637947756172643a207265656e7472616e742063616c6c0060448201526064016101db565b6002600155565b61083a610c62565b73ffffffffffffffffffffffffffffffffffffffff83166108b7576040517f08c379a000000000000000000000000000000000000000000000000000000000815260206004820152600f60248201527f496e76616c69642041646472657373000000000000000000000000000000000060448201526064016101db565b604080518082018252928352602080840192835273ffffffffffffffffffffffffffffffffffffffff90941660009081526003909452909220905181559051600190910155565b6109066107bf565b61090e610c62565b60045460405173ffffffffffffffffffffffffffffffffffffffff909116904780156108fc02916000818181858888f19350505050158015610954573d6000803e3d6000fd5b5061095e60018055565b565b610968610c62565b8460005b818161ffff1610156109f7576109e588888361ffff1681811061099157610991610f95565b90506020020160208101906109a69190610e8d565b87878461ffff168181106109bc576109bc610f95565b9050602002013586868561ffff168181106109d9576109d9610f95565b90506020020135610832565b806109ef81610fc4565b91505061096c565b5050505050505050565b610a09610c62565b61095e6000610ce3565b610a1b610c62565b73ffffffffffffffffffffffffffffffffffffffff8116610a98576040517f08c379a000000000000000000000000000000000000000000000000000000000815260206004820152600f60248201527f496e76616c69642041646472657373000000000000000000000000000000000060448201526064016101db565b600480547fffffffffffffffffffffffff00000000000000000000000000000000000000001673ffffffffffffffffffffffffffffffffffffffff92909216919091179055565b610ae7610c62565b73ffffffffffffffffffffffffffffffffffffffff8116610b64576040517f08c379a000000000000000000000000000000000000000000000000000000000815260206004820152600f60248201527f496e76616c69642041646472657373000000000000000000000000000000000060448201526064016101db565b600280547fffffffffffffffffffffffff00000000000000000000000000000000000000001673ffffffffffffffffffffffffffffffffffffffff92909216919091179055565b610bb3610c62565b73ffffffffffffffffffffffffffffffffffffffff8116610c56576040517f08c379a000000000000000000000000000000000000000000000000000000000815260206004820152602660248201527f4f776e61626c653a206e6577206f776e657220697320746865207a65726f206160448201527f646472657373000000000000000000000000000000000000000000000000000060648201526084016101db565b610c5f81610ce3565b50565b60005473ffffffffffffffffffffffffffffffffffffffff16331461095e576040517f08c379a000000000000000000000000000000000000000000000000000000000815260206004820181905260248201527f4f776e61626c653a2063616c6c6572206973206e6f7420746865206f776e657260448201526064016101db565b6000805473ffffffffffffffffffffffffffffffffffffffff8381167fffffffffffffffffffffffff0000000000000000000000000000000000000000831681178455604051919092169283917f8be0079c531659141344cd1fd0a4f28419497f9722a3daafe3b4186f6b6457e09190a35050565b600060208284031215610d6a57600080fd5b5051919050565b7f4e487b7100000000000000000000000000000000000000000000000000000000600052601160045260246000fd5b81810381811115610db357610db3610d71565b92915050565b6000817fffffffffffffffffffffffffffffffffffffffffffffffffffffffffffffffff0483118215151615610df157610df1610d71565b500290565b600082610e2c577f4e487b7100000000000000000000000000000000000000000000000000000000600052601260045260246000fd5b500490565b803573ffffffffffffffffffffffffffffffffffffffff81168114610e5557600080fd5b919050565b600080600060608486031215610e6f57600080fd5b610e7884610e31565b95602085013595506040909401359392505050565b600060208284031215610e9f57600080fd5b610ea882610e31565b9392505050565b60008083601f840112610ec157600080fd5b50813567ffffffffffffffff811115610ed957600080fd5b6020830191508360208260051b8501011115610ef457600080fd5b9250929050565b60008060008060008060608789031215610f1457600080fd5b863567ffffffffffffffff80821115610f2c57600080fd5b610f388a838b01610eaf565b90985096506020890135915080821115610f5157600080fd5b610f5d8a838b01610eaf565b90965094506040890135915080821115610f7657600080fd5b50610f8389828a01610eaf565b979a9699509497509295939492505050565b7f4e487b7100000000000000000000000000000000000000000000000000000000600052603260045260246000fd5b600061ffff808316818103610fdb57610fdb610d71565b600101939250505056fea2646970667358221220b5e62f696e2a1c062dcd9e62ccd5d9bc36ee34f1f7d0f1703237ac16a512f89364736f6c63430008100033",
    "linkReferences": {}
  },
  "methodIdentifiers": {
    "MAXIMUM_PER_TX()": "bdce0b28",
    "MAXIMUM_SUPPLY()": "3d0c4924",
    "allowance(address)": "3e5beab9",
    "batchSetAllowances(address[],uint256[],uint256[])": "42dbb4ef",
    "fundsAddress()": "a77ccd6e",
    "owner()": "8da5cb5b",
    "renounceOwnership()": "715018a6",
    "setAllowance(address,uint256,uint256)": "04acbb99",
    "setFundsAddress(address)": "7f19abe0",
    "setTokenContract(address)": "bbcd5bbe",
    "tokenContract()": "55a373d6",
    "transferOwnership(address)": "f2fde38b",
    "withdraw()": "3ccfd60b"
  },
  "id": 112
}