{
  "abi": [
    {
      "inputs": [
        {
          "internalType": "address",
          "name": "_manager",
          "type": "address"
        }
      ],
      "stateMutability": "nonpayable",
      "type": "constructor"
    },
    {
      "anonymous": false,
      "inputs": [
        {
          "indexed": true,
          "internalType": "address",
          "name": "account",
          "type": "address"
        },
        {
          "indexed": true,
          "internalType": "address",
          "name": "operator",
          "type": "address"
        },
        {
          "indexed": false,
          "internalType": "bool",
          "name": "approved",
          "type": "bool"
        }
      ],
      "name": "ApprovalForAll",
      "type": "event"
    },
    {
      "anonymous": false,
      "inputs": [
        {
          "indexed": false,
          "internalType": "address",
          "name": "couponHolder",
          "type": "address"
        },
        {
          "indexed": false,
          "internalType": "uint256",
          "name": "expiryBlock",
          "type": "uint256"
        },
        {
          "indexed": false,
          "internalType": "uint256",
          "name": "amount",
          "type": "uint256"
        }
      ],
      "name": "BurnedCoupons",
      "type": "event"
    },
    {
      "anonymous": false,
      "inputs": [
        {
          "indexed": false,
          "internalType": "address",
          "name": "recipient",
          "type": "address"
        },
        {
          "indexed": false,
          "internalType": "uint256",
          "name": "expiryBlock",
          "type": "uint256"
        },
        {
          "indexed": false,
          "internalType": "uint256",
          "name": "amount",
          "type": "uint256"
        }
      ],
      "name": "MintedCoupons",
      "type": "event"
    },
    {
      "anonymous": false,
      "inputs": [
        {
          "indexed": false,
          "internalType": "address",
          "name": "account",
          "type": "address"
        }
      ],
      "name": "Paused",
      "type": "event"
    },
    {
      "anonymous": false,
      "inputs": [
        {
          "indexed": true,
          "internalType": "address",
          "name": "operator",
          "type": "address"
        },
        {
          "indexed": true,
          "internalType": "address",
          "name": "from",
          "type": "address"
        },
        {
          "indexed": true,
          "internalType": "address",
          "name": "to",
          "type": "address"
        },
        {
          "indexed": false,
          "internalType": "uint256[]",
          "name": "ids",
          "type": "uint256[]"
        },
        {
          "indexed": false,
          "internalType": "uint256[]",
          "name": "values",
          "type": "uint256[]"
        }
      ],
      "name": "TransferBatch",
      "type": "event"
    },
    {
      "anonymous": false,
      "inputs": [
        {
          "indexed": true,
          "internalType": "address",
          "name": "operator",
          "type": "address"
        },
        {
          "indexed": true,
          "internalType": "address",
          "name": "from",
          "type": "address"
        },
        {
          "indexed": true,
          "internalType": "address",
          "name": "to",
          "type": "address"
        },
        {
          "indexed": false,
          "internalType": "uint256",
          "name": "id",
          "type": "uint256"
        },
        {
          "indexed": false,
          "internalType": "uint256",
          "name": "value",
          "type": "uint256"
        }
      ],
      "name": "TransferSingle",
      "type": "event"
    },
    {
      "anonymous": false,
      "inputs": [
        {
          "indexed": false,
          "internalType": "string",
          "name": "value",
          "type": "string"
        },
        {
          "indexed": true,
          "internalType": "uint256",
          "name": "id",
          "type": "uint256"
        }
      ],
      "name": "URI",
      "type": "event"
    },
    {
      "anonymous": false,
      "inputs": [
        {
          "indexed": false,
          "internalType": "address",
          "name": "account",
          "type": "address"
        }
      ],
      "name": "Unpaused",
      "type": "event"
    },
    {
      "inputs": [
        {
          "internalType": "address",
          "name": "account",
          "type": "address"
        },
        {
          "internalType": "uint256",
          "name": "id",
          "type": "uint256"
        }
      ],
      "name": "balanceOf",
      "outputs": [
        {
          "internalType": "uint256",
          "name": "",
          "type": "uint256"
        }
      ],
      "stateMutability": "view",
      "type": "function"
    },
    {
      "inputs": [
        {
          "internalType": "address[]",
          "name": "accounts",
          "type": "address[]"
        },
        {
          "internalType": "uint256[]",
          "name": "ids",
          "type": "uint256[]"
        }
      ],
      "name": "balanceOfBatch",
      "outputs": [
        {
          "internalType": "uint256[]",
          "name": "",
          "type": "uint256[]"
        }
      ],
      "stateMutability": "view",
      "type": "function"
    },
    {
      "inputs": [
        {
          "internalType": "address",
          "name": "account",
          "type": "address"
        },
        {
          "internalType": "uint256",
          "name": "id",
          "type": "uint256"
        },
        {
          "internalType": "uint256",
          "name": "value",
          "type": "uint256"
        }
      ],
      "name": "burn",
      "outputs": [],
      "stateMutability": "nonpayable",
      "type": "function"
    },
    {
      "inputs": [
        {
          "internalType": "address",
          "name": "account",
          "type": "address"
        },
        {
          "internalType": "uint256[]",
          "name": "ids",
          "type": "uint256[]"
        },
        {
          "internalType": "uint256[]",
          "name": "values",
          "type": "uint256[]"
        }
      ],
      "name": "burnBatch",
      "outputs": [],
      "stateMutability": "nonpayable",
      "type": "function"
    },
    {
      "inputs": [
        {
          "internalType": "address",
          "name": "couponOwner",
          "type": "address"
        },
        {
          "internalType": "uint256",
          "name": "amount",
          "type": "uint256"
        },
        {
          "internalType": "uint256",
          "name": "expiryBlockNumber",
          "type": "uint256"
        }
      ],
      "name": "burnCoupons",
      "outputs": [],
      "stateMutability": "nonpayable",
      "type": "function"
    },
    {
      "inputs": [],
      "name": "getTotalOutstandingDebt",
      "outputs": [
        {
          "internalType": "uint256",
          "name": "",
          "type": "uint256"
        }
      ],
      "stateMutability": "view",
      "type": "function"
    },
    {
      "inputs": [
        {
          "internalType": "address",
          "name": "holder",
          "type": "address"
        }
      ],
      "name": "holderTokens",
      "outputs": [
        {
          "internalType": "uint256[]",
          "name": "",
          "type": "uint256[]"
        }
      ],
      "stateMutability": "view",
      "type": "function"
    },
    {
      "inputs": [
        {
          "internalType": "address",
          "name": "account",
          "type": "address"
        },
        {
          "internalType": "address",
          "name": "operator",
          "type": "address"
        }
      ],
      "name": "isApprovedForAll",
      "outputs": [
        {
          "internalType": "bool",
          "name": "",
          "type": "bool"
        }
      ],
      "stateMutability": "view",
      "type": "function"
    },
    {
      "inputs": [],
      "name": "manager",
      "outputs": [
        {
          "internalType": "contract UbiquityAlgorithmicDollarManager",
          "name": "",
          "type": "address"
        }
      ],
      "stateMutability": "view",
      "type": "function"
    },
    {
      "inputs": [
        {
          "internalType": "address",
          "name": "to",
          "type": "address"
        },
        {
          "internalType": "uint256",
          "name": "id",
          "type": "uint256"
        },
        {
          "internalType": "uint256",
          "name": "amount",
          "type": "uint256"
        },
        {
          "internalType": "bytes",
          "name": "data",
          "type": "bytes"
        }
      ],
      "name": "mint",
      "outputs": [],
      "stateMutability": "nonpayable",
      "type": "function"
    },
    {
      "inputs": [
        {
          "internalType": "address",
          "name": "to",
          "type": "address"
        },
        {
          "internalType": "uint256[]",
          "name": "ids",
          "type": "uint256[]"
        },
        {
          "internalType": "uint256[]",
          "name": "amounts",
          "type": "uint256[]"
        },
        {
          "internalType": "bytes",
          "name": "data",
          "type": "bytes"
        }
      ],
      "name": "mintBatch",
      "outputs": [],
      "stateMutability": "nonpayable",
      "type": "function"
    },
    {
      "inputs": [
        {
          "internalType": "address",
          "name": "recipient",
          "type": "address"
        },
        {
          "internalType": "uint256",
          "name": "amount",
          "type": "uint256"
        },
        {
          "internalType": "uint256",
          "name": "expiryBlockNumber",
          "type": "uint256"
        }
      ],
      "name": "mintCoupons",
      "outputs": [],
      "stateMutability": "nonpayable",
      "type": "function"
    },
    {
      "inputs": [],
      "name": "pause",
      "outputs": [],
      "stateMutability": "nonpayable",
      "type": "function"
    },
    {
      "inputs": [],
      "name": "paused",
      "outputs": [
        {
          "internalType": "bool",
          "name": "",
          "type": "bool"
        }
      ],
      "stateMutability": "view",
      "type": "function"
    },
    {
      "inputs": [
        {
          "internalType": "address",
          "name": "from",
          "type": "address"
        },
        {
          "internalType": "address",
          "name": "to",
          "type": "address"
        },
        {
          "internalType": "uint256[]",
          "name": "ids",
          "type": "uint256[]"
        },
        {
          "internalType": "uint256[]",
          "name": "amounts",
          "type": "uint256[]"
        },
        {
          "internalType": "bytes",
          "name": "data",
          "type": "bytes"
        }
      ],
      "name": "safeBatchTransferFrom",
      "outputs": [],
      "stateMutability": "nonpayable",
      "type": "function"
    },
    {
      "inputs": [
        {
          "internalType": "address",
          "name": "from",
          "type": "address"
        },
        {
          "internalType": "address",
          "name": "to",
          "type": "address"
        },
        {
          "internalType": "uint256",
          "name": "id",
          "type": "uint256"
        },
        {
          "internalType": "uint256",
          "name": "amount",
          "type": "uint256"
        },
        {
          "internalType": "bytes",
          "name": "data",
          "type": "bytes"
        }
      ],
      "name": "safeTransferFrom",
      "outputs": [],
      "stateMutability": "nonpayable",
      "type": "function"
    },
    {
      "inputs": [
        {
          "internalType": "address",
          "name": "operator",
          "type": "address"
        },
        {
          "internalType": "bool",
          "name": "approved",
          "type": "bool"
        }
      ],
      "name": "setApprovalForAll",
      "outputs": [],
      "stateMutability": "nonpayable",
      "type": "function"
    },
    {
      "inputs": [
        {
          "internalType": "bytes4",
          "name": "interfaceId",
          "type": "bytes4"
        }
      ],
      "name": "supportsInterface",
      "outputs": [
        {
          "internalType": "bool",
          "name": "",
          "type": "bool"
        }
      ],
      "stateMutability": "view",
      "type": "function"
    },
    {
      "inputs": [],
      "name": "totalSupply",
      "outputs": [
        {
          "internalType": "uint256",
          "name": "",
          "type": "uint256"
        }
      ],
      "stateMutability": "view",
      "type": "function"
    },
    {
      "inputs": [],
      "name": "unpause",
      "outputs": [],
      "stateMutability": "nonpayable",
      "type": "function"
    },
    {
      "inputs": [],
      "name": "updateTotalDebt",
      "outputs": [],
      "stateMutability": "nonpayable",
      "type": "function"
    },
    {
      "inputs": [
        {
          "internalType": "uint256",
          "name": "",
          "type": "uint256"
        }
      ],
      "name": "uri",
      "outputs": [
        {
          "internalType": "string",
          "name": "",
          "type": "string"
        }
      ],
      "stateMutability": "view",
      "type": "function"
    }
  ],
  "bytecode": {
    "object": "0x60806040523480156200001157600080fd5b5060405162003cdb38038062003cdb8339810160408190526200003491620000b8565b60408051808201909152600381526255524960e81b60208201528190806200005c81620000a6565b5050600380546001600160a01b0393841661010090810294909316909202610100600160a81b0319166001600160a81b03199092169190911791909117905560006006556200025b565b6002620000b482826200018f565b5050565b600060208284031215620000cb57600080fd5b81516001600160a01b0381168114620000e357600080fd5b9392505050565b634e487b7160e01b600052604160045260246000fd5b600181811c908216806200011557607f821691505b6020821081036200013657634e487b7160e01b600052602260045260246000fd5b50919050565b601f8211156200018a57600081815260208120601f850160051c81016020861015620001655750805b601f850160051c820191505b81811015620001865782815560010162000171565b5050505b505050565b81516001600160401b03811115620001ab57620001ab620000ea565b620001c381620001bc845462000100565b846200013c565b602080601f831160018114620001fb5760008415620001e25750858301515b600019600386901b1c1916600185901b17855562000186565b600085815260208120601f198616915b828110156200022c578886015182559484019460019091019084016200020b565b50858210156200024b5787850151600019600388901b60f8161c191681555b5050505050600190811b01905550565b613a70806200026b6000396000f3fe608060405234801561001057600080fd5b50600436106101815760003560e01c8063731133e9116100d8578063db87b1ff1161008c578063f242432a11610066578063f242432a14610367578063f5298aca1461037a578063f7ffe84a1461038d57600080fd5b8063db87b1ff14610303578063e71fc58f1461030b578063e985e9c51461031e57600080fd5b80637b48c3fd116100bd5780637b48c3fd146102d55780638456cb59146102e8578063a22cb465146102f057600080fd5b8063731133e9146102af578063738f0cf1146102c257600080fd5b80632eb2c2d61161013a5780634e1273f4116101145780634e1273f4146102715780635c975abb146102915780636b20c4541461029c57600080fd5b80632eb2c2d61461020c5780633f4ba83a1461021f578063481c6a751461022757600080fd5b80630e89341c1161016b5780630e89341c146101cf57806318160ddd146101ef5780631f7fdffa146101f757600080fd5b8062fdd58e1461018657806301ffc9a7146101ac575b600080fd5b610199610194366004613032565b610395565b6040519081526020015b60405180910390f35b6101bf6101ba36600461308d565b61045b565b60405190151581526020016101a3565b6101e26101dd3660046130aa565b61053e565b6040516101a39190613127565b600554610199565b61020a6102053660046132db565b6105d2565b005b61020a61021a366004613374565b6107d3565b61020a610816565b60035461024c90610100900473ffffffffffffffffffffffffffffffffffffffff1681565b60405173ffffffffffffffffffffffffffffffffffffffff90911681526020016101a3565b61028461027f36600461341e565b61098a565b6040516101a39190613524565b60035460ff166101bf565b61020a6102aa366004613537565b610ac8565b61020a6102bd3660046135ab565b610b73565b61020a6102d0366004613600565b610d2f565b6102846102e3366004613633565b610f93565b61020a61100b565b61020a6102fe36600461365c565b61117d565b61019961118c565b61020a610319366004613600565b6111fe565b6101bf61032c366004613693565b73ffffffffffffffffffffffffffffffffffffffff918216600090815260016020908152604080832093909416825291909152205460ff1690565b61020a6103753660046136c6565b61141d565b61020a610388366004613600565b611459565b61020a6114ff565b600073ffffffffffffffffffffffffffffffffffffffff83166104255760405162461bcd60e51b815260206004820152602a60248201527f455243313135353a2061646472657373207a65726f206973206e6f742061207660448201527f616c6964206f776e65720000000000000000000000000000000000000000000060648201526084015b60405180910390fd5b5060008181526020818152604080832073ffffffffffffffffffffffffffffffffffffffff861684529091529020545b92915050565b60007fffffffff0000000000000000000000000000000000000000000000000000000082167fd9b67a260000000000000000000000000000000000000000000000000000000014806104ee57507fffffffff0000000000000000000000000000000000000000000000000000000082167f0e89341c00000000000000000000000000000000000000000000000000000000145b8061045557507f01ffc9a7000000000000000000000000000000000000000000000000000000007fffffffff00000000000000000000000000000000000000000000000000000000831614610455565b60606002805461054d9061372b565b80601f01602080910402602001604051908101604052809291908181526020018280546105799061372b565b80156105c65780601f1061059b576101008083540402835291602001916105c6565b820191906000526020600020905b8154815290600101906020018083116105a957829003601f168201915b50505050509050919050565b600354604080517f2f533cb7000000000000000000000000000000000000000000000000000000008152905161010090920473ffffffffffffffffffffffffffffffffffffffff16916391d14854918391632f533cb7916004808201926020929091908290030181865afa15801561064e573d6000803e3d6000fd5b505050506040513d601f19601f82011682018060405250810190610672919061377e565b6040517fffffffff0000000000000000000000000000000000000000000000000000000060e084901b1681526004810191909152336024820152604401602060405180830381865afa1580156106cc573d6000803e3d6000fd5b505050506040513d601f19601f820116820180604052508101906106f09190613797565b61073c5760405162461bcd60e51b815260206004820152601c60248201527f476f7665726e616e636520746f6b656e3a206e6f74206d696e74657200000000604482015260640161041c565b61074461158a565b610750848484846115dd565b60005b835181101561079d5782818151811061076e5761076e6137b4565b6020026020010151600560008282546107879190613812565b90915550610796905081613825565b9050610753565b5073ffffffffffffffffffffffffffffffffffffffff841660009081526004602052604090206107cd9084611831565b50505050565b6107e085858585856118ed565b73ffffffffffffffffffffffffffffffffffffffff8416600090815260046020526040902061080f9084611831565b5050505050565b600354604080517fe63ab1e9000000000000000000000000000000000000000000000000000000008152905161010090920473ffffffffffffffffffffffffffffffffffffffff16916391d1485491839163e63ab1e9916004808201926020929091908290030181865afa158015610892573d6000803e3d6000fd5b505050506040513d601f19601f820116820180604052508101906108b6919061377e565b6040517fffffffff0000000000000000000000000000000000000000000000000000000060e084901b1681526004810191909152336024820152604401602060405180830381865afa158015610910573d6000803e3d6000fd5b505050506040513d601f19601f820116820180604052508101906109349190613797565b6109805760405162461bcd60e51b815260206004820152601c60248201527f476f7665726e616e636520746f6b656e3a206e6f742070617573657200000000604482015260640161041c565b610988611995565b565b60608151835114610a035760405162461bcd60e51b815260206004820152602960248201527f455243313135353a206163636f756e747320616e6420696473206c656e67746860448201527f206d69736d617463680000000000000000000000000000000000000000000000606482015260840161041c565b6000835167ffffffffffffffff811115610a1f57610a1f61313a565b604051908082528060200260200182016040528015610a48578160200160208202803683370190505b50905060005b8451811015610ac057610a93858281518110610a6c57610a6c6137b4565b6020026020010151858381518110610a8657610a866137b4565b6020026020010151610395565b828281518110610aa557610aa56137b4565b6020908102919091010152610ab981613825565b9050610a4e565b509392505050565b73ffffffffffffffffffffffffffffffffffffffff8316331480610af15750610af1833361032c565b610b635760405162461bcd60e51b815260206004820152602e60248201527f455243313135353a2063616c6c6572206973206e6f7420746f6b656e206f776e60448201527f6572206f7220617070726f766564000000000000000000000000000000000000606482015260840161041c565b610b6e838383611a12565b505050565b600354604080517f2f533cb7000000000000000000000000000000000000000000000000000000008152905161010090920473ffffffffffffffffffffffffffffffffffffffff16916391d14854918391632f533cb7916004808201926020929091908290030181865afa158015610bef573d6000803e3d6000fd5b505050506040513d601f19601f82011682018060405250810190610c13919061377e565b6040517fffffffff0000000000000000000000000000000000000000000000000000000060e084901b1681526004810191909152336024820152604401602060405180830381865afa158015610c6d573d6000803e3d6000fd5b505050506040513d601f19601f82011682018060405250810190610c919190613797565b610cdd5760405162461bcd60e51b815260206004820152601c60248201527f476f7665726e616e636520746f6b656e3a206e6f74206d696e74657200000000604482015260640161041c565b610ce984848484611a72565b8160056000828254610cfb9190613812565b909155505073ffffffffffffffffffffffffffffffffffffffff841660009081526004602052604090206107cd9084611bd8565b600354604080517fa41dd6e6000000000000000000000000000000000000000000000000000000008152905161010090920473ffffffffffffffffffffffffffffffffffffffff16916391d1485491839163a41dd6e6916004808201926020929091908290030181865afa158015610dab573d6000803e3d6000fd5b505050506040513d601f19601f82011682018060405250810190610dcf919061377e565b6040517fffffffff0000000000000000000000000000000000000000000000000000000060e084901b1681526004810191909152336024820152604401602060405180830381865afa158015610e29573d6000803e3d6000fd5b505050506040513d601f19601f82011682018060405250810190610e4d9190613797565b610e995760405162461bcd60e51b815260206004820152601e60248201527f43616c6c6572206973206e6f74206120636f75706f6e206d616e616765720000604482015260640161041c565b81610ea48483610395565b1015610ef25760405162461bcd60e51b815260206004820152601f60248201527f436f75706f6e206f776e6572206e6f7420656e6f75676820636f75706f6e7300604482015260640161041c565b610efd838284611459565b6040805173ffffffffffffffffffffffffffffffffffffffff85168152602081018390529081018390527ffe9cd66a03bb9bae13904547cf3265727d3fb385e165cfca832f24f62fad083d9060600160405180910390a1600081815260076020526040902054610f6e90839061385d565b600082815260076020526040902055600654610f8b90839061385d565b600655505050565b73ffffffffffffffffffffffffffffffffffffffff81166000908152600460209081526040918290208054835181840281018401909452808452606093928301828280156105c657602002820191906000526020600020905b815481526020019060010190808311610fec5750505050509050919050565b600354604080517fe63ab1e9000000000000000000000000000000000000000000000000000000008152905161010090920473ffffffffffffffffffffffffffffffffffffffff16916391d1485491839163e63ab1e9916004808201926020929091908290030181865afa158015611087573d6000803e3d6000fd5b505050506040513d601f19601f820116820180604052508101906110ab919061377e565b6040517fffffffff0000000000000000000000000000000000000000000000000000000060e084901b1681526004810191909152336024820152604401602060405180830381865afa158015611105573d6000803e3d6000fd5b505050506040513d601f19601f820116820180604052508101906111299190613797565b6111755760405162461bcd60e51b815260206004820152601c60248201527f476f7665726e616e636520746f6b656e3a206e6f742070617573657200000000604482015260640161041c565b610988611c37565b611188338383611c92565b5050565b600654600090818061119f600882611dcb565b9150505b811580156111b057508015155b156111f657438111156111c657600191506111e2565b6000818152600760205260409020546111df908461385d565b92505b6111ed600882611dcb565b91506111a39050565b509092915050565b600354604080517fa41dd6e6000000000000000000000000000000000000000000000000000000008152905161010090920473ffffffffffffffffffffffffffffffffffffffff16916391d1485491839163a41dd6e6916004808201926020929091908290030181865afa15801561127a573d6000803e3d6000fd5b505050506040513d601f19601f8201168201806040525081019061129e919061377e565b6040517fffffffff0000000000000000000000000000000000000000000000000000000060e084901b1681526004810191909152336024820152604401602060405180830381865afa1580156112f8573d6000803e3d6000fd5b505050506040513d601f19601f8201168201806040525081019061131c9190613797565b6113685760405162461bcd60e51b815260206004820152601e60248201527f43616c6c6572206973206e6f74206120636f75706f6e206d616e616765720000604482015260640161041c565b61138383828460405180602001604052806000815250610b73565b6040805173ffffffffffffffffffffffffffffffffffffffff85168152602081018390529081018390527fee6a2b6b9d52e9b905b3b53a76ff201a4762f6d3c40a5a976a7bfbb7cce2499f9060600160405180910390a16113e5600882611de5565b50600081815260076020526040902054611400908390613812565b600082815260076020526040902055600654610f8b908390613812565b61142a8585858585611dfa565b73ffffffffffffffffffffffffffffffffffffffff8416600090815260046020526040902061080f9084611bd8565b73ffffffffffffffffffffffffffffffffffffffff83163314806114825750611482833361032c565b6114f45760405162461bcd60e51b815260206004820152602e60248201527f455243313135353a2063616c6c6572206973206e6f7420746f6b656e206f776e60448201527f6572206f7220617070726f766564000000000000000000000000000000000000606482015260840161041c565b610b6e838383611ea2565b60008061150c6008611ed1565b90505b8115801561151c57508015155b15611188574381111561153e57611534600882611ede565b5060019150611579565b60008181526007602052604090205460065461155a919061385d565b600655600081815260076020526040812055611577600882611eec565b505b6115836008611ed1565b905061150f565b60035460ff16156109885760405162461bcd60e51b815260206004820152601060248201527f5061757361626c653a2070617573656400000000000000000000000000000000604482015260640161041c565b73ffffffffffffffffffffffffffffffffffffffff84166116665760405162461bcd60e51b815260206004820152602160248201527f455243313135353a206d696e7420746f20746865207a65726f2061646472657360448201527f7300000000000000000000000000000000000000000000000000000000000000606482015260840161041c565b81518351146116dd5760405162461bcd60e51b815260206004820152602860248201527f455243313135353a2069647320616e6420616d6f756e7473206c656e6774682060448201527f6d69736d61746368000000000000000000000000000000000000000000000000606482015260840161041c565b336116ed81600087878787611f85565b60005b84518110156117a25783818151811061170b5761170b6137b4565b6020026020010151600080878481518110611728576117286137b4565b6020026020010151815260200190815260200160002060008873ffffffffffffffffffffffffffffffffffffffff1673ffffffffffffffffffffffffffffffffffffffff168152602001908152602001600020600082825461178a9190613812565b9091555081905061179a81613825565b9150506116f0565b508473ffffffffffffffffffffffffffffffffffffffff16600073ffffffffffffffffffffffffffffffffffffffff168273ffffffffffffffffffffffffffffffffffffffff167f4a39dc06d4c0dbc64b70af90fd698a233a518aa5d07e595d983b8c0526c8f7fb878760405161181a929190613870565b60405180910390a461080f81600087878787611f9b565b60005b8151811015610b6e576000805b84548110156118a15783838151811061185c5761185c6137b4565b6020026020010151858281548110611876576118766137b4565b90600052602060002001540361188f57600191506118a1565b8061189981613825565b915050611841565b50806118da57838383815181106118ba576118ba6137b4565b602090810291909101810151825460018101845560009384529190922001555b50806118e581613825565b915050611834565b73ffffffffffffffffffffffffffffffffffffffff85163314806119165750611916853361032c565b6119885760405162461bcd60e51b815260206004820152602e60248201527f455243313135353a2063616c6c6572206973206e6f7420746f6b656e206f776e60448201527f6572206f7220617070726f766564000000000000000000000000000000000000606482015260840161041c565b61080f85858585856121d7565b61199d6124c9565b600380547fffffffffffffffffffffffffffffffffffffffffffffffffffffffffffffff001690557f5db9ee0a495bf2e6ff9c91a7834c1ba4fdd244a5e8aa4e537bd38aeae4b073aa335b60405173ffffffffffffffffffffffffffffffffffffffff909116815260200160405180910390a1565b611a1a61158a565b611a2583838361251b565b60005b82518110156107cd57818181518110611a4357611a436137b4565b602002602001015160056000828254611a5c919061385d565b90915550611a6b905081613825565b9050611a28565b73ffffffffffffffffffffffffffffffffffffffff8416611afb5760405162461bcd60e51b815260206004820152602160248201527f455243313135353a206d696e7420746f20746865207a65726f2061646472657360448201527f7300000000000000000000000000000000000000000000000000000000000000606482015260840161041c565b336000611b0785612806565b90506000611b1485612806565b9050611b2583600089858589611f85565b60008681526020818152604080832073ffffffffffffffffffffffffffffffffffffffff8b16845290915281208054879290611b62908490613812565b9091555050604080518781526020810187905273ffffffffffffffffffffffffffffffffffffffff808a1692600092918716917fc3d58168c5ae7397731d063d5bbf3d657854427343f4c083240f7aacaa2d0f62910160405180910390a4611bcf83600089898989612851565b50505050505050565b60005b8254811015611c1e5781838281548110611bf757611bf76137b4565b906000526020600020015403611c0c57505050565b80611c1681613825565b915050611bdb565b5081546001810183556000928352602090922090910155565b611c3f61158a565b600380547fffffffffffffffffffffffffffffffffffffffffffffffffffffffffffffff001660011790557f62e78cea01bee320cd4e420270b5ea74000d11b0c9f74754ebdbfc544b05a2586119e83390565b8173ffffffffffffffffffffffffffffffffffffffff168373ffffffffffffffffffffffffffffffffffffffff1603611d335760405162461bcd60e51b815260206004820152602960248201527f455243313135353a2073657474696e6720617070726f76616c2073746174757360448201527f20666f722073656c660000000000000000000000000000000000000000000000606482015260840161041c565b73ffffffffffffffffffffffffffffffffffffffff83811660008181526001602090815260408083209487168084529482529182902080547fffffffffffffffffffffffffffffffffffffffffffffffffffffffffffffff001686151590811790915591519182527f17307eab39ab6107e8899845ad3d59bd9653f200f220920489ca2b5937696c31910160405180910390a3505050565b600080611dda848460016129e4565b915091509250929050565b6000611df383836000612a2b565b9392505050565b73ffffffffffffffffffffffffffffffffffffffff8516331480611e235750611e23853361032c565b611e955760405162461bcd60e51b815260206004820152602e60248201527f455243313135353a2063616c6c6572206973206e6f7420746f6b656e206f776e60448201527f6572206f7220617070726f766564000000000000000000000000000000000000606482015260840161041c565b61080f8585858585612a42565b611eaa61158a565b611eb5838383612c5a565b8060056000828254611ec7919061385d565b9091555050505050565b6000610455826001612e44565b6000611df383836001612a2b565b6000811580611f025750611f008383612e61565b155b15611f0f57506000610455565b600082815260018481016020818152604080852085805280835281862080548688528388208054808a52878752858a208a80528752858a20839055918952958552838820878952855292872092909255909152839055829055845490918591611f7990849061385d565b90915550919392505050565b611f93868686868686612ee5565b505050505050565b73ffffffffffffffffffffffffffffffffffffffff84163b15611f93576040517fbc197c8100000000000000000000000000000000000000000000000000000000815273ffffffffffffffffffffffffffffffffffffffff85169063bc197c8190612012908990899088908890889060040161389e565b6020604051808303816000875af192505050801561206b575060408051601f3d9081017fffffffffffffffffffffffffffffffffffffffffffffffffffffffffffffffe016820190925261206891810190613909565b60015b61212057612077613926565b806308c379a0036120b0575061208b613942565b8061209657506120b2565b8060405162461bcd60e51b815260040161041c9190613127565b505b60405162461bcd60e51b815260206004820152603460248201527f455243313135353a207472616e7366657220746f206e6f6e2d4552433131353560448201527f526563656976657220696d706c656d656e746572000000000000000000000000606482015260840161041c565b7fffffffff0000000000000000000000000000000000000000000000000000000081167fbc197c810000000000000000000000000000000000000000000000000000000014611bcf5760405162461bcd60e51b815260206004820152602860248201527f455243313135353a204552433131353552656365697665722072656a6563746560448201527f6420746f6b656e73000000000000000000000000000000000000000000000000606482015260840161041c565b815183511461224e5760405162461bcd60e51b815260206004820152602860248201527f455243313135353a2069647320616e6420616d6f756e7473206c656e6774682060448201527f6d69736d61746368000000000000000000000000000000000000000000000000606482015260840161041c565b73ffffffffffffffffffffffffffffffffffffffff84166122d75760405162461bcd60e51b815260206004820152602560248201527f455243313135353a207472616e7366657220746f20746865207a65726f20616460448201527f6472657373000000000000000000000000000000000000000000000000000000606482015260840161041c565b336122e6818787878787611f85565b60005b845181101561243c576000858281518110612306576123066137b4565b602002602001015190506000858381518110612324576123246137b4565b6020908102919091018101516000848152808352604080822073ffffffffffffffffffffffffffffffffffffffff8e1683529093529190912054909150818110156123d75760405162461bcd60e51b815260206004820152602a60248201527f455243313135353a20696e73756666696369656e742062616c616e636520666f60448201527f72207472616e7366657200000000000000000000000000000000000000000000606482015260840161041c565b60008381526020818152604080832073ffffffffffffffffffffffffffffffffffffffff8e8116855292528083208585039055908b16825281208054849290612421908490613812565b925050819055505050508061243590613825565b90506122e9565b508473ffffffffffffffffffffffffffffffffffffffff168673ffffffffffffffffffffffffffffffffffffffff168273ffffffffffffffffffffffffffffffffffffffff167f4a39dc06d4c0dbc64b70af90fd698a233a518aa5d07e595d983b8c0526c8f7fb87876040516124b3929190613870565b60405180910390a4611f93818787878787611f9b565b60035460ff166109885760405162461bcd60e51b815260206004820152601460248201527f5061757361626c653a206e6f7420706175736564000000000000000000000000604482015260640161041c565b73ffffffffffffffffffffffffffffffffffffffff83166125a45760405162461bcd60e51b815260206004820152602360248201527f455243313135353a206275726e2066726f6d20746865207a65726f206164647260448201527f6573730000000000000000000000000000000000000000000000000000000000606482015260840161041c565b805182511461261b5760405162461bcd60e51b815260206004820152602860248201527f455243313135353a2069647320616e6420616d6f756e7473206c656e6774682060448201527f6d69736d61746368000000000000000000000000000000000000000000000000606482015260840161041c565b600033905061263e81856000868660405180602001604052806000815250611f85565b60005b835181101561277257600084828151811061265e5761265e6137b4565b60200260200101519050600084838151811061267c5761267c6137b4565b6020908102919091018101516000848152808352604080822073ffffffffffffffffffffffffffffffffffffffff8c16835290935291909120549091508181101561272e5760405162461bcd60e51b8152602060048201526024808201527f455243313135353a206275726e20616d6f756e7420657863656564732062616c60448201527f616e636500000000000000000000000000000000000000000000000000000000606482015260840161041c565b60009283526020838152604080852073ffffffffffffffffffffffffffffffffffffffff8b168652909152909220910390558061276a81613825565b915050612641565b50600073ffffffffffffffffffffffffffffffffffffffff168473ffffffffffffffffffffffffffffffffffffffff168273ffffffffffffffffffffffffffffffffffffffff167f4a39dc06d4c0dbc64b70af90fd698a233a518aa5d07e595d983b8c0526c8f7fb86866040516127ea929190613870565b60405180910390a46040805160208101909152600090526107cd565b60408051600180825281830190925260609160009190602080830190803683370190505090508281600081518110612840576128406137b4565b602090810291909101015292915050565b73ffffffffffffffffffffffffffffffffffffffff84163b15611f93576040517ff23a6e6100000000000000000000000000000000000000000000000000000000815273ffffffffffffffffffffffffffffffffffffffff85169063f23a6e61906128c890899089908890889088906004016139ea565b6020604051808303816000875af1925050508015612921575060408051601f3d9081017fffffffffffffffffffffffffffffffffffffffffffffffffffffffffffffffe016820190925261291e91810190613909565b60015b61292d57612077613926565b7fffffffff0000000000000000000000000000000000000000000000000000000081167ff23a6e610000000000000000000000000000000000000000000000000000000014611bcf5760405162461bcd60e51b815260206004820152602860248201527f455243313135353a204552433131353552656365697665722072656a6563746560448201527f6420746f6b656e73000000000000000000000000000000000000000000000000606482015260840161041c565b6000806129f18585612e61565b612a0057506000905080612a23565b505060008281526001848101602090815260408084208515158552909152909120545b935093915050565b6000612a3a8460008585612f5e565b949350505050565b73ffffffffffffffffffffffffffffffffffffffff8416612acb5760405162461bcd60e51b815260206004820152602560248201527f455243313135353a207472616e7366657220746f20746865207a65726f20616460448201527f6472657373000000000000000000000000000000000000000000000000000000606482015260840161041c565b336000612ad785612806565b90506000612ae485612806565b9050612af4838989858589611f85565b60008681526020818152604080832073ffffffffffffffffffffffffffffffffffffffff8c16845290915290205485811015612b985760405162461bcd60e51b815260206004820152602a60248201527f455243313135353a20696e73756666696369656e742062616c616e636520666f60448201527f72207472616e7366657200000000000000000000000000000000000000000000606482015260840161041c565b60008781526020818152604080832073ffffffffffffffffffffffffffffffffffffffff8d8116855292528083208985039055908a16825281208054889290612be2908490613812565b9091555050604080518881526020810188905273ffffffffffffffffffffffffffffffffffffffff808b16928c821692918816917fc3d58168c5ae7397731d063d5bbf3d657854427343f4c083240f7aacaa2d0f62910160405180910390a4612c4f848a8a8a8a8a612851565b505050505050505050565b73ffffffffffffffffffffffffffffffffffffffff8316612ce35760405162461bcd60e51b815260206004820152602360248201527f455243313135353a206275726e2066726f6d20746865207a65726f206164647260448201527f6573730000000000000000000000000000000000000000000000000000000000606482015260840161041c565b336000612cef84612806565b90506000612cfc84612806565b9050612d1c83876000858560405180602001604052806000815250611f85565b60008581526020818152604080832073ffffffffffffffffffffffffffffffffffffffff8a16845290915290205484811015612dbf5760405162461bcd60e51b8152602060048201526024808201527f455243313135353a206275726e20616d6f756e7420657863656564732062616c60448201527f616e636500000000000000000000000000000000000000000000000000000000606482015260840161041c565b60008681526020818152604080832073ffffffffffffffffffffffffffffffffffffffff8b81168086529184528285208a8703905582518b81529384018a90529092908816917fc3d58168c5ae7397731d063d5bbf3d657854427343f4c083240f7aacaa2d0f62910160405180910390a4604080516020810190915260009052611bcf565b600080612e53846000856129e4565b9150612a3a90508482611eec565b60008181526001830160209081526040808320838052909152812054158015612ea457506000828152600180850160209081526040808420928452919052902054155b15612edd576000808052600180850160209081526040808420928452919052902054829003612ed557506001610455565b506000610455565b506001610455565b60035460ff1615611f935760405162461bcd60e51b815260206004820152602c60248201527f455243313135355061757361626c653a20746f6b656e207472616e736665722060448201527f7768696c65207061757365640000000000000000000000000000000000000000606482015260840161041c565b6000612f6a8584612e61565b158015612f7c5750612f7c8585612e61565b15612ffe5760008481526001868101602081815260408085208715801580885291845282872080548b8952868652848920838a52808752858a208e9055918c90558089529585528388209188529084528287208a90559086529091528320819055875490928891612fee908490613812565b9091555060019250612a3a915050565b506000949350505050565b803573ffffffffffffffffffffffffffffffffffffffff8116811461302d57600080fd5b919050565b6000806040838503121561304557600080fd5b61304e83613009565b946020939093013593505050565b7fffffffff000000000000000000000000000000000000000000000000000000008116811461308a57600080fd5b50565b60006020828403121561309f57600080fd5b8135611df38161305c565b6000602082840312156130bc57600080fd5b5035919050565b6000815180845260005b818110156130e9576020818501810151868301820152016130cd565b5060006020828601015260207fffffffffffffffffffffffffffffffffffffffffffffffffffffffffffffffe0601f83011685010191505092915050565b602081526000611df360208301846130c3565b7f4e487b7100000000000000000000000000000000000000000000000000000000600052604160045260246000fd5b7fffffffffffffffffffffffffffffffffffffffffffffffffffffffffffffffe0601f830116810181811067ffffffffffffffff821117156131ad576131ad61313a565b6040525050565b600067ffffffffffffffff8211156131ce576131ce61313a565b5060051b60200190565b600082601f8301126131e957600080fd5b813560206131f6826131b4565b6040516132038282613169565b83815260059390931b850182019282810191508684111561322357600080fd5b8286015b8481101561323e5780358352918301918301613227565b509695505050505050565b600082601f83011261325a57600080fd5b813567ffffffffffffffff8111156132745761327461313a565b6040516132a960207fffffffffffffffffffffffffffffffffffffffffffffffffffffffffffffffe0601f8501160182613169565b8181528460208386010111156132be57600080fd5b816020850160208301376000918101602001919091529392505050565b600080600080608085870312156132f157600080fd5b6132fa85613009565b9350602085013567ffffffffffffffff8082111561331757600080fd5b613323888389016131d8565b9450604087013591508082111561333957600080fd5b613345888389016131d8565b9350606087013591508082111561335b57600080fd5b5061336887828801613249565b91505092959194509250565b600080600080600060a0868803121561338c57600080fd5b61339586613009565b94506133a360208701613009565b9350604086013567ffffffffffffffff808211156133c057600080fd5b6133cc89838a016131d8565b945060608801359150808211156133e257600080fd5b6133ee89838a016131d8565b9350608088013591508082111561340457600080fd5b5061341188828901613249565b9150509295509295909350565b6000806040838503121561343157600080fd5b823567ffffffffffffffff8082111561344957600080fd5b818501915085601f83011261345d57600080fd5b8135602061346a826131b4565b6040516134778282613169565b83815260059390931b850182019282810191508984111561349757600080fd5b948201945b838610156134bc576134ad86613009565b8252948201949082019061349c565b965050860135925050808211156134d257600080fd5b506134df858286016131d8565b9150509250929050565b600081518084526020808501945080840160005b83811015613519578151875295820195908201906001016134fd565b509495945050505050565b602081526000611df360208301846134e9565b60008060006060848603121561354c57600080fd5b61355584613009565b9250602084013567ffffffffffffffff8082111561357257600080fd5b61357e878388016131d8565b9350604086013591508082111561359457600080fd5b506135a1868287016131d8565b9150509250925092565b600080600080608085870312156135c157600080fd5b6135ca85613009565b93506020850135925060408501359150606085013567ffffffffffffffff8111156135f457600080fd5b61336887828801613249565b60008060006060848603121561361557600080fd5b61361e84613009565b95602085013595506040909401359392505050565b60006020828403121561364557600080fd5b611df382613009565b801515811461308a57600080fd5b6000806040838503121561366f57600080fd5b61367883613009565b915060208301356136888161364e565b809150509250929050565b600080604083850312156136a657600080fd5b6136af83613009565b91506136bd60208401613009565b90509250929050565b600080600080600060a086880312156136de57600080fd5b6136e786613009565b94506136f560208701613009565b93506040860135925060608601359150608086013567ffffffffffffffff81111561371f57600080fd5b61341188828901613249565b600181811c9082168061373f57607f821691505b602082108103613778577f4e487b7100000000000000000000000000000000000000000000000000000000600052602260045260246000fd5b50919050565b60006020828403121561379057600080fd5b5051919050565b6000602082840312156137a957600080fd5b8151611df38161364e565b7f4e487b7100000000000000000000000000000000000000000000000000000000600052603260045260246000fd5b7f4e487b7100000000000000000000000000000000000000000000000000000000600052601160045260246000fd5b80820180821115610455576104556137e3565b60007fffffffffffffffffffffffffffffffffffffffffffffffffffffffffffffffff8203613856576138566137e3565b5060010190565b81810381811115610455576104556137e3565b60408152600061388360408301856134e9565b828103602084015261389581856134e9565b95945050505050565b600073ffffffffffffffffffffffffffffffffffffffff808816835280871660208401525060a060408301526138d760a08301866134e9565b82810360608401526138e981866134e9565b905082810360808401526138fd81856130c3565b98975050505050505050565b60006020828403121561391b57600080fd5b8151611df38161305c565b600060033d111561393f5760046000803e5060005160e01c5b90565b600060443d10156139505790565b6040517ffffffffffffffffffffffffffffffffffffffffffffffffffffffffffffffffc803d016004833e81513d67ffffffffffffffff816024840111818411171561399e57505050505090565b82850191508151818111156139b65750505050505090565b843d87010160208285010111156139d05750505050505090565b6139df60208286010187613169565b509095945050505050565b600073ffffffffffffffffffffffffffffffffffffffff808816835280871660208401525084604083015283606083015260a06080830152613a2f60a08301846130c3565b97965050505050505056fea26469706673582212201b72f3fdb7716e93280eebdcb5faa8ac8285fb53d5e04bca693e3734e5f804d364736f6c63430008100033",
    "linkReferences": {}
  },
  "methodIdentifiers": {
    "balanceOf(address,uint256)": "00fdd58e",
    "balanceOfBatch(address[],uint256[])": "4e1273f4",
    "burn(address,uint256,uint256)": "f5298aca",
    "burnBatch(address,uint256[],uint256[])": "6b20c454",
    "burnCoupons(address,uint256,uint256)": "738f0cf1",
    "getTotalOutstandingDebt()": "db87b1ff",
    "holderTokens(address)": "7b48c3fd",
    "isApprovedForAll(address,address)": "e985e9c5",
    "manager()": "481c6a75",
    "mint(address,uint256,uint256,bytes)": "731133e9",
    "mintBatch(address,uint256[],uint256[],bytes)": "1f7fdffa",
    "mintCoupons(address,uint256,uint256)": "e71fc58f",
    "pause()": "8456cb59",
    "paused()": "5c975abb",
    "safeBatchTransferFrom(address,address,uint256[],uint256[],bytes)": "2eb2c2d6",
    "safeTransferFrom(address,address,uint256,uint256,bytes)": "f242432a",
    "setApprovalForAll(address,bool)": "a22cb465",
    "supportsInterface(bytes4)": "01ffc9a7",
    "totalSupply()": "18160ddd",
    "unpause()": "3f4ba83a",
    "updateTotalDebt()": "f7ffe84a",
    "uri(uint256)": "0e89341c"
  },
  "id": 52
}