{
  "address": "0xE8B4678B4d870699bb3883D9074CB3e98E529E74",
  "abi": [
    {
      "inputs": [],
      "stateMutability": "nonpayable",
      "type": "constructor"
    },
    {
      "anonymous": false,
      "inputs": [
        {
          "indexed": false,
          "internalType": "address",
          "name": "_to",
          "type": "address"
        },
        {
          "indexed": false,
          "internalType": "address",
          "name": "token",
          "type": "address"
        },
        {
          "indexed": false,
          "internalType": "uint256",
          "name": "amount",
          "type": "uint256"
        }
      ],
      "name": "DustSent",
      "type": "event"
    },
    {
      "anonymous": false,
      "inputs": [
        {
          "indexed": true,
          "internalType": "address",
          "name": "previousOwner",
          "type": "address"
        },
        {
          "indexed": true,
          "internalType": "address",
          "name": "newOwner",
          "type": "address"
        }
      ],
      "name": "OwnershipTransferred",
      "type": "event"
    },
    {
      "inputs": [],
      "name": "MAXIMUM_SUPPLY",
      "outputs": [
        {
          "internalType": "uint256",
          "name": "",
          "type": "uint256"
        }
      ],
      "stateMutability": "view",
      "type": "function"
    },
    {
      "inputs": [
        {
          "internalType": "address",
          "name": "_address",
          "type": "address"
        }
      ],
      "name": "allowance",
      "outputs": [
        {
          "internalType": "uint256",
          "name": "count",
          "type": "uint256"
        },
        {
          "internalType": "uint256",
          "name": "price",
          "type": "uint256"
        }
      ],
      "stateMutability": "view",
      "type": "function"
    },
    {
      "inputs": [
        {
          "internalType": "address[]",
          "name": "_addresses",
          "type": "address[]"
        },
        {
          "internalType": "uint256[]",
          "name": "_counts",
          "type": "uint256[]"
        },
        {
          "internalType": "uint256[]",
          "name": "_prices",
          "type": "uint256[]"
        }
      ],
      "name": "batchSetAllowances",
      "outputs": [],
      "stateMutability": "nonpayable",
      "type": "function"
    },
    {
      "inputs": [],
      "name": "fundsAddress",
      "outputs": [
        {
          "internalType": "address",
          "name": "",
          "type": "address"
        }
      ],
      "stateMutability": "view",
      "type": "function"
    },
    {
      "inputs": [],
      "name": "owner",
      "outputs": [
        {
          "internalType": "address",
          "name": "",
          "type": "address"
        }
      ],
      "stateMutability": "view",
      "type": "function"
    },
    {
      "inputs": [],
      "name": "renounceOwnership",
      "outputs": [],
      "stateMutability": "nonpayable",
      "type": "function"
    },
    {
      "inputs": [
        {
          "internalType": "address",
          "name": "_address",
          "type": "address"
        },
        {
          "internalType": "uint256",
          "name": "_count",
          "type": "uint256"
        },
        {
          "internalType": "uint256",
          "name": "_price",
          "type": "uint256"
        }
      ],
      "name": "setAllowance",
      "outputs": [],
      "stateMutability": "nonpayable",
      "type": "function"
    },
    {
      "inputs": [
        {
          "internalType": "address",
          "name": "_address",
          "type": "address"
        }
      ],
      "name": "setFundsAddress",
      "outputs": [],
      "stateMutability": "nonpayable",
      "type": "function"
    },
    {
      "inputs": [
        {
          "internalType": "address",
          "name": "_newTokenContract",
          "type": "address"
        }
      ],
      "name": "setTokenContract",
      "outputs": [],
      "stateMutability": "nonpayable",
      "type": "function"
    },
    {
      "inputs": [],
      "name": "tokenContract",
      "outputs": [
        {
          "internalType": "contract ITheUbiquiStick",
          "name": "",
          "type": "address"
        }
      ],
      "stateMutability": "view",
      "type": "function"
    },
    {
      "inputs": [
        {
          "internalType": "address",
          "name": "newOwner",
          "type": "address"
        }
      ],
      "name": "transferOwnership",
      "outputs": [],
      "stateMutability": "nonpayable",
      "type": "function"
    },
    {
      "stateMutability": "payable",
      "type": "receive"
    }
  ],
  "transactionHash": "0xa35aa85f6aee50fd78ecab6c59a9047bfd871394de8c3355a984a4c9e52ec4bd",
  "args": [],
  "solcInputHash": "d3eb8553f81e3ce9a651a3c0f73e3dd7",
  "bytecode": "0x608060405234801561001057600080fd5b5061001a33610023565b60018055610073565b600080546001600160a01b038381166001600160a01b0319831681178455604051919092169283917f8be0079c531659141344cd1fd0a4f28419497f9722a3daafe3b4186f6b6457e09190a35050565b610bef806100826000396000f3fe6080604052600436106100a05760003560e01c8063715018a611610064578063715018a6146104e45780637f19abe0146104f95780638da5cb5b14610519578063a77ccd6e14610537578063bbcd5bbe14610557578063f2fde38b1461057757600080fd5b806304acbb991461040c5780633d0c49241461042e5780633e5beab91461045757806342dbb4ef1461048c57806355a373d6146104ac57600080fd5b3661040757600260015414156100fd5760405162461bcd60e51b815260206004820152601f60248201527f5265656e7472616e637947756172643a207265656e7472616e742063616c6c0060448201526064015b60405180910390fd5b6002600181905554604080516318160ddd60e01b815290516000926001600160a01b0316916318160ddd916004808301926020929190829003018186803b15801561014757600080fd5b505afa15801561015b573d6000803e3d6000fd5b505050506040513d601f19601f8201168201806040525081019061017f919061094c565b61018b9061040061097b565b9050600081116101c85760405162461bcd60e51b815260206004820152600860248201526714dbdb190813dd5d60c21b60448201526064016100f4565b6000806101d433610597565b9092509050816102455760405162461bcd60e51b815260206004820152603660248201527f4e6f742057686974656c697374656420466f72205468652053616c65204f7220604482015275496e73756666696369656e7420416c6c6f77616e636560501b60648201526084016100f4565b8034101561028a5760405162461bcd60e51b8152602060048201526012602482015271496e73756666696369656e742046756e647360701b60448201526064016100f4565b600081156102a15761029c34836105cf565b6102a3565b825b905060008382116102b457816102b6565b835b90508085106102c557806102c7565b845b336000908152600360205260408120805492935083929091906102eb90849061097b565b9091555050600254604051632c195e7f60e11b8152336004820152602481018390526001600160a01b0390911690635832bcfe90604401600060405180830381600087803b15801561033c57600080fd5b505af1158015610350573d6000803e3d6000fd5b50505050600061036984836105e290919063ffffffff16565b905080156103b7573360009081526004602090815260408083208151808301909252858252818301888152815460018181018455928652939094209151600290930290910191825591519101555b60006103c334836105ee565b905080156103fa57604051339082156108fc029083906000818181858888f193505050501580156103f8573d6000803e3d6000fd5b505b5050600180555050505050005b600080fd5b34801561041857600080fd5b5061042c6104273660046109ae565b6105fa565b005b34801561043a57600080fd5b5061044461040081565b6040519081526020015b60405180910390f35b34801561046357600080fd5b506104776104723660046109e1565b610597565b6040805192835260208301919091520161044e565b34801561049857600080fd5b5061042c6104a7366004610a48565b610684565b3480156104b857600080fd5b506002546104cc906001600160a01b031681565b6040516001600160a01b03909116815260200161044e565b3480156104f057600080fd5b5061042c610747565b34801561050557600080fd5b5061042c6105143660046109e1565b61077d565b34801561052557600080fd5b506000546001600160a01b03166104cc565b34801561054357600080fd5b506005546104cc906001600160a01b031681565b34801561056357600080fd5b5061042c6105723660046109e1565b6107ef565b34801561058357600080fd5b5061042c6105923660046109e1565b610861565b6001600160a01b0316600090815260036020908152604091829020825180840190935280548084526001909101549290910182905291565b60006105db8284610ae2565b9392505050565b60006105db8284610b04565b60006105db828461097b565b6000546001600160a01b031633146106245760405162461bcd60e51b81526004016100f490610b23565b6001600160a01b03831661064a5760405162461bcd60e51b81526004016100f490610b58565b60408051808201825292835260208084019283526001600160a01b0390941660009081526003909452909220905181559051600190910155565b6000546001600160a01b031633146106ae5760405162461bcd60e51b81526004016100f490610b23565b8460005b818161ffff16101561073d5761072b88888361ffff168181106106d7576106d7610b81565b90506020020160208101906106ec91906109e1565b87878461ffff1681811061070257610702610b81565b9050602002013586868561ffff1681811061071f5761071f610b81565b905060200201356105fa565b8061073581610b97565b9150506106b2565b5050505050505050565b6000546001600160a01b031633146107715760405162461bcd60e51b81526004016100f490610b23565b61077b60006108fc565b565b6000546001600160a01b031633146107a75760405162461bcd60e51b81526004016100f490610b23565b6001600160a01b0381166107cd5760405162461bcd60e51b81526004016100f490610b58565b600580546001600160a01b0319166001600160a01b0392909216919091179055565b6000546001600160a01b031633146108195760405162461bcd60e51b81526004016100f490610b23565b6001600160a01b03811661083f5760405162461bcd60e51b81526004016100f490610b58565b600280546001600160a01b0319166001600160a01b0392909216919091179055565b6000546001600160a01b0316331461088b5760405162461bcd60e51b81526004016100f490610b23565b6001600160a01b0381166108f05760405162461bcd60e51b815260206004820152602660248201527f4f776e61626c653a206e6577206f776e657220697320746865207a65726f206160448201526564647265737360d01b60648201526084016100f4565b6108f9816108fc565b50565b600080546001600160a01b038381166001600160a01b0319831681178455604051919092169283917f8be0079c531659141344cd1fd0a4f28419497f9722a3daafe3b4186f6b6457e09190a35050565b60006020828403121561095e57600080fd5b5051919050565b634e487b7160e01b600052601160045260246000fd5b60008282101561098d5761098d610965565b500390565b80356001600160a01b03811681146109a957600080fd5b919050565b6000806000606084860312156109c357600080fd5b6109cc84610992565b95602085013595506040909401359392505050565b6000602082840312156109f357600080fd5b6105db82610992565b60008083601f840112610a0e57600080fd5b50813567ffffffffffffffff811115610a2657600080fd5b6020830191508360208260051b8501011115610a4157600080fd5b9250929050565b60008060008060008060608789031215610a6157600080fd5b863567ffffffffffffffff80821115610a7957600080fd5b610a858a838b016109fc565b90985096506020890135915080821115610a9e57600080fd5b610aaa8a838b016109fc565b90965094506040890135915080821115610ac357600080fd5b50610ad089828a016109fc565b979a9699509497509295939492505050565b600082610aff57634e487b7160e01b600052601260045260246000fd5b500490565b6000816000190483118215151615610b1e57610b1e610965565b500290565b6020808252818101527f4f776e61626c653a2063616c6c6572206973206e6f7420746865206f776e6572604082015260600190565b6020808252600f908201526e496e76616c6964204164647265737360881b604082015260600190565b634e487b7160e01b600052603260045260246000fd5b600061ffff80831681811415610baf57610baf610965565b600101939250505056fea2646970667358221220ea16ef0aa4563dcbfa30eea190bb9723b86d75ba7147dc9df58fb5fe9281805964736f6c63430008090033",
  "devdoc": {
    "kind": "dev",
    "methods": {
      "owner()": {
        "details": "Returns the address of the current owner."
      },
      "renounceOwnership()": {
        "details": "Leaves the contract without owner. It will not be possible to call `onlyOwner` functions anymore. Can only be called by the current owner. NOTE: Renouncing ownership will leave the contract without an owner, thereby removing any functionality that is only available to the owner."
      },
      "transferOwnership(address)": {
        "details": "Transfers ownership of the contract to a new account (`newOwner`). Can only be called by the current owner."
      }
    },
    "version": 1
  },
  "userdoc": {
    "kind": "user",
    "methods": {},
    "version": 1
  },
  "storageLayout": {
    "storage": [
      {
        "astId": 389,
        "contract": "contracts/TheUbiquiStickSale.sol:TheUbiquiStickSale",
        "label": "_owner",
        "offset": 0,
        "slot": "0",
        "type": "t_address"
      },
      {
        "astId": 497,
        "contract": "contracts/TheUbiquiStickSale.sol:TheUbiquiStickSale",
        "label": "_status",
        "offset": 0,
        "slot": "1",
        "type": "t_uint256"
      },
      {
        "astId": 3433,
        "contract": "contracts/TheUbiquiStickSale.sol:TheUbiquiStickSale",
        "label": "tokenContract",
        "offset": 0,
        "slot": "2",
        "type": "t_contract(ITheUbiquiStick)3838"
      },
      {
        "astId": 3438,
        "contract": "contracts/TheUbiquiStickSale.sol:TheUbiquiStickSale",
        "label": "_allowances",
        "offset": 0,
        "slot": "3",
        "type": "t_mapping(t_address,t_struct(Purchase)3430_storage)"
      },
      {
        "astId": 3444,
        "contract": "contracts/TheUbiquiStickSale.sol:TheUbiquiStickSale",
        "label": "_purchases",
        "offset": 0,
        "slot": "4",
        "type": "t_mapping(t_address,t_array(t_struct(Purchase)3430_storage)dyn_storage)"
      },
      {
        "astId": 3446,
        "contract": "contracts/TheUbiquiStickSale.sol:TheUbiquiStickSale",
        "label": "fundsAddress",
        "offset": 0,
        "slot": "5",
        "type": "t_address"
      }
    ],
    "types": {
      "t_address": {
        "encoding": "inplace",
        "label": "address",
        "numberOfBytes": "20"
      },
      "t_array(t_struct(Purchase)3430_storage)dyn_storage": {
        "base": "t_struct(Purchase)3430_storage",
        "encoding": "dynamic_array",
        "label": "struct TheUbiquiStickSale.Purchase[]",
        "numberOfBytes": "32"
      },
      "t_contract(ITheUbiquiStick)3838": {
        "encoding": "inplace",
        "label": "contract ITheUbiquiStick",
        "numberOfBytes": "20"
      },
      "t_mapping(t_address,t_array(t_struct(Purchase)3430_storage)dyn_storage)": {
        "encoding": "mapping",
        "key": "t_address",
        "label": "mapping(address => struct TheUbiquiStickSale.Purchase[])",
        "numberOfBytes": "32",
        "value": "t_array(t_struct(Purchase)3430_storage)dyn_storage"
      },
      "t_mapping(t_address,t_struct(Purchase)3430_storage)": {
        "encoding": "mapping",
        "key": "t_address",
        "label": "mapping(address => struct TheUbiquiStickSale.Purchase)",
        "numberOfBytes": "32",
        "value": "t_struct(Purchase)3430_storage"
      },
      "t_struct(Purchase)3430_storage": {
        "encoding": "inplace",
        "label": "struct TheUbiquiStickSale.Purchase",
        "members": [
          {
            "astId": 3427,
            "contract": "contracts/TheUbiquiStickSale.sol:TheUbiquiStickSale",
            "label": "count",
            "offset": 0,
            "slot": "0",
            "type": "t_uint256"
          },
          {
            "astId": 3429,
            "contract": "contracts/TheUbiquiStickSale.sol:TheUbiquiStickSale",
            "label": "price",
            "offset": 0,
            "slot": "1",
            "type": "t_uint256"
          }
        ],
        "numberOfBytes": "64"
      },
      "t_uint256": {
        "encoding": "inplace",
        "label": "uint256",
        "numberOfBytes": "32"
      }
    }
  }
}