{
  "abi": [
    {
      "inputs": [
        {
          "internalType": "address",
          "name": "_manager",
          "type": "address"
        }
      ],
      "stateMutability": "nonpayable",
      "type": "constructor"
    },
    {
      "inputs": [],
      "name": "getConstant",
      "outputs": [
        {
          "internalType": "uint256",
          "name": "",
          "type": "uint256"
        }
      ],
      "stateMutability": "view",
      "type": "function"
    },
    {
      "inputs": [
        {
          "internalType": "uint256",
          "name": "dollarsToBurn",
          "type": "uint256"
        },
        {
          "internalType": "uint256",
          "name": "blockHeightDebt",
          "type": "uint256"
        }
      ],
      "name": "getUARAmount",
      "outputs": [
        {
          "internalType": "uint256",
          "name": "",
          "type": "uint256"
        }
      ],
      "stateMutability": "view",
      "type": "function"
    },
    {
      "inputs": [],
      "name": "manager",
      "outputs": [
        {
          "internalType": "contract UbiquityAlgorithmicDollarManager",
          "name": "",
          "type": "address"
        }
      ],
      "stateMutability": "view",
      "type": "function"
    },
    {
      "inputs": [
        {
          "internalType": "uint256",
          "name": "coef",
          "type": "uint256"
        }
      ],
      "name": "setConstant",
      "outputs": [],
      "stateMutability": "nonpayable",
      "type": "function"
    }
  ],
  "bytecode": {
    "object": "0x6080604052670de0b6b3a76400006001553480156200001d57600080fd5b5060405162002bb838038062002bb8833981016040819052620000409162000066565b600080546001600160a01b0319166001600160a01b039290921691909117905562000098565b6000602082840312156200007957600080fd5b81516001600160a01b03811681146200009157600080fd5b9392505050565b612b1080620000a86000396000f3fe608060405234801561001057600080fd5b506004361061004c5760003560e01c80633667d85914610051578063481c6a7514610077578063ac506806146100bc578063f13a38a6146100d1575b600080fd5b61006461005f3660046129d0565b6100d9565b6040519081526020015b60405180910390f35b6000546100979073ffffffffffffffffffffffffffffffffffffffff1681565b60405173ffffffffffffffffffffffffffffffffffffffff909116815260200161006e565b6100cf6100ca3660046129f2565b6104db565b005b600154610064565b60008060009054906101000a900473ffffffffffffffffffffffffffffffffffffffff1673ffffffffffffffffffffffffffffffffffffffff1663bc3ea0186040518163ffffffff1660e01b815260040160206040518083038186803b15801561014257600080fd5b505afa158015610156573d6000803e3d6000fd5b505050506040513d601f19601f8201168201806040525081019061017a9190612a0b565b73ffffffffffffffffffffffffffffffffffffffff166318160ddd6040518163ffffffff1660e01b815260040160206040518083038186803b1580156101bf57600080fd5b505afa1580156101d3573d6000803e3d6000fd5b505050506040513d601f19601f820116820180604052508101906101f79190612a41565b60008054906101000a900473ffffffffffffffffffffffffffffffffffffffff1673ffffffffffffffffffffffffffffffffffffffff166356593ea36040518163ffffffff1660e01b815260040160206040518083038186803b15801561025d57600080fd5b505afa158015610271573d6000803e3d6000fd5b505050506040513d601f19601f820116820180604052508101906102959190612a0b565b73ffffffffffffffffffffffffffffffffffffffff1663db87b1ff6040518163ffffffff1660e01b815260040160206040518083038186803b1580156102da57600080fd5b505afa1580156102ee573d6000803e3d6000fd5b505050506040513d601f19601f820116820180604052508101906103129190612a41565b1061037e576040517f08c379a000000000000000000000000000000000000000000000000000000000815260206004820152601c60248201527f75415220746f20446f6c6c61723a20444542545f544f4f5f484947480000000060448201526064015b60405180910390fd5b60006103c7610394670de0b6b3a764000061067e565b61039f60015461067e565b7fffffffffffffffffffffffffffffffff0000000000000000000000000000000016906106e9565b905060006103d44361067e565b905060006103e58261039f8761067e565b9050600061046a61044361041a7fffffffffffffffffffffffffffffffff000000000000000000000000000000008516610b5b565b7fffffffffffffffffffffffffffffffff00000000000000000000000000000000871690610b8b565b7fffffffffffffffffffffffffffffffff0000000000000000000000000000000016610f75565b905060006104cd6104a68361047e8b61067e565b7fffffffffffffffffffffffffffffffff000000000000000000000000000000001690610b8b565b7fffffffffffffffffffffffffffffffff0000000000000000000000000000000016610fa9565b955050505050505b92915050565b600054604080517f57f6a22a000000000000000000000000000000000000000000000000000000008152905173ffffffffffffffffffffffffffffffffffffffff909216916391d148549183916357f6a22a91600480820192602092909190829003018186803b15801561054e57600080fd5b505afa158015610562573d6000803e3d6000fd5b505050506040513d601f19601f820116820180604052508101906105869190612a41565b6040517fffffffff0000000000000000000000000000000000000000000000000000000060e084901b168152600481019190915233602482015260440160206040518083038186803b1580156105db57600080fd5b505afa1580156105ef573d6000803e3d6000fd5b505050506040513d601f19601f820116820180604052508101906106139190612a5a565b610679576040517f08c379a000000000000000000000000000000000000000000000000000000000815260206004820152601260248201527f55415243616c633a206e6f742061646d696e00000000000000000000000000006044820152606401610375565b600155565b60008161068d57506000919050565b81600061069982611068565b905060708110156106b2578060700382901b91506106c5565b60708111156106c5576070810382901c91505b613fff0160701b6dffffffffffffffffffffffffffff919091161760801b92915050565b6000617fff60f084811c8216919084901c8116908214156107665780617fff141561073957507f7fff80000000000000000000000000000000000000000000000000000000000091506104d59050565b5050507f8000000000000000000000000000000000000000000000000000000000000000811682186104d5565b80617fff14156107ee577dffffffffffffffffffffffffffff000000000000000000000000000000008416156107c157507f7fff80000000000000000000000000000000000000000000000000000000000091506104d59050565b5050508082187f8000000000000000000000000000000000000000000000000000000000000000166104d5565b7f7fffffffffffffffffffffffffffffff0000000000000000000000000000000084166108b6577f7fffffffffffffffffffffffffffffff00000000000000000000000000000000851661086757507f7fff80000000000000000000000000000000000000000000000000000000000091506104d59050565b5050508082187f8000000000000000000000000000000000000000000000000000000000000000167f7fff000000000000000000000000000000000000000000000000000000000000176104d5565b6dffffffffffffffffffffffffffff608085901c16816108d957600191506108eb565b6e010000000000000000000000000000175b6dffffffffffffffffffffffffffff608087901c168361094f57801561094a57600061091682611068565b6001955060e2039384017fffffffffffffffffffffffffffffffffffffffffffffffffffffffffffffff8e01939190911b90505b610964565b6e0100000000000000000000000000001760721b5b81818161097357610973612a7c565b049050806109d8577f8000000000000000000000000000000000000000000000000000000000000000878718166109ab5760006109cd565b7f80000000000000000000000000000000000000000000000000000000000000005b9450505050506104d5565b6d10000000000000000000000000008110156109f6576109f6612aab565b60006e080000000000000000000000000000821015610a56576e040000000000000000000000000000821015610a4b576e020000000000000000000000000000821015610a44576070610a4e565b6071610a4e565b60725b60ff16610a5f565b610a5f82611068565b905083614071018186011115610a7d57617fff945060009150610b17565b83818601613ffc011015610a98576000945060009150610b17565b83818601613f8c011015610ae5578385613ffc011115610ac3578385613ffc010382901b9150610adc565b8385613ffc011015610adc57613ffc8585030382901c91505b60009450610b17565b6070811115610af8576070810382901c91505b6dffffffffffffffffffffffffffff8216915083818601613f8d010394505b81607086901b888a186f8000000000000000000000000000000060801b1660801c6fffffffffffffffffffffffffffffffff16171760801b955050505050506104d5565b60006104d5610b6983611118565b7f3ffe62e42fefa39ef35793c7673007e5000000000000000000000000000000005b6000617fff60f084811c8216919084901c811690821415610cde5780617fff1415610c8c577fffffffffffffffffffffffffffffffff000000000000000000000000000000008581169085161415610c0a575050507f8000000000000000000000000000000000000000000000000000000000000000811682186104d5565b7f80000000000000000000000000000000000000000000000000000000000000007fffffffffffffffffffffffffffffffff00000000000000000000000000000000868618161415610c61575050508181176104d5565b507f7fff80000000000000000000000000000000000000000000000000000000000091506104d59050565b7f7fffffffffffffffffffffffffffffff00000000000000000000000000000000841661073957507f7fff80000000000000000000000000000000000000000000000000000000000091506104d59050565b80617fff1415610d67577f7fffffffffffffffffffffffffffffff000000000000000000000000000000008516610d3a57507f7fff80000000000000000000000000000000000000000000000000000000000091506104d59050565b5050507f8000000000000000000000000000000000000000000000000000000000000000821681186104d5565b6dffffffffffffffffffffffffffff608086901c1682610d8a5760019250610d9c565b6e010000000000000000000000000000175b6dffffffffffffffffffffffffffff608086901c1682610dbf5760019250610dd1565b6e010000000000000000000000000000175b9081029081610e0a577f8000000000000000000000000000000000000000000000000000000000000000878718166109ab5760006109cd565b9282019260007c0200000000000000000000000000000000000000000000000000000000831015610e6f577c0100000000000000000000000000000000000000000000000000000000831015610e6857610e6383611068565b610e72565b60e0610e72565b60e15b90506140708186011015610e8d576000945060009250610f31565b6140e08186011015610ed057614070851015610eb257846140700383901c9250610ec7565b614070851115610ec757614070850383901b92505b60009450610f31565b61c0dd8186011115610eea57617fff945060009250610f31565b6070811115610f01576070810383901c9250610f14565b6070811015610f14578060700383901b92505b6dffffffffffffffffffffffffffff831692506140df8186010394505b82607086901b888a186f8000000000000000000000000000000060801b1660801c6fffffffffffffffffffffffffffffffff16171760801b955050505050506104d5565b60006104d5610fa4837f3fff71547652b82fe1777d0ffda0d23a00000000000000000000000000000000610b8b565b6113c8565b6000617fff60f083901c16613fff811015610fc75750600092915050565b6f80000000000000000000000000000000608084901c10610fe757600080fd5b6140fe811115610ff657600080fd5b6e0100000000000000000000000000006dffffffffffffffffffffffffffff608085901c161761406f8210156110325761406f8290031c611061565b61406f821115611061577fffffffffffffffffffffffffffffffffffffffffffffffffffffffffffffbf9182011b5b9392505050565b600080821161107657600080fd5b6000700100000000000000000000000000000000831061109857608092831c92015b6801000000000000000083106110b057604092831c92015b64010000000083106110c457602092831c92015b6201000083106110d657601092831c92015b61010083106110e757600892831c92015b601083106110f757600492831c92015b6004831061110757600292831c92015b600283106104d55760010192915050565b60006f80000000000000000000000000000000608083901c111561115d57507f7fff800000000000000000000000000000000000000000000000000000000000919050565b7f3fff0000000000000000000000000000000000000000000000000000000000007fffffffffffffffffffffffffffffffff00000000000000000000000000000000831614156111af57506000919050565b617fff60f083901c8116908114156111c8575090919050565b6dffffffffffffffffffffffffffff608084901c16816111eb57600191506111fd565b6e010000000000000000000000000000175b8061122b57507fffff0000000000000000000000000000000000000000000000000000000000009392505050565b600061406f81613fff851061126e5750600f9290921b91600091507fffffffffffffffffffffffffffffffffffffffffffffffffffffffffffffc00184016112b8565b600192506e010000000000000000000000000000841061129b5784613ffe039050600f84901b93506112b8565b60006112a685611068565b607f8190039590951b9461406d039150505b836f8000000000000000000000000000000014156112fb5782156112da576001015b60006112e582611068565b60700390508082901b9150808303925050611372565b60008361130957600061130c565b60015b60ff1690505b6e0100000000000000000000000000008210156113705793800260ff81901c607f81019190911c947fffffffffffffffffffffffffffffffffffffffffffffffffffffffffffffffff939093019260019290921b9082180190611312565b505b806dffffffffffffffffffffffffffff16607083901b846113945760006113a6565b6f800000000000000000000000000000005b6fffffffffffffffffffffffffffffffff16171760801b979650505050505050565b60006f80000000000000000000000000000000608083901c90811190617fff60f085901c8116916dffffffffffffffffffffffffffff16908214801561140d57508015155b1561143c57507f7fff800000000000000000000000000000000000000000000000000000000000949350505050565b61400d82111561147d5782611471577f7fff000000000000000000000000000000000000000000000000000000000000611474565b60005b95945050505050565b613f7f8210156114b157507f3fff000000000000000000000000000000000000000000000000000000000000949350505050565b816114bf57600191506114d1565b6e010000000000000000000000000000175b613fef821115611504577fffffffffffffffffffffffffffffffffffffffffffffffffffffffffffffc01182011b611516565b613fef82101561151657613fef8290031c5b828015611534575071406e0000000000000000000000000000000081115b1561154457506000949350505050565b821580156115635750713fffffffffffffffffffffffffffffffffff81115b1561159257507f7fff000000000000000000000000000000000000000000000000000000000000949350505050565b6fffffffffffffffffffffffffffffffff81169060801c8380156115b557508115155b156115c1579019906001015b6f80000000000000000000000000000000828116156115f15770016a09e667f3bcc908b2fb1366ea957d3e0260801c5b6f40000000000000000000000000000000831615611620577001306fe0a31b7152de8d5a46305c85edec0260801c5b6f2000000000000000000000000000000083161561164f577001172b83c7d517adcdf7c8c50eb14a791f0260801c5b6f1000000000000000000000000000000083161561167e5770010b5586cf9890f6298b92b71842a983630260801c5b6f080000000000000000000000000000008316156116ad577001059b0d31585743ae7c548eb68ca417fd0260801c5b6f040000000000000000000000000000008316156116dc57700102c9a3e778060ee6f7caca4f7a29bde80260801c5b6f0200000000000000000000000000000083161561170b5770010163da9fb33356d84a66ae336dcdfa3f0260801c5b6f0100000000000000000000000000000083161561173a57700100b1afa5abcbed6129ab13ec11dc95430260801c5b6e8000000000000000000000000000008316156117685770010058c86da1c09ea1ff19d294cf2f679b0260801c5b6e400000000000000000000000000000831615611796577001002c605e2e8cec506d21bfc89a23a00f0260801c5b6e2000000000000000000000000000008316156117c457700100162f3904051fa128bca9c55c31e5df0260801c5b6e1000000000000000000000000000008316156117f2577001000b175effdc76ba38e31671ca9397250260801c5b6e08000000000000000000000000000083161561182057700100058ba01fb9f96d6cacd4b180917c3d0260801c5b6e04000000000000000000000000000083161561184e5770010002c5cc37da9491d0985c348c68e7b30260801c5b6e02000000000000000000000000000083161561187c577001000162e525ee054754457d59952920260260801c5b6e0100000000000000000000000000008316156118aa5770010000b17255775c040618bf4a4ade83fc0260801c5b6d80000000000000000000000000008316156118d7577001000058b91b5bc9ae2eed81e9b7d4cfab0260801c5b6d400000000000000000000000000083161561190457700100002c5c89d5ec6ca4d7c8acc017b7c90260801c5b6d20000000000000000000000000008316156119315770010000162e43f4f831060e02d839a9d16d0260801c5b6d100000000000000000000000000083161561195e57700100000b1721bcfc99d9f890ea069117630260801c5b6d080000000000000000000000000083161561198b5770010000058b90cf1e6d97f9ca14dbcc16280260801c5b6d04000000000000000000000000008316156119b8577001000002c5c863b73f016468f6bac5ca2b0260801c5b6d02000000000000000000000000008316156119e557700100000162e430e5a18f6119e3c02282a50260801c5b6d0100000000000000000000000000831615611a12577001000000b1721835514b86e6d96efd1bfe0260801c5b6c80000000000000000000000000831615611a3e57700100000058b90c0b48c6be5df846c5b2ef0260801c5b6c40000000000000000000000000831615611a6a5770010000002c5c8601cc6b9e94213c72737a0260801c5b6c20000000000000000000000000831615611a96577001000000162e42fff037df38aa2b219f060260801c5b6c10000000000000000000000000831615611ac25770010000000b17217fba9c739aa5819f44f90260801c5b6c08000000000000000000000000831615611aee577001000000058b90bfcdee5acd3c1cedc8230260801c5b6c04000000000000000000000000831615611b1a57700100000002c5c85fe31f35a6a30da1be500260801c5b6c02000000000000000000000000831615611b465770010000000162e42ff0999ce3541b9fffcf0260801c5b6c01000000000000000000000000831615611b7257700100000000b17217f80f4ef5aadda455540260801c5b6b800000000000000000000000831615611b9d5770010000000058b90bfbf8479bd5a81b51ad0260801c5b6b400000000000000000000000831615611bc8577001000000002c5c85fdf84bd62ae30a74cc0260801c5b6b200000000000000000000000831615611bf357700100000000162e42fefb2fed257559bdaa0260801c5b6b100000000000000000000000831615611c1e577001000000000b17217f7d5a7716bba4a9ae0260801c5b6b080000000000000000000000831615611c4957700100000000058b90bfbe9ddbac5e109cce0260801c5b6b040000000000000000000000831615611c745770010000000002c5c85fdf4b15de6f17eb0d0260801c5b6b020000000000000000000000831615611c9f577001000000000162e42fefa494f1478fde050260801c5b6b010000000000000000000000831615611cca5770010000000000b17217f7d20cf927c8e94c0260801c5b6a8000000000000000000000831615611cf4577001000000000058b90bfbe8f71cb4e4b33d0260801c5b6a4000000000000000000000831615611d1e57700100000000002c5c85fdf477b662b269450260801c5b6a2000000000000000000000831615611d485770010000000000162e42fefa3ae53369388c0260801c5b6a1000000000000000000000831615611d7257700100000000000b17217f7d1d351a389d400260801c5b6a0800000000000000000000831615611d9c5770010000000000058b90bfbe8e8b2d3d4ede0260801c5b6a0400000000000000000000831615611dc6577001000000000002c5c85fdf4741bea6e77e0260801c5b6a0200000000000000000000831615611df057700100000000000162e42fefa39fe95583c20260801c5b6a0100000000000000000000831615611e1a577001000000000000b17217f7d1cfb72b45e10260801c5b6980000000000000000000831615611e4357700100000000000058b90bfbe8e7cc35c3f00260801c5b6940000000000000000000831615611e6c5770010000000000002c5c85fdf473e242ea380260801c5b6920000000000000000000831615611e95577001000000000000162e42fefa39f02b772c0260801c5b6910000000000000000000831615611ebe5770010000000000000b17217f7d1cf7d83c1a0260801c5b6908000000000000000000831615611ee7577001000000000000058b90bfbe8e7bdcbe2e0260801c5b6904000000000000000000831615611f1057700100000000000002c5c85fdf473dea871f0260801c5b6902000000000000000000831615611f395770010000000000000162e42fefa39ef44d910260801c5b6901000000000000000000831615611f6257700100000000000000b17217f7d1cf79e9490260801c5b68800000000000000000831615611f8a5770010000000000000058b90bfbe8e7bce5440260801c5b68400000000000000000831615611fb2577001000000000000002c5c85fdf473de6eca0260801c5b68200000000000000000831615611fda57700100000000000000162e42fefa39ef366f0260801c5b68100000000000000000831615612002577001000000000000000b17217f7d1cf79afa0260801c5b6808000000000000000083161561202a57700100000000000000058b90bfbe8e7bcd6d0260801c5b680400000000000000008316156120525770010000000000000002c5c85fdf473de6b20260801c5b6802000000000000000083161561207a577001000000000000000162e42fefa39ef3580260801c5b680100000000000000008316156120a25770010000000000000000b17217f7d1cf79ab0260801c5b6780000000000000008316156120c9577001000000000000000058b90bfbe8e7bcd50260801c5b6740000000000000008316156120f057700100000000000000002c5c85fdf473de6a0260801c5b6720000000000000008316156121175770010000000000000000162e42fefa39ef340260801c5b67100000000000000083161561213e57700100000000000000000b17217f7d1cf7990260801c5b6708000000000000008316156121655770010000000000000000058b90bfbe8e7bcc0260801c5b67040000000000000083161561218c577001000000000000000002c5c85fdf473de50260801c5b6702000000000000008316156121b357700100000000000000000162e42fefa39ef20260801c5b6701000000000000008316156121da577001000000000000000000b17217f7d1cf780260801c5b668000000000000083161561220057700100000000000000000058b90bfbe8e7bb0260801c5b66400000000000008316156122265770010000000000000000002c5c85fdf473dd0260801c5b662000000000000083161561224c577001000000000000000000162e42fefa39ee0260801c5b66100000000000008316156122725770010000000000000000000b17217f7d1cf60260801c5b6608000000000000831615612298577001000000000000000000058b90bfbe8e7a0260801c5b66040000000000008316156122be57700100000000000000000002c5c85fdf473c0260801c5b66020000000000008316156122e45770010000000000000000000162e42fefa39d0260801c5b660100000000000083161561230a57700100000000000000000000b17217f7d1ce0260801c5b6580000000000083161561232f5770010000000000000000000058b90bfbe8e60260801c5b65400000000000831615612354577001000000000000000000002c5c85fdf4720260801c5b6520000000000083161561237957700100000000000000000000162e42fefa380260801c5b6510000000000083161561239e577001000000000000000000000b17217f7d1b0260801c5b650800000000008316156123c357700100000000000000000000058b90bfbe8d0260801c5b650400000000008316156123e85770010000000000000000000002c5c85fdf460260801c5b6502000000000083161561240d577001000000000000000000000162e42fefa20260801c5b650100000000008316156124325770010000000000000000000000b17217f7d00260801c5b648000000000831615612456577001000000000000000000000058b90bfbe70260801c5b64400000000083161561247a57700100000000000000000000002c5c85fdf30260801c5b64200000000083161561249e5770010000000000000000000000162e42fef90260801c5b6410000000008316156124c257700100000000000000000000000b17217f7c0260801c5b6408000000008316156124e65770010000000000000000000000058b90bfbd0260801c5b64040000000083161561250a577001000000000000000000000002c5c85fde0260801c5b64020000000083161561252e57700100000000000000000000000162e42fee0260801c5b640100000000831615612552577001000000000000000000000000b17217f60260801c5b638000000083161561257557700100000000000000000000000058b90bfa0260801c5b63400000008316156125985770010000000000000000000000002c5c85fc0260801c5b63200000008316156125bb577001000000000000000000000000162e42fd0260801c5b63100000008316156125de5770010000000000000000000000000b17217e0260801c5b6308000000831615612601577001000000000000000000000000058b90be0260801c5b630400000083161561262457700100000000000000000000000002c5c85e0260801c5b63020000008316156126475770010000000000000000000000000162e42e0260801c5b630100000083161561266a57700100000000000000000000000000b172160260801c5b6280000083161561268c5770010000000000000000000000000058b90a0260801c5b624000008316156126ae577001000000000000000000000000002c5c840260801c5b622000008316156126d057700100000000000000000000000000162e410260801c5b621000008316156126f2577001000000000000000000000000000b17200260801c5b6208000083161561271457700100000000000000000000000000058b8f0260801c5b620400008316156127365770010000000000000000000000000002c5c70260801c5b62020000831615612758577001000000000000000000000000000162e30260801c5b6201000083161561277a5770010000000000000000000000000000b1710260801c5b61800083161561279b577001000000000000000000000000000058b80260801c5b6140008316156127bc57700100000000000000000000000000002c5b0260801c5b6120008316156127dd5770010000000000000000000000000000162d0260801c5b6110008316156127fe57700100000000000000000000000000000b160260801c5b61080083161561281f5770010000000000000000000000000000058a0260801c5b610400831615612840577001000000000000000000000000000002c40260801c5b610200831615612861577001000000000000000000000000000001610260801c5b610100831615612882577001000000000000000000000000000000b00260801c5b60808316156128a2577001000000000000000000000000000000570260801c5b60408316156128c25770010000000000000000000000000000002b0260801c5b60208316156128e2577001000000000000000000000000000000150260801c5b60108316156129025770010000000000000000000000000000000a0260801c5b6008831615612922577001000000000000000000000000000000040260801c5b6004831615612942577001000000000000000000000000000000010260801c5b8461296a57600f81901c6dffffffffffffffffffffffffffff169050613fff820191506129bd565b613ffe821161299657600f81901c6dffffffffffffffffffffffffffff16905081613fff0391506129bd565b6000917fffffffffffffffffffffffffffffffffffffffffffffffffffffffffffffc011011c5b60709190911b1760801b95945050505050565b600080604083850312156129e357600080fd5b50508035926020909101359150565b600060208284031215612a0457600080fd5b5035919050565b600060208284031215612a1d57600080fd5b815173ffffffffffffffffffffffffffffffffffffffff8116811461106157600080fd5b600060208284031215612a5357600080fd5b5051919050565b600060208284031215612a6c57600080fd5b8151801515811461106157600080fd5b7f4e487b7100000000000000000000000000000000000000000000000000000000600052601260045260246000fd5b7f4e487b7100000000000000000000000000000000000000000000000000000000600052600160045260246000fdfea2646970667358221220940573aaee400e6c8df302a320ea4705046b48aa68b60e67efe72e42fd281fdd64736f6c63430008090033",
    "linkReferences": {}
  },
  "methodIdentifiers": {
    "getConstant()": "f13a38a6",
    "getUARAmount(uint256,uint256)": "3667d859",
    "manager()": "481c6a75",
    "setConstant(uint256)": "ac506806"
  },
  "id": 56
}