{
  "abi": [
    {
      "inputs": [
        {
          "internalType": "address",
          "name": "_manager",
          "type": "address"
        },
        {
          "internalType": "address",
          "name": "_bondingFormulasAddress",
          "type": "address"
        },
        {
          "internalType": "address[]",
          "name": "_originals",
          "type": "address[]"
        },
        {
          "internalType": "uint256[]",
          "name": "_lpBalances",
          "type": "uint256[]"
        },
        {
          "internalType": "uint256[]",
          "name": "_weeks",
          "type": "uint256[]"
        }
      ],
      "stateMutability": "nonpayable",
      "type": "constructor"
    },
    {
      "anonymous": false,
      "inputs": [
        {
          "indexed": true,
          "internalType": "address",
          "name": "_user",
          "type": "address"
        },
        {
          "indexed": true,
          "internalType": "uint256",
          "name": "_id",
          "type": "uint256"
        },
        {
          "indexed": false,
          "internalType": "uint256",
          "name": "_lpAmount",
          "type": "uint256"
        },
        {
          "indexed": false,
          "internalType": "uint256",
          "name": "_bondingShareAmount",
          "type": "uint256"
        }
      ],
      "name": "AddLiquidityFromBond",
      "type": "event"
    },
    {
      "anonymous": false,
      "inputs": [
        {
          "indexed": false,
          "internalType": "uint256",
          "name": "_blockCountInAWeek",
          "type": "uint256"
        }
      ],
      "name": "BlockCountInAWeekUpdated",
      "type": "event"
    },
    {
      "anonymous": false,
      "inputs": [
        {
          "indexed": false,
          "internalType": "uint256",
          "name": "_bondingDiscountMultiplier",
          "type": "uint256"
        }
      ],
      "name": "BondingDiscountMultiplierUpdated",
      "type": "event"
    },
    {
      "anonymous": false,
      "inputs": [
        {
          "indexed": true,
          "internalType": "address",
          "name": "_user",
          "type": "address"
        },
        {
          "indexed": true,
          "internalType": "uint256",
          "name": "_id",
          "type": "uint256"
        },
        {
          "indexed": false,
          "internalType": "uint256",
          "name": "_lpAmount",
          "type": "uint256"
        },
        {
          "indexed": false,
          "internalType": "uint256",
          "name": "_bondingShareAmount",
          "type": "uint256"
        },
        {
          "indexed": false,
          "internalType": "uint256",
          "name": "_weeks",
          "type": "uint256"
        },
        {
          "indexed": false,
          "internalType": "uint256",
          "name": "_endBlock",
          "type": "uint256"
        }
      ],
      "name": "Deposit",
      "type": "event"
    },
    {
      "anonymous": false,
      "inputs": [
        {
          "indexed": false,
          "internalType": "address",
          "name": "_to",
          "type": "address"
        },
        {
          "indexed": false,
          "internalType": "address",
          "name": "token",
          "type": "address"
        },
        {
          "indexed": false,
          "internalType": "uint256",
          "name": "amount",
          "type": "uint256"
        }
      ],
      "name": "DustSent",
      "type": "event"
    },
    {
      "anonymous": false,
      "inputs": [
        {
          "indexed": true,
          "internalType": "address",
          "name": "_user",
          "type": "address"
        },
        {
          "indexed": true,
          "internalType": "uint256",
          "name": "_id",
          "type": "uint256"
        },
        {
          "indexed": false,
          "internalType": "uint256",
          "name": "_lpsAmount",
          "type": "uint256"
        },
        {
          "indexed": false,
          "internalType": "uint256",
          "name": "_sharesAmount",
          "type": "uint256"
        },
        {
          "indexed": false,
          "internalType": "uint256",
          "name": "_weeks",
          "type": "uint256"
        }
      ],
      "name": "Migrated",
      "type": "event"
    },
    {
      "anonymous": false,
      "inputs": [
        {
          "indexed": false,
          "internalType": "address",
          "name": "account",
          "type": "address"
        }
      ],
      "name": "Paused",
      "type": "event"
    },
    {
      "anonymous": false,
      "inputs": [
        {
          "indexed": false,
          "internalType": "address",
          "name": "_tokenWithdrawn",
          "type": "address"
        },
        {
          "indexed": false,
          "internalType": "uint256",
          "name": "_amountWithdrawn",
          "type": "uint256"
        },
        {
          "indexed": false,
          "internalType": "uint256",
          "name": "_amountTransfered",
          "type": "uint256"
        }
      ],
      "name": "PriceReset",
      "type": "event"
    },
    {
      "anonymous": false,
      "inputs": [
        {
          "indexed": false,
          "internalType": "address",
          "name": "_token",
          "type": "address"
        }
      ],
      "name": "ProtocolTokenAdded",
      "type": "event"
    },
    {
      "anonymous": false,
      "inputs": [
        {
          "indexed": false,
          "internalType": "address",
          "name": "_token",
          "type": "address"
        }
      ],
      "name": "ProtocolTokenRemoved",
      "type": "event"
    },
    {
      "anonymous": false,
      "inputs": [
        {
          "indexed": true,
          "internalType": "address",
          "name": "_user",
          "type": "address"
        },
        {
          "indexed": true,
          "internalType": "uint256",
          "name": "_id",
          "type": "uint256"
        },
        {
          "indexed": false,
          "internalType": "uint256",
          "name": "_lpAmount",
          "type": "uint256"
        },
        {
          "indexed": false,
          "internalType": "uint256",
          "name": "_lpAmountTransferred",
          "type": "uint256"
        },
        {
          "indexed": false,
          "internalType": "uint256",
          "name": "_lprewards",
          "type": "uint256"
        },
        {
          "indexed": false,
          "internalType": "uint256",
          "name": "_bondingShareAmount",
          "type": "uint256"
        }
      ],
      "name": "RemoveLiquidityFromBond",
      "type": "event"
    },
    {
      "anonymous": false,
      "inputs": [
        {
          "indexed": false,
          "internalType": "address",
          "name": "account",
          "type": "address"
        }
      ],
      "name": "Unpaused",
      "type": "event"
    },
    {
      "inputs": [],
      "name": "ETH_ADDRESS",
      "outputs": [
        {
          "internalType": "address",
          "name": "",
          "type": "address"
        }
      ],
      "stateMutability": "view",
      "type": "function"
    },
    {
      "inputs": [],
      "name": "ONE",
      "outputs": [
        {
          "internalType": "uint256",
          "name": "",
          "type": "uint256"
        }
      ],
      "stateMutability": "view",
      "type": "function"
    },
    {
      "inputs": [],
      "name": "accLpRewardPerShare",
      "outputs": [
        {
          "internalType": "uint256",
          "name": "",
          "type": "uint256"
        }
      ],
      "stateMutability": "view",
      "type": "function"
    },
    {
      "inputs": [
        {
          "internalType": "uint256",
          "name": "_amount",
          "type": "uint256"
        },
        {
          "internalType": "uint256",
          "name": "_id",
          "type": "uint256"
        },
        {
          "internalType": "uint256",
          "name": "_weeks",
          "type": "uint256"
        }
      ],
      "name": "addLiquidity",
      "outputs": [],
      "stateMutability": "nonpayable",
      "type": "function"
    },
    {
      "inputs": [
        {
          "internalType": "address",
          "name": "_token",
          "type": "address"
        }
      ],
      "name": "addProtocolToken",
      "outputs": [],
      "stateMutability": "nonpayable",
      "type": "function"
    },
    {
      "inputs": [
        {
          "internalType": "address",
          "name": "_original",
          "type": "address"
        },
        {
          "internalType": "uint256",
          "name": "_lpBalance",
          "type": "uint256"
        },
        {
          "internalType": "uint256",
          "name": "_weeks",
          "type": "uint256"
        }
      ],
      "name": "addUserToMigrate",
      "outputs": [],
      "stateMutability": "nonpayable",
      "type": "function"
    },
    {
      "inputs": [],
      "name": "blockCountInAWeek",
      "outputs": [
        {
          "internalType": "uint256",
          "name": "",
          "type": "uint256"
        }
      ],
      "stateMutability": "view",
      "type": "function"
    },
    {
      "inputs": [],
      "name": "bondingDiscountMultiplier",
      "outputs": [
        {
          "internalType": "uint256",
          "name": "",
          "type": "uint256"
        }
      ],
      "stateMutability": "view",
      "type": "function"
    },
    {
      "inputs": [],
      "name": "bondingFormulasAddress",
      "outputs": [
        {
          "internalType": "address",
          "name": "",
          "type": "address"
        }
      ],
      "stateMutability": "view",
      "type": "function"
    },
    {
      "inputs": [
        {
          "internalType": "uint256",
          "name": "amount",
          "type": "uint256"
        }
      ],
      "name": "crvPriceReset",
      "outputs": [],
      "stateMutability": "nonpayable",
      "type": "function"
    },
    {
      "inputs": [],
      "name": "currentShareValue",
      "outputs": [
        {
          "internalType": "uint256",
          "name": "priceShare",
          "type": "uint256"
        }
      ],
      "stateMutability": "view",
      "type": "function"
    },
    {
      "inputs": [],
      "name": "data",
      "outputs": [
        {
          "internalType": "bytes",
          "name": "",
          "type": "bytes"
        }
      ],
      "stateMutability": "view",
      "type": "function"
    },
    {
      "inputs": [
        {
          "internalType": "uint256",
          "name": "_lpsAmount",
          "type": "uint256"
        },
        {
          "internalType": "uint256",
          "name": "_weeks",
          "type": "uint256"
        }
      ],
      "name": "deposit",
      "outputs": [
        {
          "internalType": "uint256",
          "name": "_id",
          "type": "uint256"
        }
      ],
      "stateMutability": "nonpayable",
      "type": "function"
    },
    {
      "inputs": [
        {
          "internalType": "uint256",
          "name": "amount",
          "type": "uint256"
        },
        {
          "internalType": "uint256",
          "name": "lpRewardDebt",
          "type": "uint256"
        }
      ],
      "name": "lpRewardForShares",
      "outputs": [
        {
          "internalType": "uint256",
          "name": "pendingLpReward",
          "type": "uint256"
        }
      ],
      "stateMutability": "view",
      "type": "function"
    },
    {
      "inputs": [],
      "name": "lpRewards",
      "outputs": [
        {
          "internalType": "uint256",
          "name": "",
          "type": "uint256"
        }
      ],
      "stateMutability": "view",
      "type": "function"
    },
    {
      "inputs": [],
      "name": "manager",
      "outputs": [
        {
          "internalType": "contract UbiquityAlgorithmicDollarManager",
          "name": "",
          "type": "address"
        }
      ],
      "stateMutability": "view",
      "type": "function"
    },
    {
      "inputs": [],
      "name": "migrate",
      "outputs": [
        {
          "internalType": "uint256",
          "name": "_id",
          "type": "uint256"
        }
      ],
      "stateMutability": "nonpayable",
      "type": "function"
    },
    {
      "inputs": [],
      "name": "migrating",
      "outputs": [
        {
          "internalType": "bool",
          "name": "",
          "type": "bool"
        }
      ],
      "stateMutability": "view",
      "type": "function"
    },
    {
      "inputs": [],
      "name": "migrator",
      "outputs": [
        {
          "internalType": "address",
          "name": "",
          "type": "address"
        }
      ],
      "stateMutability": "view",
      "type": "function"
    },
    {
      "inputs": [],
      "name": "pause",
      "outputs": [],
      "stateMutability": "nonpayable",
      "type": "function"
    },
    {
      "inputs": [],
      "name": "paused",
      "outputs": [
        {
          "internalType": "bool",
          "name": "",
          "type": "bool"
        }
      ],
      "stateMutability": "view",
      "type": "function"
    },
    {
      "inputs": [
        {
          "internalType": "uint256",
          "name": "_id",
          "type": "uint256"
        }
      ],
      "name": "pendingLpRewards",
      "outputs": [
        {
          "internalType": "uint256",
          "name": "",
          "type": "uint256"
        }
      ],
      "stateMutability": "view",
      "type": "function"
    },
    {
      "inputs": [
        {
          "internalType": "uint256",
          "name": "_amount",
          "type": "uint256"
        },
        {
          "internalType": "uint256",
          "name": "_id",
          "type": "uint256"
        }
      ],
      "name": "removeLiquidity",
      "outputs": [],
      "stateMutability": "nonpayable",
      "type": "function"
    },
    {
      "inputs": [
        {
          "internalType": "address",
          "name": "_token",
          "type": "address"
        }
      ],
      "name": "removeProtocolToken",
      "outputs": [],
      "stateMutability": "nonpayable",
      "type": "function"
    },
    {
      "inputs": [
        {
          "internalType": "address",
          "name": "_to",
          "type": "address"
        },
        {
          "internalType": "address",
          "name": "_token",
          "type": "address"
        },
        {
          "internalType": "uint256",
          "name": "_amount",
          "type": "uint256"
        }
      ],
      "name": "sendDust",
      "outputs": [],
      "stateMutability": "nonpayable",
      "type": "function"
    },
    {
      "inputs": [
        {
          "internalType": "uint256",
          "name": "_blockCountInAWeek",
          "type": "uint256"
        }
      ],
      "name": "setBlockCountInAWeek",
      "outputs": [],
      "stateMutability": "nonpayable",
      "type": "function"
    },
    {
      "inputs": [
        {
          "internalType": "uint256",
          "name": "_bondingDiscountMultiplier",
          "type": "uint256"
        }
      ],
      "name": "setBondingDiscountMultiplier",
      "outputs": [],
      "stateMutability": "nonpayable",
      "type": "function"
    },
    {
      "inputs": [
        {
          "internalType": "address",
          "name": "_bondingFormulasAddress",
          "type": "address"
        }
      ],
      "name": "setBondingFormulasAddress",
      "outputs": [],
      "stateMutability": "nonpayable",
      "type": "function"
    },
    {
      "inputs": [
        {
          "internalType": "bool",
          "name": "_migrating",
          "type": "bool"
        }
      ],
      "name": "setMigrating",
      "outputs": [],
      "stateMutability": "nonpayable",
      "type": "function"
    },
    {
      "inputs": [
        {
          "internalType": "address",
          "name": "_migrator",
          "type": "address"
        }
      ],
      "name": "setMigrator",
      "outputs": [],
      "stateMutability": "nonpayable",
      "type": "function"
    },
    {
      "inputs": [
        {
          "internalType": "address",
          "name": "",
          "type": "address"
        }
      ],
      "name": "toMigrateId",
      "outputs": [
        {
          "internalType": "uint256",
          "name": "",
          "type": "uint256"
        }
      ],
      "stateMutability": "view",
      "type": "function"
    },
    {
      "inputs": [],
      "name": "totalLpToMigrate",
      "outputs": [
        {
          "internalType": "uint256",
          "name": "",
          "type": "uint256"
        }
      ],
      "stateMutability": "view",
      "type": "function"
    },
    {
      "inputs": [
        {
          "internalType": "uint256",
          "name": "amount",
          "type": "uint256"
        }
      ],
      "name": "uADPriceReset",
      "outputs": [],
      "stateMutability": "nonpayable",
      "type": "function"
    },
    {
      "inputs": [],
      "name": "unpause",
      "outputs": [],
      "stateMutability": "nonpayable",
      "type": "function"
    },
    {
      "stateMutability": "payable",
      "type": "receive"
    }
  ],
  "bytecode": {
    "object": "0x60a0604052600060809081526003906200001a908262000403565b5066038d7ea4c6800060055561b13160065560006007556010805460ff191690553480156200004857600080fd5b5060405162006527380380620065278339810160408190526200006b91620005b8565b6002805460ff19169055600480546001600160a01b038088166001600160a01b031992831617909255600a805492871692821692909217909155600b805490911633179055825180620001055760405162461bcd60e51b815260206004820152601360248201527f6164647265737320617272617920656d7074790000000000000000000000000060448201526064015b60405180910390fd5b82518114620001575760405162461bcd60e51b815260206004820152601e60248201527f62616c616e636573206172726179206e6f742073616d65206c656e67746800006044820152606401620000fc565b81518114620001a95760405162461bcd60e51b815260206004820152601b60248201527f7765656b73206172726179206e6f742073616d65206c656e67746800000000006044820152606401620000fc565b8351620001be90600c9060208701906200029f565b508251620001d490600d90602086019062000309565b508151620001ea90600e90602085019062000309565b5060005b81811015620002925762000204816001620006ec565b600f60008784815181106200021d576200021d62000708565b60200260200101516001600160a01b03166001600160a01b03168152602001908152602001600020819055508381815181106200025e576200025e62000708565b602002602001015160096000828254620002799190620006ec565b909155506200028a9050816200071e565b9050620001ee565b505050505050506200073a565b828054828255906000526020600020908101928215620002f7579160200282015b82811115620002f757825182546001600160a01b0319166001600160a01b03909116178255602090920191600190910190620002c0565b506200030592915062000347565b5090565b828054828255906000526020600020908101928215620002f7579160200282015b82811115620002f75782518255916020019190600101906200032a565b5b8082111562000305576000815560010162000348565b634e487b7160e01b600052604160045260246000fd5b600181811c908216806200038957607f821691505b602082108103620003aa57634e487b7160e01b600052602260045260246000fd5b50919050565b601f821115620003fe57600081815260208120601f850160051c81016020861015620003d95750805b601f850160051c820191505b81811015620003fa57828155600101620003e5565b5050505b505050565b81516001600160401b038111156200041f576200041f6200035e565b620004378162000430845462000374565b84620003b0565b602080601f8311600181146200046f5760008415620004565750858301515b600019600386901b1c1916600185901b178555620003fa565b600085815260208120601f198616915b82811015620004a0578886015182559484019460019091019084016200047f565b5085821015620004bf5787850151600019600388901b60f8161c191681555b5050505050600190811b01905550565b80516001600160a01b0381168114620004e757600080fd5b919050565b604051601f8201601f191681016001600160401b03811182821017156200051757620005176200035e565b604052919050565b60006001600160401b038211156200053b576200053b6200035e565b5060051b60200190565b600082601f8301126200055757600080fd5b81516020620005706200056a836200051f565b620004ec565b82815260059290921b840181019181810190868411156200059057600080fd5b8286015b84811015620005ad578051835291830191830162000594565b509695505050505050565b600080600080600060a08688031215620005d157600080fd5b620005dc86620004cf565b94506020620005ed818801620004cf565b60408801519095506001600160401b03808211156200060b57600080fd5b818901915089601f8301126200062057600080fd5b8151620006316200056a826200051f565b81815260059190911b8301840190848101908c8311156200065157600080fd5b938501935b828510156200067a576200066a85620004cf565b8252938501939085019062000656565b60608c015190985094505050808311156200069457600080fd5b620006a28a848b0162000545565b94506080890151925080831115620006b957600080fd5b5050620006c98882890162000545565b9150509295509295909350565b634e487b7160e01b600052601160045260246000fd5b80820180821115620007025762000702620006d6565b92915050565b634e487b7160e01b600052603260045260246000fd5b600060018201620007335762000733620006d6565b5060010190565b615ddd806200074a6000396000f3fe60806040526004361061021d5760003560e01c80638f88f38d1161011d578063bf0d68e4116100b0578063dc0c00c41161007f578063f785f03d11610064578063f785f03d146105e0578063f941717d14610600578063fa3305c91461062d57600080fd5b8063dc0c00c4146105a0578063e2bbb158146105c057600080fd5b8063bf0d68e414610524578063c2ee3a0814610544578063c5d1cb6314610560578063cd6c212b1461058057600080fd5b8063a734f06e116100ec578063a734f06e146104b1578063aa1ec70a146104d9578063aadc68a5146104ef578063b167d4ea1461050457600080fd5b80638f88f38d146104465780638fd3ab801461045c5780639d7de6b314610471578063a194bcde1461049157600080fd5b8063481c6a75116101b057806365566d651161017f5780637cc6bd41116101645780637cc6bd41146103f15780637cd07e47146104115780638456cb591461043157600080fd5b806365566d65146103b957806373d4a13a146103cf57600080fd5b8063481c6a751461031f5780634956cf1c1461035757806352159150146103815780635c975abb146103a157600080fd5b80632f72589e116101ec5780632f72589e146102aa5780633b1ba367146102ca5780633f4ba83a146102ea578063422f1043146102ff57600080fd5b80630c76214114610229578063118c03ec1461025257806323cf3118146102685780632db8c1291461028a57600080fd5b3661022457005b600080fd5b34801561023557600080fd5b5061023f60085481565b6040519081526020015b60405180910390f35b34801561025e57600080fd5b5061023f60095481565b34801561027457600080fd5b5061028861028336600461585b565b61064d565b005b34801561029657600080fd5b506102886102a536600461587f565b6106e6565b3480156102b657600080fd5b506102886102c53660046158c0565b61084e565b3480156102d657600080fd5b506102886102e53660046158c0565b6109e2565b3480156102f657600080fd5b5061028861105f565b34801561030b57600080fd5b5061028861031a3660046158d9565b6111c1565b34801561032b57600080fd5b5060045461033f906001600160a01b031681565b6040516001600160a01b039091168152602001610249565b34801561036357600080fd5b506010546103719060ff1681565b6040519015158152602001610249565b34801561038d57600080fd5b5061023f61039c3660046158c0565b611947565b3480156103ad57600080fd5b5060025460ff16610371565b3480156103c557600080fd5b5061023f60075481565b3480156103db57600080fd5b506103e4611e97565b6040516102499190615973565b3480156103fd57600080fd5b5061028861040c3660046158c0565b611f25565b34801561041d57600080fd5b50600b5461033f906001600160a01b031681565b34801561043d57600080fd5b50610288612550565b34801561045257600080fd5b5061023f60055481565b34801561046857600080fd5b5061023f6126b0565b34801561047d57600080fd5b5061028861048c366004615986565b6127f3565b34801561049d57600080fd5b506102886104ac3660046158c0565b6130c4565b3480156104bd57600080fd5b5061033f73eeeeeeeeeeeeeeeeeeeeeeeeeeeeeeeeeeeeeeee81565b3480156104e557600080fd5b5061023f60065481565b3480156104fb57600080fd5b5061023f613251565b34801561051057600080fd5b5061028861051f3660046159a8565b61352a565b34801561053057600080fd5b5061028861053f36600461585b565b61367d565b34801561055057600080fd5b5061023f670de0b6b3a764000081565b34801561056c57600080fd5b5061023f61057b366004615986565b6137e1565b34801561058c57600080fd5b50600a5461033f906001600160a01b031681565b3480156105ac57600080fd5b506102886105bb36600461585b565b61381e565b3480156105cc57600080fd5b5061023f6105db366004615986565b6139b0565b3480156105ec57600080fd5b506102886105fb3660046159eb565b613dfd565b34801561060c57600080fd5b5061023f61061b36600461585b565b600f6020526000908152604090205481565b34801561063957600080fd5b5061028861064836600461585b565b613e88565b600b546001600160a01b031633146106ac5760405162461bcd60e51b815260206004820152600c60248201527f6e6f74206d69677261746f72000000000000000000000000000000000000000060448201526064015b60405180910390fd5b600b80547fffffffffffffffffffffffff0000000000000000000000000000000000000000166001600160a01b0392909216919091179055565b60048054604080517fe6c7354000000000000000000000000000000000000000000000000000000000815290516001600160a01b03909216926391d1485492849263e6c7354092818101926020929091908290030181865afa158015610750573d6000803e3d6000fd5b505050506040513d601f19601f820116820180604052508101906107749190615a08565b6040517fffffffff0000000000000000000000000000000000000000000000000000000060e084901b1681526004810191909152336024820152604401602060405180830381865afa1580156107ce573d6000803e3d6000fd5b505050506040513d601f19601f820116820180604052508101906107f29190615a21565b61083e5760405162461bcd60e51b815260206004820152600b60248201527f6e6f74206d616e6167657200000000000000000000000000000000000000000060448201526064016106a3565b610849838383613fe9565b505050565b60048054604080517fe6c7354000000000000000000000000000000000000000000000000000000000815290516001600160a01b03909216926391d1485492849263e6c7354092818101926020929091908290030181865afa1580156108b8573d6000803e3d6000fd5b505050506040513d601f19601f820116820180604052508101906108dc9190615a08565b6040517fffffffff0000000000000000000000000000000000000000000000000000000060e084901b1681526004810191909152336024820152604401602060405180830381865afa158015610936573d6000803e3d6000fd5b505050506040513d601f19601f8201168201806040525081019061095a9190615a21565b6109a65760405162461bcd60e51b815260206004820152600b60248201527f6e6f74206d616e6167657200000000000000000000000000000000000000000060448201526064016106a3565b60068190556040518181527f3a1c0b7d3cdecbab83b82697d51cbcdb308b3bbae63e597cbc958deb9c830e50906020015b60405180910390a150565b60048054604080517fe6c7354000000000000000000000000000000000000000000000000000000000815290516001600160a01b03909216926391d1485492849263e6c7354092818101926020929091908290030181865afa158015610a4c573d6000803e3d6000fd5b505050506040513d601f19601f82011682018060405250810190610a709190615a08565b6040517fffffffff0000000000000000000000000000000000000000000000000000000060e084901b1681526004810191909152336024820152604401602060405180830381865afa158015610aca573d6000803e3d6000fd5b505050506040513d601f19601f82011682018060405250810190610aee9190615a21565b610b3a5760405162461bcd60e51b815260206004820152600b60248201527f6e6f74206d616e6167657200000000000000000000000000000000000000000060448201526064016106a3565b6000600460009054906101000a90046001600160a01b03166001600160a01b031663d3815fb96040518163ffffffff1660e01b8152600401602060405180830381865afa158015610b8f573d6000803e3d6000fd5b505050506040513d601f19601f82011682018060405250810190610bb39190615a3e565b6040517f1a4d01d200000000000000000000000000000000000000000000000000000000815260048101849052600060248201819052604482018190529192506001600160a01b03831690631a4d01d2906064016020604051808303816000875af1158015610c26573d6000803e3d6000fd5b505050506040513d601f19601f82011682018060405250810190610c4a9190615a08565b9050600460009054906101000a90046001600160a01b03166001600160a01b0316638fe636836040518163ffffffff1660e01b8152600401602060405180830381865afa158015610c9f573d6000803e3d6000fd5b505050506040513d601f19601f82011682018060405250810190610cc39190615a3e565b6001600160a01b031663a2e620456040518163ffffffff1660e01b8152600401600060405180830381600087803b158015610cfd57600080fd5b505af1158015610d11573d6000803e3d6000fd5b505050506000600460009054906101000a90046001600160a01b03166001600160a01b031663bc3ea0186040518163ffffffff1660e01b8152600401602060405180830381865afa158015610d6a573d6000803e3d6000fd5b505050506040513d601f19601f82011682018060405250810190610d8e9190615a3e565b6040517f70a082310000000000000000000000000000000000000000000000000000000081523060048201526001600160a01b0391909116906370a0823190602401602060405180830381865afa158015610ded573d6000803e3d6000fd5b505050506040513d601f19601f82011682018060405250810190610e119190615a08565b9050600460009054906101000a90046001600160a01b03166001600160a01b031663bc3ea0186040518163ffffffff1660e01b8152600401602060405180830381865afa158015610e66573d6000803e3d6000fd5b505050506040513d601f19601f82011682018060405250810190610e8a9190615a3e565b6001600160a01b031663a9059cbb600460009054906101000a90046001600160a01b03166001600160a01b031663c5f956af6040518163ffffffff1660e01b8152600401602060405180830381865afa158015610eeb573d6000803e3d6000fd5b505050506040513d601f19601f82011682018060405250810190610f0f9190615a3e565b6040517fffffffff0000000000000000000000000000000000000000000000000000000060e084901b1681526001600160a01b039091166004820152602481018490526044016020604051808303816000875af1158015610f74573d6000803e3d6000fd5b505050506040513d601f19601f82011682018060405250810190610f989190615a21565b507f621af463096d58966fa48f497088db472e960b9f399d8cbf787ec0f7d2253365600460009054906101000a90046001600160a01b03166001600160a01b031663bc3ea0186040518163ffffffff1660e01b8152600401602060405180830381865afa15801561100d573d6000803e3d6000fd5b505050506040513d601f19601f820116820180604052508101906110319190615a3e565b604080516001600160a01b03909216825260208201859052810183905260600160405180910390a150505050565b60048054604080517fe63ab1e900000000000000000000000000000000000000000000000000000000815290516001600160a01b03909216926391d1485492849263e63ab1e992818101926020929091908290030181865afa1580156110c9573d6000803e3d6000fd5b505050506040513d601f19601f820116820180604052508101906110ed9190615a08565b6040517fffffffff0000000000000000000000000000000000000000000000000000000060e084901b1681526004810191909152336024820152604401602060405180830381865afa158015611147573d6000803e3d6000fd5b505050506040513d601f19601f8201168201806040525081019061116b9190615a21565b6111b75760405162461bcd60e51b815260206004820152600a60248201527f6e6f74207061757365720000000000000000000000000000000000000000000060448201526064016106a3565b6111bf6141b3565b565b6111c9614223565b6000806111d584614276565b815191935091506111e4614763565b60006111f48284606001516137e1565b9050306001600160a01b031663cd6c212b6040518163ffffffff1660e01b8152600401602060405180830381865afa158015611234573d6000803e3d6000fd5b505050506040513d601f19601f820116820180604052508101906112589190615a3e565b6001600160a01b031663d5a8cf648486846040518463ffffffff1660e01b815260040161128793929190615a8a565b602060405180830381865afa1580156112a4573d6000803e3d6000fd5b505050506040513d601f19601f820116820180604052508101906112c89190615a08565b9050808360a0018181516112dc9190615b39565b905250600880548291906000906112f4908490615b4c565b92505081905550611389333089600460009054906101000a90046001600160a01b03166001600160a01b031663d3815fb96040518163ffffffff1660e01b8152600401602060405180830381865afa158015611354573d6000803e3d6000fd5b505050506040513d601f19601f820116820180604052508101906113789190615a3e565b6001600160a01b0316929190614b06565b868360a00181815161139b9190615b39565b90525060048054604080517f221e2e6000000000000000000000000000000000000000000000000000000000815290516001600160a01b039092169263221e2e609282820192602092908290030181865afa1580156113fe573d6000803e3d6000fd5b505050506040513d601f19601f820116820180604052508101906114229190615a3e565b6040517fb5c5f67200000000000000000000000000000000000000000000000000000000815233600482015260248101849052604481018890526001600160a01b03919091169063b5c5f67290606401600060405180830381600087803b15801561148c57600080fd5b505af11580156114a0573d6000803e3d6000fd5b505050506000600460009054906101000a90046001600160a01b03166001600160a01b031663214f78826040518163ffffffff1660e01b8152600401602060405180830381865afa1580156114f9573d6000803e3d6000fd5b505050506040513d601f19601f8201168201806040525081019061151d9190615a3e565b60a08501516005546040517f5b374a4000000000000000000000000000000000000000000000000000000000815260048101929092526024820189905260448201526001600160a01b039190911690635b374a4090606401602060405180830381865afa158015611592573d6000803e3d6000fd5b505050506040513d601f19601f820116820180604052508101906115b69190615a08565b9050600460009054906101000a90046001600160a01b03166001600160a01b031663221e2e606040518163ffffffff1660e01b8152600401602060405180830381865afa15801561160b573d6000803e3d6000fd5b505050506040513d601f19601f8201168201806040525081019061162f9190615a3e565b6040517f0efe6a8b00000000000000000000000000000000000000000000000000000000815233600482015260248101839052604481018990526001600160a01b039190911690630efe6a8b90606401600060405180830381600087803b15801561169957600080fd5b505af11580156116ad573d6000803e3d6000fd5b50505050600654866116bf9190615b5f565b6116c99043615b39565b60808501526116d6614763565b64e8d4a51000600754600460009054906101000a90046001600160a01b03166001600160a01b031663221e2e606040518163ffffffff1660e01b8152600401602060405180830381865afa158015611732573d6000803e3d6000fd5b505050506040513d601f19601f820116820180604052508101906117569190615a3e565b6001600160a01b0316637b80a5c08a6040518263ffffffff1660e01b815260040161178391815260200190565b6040805180830381865afa15801561179f573d6000803e3d6000fd5b505050506040513d601f19601f820116820180604052508101906117c39190615bcb565b516117ce9190615b5f565b6117d89190615c4b565b606085015260048054604080517fc431e83c00000000000000000000000000000000000000000000000000000000815290516001600160a01b039092169263c431e83c9282820192602092908290030181865afa15801561183d573d6000803e3d6000fd5b505050506040513d601f19601f820116820180604052508101906118619190615a3e565b60a0850151606086015160808701516040517fa7573cea000000000000000000000000000000000000000000000000000000008152600481018c90526024810193909352604483019190915260648201526001600160a01b03919091169063a7573cea90608401600060405180830381600087803b1580156118e257600080fd5b505af11580156118f6573d6000803e3d6000fd5b50505060a0850151604080519182526020820184905289925033917f4419681a20e94d59aaa91e563559dc52e7fb9ec1540b072ce92014f31961ce0091015b60405180910390a35050505050505050565b60048054604080517fc431e83c000000000000000000000000000000000000000000000000000000008152905160009384936001600160a01b03169263c431e83c92818301926020928290030181865afa1580156119a9573d6000803e3d6000fd5b505050506040513d601f19601f820116820180604052508101906119cd9190615a3e565b6040517fd8fe7642000000000000000000000000000000000000000000000000000000008152600481018590529091506000906001600160a01b0383169063d8fe76429060240160c060405180830381865afa158015611a31573d6000803e3d6000fd5b505050506040513d601f19601f82011682018060405250810190611a559190615c86565b90506000600460009054906101000a90046001600160a01b03166001600160a01b031663221e2e606040518163ffffffff1660e01b8152600401602060405180830381865afa158015611aac573d6000803e3d6000fd5b505050506040513d601f19601f82011682018060405250810190611ad09190615a3e565b6001600160a01b0316637b80a5c0866040518263ffffffff1660e01b8152600401611afd91815260200190565b6040805180830381865afa158015611b19573d6000803e3d6000fd5b505050506040513d601f19601f82011682018060405250810190611b3d9190615bcb565b90506000600460009054906101000a90046001600160a01b03166001600160a01b031663d3815fb96040518163ffffffff1660e01b8152600401602060405180830381865afa158015611b94573d6000803e3d6000fd5b505050506040513d601f19601f82011682018060405250810190611bb89190615a3e565b6040517f70a082310000000000000000000000000000000000000000000000000000000081523060048201526001600160a01b0391909116906370a0823190602401602060405180830381865afa158015611c17573d6000803e3d6000fd5b505050506040513d601f19601f82011682018060405250810190611c3b9190615a08565b9050600954846001600160a01b031663132c4feb6040518163ffffffff1660e01b8152600401602060405180830381865afa158015611c7e573d6000803e3d6000fd5b505050506040513d601f19601f82011682018060405250810190611ca29190615a08565b611cac9190615b39565b8110611e8b576000600954856001600160a01b031663132c4feb6040518163ffffffff1660e01b8152600401602060405180830381865afa158015611cf5573d6000803e3d6000fd5b505050506040513d601f19601f82011682018060405250810190611d199190615a08565b611d239190615b39565b611d2d9083615b4c565b60075460085491925090821115611e5257600060085483611d4e9190615b4c565b9050600460009054906101000a90046001600160a01b03166001600160a01b031663221e2e606040518163ffffffff1660e01b8152600401602060405180830381865afa158015611da3573d6000803e3d6000fd5b505050506040513d601f19601f82011682018060405250810190611dc79190615a3e565b6001600160a01b0316633a98ef396040518163ffffffff1660e01b8152600401602060405180830381865afa158015611e04573d6000803e3d6000fd5b505050506040513d601f19601f82011682018060405250810190611e289190615a08565b611e378264e8d4a51000615b5f565b611e419190615c4b565b600754611e4e9190615b39565b9150505b6060850151845164e8d4a5100090611e6b908490615b5f565b611e759190615c4b565b611e7f9190615b4c565b98975050505050505050565b50600095945050505050565b60038054611ea490615d09565b80601f0160208091040260200160405190810160405280929190818152602001828054611ed090615d09565b8015611f1d5780601f10611ef257610100808354040283529160200191611f1d565b820191906000526020600020905b815481529060010190602001808311611f0057829003601f168201915b505050505081565b60048054604080517fe6c7354000000000000000000000000000000000000000000000000000000000815290516001600160a01b03909216926391d1485492849263e6c7354092818101926020929091908290030181865afa158015611f8f573d6000803e3d6000fd5b505050506040513d601f19601f82011682018060405250810190611fb39190615a08565b6040517fffffffff0000000000000000000000000000000000000000000000000000000060e084901b1681526004810191909152336024820152604401602060405180830381865afa15801561200d573d6000803e3d6000fd5b505050506040513d601f19601f820116820180604052508101906120319190615a21565b61207d5760405162461bcd60e51b815260206004820152600b60248201527f6e6f74206d616e6167657200000000000000000000000000000000000000000060448201526064016106a3565b6000600460009054906101000a90046001600160a01b03166001600160a01b031663d3815fb96040518163ffffffff1660e01b8152600401602060405180830381865afa1580156120d2573d6000803e3d6000fd5b505050506040513d601f19601f820116820180604052508101906120f69190615a3e565b6040517f1a4d01d200000000000000000000000000000000000000000000000000000000815260048101849052600160248201526000604482018190529192506001600160a01b03831690631a4d01d2906064016020604051808303816000875af1158015612169573d6000803e3d6000fd5b505050506040513d601f19601f8201168201806040525081019061218d9190615a08565b9050600460009054906101000a90046001600160a01b03166001600160a01b0316638fe636836040518163ffffffff1660e01b8152600401602060405180830381865afa1580156121e2573d6000803e3d6000fd5b505050506040513d601f19601f820116820180604052508101906122069190615a3e565b6001600160a01b031663a2e620456040518163ffffffff1660e01b8152600401600060405180830381600087803b15801561224057600080fd5b505af1158015612254573d6000803e3d6000fd5b505050506000600460009054906101000a90046001600160a01b03166001600160a01b031663017df3276040518163ffffffff1660e01b8152600401602060405180830381865afa1580156122ad573d6000803e3d6000fd5b505050506040513d601f19601f820116820180604052508101906122d19190615a3e565b6040517f70a082310000000000000000000000000000000000000000000000000000000081523060048201526001600160a01b0391909116906370a0823190602401602060405180830381865afa158015612330573d6000803e3d6000fd5b505050506040513d601f19601f820116820180604052508101906123549190615a08565b9050600460009054906101000a90046001600160a01b03166001600160a01b031663017df3276040518163ffffffff1660e01b8152600401602060405180830381865afa1580156123a9573d6000803e3d6000fd5b505050506040513d601f19601f820116820180604052508101906123cd9190615a3e565b6001600160a01b031663a9059cbb600460009054906101000a90046001600160a01b03166001600160a01b031663c5f956af6040518163ffffffff1660e01b8152600401602060405180830381865afa15801561242e573d6000803e3d6000fd5b505050506040513d601f19601f820116820180604052508101906124529190615a3e565b6040517fffffffff0000000000000000000000000000000000000000000000000000000060e084901b1681526001600160a01b039091166004820152602481018490526044016020604051808303816000875af11580156124b7573d6000803e3d6000fd5b505050506040513d601f19601f820116820180604052508101906124db9190615a21565b507f621af463096d58966fa48f497088db472e960b9f399d8cbf787ec0f7d2253365600460009054906101000a90046001600160a01b03166001600160a01b031663017df3276040518163ffffffff1660e01b8152600401602060405180830381865afa15801561100d573d6000803e3d6000fd5b60048054604080517fe63ab1e900000000000000000000000000000000000000000000000000000000815290516001600160a01b03909216926391d1485492849263e63ab1e992818101926020929091908290030181865afa1580156125ba573d6000803e3d6000fd5b505050506040513d601f19601f820116820180604052508101906125de9190615a08565b6040517fffffffff0000000000000000000000000000000000000000000000000000000060e084901b1681526004810191909152336024820152604401602060405180830381865afa158015612638573d6000803e3d6000fd5b505050506040513d601f19601f8201168201806040525081019061265c9190615a21565b6126a85760405162461bcd60e51b815260206004820152600a60248201527f6e6f74207061757365720000000000000000000000000000000000000000000060448201526064016106a3565b6111bf614bd5565b60105460009060ff166127055760405162461bcd60e51b815260206004820152601060248201527f6e6f7420696e206d6967726174696f6e0000000000000000000000000000000060448201526064016106a3565b50336000908152600f6020526040902054806127635760405162461bcd60e51b815260206004820152600e60248201527f6e6f74207631206164647265737300000000000000000000000000000000000060448201526064016106a3565b6127ef600c612773600184615b4c565b8154811061278357612783615a5b565b6000918252602090912001546001600160a01b0316600d6127a5600185615b4c565b815481106127b5576127b5615a5b565b9060005260206000200154600e6001856127cf9190615b4c565b815481106127df576127df615a5b565b9060005260206000200154614c30565b5090565b6127fb614223565b60008061280783614276565b91509150838160a00151101561285f5760405162461bcd60e51b815260206004820152601760248201527f426f6e64696e673a20616d6f756e7420746f6f2062696700000000000000000060448201526064016106a3565b6000306001600160a01b031663cd6c212b6040518163ffffffff1660e01b8152600401602060405180830381865afa15801561289f573d6000803e3d6000fd5b505050506040513d601f19601f820116820180604052508101906128c39190615a3e565b6001600160a01b031663629056cb8385886040518463ffffffff1660e01b81526004016128f293929190615a8a565b602060405180830381865afa15801561290f573d6000803e3d6000fd5b505050506040513d601f19601f820116820180604052508101906129339190615a08565b905061293d614763565b82516060830151600091612950916137e1565b9050600460009054906101000a90046001600160a01b03166001600160a01b031663221e2e606040518163ffffffff1660e01b8152600401602060405180830381865afa1580156129a5573d6000803e3d6000fd5b505050506040513d601f19601f820116820180604052508101906129c99190615a3e565b6040517fb5c5f67200000000000000000000000000000000000000000000000000000000815233600482015260248101849052604481018790526001600160a01b03919091169063b5c5f67290606401600060405180830381600087803b158015612a3357600080fd5b505af1158015612a47573d6000803e3d6000fd5b505050506000600460009054906101000a90046001600160a01b03166001600160a01b031663d3815fb96040518163ffffffff1660e01b8152600401602060405180830381865afa158015612aa0573d6000803e3d6000fd5b505050506040513d601f19601f82011682018060405250810190612ac49190615a3e565b9050306001600160a01b031663cd6c212b6040518163ffffffff1660e01b8152600401602060405180830381865afa158015612b04573d6000803e3d6000fd5b505050506040513d601f19601f82011682018060405250810190612b289190615a3e565b6001600160a01b031663a64154f08587856040518463ffffffff1660e01b8152600401612b5793929190615a8a565b602060405180830381865afa158015612b74573d6000803e3d6000fd5b505050506040513d601f19601f82011682018060405250810190612b989190615a08565b91506000306001600160a01b031663cd6c212b6040518163ffffffff1660e01b8152600401602060405180830381865afa158015612bda573d6000803e3d6000fd5b505050506040513d601f19601f82011682018060405250810190612bfe9190615a3e565b6001600160a01b031663a609d912600460009054906101000a90046001600160a01b03166001600160a01b031663c431e83c6040518163ffffffff1660e01b8152600401602060405180830381865afa158015612c5f573d6000803e3d6000fd5b505050506040513d601f19601f82011682018060405250810190612c839190615a3e565b6001600160a01b031663132c4feb6040518163ffffffff1660e01b8152600401602060405180830381865afa158015612cc0573d6000803e3d6000fd5b505050506040513d601f19601f82011682018060405250810190612ce49190615a08565b6008546040517f70a082310000000000000000000000000000000000000000000000000000000081523060048201526001600160a01b038716906370a0823190602401602060405180830381865afa158015612d44573d6000803e3d6000fd5b505050506040513d601f19601f82011682018060405250810190612d689190615a08565b612d729190615b4c565b6040517fffffffff0000000000000000000000000000000000000000000000000000000060e085901b16815260048101929092526024820152604481018b9052606401602060405180830381865afa158015612dd2573d6000803e3d6000fd5b505050506040513d601f19601f82011682018060405250810190612df69190615a08565b90508260086000828254612e0a9190615b4c565b92505081905550878560a001818151612e239190615b4c565b90525060075460048054604080517f221e2e60000000000000000000000000000000000000000000000000000000008152905164e8d4a5100094936001600160a01b039093169263221e2e60928082019260209290918290030181865afa158015612e92573d6000803e3d6000fd5b505050506040513d601f19601f82011682018060405250810190612eb69190615a3e565b6001600160a01b0316637b80a5c08a6040518263ffffffff1660e01b8152600401612ee391815260200190565b6040805180830381865afa158015612eff573d6000803e3d6000fd5b505050506040513d601f19601f82011682018060405250810190612f239190615bcb565b51612f2e9190615b5f565b612f389190615c4b565b606086015260048054604080517fc431e83c00000000000000000000000000000000000000000000000000000000815290516001600160a01b039092169263c431e83c9282820192602092908290030181865afa158015612f9d573d6000803e3d6000fd5b505050506040513d601f19601f82011682018060405250810190612fc19190615a3e565b60a0860151606087015160808801516040517fa7573cea000000000000000000000000000000000000000000000000000000008152600481018c90526024810193909352604483019190915260648201526001600160a01b03919091169063a7573cea90608401600060405180830381600087803b15801561304257600080fd5b505af1158015613056573d6000803e3d6000fd5b5050505061307b33848361306a9190615b39565b6001600160a01b0385169190615041565b604080518981526020810183905290810184905260608101859052879033907fc37eb4d6b54bc2ffba48f4514cb217734c7ecd7c680cd2861e64ca48bc37a95590608001611935565b60048054604080517fe6c7354000000000000000000000000000000000000000000000000000000000815290516001600160a01b03909216926391d1485492849263e6c7354092818101926020929091908290030181865afa15801561312e573d6000803e3d6000fd5b505050506040513d601f19601f820116820180604052508101906131529190615a08565b6040517fffffffff0000000000000000000000000000000000000000000000000000000060e084901b1681526004810191909152336024820152604401602060405180830381865afa1580156131ac573d6000803e3d6000fd5b505050506040513d601f19601f820116820180604052508101906131d09190615a21565b61321c5760405162461bcd60e51b815260206004820152600b60248201527f6e6f74206d616e6167657200000000000000000000000000000000000000000060448201526064016106a3565b60058190556040518181527fd04894175d9fa4e8890c5d32ca8845426912f890c3d8ac5b5a561045892f8995906020016109d7565b60048054604080517f221e2e60000000000000000000000000000000000000000000000000000000008152905160009384936001600160a01b03169263221e2e6092818301926020928290030181865afa1580156132b3573d6000803e3d6000fd5b505050506040513d601f19601f820116820180604052508101906132d79190615a3e565b6001600160a01b0316633a98ef396040518163ffffffff1660e01b8152600401602060405180830381865afa158015613314573d6000803e3d6000fd5b505050506040513d601f19601f820116820180604052508101906133389190615a08565b9050600460009054906101000a90046001600160a01b03166001600160a01b031663214f78826040518163ffffffff1660e01b8152600401602060405180830381865afa15801561338d573d6000803e3d6000fd5b505050506040513d601f19601f820116820180604052508101906133b19190615a3e565b6001600160a01b031663cd324209600460009054906101000a90046001600160a01b03166001600160a01b031663c431e83c6040518163ffffffff1660e01b8152600401602060405180830381865afa158015613412573d6000803e3d6000fd5b505050506040513d601f19601f820116820180604052508101906134369190615a3e565b6001600160a01b031663132c4feb6040518163ffffffff1660e01b8152600401602060405180830381865afa158015613473573d6000803e3d6000fd5b505050506040513d601f19601f820116820180604052508101906134979190615a08565b6040517fffffffff0000000000000000000000000000000000000000000000000000000060e084901b168152600481019190915260248101849052670de0b6b3a76400006044820152606401602060405180830381865afa158015613500573d6000803e3d6000fd5b505050506040513d601f19601f820116820180604052508101906135249190615a08565b91505090565b600b546001600160a01b031633146135845760405162461bcd60e51b815260206004820152600c60248201527f6e6f74206d69677261746f72000000000000000000000000000000000000000060448201526064016106a3565b600c805460018082019092557fdf6966c971051c3d54ec59162606531493a51404a002842f56009d7e5cf4a8c70180547fffffffffffffffffffffffff0000000000000000000000000000000000000000166001600160a01b038616179055600d8054918201815560009081527fd7b6990105719101dabeb77144f2a3385c8033acd3af97e9423a695e81ad1eb59091018390556009805484929061362a908490615b39565b9091555050600e8054600181019091557fbb7b4a454dc3493923482f07822329ed19e8244eff582cc204f8554c3620c3fd015550600c546001600160a01b039091166000908152600f6020526040902055565b60048054604080517fe6c7354000000000000000000000000000000000000000000000000000000000815290516001600160a01b03909216926391d1485492849263e6c7354092818101926020929091908290030181865afa1580156136e7573d6000803e3d6000fd5b505050506040513d601f19601f8201168201806040525081019061370b9190615a08565b6040517fffffffff0000000000000000000000000000000000000000000000000000000060e084901b1681526004810191909152336024820152604401602060405180830381865afa158015613765573d6000803e3d6000fd5b505050506040513d601f19601f820116820180604052508101906137899190615a21565b6137d55760405162461bcd60e51b815260206004820152600b60248201527f6e6f74206d616e6167657200000000000000000000000000000000000000000060448201526064016106a3565b6137de8161508a565b50565b60075460009015613818578164e8d4a51000600754856138019190615b5f565b61380b9190615c4b565b6138159190615b4c565b90505b92915050565b60048054604080517fe6c7354000000000000000000000000000000000000000000000000000000000815290516001600160a01b03909216926391d1485492849263e6c7354092818101926020929091908290030181865afa158015613888573d6000803e3d6000fd5b505050506040513d601f19601f820116820180604052508101906138ac9190615a08565b6040517fffffffff0000000000000000000000000000000000000000000000000000000060e084901b1681526004810191909152336024820152604401602060405180830381865afa158015613906573d6000803e3d6000fd5b505050506040513d601f19601f8201168201806040525081019061392a9190615a21565b6139765760405162461bcd60e51b815260206004820152600b60248201527f6e6f74206d616e6167657200000000000000000000000000000000000000000060448201526064016106a3565b600a80547fffffffffffffffffffffffff0000000000000000000000000000000000000000166001600160a01b0392909216919091179055565b60006139ba614223565b816001111580156139cc575060d08211155b613a3e5760405162461bcd60e51b815260206004820152603160248201527f426f6e64696e673a206475726174696f6e206d7573742062652062657477656560448201527f6e203120616e6420323038207765656b7300000000000000000000000000000060648201526084016106a3565b60048054604080517f8fe6368300000000000000000000000000000000000000000000000000000000815290516001600160a01b0390921692638fe636839282820192602092908290030181865afa158015613a9e573d6000803e3d6000fd5b505050506040513d601f19601f82011682018060405250810190613ac29190615a3e565b6001600160a01b031663a2e620456040518163ffffffff1660e01b8152600401600060405180830381600087803b158015613afc57600080fd5b505af1158015613b10573d6000803e3d6000fd5b50505050613b1c614763565b613b75333085600460009054906101000a90046001600160a01b03166001600160a01b031663d3815fb96040518163ffffffff1660e01b8152600401602060405180830381865afa158015611354573d6000803e3d6000fd5b6000600460009054906101000a90046001600160a01b03166001600160a01b031663214f78826040518163ffffffff1660e01b8152600401602060405180830381865afa158015613bca573d6000803e3d6000fd5b505050506040513d601f19601f82011682018060405250810190613bee9190615a3e565b6005546040517f5b374a40000000000000000000000000000000000000000000000000000000008152600481018790526024810186905260448101919091526001600160a01b039190911690635b374a4090606401602060405180830381865afa158015613c60573d6000803e3d6000fd5b505050506040513d601f19601f82011682018060405250810190613c849190615a08565b9050600060065484613c969190615b5f565b613ca09043615b39565b9050613cae3386848461514c565b9250600460009054906101000a90046001600160a01b03166001600160a01b031663221e2e606040518163ffffffff1660e01b8152600401602060405180830381865afa158015613d03573d6000803e3d6000fd5b505050506040513d601f19601f82011682018060405250810190613d279190615a3e565b6040517f0efe6a8b00000000000000000000000000000000000000000000000000000000815233600482015260248101849052604481018590526001600160a01b039190911690630efe6a8b90606401600060405180830381600087803b158015613d9157600080fd5b505af1158015613da5573d6000803e3d6000fd5b50506040805188815260208101869052908101879052606081018490528592503391507ff943cf10ef4d1e3239f4716ddecdf546e8ba8ab0e41deafd9a71a99936827e459060800160405180910390a3505092915050565b600b546001600160a01b03163314613e575760405162461bcd60e51b815260206004820152600c60248201527f6e6f74206d69677261746f72000000000000000000000000000000000000000060448201526064016106a3565b601080547fffffffffffffffffffffffffffffffffffffffffffffffffffffffffffffff0016911515919091179055565b60048054604080517fe6c7354000000000000000000000000000000000000000000000000000000000815290516001600160a01b03909216926391d1485492849263e6c7354092818101926020929091908290030181865afa158015613ef2573d6000803e3d6000fd5b505050506040513d601f19601f82011682018060405250810190613f169190615a08565b6040517fffffffff0000000000000000000000000000000000000000000000000000000060e084901b1681526004810191909152336024820152604401602060405180830381865afa158015613f70573d6000803e3d6000fd5b505050506040513d601f19601f82011682018060405250810190613f949190615a21565b613fe05760405162461bcd60e51b815260206004820152600b60248201527f6e6f74206d616e6167657200000000000000000000000000000000000000000060448201526064016106a3565b6137de81615311565b6001600160a01b0383166140655760405162461bcd60e51b815260206004820152603060248201527f636f6c6c65637461626c652d647573743a3a63616e742d73656e642d6475737460448201527f2d746f2d7a65726f2d616464726573730000000000000000000000000000000060648201526084016106a3565b6140706000836153d4565b156140e35760405162461bcd60e51b815260206004820152602f60248201527f636f6c6c65637461626c652d647573743a3a746f6b656e2d69732d706172742d60448201527f6f662d7468652d70726f746f636f6c000000000000000000000000000000000060648201526084016106a3565b7fffffffffffffffffffffffff11111111111111111111111111111111111111126001600160a01b0383160161414f576040516001600160a01b0384169082156108fc029083906000818181858888f19350505050158015614149573d6000803e3d6000fd5b50614163565b6141636001600160a01b0383168483615041565b604080516001600160a01b038086168252841660208201529081018290527f1e34c1aee8e83c2dcc14c21bb4bfeea7f46c0c998cb797ac7cc4d7a18f5c656b9060600160405180910390a1505050565b6141bb6153f6565b600280547fffffffffffffffffffffffffffffffffffffffffffffffffffffffffffffff001690557f5db9ee0a495bf2e6ff9c91a7834c1ba4fdd244a5e8aa4e537bd38aeae4b073aa335b6040516001600160a01b03909116815260200160405180910390a1565b60025460ff16156111bf5760405162461bcd60e51b815260206004820152601060248201527f5061757361626c653a207061757365640000000000000000000000000000000060448201526064016106a3565b61427e615828565b6142c06040518060c0016040528060006001600160a01b0316815260200160008152602001600081526020016000815260200160008152602001600081525090565b60048054604080517fc431e83c00000000000000000000000000000000000000000000000000000000815290516001600160a01b039092169263c431e83c9282820192602092908290030181865afa158015614320573d6000803e3d6000fd5b505050506040513d601f19601f820116820180604052508101906143449190615a3e565b6040517efdd58e000000000000000000000000000000000000000000000000000000008152336004820152602481018590526001600160a01b03919091169062fdd58e90604401602060405180830381865afa1580156143a8573d6000803e3d6000fd5b505050506040513d601f19601f820116820180604052508101906143cc9190615a08565b60011461441b5760405162461bcd60e51b815260206004820152601c60248201527f426f6e64696e673a2063616c6c6572206973206e6f74206f776e65720000000060448201526064016106a3565b6000600460009054906101000a90046001600160a01b03166001600160a01b031663c431e83c6040518163ffffffff1660e01b8152600401602060405180830381865afa158015614470573d6000803e3d6000fd5b505050506040513d601f19601f820116820180604052508101906144949190615a3e565b6040517fd8fe7642000000000000000000000000000000000000000000000000000000008152600481018690529091506001600160a01b0382169063d8fe76429060240160c060405180830381865afa1580156144f5573d6000803e3d6000fd5b505050506040513d601f19601f820116820180604052508101906145199190615c86565b9150816080015143116145945760405162461bcd60e51b815260206004820152602f60248201527f426f6e64696e673a2052656465656d206e6f7420616c6c6f776564206265666f60448201527f726520626f6e64696e672074696d65000000000000000000000000000000000060648201526084016106a3565b60048054604080517f8fe6368300000000000000000000000000000000000000000000000000000000815290516001600160a01b0390921692638fe636839282820192602092908290030181865afa1580156145f4573d6000803e3d6000fd5b505050506040513d601f19601f820116820180604052508101906146189190615a3e565b6001600160a01b031663a2e620456040518163ffffffff1660e01b8152600401600060405180830381600087803b15801561465257600080fd5b505af1158015614666573d6000803e3d6000fd5b505060048054604080517f221e2e6000000000000000000000000000000000000000000000000000000000815290516001600160a01b03909216945063221e2e60935080830192602092918290030181865afa1580156146ca573d6000803e3d6000fd5b505050506040513d601f19601f820116820180604052508101906146ee9190615a3e565b6001600160a01b0316637b80a5c0856040518263ffffffff1660e01b815260040161471b91815260200190565b6040805180830381865afa158015614737573d6000803e3d6000fd5b505050506040513d601f19601f8201168201806040525081019061475b9190615bcb565b925050915091565b6000600460009054906101000a90046001600160a01b03166001600160a01b031663c431e83c6040518163ffffffff1660e01b8152600401602060405180830381865afa1580156147b8573d6000803e3d6000fd5b505050506040513d601f19601f820116820180604052508101906147dc9190615a3e565b90506000600460009054906101000a90046001600160a01b03166001600160a01b031663d3815fb96040518163ffffffff1660e01b8152600401602060405180830381865afa158015614833573d6000803e3d6000fd5b505050506040513d601f19601f820116820180604052508101906148579190615a3e565b6040517f70a082310000000000000000000000000000000000000000000000000000000081523060048201526001600160a01b0391909116906370a0823190602401602060405180830381865afa1580156148b6573d6000803e3d6000fd5b505050506040513d601f19601f820116820180604052508101906148da9190615a08565b90506000600460009054906101000a90046001600160a01b03166001600160a01b031663221e2e606040518163ffffffff1660e01b8152600401602060405180830381865afa158015614931573d6000803e3d6000fd5b505050506040513d601f19601f820116820180604052508101906149559190615a3e565b6001600160a01b0316633a98ef396040518163ffffffff1660e01b8152600401602060405180830381865afa158015614992573d6000803e3d6000fd5b505050506040513d601f19601f820116820180604052508101906149b69190615a08565b9050600954836001600160a01b031663132c4feb6040518163ffffffff1660e01b8152600401602060405180830381865afa1580156149f9573d6000803e3d6000fd5b505050506040513d601f19601f82011682018060405250810190614a1d9190615a08565b614a279190615b39565b8210158015614a365750600081115b15610849576000600954846001600160a01b031663132c4feb6040518163ffffffff1660e01b8152600401602060405180830381865afa158015614a7e573d6000803e3d6000fd5b505050506040513d601f19601f82011682018060405250810190614aa29190615a08565b614aac9190615b39565b614ab69084615b4c565b9050600854811115614b00578160085482614ad19190615b4c565b614ae09064e8d4a51000615b5f565b614aea9190615c4b565b600754614af79190615b39565b60075560088190555b50505050565b6040516001600160a01b0380851660248301528316604482015260648101829052614b009085907f23b872dd00000000000000000000000000000000000000000000000000000000906084015b604080517fffffffffffffffffffffffffffffffffffffffffffffffffffffffffffffffe08184030181529190526020810180517bffffffffffffffffffffffffffffffffffffffffffffffffffffffff167fffffffff0000000000000000000000000000000000000000000000000000000090931692909217909152615448565b614bdd614223565b600280547fffffffffffffffffffffffffffffffffffffffffffffffffffffffffffffff001660011790557f62e78cea01bee320cd4e420270b5ea74000d11b0c9f74754ebdbfc544b05a2586142063390565b6001600160a01b0383166000908152600f6020526040812054614c955760405162461bcd60e51b815260206004820152600e60248201527f6e6f74207631206164647265737300000000000000000000000000000000000060448201526064016106a3565b60008311614ce55760405162461bcd60e51b815260206004820152601160248201527f4c5020616d6f756e74206973207a65726f00000000000000000000000000000060448201526064016106a3565b81600111158015614cf7575060d08211155b614d695760405162461bcd60e51b815260206004820152602860248201527f4475726174696f6e206d757374206265206265747765656e203120616e64203260448201527f3038207765656b7300000000000000000000000000000000000000000000000060648201526084016106a3565b6001600160a01b038085166000908152600f602090815260408083208390556004805482517f214f788200000000000000000000000000000000000000000000000000000000815292519495169363214f788293838301939092908290030181865afa158015614ddd573d6000803e3d6000fd5b505050506040513d601f19601f82011682018060405250810190614e019190615a3e565b6005546040517f5b374a40000000000000000000000000000000000000000000000000000000008152600481018790526024810186905260448101919091526001600160a01b039190911690635b374a4090606401602060405180830381865afa158015614e73573d6000803e3d6000fd5b505050506040513d601f19601f82011682018060405250810190614e979190615a08565b9050614ea1614763565b600060065484614eb19190615b5f565b614ebb9043615b39565b9050614ec98686848461514c565b92508460096000828254614edd9190615b4c565b909155505060048054604080517f221e2e6000000000000000000000000000000000000000000000000000000000815290516001600160a01b039092169263221e2e609282820192602092908290030181865afa158015614f42573d6000803e3d6000fd5b505050506040513d601f19601f82011682018060405250810190614f669190615a3e565b6040517f0efe6a8b0000000000000000000000000000000000000000000000000000000081526001600160a01b03888116600483015260248201859052604482018690529190911690630efe6a8b90606401600060405180830381600087803b158015614fd257600080fd5b505af1158015614fe6573d6000803e3d6000fd5b505060408051888152602081018690529081018790528592506001600160a01b03891691507fc8102fa5c0a66c20caa3ebb502aecfcc6e0ea963896d5a14c1bd8c10c456c5539060600160405180910390a350509392505050565b6040516001600160a01b0383166024820152604481018290526108499084907fa9059cbb0000000000000000000000000000000000000000000000000000000090606401614b53565b6150956000826153d4565b6151075760405162461bcd60e51b815260206004820152603060248201527f636f6c6c65637461626c652d647573743a3a746f6b656e2d6e6f742d7061727460448201527f2d6f662d7468652d70726f746f636f6c0000000000000000000000000000000060648201526084016106a3565b61511260008261552d565b506040516001600160a01b03821681527fddd12a8c3ce9bea5c97a5d25c8b777caab85752828f56b7b8ad5a0b30340a25f906020016109d7565b600080615157613251565b9050806000036151cf5760405162461bcd60e51b815260206004820152602760248201527f426f6e64696e673a2073686172652076616c75652073686f756c64206e6f742060448201527f6265206e756c6c0000000000000000000000000000000000000000000000000060648201526084016106a3565b600064e8d4a51000600754866151e59190615b5f565b6151ef9190615c4b565b9050600460009054906101000a90046001600160a01b03166001600160a01b031663c431e83c6040518163ffffffff1660e01b8152600401602060405180830381865afa158015615244573d6000803e3d6000fd5b505050506040513d601f19601f820116820180604052508101906152689190615a3e565b6040517fa647e8ec0000000000000000000000000000000000000000000000000000000081526001600160a01b038981166004830152602482018990526044820184905260648201879052919091169063a647e8ec906084016020604051808303816000875af11580156152e0573d6000803e3d6000fd5b505050506040513d601f19601f820116820180604052508101906153049190615a08565b925050505b949350505050565b61531c6000826153d4565b1561538f5760405162461bcd60e51b815260206004820152602f60248201527f636f6c6c65637461626c652d647573743a3a746f6b656e2d69732d706172742d60448201527f6f662d7468652d70726f746f636f6c000000000000000000000000000000000060648201526084016106a3565b61539a600082615542565b506040516001600160a01b03821681527fa3e4ba856dd0fdee3a33ab9b82499fd01f05236f3d08cc4e7108698c6e3e7e50906020016109d7565b6001600160a01b03811660009081526001830160205260408120541515613815565b60025460ff166111bf5760405162461bcd60e51b815260206004820152601460248201527f5061757361626c653a206e6f742070617573656400000000000000000000000060448201526064016106a3565b600061549d826040518060400160405280602081526020017f5361666545524332303a206c6f772d6c6576656c2063616c6c206661696c6564815250856001600160a01b03166155579092919063ffffffff16565b80519091501561084957808060200190518101906154bb9190615a21565b6108495760405162461bcd60e51b815260206004820152602a60248201527f5361666545524332303a204552433230206f7065726174696f6e20646964206e60448201527f6f7420737563636565640000000000000000000000000000000000000000000060648201526084016106a3565b6000613815836001600160a01b038416615566565b6000613815836001600160a01b038416615659565b606061530984846000856156a8565b6000818152600183016020526040812054801561564f57600061558a600183615b4c565b855490915060009061559e90600190615b4c565b90508181146156035760008660000182815481106155be576155be615a5b565b90600052602060002001549050808760000184815481106155e1576155e1615a5b565b6000918252602080832090910192909255918252600188019052604090208390555b855486908061561457615614615d5c565b600190038181906000526020600020016000905590558560010160008681526020019081526020016000206000905560019350505050613818565b6000915050613818565b60008181526001830160205260408120546156a057508154600181810184556000848152602080822090930184905584548482528286019093526040902091909155613818565b506000613818565b6060824710156157205760405162461bcd60e51b815260206004820152602660248201527f416464726573733a20696e73756666696369656e742062616c616e636520666f60448201527f722063616c6c000000000000000000000000000000000000000000000000000060648201526084016106a3565b600080866001600160a01b0316858760405161573c9190615d8b565b60006040518083038185875af1925050503d8060008114615779576040519150601f19603f3d011682016040523d82523d6000602084013e61577e565b606091505b509150915061530487838387606083156157f95782516000036157f2576001600160a01b0385163b6157f25760405162461bcd60e51b815260206004820152601d60248201527f416464726573733a2063616c6c20746f206e6f6e2d636f6e747261637400000060448201526064016106a3565b5081615309565b615309838381511561580e5781518083602001fd5b8060405162461bcd60e51b81526004016106a39190615973565b60405180604001604052806002906020820280368337509192915050565b6001600160a01b03811681146137de57600080fd5b60006020828403121561586d57600080fd5b813561587881615846565b9392505050565b60008060006060848603121561589457600080fd5b833561589f81615846565b925060208401356158af81615846565b929592945050506040919091013590565b6000602082840312156158d257600080fd5b5035919050565b6000806000606084860312156158ee57600080fd5b505081359360208301359350604090920135919050565b60005b83811015615920578181015183820152602001615908565b50506000910152565b60008151808452615941816020860160208601615905565b601f017fffffffffffffffffffffffffffffffffffffffffffffffffffffffffffffffe0169290920160200192915050565b6020815260006138156020830184615929565b6000806040838503121561599957600080fd5b50508035926020909101359150565b6000806000606084860312156159bd57600080fd5b83356159c881615846565b95602085013595506040909401359392505050565b80151581146137de57600080fd5b6000602082840312156159fd57600080fd5b8135615878816159dd565b600060208284031215615a1a57600080fd5b5051919050565b600060208284031215615a3357600080fd5b8151615878816159dd565b600060208284031215615a5057600080fd5b815161587881615846565b7f4e487b7100000000000000000000000000000000000000000000000000000000600052603260045260246000fd5b6000610120820190506001600160a01b0385511682526020808601518184015260408601516040840152606086015160608401526080860151608084015260a086015160a084015260c083018560005b6002811015615af757815183529183019190830190600101615ada565b5050505082610100830152949350505050565b7f4e487b7100000000000000000000000000000000000000000000000000000000600052601160045260246000fd5b8082018082111561381857613818615b0a565b8181038181111561381857613818615b0a565b6000817fffffffffffffffffffffffffffffffffffffffffffffffffffffffffffffffff0483118215151615615b9757615b97615b0a565b500290565b7f4e487b7100000000000000000000000000000000000000000000000000000000600052604160045260246000fd5b600060408284031215615bdd57600080fd5b82601f830112615bec57600080fd5b6040516040810181811067ffffffffffffffff82111715615c0f57615c0f615b9c565b8060405250806040840185811115615c2657600080fd5b845b81811015615c40578051835260209283019201615c28565b509195945050505050565b600082615c81577f4e487b7100000000000000000000000000000000000000000000000000000000600052601260045260246000fd5b500490565b600060c08284031215615c9857600080fd5b60405160c0810181811067ffffffffffffffff82111715615cbb57615cbb615b9c565b6040528251615cc981615846565b808252506020830151602082015260408301516040820152606083015160608201526080830151608082015260a083015160a08201528091505092915050565b600181811c90821680615d1d57607f821691505b602082108103615d56577f4e487b7100000000000000000000000000000000000000000000000000000000600052602260045260246000fd5b50919050565b7f4e487b7100000000000000000000000000000000000000000000000000000000600052603160045260246000fd5b60008251615d9d818460208701615905565b919091019291505056fea264697066735822122056f0909b85e29a7f2ba9ffef770a5b2f335ecb1ddaa303bf30b39232959854e764736f6c63430008100033",
    "linkReferences": {}
  },
  "methodIdentifiers": {
    "ETH_ADDRESS()": "a734f06e",
    "ONE()": "c2ee3a08",
    "accLpRewardPerShare()": "65566d65",
    "addLiquidity(uint256,uint256,uint256)": "422f1043",
    "addProtocolToken(address)": "fa3305c9",
    "addUserToMigrate(address,uint256,uint256)": "b167d4ea",
    "blockCountInAWeek()": "aa1ec70a",
    "bondingDiscountMultiplier()": "8f88f38d",
    "bondingFormulasAddress()": "cd6c212b",
    "crvPriceReset(uint256)": "7cc6bd41",
    "currentShareValue()": "aadc68a5",
    "data()": "73d4a13a",
    "deposit(uint256,uint256)": "e2bbb158",
    "lpRewardForShares(uint256,uint256)": "c5d1cb63",
    "lpRewards()": "0c762141",
    "manager()": "481c6a75",
    "migrate()": "8fd3ab80",
    "migrating()": "4956cf1c",
    "migrator()": "7cd07e47",
    "pause()": "8456cb59",
    "paused()": "5c975abb",
    "pendingLpRewards(uint256)": "52159150",
    "removeLiquidity(uint256,uint256)": "9d7de6b3",
    "removeProtocolToken(address)": "bf0d68e4",
    "sendDust(address,address,uint256)": "2db8c129",
    "setBlockCountInAWeek(uint256)": "2f72589e",
    "setBondingDiscountMultiplier(uint256)": "a194bcde",
    "setBondingFormulasAddress(address)": "dc0c00c4",
    "setMigrating(bool)": "f785f03d",
    "setMigrator(address)": "23cf3118",
    "toMigrateId(address)": "f941717d",
    "totalLpToMigrate()": "118c03ec",
    "uADPriceReset(uint256)": "3b1ba367",
    "unpause()": "3f4ba83a"
  },
  "id": 48
}