{
  "abi": [
    {
      "inputs": [
        {
          "internalType": "address",
          "name": "_manager",
          "type": "address"
        }
      ],
      "stateMutability": "nonpayable",
      "type": "constructor"
    },
    {
      "inputs": [],
      "name": "distributeDollars",
      "outputs": [],
      "stateMutability": "nonpayable",
      "type": "function"
    },
    {
      "inputs": [],
      "name": "manager",
      "outputs": [
        {
          "internalType": "contract UbiquityAlgorithmicDollarManager",
          "name": "",
          "type": "address"
        }
      ],
      "stateMutability": "view",
      "type": "function"
    }
  ],
  "bytecode": {
    "object": "0x60c060405268056bc75e2d6310000060805273d9e1ce17f2641f24ae83637ab66a2cca9c378b9f60a0523480156200003657600080fd5b50604051620027ec380380620027ec83398101604081905262000059916200007f565b600080546001600160a01b0319166001600160a01b0392909216919091179055620000b1565b6000602082840312156200009257600080fd5b81516001600160a01b0381168114620000aa57600080fd5b9392505050565b60805160a0516126f2620000fa60003960008181610aa801528181610b8a01528181610c2201528181610caf01528181610d370152612023015260006101d201526126f26000f3fe608060405234801561001057600080fd5b50600436106100365760003560e01c8063481c6a751461003b578063651156bc14610084575b600080fd5b60005461005b9073ffffffffffffffffffffffffffffffffffffffff1681565b60405173ffffffffffffffffffffffffffffffffffffffff909116815260200160405180910390f35b61008c61008e565b005b60008060009054906101000a900473ffffffffffffffffffffffffffffffffffffffff1673ffffffffffffffffffffffffffffffffffffffff1663bc3ea0186040518163ffffffff1660e01b815260040160206040518083038186803b1580156100f757600080fd5b505afa15801561010b573d6000803e3d6000fd5b505050506040513d601f19601f8201168201806040525081019061012f91906122aa565b6040517f70a0823100000000000000000000000000000000000000000000000000000000815230600482015273ffffffffffffffffffffffffffffffffffffffff91909116906370a082319060240160206040518083038186803b15801561019657600080fd5b505afa1580156101aa573d6000803e3d6000fd5b505050506040513d601f19601f820116820180604052508101906101ce91906122e0565b90507f000000000000000000000000000000000000000000000000000000000000000081111561040f5760008060009054906101000a900473ffffffffffffffffffffffffffffffffffffffff1673ffffffffffffffffffffffffffffffffffffffff1663c5f956af6040518163ffffffff1660e01b815260040160206040518083038186803b15801561026157600080fd5b505afa158015610275573d6000803e3d6000fd5b505050506040513d601f19601f8201168201806040525081019061029991906122aa565b905060006103056102de6102ad600a610412565b6102b686610412565b7fffffffffffffffffffffffffffffffff00000000000000000000000000000000169061047d565b7fffffffffffffffffffffffffffffffff00000000000000000000000000000000166108f1565b905060006103226102de6103196002610412565b6102b687610412565b90506103e4838260008054906101000a900473ffffffffffffffffffffffffffffffffffffffff1673ffffffffffffffffffffffffffffffffffffffff1663bc3ea0186040518163ffffffff1660e01b815260040160206040518083038186803b15801561038f57600080fd5b505afa1580156103a3573d6000803e3d6000fd5b505050506040513d601f19601f820116820180604052508101906103c791906122aa565b73ffffffffffffffffffffffffffffffffffffffff1691906109b0565b6103ed82610a89565b61040a826103fb8387612328565b6104059190612328565b610fc4565b505050505b50565b60008161042157506000919050565b81600061042d82611ae8565b90506070811015610446578060700382901b9150610459565b6070811115610459576070810382901c91505b613fff0160701b6dffffffffffffffffffffffffffff919091161760801b92915050565b6000617fff60f084811c8216919084901c8116908214156104fa5780617fff14156104cd57507f7fff80000000000000000000000000000000000000000000000000000000000091506108eb9050565b5050507f8000000000000000000000000000000000000000000000000000000000000000811682186108eb565b80617fff1415610582577dffffffffffffffffffffffffffff0000000000000000000000000000000084161561055557507f7fff80000000000000000000000000000000000000000000000000000000000091506108eb9050565b5050508082187f8000000000000000000000000000000000000000000000000000000000000000166108eb565b7f7fffffffffffffffffffffffffffffff00000000000000000000000000000000841661064a577f7fffffffffffffffffffffffffffffff0000000000000000000000000000000085166105fb57507f7fff80000000000000000000000000000000000000000000000000000000000091506108eb9050565b5050508082187f8000000000000000000000000000000000000000000000000000000000000000167f7fff000000000000000000000000000000000000000000000000000000000000176108eb565b6dffffffffffffffffffffffffffff608085901c168161066d576001915061067f565b6e010000000000000000000000000000175b6dffffffffffffffffffffffffffff608087901c16836106e35780156106de5760006106aa82611ae8565b6001955060e2039384017fffffffffffffffffffffffffffffffffffffffffffffffffffffffffffffff8e01939190911b90505b6106f8565b6e0100000000000000000000000000001760721b5b8181816107075761070761233f565b0490508061076c577f80000000000000000000000000000000000000000000000000000000000000008787181661073f576000610761565b7f80000000000000000000000000000000000000000000000000000000000000005b9450505050506108eb565b6d100000000000000000000000000081101561078a5761078a61236e565b60006e0800000000000000000000000000008210156107ea576e0400000000000000000000000000008210156107df576e0200000000000000000000000000008210156107d85760706107e2565b60716107e2565b60725b60ff166107f3565b6107f382611ae8565b90508361407101818601111561081157617fff9450600091506108ab565b83818601613ffc01101561082c5760009450600091506108ab565b83818601613f8c011015610879578385613ffc011115610857578385613ffc010382901b9150610870565b8385613ffc01101561087057613ffc8585030382901c91505b600094506108ab565b607081111561088c576070810382901c91505b6dffffffffffffffffffffffffffff8216915083818601613f8d010394505b81607086901b888a186f8000000000000000000000000000000060801b1660801c6fffffffffffffffffffffffffffffffff16171760801b955050505050505b92915050565b6000617fff60f083901c16613fff81101561090f5750600092915050565b6f80000000000000000000000000000000608084901c1061092f57600080fd5b6140fe81111561093e57600080fd5b6e0100000000000000000000000000006dffffffffffffffffffffffffffff608085901c161761406f82101561097a5761406f8290031c6109a9565b61406f8211156109a9577fffffffffffffffffffffffffffffffffffffffffffffffffffffffffffffbf9182011b5b9392505050565b60405173ffffffffffffffffffffffffffffffffffffffff8316602482015260448101829052610a849084907fa9059cbb00000000000000000000000000000000000000000000000000000000906064015b604080517fffffffffffffffffffffffffffffffffffffffffffffffffffffffffffffffe08184030181529190526020810180517bffffffffffffffffffffffffffffffffffffffffffffffffffffffff167fffffffff0000000000000000000000000000000000000000000000000000000090931692909217909152611b98565b505050565b6000610aa1610a986002610412565b6102b684610412565b9050610b857f000000000000000000000000000000000000000000000000000000000000000060008060009054906101000a900473ffffffffffffffffffffffffffffffffffffffff1673ffffffffffffffffffffffffffffffffffffffff1663bc3ea0186040518163ffffffff1660e01b815260040160206040518083038186803b158015610b3057600080fd5b505afa158015610b44573d6000803e3d6000fd5b505050506040513d601f19601f82011682018060405250810190610b6891906122aa565b73ffffffffffffffffffffffffffffffffffffffff169190611ca9565b610c107f00000000000000000000000000000000000000000000000000000000000000008360008054906101000a900473ffffffffffffffffffffffffffffffffffffffff1673ffffffffffffffffffffffffffffffffffffffff1663bc3ea0186040518163ffffffff1660e01b815260040160206040518083038186803b158015610b3057600080fd5b6000610c1b82611e3a565b9050610caa7f000000000000000000000000000000000000000000000000000000000000000060008060009054906101000a900473ffffffffffffffffffffffffffffffffffffffff1673ffffffffffffffffffffffffffffffffffffffff1663b42165d06040518163ffffffff1660e01b815260040160206040518083038186803b158015610b3057600080fd5b610d357f00000000000000000000000000000000000000000000000000000000000000008260008054906101000a900473ffffffffffffffffffffffffffffffffffffffff1673ffffffffffffffffffffffffffffffffffffffff1663b42165d06040518163ffffffff1660e01b815260040160206040518083038186803b158015610b3057600080fd5b7f000000000000000000000000000000000000000000000000000000000000000073ffffffffffffffffffffffffffffffffffffffff1663e8e3370060008054906101000a900473ffffffffffffffffffffffffffffffffffffffff1673ffffffffffffffffffffffffffffffffffffffff1663bc3ea0186040518163ffffffff1660e01b815260040160206040518083038186803b158015610dd757600080fd5b505afa158015610deb573d6000803e3d6000fd5b505050506040513d601f19601f82011682018060405250810190610e0f91906122aa565b60008054906101000a900473ffffffffffffffffffffffffffffffffffffffff1673ffffffffffffffffffffffffffffffffffffffff1663b42165d06040518163ffffffff1660e01b815260040160206040518083038186803b158015610e7557600080fd5b505afa158015610e89573d6000803e3d6000fd5b505050506040513d601f19601f82011682018060405250810190610ead91906122aa565b610ed87fffffffffffffffffffffffffffffffff0000000000000000000000000000000087166108f1565b8560008080610ee842606461239d565b60405160e08a901b7fffffffff0000000000000000000000000000000000000000000000000000000016815273ffffffffffffffffffffffffffffffffffffffff9889166004820152968816602488015260448701959095526064860193909352608485019190915260a484015290921660c482015260e481019190915261010401606060405180830381600087803b158015610f8457600080fd5b505af1158015610f98573d6000803e3d6000fd5b505050506040513d601f19601f82011682018060405250810190610fbc91906123b5565b505050505050565b60008060009054906101000a900473ffffffffffffffffffffffffffffffffffffffff1673ffffffffffffffffffffffffffffffffffffffff1663bc3ea0186040518163ffffffff1660e01b815260040160206040518083038186803b15801561102d57600080fd5b505afa158015611041573d6000803e3d6000fd5b505050506040513d601f19601f8201168201806040525081019061106591906122aa565b73ffffffffffffffffffffffffffffffffffffffff1663095ea7b360008054906101000a900473ffffffffffffffffffffffffffffffffffffffff1673ffffffffffffffffffffffffffffffffffffffff1663d3815fb96040518163ffffffff1660e01b815260040160206040518083038186803b1580156110e657600080fd5b505afa1580156110fa573d6000803e3d6000fd5b505050506040513d601f19601f8201168201806040525081019061111e91906122aa565b6040517fffffffff0000000000000000000000000000000000000000000000000000000060e084901b16815273ffffffffffffffffffffffffffffffffffffffff909116600482015260006024820152604401602060405180830381600087803b15801561118b57600080fd5b505af115801561119f573d6000803e3d6000fd5b505050506040513d601f19601f820116820180604052508101906111c391906123e3565b5060008054906101000a900473ffffffffffffffffffffffffffffffffffffffff1673ffffffffffffffffffffffffffffffffffffffff1663bc3ea0186040518163ffffffff1660e01b815260040160206040518083038186803b15801561122a57600080fd5b505afa15801561123e573d6000803e3d6000fd5b505050506040513d601f19601f8201168201806040525081019061126291906122aa565b73ffffffffffffffffffffffffffffffffffffffff1663095ea7b360008054906101000a900473ffffffffffffffffffffffffffffffffffffffff1673ffffffffffffffffffffffffffffffffffffffff1663d3815fb96040518163ffffffff1660e01b815260040160206040518083038186803b1580156112e357600080fd5b505afa1580156112f7573d6000803e3d6000fd5b505050506040513d601f19601f8201168201806040525081019061131b91906122aa565b6040517fffffffff0000000000000000000000000000000000000000000000000000000060e084901b16815273ffffffffffffffffffffffffffffffffffffffff909116600482015260248101859052604401602060405180830381600087803b15801561138857600080fd5b505af115801561139c573d6000803e3d6000fd5b505050506040513d601f19601f820116820180604052508101906113c091906123e3565b5060008060009054906101000a900473ffffffffffffffffffffffffffffffffffffffff1673ffffffffffffffffffffffffffffffffffffffff1663d3815fb96040518163ffffffff1660e01b815260040160206040518083038186803b15801561142a57600080fd5b505afa15801561143e573d6000803e3d6000fd5b505050506040513d601f19601f8201168201806040525081019061146291906122aa565b6040517f3df021240000000000000000000000000000000000000000000000000000000081526000600482018190526001602483015260448201869052606482015273ffffffffffffffffffffffffffffffffffffffff9190911690633df0212490608401602060405180830381600087803b1580156114e157600080fd5b505af11580156114f5573d6000803e3d6000fd5b505050506040513d601f19601f8201168201806040525081019061151991906122e0565b905060008054906101000a900473ffffffffffffffffffffffffffffffffffffffff1673ffffffffffffffffffffffffffffffffffffffff1663017df3276040518163ffffffff1660e01b815260040160206040518083038186803b15801561158157600080fd5b505afa158015611595573d6000803e3d6000fd5b505050506040513d601f19601f820116820180604052508101906115b991906122aa565b73ffffffffffffffffffffffffffffffffffffffff1663095ea7b360008054906101000a900473ffffffffffffffffffffffffffffffffffffffff1673ffffffffffffffffffffffffffffffffffffffff1663d3815fb96040518163ffffffff1660e01b815260040160206040518083038186803b15801561163a57600080fd5b505afa15801561164e573d6000803e3d6000fd5b505050506040513d601f19601f8201168201806040525081019061167291906122aa565b6040517fffffffff0000000000000000000000000000000000000000000000000000000060e084901b16815273ffffffffffffffffffffffffffffffffffffffff909116600482015260006024820152604401602060405180830381600087803b1580156116df57600080fd5b505af11580156116f3573d6000803e3d6000fd5b505050506040513d601f19601f8201168201806040525081019061171791906123e3565b5060008054906101000a900473ffffffffffffffffffffffffffffffffffffffff1673ffffffffffffffffffffffffffffffffffffffff1663017df3276040518163ffffffff1660e01b815260040160206040518083038186803b15801561177e57600080fd5b505afa158015611792573d6000803e3d6000fd5b505050506040513d601f19601f820116820180604052508101906117b691906122aa565b73ffffffffffffffffffffffffffffffffffffffff1663095ea7b360008054906101000a900473ffffffffffffffffffffffffffffffffffffffff1673ffffffffffffffffffffffffffffffffffffffff1663d3815fb96040518163ffffffff1660e01b815260040160206040518083038186803b15801561183757600080fd5b505afa15801561184b573d6000803e3d6000fd5b505050506040513d601f19601f8201168201806040525081019061186f91906122aa565b6040517fffffffff0000000000000000000000000000000000000000000000000000000060e084901b16815273ffffffffffffffffffffffffffffffffffffffff909116600482015260248101849052604401602060405180830381600087803b1580156118dc57600080fd5b505af11580156118f0573d6000803e3d6000fd5b505050506040513d601f19601f8201168201806040525081019061191491906123e3565b5060008060009054906101000a900473ffffffffffffffffffffffffffffffffffffffff1673ffffffffffffffffffffffffffffffffffffffff1663d3815fb96040518163ffffffff1660e01b815260040160206040518083038186803b15801561197e57600080fd5b505afa158015611992573d6000803e3d6000fd5b505050506040513d601f19601f820116820180604052508101906119b691906122aa565b60408051808201825260008082526020808301879052815484517fde71c1db000000000000000000000000000000000000000000000000000000008152945173ffffffffffffffffffffffffffffffffffffffff96871696630c3e4b549692169263de71c1db9260048082019391829003018186803b158015611a3857600080fd5b505afa158015611a4c573d6000803e3d6000fd5b505050506040513d601f19601f82011682018060405250810190611a7091906122aa565b6040518463ffffffff1660e01b8152600401611a8e93929190612405565b602060405180830381600087803b158015611aa857600080fd5b505af1158015611abc573d6000803e3d6000fd5b505050506040513d601f19601f82011682018060405250810190611ae091906122e0565b949350505050565b6000808211611af657600080fd5b60007001000000000000000000000000000000008310611b1857608092831c92015b680100000000000000008310611b3057604092831c92015b6401000000008310611b4457602092831c92015b620100008310611b5657601092831c92015b6101008310611b6757600892831c92015b60108310611b7757600492831c92015b60048310611b8757600292831c92015b600283106108eb5760010192915050565b6000611bfa826040518060400160405280602081526020017f5361666545524332303a206c6f772d6c6576656c2063616c6c206661696c65648152508573ffffffffffffffffffffffffffffffffffffffff1661213c9092919063ffffffff16565b805190915015610a845780806020019051810190611c1891906123e3565b610a84576040517f08c379a000000000000000000000000000000000000000000000000000000000815260206004820152602a60248201527f5361666545524332303a204552433230206f7065726174696f6e20646964206e60448201527f6f7420737563636565640000000000000000000000000000000000000000000060648201526084015b60405180910390fd5b801580611d5857506040517fdd62ed3e00000000000000000000000000000000000000000000000000000000815230600482015273ffffffffffffffffffffffffffffffffffffffff838116602483015284169063dd62ed3e9060440160206040518083038186803b158015611d1e57600080fd5b505afa158015611d32573d6000803e3d6000fd5b505050506040513d601f19601f82011682018060405250810190611d5691906122e0565b155b611de4576040517f08c379a000000000000000000000000000000000000000000000000000000000815260206004820152603660248201527f5361666545524332303a20617070726f76652066726f6d206e6f6e2d7a65726f60448201527f20746f206e6f6e2d7a65726f20616c6c6f77616e6365000000000000000000006064820152608401611ca0565b60405173ffffffffffffffffffffffffffffffffffffffff8316602482015260448101829052610a849084907f095ea7b30000000000000000000000000000000000000000000000000000000090606401610a02565b6040805160028082526060820183526000928392919060208301908036833701905050905060008054906101000a900473ffffffffffffffffffffffffffffffffffffffff1673ffffffffffffffffffffffffffffffffffffffff1663bc3ea0186040518163ffffffff1660e01b815260040160206040518083038186803b158015611ec557600080fd5b505afa158015611ed9573d6000803e3d6000fd5b505050506040513d601f19601f82011682018060405250810190611efd91906122aa565b81600081518110611f1057611f10612489565b602002602001019073ffffffffffffffffffffffffffffffffffffffff16908173ffffffffffffffffffffffffffffffffffffffff168152505060008054906101000a900473ffffffffffffffffffffffffffffffffffffffff1673ffffffffffffffffffffffffffffffffffffffff1663b42165d06040518163ffffffff1660e01b815260040160206040518083038186803b158015611fb057600080fd5b505afa158015611fc4573d6000803e3d6000fd5b505050506040513d601f19601f82011682018060405250810190611fe891906122aa565b81600181518110611ffb57611ffb612489565b73ffffffffffffffffffffffffffffffffffffffff92831660209182029290920101526000907f0000000000000000000000000000000000000000000000000000000000000000166338ed17396120737fffffffffffffffffffffffffffffffff0000000000000000000000000000000087166108f1565b6000853061208242606461239d565b6040518663ffffffff1660e01b81526004016120a29594939291906124b8565b600060405180830381600087803b1580156120bc57600080fd5b505af11580156120d0573d6000803e3d6000fd5b505050506040513d6000823e601f3d9081017fffffffffffffffffffffffffffffffffffffffffffffffffffffffffffffffe01682016040526121169190810190612543565b90508060018151811061212b5761212b612489565b602002602001015192505050919050565b6060611ae08484600085856000808673ffffffffffffffffffffffffffffffffffffffff168587604051612170919061264f565b60006040518083038185875af1925050503d80600081146121ad576040519150601f19603f3d011682016040523d82523d6000602084013e6121b2565b606091505b50915091506121c3878383876121ce565b979650505050505050565b6060831561226157825161225a5773ffffffffffffffffffffffffffffffffffffffff85163b61225a576040517f08c379a000000000000000000000000000000000000000000000000000000000815260206004820152601d60248201527f416464726573733a2063616c6c20746f206e6f6e2d636f6e74726163740000006044820152606401611ca0565b5081611ae0565b611ae083838151156122765781518083602001fd5b806040517f08c379a0000000000000000000000000000000000000000000000000000000008152600401611ca0919061266b565b6000602082840312156122bc57600080fd5b815173ffffffffffffffffffffffffffffffffffffffff811681146109a957600080fd5b6000602082840312156122f257600080fd5b5051919050565b7f4e487b7100000000000000000000000000000000000000000000000000000000600052601160045260246000fd5b60008282101561233a5761233a6122f9565b500390565b7f4e487b7100000000000000000000000000000000000000000000000000000000600052601260045260246000fd5b7f4e487b7100000000000000000000000000000000000000000000000000000000600052600160045260246000fd5b600082198211156123b0576123b06122f9565b500190565b6000806000606084860312156123ca57600080fd5b8351925060208401519150604084015190509250925092565b6000602082840312156123f557600080fd5b815180151581146109a957600080fd5b60808101818560005b600281101561242d57815183526020928301929091019060010161240e565b50505083604083015273ffffffffffffffffffffffffffffffffffffffff83166060830152949350505050565b7f4e487b7100000000000000000000000000000000000000000000000000000000600052604160045260246000fd5b7f4e487b7100000000000000000000000000000000000000000000000000000000600052603260045260246000fd5b600060a082018783526020878185015260a0604085015281875180845260c086019150828901935060005b8181101561251557845173ffffffffffffffffffffffffffffffffffffffff16835293830193918301916001016124e3565b505073ffffffffffffffffffffffffffffffffffffffff969096166060850152505050608001529392505050565b6000602080838503121561255657600080fd5b825167ffffffffffffffff8082111561256e57600080fd5b818501915085601f83011261258257600080fd5b8151818111156125945761259461245a565b8060051b6040517fffffffffffffffffffffffffffffffffffffffffffffffffffffffffffffffe0603f830116810181811085821117156125d7576125d761245a565b6040529182528482019250838101850191888311156125f557600080fd5b938501935b82851015612613578451845293850193928501926125fa565b98975050505050505050565b60005b8381101561263a578181015183820152602001612622565b83811115612649576000848401525b50505050565b6000825161266181846020870161261f565b9190910192915050565b602081526000825180602084015261268a81604085016020870161261f565b601f017fffffffffffffffffffffffffffffffffffffffffffffffffffffffffffffffe016919091016040019291505056fea2646970667358221220c9989e15968c77f754b81a07c3a43a08179214e9610e48237731c8100016220f64736f6c63430008090033",
    "linkReferences": {}
  },
  "methodIdentifiers": {
    "distributeDollars()": "651156bc",
    "manager()": "481c6a75"
  },
  "id": 54
}