{
  "abi": [
    {
      "inputs": [],
      "stateMutability": "nonpayable",
      "type": "constructor"
    },
    {
      "anonymous": false,
      "inputs": [
        {
          "indexed": true,
          "internalType": "address",
          "name": "owner",
          "type": "address"
        },
        {
          "indexed": true,
          "internalType": "address",
          "name": "approved",
          "type": "address"
        },
        {
          "indexed": true,
          "internalType": "uint256",
          "name": "tokenId",
          "type": "uint256"
        }
      ],
      "name": "Approval",
      "type": "event"
    },
    {
      "anonymous": false,
      "inputs": [
        {
          "indexed": true,
          "internalType": "address",
          "name": "owner",
          "type": "address"
        },
        {
          "indexed": true,
          "internalType": "address",
          "name": "operator",
          "type": "address"
        },
        {
          "indexed": false,
          "internalType": "bool",
          "name": "approved",
          "type": "bool"
        }
      ],
      "name": "ApprovalForAll",
      "type": "event"
    },
    {
      "anonymous": false,
      "inputs": [
        {
          "indexed": true,
          "internalType": "address",
          "name": "previousOwner",
          "type": "address"
        },
        {
          "indexed": true,
          "internalType": "address",
          "name": "newOwner",
          "type": "address"
        }
      ],
      "name": "OwnershipTransferred",
      "type": "event"
    },
    {
      "anonymous": false,
      "inputs": [
        {
          "indexed": true,
          "internalType": "address",
          "name": "from",
          "type": "address"
        },
        {
          "indexed": true,
          "internalType": "address",
          "name": "to",
          "type": "address"
        },
        {
          "indexed": true,
          "internalType": "uint256",
          "name": "tokenId",
          "type": "uint256"
        }
      ],
      "name": "Transfer",
      "type": "event"
    },
    {
      "inputs": [
        {
          "internalType": "address",
          "name": "to",
          "type": "address"
        },
        {
          "internalType": "uint256",
          "name": "tokenId",
          "type": "uint256"
        }
      ],
      "name": "approve",
      "outputs": [],
      "stateMutability": "nonpayable",
      "type": "function"
    },
    {
      "inputs": [
        {
          "internalType": "address",
          "name": "owner",
          "type": "address"
        }
      ],
      "name": "balanceOf",
      "outputs": [
        {
          "internalType": "uint256",
          "name": "",
          "type": "uint256"
        }
      ],
      "stateMutability": "view",
      "type": "function"
    },
    {
      "inputs": [
        {
          "internalType": "address",
          "name": "to",
          "type": "address"
        },
        {
          "internalType": "uint256",
          "name": "count",
          "type": "uint256"
        }
      ],
      "name": "batchSafeMint",
      "outputs": [],
      "stateMutability": "nonpayable",
      "type": "function"
    },
    {
      "inputs": [
        {
          "internalType": "uint256",
          "name": "tokenId",
          "type": "uint256"
        }
      ],
      "name": "burn",
      "outputs": [],
      "stateMutability": "nonpayable",
      "type": "function"
    },
    {
      "inputs": [
        {
          "internalType": "uint256",
          "name": "tokenId",
          "type": "uint256"
        }
      ],
      "name": "getApproved",
      "outputs": [
        {
          "internalType": "address",
          "name": "",
          "type": "address"
        }
      ],
      "stateMutability": "view",
      "type": "function"
    },
    {
      "inputs": [
        {
          "internalType": "uint256",
          "name": "",
          "type": "uint256"
        }
      ],
      "name": "gold",
      "outputs": [
        {
          "internalType": "bool",
          "name": "",
          "type": "bool"
        }
      ],
      "stateMutability": "view",
      "type": "function"
    },
    {
      "inputs": [
        {
          "internalType": "address",
          "name": "owner",
          "type": "address"
        },
        {
          "internalType": "address",
          "name": "operator",
          "type": "address"
        }
      ],
      "name": "isApprovedForAll",
      "outputs": [
        {
          "internalType": "bool",
          "name": "",
          "type": "bool"
        }
      ],
      "stateMutability": "view",
      "type": "function"
    },
    {
      "inputs": [],
      "name": "minter",
      "outputs": [
        {
          "internalType": "address",
          "name": "",
          "type": "address"
        }
      ],
      "stateMutability": "view",
      "type": "function"
    },
    {
      "inputs": [],
      "name": "name",
      "outputs": [
        {
          "internalType": "string",
          "name": "",
          "type": "string"
        }
      ],
      "stateMutability": "view",
      "type": "function"
    },
    {
      "inputs": [],
      "name": "owner",
      "outputs": [
        {
          "internalType": "address",
          "name": "",
          "type": "address"
        }
      ],
      "stateMutability": "view",
      "type": "function"
    },
    {
      "inputs": [
        {
          "internalType": "uint256",
          "name": "tokenId",
          "type": "uint256"
        }
      ],
      "name": "ownerOf",
      "outputs": [
        {
          "internalType": "address",
          "name": "",
          "type": "address"
        }
      ],
      "stateMutability": "view",
      "type": "function"
    },
    {
      "inputs": [],
      "name": "renounceOwnership",
      "outputs": [],
      "stateMutability": "nonpayable",
      "type": "function"
    },
    {
      "inputs": [
        {
          "internalType": "address",
          "name": "to",
          "type": "address"
        }
      ],
      "name": "safeMint",
      "outputs": [],
      "stateMutability": "nonpayable",
      "type": "function"
    },
    {
      "inputs": [
        {
          "internalType": "address",
          "name": "from",
          "type": "address"
        },
        {
          "internalType": "address",
          "name": "to",
          "type": "address"
        },
        {
          "internalType": "uint256",
          "name": "tokenId",
          "type": "uint256"
        }
      ],
      "name": "safeTransferFrom",
      "outputs": [],
      "stateMutability": "nonpayable",
      "type": "function"
    },
    {
      "inputs": [
        {
          "internalType": "address",
          "name": "from",
          "type": "address"
        },
        {
          "internalType": "address",
          "name": "to",
          "type": "address"
        },
        {
          "internalType": "uint256",
          "name": "tokenId",
          "type": "uint256"
        },
        {
          "internalType": "bytes",
          "name": "data",
          "type": "bytes"
        }
      ],
      "name": "safeTransferFrom",
      "outputs": [],
      "stateMutability": "nonpayable",
      "type": "function"
    },
    {
      "inputs": [
        {
          "internalType": "address",
          "name": "operator",
          "type": "address"
        },
        {
          "internalType": "bool",
          "name": "approved",
          "type": "bool"
        }
      ],
      "name": "setApprovalForAll",
      "outputs": [],
      "stateMutability": "nonpayable",
      "type": "function"
    },
    {
      "inputs": [
        {
          "internalType": "address",
          "name": "minter_",
          "type": "address"
        }
      ],
      "name": "setMinter",
      "outputs": [],
      "stateMutability": "nonpayable",
      "type": "function"
    },
    {
      "inputs": [
        {
          "internalType": "uint256",
          "name": "ntype",
          "type": "uint256"
        },
        {
          "internalType": "string",
          "name": "tokenURI_",
          "type": "string"
        }
      ],
      "name": "setTokenURI",
      "outputs": [],
      "stateMutability": "nonpayable",
      "type": "function"
    },
    {
      "inputs": [
        {
          "internalType": "bytes4",
          "name": "interfaceId",
          "type": "bytes4"
        }
      ],
      "name": "supportsInterface",
      "outputs": [
        {
          "internalType": "bool",
          "name": "",
          "type": "bool"
        }
      ],
      "stateMutability": "view",
      "type": "function"
    },
    {
      "inputs": [],
      "name": "symbol",
      "outputs": [
        {
          "internalType": "string",
          "name": "",
          "type": "string"
        }
      ],
      "stateMutability": "view",
      "type": "function"
    },
    {
      "inputs": [
        {
          "internalType": "uint256",
          "name": "index",
          "type": "uint256"
        }
      ],
      "name": "tokenByIndex",
      "outputs": [
        {
          "internalType": "uint256",
          "name": "",
          "type": "uint256"
        }
      ],
      "stateMutability": "view",
      "type": "function"
    },
    {
      "inputs": [],
      "name": "tokenIdNext",
      "outputs": [
        {
          "internalType": "uint256",
          "name": "",
          "type": "uint256"
        }
      ],
      "stateMutability": "view",
      "type": "function"
    },
    {
      "inputs": [
        {
          "internalType": "address",
          "name": "owner",
          "type": "address"
        },
        {
          "internalType": "uint256",
          "name": "index",
          "type": "uint256"
        }
      ],
      "name": "tokenOfOwnerByIndex",
      "outputs": [
        {
          "internalType": "uint256",
          "name": "",
          "type": "uint256"
        }
      ],
      "stateMutability": "view",
      "type": "function"
    },
    {
      "inputs": [
        {
          "internalType": "uint256",
          "name": "tokenId",
          "type": "uint256"
        }
      ],
      "name": "tokenURI",
      "outputs": [
        {
          "internalType": "string",
          "name": "uri",
          "type": "string"
        }
      ],
      "stateMutability": "view",
      "type": "function"
    },
    {
      "inputs": [],
      "name": "totalSupply",
      "outputs": [
        {
          "internalType": "uint256",
          "name": "",
          "type": "uint256"
        }
      ],
      "stateMutability": "view",
      "type": "function"
    },
    {
      "inputs": [
        {
          "internalType": "address",
          "name": "from",
          "type": "address"
        },
        {
          "internalType": "address",
          "name": "to",
          "type": "address"
        },
        {
          "internalType": "uint256",
          "name": "tokenId",
          "type": "uint256"
        }
      ],
      "name": "transferFrom",
      "outputs": [],
      "stateMutability": "nonpayable",
      "type": "function"
    },
    {
      "inputs": [
        {
          "internalType": "address",
          "name": "newOwner",
          "type": "address"
        }
      ],
      "name": "transferOwnership",
      "outputs": [],
      "stateMutability": "nonpayable",
      "type": "function"
    }
  ],
  "bytecode": {
    "object": "0x60806040526001600b553480156200001657600080fd5b50604080518082018252600f81526e54686520556269717569537469636b60881b6020808301918252835180850190945260038452624b455960e81b908401528151919291620000699160009162000190565b5080516200007f90600190602084019062000190565b5050506200009c62000096620000ad60201b60201c565b620000b1565b620000a73362000103565b62000273565b3390565b600a80546001600160a01b038381166001600160a01b0319831681179093556040519116919082907f8be0079c531659141344cd1fd0a4f28419497f9722a3daafe3b4186f6b6457e090600090a35050565b6200010d6200012f565b600c80546001600160a01b0319166001600160a01b0392909216919091179055565b600a546001600160a01b031633146200018e5760405162461bcd60e51b815260206004820181905260248201527f4f776e61626c653a2063616c6c6572206973206e6f7420746865206f776e6572604482015260640160405180910390fd5b565b8280546200019e9062000236565b90600052602060002090601f016020900481019282620001c257600085556200020d565b82601f10620001dd57805160ff19168380011785556200020d565b828001600101855582156200020d579182015b828111156200020d578251825591602001919060010190620001f0565b506200021b9291506200021f565b5090565b5b808211156200021b576000815560010162000220565b600181811c908216806200024b57607f821691505b602082108114156200026d57634e487b7160e01b600052602260045260246000fd5b50919050565b61263880620002836000396000f3fe608060405234801561001057600080fd5b50600436106101b95760003560e01c80634f6ccce7116100f957806395d89b4111610097578063c87b56dd11610071578063c87b56dd146103b8578063e985e9c5146103cb578063f2fde38b14610414578063fca3b5aa1461042757600080fd5b806395d89b411461038a578063a22cb46514610392578063b88d4fde146103a557600080fd5b806370a08231116100d357806370a0823114610348578063715018a61461035b5780638bbf58b3146103635780638da5cb5b1461036c57600080fd5b80634f6ccce71461030f5780635832bcfe146103225780636352211e1461033557600080fd5b806318160ddd116101665780632f745c59116101405780632f745c59146102c357806340d097c3146102d657806342842e0e146102e957806342966c68146102fc57600080fd5b806318160ddd1461027b57806320c69e561461028d57806323b872dd146102b057600080fd5b8063081812fc11610197578063081812fc14610240578063095ea7b314610253578063162094c41461026857600080fd5b806301ffc9a7146101be57806306fdde03146101e657806307546172146101fb575b600080fd5b6101d16101cc3660046120aa565b61043a565b60405190151581526020015b60405180910390f35b6101ee61044b565b6040516101dd9190612139565b600c5461021b9073ffffffffffffffffffffffffffffffffffffffff1681565b60405173ffffffffffffffffffffffffffffffffffffffff90911681526020016101dd565b61021b61024e36600461214c565b6104dd565b61026661026136600461218e565b610511565b005b61026661027636600461227b565b61066f565b6008545b6040519081526020016101dd565b6101d161029b36600461214c565b600f6020526000908152604090205460ff1681565b6102666102be3660046122d6565b61072a565b61027f6102d136600461218e565b6107b2565b6102666102e4366004612312565b610867565b6102666102f73660046122d6565b61094a565b61026661030a36600461214c565b610965565b61027f61031d36600461214c565b6109ec565b61026661033036600461218e565b610a90565b61021b61034336600461214c565b610b1d565b61027f610356366004612312565b610b8f565b610266610c43565b61027f600b5481565b600a5473ffffffffffffffffffffffffffffffffffffffff1661021b565b6101ee610c57565b6102666103a036600461232d565b610c66565b6102666103b3366004612369565b610c71565b6101ee6103c636600461214c565b610cff565b6101d16103d93660046123e5565b73ffffffffffffffffffffffffffffffffffffffff918216600090815260056020908152604080832093909416825291909152205460ff1690565b610266610422366004612312565b610e32565b610266610435366004612312565b610ecc565b600061044582610f1b565b92915050565b60606000805461045a90612418565b80601f016020809104026020016040519081016040528092919081815260200182805461048690612418565b80156104d35780601f106104a8576101008083540402835291602001916104d3565b820191906000526020600020905b8154815290600101906020018083116104b657829003601f168201915b5050505050905090565b60006104e882610f71565b5060009081526004602052604090205473ffffffffffffffffffffffffffffffffffffffff1690565b600061051c82610b1d565b90508073ffffffffffffffffffffffffffffffffffffffff168373ffffffffffffffffffffffffffffffffffffffff1614156105c55760405162461bcd60e51b815260206004820152602160248201527f4552433732313a20617070726f76616c20746f2063757272656e74206f776e6560448201527f720000000000000000000000000000000000000000000000000000000000000060648201526084015b60405180910390fd5b3373ffffffffffffffffffffffffffffffffffffffff821614806105ee57506105ee81336103d9565b6106605760405162461bcd60e51b815260206004820152603d60248201527f4552433732313a20617070726f76652063616c6c6572206973206e6f7420746f60448201527f6b656e206f776e6572206f7220617070726f76656420666f7220616c6c00000060648201526084016105bc565b61066a8383610fe2565b505050565b600c5473ffffffffffffffffffffffffffffffffffffffff1633146106d65760405162461bcd60e51b815260206004820152600a60248201527f4e6f74206d696e7465720000000000000000000000000000000000000000000060448201526064016105bc565b816106ee57805161066a90600d906020840190611fe3565b600182141561070a57805161066a90600e906020840190611fe3565b600282141561072657805161066a906010906020840190611fe3565b5050565b610735335b82611082565b6107a75760405162461bcd60e51b815260206004820152602d60248201527f4552433732313a2063616c6c6572206973206e6f7420746f6b656e206f776e6560448201527f72206f7220617070726f7665640000000000000000000000000000000000000060648201526084016105bc565b61066a838383611142565b60006107bd83610b8f565b82106108315760405162461bcd60e51b815260206004820152602b60248201527f455243373231456e756d657261626c653a206f776e657220696e646578206f7560448201527f74206f6620626f756e647300000000000000000000000000000000000000000060648201526084016105bc565b5073ffffffffffffffffffffffffffffffffffffffff919091166000908152600660209081526040808320938352929052205490565b600c5473ffffffffffffffffffffffffffffffffffffffff1633146108ce5760405162461bcd60e51b815260206004820152600a60248201527f4e6f74206d696e7465720000000000000000000000000000000000000000000060448201526064016105bc565b600b80549060019060006108e2838561249b565b90915550604090506108f26113fa565b6108fc91906124b3565b61094057602a8114610940576000818152600f6020526040902080547fffffffffffffffffffffffffffffffffffffffffffffffffffffffffffffff001660011790555b610726828261146e565b61066a83838360405180602001604052806000815250610c71565b61096e3361072f565b6109e05760405162461bcd60e51b815260206004820152602d60248201527f4552433732313a2063616c6c6572206973206e6f7420746f6b656e206f776e6560448201527f72206f7220617070726f7665640000000000000000000000000000000000000060648201526084016105bc565b6109e981611488565b50565b60006109f760085490565b8210610a6b5760405162461bcd60e51b815260206004820152602c60248201527f455243373231456e756d657261626c653a20676c6f62616c20696e646578206f60448201527f7574206f6620626f756e6473000000000000000000000000000000000000000060648201526084016105bc565b60088281548110610a7e57610a7e6124ee565b90600052602060002001549050919050565b600c5473ffffffffffffffffffffffffffffffffffffffff163314610af75760405162461bcd60e51b815260206004820152600a60248201527f4e6f74206d696e7465720000000000000000000000000000000000000000000060448201526064016105bc565b60005b8181101561066a57610b0b83610867565b80610b158161251d565b915050610afa565b60008181526002602052604081205473ffffffffffffffffffffffffffffffffffffffff16806104455760405162461bcd60e51b815260206004820152601860248201527f4552433732313a20696e76616c696420746f6b656e204944000000000000000060448201526064016105bc565b600073ffffffffffffffffffffffffffffffffffffffff8216610c1a5760405162461bcd60e51b815260206004820152602960248201527f4552433732313a2061646472657373207a65726f206973206e6f74206120766160448201527f6c6964206f776e6572000000000000000000000000000000000000000000000060648201526084016105bc565b5073ffffffffffffffffffffffffffffffffffffffff1660009081526003602052604090205490565b610c4b61156c565b610c5560006115d3565b565b60606001805461045a90612418565b61072633838361164a565b610c7b3383611082565b610ced5760405162461bcd60e51b815260206004820152602d60248201527f4552433732313a2063616c6c6572206973206e6f7420746f6b656e206f776e6560448201527f72206f7220617070726f7665640000000000000000000000000000000000000060648201526084016105bc565b610cf98484848461175e565b50505050565b60008181526002602052604090205460609073ffffffffffffffffffffffffffffffffffffffff16610d735760405162461bcd60e51b815260206004820152601160248201527f4e6f6e6578697374656e7420746f6b656e00000000000000000000000000000060448201526064016105bc565b6000828152600f602052604090205460ff16610d9f57602a8214610d9857600d610da2565b6010610da2565b600e5b8054610dad90612418565b80601f0160208091040260200160405190810160405280929190818152602001828054610dd990612418565b8015610e265780601f10610dfb57610100808354040283529160200191610e26565b820191906000526020600020905b815481529060010190602001808311610e0957829003601f168201915b50505050509050919050565b610e3a61156c565b73ffffffffffffffffffffffffffffffffffffffff8116610ec35760405162461bcd60e51b815260206004820152602660248201527f4f776e61626c653a206e6577206f776e657220697320746865207a65726f206160448201527f646472657373000000000000000000000000000000000000000000000000000060648201526084016105bc565b6109e9816115d3565b610ed461156c565b600c80547fffffffffffffffffffffffff00000000000000000000000000000000000000001673ffffffffffffffffffffffffffffffffffffffff92909216919091179055565b60007fffffffff0000000000000000000000000000000000000000000000000000000082167f780e9d630000000000000000000000000000000000000000000000000000000014806104455750610445826117e7565b60008181526002602052604090205473ffffffffffffffffffffffffffffffffffffffff166109e95760405162461bcd60e51b815260206004820152601860248201527f4552433732313a20696e76616c696420746f6b656e204944000000000000000060448201526064016105bc565b600081815260046020526040902080547fffffffffffffffffffffffff00000000000000000000000000000000000000001673ffffffffffffffffffffffffffffffffffffffff8416908117909155819061103c82610b1d565b73ffffffffffffffffffffffffffffffffffffffff167f8c5be1e5ebec7d5bd14f71427d1e84f3dd0314c0f7b2291e5b200ac8c7c3b92560405160405180910390a45050565b60008061108e83610b1d565b90508073ffffffffffffffffffffffffffffffffffffffff168473ffffffffffffffffffffffffffffffffffffffff1614806110fc575073ffffffffffffffffffffffffffffffffffffffff80821660009081526005602090815260408083209388168352929052205460ff165b8061113a57508373ffffffffffffffffffffffffffffffffffffffff16611122846104dd565b73ffffffffffffffffffffffffffffffffffffffff16145b949350505050565b8273ffffffffffffffffffffffffffffffffffffffff1661116282610b1d565b73ffffffffffffffffffffffffffffffffffffffff16146111eb5760405162461bcd60e51b815260206004820152602560248201527f4552433732313a207472616e736665722066726f6d20696e636f72726563742060448201527f6f776e657200000000000000000000000000000000000000000000000000000060648201526084016105bc565b73ffffffffffffffffffffffffffffffffffffffff82166112735760405162461bcd60e51b8152602060048201526024808201527f4552433732313a207472616e7366657220746f20746865207a65726f2061646460448201527f726573730000000000000000000000000000000000000000000000000000000060648201526084016105bc565b61127e8383836118ca565b8273ffffffffffffffffffffffffffffffffffffffff1661129e82610b1d565b73ffffffffffffffffffffffffffffffffffffffff16146113275760405162461bcd60e51b815260206004820152602560248201527f4552433732313a207472616e736665722066726f6d20696e636f72726563742060448201527f6f776e657200000000000000000000000000000000000000000000000000000060648201526084016105bc565b600081815260046020908152604080832080547fffffffffffffffffffffffff000000000000000000000000000000000000000090811690915573ffffffffffffffffffffffffffffffffffffffff8781168086526003855283862080547fffffffffffffffffffffffffffffffffffffffffffffffffffffffffffffffff01905590871680865283862080546001019055868652600290945282852080549092168417909155905184937fddf252ad1be2c89b69c2b068fc378daa952ba7f163c4a11628f55a4df523b3ef91a4505050565b6000444233600b546040516020016114509493929190938452602084019290925260601b7fffffffffffffffffffffffffffffffffffffffff000000000000000000000000166040830152605482015260740190565b6040516020818303038152906040528051906020012060001c905090565b6107268282604051806020016040528060008152506118d5565b600061149382610b1d565b90506114a1816000846118ca565b6114aa82610b1d565b600083815260046020908152604080832080547fffffffffffffffffffffffff000000000000000000000000000000000000000090811690915573ffffffffffffffffffffffffffffffffffffffff85168085526003845282852080547fffffffffffffffffffffffffffffffffffffffffffffffffffffffffffffffff0190558785526002909352818420805490911690555192935084927fddf252ad1be2c89b69c2b068fc378daa952ba7f163c4a11628f55a4df523b3ef908390a45050565b600a5473ffffffffffffffffffffffffffffffffffffffff163314610c555760405162461bcd60e51b815260206004820181905260248201527f4f776e61626c653a2063616c6c6572206973206e6f7420746865206f776e657260448201526064016105bc565b600a805473ffffffffffffffffffffffffffffffffffffffff8381167fffffffffffffffffffffffff0000000000000000000000000000000000000000831681179093556040519116919082907f8be0079c531659141344cd1fd0a4f28419497f9722a3daafe3b4186f6b6457e090600090a35050565b8173ffffffffffffffffffffffffffffffffffffffff168373ffffffffffffffffffffffffffffffffffffffff1614156116c65760405162461bcd60e51b815260206004820152601960248201527f4552433732313a20617070726f766520746f2063616c6c65720000000000000060448201526064016105bc565b73ffffffffffffffffffffffffffffffffffffffff83811660008181526005602090815260408083209487168084529482529182902080547fffffffffffffffffffffffffffffffffffffffffffffffffffffffffffffff001686151590811790915591519182527f17307eab39ab6107e8899845ad3d59bd9653f200f220920489ca2b5937696c31910160405180910390a3505050565b611769848484611142565b6117758484848461195e565b610cf95760405162461bcd60e51b815260206004820152603260248201527f4552433732313a207472616e7366657220746f206e6f6e20455243373231526560448201527f63656976657220696d706c656d656e746572000000000000000000000000000060648201526084016105bc565b60007fffffffff0000000000000000000000000000000000000000000000000000000082167f80ac58cd00000000000000000000000000000000000000000000000000000000148061187a57507fffffffff0000000000000000000000000000000000000000000000000000000082167f5b5e139f00000000000000000000000000000000000000000000000000000000145b8061044557507f01ffc9a7000000000000000000000000000000000000000000000000000000007fffffffff00000000000000000000000000000000000000000000000000000000831614610445565b61066a838383611b43565b6118df8383611c49565b6118ec600084848461195e565b61066a5760405162461bcd60e51b815260206004820152603260248201527f4552433732313a207472616e7366657220746f206e6f6e20455243373231526560448201527f63656976657220696d706c656d656e746572000000000000000000000000000060648201526084016105bc565b600073ffffffffffffffffffffffffffffffffffffffff84163b15611b38576040517f150b7a0200000000000000000000000000000000000000000000000000000000815273ffffffffffffffffffffffffffffffffffffffff85169063150b7a02906119d5903390899088908890600401612556565b602060405180830381600087803b1580156119ef57600080fd5b505af1925050508015611a3d575060408051601f3d9081017fffffffffffffffffffffffffffffffffffffffffffffffffffffffffffffffe0168201909252611a3a9181019061259f565b60015b611aed573d808015611a6b576040519150601f19603f3d011682016040523d82523d6000602084013e611a70565b606091505b508051611ae55760405162461bcd60e51b815260206004820152603260248201527f4552433732313a207472616e7366657220746f206e6f6e20455243373231526560448201527f63656976657220696d706c656d656e746572000000000000000000000000000060648201526084016105bc565b805181602001fd5b7fffffffff00000000000000000000000000000000000000000000000000000000167f150b7a020000000000000000000000000000000000000000000000000000000014905061113a565b506001949350505050565b73ffffffffffffffffffffffffffffffffffffffff8316611bab57611ba681600880546000838152600960205260408120829055600182018355919091527ff3f7a9fe364faab93b216da50a3214154f22a0a2b415b23a84c8169e8b636ee30155565b611be8565b8173ffffffffffffffffffffffffffffffffffffffff168373ffffffffffffffffffffffffffffffffffffffff1614611be857611be88382611e2c565b73ffffffffffffffffffffffffffffffffffffffff8216611c0c5761066a81611ee3565b8273ffffffffffffffffffffffffffffffffffffffff168273ffffffffffffffffffffffffffffffffffffffff161461066a5761066a8282611f92565b73ffffffffffffffffffffffffffffffffffffffff8216611cac5760405162461bcd60e51b815260206004820181905260248201527f4552433732313a206d696e7420746f20746865207a65726f206164647265737360448201526064016105bc565b60008181526002602052604090205473ffffffffffffffffffffffffffffffffffffffff1615611d1e5760405162461bcd60e51b815260206004820152601c60248201527f4552433732313a20746f6b656e20616c7265616479206d696e7465640000000060448201526064016105bc565b611d2a600083836118ca565b60008181526002602052604090205473ffffffffffffffffffffffffffffffffffffffff1615611d9c5760405162461bcd60e51b815260206004820152601c60248201527f4552433732313a20746f6b656e20616c7265616479206d696e7465640000000060448201526064016105bc565b73ffffffffffffffffffffffffffffffffffffffff8216600081815260036020908152604080832080546001019055848352600290915280822080547fffffffffffffffffffffffff0000000000000000000000000000000000000000168417905551839291907fddf252ad1be2c89b69c2b068fc378daa952ba7f163c4a11628f55a4df523b3ef908290a45050565b60006001611e3984610b8f565b611e4391906125bc565b600083815260076020526040902054909150808214611ea35773ffffffffffffffffffffffffffffffffffffffff841660009081526006602090815260408083208584528252808320548484528184208190558352600790915290208190555b50600091825260076020908152604080842084905573ffffffffffffffffffffffffffffffffffffffff9094168352600681528383209183525290812055565b600854600090611ef5906001906125bc565b60008381526009602052604081205460088054939450909284908110611f1d57611f1d6124ee565b906000526020600020015490508060088381548110611f3e57611f3e6124ee565b6000918252602080832090910192909255828152600990915260408082208490558582528120556008805480611f7657611f766125d3565b6001900381819060005260206000200160009055905550505050565b6000611f9d83610b8f565b73ffffffffffffffffffffffffffffffffffffffff9093166000908152600660209081526040808320868452825280832085905593825260079052919091209190915550565b828054611fef90612418565b90600052602060002090601f0160209004810192826120115760008555612057565b82601f1061202a57805160ff1916838001178555612057565b82800160010185558215612057579182015b8281111561205757825182559160200191906001019061203c565b50612063929150612067565b5090565b5b808211156120635760008155600101612068565b7fffffffff00000000000000000000000000000000000000000000000000000000811681146109e957600080fd5b6000602082840312156120bc57600080fd5b81356120c78161207c565b9392505050565b6000815180845260005b818110156120f4576020818501810151868301820152016120d8565b81811115612106576000602083870101525b50601f017fffffffffffffffffffffffffffffffffffffffffffffffffffffffffffffffe0169290920160200192915050565b6020815260006120c760208301846120ce565b60006020828403121561215e57600080fd5b5035919050565b803573ffffffffffffffffffffffffffffffffffffffff8116811461218957600080fd5b919050565b600080604083850312156121a157600080fd5b6121aa83612165565b946020939093013593505050565b7f4e487b7100000000000000000000000000000000000000000000000000000000600052604160045260246000fd5b600067ffffffffffffffff80841115612202576122026121b8565b604051601f85017fffffffffffffffffffffffffffffffffffffffffffffffffffffffffffffffe0908116603f01168101908282118183101715612248576122486121b8565b8160405280935085815286868601111561226157600080fd5b858560208301376000602087830101525050509392505050565b6000806040838503121561228e57600080fd5b82359150602083013567ffffffffffffffff8111156122ac57600080fd5b8301601f810185136122bd57600080fd5b6122cc858235602084016121e7565b9150509250929050565b6000806000606084860312156122eb57600080fd5b6122f484612165565b925061230260208501612165565b9150604084013590509250925092565b60006020828403121561232457600080fd5b6120c782612165565b6000806040838503121561234057600080fd5b61234983612165565b91506020830135801515811461235e57600080fd5b809150509250929050565b6000806000806080858703121561237f57600080fd5b61238885612165565b935061239660208601612165565b925060408501359150606085013567ffffffffffffffff8111156123b957600080fd5b8501601f810187136123ca57600080fd5b6123d9878235602084016121e7565b91505092959194509250565b600080604083850312156123f857600080fd5b61240183612165565b915061240f60208401612165565b90509250929050565b600181811c9082168061242c57607f821691505b60208210811415612466577f4e487b7100000000000000000000000000000000000000000000000000000000600052602260045260246000fd5b50919050565b7f4e487b7100000000000000000000000000000000000000000000000000000000600052601160045260246000fd5b600082198211156124ae576124ae61246c565b500190565b6000826124e9577f4e487b7100000000000000000000000000000000000000000000000000000000600052601260045260246000fd5b500690565b7f4e487b7100000000000000000000000000000000000000000000000000000000600052603260045260246000fd5b60007fffffffffffffffffffffffffffffffffffffffffffffffffffffffffffffffff82141561254f5761254f61246c565b5060010190565b600073ffffffffffffffffffffffffffffffffffffffff80871683528086166020840152508360408301526080606083015261259560808301846120ce565b9695505050505050565b6000602082840312156125b157600080fd5b81516120c78161207c565b6000828210156125ce576125ce61246c565b500390565b7f4e487b7100000000000000000000000000000000000000000000000000000000600052603160045260246000fdfea26469706673582212207a4a6ebbd4cfa930fd4a12a18a80e7b9be5448cbb16391ef6e6b2fbebc6449c164736f6c63430008090033",
    "linkReferences": {}
  },
  "methodIdentifiers": {
    "approve(address,uint256)": "095ea7b3",
    "balanceOf(address)": "70a08231",
    "batchSafeMint(address,uint256)": "5832bcfe",
    "burn(uint256)": "42966c68",
    "getApproved(uint256)": "081812fc",
    "gold(uint256)": "20c69e56",
    "isApprovedForAll(address,address)": "e985e9c5",
    "minter()": "07546172",
    "name()": "06fdde03",
    "owner()": "8da5cb5b",
    "ownerOf(uint256)": "6352211e",
    "renounceOwnership()": "715018a6",
    "safeMint(address)": "40d097c3",
    "safeTransferFrom(address,address,uint256)": "42842e0e",
    "safeTransferFrom(address,address,uint256,bytes)": "b88d4fde",
    "setApprovalForAll(address,bool)": "a22cb465",
    "setMinter(address)": "fca3b5aa",
    "setTokenURI(uint256,string)": "162094c4",
    "supportsInterface(bytes4)": "01ffc9a7",
    "symbol()": "95d89b41",
    "tokenByIndex(uint256)": "4f6ccce7",
    "tokenIdNext()": "8bbf58b3",
    "tokenOfOwnerByIndex(address,uint256)": "2f745c59",
    "tokenURI(uint256)": "c87b56dd",
    "totalSupply()": "18160ddd",
    "transferFrom(address,address,uint256)": "23b872dd",
    "transferOwnership(address)": "f2fde38b"
  },
  "id": 101
}