{
  "abi": [
    {
      "inputs": [
        {
          "internalType": "address",
          "name": "_manager",
          "type": "address"
        },
        {
          "internalType": "string",
          "name": "name_",
          "type": "string"
        },
        {
          "internalType": "string",
          "name": "symbol_",
          "type": "string"
        }
      ],
      "stateMutability": "nonpayable",
      "type": "constructor"
    },
    {
      "anonymous": false,
      "inputs": [
        {
          "indexed": true,
          "internalType": "address",
          "name": "owner",
          "type": "address"
        },
        {
          "indexed": true,
          "internalType": "address",
          "name": "spender",
          "type": "address"
        },
        {
          "indexed": false,
          "internalType": "uint256",
          "name": "value",
          "type": "uint256"
        }
      ],
      "name": "Approval",
      "type": "event"
    },
    {
      "anonymous": false,
      "inputs": [
        {
          "indexed": true,
          "internalType": "address",
          "name": "_burned",
          "type": "address"
        },
        {
          "indexed": false,
          "internalType": "uint256",
          "name": "_amount",
          "type": "uint256"
        }
      ],
      "name": "Burning",
      "type": "event"
    },
    {
      "anonymous": false,
      "inputs": [
        {
          "indexed": true,
          "internalType": "address",
          "name": "_to",
          "type": "address"
        },
        {
          "indexed": true,
          "internalType": "address",
          "name": "_minter",
          "type": "address"
        },
        {
          "indexed": false,
          "internalType": "uint256",
          "name": "_amount",
          "type": "uint256"
        }
      ],
      "name": "Minting",
      "type": "event"
    },
    {
      "anonymous": false,
      "inputs": [
        {
          "indexed": false,
          "internalType": "address",
          "name": "account",
          "type": "address"
        }
      ],
      "name": "Paused",
      "type": "event"
    },
    {
      "anonymous": false,
      "inputs": [
        {
          "indexed": true,
          "internalType": "address",
          "name": "from",
          "type": "address"
        },
        {
          "indexed": true,
          "internalType": "address",
          "name": "to",
          "type": "address"
        },
        {
          "indexed": false,
          "internalType": "uint256",
          "name": "value",
          "type": "uint256"
        }
      ],
      "name": "Transfer",
      "type": "event"
    },
    {
      "anonymous": false,
      "inputs": [
        {
          "indexed": false,
          "internalType": "address",
          "name": "account",
          "type": "address"
        }
      ],
      "name": "Unpaused",
      "type": "event"
    },
    {
      "inputs": [],
      "name": "DOMAIN_SEPARATOR",
      "outputs": [
        {
          "internalType": "bytes32",
          "name": "",
          "type": "bytes32"
        }
      ],
      "stateMutability": "view",
      "type": "function"
    },
    {
      "inputs": [],
      "name": "PERMIT_TYPEHASH",
      "outputs": [
        {
          "internalType": "bytes32",
          "name": "",
          "type": "bytes32"
        }
      ],
      "stateMutability": "view",
      "type": "function"
    },
    {
      "inputs": [
        {
          "internalType": "address",
          "name": "owner",
          "type": "address"
        },
        {
          "internalType": "address",
          "name": "spender",
          "type": "address"
        }
      ],
      "name": "allowance",
      "outputs": [
        {
          "internalType": "uint256",
          "name": "",
          "type": "uint256"
        }
      ],
      "stateMutability": "view",
      "type": "function"
    },
    {
      "inputs": [
        {
          "internalType": "address",
          "name": "spender",
          "type": "address"
        },
        {
          "internalType": "uint256",
          "name": "amount",
          "type": "uint256"
        }
      ],
      "name": "approve",
      "outputs": [
        {
          "internalType": "bool",
          "name": "",
          "type": "bool"
        }
      ],
      "stateMutability": "nonpayable",
      "type": "function"
    },
    {
      "inputs": [
        {
          "internalType": "address",
          "name": "account",
          "type": "address"
        }
      ],
      "name": "balanceOf",
      "outputs": [
        {
          "internalType": "uint256",
          "name": "",
          "type": "uint256"
        }
      ],
      "stateMutability": "view",
      "type": "function"
    },
    {
      "inputs": [
        {
          "internalType": "uint256",
          "name": "amount",
          "type": "uint256"
        }
      ],
      "name": "burn",
      "outputs": [],
      "stateMutability": "nonpayable",
      "type": "function"
    },
    {
      "inputs": [
        {
          "internalType": "address",
          "name": "account",
          "type": "address"
        },
        {
          "internalType": "uint256",
          "name": "amount",
          "type": "uint256"
        }
      ],
      "name": "burnFrom",
      "outputs": [],
      "stateMutability": "nonpayable",
      "type": "function"
    },
    {
      "inputs": [],
      "name": "decimals",
      "outputs": [
        {
          "internalType": "uint8",
          "name": "",
          "type": "uint8"
        }
      ],
      "stateMutability": "view",
      "type": "function"
    },
    {
      "inputs": [
        {
          "internalType": "address",
          "name": "spender",
          "type": "address"
        },
        {
          "internalType": "uint256",
          "name": "subtractedValue",
          "type": "uint256"
        }
      ],
      "name": "decreaseAllowance",
      "outputs": [
        {
          "internalType": "bool",
          "name": "",
          "type": "bool"
        }
      ],
      "stateMutability": "nonpayable",
      "type": "function"
    },
    {
      "inputs": [
        {
          "internalType": "address",
          "name": "spender",
          "type": "address"
        },
        {
          "internalType": "uint256",
          "name": "addedValue",
          "type": "uint256"
        }
      ],
      "name": "increaseAllowance",
      "outputs": [
        {
          "internalType": "bool",
          "name": "",
          "type": "bool"
        }
      ],
      "stateMutability": "nonpayable",
      "type": "function"
    },
    {
      "inputs": [],
      "name": "manager",
      "outputs": [
        {
          "internalType": "contract UbiquityAlgorithmicDollarManager",
          "name": "",
          "type": "address"
        }
      ],
      "stateMutability": "view",
      "type": "function"
    },
    {
      "inputs": [
        {
          "internalType": "address",
          "name": "to",
          "type": "address"
        },
        {
          "internalType": "uint256",
          "name": "amount",
          "type": "uint256"
        }
      ],
      "name": "mint",
      "outputs": [],
      "stateMutability": "nonpayable",
      "type": "function"
    },
    {
      "inputs": [],
      "name": "name",
      "outputs": [
        {
          "internalType": "string",
          "name": "",
          "type": "string"
        }
      ],
      "stateMutability": "view",
      "type": "function"
    },
    {
      "inputs": [
        {
          "internalType": "address",
          "name": "",
          "type": "address"
        }
      ],
      "name": "nonces",
      "outputs": [
        {
          "internalType": "uint256",
          "name": "",
          "type": "uint256"
        }
      ],
      "stateMutability": "view",
      "type": "function"
    },
    {
      "inputs": [],
      "name": "pause",
      "outputs": [],
      "stateMutability": "nonpayable",
      "type": "function"
    },
    {
      "inputs": [],
      "name": "paused",
      "outputs": [
        {
          "internalType": "bool",
          "name": "",
          "type": "bool"
        }
      ],
      "stateMutability": "view",
      "type": "function"
    },
    {
      "inputs": [
        {
          "internalType": "address",
          "name": "owner",
          "type": "address"
        },
        {
          "internalType": "address",
          "name": "spender",
          "type": "address"
        },
        {
          "internalType": "uint256",
          "name": "value",
          "type": "uint256"
        },
        {
          "internalType": "uint256",
          "name": "deadline",
          "type": "uint256"
        },
        {
          "internalType": "uint8",
          "name": "v",
          "type": "uint8"
        },
        {
          "internalType": "bytes32",
          "name": "r",
          "type": "bytes32"
        },
        {
          "internalType": "bytes32",
          "name": "s",
          "type": "bytes32"
        }
      ],
      "name": "permit",
      "outputs": [],
      "stateMutability": "nonpayable",
      "type": "function"
    },
    {
      "inputs": [
        {
          "internalType": "string",
          "name": "newName",
          "type": "string"
        }
      ],
      "name": "setName",
      "outputs": [],
      "stateMutability": "nonpayable",
      "type": "function"
    },
    {
      "inputs": [
        {
          "internalType": "string",
          "name": "newSymbol",
          "type": "string"
        }
      ],
      "name": "setSymbol",
      "outputs": [],
      "stateMutability": "nonpayable",
      "type": "function"
    },
    {
      "inputs": [],
      "name": "symbol",
      "outputs": [
        {
          "internalType": "string",
          "name": "",
          "type": "string"
        }
      ],
      "stateMutability": "view",
      "type": "function"
    },
    {
      "inputs": [],
      "name": "totalSupply",
      "outputs": [
        {
          "internalType": "uint256",
          "name": "",
          "type": "uint256"
        }
      ],
      "stateMutability": "view",
      "type": "function"
    },
    {
      "inputs": [
        {
          "internalType": "address",
          "name": "to",
          "type": "address"
        },
        {
          "internalType": "uint256",
          "name": "amount",
          "type": "uint256"
        }
      ],
      "name": "transfer",
      "outputs": [
        {
          "internalType": "bool",
          "name": "",
          "type": "bool"
        }
      ],
      "stateMutability": "nonpayable",
      "type": "function"
    },
    {
      "inputs": [
        {
          "internalType": "address",
          "name": "from",
          "type": "address"
        },
        {
          "internalType": "address",
          "name": "to",
          "type": "address"
        },
        {
          "internalType": "uint256",
          "name": "amount",
          "type": "uint256"
        }
      ],
      "name": "transferFrom",
      "outputs": [
        {
          "internalType": "bool",
          "name": "",
          "type": "bool"
        }
      ],
      "stateMutability": "nonpayable",
      "type": "function"
    },
    {
      "inputs": [],
      "name": "unpause",
      "outputs": [],
      "stateMutability": "nonpayable",
      "type": "function"
    }
  ],
  "bytecode": {
    "object": "0x60806040523480156200001157600080fd5b5060405162002952380380620029528339810160408190526200003491620004df565b8151829082906200004d9060039060208501906200036c565b508051620000639060049060208401906200036c565b50506005805460ff19169055508151620000859060089060208501906200036c565b5080516200009b9060099060208401906200036c565b5060058054610100600160a81b0319166101006001600160a01b03868116820292909217928390556040805163a217fddf60e01b8152905191909304909116916391d1485491839163a217fddf916004808301926020929190829003018186803b1580156200010957600080fd5b505afa1580156200011e573d6000803e3d6000fd5b505050506040513d601f19601f8201168201806040525081019062000144919062000569565b6040516001600160e01b031960e084901b168152600481019190915233602482015260440160206040518083038186803b1580156200018257600080fd5b505afa15801562000197573d6000803e3d6000fd5b505050506040513d601f19601f82011682018060405250810190620001bd919062000583565b6200021c5760405162461bcd60e51b815260206004820152602560248201527f45524332303a206465706c6f796572206d757374206265206d616e616765722060448201526430b236b4b760d91b606482015260840160405180910390fd5b467f8b73c3c69bb8fe3d512ecc4cf759cc79239f7b179b0ffacaa9a75d522b39400f62000248620002d2565b805160209182012060408051808201825260018152603160f81b90840152805192830193909352918101919091527fc89efdaa54c0f20c7adf612882df0950f5a951637e0307cdcb4c672f298b8bc66060820152608081018290523060a082015260c0016040516020818303038152906040528051906020012060068190555050505050620005eb565b606060088054620002e390620005ae565b80601f01602080910402602001604051908101604052809291908181526020018280546200031190620005ae565b8015620003625780601f10620003365761010080835404028352916020019162000362565b820191906000526020600020905b8154815290600101906020018083116200034457829003601f168201915b5050505050905090565b8280546200037a90620005ae565b90600052602060002090601f0160209004810192826200039e5760008555620003e9565b82601f10620003b957805160ff1916838001178555620003e9565b82800160010185558215620003e9579182015b82811115620003e9578251825591602001919060010190620003cc565b50620003f7929150620003fb565b5090565b5b80821115620003f75760008155600101620003fc565b634e487b7160e01b600052604160045260246000fd5b600082601f8301126200043a57600080fd5b81516001600160401b038082111562000457576200045762000412565b604051601f8301601f19908116603f0116810190828211818310171562000482576200048262000412565b816040528381526020925086838588010111156200049f57600080fd5b600091505b83821015620004c35785820183015181830184015290820190620004a4565b83821115620004d55760008385830101525b9695505050505050565b600080600060608486031215620004f557600080fd5b83516001600160a01b03811681146200050d57600080fd5b60208501519093506001600160401b03808211156200052b57600080fd5b620005398783880162000428565b935060408601519150808211156200055057600080fd5b506200055f8682870162000428565b9150509250925092565b6000602082840312156200057c57600080fd5b5051919050565b6000602082840312156200059657600080fd5b81518015158114620005a757600080fd5b9392505050565b600181811c90821680620005c357607f821691505b60208210811415620005e557634e487b7160e01b600052602260045260246000fd5b50919050565b61235780620005fb6000396000f3fe608060405234801561001057600080fd5b50600436106101985760003560e01c80635c975abb116100e3578063a457c2d71161008c578063c47f002711610066578063c47f00271461038c578063d505accf1461039f578063dd62ed3e146103b257600080fd5b8063a457c2d714610353578063a9059cbb14610366578063b84c82461461037957600080fd5b80637ecebe00116100bd5780637ecebe00146103235780638456cb591461034357806395d89b411461034b57600080fd5b80635c975abb146102cf57806370a08231146102da57806379cc67901461031057600080fd5b80633644e5151161014557806340c10f191161011f57806340c10f191461025f57806342966c6814610272578063481c6a751461028557600080fd5b80633644e5151461023957806339509351146102425780633f4ba83a1461025557600080fd5b806323b872dd1161017657806323b872dd146101f057806330adf81f14610203578063313ce5671461022a57600080fd5b806306fdde031461019d578063095ea7b3146101bb57806318160ddd146101de575b600080fd5b6101a56103f8565b6040516101b29190611f31565b60405180910390f35b6101ce6101c9366004611fcd565b61048a565b60405190151581526020016101b2565b6002545b6040519081526020016101b2565b6101ce6101fe366004611ff7565b6104a2565b6101e27f6e71edae12b1b97f4d1f60370fef10105fa2faae0126114a169c64845d6126c981565b604051601281526020016101b2565b6101e260065481565b6101ce610250366004611fcd565b6104c6565b61025d610512565b005b61025d61026d366004611fcd565b6106c3565b61025d610280366004612033565b6108c8565b6005546102aa90610100900473ffffffffffffffffffffffffffffffffffffffff1681565b60405173ffffffffffffffffffffffffffffffffffffffff90911681526020016101b2565b60055460ff166101ce565b6101e26102e836600461204c565b73ffffffffffffffffffffffffffffffffffffffff1660009081526020819052604090205490565b61025d61031e366004611fcd565b610911565b6101e261033136600461204c565b60076020526000908152604090205481565b61025d610b19565b6101a5610cc3565b6101ce610361366004611fcd565b610cd2565b6101ce610374366004611fcd565b610da3565b61025d61038736600461209d565b610db1565b61025d61039a36600461209d565b610f90565b61025d6103ad36600461216c565b61116b565b6101e26103c03660046121df565b73ffffffffffffffffffffffffffffffffffffffff918216600090815260016020908152604080832093909416825291909152205490565b60606008805461040790612212565b80601f016020809104026020016040519081016040528092919081815260200182805461043390612212565b80156104805780601f1061045557610100808354040283529160200191610480565b820191906000526020600020905b81548152906001019060200180831161046357829003601f168201915b5050505050905090565b600033610498818585611456565b5060019392505050565b6000336104b0858285611609565b6104bb8585856116e0565b506001949350505050565b33600081815260016020908152604080832073ffffffffffffffffffffffffffffffffffffffff87168452909152812054909190610498908290869061050d908790612295565b611456565b600554604080517fe63ab1e9000000000000000000000000000000000000000000000000000000008152905161010090920473ffffffffffffffffffffffffffffffffffffffff16916391d1485491839163e63ab1e991600480820192602092909190829003018186803b15801561058957600080fd5b505afa15801561059d573d6000803e3d6000fd5b505050506040513d601f19601f820116820180604052508101906105c191906122ad565b6040517fffffffff0000000000000000000000000000000000000000000000000000000060e084901b168152600481019190915233602482015260440160206040518083038186803b15801561061657600080fd5b505afa15801561062a573d6000803e3d6000fd5b505050506040513d601f19601f8201168201806040525081019061064e91906122c6565b6106b9576040517f08c379a000000000000000000000000000000000000000000000000000000000815260206004820152601c60248201527f476f7665726e616e636520746f6b656e3a206e6f74207061757365720000000060448201526064015b60405180910390fd5b6106c16116f8565b565b600554604080517f2f533cb7000000000000000000000000000000000000000000000000000000008152905161010090920473ffffffffffffffffffffffffffffffffffffffff16916391d14854918391632f533cb791600480820192602092909190829003018186803b15801561073a57600080fd5b505afa15801561074e573d6000803e3d6000fd5b505050506040513d601f19601f8201168201806040525081019061077291906122ad565b6040517fffffffff0000000000000000000000000000000000000000000000000000000060e084901b168152600481019190915233602482015260440160206040518083038186803b1580156107c757600080fd5b505afa1580156107db573d6000803e3d6000fd5b505050506040513d601f19601f820116820180604052508101906107ff91906122c6565b610865576040517f08c379a000000000000000000000000000000000000000000000000000000000815260206004820152601c60248201527f476f7665726e616e636520746f6b656e3a206e6f74206d696e7465720000000060448201526064016106b0565b61086d611775565b61087782826117e2565b604051818152339073ffffffffffffffffffffffffffffffffffffffff8416907fb1233017d63154bc561d57c16f7b6a55e2e1acd7fcac94045a9f35fb31a850ca9060200160405180910390a35050565b6108d0611775565b6108d9816118e1565b60405181815233907f62626c8ae1f1f3ad3b2f42ba7b806bbc48e9a59dab06414984113eaab612fe479060200160405180910390a250565b600554604080517ff39e5a47000000000000000000000000000000000000000000000000000000008152905161010090920473ffffffffffffffffffffffffffffffffffffffff16916391d1485491839163f39e5a4791600480820192602092909190829003018186803b15801561098857600080fd5b505afa15801561099c573d6000803e3d6000fd5b505050506040513d601f19601f820116820180604052508101906109c091906122ad565b6040517fffffffff0000000000000000000000000000000000000000000000000000000060e084901b168152600481019190915233602482015260440160206040518083038186803b158015610a1557600080fd5b505afa158015610a29573d6000803e3d6000fd5b505050506040513d601f19601f82011682018060405250810190610a4d91906122c6565b610ab3576040517f08c379a000000000000000000000000000000000000000000000000000000000815260206004820152601c60248201527f476f7665726e616e636520746f6b656e3a206e6f74206275726e65720000000060448201526064016106b0565b610abb611775565b610ac582826118ee565b8173ffffffffffffffffffffffffffffffffffffffff167f62626c8ae1f1f3ad3b2f42ba7b806bbc48e9a59dab06414984113eaab612fe4782604051610b0d91815260200190565b60405180910390a25050565b600554604080517fe63ab1e9000000000000000000000000000000000000000000000000000000008152905161010090920473ffffffffffffffffffffffffffffffffffffffff16916391d1485491839163e63ab1e991600480820192602092909190829003018186803b158015610b9057600080fd5b505afa158015610ba4573d6000803e3d6000fd5b505050506040513d601f19601f82011682018060405250810190610bc891906122ad565b6040517fffffffff0000000000000000000000000000000000000000000000000000000060e084901b168152600481019190915233602482015260440160206040518083038186803b158015610c1d57600080fd5b505afa158015610c31573d6000803e3d6000fd5b505050506040513d601f19601f82011682018060405250810190610c5591906122c6565b610cbb576040517f08c379a000000000000000000000000000000000000000000000000000000000815260206004820152601c60248201527f476f7665726e616e636520746f6b656e3a206e6f74207061757365720000000060448201526064016106b0565b6106c1611abe565b60606009805461040790612212565b33600081815260016020908152604080832073ffffffffffffffffffffffffffffffffffffffff8716845290915281205490919083811015610d96576040517f08c379a000000000000000000000000000000000000000000000000000000000815260206004820152602560248201527f45524332303a2064656372656173656420616c6c6f77616e63652062656c6f7760448201527f207a65726f00000000000000000000000000000000000000000000000000000060648201526084016106b0565b6104bb8286868403611456565b6000336104988185856116e0565b600554604080517fa217fddf000000000000000000000000000000000000000000000000000000008152905161010090920473ffffffffffffffffffffffffffffffffffffffff16916391d1485491839163a217fddf91600480820192602092909190829003018186803b158015610e2857600080fd5b505afa158015610e3c573d6000803e3d6000fd5b505050506040513d601f19601f82011682018060405250810190610e6091906122ad565b6040517fffffffff0000000000000000000000000000000000000000000000000000000060e084901b168152600481019190915233602482015260440160206040518083038186803b158015610eb557600080fd5b505afa158015610ec9573d6000803e3d6000fd5b505050506040513d601f19601f82011682018060405250810190610eed91906122c6565b610f79576040517f08c379a000000000000000000000000000000000000000000000000000000000815260206004820152602560248201527f45524332303a206465706c6f796572206d757374206265206d616e616765722060448201527f61646d696e00000000000000000000000000000000000000000000000000000060648201526084016106b0565b8051610f8c906009906020840190611e98565b5050565b600554604080517fa217fddf000000000000000000000000000000000000000000000000000000008152905161010090920473ffffffffffffffffffffffffffffffffffffffff16916391d1485491839163a217fddf91600480820192602092909190829003018186803b15801561100757600080fd5b505afa15801561101b573d6000803e3d6000fd5b505050506040513d601f19601f8201168201806040525081019061103f91906122ad565b6040517fffffffff0000000000000000000000000000000000000000000000000000000060e084901b168152600481019190915233602482015260440160206040518083038186803b15801561109457600080fd5b505afa1580156110a8573d6000803e3d6000fd5b505050506040513d601f19601f820116820180604052508101906110cc91906122c6565b611158576040517f08c379a000000000000000000000000000000000000000000000000000000000815260206004820152602560248201527f45524332303a206465706c6f796572206d757374206265206d616e616765722060448201527f61646d696e00000000000000000000000000000000000000000000000000000060648201526084016106b0565b8051610f8c906008906020840190611e98565b428410156111d5576040517f08c379a000000000000000000000000000000000000000000000000000000000815260206004820152600f60248201527f446f6c6c61723a2045585049524544000000000000000000000000000000000060448201526064016106b0565b60065473ffffffffffffffffffffffffffffffffffffffff8816600090815260076020526040812080549192917f6e71edae12b1b97f4d1f60370fef10105fa2faae0126114a169c64845d6126c9918b918b918b919087611235836122e8565b9091555060408051602081019690965273ffffffffffffffffffffffffffffffffffffffff94851690860152929091166060840152608083015260a082015260c0810187905260e001604051602081830303815290604052805190602001206040516020016112d69291907f190100000000000000000000000000000000000000000000000000000000000081526002810192909252602282015260420190565b604080517fffffffffffffffffffffffffffffffffffffffffffffffffffffffffffffffe08184030181528282528051602091820120600080855291840180845281905260ff88169284019290925260608301869052608083018590529092509060019060a0016020604051602081039080840390855afa15801561135f573d6000803e3d6000fd5b50506040517fffffffffffffffffffffffffffffffffffffffffffffffffffffffffffffffe0015191505073ffffffffffffffffffffffffffffffffffffffff8116158015906113da57508873ffffffffffffffffffffffffffffffffffffffff168173ffffffffffffffffffffffffffffffffffffffff16145b611440576040517f08c379a000000000000000000000000000000000000000000000000000000000815260206004820152601960248201527f446f6c6c61723a20494e56414c49445f5349474e41545552450000000000000060448201526064016106b0565b61144b898989611456565b505050505050505050565b73ffffffffffffffffffffffffffffffffffffffff83166114f8576040517f08c379a0000000000000000000000000000000000000000000000000000000008152602060048201526024808201527f45524332303a20617070726f76652066726f6d20746865207a65726f2061646460448201527f726573730000000000000000000000000000000000000000000000000000000060648201526084016106b0565b73ffffffffffffffffffffffffffffffffffffffff821661159b576040517f08c379a000000000000000000000000000000000000000000000000000000000815260206004820152602260248201527f45524332303a20617070726f766520746f20746865207a65726f20616464726560448201527f737300000000000000000000000000000000000000000000000000000000000060648201526084016106b0565b73ffffffffffffffffffffffffffffffffffffffff83811660008181526001602090815260408083209487168084529482529182902085905590518481527f8c5be1e5ebec7d5bd14f71427d1e84f3dd0314c0f7b2291e5b200ac8c7c3b925910160405180910390a3505050565b73ffffffffffffffffffffffffffffffffffffffff8381166000908152600160209081526040808320938616835292905220547fffffffffffffffffffffffffffffffffffffffffffffffffffffffffffffffff81146116da57818110156116cd576040517f08c379a000000000000000000000000000000000000000000000000000000000815260206004820152601d60248201527f45524332303a20696e73756666696369656e7420616c6c6f77616e636500000060448201526064016106b0565b6116da8484848403611456565b50505050565b6116e8611775565b6116f3838383611b19565b505050565b611700611d93565b600580547fffffffffffffffffffffffffffffffffffffffffffffffffffffffffffffff001690557f5db9ee0a495bf2e6ff9c91a7834c1ba4fdd244a5e8aa4e537bd38aeae4b073aa335b60405173ffffffffffffffffffffffffffffffffffffffff909116815260200160405180910390a1565b60055460ff16156106c1576040517f08c379a000000000000000000000000000000000000000000000000000000000815260206004820152601060248201527f5061757361626c653a207061757365640000000000000000000000000000000060448201526064016106b0565b73ffffffffffffffffffffffffffffffffffffffff821661185f576040517f08c379a000000000000000000000000000000000000000000000000000000000815260206004820152601f60248201527f45524332303a206d696e7420746f20746865207a65726f20616464726573730060448201526064016106b0565b61186b60008383611dff565b806002600082825461187d9190612295565b909155505073ffffffffffffffffffffffffffffffffffffffff8216600081815260208181526040808320805486019055518481527fddf252ad1be2c89b69c2b068fc378daa952ba7f163c4a11628f55a4df523b3ef910160405180910390a35050565b6118eb33826118ee565b50565b73ffffffffffffffffffffffffffffffffffffffff8216611991576040517f08c379a000000000000000000000000000000000000000000000000000000000815260206004820152602160248201527f45524332303a206275726e2066726f6d20746865207a65726f2061646472657360448201527f730000000000000000000000000000000000000000000000000000000000000060648201526084016106b0565b61199d82600083611dff565b73ffffffffffffffffffffffffffffffffffffffff821660009081526020819052604090205481811015611a53576040517f08c379a000000000000000000000000000000000000000000000000000000000815260206004820152602260248201527f45524332303a206275726e20616d6f756e7420657863656564732062616c616e60448201527f636500000000000000000000000000000000000000000000000000000000000060648201526084016106b0565b73ffffffffffffffffffffffffffffffffffffffff83166000818152602081815260408083208686039055600280548790039055518581529192917fddf252ad1be2c89b69c2b068fc378daa952ba7f163c4a11628f55a4df523b3ef910160405180910390a3505050565b611ac6611775565b600580547fffffffffffffffffffffffffffffffffffffffffffffffffffffffffffffff001660011790557f62e78cea01bee320cd4e420270b5ea74000d11b0c9f74754ebdbfc544b05a25861174b3390565b73ffffffffffffffffffffffffffffffffffffffff8316611bbc576040517f08c379a000000000000000000000000000000000000000000000000000000000815260206004820152602560248201527f45524332303a207472616e736665722066726f6d20746865207a65726f20616460448201527f647265737300000000000000000000000000000000000000000000000000000060648201526084016106b0565b73ffffffffffffffffffffffffffffffffffffffff8216611c5f576040517f08c379a000000000000000000000000000000000000000000000000000000000815260206004820152602360248201527f45524332303a207472616e7366657220746f20746865207a65726f206164647260448201527f657373000000000000000000000000000000000000000000000000000000000060648201526084016106b0565b611c6a838383611dff565b73ffffffffffffffffffffffffffffffffffffffff831660009081526020819052604090205481811015611d20576040517f08c379a000000000000000000000000000000000000000000000000000000000815260206004820152602660248201527f45524332303a207472616e7366657220616d6f756e742065786365656473206260448201527f616c616e6365000000000000000000000000000000000000000000000000000060648201526084016106b0565b73ffffffffffffffffffffffffffffffffffffffff848116600081815260208181526040808320878703905593871680835291849020805487019055925185815290927fddf252ad1be2c89b69c2b068fc378daa952ba7f163c4a11628f55a4df523b3ef910160405180910390a36116da565b60055460ff166106c1576040517f08c379a000000000000000000000000000000000000000000000000000000000815260206004820152601460248201527f5061757361626c653a206e6f742070617573656400000000000000000000000060448201526064016106b0565b6116f383838360055460ff16156116f3576040517f08c379a000000000000000000000000000000000000000000000000000000000815260206004820152602a60248201527f45524332305061757361626c653a20746f6b656e207472616e7366657220776860448201527f696c65207061757365640000000000000000000000000000000000000000000060648201526084016106b0565b828054611ea490612212565b90600052602060002090601f016020900481019282611ec65760008555611f0c565b82601f10611edf57805160ff1916838001178555611f0c565b82800160010185558215611f0c579182015b82811115611f0c578251825591602001919060010190611ef1565b50611f18929150611f1c565b5090565b5b80821115611f185760008155600101611f1d565b600060208083528351808285015260005b81811015611f5e57858101830151858201604001528201611f42565b81811115611f70576000604083870101525b50601f017fffffffffffffffffffffffffffffffffffffffffffffffffffffffffffffffe016929092016040019392505050565b803573ffffffffffffffffffffffffffffffffffffffff81168114611fc857600080fd5b919050565b60008060408385031215611fe057600080fd5b611fe983611fa4565b946020939093013593505050565b60008060006060848603121561200c57600080fd5b61201584611fa4565b925061202360208501611fa4565b9150604084013590509250925092565b60006020828403121561204557600080fd5b5035919050565b60006020828403121561205e57600080fd5b61206782611fa4565b9392505050565b7f4e487b7100000000000000000000000000000000000000000000000000000000600052604160045260246000fd5b6000602082840312156120af57600080fd5b813567ffffffffffffffff808211156120c757600080fd5b818401915084601f8301126120db57600080fd5b8135818111156120ed576120ed61206e565b604051601f82017fffffffffffffffffffffffffffffffffffffffffffffffffffffffffffffffe0908116603f011681019083821181831017156121335761213361206e565b8160405282815287602084870101111561214c57600080fd5b826020860160208301376000928101602001929092525095945050505050565b600080600080600080600060e0888a03121561218757600080fd5b61219088611fa4565b965061219e60208901611fa4565b95506040880135945060608801359350608088013560ff811681146121c257600080fd5b9699959850939692959460a0840135945060c09093013592915050565b600080604083850312156121f257600080fd5b6121fb83611fa4565b915061220960208401611fa4565b90509250929050565b600181811c9082168061222657607f821691505b60208210811415612260577f4e487b7100000000000000000000000000000000000000000000000000000000600052602260045260246000fd5b50919050565b7f4e487b7100000000000000000000000000000000000000000000000000000000600052601160045260246000fd5b600082198211156122a8576122a8612266565b500190565b6000602082840312156122bf57600080fd5b5051919050565b6000602082840312156122d857600080fd5b8151801515811461206757600080fd5b60007fffffffffffffffffffffffffffffffffffffffffffffffffffffffffffffffff82141561231a5761231a612266565b506001019056fea26469706673582212200a7ccb649401e090384ad01f20087e9c7356b3c6c30968b5e39c4ccfe21ef91464736f6c63430008090033",
    "linkReferences": {}
  },
  "methodIdentifiers": {
    "DOMAIN_SEPARATOR()": "3644e515",
    "PERMIT_TYPEHASH()": "30adf81f",
    "allowance(address,address)": "dd62ed3e",
    "approve(address,uint256)": "095ea7b3",
    "balanceOf(address)": "70a08231",
    "burn(uint256)": "42966c68",
    "burnFrom(address,uint256)": "79cc6790",
    "decimals()": "313ce567",
    "decreaseAllowance(address,uint256)": "a457c2d7",
    "increaseAllowance(address,uint256)": "39509351",
    "manager()": "481c6a75",
    "mint(address,uint256)": "40c10f19",
    "name()": "06fdde03",
    "nonces(address)": "7ecebe00",
    "pause()": "8456cb59",
    "paused()": "5c975abb",
    "permit(address,address,uint256,uint256,uint8,bytes32,bytes32)": "d505accf",
    "setName(string)": "c47f0027",
    "setSymbol(string)": "b84c8246",
    "symbol()": "95d89b41",
    "totalSupply()": "18160ddd",
    "transfer(address,uint256)": "a9059cbb",
    "transferFrom(address,address,uint256)": "23b872dd",
    "unpause()": "3f4ba83a"
  },
  "id": 44
}