{
  "abi": [
    {
      "inputs": [
        {
          "internalType": "address",
          "name": "_manager",
          "type": "address"
        },
        {
          "internalType": "address",
          "name": "_jar",
          "type": "address"
        },
        {
          "internalType": "uint256",
          "name": "_fees",
          "type": "uint256"
        },
        {
          "internalType": "uint256",
          "name": "_ubqRate",
          "type": "uint256"
        },
        {
          "internalType": "uint256",
          "name": "_bonusYield",
          "type": "uint256"
        }
      ],
      "stateMutability": "nonpayable",
      "type": "constructor"
    },
    {
      "anonymous": false,
      "inputs": [
        {
          "indexed": true,
          "internalType": "address",
          "name": "_user",
          "type": "address"
        },
        {
          "indexed": false,
          "internalType": "uint256",
          "name": "_amount",
          "type": "uint256"
        },
        {
          "indexed": false,
          "internalType": "uint256",
          "name": "_shares",
          "type": "uint256"
        },
        {
          "indexed": false,
          "internalType": "uint256",
          "name": "_fee",
          "type": "uint256"
        },
        {
          "indexed": false,
          "internalType": "uint256",
          "name": "_ratio",
          "type": "uint256"
        },
        {
          "indexed": false,
          "internalType": "uint256",
          "name": "_uadAmount",
          "type": "uint256"
        },
        {
          "indexed": false,
          "internalType": "uint256",
          "name": "_ubqAmount",
          "type": "uint256"
        },
        {
          "indexed": false,
          "internalType": "uint256",
          "name": "_bonusYield",
          "type": "uint256"
        }
      ],
      "name": "Deposit",
      "type": "event"
    },
    {
      "anonymous": false,
      "inputs": [
        {
          "indexed": false,
          "internalType": "address",
          "name": "_to",
          "type": "address"
        },
        {
          "indexed": false,
          "internalType": "address",
          "name": "token",
          "type": "address"
        },
        {
          "indexed": false,
          "internalType": "uint256",
          "name": "amount",
          "type": "uint256"
        }
      ],
      "name": "DustSent",
      "type": "event"
    },
    {
      "anonymous": false,
      "inputs": [
        {
          "indexed": false,
          "internalType": "address",
          "name": "account",
          "type": "address"
        }
      ],
      "name": "Paused",
      "type": "event"
    },
    {
      "anonymous": false,
      "inputs": [
        {
          "indexed": false,
          "internalType": "address",
          "name": "_token",
          "type": "address"
        }
      ],
      "name": "ProtocolTokenAdded",
      "type": "event"
    },
    {
      "anonymous": false,
      "inputs": [
        {
          "indexed": false,
          "internalType": "address",
          "name": "_token",
          "type": "address"
        }
      ],
      "name": "ProtocolTokenRemoved",
      "type": "event"
    },
    {
      "anonymous": false,
      "inputs": [
        {
          "indexed": false,
          "internalType": "address",
          "name": "account",
          "type": "address"
        }
      ],
      "name": "Unpaused",
      "type": "event"
    },
    {
      "anonymous": false,
      "inputs": [
        {
          "indexed": true,
          "internalType": "address",
          "name": "_user",
          "type": "address"
        },
        {
          "indexed": false,
          "internalType": "uint256",
          "name": "_amount",
          "type": "uint256"
        },
        {
          "indexed": false,
          "internalType": "uint256",
          "name": "_shares",
          "type": "uint256"
        },
        {
          "indexed": false,
          "internalType": "uint256",
          "name": "_fee",
          "type": "uint256"
        },
        {
          "indexed": false,
          "internalType": "uint256",
          "name": "_ratio",
          "type": "uint256"
        },
        {
          "indexed": false,
          "internalType": "uint256",
          "name": "_uadAmount",
          "type": "uint256"
        },
        {
          "indexed": false,
          "internalType": "uint256",
          "name": "_ubqAmount",
          "type": "uint256"
        },
        {
          "indexed": false,
          "internalType": "uint256",
          "name": "_bonusYield",
          "type": "uint256"
        },
        {
          "indexed": false,
          "internalType": "uint256",
          "name": "_uARYield",
          "type": "uint256"
        }
      ],
      "name": "WithdrawAll",
      "type": "event"
    },
    {
      "inputs": [],
      "name": "BONUS_YIELD_MAX",
      "outputs": [
        {
          "internalType": "uint256",
          "name": "",
          "type": "uint256"
        }
      ],
      "stateMutability": "view",
      "type": "function"
    },
    {
      "inputs": [],
      "name": "ETH_ADDRESS",
      "outputs": [
        {
          "internalType": "address",
          "name": "",
          "type": "address"
        }
      ],
      "stateMutability": "view",
      "type": "function"
    },
    {
      "inputs": [],
      "name": "FEES_MAX",
      "outputs": [
        {
          "internalType": "uint256",
          "name": "",
          "type": "uint256"
        }
      ],
      "stateMutability": "view",
      "type": "function"
    },
    {
      "inputs": [],
      "name": "UBQ_RATE_MAX",
      "outputs": [
        {
          "internalType": "uint256",
          "name": "",
          "type": "uint256"
        }
      ],
      "stateMutability": "view",
      "type": "function"
    },
    {
      "inputs": [
        {
          "internalType": "address",
          "name": "_token",
          "type": "address"
        }
      ],
      "name": "addProtocolToken",
      "outputs": [],
      "stateMutability": "nonpayable",
      "type": "function"
    },
    {
      "inputs": [],
      "name": "bonusYield",
      "outputs": [
        {
          "internalType": "uint256",
          "name": "",
          "type": "uint256"
        }
      ],
      "stateMutability": "view",
      "type": "function"
    },
    {
      "inputs": [
        {
          "internalType": "uint256",
          "name": "_amount",
          "type": "uint256"
        },
        {
          "internalType": "uint256",
          "name": "_uadAmount",
          "type": "uint256"
        },
        {
          "internalType": "uint256",
          "name": "_ubqAmount",
          "type": "uint256"
        }
      ],
      "name": "deposit",
      "outputs": [
        {
          "internalType": "bool",
          "name": "",
          "type": "bool"
        }
      ],
      "stateMutability": "nonpayable",
      "type": "function"
    },
    {
      "inputs": [],
      "name": "fees",
      "outputs": [
        {
          "internalType": "uint256",
          "name": "",
          "type": "uint256"
        }
      ],
      "stateMutability": "view",
      "type": "function"
    },
    {
      "inputs": [
        {
          "internalType": "address",
          "name": "_address",
          "type": "address"
        }
      ],
      "name": "getInfo",
      "outputs": [
        {
          "internalType": "uint256[7]",
          "name": "",
          "type": "uint256[7]"
        }
      ],
      "stateMutability": "view",
      "type": "function"
    },
    {
      "inputs": [],
      "name": "jar",
      "outputs": [
        {
          "internalType": "contract IJar",
          "name": "",
          "type": "address"
        }
      ],
      "stateMutability": "view",
      "type": "function"
    },
    {
      "inputs": [],
      "name": "manager",
      "outputs": [
        {
          "internalType": "contract UbiquityAlgorithmicDollarManager",
          "name": "",
          "type": "address"
        }
      ],
      "stateMutability": "view",
      "type": "function"
    },
    {
      "inputs": [],
      "name": "paused",
      "outputs": [
        {
          "internalType": "bool",
          "name": "",
          "type": "bool"
        }
      ],
      "stateMutability": "view",
      "type": "function"
    },
    {
      "inputs": [
        {
          "internalType": "address",
          "name": "_token",
          "type": "address"
        }
      ],
      "name": "removeProtocolToken",
      "outputs": [],
      "stateMutability": "nonpayable",
      "type": "function"
    },
    {
      "inputs": [
        {
          "internalType": "address",
          "name": "_to",
          "type": "address"
        },
        {
          "internalType": "address",
          "name": "_token",
          "type": "address"
        },
        {
          "internalType": "uint256",
          "name": "_amount",
          "type": "uint256"
        }
      ],
      "name": "sendDust",
      "outputs": [],
      "stateMutability": "nonpayable",
      "type": "function"
    },
    {
      "inputs": [
        {
          "internalType": "uint256",
          "name": "_fees",
          "type": "uint256"
        }
      ],
      "name": "setDepositFees",
      "outputs": [],
      "stateMutability": "nonpayable",
      "type": "function"
    },
    {
      "inputs": [
        {
          "internalType": "address",
          "name": "_jar",
          "type": "address"
        }
      ],
      "name": "setJar",
      "outputs": [],
      "stateMutability": "nonpayable",
      "type": "function"
    },
    {
      "inputs": [
        {
          "internalType": "uint256",
          "name": "_ubqRate",
          "type": "uint256"
        }
      ],
      "name": "setUBQRate",
      "outputs": [],
      "stateMutability": "nonpayable",
      "type": "function"
    },
    {
      "inputs": [],
      "name": "token",
      "outputs": [
        {
          "internalType": "contract ERC20",
          "name": "",
          "type": "address"
        }
      ],
      "stateMutability": "view",
      "type": "function"
    },
    {
      "inputs": [],
      "name": "ubqMaxAmount",
      "outputs": [
        {
          "internalType": "uint256",
          "name": "",
          "type": "uint256"
        }
      ],
      "stateMutability": "view",
      "type": "function"
    },
    {
      "inputs": [],
      "name": "ubqRate",
      "outputs": [
        {
          "internalType": "uint256",
          "name": "",
          "type": "uint256"
        }
      ],
      "stateMutability": "view",
      "type": "function"
    },
    {
      "inputs": [],
      "name": "withdrawAll",
      "outputs": [
        {
          "internalType": "bool",
          "name": "",
          "type": "bool"
        }
      ],
      "stateMutability": "nonpayable",
      "type": "function"
    }
  ],
  "bytecode": {
    "object": "0x60806040523480156200001157600080fd5b50604051620039983803806200399883398101604081905262000034916200020c565b60016000556003805460ff19169055600a80546001600160a01b038088166001600160a01b031992831617909255600685905560048054928716929091168217815560408051637e062a3560e11b8152905163fc0c546a92828101926020929190829003018186803b158015620000aa57600080fd5b505afa158015620000bf573d6000803e3d6000fd5b505050506040513d601f19601f82011682018060405250810190620000e591906200025f565b600360016101000a8154816001600160a01b0302191690836001600160a01b031602179055506013600360019054906101000a90046001600160a01b03166001600160a01b031663313ce5676040518163ffffffff1660e01b815260040160206040518083038186803b1580156200015c57600080fd5b505afa15801562000171573d6000803e3d6000fd5b505050506040513d601f19601f8201168201806040525081019062000197919062000284565b60ff1610620001aa57620001aa620002a9565b6007829055600581905581620001d469021e19e0c9bab240000068056bc75e2d63100000620002bf565b620001e09190620002ed565b60085550620003109350505050565b80516001600160a01b03811681146200020757600080fd5b919050565b600080600080600060a086880312156200022557600080fd5b6200023086620001ef565b94506200024060208701620001ef565b6040870151606088015160809098015196999198509695945092505050565b6000602082840312156200027257600080fd5b6200027d82620001ef565b9392505050565b6000602082840312156200029757600080fd5b815160ff811681146200027d57600080fd5b634e487b7160e01b600052600160045260246000fd5b6000816000190483118215151615620002e857634e487b7160e01b600052601160045260246000fd5b500290565b6000826200030b57634e487b7160e01b600052601260045260246000fd5b500490565b61367880620003206000396000f3fe608060405234801561001057600080fd5b50600436106101765760003560e01c8063a734f06e116100d8578063e34bad3f1161008c578063fa3305c911610066578063fa3305c9146102ed578063fc0c546a14610300578063ffdd5cf11461032557600080fd5b8063e34bad3f146102c8578063f159e287146102d1578063f6f482aa146102da57600080fd5b8063be38a4fe116100bd578063be38a4fe14610282578063bf0d68e4146102a2578063c4de21ff146102b557600080fd5b8063a734f06e14610256578063ada5b0df1461027157600080fd5b8063572af87d1161012f5780637e9bcdf5116101145780637e9bcdf51461023c578063853828b6146102455780639af1d35a1461024d57600080fd5b8063572af87d146102275780635c975abb1461023157600080fd5b80632db8c129116101605780632db8c129146101b8578063481c6a75146101cb5780634d72b0a71461021057600080fd5b8062aeef8a1461017b578063278188d6146101a3575b600080fd5b61018e610189366004613183565b610345565b60405190151581526020015b60405180910390f35b6101b66101b13660046131af565b610b77565b005b6101b66101c63660046131ea565b610e31565b600a546101eb9073ffffffffffffffffffffffffffffffffffffffff1681565b60405173ffffffffffffffffffffffffffffffffffffffff909116815260200161019a565b61021960075481565b60405190815260200161019a565b610219620186a081565b60035460ff1661018e565b61021960055481565b61018e610fdf565b61021960065481565b6101eb73eeeeeeeeeeeeeeeeeeeeeeeeeeeeeeeeeeeeeeee81565b61021969021e19e0c9bab240000081565b6004546101eb9073ffffffffffffffffffffffffffffffffffffffff1681565b6101b66102b036600461322b565b611c54565b6101b66102c33660046131af565b611dfe565b61021960085481565b61021961271081565b6101b66102e836600461322b565b61200d565b6101b66102fb36600461322b565b612332565b6003546101eb90610100900473ffffffffffffffffffffffffffffffffffffffff1681565b61033861033336600461322b565b6124d9565b60405161019a9190613248565b600061034f6125cc565b600084116103be576040517f08c379a000000000000000000000000000000000000000000000000000000000815260206004820152601560248201527f5969656c6450726f78793a3a616d6f756e743d3d30000000000000000000000060448201526064015b60405180910390fd5b336000908152600960205260409020805415610436576040517f08c379a000000000000000000000000000000000000000000000000000000000815260206004820152601560248201527f5969656c6450726f78793a3a4465706f4578697374000000000000000000000060448201526064016103b5565b6000808690506012600360019054906101000a900473ffffffffffffffffffffffffffffffffffffffff1673ffffffffffffffffffffffffffffffffffffffff1663313ce5676040518163ffffffff1660e01b815260040160206040518083038186803b1580156104a657600080fd5b505afa1580156104ba573d6000803e3d6000fd5b505050506040513d601f19601f820116820180604052508101906104de9190613279565b60ff1610156105aa57600360019054906101000a900473ffffffffffffffffffffffffffffffffffffffff1673ffffffffffffffffffffffffffffffffffffffff1663313ce5676040518163ffffffff1660e01b815260040160206040518083038186803b15801561054f57600080fd5b505afa158015610563573d6000803e3d6000fd5b505050506040513d601f19601f820116820180604052508101906105879190613279565b6105929060126132cb565b61059d90600a61340e565b6105a7908861341d565b90505b60085485101561062a57600069021e19e0c9bab2400000866007546105cf919061341d565b6105d9919061345a565b9050620186a0600654896105ed919061341d565b6105f7919061345a565b9250600068056bc75e2d6310000061060f838661341d565b610619919061345a565b90506106258185613495565b935050505b612710600061063a60028461345a565b9050808810156106a857600081610651818b6134ac565b6106649068056bc75e2d6310000061341d565b61066e919061345a565b905068056bc75e2d6310000081600554610688919061341d565b610692919061345a565b92506127108311156106a6576106a66134c4565b505b60048086018590558986558054604080517fec1ebd7a000000000000000000000000000000000000000000000000000000008152905173ffffffffffffffffffffffffffffffffffffffff9092169263ec1ebd7a928282019260209290829003018186803b15801561071957600080fd5b505afa15801561072d573d6000803e3d6000fd5b505050506040513d601f19601f8201168201806040525081019061075191906134f3565b6005860155600285018890556003808601889055600686018390555461079490610100900473ffffffffffffffffffffffffffffffffffffffff1633308c612640565b600480546040517f70a08231000000000000000000000000000000000000000000000000000000008152309281019290925260009173ffffffffffffffffffffffffffffffffffffffff909116906370a082319060240160206040518083038186803b15801561080357600080fd5b505afa158015610817573d6000803e3d6000fd5b505050506040513d601f19601f8201168201806040525081019061083b91906134f3565b60045460035491925061086d91610100900473ffffffffffffffffffffffffffffffffffffffff90811691168c612722565b600480546040517fb6b55f250000000000000000000000000000000000000000000000000000000081529182018c905273ffffffffffffffffffffffffffffffffffffffff169063b6b55f2590602401600060405180830381600087803b1580156108d757600080fd5b505af11580156108eb573d6000803e3d6000fd5b5050600480546040517f70a08231000000000000000000000000000000000000000000000000000000008152309281019290925284935073ffffffffffffffffffffffffffffffffffffffff1691506370a082319060240160206040518083038186803b15801561095b57600080fd5b505afa15801561096f573d6000803e3d6000fd5b505050506040513d601f19601f8201168201806040525081019061099391906134f3565b61099d9190613495565b60018701558815610a6c57610a6c33308b600a60009054906101000a900473ffffffffffffffffffffffffffffffffffffffff1673ffffffffffffffffffffffffffffffffffffffff1663bc3ea0186040518163ffffffff1660e01b815260040160206040518083038186803b158015610a1657600080fd5b505afa158015610a2a573d6000803e3d6000fd5b505050506040513d601f19601f82011682018060405250810190610a4e919061350c565b73ffffffffffffffffffffffffffffffffffffffff16929190612640565b8715610ae057610ae033308a600a60009054906101000a900473ffffffffffffffffffffffffffffffffffffffff1673ffffffffffffffffffffffffffffffffffffffff1663b42165d06040518163ffffffff1660e01b815260040160206040518083038186803b158015610a1657600080fd5b855460018701546004880154600589015460028a015460038b015460068c0154604080519788526020880196909652948601939093526060850191909152608084015260a083015260c082015233907f65b7b85cb51750af94dfd9985b1f2ab59acaeaf63a242f2415e0b4c84b657ee09060e00160405180910390a260019650505050505050610b706001600055565b9392505050565b600a54604080517fa217fddf000000000000000000000000000000000000000000000000000000008152905173ffffffffffffffffffffffffffffffffffffffff909216916391d1485491839163a217fddf91600480820192602092909190829003018186803b158015610bea57600080fd5b505afa158015610bfe573d6000803e3d6000fd5b505050506040513d601f19601f82011682018060405250810190610c2291906134f3565b6040517fffffffff0000000000000000000000000000000000000000000000000000000060e084901b168152600481019190915233602482015260440160206040518083038186803b158015610c7757600080fd5b505afa158015610c8b573d6000803e3d6000fd5b505050506040513d601f19601f82011682018060405250810190610caf9190613529565b610d15576040517f08c379a000000000000000000000000000000000000000000000000000000000815260206004820152601260248201527f5969656c6450726f78793a3a2161646d696e000000000000000000000000000060448201526064016103b5565b600754811415610d81576040517f08c379a000000000000000000000000000000000000000000000000000000000815260206004820152601660248201527f5969656c6450726f78793a3a3d3d3d756271526174650000000000000000000060448201526064016103b5565b69021e19e0c9bab2400000811115610df5576040517f08c379a000000000000000000000000000000000000000000000000000000000815260206004820152601760248201527f5969656c6450726f78793a3a3e756271526174654d415800000000000000000060448201526064016103b5565b6007819055610e0e8169021e19e0c9bab240000061345a565b610e1990606461341d565b610e2b90670de0b6b3a764000061341d565b60085550565b600a54604080517fa217fddf000000000000000000000000000000000000000000000000000000008152905173ffffffffffffffffffffffffffffffffffffffff909216916391d1485491839163a217fddf91600480820192602092909190829003018186803b158015610ea457600080fd5b505afa158015610eb8573d6000803e3d6000fd5b505050506040513d601f19601f82011682018060405250810190610edc91906134f3565b6040517fffffffff0000000000000000000000000000000000000000000000000000000060e084901b168152600481019190915233602482015260440160206040518083038186803b158015610f3157600080fd5b505afa158015610f45573d6000803e3d6000fd5b505050506040513d601f19601f82011682018060405250810190610f699190613529565b610fcf576040517f08c379a000000000000000000000000000000000000000000000000000000000815260206004820152601260248201527f5969656c6450726f78793a3a2161646d696e000000000000000000000000000060448201526064016103b5565b610fda83838361282f565b505050565b6000610fe96125cc565b3360009081526009602052604090208054611060576040517f08c379a000000000000000000000000000000000000000000000000000000000815260206004820152601560248201527f5969656c6450726f78793a3a616d6f756e743d3d30000000000000000000000060448201526064016103b5565b8054600480830154600354604080517f313ce5670000000000000000000000000000000000000000000000000000000081529051929360129361010090930473ffffffffffffffffffffffffffffffffffffffff169263313ce567928083019260209291829003018186803b1580156110d857600080fd5b505afa1580156110ec573d6000803e3d6000fd5b505050506040513d601f19601f820116820180604052508101906111109190613279565b60ff1610156112a557600360019054906101000a900473ffffffffffffffffffffffffffffffffffffffff1673ffffffffffffffffffffffffffffffffffffffff1663313ce5676040518163ffffffff1660e01b815260040160206040518083038186803b15801561118157600080fd5b505afa158015611195573d6000803e3d6000fd5b505050506040513d601f19601f820116820180604052508101906111b99190613279565b6111c49060126132cb565b6111cf90600a61340e565b83546111db919061341d565b9150600360019054906101000a900473ffffffffffffffffffffffffffffffffffffffff1673ffffffffffffffffffffffffffffffffffffffff1663313ce5676040518163ffffffff1660e01b815260040160206040518083038186803b15801561124557600080fd5b505afa158015611259573d6000803e3d6000fd5b505050506040513d601f19601f8201168201806040525081019061127d9190613279565b6112889060126132cb565b61129390600a61340e565b83600401546112a2919061341d565b90505b60008360050154600460009054906101000a900473ffffffffffffffffffffffffffffffffffffffff1673ffffffffffffffffffffffffffffffffffffffff1663ec1ebd7a6040518163ffffffff1660e01b815260040160206040518083038186803b15801561131457600080fd5b505afa158015611328573d6000803e3d6000fd5b505050506040513d601f19601f8201168201806040525081019061134c91906134f3565b611356908561341d565b611360919061345a565b9050600080848311156113b8576006860154612710906113808786613495565b61138a919061341d565b611394919061345a565b9150836113a18685613495565b6113ab90846134ac565b6113b591906134ac565b90505b600060068701819055600487015487546113d29190613495565b60006004898101829055818a5560058a0191909155805460018a01546040517f2e1a7d4d0000000000000000000000000000000000000000000000000000000081529283015291925073ffffffffffffffffffffffffffffffffffffffff90911690632e1a7d4d90602401600060405180830381600087803b15801561145757600080fd5b505af115801561146b573d6000803e3d6000fd5b5050600060018a015550506002870154156115d057600a60009054906101000a900473ffffffffffffffffffffffffffffffffffffffff1673ffffffffffffffffffffffffffffffffffffffff1663bc3ea0186040518163ffffffff1660e01b815260040160206040518083038186803b1580156114e857600080fd5b505afa1580156114fc573d6000803e3d6000fd5b505050506040513d601f19601f82011682018060405250810190611520919061350c565b60028801546040517fa9059cbb000000000000000000000000000000000000000000000000000000008152336004820152602481019190915273ffffffffffffffffffffffffffffffffffffffff919091169063a9059cbb90604401602060405180830381600087803b15801561159657600080fd5b505af11580156115aa573d6000803e3d6000fd5b505050506040513d601f19601f820116820180604052508101906115ce9190613529565b505b6000600288015560038701541561173157600a60009054906101000a900473ffffffffffffffffffffffffffffffffffffffff1673ffffffffffffffffffffffffffffffffffffffff1663b42165d06040518163ffffffff1660e01b815260040160206040518083038186803b15801561164957600080fd5b505afa15801561165d573d6000803e3d6000fd5b505050506040513d601f19601f82011682018060405250810190611681919061350c565b60038801546040517fa9059cbb000000000000000000000000000000000000000000000000000000008152336004820152602481019190915273ffffffffffffffffffffffffffffffffffffffff919091169063a9059cbb90604401602060405180830381600087803b1580156116f757600080fd5b505af115801561170b573d6000803e3d6000fd5b505050506040513d601f19601f8201168201806040525081019061172f9190613529565b505b6000600388810191909155546040517fa9059cbb0000000000000000000000000000000000000000000000000000000081523360048201526024810183905261010090910473ffffffffffffffffffffffffffffffffffffffff169063a9059cbb90604401602060405180830381600087803b1580156117b057600080fd5b505af11580156117c4573d6000803e3d6000fd5b505050506040513d601f19601f820116820180604052508101906117e89190613529565b50600354600a54604080517fc5f956af000000000000000000000000000000000000000000000000000000008152905173ffffffffffffffffffffffffffffffffffffffff61010090940484169363a9059cbb93169163c5f956af916004808301926020929190829003018186803b15801561186357600080fd5b505afa158015611877573d6000803e3d6000fd5b505050506040513d601f19601f8201168201806040525081019061189b919061350c565b6003546040517f70a0823100000000000000000000000000000000000000000000000000000000815230600482015261010090910473ffffffffffffffffffffffffffffffffffffffff16906370a082319060240160206040518083038186803b15801561190857600080fd5b505afa15801561191c573d6000803e3d6000fd5b505050506040513d601f19601f8201168201806040525081019061194091906134f3565b6040517fffffffff0000000000000000000000000000000000000000000000000000000060e085901b16815273ffffffffffffffffffffffffffffffffffffffff90921660048301526024820152604401602060405180830381600087803b1580156119ab57600080fd5b505af11580156119bf573d6000803e3d6000fd5b505050506040513d601f19601f820116820180604052508101906119e39190613529565b50600a54604080517f3ae3d9a4000000000000000000000000000000000000000000000000000000008152905160009273ffffffffffffffffffffffffffffffffffffffff1691633ae3d9a4916004808301926020929190829003018186803b158015611a4f57600080fd5b505afa158015611a63573d6000803e3d6000fd5b505050506040513d601f19601f82011682018060405250810190611a87919061350c565b6040517f40c10f190000000000000000000000000000000000000000000000000000000081523060048201526024810185905290915073ffffffffffffffffffffffffffffffffffffffff8216906340c10f1990604401600060405180830381600087803b158015611af857600080fd5b505af1158015611b0c573d6000803e3d6000fd5b50506040517fa9059cbb0000000000000000000000000000000000000000000000000000000081523360048201526024810186905273ffffffffffffffffffffffffffffffffffffffff8416925063a9059cbb9150604401602060405180830381600087803b158015611b7e57600080fd5b505af1158015611b92573d6000803e3d6000fd5b505050506040513d601f19601f82011682018060405250810190611bb69190613529565b508754600189015460048a015460058b015460028c015460038d015460068e0154604080519788526020880196909652948601939093526060850191909152608084015260a083015260c082015260e0810184905233907ff7cb8fce12fe949c9a4a6407e6d597806d10fc3b98b10b0d2de66b58e6e76cef906101000160405180910390a2600198505050505050505050611c516001600055565b90565b600a54604080517fa217fddf000000000000000000000000000000000000000000000000000000008152905173ffffffffffffffffffffffffffffffffffffffff909216916391d1485491839163a217fddf91600480820192602092909190829003018186803b158015611cc757600080fd5b505afa158015611cdb573d6000803e3d6000fd5b505050506040513d601f19601f82011682018060405250810190611cff91906134f3565b6040517fffffffff0000000000000000000000000000000000000000000000000000000060e084901b168152600481019190915233602482015260440160206040518083038186803b158015611d5457600080fd5b505afa158015611d68573d6000803e3d6000fd5b505050506040513d601f19601f82011682018060405250810190611d8c9190613529565b611df2576040517f08c379a000000000000000000000000000000000000000000000000000000000815260206004820152601260248201527f5969656c6450726f78793a3a2161646d696e000000000000000000000000000060448201526064016103b5565b611dfb81612a63565b50565b600a54604080517fa217fddf000000000000000000000000000000000000000000000000000000008152905173ffffffffffffffffffffffffffffffffffffffff909216916391d1485491839163a217fddf91600480820192602092909190829003018186803b158015611e7157600080fd5b505afa158015611e85573d6000803e3d6000fd5b505050506040513d601f19601f82011682018060405250810190611ea991906134f3565b6040517fffffffff0000000000000000000000000000000000000000000000000000000060e084901b168152600481019190915233602482015260440160206040518083038186803b158015611efe57600080fd5b505afa158015611f12573d6000803e3d6000fd5b505050506040513d601f19601f82011682018060405250810190611f369190613529565b611f9c576040517f08c379a000000000000000000000000000000000000000000000000000000000815260206004820152601260248201527f5969656c6450726f78793a3a2161646d696e000000000000000000000000000060448201526064016103b5565b600654811415612008576040517f08c379a000000000000000000000000000000000000000000000000000000000815260206004820152601360248201527f5969656c6450726f78793a3a3d3d3d666565730000000000000000000000000060448201526064016103b5565b600655565b600a54604080517fa217fddf000000000000000000000000000000000000000000000000000000008152905173ffffffffffffffffffffffffffffffffffffffff909216916391d1485491839163a217fddf91600480820192602092909190829003018186803b15801561208057600080fd5b505afa158015612094573d6000803e3d6000fd5b505050506040513d601f19601f820116820180604052508101906120b891906134f3565b6040517fffffffff0000000000000000000000000000000000000000000000000000000060e084901b168152600481019190915233602482015260440160206040518083038186803b15801561210d57600080fd5b505afa158015612121573d6000803e3d6000fd5b505050506040513d601f19601f820116820180604052508101906121459190613529565b6121ab576040517f08c379a000000000000000000000000000000000000000000000000000000000815260206004820152601260248201527f5969656c6450726f78793a3a2161646d696e000000000000000000000000000060448201526064016103b5565b73ffffffffffffffffffffffffffffffffffffffff8116612228576040517f08c379a000000000000000000000000000000000000000000000000000000000815260206004820152601060248201527f5969656c6450726f78793a3a214a61720000000000000000000000000000000060448201526064016103b5565b600480547fffffffffffffffffffffffff00000000000000000000000000000000000000001673ffffffffffffffffffffffffffffffffffffffff83169081178255604080517ffc0c546a0000000000000000000000000000000000000000000000000000000081529051919263fc0c546a928282019260209290829003018186803b1580156122b757600080fd5b505afa1580156122cb573d6000803e3d6000fd5b505050506040513d601f19601f820116820180604052508101906122ef919061350c565b600360016101000a81548173ffffffffffffffffffffffffffffffffffffffff021916908373ffffffffffffffffffffffffffffffffffffffff16021790555050565b600a54604080517fa217fddf000000000000000000000000000000000000000000000000000000008152905173ffffffffffffffffffffffffffffffffffffffff909216916391d1485491839163a217fddf91600480820192602092909190829003018186803b1580156123a557600080fd5b505afa1580156123b9573d6000803e3d6000fd5b505050506040513d601f19601f820116820180604052508101906123dd91906134f3565b6040517fffffffff0000000000000000000000000000000000000000000000000000000060e084901b168152600481019190915233602482015260440160206040518083038186803b15801561243257600080fd5b505afa158015612446573d6000803e3d6000fd5b505050506040513d601f19601f8201168201806040525081019061246a9190613529565b6124d0576040517f08c379a000000000000000000000000000000000000000000000000000000000815260206004820152601260248201527f5969656c6450726f78793a3a2161646d696e000000000000000000000000000060448201526064016103b5565b611dfb81612b53565b6124e1613165565b6000600960008473ffffffffffffffffffffffffffffffffffffffff1673ffffffffffffffffffffffffffffffffffffffff1681526020019081526020016000206040518060e001604052908160008201548152602001600182015481526020016002820154815260200160038201548152602001600482015481526020016005820154815260200160068201548152505090506040518060e0016040528082600001518152602001826020015181526020018260400151815260200182606001518152602001826080015181526020018260a0015181526020018260c00151815250915050919050565b60026000541415612639576040517f08c379a000000000000000000000000000000000000000000000000000000000815260206004820152601f60248201527f5265656e7472616e637947756172643a207265656e7472616e742063616c6c0060448201526064016103b5565b6002600055565b60405173ffffffffffffffffffffffffffffffffffffffff8085166024830152831660448201526064810182905261271c9085907f23b872dd00000000000000000000000000000000000000000000000000000000906084015b604080517fffffffffffffffffffffffffffffffffffffffffffffffffffffffffffffffe08184030181529190526020810180517bffffffffffffffffffffffffffffffffffffffffffffffffffffffff167fffffffff0000000000000000000000000000000000000000000000000000000090931692909217909152612c3d565b50505050565b6040517fdd62ed3e00000000000000000000000000000000000000000000000000000000815230600482015273ffffffffffffffffffffffffffffffffffffffff8381166024830152600091839186169063dd62ed3e9060440160206040518083038186803b15801561279457600080fd5b505afa1580156127a8573d6000803e3d6000fd5b505050506040513d601f19601f820116820180604052508101906127cc91906134f3565b6127d691906134ac565b60405173ffffffffffffffffffffffffffffffffffffffff851660248201526044810182905290915061271c9085907f095ea7b3000000000000000000000000000000000000000000000000000000009060640161269a565b73ffffffffffffffffffffffffffffffffffffffff83166128d2576040517f08c379a000000000000000000000000000000000000000000000000000000000815260206004820152603060248201527f636f6c6c65637461626c652d647573743a3a63616e742d73656e642d6475737460448201527f2d746f2d7a65726f2d616464726573730000000000000000000000000000000060648201526084016103b5565b6128dd600183612d49565b1561296a576040517f08c379a000000000000000000000000000000000000000000000000000000000815260206004820152602f60248201527f636f6c6c65637461626c652d647573743a3a746f6b656e2d69732d706172742d60448201527f6f662d7468652d70726f746f636f6c000000000000000000000000000000000060648201526084016103b5565b73ffffffffffffffffffffffffffffffffffffffff821673eeeeeeeeeeeeeeeeeeeeeeeeeeeeeeeeeeeeeeee14156129e55760405173ffffffffffffffffffffffffffffffffffffffff84169082156108fc029083906000818181858888f193505050501580156129df573d6000803e3d6000fd5b50612a06565b612a0673ffffffffffffffffffffffffffffffffffffffff83168483612d7d565b6040805173ffffffffffffffffffffffffffffffffffffffff8086168252841660208201529081018290527f1e34c1aee8e83c2dcc14c21bb4bfeea7f46c0c998cb797ac7cc4d7a18f5c656b9060600160405180910390a1505050565b612a6e600182612d49565b612afa576040517f08c379a000000000000000000000000000000000000000000000000000000000815260206004820152603060248201527f636f6c6c65637461626c652d647573743a3a746f6b656e2d6e6f742d7061727460448201527f2d6f662d7468652d70726f746f636f6c0000000000000000000000000000000060648201526084016103b5565b612b05600182612dd3565b5060405173ffffffffffffffffffffffffffffffffffffffff821681527fddd12a8c3ce9bea5c97a5d25c8b777caab85752828f56b7b8ad5a0b30340a25f906020015b60405180910390a150565b612b5e600182612d49565b15612beb576040517f08c379a000000000000000000000000000000000000000000000000000000000815260206004820152602f60248201527f636f6c6c65637461626c652d647573743a3a746f6b656e2d69732d706172742d60448201527f6f662d7468652d70726f746f636f6c000000000000000000000000000000000060648201526084016103b5565b612bf6600182612df5565b5060405173ffffffffffffffffffffffffffffffffffffffff821681527fa3e4ba856dd0fdee3a33ab9b82499fd01f05236f3d08cc4e7108698c6e3e7e5090602001612b48565b6000612c9f826040518060400160405280602081526020017f5361666545524332303a206c6f772d6c6576656c2063616c6c206661696c65648152508573ffffffffffffffffffffffffffffffffffffffff16612e179092919063ffffffff16565b805190915015610fda5780806020019051810190612cbd9190613529565b610fda576040517f08c379a000000000000000000000000000000000000000000000000000000000815260206004820152602a60248201527f5361666545524332303a204552433230206f7065726174696f6e20646964206e60448201527f6f7420737563636565640000000000000000000000000000000000000000000060648201526084016103b5565b73ffffffffffffffffffffffffffffffffffffffff8116600090815260018301602052604081205415155b90505b92915050565b60405173ffffffffffffffffffffffffffffffffffffffff8316602482015260448101829052610fda9084907fa9059cbb000000000000000000000000000000000000000000000000000000009060640161269a565b6000612d748373ffffffffffffffffffffffffffffffffffffffff8416612e2e565b6000612d748373ffffffffffffffffffffffffffffffffffffffff8416612f21565b6060612e268484600085612f70565b949350505050565b60008181526001830160205260408120548015612f17576000612e52600183613495565b8554909150600090612e6690600190613495565b9050818114612ecb576000866000018281548110612e8657612e8661354b565b9060005260206000200154905080876000018481548110612ea957612ea961354b565b6000918252602080832090910192909255918252600188019052604090208390555b8554869080612edc57612edc61357a565b600190038181906000526020600020016000905590558560010160008681526020019081526020016000206000905560019350505050612d77565b6000915050612d77565b6000818152600183016020526040812054612f6857508154600181810184556000848152602080822090930184905584548482528286019093526040902091909155612d77565b506000612d77565b606082471015613002576040517f08c379a000000000000000000000000000000000000000000000000000000000815260206004820152602660248201527f416464726573733a20696e73756666696369656e742062616c616e636520666f60448201527f722063616c6c000000000000000000000000000000000000000000000000000060648201526084016103b5565b6000808673ffffffffffffffffffffffffffffffffffffffff16858760405161302b91906135d5565b60006040518083038185875af1925050503d8060008114613068576040519150601f19603f3d011682016040523d82523d6000602084013e61306d565b606091505b509150915061307e87838387613089565b979650505050505050565b6060831561311c5782516131155773ffffffffffffffffffffffffffffffffffffffff85163b613115576040517f08c379a000000000000000000000000000000000000000000000000000000000815260206004820152601d60248201527f416464726573733a2063616c6c20746f206e6f6e2d636f6e747261637400000060448201526064016103b5565b5081612e26565b612e2683838151156131315781518083602001fd5b806040517f08c379a00000000000000000000000000000000000000000000000000000000081526004016103b591906135f1565b6040518060e001604052806007906020820280368337509192915050565b60008060006060848603121561319857600080fd5b505081359360208301359350604090920135919050565b6000602082840312156131c157600080fd5b5035919050565b73ffffffffffffffffffffffffffffffffffffffff81168114611dfb57600080fd5b6000806000606084860312156131ff57600080fd5b833561320a816131c8565b9250602084013561321a816131c8565b929592945050506040919091013590565b60006020828403121561323d57600080fd5b8135610b70816131c8565b60e08101818360005b6007811015613270578151835260209283019290910190600101613251565b50505092915050565b60006020828403121561328b57600080fd5b815160ff81168114610b7057600080fd5b7f4e487b7100000000000000000000000000000000000000000000000000000000600052601160045260246000fd5b600060ff821660ff8416808210156132e5576132e561329c565b90039392505050565b600181815b8085111561334757817fffffffffffffffffffffffffffffffffffffffffffffffffffffffffffffffff0482111561332d5761332d61329c565b8085161561333a57918102915b93841c93908002906132f3565b509250929050565b60008261335e57506001612d77565b8161336b57506000612d77565b8160018114613381576002811461338b576133a7565b6001915050612d77565b60ff84111561339c5761339c61329c565b50506001821b612d77565b5060208310610133831016604e8410600b84101617156133ca575081810a612d77565b6133d483836132ee565b807fffffffffffffffffffffffffffffffffffffffffffffffffffffffffffffffff048211156134065761340661329c565b029392505050565b6000612d7460ff84168361334f565b6000817fffffffffffffffffffffffffffffffffffffffffffffffffffffffffffffffff04831182151516156134555761345561329c565b500290565b600082613490577f4e487b7100000000000000000000000000000000000000000000000000000000600052601260045260246000fd5b500490565b6000828210156134a7576134a761329c565b500390565b600082198211156134bf576134bf61329c565b500190565b7f4e487b7100000000000000000000000000000000000000000000000000000000600052600160045260246000fd5b60006020828403121561350557600080fd5b5051919050565b60006020828403121561351e57600080fd5b8151610b70816131c8565b60006020828403121561353b57600080fd5b81518015158114610b7057600080fd5b7f4e487b7100000000000000000000000000000000000000000000000000000000600052603260045260246000fd5b7f4e487b7100000000000000000000000000000000000000000000000000000000600052603160045260246000fd5b60005b838110156135c45781810151838201526020016135ac565b8381111561271c5750506000910152565b600082516135e78184602087016135a9565b9190910192915050565b60208152600082518060208401526136108160408501602087016135a9565b601f017fffffffffffffffffffffffffffffffffffffffffffffffffffffffffffffffe016919091016040019291505056fea26469706673582212204193b5bc36e79470dcf805d1da2f158862f7437f9d19c8a95eadd7d7226c844464736f6c63430008090033",
    "linkReferences": {}
  },
  "methodIdentifiers": {
    "BONUS_YIELD_MAX()": "f159e287",
    "ETH_ADDRESS()": "a734f06e",
    "FEES_MAX()": "572af87d",
    "UBQ_RATE_MAX()": "ada5b0df",
    "addProtocolToken(address)": "fa3305c9",
    "bonusYield()": "7e9bcdf5",
    "deposit(uint256,uint256,uint256)": "00aeef8a",
    "fees()": "9af1d35a",
    "getInfo(address)": "ffdd5cf1",
    "jar()": "be38a4fe",
    "manager()": "481c6a75",
    "paused()": "5c975abb",
    "removeProtocolToken(address)": "bf0d68e4",
    "sendDust(address,address,uint256)": "2db8c129",
    "setDepositFees(uint256)": "c4de21ff",
    "setJar(address)": "f6f482aa",
    "setUBQRate(uint256)": "278188d6",
    "token()": "fc0c546a",
    "ubqMaxAmount()": "e34bad3f",
    "ubqRate()": "4d72b0a7",
    "withdrawAll()": "853828b6"
  },
  "id": 62
}