{
  "abi": [
    {
      "inputs": [
        {
          "internalType": "address",
          "name": "_manager",
          "type": "address"
        },
        {
          "internalType": "address[]",
          "name": "_tos",
          "type": "address[]"
        },
        {
          "internalType": "uint256[]",
          "name": "_amounts",
          "type": "uint256[]"
        },
        {
          "internalType": "uint256[]",
          "name": "_bondingShareIDs",
          "type": "uint256[]"
        }
      ],
      "stateMutability": "nonpayable",
      "type": "constructor"
    },
    {
      "anonymous": false,
      "inputs": [
        {
          "indexed": true,
          "internalType": "address",
          "name": "user",
          "type": "address"
        },
        {
          "indexed": false,
          "internalType": "uint256",
          "name": "amount",
          "type": "uint256"
        },
        {
          "indexed": true,
          "internalType": "uint256",
          "name": "bondingShareId",
          "type": "uint256"
        }
      ],
      "name": "Deposit",
      "type": "event"
    },
    {
      "anonymous": false,
      "inputs": [
        {
          "indexed": true,
          "internalType": "uint256",
          "name": "minPriceDiffToUpdateMultiplier",
          "type": "uint256"
        }
      ],
      "name": "MinPriceDiffToUpdateMultiplierModified",
      "type": "event"
    },
    {
      "anonymous": false,
      "inputs": [
        {
          "indexed": true,
          "internalType": "uint256",
          "name": "uGOVPerBlock",
          "type": "uint256"
        }
      ],
      "name": "UGOVPerBlockModified",
      "type": "event"
    },
    {
      "anonymous": false,
      "inputs": [
        {
          "indexed": true,
          "internalType": "address",
          "name": "user",
          "type": "address"
        },
        {
          "indexed": false,
          "internalType": "uint256",
          "name": "amount",
          "type": "uint256"
        },
        {
          "indexed": true,
          "internalType": "uint256",
          "name": "bondingShareId",
          "type": "uint256"
        }
      ],
      "name": "Withdraw",
      "type": "event"
    },
    {
      "inputs": [
        {
          "internalType": "address",
          "name": "to",
          "type": "address"
        },
        {
          "internalType": "uint256",
          "name": "_amount",
          "type": "uint256"
        },
        {
          "internalType": "uint256",
          "name": "_bondingShareID",
          "type": "uint256"
        }
      ],
      "name": "deposit",
      "outputs": [],
      "stateMutability": "nonpayable",
      "type": "function"
    },
    {
      "inputs": [
        {
          "internalType": "uint256",
          "name": "_id",
          "type": "uint256"
        }
      ],
      "name": "getBondingShareInfo",
      "outputs": [
        {
          "internalType": "uint256[2]",
          "name": "",
          "type": "uint256[2]"
        }
      ],
      "stateMutability": "view",
      "type": "function"
    },
    {
      "inputs": [
        {
          "internalType": "uint256",
          "name": "bondingShareID",
          "type": "uint256"
        }
      ],
      "name": "getRewards",
      "outputs": [
        {
          "internalType": "uint256",
          "name": "",
          "type": "uint256"
        }
      ],
      "stateMutability": "nonpayable",
      "type": "function"
    },
    {
      "inputs": [],
      "name": "lastPrice",
      "outputs": [
        {
          "internalType": "uint256",
          "name": "",
          "type": "uint256"
        }
      ],
      "stateMutability": "view",
      "type": "function"
    },
    {
      "inputs": [],
      "name": "manager",
      "outputs": [
        {
          "internalType": "contract UbiquityAlgorithmicDollarManager",
          "name": "",
          "type": "address"
        }
      ],
      "stateMutability": "view",
      "type": "function"
    },
    {
      "inputs": [],
      "name": "minPriceDiffToUpdateMultiplier",
      "outputs": [
        {
          "internalType": "uint256",
          "name": "",
          "type": "uint256"
        }
      ],
      "stateMutability": "view",
      "type": "function"
    },
    {
      "inputs": [
        {
          "internalType": "uint256",
          "name": "bondingShareID",
          "type": "uint256"
        }
      ],
      "name": "pendingUGOV",
      "outputs": [
        {
          "internalType": "uint256",
          "name": "",
          "type": "uint256"
        }
      ],
      "stateMutability": "view",
      "type": "function"
    },
    {
      "inputs": [],
      "name": "pool",
      "outputs": [
        {
          "internalType": "uint256",
          "name": "lastRewardBlock",
          "type": "uint256"
        },
        {
          "internalType": "uint256",
          "name": "accuGOVPerShare",
          "type": "uint256"
        }
      ],
      "stateMutability": "view",
      "type": "function"
    },
    {
      "inputs": [
        {
          "internalType": "uint256",
          "name": "_minPriceDiffToUpdateMultiplier",
          "type": "uint256"
        }
      ],
      "name": "setMinPriceDiffToUpdateMultiplier",
      "outputs": [],
      "stateMutability": "nonpayable",
      "type": "function"
    },
    {
      "inputs": [
        {
          "internalType": "uint256",
          "name": "_uGOVPerBlock",
          "type": "uint256"
        }
      ],
      "name": "setUGOVPerBlock",
      "outputs": [],
      "stateMutability": "nonpayable",
      "type": "function"
    },
    {
      "inputs": [
        {
          "internalType": "uint256",
          "name": "_uGOVDivider",
          "type": "uint256"
        }
      ],
      "name": "setUGOVShareForTreasury",
      "outputs": [],
      "stateMutability": "nonpayable",
      "type": "function"
    },
    {
      "inputs": [],
      "name": "totalShares",
      "outputs": [
        {
          "internalType": "uint256",
          "name": "",
          "type": "uint256"
        }
      ],
      "stateMutability": "view",
      "type": "function"
    },
    {
      "inputs": [],
      "name": "uGOVDivider",
      "outputs": [
        {
          "internalType": "uint256",
          "name": "",
          "type": "uint256"
        }
      ],
      "stateMutability": "view",
      "type": "function"
    },
    {
      "inputs": [],
      "name": "uGOVPerBlock",
      "outputs": [
        {
          "internalType": "uint256",
          "name": "",
          "type": "uint256"
        }
      ],
      "stateMutability": "view",
      "type": "function"
    },
    {
      "inputs": [],
      "name": "uGOVmultiplier",
      "outputs": [
        {
          "internalType": "uint256",
          "name": "",
          "type": "uint256"
        }
      ],
      "stateMutability": "view",
      "type": "function"
    },
    {
      "inputs": [
        {
          "internalType": "address",
          "name": "to",
          "type": "address"
        },
        {
          "internalType": "uint256",
          "name": "_amount",
          "type": "uint256"
        },
        {
          "internalType": "uint256",
          "name": "_bondingShareID",
          "type": "uint256"
        }
      ],
      "name": "withdraw",
      "outputs": [],
      "stateMutability": "nonpayable",
      "type": "function"
    }
  ],
  "bytecode": {
    "object": "0x6080604052670de0b6b3a764000060045566038d7ea4c68000600555670de0b6b3a76400006006553480156200003457600080fd5b5060405162002ef838038062002ef8833981016040819052620000579162000dce565b60016000908155600280546001600160a01b0319166001600160a01b0387161790554360085560095560056007556200008f620001da565b825182518114620000e75760405162461bcd60e51b815260206004820152601e60248201527f5f616d6f756e7473206172726179206e6f742073616d65206c656e677468000060448201526064015b60405180910390fd5b81518114620001485760405162461bcd60e51b815260206004820152602660248201527f5f626f6e64696e675368617265494473206172726179206e6f742073616d65206044820152650d8cadccee8d60d31b6064820152608401620000de565b60005b81811015620001ce57620001bb8582815181106200016d576200016d62000eda565b60200260200101518583815181106200018a576200018a62000eda565b6020026020010151858481518110620001a757620001a762000eda565b60200260200101516200032b60201b60201c565b620001c68162000f06565b90506200014b565b50505050505062001075565b6000620001e662000439565b90506000600654821115620002105760055460065462000207908462000f22565b11905062000227565b6005548260065462000223919062000f22565b1190505b80156200032757600260009054906101000a90046001600160a01b03166001600160a01b031663214f78826040518163ffffffff1660e01b8152600401602060405180830381865afa15801562000282573d6000803e3d6000fd5b505050506040513d601f19601f82011682018060405250810190620002a8919062000f3e565b60048054604051631e53a55760e21b815291820152602481018490526001600160a01b03919091169063794e955c90604401602060405180830381865afa158015620002f8573d6000803e3d6000fd5b505050506040513d601f19601f820116820180604052508101906200031e919062000f63565b60045560068290555b5050565b6000818152600a6020526040902062000343620005a2565b8054156200039457600181015460095482546000929164e8d4a51000916200036c919062000f7d565b62000378919062000f9f565b62000384919062000f22565b90506200039285826200088b565b505b82816000016000828254620003aa919062000fc2565b9091555050600954815464e8d4a5100091620003c69162000f7d565b620003d2919062000f9f565b81600101819055508260016000828254620003ee919062000fc2565b909155505060405183815282906001600160a01b038616907f90890809c654f11d6e72a28fa60149770a0d11ec6c92319d6ceb2bb0a4ea1a159060200160405180910390a350505050565b60025460408051638fe6368360e01b815290516000926001600160a01b031691638fe636839160048083019260209291908290030181865afa15801562000484573d6000803e3d6000fd5b505050506040513d601f19601f82011682018060405250810190620004aa919062000f3e565b6001600160a01b031663283583c6600260009054906101000a90046001600160a01b03166001600160a01b031663bc3ea0186040518163ffffffff1660e01b8152600401602060405180830381865afa1580156200050c573d6000803e3d6000fd5b505050506040513d601f19601f8201168201806040525081019062000532919062000f3e565b6040516001600160e01b031960e084901b1681526001600160a01b039091166004820152602401602060405180830381865afa15801562000577573d6000803e3d6000fd5b505050506040513d601f19601f820116820180604052508101906200059d919062000f63565b905090565b6008544311620005ae57565b620005b8620001da565b600154600003620005c95743600855565b6000620005d5620009ce565b90506000670de0b6b3a764000060035483620005f2919062000f7d565b620005fe919062000f9f565b9050600260009054906101000a90046001600160a01b03166001600160a01b031663b42165d06040518163ffffffff1660e01b8152600401602060405180830381865afa15801562000654573d6000803e3d6000fd5b505050506040513d601f19601f820116820180604052508101906200067a919062000f3e565b6040516340c10f1960e01b8152306004820152602481018390526001600160a01b0391909116906340c10f1990604401600060405180830381600087803b158015620006c557600080fd5b505af1158015620006da573d6000803e3d6000fd5b50505050600260009054906101000a90046001600160a01b03166001600160a01b031663b42165d06040518163ffffffff1660e01b8152600401602060405180830381865afa15801562000732573d6000803e3d6000fd5b505050506040513d601f19601f8201168201806040525081019062000758919062000f3e565b6001600160a01b03166340c10f19600260009054906101000a90046001600160a01b03166001600160a01b031663c5f956af6040518163ffffffff1660e01b8152600401602060405180830381865afa158015620007ba573d6000803e3d6000fd5b505050506040513d601f19601f82011682018060405250810190620007e0919062000f3e565b600754620007ef908562000f9f565b6040516001600160e01b031960e085901b1681526001600160a01b0390921660048301526024820152604401600060405180830381600087803b1580156200083657600080fd5b505af11580156200084b573d6000803e3d6000fd5b505050506001548164e8d4a5100062000865919062000f7d565b62000871919062000f9f565b60095462000880919062000fc2565b600955505043600855565b60025460408051630b42165d60e41b815290516000926001600160a01b03169163b42165d09160048083019260209291908290030181865afa158015620008d6573d6000803e3d6000fd5b505050506040513d601f19601f82011682018060405250810190620008fc919062000f3e565b6040516370a0823160e01b81523060048201529091506000906001600160a01b038316906370a0823190602401602060405180830381865afa15801562000947573d6000803e3d6000fd5b505050506040513d601f19601f820116820180604052508101906200096d919062000f63565b905080831115620009a3576200099d8482846001600160a01b0316620009f060201b62000e37179092919060201c565b620009c8565b620009c88484846001600160a01b0316620009f060201b62000e37179092919060201c565b50505050565b60045460085460009190620009e4904362000f22565b6200059d919062000f7d565b604080516001600160a01b038416602482015260448082018490528251808303909101815260649091019091526020810180516001600160e01b0390811663a9059cbb60e01b1790915262000a4891859162000a4d16565b505050565b600062000aa9826040518060400160405280602081526020017f5361666545524332303a206c6f772d6c6576656c2063616c6c206661696c6564815250856001600160a01b031662000b2b60201b62000ec4179092919060201c565b80519091501562000a48578080602001905181019062000aca919062000fd8565b62000a485760405162461bcd60e51b815260206004820152602a60248201527f5361666545524332303a204552433230206f7065726174696f6e20646964206e6044820152691bdd081cdd58d8d9595960b21b6064820152608401620000de565b606062000b3c848460008562000b44565b949350505050565b60608247101562000ba75760405162461bcd60e51b815260206004820152602660248201527f416464726573733a20696e73756666696369656e742062616c616e636520666f6044820152651c8818d85b1b60d21b6064820152608401620000de565b600080866001600160a01b0316858760405162000bc5919062001022565b60006040518083038185875af1925050503d806000811462000c04576040519150601f19603f3d011682016040523d82523d6000602084013e62000c09565b606091505b50909250905062000c1d8783838762000c28565b979650505050505050565b6060831562000c9c57825160000362000c94576001600160a01b0385163b62000c945760405162461bcd60e51b815260206004820152601d60248201527f416464726573733a2063616c6c20746f206e6f6e2d636f6e74726163740000006044820152606401620000de565b508162000b3c565b62000b3c838381511562000cb35781518083602001fd5b8060405162461bcd60e51b8152600401620000de919062001040565b80516001600160a01b038116811462000ce757600080fd5b919050565b634e487b7160e01b600052604160045260246000fd5b604051601f8201601f191681016001600160401b038111828210171562000d2d5762000d2d62000cec565b604052919050565b60006001600160401b0382111562000d515762000d5162000cec565b5060051b60200190565b600082601f83011262000d6d57600080fd5b8151602062000d8662000d808362000d35565b62000d02565b82815260059290921b8401810191818101908684111562000da657600080fd5b8286015b8481101562000dc3578051835291830191830162000daa565b509695505050505050565b6000806000806080858703121562000de557600080fd5b62000df08562000ccf565b602086810151919550906001600160401b038082111562000e1057600080fd5b818801915088601f83011262000e2557600080fd5b815162000e3662000d808262000d35565b81815260059190911b8301840190848101908b83111562000e5657600080fd5b938501935b8285101562000e7f5762000e6f8562000ccf565b8252938501939085019062000e5b565b60408b0151909850945050508083111562000e9957600080fd5b62000ea789848a0162000d5b565b9450606088015192508083111562000ebe57600080fd5b505062000ece8782880162000d5b565b91505092959194509250565b634e487b7160e01b600052603260045260246000fd5b634e487b7160e01b600052601160045260246000fd5b60006001820162000f1b5762000f1b62000ef0565b5060010190565b8181038181111562000f385762000f3862000ef0565b92915050565b60006020828403121562000f5157600080fd5b62000f5c8262000ccf565b9392505050565b60006020828403121562000f7657600080fd5b5051919050565b600081600019048311821515161562000f9a5762000f9a62000ef0565b500290565b60008262000fbd57634e487b7160e01b600052601260045260246000fd5b500490565b8082018082111562000f385762000f3862000ef0565b60006020828403121562000feb57600080fd5b8151801515811462000f5c57600080fd5b60005b838110156200101957818101518382015260200162000fff565b50506000910152565b600082516200103681846020870162000ffc565b9190910192915050565b60208152600082518060208401526200106181604085016020870162000ffc565b601f01601f19169190910160400192915050565b611e7380620010856000396000f3fe608060405234801561001057600080fd5b50600436106101005760003560e01c806378b3139b1161009757806389c80b6b1161006657806389c80b6b14610210578063b5c5f67214610223578063c0d8012c14610236578063ffd65a491461024957600080fd5b806378b3139b146101c15780637b80a5c0146101d45780637e7d09ca146101f45780637eb751c7146101fd57600080fd5b806321933933116100d357806321933933146101625780633a98ef391461016b57806347e54e3814610173578063481c6a751461017c57600080fd5b8063053f14da146101055780630efe6a8b1461012157806316f0115b146101365780631aeb2d0914610159575b600080fd5b61010e60065481565b6040519081526020015b60405180910390f35b61013461012f366004611bfb565b61025c565b005b600854600954610144919082565b60408051928352602083019190915201610118565b61010e60045481565b61010e60055481565b60015461010e565b61010e60035481565b60025461019c9073ffffffffffffffffffffffffffffffffffffffff1681565b60405173ffffffffffffffffffffffffffffffffffffffff9091168152602001610118565b6101346101cf366004611c30565b6103a8565b6101e76101e2366004611c30565b61055b565b6040516101189190611c49565b61010e60075481565b61010e61020b366004611c30565b610593565b61013461021e366004611c30565b61064d565b610134610231366004611bfb565b6107d2565b61010e610244366004611c30565b610a6f565b610134610257366004611c30565b610c84565b610264610ed3565b600260009054906101000a900473ffffffffffffffffffffffffffffffffffffffff1673ffffffffffffffffffffffffffffffffffffffff1663de71c1db6040518163ffffffff1660e01b8152600401602060405180830381865afa1580156102d1573d6000803e3d6000fd5b505050506040513d601f19601f820116820180604052508101906102f59190611c7a565b73ffffffffffffffffffffffffffffffffffffffff163373ffffffffffffffffffffffffffffffffffffffff161461038e576040517f08c379a000000000000000000000000000000000000000000000000000000000815260206004820181905260248201527f4d6173746572436865663a206e6f7420426f6e64696e6720436f6e747261637460448201526064015b60405180910390fd5b610399838383610f46565b6103a36001600055565b505050565b600254604080517f3b4d9773000000000000000000000000000000000000000000000000000000008152905173ffffffffffffffffffffffffffffffffffffffff909216916391d14854918391633b4d9773916004808201926020929091908290030181865afa158015610420573d6000803e3d6000fd5b505050506040513d601f19601f820116820180604052508101906104449190611c9e565b6040517fffffffff0000000000000000000000000000000000000000000000000000000060e084901b1681526004810191909152336024820152604401602060405180830381865afa15801561049e573d6000803e3d6000fd5b505050506040513d601f19601f820116820180604052508101906104c29190611cb7565b610528576040517f08c379a000000000000000000000000000000000000000000000000000000000815260206004820152601b60248201527f4d6173746572436865663a206e6f7420554251206d616e6167657200000000006044820152606401610385565b600581905560405181907fee9ca614114d0b14b7c182d61fbc2e9aed69823d5f4a3a6436f95da3a6d0a82490600090a250565b610563611bb8565b506040805180820182526000838152600a6020818152938220805484529490915282526001909201549082015290565b6000818152600a60205260408120600954600854431180156105b6575060015415155b156106185760006105c561104e565b90506000670de0b6b3a7640000600354836105e09190611d08565b6105ea9190611d45565b6001549091506105ff8264e8d4a51000611d08565b6106099190611d45565b6106139084611d80565b925050505b6001820154825464e8d4a5100090610631908490611d08565b61063b9190611d45565b6106459190611d99565b949350505050565b600254604080517f3b4d9773000000000000000000000000000000000000000000000000000000008152905173ffffffffffffffffffffffffffffffffffffffff909216916391d14854918391633b4d9773916004808201926020929091908290030181865afa1580156106c5573d6000803e3d6000fd5b505050506040513d601f19601f820116820180604052508101906106e99190611c9e565b6040517fffffffff0000000000000000000000000000000000000000000000000000000060e084901b1681526004810191909152336024820152604401602060405180830381865afa158015610743573d6000803e3d6000fd5b505050506040513d601f19601f820116820180604052508101906107679190611cb7565b6107cd576040517f08c379a000000000000000000000000000000000000000000000000000000000815260206004820152601b60248201527f4d6173746572436865663a206e6f7420554251206d616e6167657200000000006044820152606401610385565b600755565b6107da610ed3565b600260009054906101000a900473ffffffffffffffffffffffffffffffffffffffff1673ffffffffffffffffffffffffffffffffffffffff1663de71c1db6040518163ffffffff1660e01b8152600401602060405180830381865afa158015610847573d6000803e3d6000fd5b505050506040513d601f19601f8201168201806040525081019061086b9190611c7a565b73ffffffffffffffffffffffffffffffffffffffff163373ffffffffffffffffffffffffffffffffffffffff16146108ff576040517f08c379a000000000000000000000000000000000000000000000000000000000815260206004820181905260248201527f4d6173746572436865663a206e6f7420426f6e64696e6720436f6e74726163746044820152606401610385565b6000818152600a602052604090208054831115610978576040517f08c379a000000000000000000000000000000000000000000000000000000000815260206004820152601360248201527f4d433a20616d6f756e7420746f6f2068696768000000000000000000000000006044820152606401610385565b610980611071565b600181015460095482546000929164e8d4a510009161099f9190611d08565b6109a99190611d45565b6109b39190611d99565b90506109bf85826113e1565b838260000160008282546109d39190611d99565b9091555050600954825464e8d4a51000916109ed91611d08565b6109f79190611d45565b82600101819055508360016000828254610a119190611d99565b9091555050604051848152839073ffffffffffffffffffffffffffffffffffffffff8716907ff279e6a1f5e320cca91135676d9cb6e44ca8a08c0b88342bcdb1144f6511b5689060200160405180910390a350506103a36001600055565b600254604080517fc431e83c000000000000000000000000000000000000000000000000000000008152905160009273ffffffffffffffffffffffffffffffffffffffff169163c431e83c9160048083019260209291908290030181865afa158015610adf573d6000803e3d6000fd5b505050506040513d601f19601f82011682018060405250810190610b039190611c7a565b6040517efdd58e0000000000000000000000000000000000000000000000000000000081523360048201526024810184905273ffffffffffffffffffffffffffffffffffffffff919091169062fdd58e90604401602060405180830381865afa158015610b74573d6000803e3d6000fd5b505050506040513d601f19601f82011682018060405250810190610b989190611c9e565b600114610c01576040517f08c379a000000000000000000000000000000000000000000000000000000000815260206004820152601760248201527f4d533a2063616c6c6572206973206e6f74206f776e65720000000000000000006044820152606401610385565b6000828152600a60205260409020610c17611071565b600181015460095482546000929164e8d4a5100091610c369190611d08565b610c409190611d45565b610c4a9190611d99565b9050610c5633826113e1565b600954825464e8d4a5100091610c6b91611d08565b610c759190611d45565b60019092019190915592915050565b600254604080517f3b4d9773000000000000000000000000000000000000000000000000000000008152905173ffffffffffffffffffffffffffffffffffffffff909216916391d14854918391633b4d9773916004808201926020929091908290030181865afa158015610cfc573d6000803e3d6000fd5b505050506040513d601f19601f82011682018060405250810190610d209190611c9e565b6040517fffffffff0000000000000000000000000000000000000000000000000000000060e084901b1681526004810191909152336024820152604401602060405180830381865afa158015610d7a573d6000803e3d6000fd5b505050506040513d601f19601f82011682018060405250810190610d9e9190611cb7565b610e04576040517f08c379a000000000000000000000000000000000000000000000000000000000815260206004820152601b60248201527f4d6173746572436865663a206e6f7420554251206d616e6167657200000000006044820152606401610385565b600381905560405181907f7f2defb81cc3cff687ded0c71592c972625223425d9b43db42a0a79b0fbf4bb790600090a250565b6040805173ffffffffffffffffffffffffffffffffffffffff8416602482015260448082018490528251808303909101815260649091019091526020810180517bffffffffffffffffffffffffffffffffffffffffffffffffffffffff167fa9059cbb000000000000000000000000000000000000000000000000000000001790526103a3908490611560565b6060610645848460008561166c565b600260005403610f3f576040517f08c379a000000000000000000000000000000000000000000000000000000000815260206004820152601f60248201527f5265656e7472616e637947756172643a207265656e7472616e742063616c6c006044820152606401610385565b6002600055565b6000818152600a60205260409020610f5c611071565b805415610fa457600181015460095482546000929164e8d4a5100091610f829190611d08565b610f8c9190611d45565b610f969190611d99565b9050610fa285826113e1565b505b82816000016000828254610fb89190611d80565b9091555050600954815464e8d4a5100091610fd291611d08565b610fdc9190611d45565b81600101819055508260016000828254610ff69190611d80565b9091555050604051838152829073ffffffffffffffffffffffffffffffffffffffff8616907f90890809c654f11d6e72a28fa60149770a0d11ec6c92319d6ceb2bb0a4ea1a159060200160405180910390a350505050565b600454600854600091906110629043611d99565b61106c9190611d08565b905090565b600854431161107c57565b611084611785565b6001546000036110945743600855565b600061109e61104e565b90506000670de0b6b3a7640000600354836110b99190611d08565b6110c39190611d45565b9050600260009054906101000a900473ffffffffffffffffffffffffffffffffffffffff1673ffffffffffffffffffffffffffffffffffffffff1663b42165d06040518163ffffffff1660e01b8152600401602060405180830381865afa158015611132573d6000803e3d6000fd5b505050506040513d601f19601f820116820180604052508101906111569190611c7a565b6040517f40c10f190000000000000000000000000000000000000000000000000000000081523060048201526024810183905273ffffffffffffffffffffffffffffffffffffffff91909116906340c10f1990604401600060405180830381600087803b1580156111c657600080fd5b505af11580156111da573d6000803e3d6000fd5b50505050600260009054906101000a900473ffffffffffffffffffffffffffffffffffffffff1673ffffffffffffffffffffffffffffffffffffffff1663b42165d06040518163ffffffff1660e01b8152600401602060405180830381865afa15801561124b573d6000803e3d6000fd5b505050506040513d601f19601f8201168201806040525081019061126f9190611c7a565b73ffffffffffffffffffffffffffffffffffffffff166340c10f19600260009054906101000a900473ffffffffffffffffffffffffffffffffffffffff1673ffffffffffffffffffffffffffffffffffffffff1663c5f956af6040518163ffffffff1660e01b8152600401602060405180830381865afa1580156112f7573d6000803e3d6000fd5b505050506040513d601f19601f8201168201806040525081019061131b9190611c7a565b6007546113289085611d45565b6040517fffffffff0000000000000000000000000000000000000000000000000000000060e085901b16815273ffffffffffffffffffffffffffffffffffffffff90921660048301526024820152604401600060405180830381600087803b15801561139357600080fd5b505af11580156113a7573d6000803e3d6000fd5b505050506001548164e8d4a510006113bf9190611d08565b6113c99190611d45565b6009546113d69190611d80565b600955505043600855565b600254604080517fb42165d0000000000000000000000000000000000000000000000000000000008152905160009273ffffffffffffffffffffffffffffffffffffffff169163b42165d09160048083019260209291908290030181865afa158015611451573d6000803e3d6000fd5b505050506040513d601f19601f820116820180604052508101906114759190611c7a565b6040517f70a0823100000000000000000000000000000000000000000000000000000000815230600482015290915060009073ffffffffffffffffffffffffffffffffffffffff8316906370a0823190602401602060405180830381865afa1580156114e5573d6000803e3d6000fd5b505050506040513d601f19601f820116820180604052508101906115099190611c9e565b9050808311156115395761153473ffffffffffffffffffffffffffffffffffffffff83168583610e37565b61155a565b61155a73ffffffffffffffffffffffffffffffffffffffff83168585610e37565b50505050565b60006115c2826040518060400160405280602081526020017f5361666545524332303a206c6f772d6c6576656c2063616c6c206661696c65648152508573ffffffffffffffffffffffffffffffffffffffff16610ec49092919063ffffffff16565b8051909150156103a357808060200190518101906115e09190611cb7565b6103a3576040517f08c379a000000000000000000000000000000000000000000000000000000000815260206004820152602a60248201527f5361666545524332303a204552433230206f7065726174696f6e20646964206e60448201527f6f742073756363656564000000000000000000000000000000000000000000006064820152608401610385565b6060824710156116fe576040517f08c379a000000000000000000000000000000000000000000000000000000000815260206004820152602660248201527f416464726573733a20696e73756666696369656e742062616c616e636520666f60448201527f722063616c6c00000000000000000000000000000000000000000000000000006064820152608401610385565b6000808673ffffffffffffffffffffffffffffffffffffffff1685876040516117279190611dd0565b60006040518083038185875af1925050503d8060008114611764576040519150601f19603f3d011682016040523d82523d6000602084013e611769565b606091505b509150915061177a87838387611907565b979650505050505050565b600061178f6119a7565b905060006006548211156117b5576005546006546117ad9084611d99565b1190506117ca565b600554826006546117c69190611d99565b1190505b801561190357600260009054906101000a900473ffffffffffffffffffffffffffffffffffffffff1673ffffffffffffffffffffffffffffffffffffffff1663214f78826040518163ffffffff1660e01b8152600401602060405180830381865afa15801561183d573d6000803e3d6000fd5b505050506040513d601f19601f820116820180604052508101906118619190611c7a565b600480546040517f794e955c000000000000000000000000000000000000000000000000000000008152918201526024810184905273ffffffffffffffffffffffffffffffffffffffff919091169063794e955c90604401602060405180830381865afa1580156118d6573d6000803e3d6000fd5b505050506040513d601f19601f820116820180604052508101906118fa9190611c9e565b60045560068290555b5050565b6060831561199d5782516000036119965773ffffffffffffffffffffffffffffffffffffffff85163b611996576040517f08c379a000000000000000000000000000000000000000000000000000000000815260206004820152601d60248201527f416464726573733a2063616c6c20746f206e6f6e2d636f6e74726163740000006044820152606401610385565b5081610645565b6106458383611b74565b600254604080517f8fe63683000000000000000000000000000000000000000000000000000000008152905160009273ffffffffffffffffffffffffffffffffffffffff1691638fe636839160048083019260209291908290030181865afa158015611a17573d6000803e3d6000fd5b505050506040513d601f19601f82011682018060405250810190611a3b9190611c7a565b73ffffffffffffffffffffffffffffffffffffffff1663283583c6600260009054906101000a900473ffffffffffffffffffffffffffffffffffffffff1673ffffffffffffffffffffffffffffffffffffffff1663bc3ea0186040518163ffffffff1660e01b8152600401602060405180830381865afa158015611ac3573d6000803e3d6000fd5b505050506040513d601f19601f82011682018060405250810190611ae79190611c7a565b6040517fffffffff0000000000000000000000000000000000000000000000000000000060e084901b16815273ffffffffffffffffffffffffffffffffffffffff9091166004820152602401602060405180830381865afa158015611b50573d6000803e3d6000fd5b505050506040513d601f19601f8201168201806040525081019061106c9190611c9e565b815115611b845781518083602001fd5b806040517f08c379a00000000000000000000000000000000000000000000000000000000081526004016103859190611dec565b60405180604001604052806002906020820280368337509192915050565b73ffffffffffffffffffffffffffffffffffffffff81168114611bf857600080fd5b50565b600080600060608486031215611c1057600080fd5b8335611c1b81611bd6565b95602085013595506040909401359392505050565b600060208284031215611c4257600080fd5b5035919050565b60408101818360005b6002811015611c71578151835260209283019290910190600101611c52565b50505092915050565b600060208284031215611c8c57600080fd5b8151611c9781611bd6565b9392505050565b600060208284031215611cb057600080fd5b5051919050565b600060208284031215611cc957600080fd5b81518015158114611c9757600080fd5b7f4e487b7100000000000000000000000000000000000000000000000000000000600052601160045260246000fd5b6000817fffffffffffffffffffffffffffffffffffffffffffffffffffffffffffffffff0483118215151615611d4057611d40611cd9565b500290565b600082611d7b577f4e487b7100000000000000000000000000000000000000000000000000000000600052601260045260246000fd5b500490565b80820180821115611d9357611d93611cd9565b92915050565b81810381811115611d9357611d93611cd9565b60005b83811015611dc7578181015183820152602001611daf565b50506000910152565b60008251611de2818460208701611dac565b9190910192915050565b6020815260008251806020840152611e0b816040850160208701611dac565b601f017fffffffffffffffffffffffffffffffffffffffffffffffffffffffffffffffe016919091016040019291505056fea2646970667358221220b0d2351e3e7923e018221fd0b2bb02b22040329bdb42655299b36fd15120e0fa64736f6c63430008100033",
    "linkReferences": {}
  },
  "methodIdentifiers": {
    "deposit(address,uint256,uint256)": "0efe6a8b",
    "getBondingShareInfo(uint256)": "7b80a5c0",
    "getRewards(uint256)": "c0d8012c",
    "lastPrice()": "053f14da",
    "manager()": "481c6a75",
    "minPriceDiffToUpdateMultiplier()": "21933933",
    "pendingUGOV(uint256)": "7eb751c7",
    "pool()": "16f0115b",
    "setMinPriceDiffToUpdateMultiplier(uint256)": "78b3139b",
    "setUGOVPerBlock(uint256)": "ffd65a49",
    "setUGOVShareForTreasury(uint256)": "89c80b6b",
    "totalShares()": "3a98ef39",
    "uGOVDivider()": "7e7d09ca",
    "uGOVPerBlock()": "47e54e38",
    "uGOVmultiplier()": "1aeb2d09",
    "withdraw(address,uint256,uint256)": "b5c5f672"
  },
  "id": 51
}