{
  "address": "0xab840faA6A5eF68D8D32370EBC297f4DdC9F870F",
  "abi": [
    {
      "inputs": [
        {
          "internalType": "address",
          "name": "_manager",
          "type": "address"
        }
      ],
      "stateMutability": "nonpayable",
      "type": "constructor"
    },
    {
      "inputs": [],
      "name": "getDollarsToMint",
      "outputs": [
        {
          "internalType": "uint256",
          "name": "",
          "type": "uint256"
        }
      ],
      "stateMutability": "view",
      "type": "function"
    },
    {
      "inputs": [],
      "name": "manager",
      "outputs": [
        {
          "internalType": "contract UbiquityAlgorithmicDollarManager",
          "name": "",
          "type": "address"
        }
      ],
      "stateMutability": "view",
      "type": "function"
    }
  ],
  "transactionHash": "0x171bccc8f54bd0a85aba04c89ea4585f7bfd104862569e9466c892b874473fda",
  "args": [
    "0x4DA97a8b831C345dBe6d16FF7432DF2b7b776d98"
  ],
  "solcInputHash": "718dfe5f2e9bb98c22443f71ab0527e0",
  "bytecode": "0x60a060405262000022670de0b6b3a76400006200008560201b620004131760201c565b6001600160801b0319166080523480156200003c57600080fd5b50604051620011bc380380620011bc8339810160408190526200005f916200019f565b600080546001600160a01b0319166001600160a01b0392909216919091179055620001cf565b6000816200009657506000620000ed565b816000620000a482620000f2565b90506070811015620000bf578060700382901b9150620000d3565b6070811115620000d3576070810382901c91505b613fff0160701b6001600160701b03919091161760801b90505b919050565b60008082116200010157600080fd5b6000600160801b83106200011757608092831c92015b6801000000000000000083106200013057604092831c92015b64010000000083106200014557602092831c92015b6201000083106200015857601092831c92015b61010083106200016a57600892831c92015b601083106200017b57600492831c92015b600483106200018c57600292831c92015b6002831062000199576001015b92915050565b600060208284031215620001b1578081fd5b81516001600160a01b0381168114620001c8578182fd5b9392505050565b6080516001600160801b031916610fc0620001fc6000396000818161028501526103b50152610fc06000f3fe608060405234801561001057600080fd5b50600436106100365760003560e01c8063481c6a751461003b578063764263cf1461006b575b600080fd5b60005461004e906001600160a01b031681565b6040516001600160a01b0390911681526020015b60405180910390f35b610073610081565b604051908152602001610062565b6000805460408051638fe6368360e01b8152905183926001600160a01b031691638fe63683916004808301926020929190829003018186803b1580156100c657600080fd5b505afa1580156100da573d6000803e3d6000fd5b505050506040513d601f19601f820116820180604052508101906100fe9190610f74565b90506000816001600160a01b031663283583c660008054906101000a90046001600160a01b03166001600160a01b031663bc3ea0186040518163ffffffff1660e01b815260040160206040518083038186803b15801561015d57600080fd5b505afa158015610171573d6000803e3d6000fd5b505050506040513d601f19601f820116820180604052508101906101959190610f74565b6040517fffffffff0000000000000000000000000000000000000000000000000000000060e084901b1681526001600160a01b03909116600482015260240160206040518083038186803b1580156101ec57600080fd5b505afa158015610200573d6000803e3d6000fd5b505050506040513d601f19601f820116820180604052508101906102249190610f9b565b90506001811161027a5760405162461bcd60e51b815260206004820181905260248201527f446f6c6c61724d696e74696e6743616c63756c61746f723a206e6f74203e2031604482015260640160405180910390fd5b61040c6103fd6103b07f00000000000000000000000000000000000000000000000000000000000000006103a060008054906101000a90046001600160a01b03166001600160a01b031663bc3ea0186040518163ffffffff1660e01b815260040160206040518083038186803b1580156102f357600080fd5b505afa158015610307573d6000803e3d6000fd5b505050506040513d601f19601f8201168201806040525081019061032b9190610f74565b6001600160a01b03166318160ddd6040518163ffffffff1660e01b815260040160206040518083038186803b15801561036357600080fd5b505afa158015610377573d6000803e3d6000fd5b505050506040513d601f19601f8201168201806040525081019061039b9190610f9b565b610413565b6001600160801b03191690610479565b6103ed7f00000000000000000000000000000000000000000000000000000000000000006103dd86610413565b6001600160801b031916906107a3565b6001600160801b031916906107bc565b6001600160801b031916610a33565b9250505090565b60008161042257506000610474565b81600061042e82610ab7565b90506070811015610447578060700382901b915061045a565b607081111561045a576070810382901c91505b613fff0160701b6001600160701b03919091161760801b90505b919050565b6000617fff60f084811c8216919084901c8116908214156104bf5780617fff14156104ae575061ffff60ef1b915061079d9050565b505050600160ff1b8116821861079d565b80617fff1415610510577dffffffffffffffffffffffffffff000000000000000000000000000000008416156104ff575061ffff60ef1b915061079d9050565b505050808218600160ff1b1661079d565b6f7fffffffffffffffffffffffffffffff60801b841661056c576f7fffffffffffffffffffffffffffffff60801b8516610554575061ffff60ef1b915061079d9050565b505050808218600160ff1b16617fff60f01b1761079d565b6001600160701b03608085901c1681610588576001915061058f565b600160701b175b6001600160701b03608087901c16836105ce5780156105c95760006105b382610ab7565b6001955060e20393840160711901939190911b90505b6105d8565b600160701b1760721b5b8181816105f557634e487b7160e01b600052601260045260246000fd5b0490508061062257600160ff1b87871816610611576000610617565b600160ff1b5b94505050505061079d565b6d100000000000000000000000000081101561064e57634e487b7160e01b600052600160045260246000fd5b60006e0800000000000000000000000000008210156106af576e0400000000000000000000000000008210156106a4576e02000000000000000000000000000082101561069c57607061069f565b60715b6106a7565b60725b60ff166106b8565b6106b882610ab7565b9050836140710181860111156106d657617fff945060009150610769565b83818601613ffc0110156106f1576000945060009150610769565b83818601613f8c01101561073e578385613ffc01111561071c578385613ffc010382901b9150610735565b8385613ffc01101561073557613ffc8585030382901c91505b60009450610769565b6070811115610751576070810382901c91505b6001600160701b038216915083818601613f8d010394505b81607086901b888a186001607f1b60801b1660801c6fffffffffffffffffffffffffffffffff16171760801b955050505050505b92915050565b60006107b583600160ff1b8418610b67565b9392505050565b6000617fff60f084811c8216919084901c8116908214156108645780617fff141561083a576001600160801b0319858116908516141561080757505050600160ff1b8116821861079d565b600160ff1b6001600160801b031986861816141561082a5750505081811761079d565b5061ffff60ef1b915061079d9050565b6f7fffffffffffffffffffffffffffffff60801b84166104ae575061ffff60ef1b915061079d9050565b80617fff14156108a9576f7fffffffffffffffffffffffffffffff60801b8516610898575061ffff60ef1b915061079d9050565b505050600160ff1b8216811861079d565b6001600160701b03608086901c16826108c557600192506108cc565b600160701b175b6001600160701b03608086901c16826108e857600192506108ef565b600160701b175b908102908161090c57600160ff1b87871816610611576000610617565b928201926000600160e11b83101561094057600160e01b8310156109385761093383610ab7565b61093b565b60e05b610943565b60e15b9050614070818601101561095e5760009450600092506109fb565b6140e081860110156109a15761407085101561098357846140700383901c9250610998565b61407085111561099857614070850383901b92505b600094506109fb565b61c0dd81860111156109bb57617fff9450600092506109fb565b60708111156109d2576070810383901c92506109e5565b60708110156109e5578060700383901b92505b6001600160701b03831692506140df8186010394505b82607086901b888a186001607f1b60801b1660801c6fffffffffffffffffffffffffffffffff16171760801b9550505050505061079d565b6000617fff60f083901c16613fff811015610a52576000915050610474565b6001607f1b608084901c10610a6657600080fd5b6140fe811115610a7557600080fd5b600160701b6001600160701b03608085901c161761406f821015610a9f5761406f8290031c6107b5565b61406f8211156107b55761406e1982011b9392505050565b6000808211610ac557600080fd5b60007001000000000000000000000000000000008310610ae757608092831c92015b680100000000000000008310610aff57604092831c92015b6401000000008310610b1357602092831c92015b620100008310610b2557601092831c92015b6101008310610b3657600892831c92015b60108310610b4657600492831c92015b60048310610b5657600292831c92015b6002831061079d5760010192915050565b6000617fff60f084811c8216919084901c811690821415610bb55780617fff1415610bab576001600160801b0319858116908516141561082a57849250505061079d565b849250505061079d565b80617fff1415610bc957839250505061079d565b6001607f1b608086901c90811015906001600160701b031683610bef5760019350610bf6565b600160701b175b6001607f1b608087901c90811015906001600160701b031684610c1c5760019450610c23565b600160701b175b82610c53576001600160801b03198816600160ff1b14610c435787610c46565b60005b965050505050505061079d565b80610c73576001600160801b03198916600160ff1b14610c435788610c46565b8486038415158315151415610daa576070811315610c9a578997505050505050505061079d565b6000811315610cac5790811c90610cdb565b606f19811215610cc5578897505050505050505061079d565b6000811215610cdb578060000384901c93508596505b928101926e0200000000000000000000000000008410610d01576001968701969390931c925b86617fff1415610d4b5784610d1b57617fff60f01b610d3d565b7fffff0000000000000000000000000000000000000000000000000000000000005b97505050505050505061079d565b600160701b841015610d605760009650610d6d565b6001600160701b03841693505b83607088901b86610d7f576000610d85565b6001607f1b5b6fffffffffffffffffffffffffffffffff16171760801b97505050505050505061079d565b6000811315610dc557600184901b9350600187039650610ddc565b6000811215610ddc57600182901b91506001860396505b6070811315610dee5760019150610e3b565b6001811315610e0b576001810360018303901c6001019150610e3b565b606f19811215610e1e5760019350610e3b565b600019811215610e3b576001816000030360018503901c60010193505b818410610e4c578184039350610e55565b83820393508294505b83610e6b57506000965061079d95505050505050565b6000610e7685610ab7565b90508060711415610e9c57600185901c6001600160701b03169450600188019750610eeb565b6070811015610ede57607081900380891115610ecb578086901b6001600160701b031695508089039850610ed8565b600098600019019590951b945b50610eeb565b6001600160701b03851694505b87617fff1415610f365785610f0557617fff60f01b610f27565b7fffff0000000000000000000000000000000000000000000000000000000000005b9850505050505050505061079d565b84607089901b87610f48576000610f4e565b6001607f1b5b6fffffffffffffffffffffffffffffffff16171760801b9850505050505050505061079d565b600060208284031215610f85578081fd5b81516001600160a01b03811681146107b5578182fd5b600060208284031215610fac578081fd5b505191905056fea164736f6c6343000803000a",
  "devdoc": {
    "kind": "dev",
    "methods": {
      "constructor": {
        "params": {
          "_manager": "the address of the manager contract so we can fetch variables"
        }
      }
    },
    "title": "A mock coupon calculator that always returns a constant",
    "version": 1
  },
  "userdoc": {
    "kind": "user",
    "methods": {
      "getDollarsToMint()": {
        "notice": "returns (TWAP_PRICE  -1) * UAD_Total_Supply"
      }
    },
    "version": 1
  },
  "storageLayout": {
    "storage": [
      {
        "astId": 7108,
        "contract": "contracts/DollarMintingCalculator.sol:DollarMintingCalculator",
        "label": "manager",
        "offset": 0,
        "slot": "0",
        "type": "t_contract(UbiquityAlgorithmicDollarManager)10304"
      }
    ],
    "types": {
      "t_contract(UbiquityAlgorithmicDollarManager)10304": {
        "encoding": "inplace",
        "label": "contract UbiquityAlgorithmicDollarManager",
        "numberOfBytes": "20"
      }
    }
  }
}