{
  "address": "0x8fFCf9899738e4633A721904609ffCa0a2C44f3D",
  "abi": [
    {
      "inputs": [
        {
          "internalType": "address",
          "name": "_manager",
          "type": "address"
        }
      ],
      "stateMutability": "nonpayable",
      "type": "constructor"
    },
    {
      "anonymous": false,
      "inputs": [
        {
          "indexed": true,
          "internalType": "address",
          "name": "user",
          "type": "address"
        },
        {
          "indexed": false,
          "internalType": "uint256",
          "name": "amount",
          "type": "uint256"
        }
      ],
      "name": "Deposit",
      "type": "event"
    },
    {
      "anonymous": false,
      "inputs": [
        {
          "indexed": true,
          "internalType": "address",
          "name": "user",
          "type": "address"
        },
        {
          "indexed": false,
          "internalType": "uint256",
          "name": "amount",
          "type": "uint256"
        }
      ],
      "name": "Withdraw",
      "type": "event"
    },
    {
      "inputs": [
        {
          "internalType": "uint256",
          "name": "_amount",
          "type": "uint256"
        },
        {
          "internalType": "address",
          "name": "sender",
          "type": "address"
        }
      ],
      "name": "deposit",
      "outputs": [],
      "stateMutability": "nonpayable",
      "type": "function"
    },
    {
      "inputs": [],
      "name": "getRewards",
      "outputs": [
        {
          "internalType": "uint256",
          "name": "",
          "type": "uint256"
        }
      ],
      "stateMutability": "nonpayable",
      "type": "function"
    },
    {
      "inputs": [],
      "name": "lastPrice",
      "outputs": [
        {
          "internalType": "uint256",
          "name": "",
          "type": "uint256"
        }
      ],
      "stateMutability": "view",
      "type": "function"
    },
    {
      "inputs": [],
      "name": "manager",
      "outputs": [
        {
          "internalType": "contract UbiquityAlgorithmicDollarManager",
          "name": "",
          "type": "address"
        }
      ],
      "stateMutability": "view",
      "type": "function"
    },
    {
      "inputs": [],
      "name": "minPriceDiffToUpdateMultiplier",
      "outputs": [
        {
          "internalType": "uint256",
          "name": "",
          "type": "uint256"
        }
      ],
      "stateMutability": "view",
      "type": "function"
    },
    {
      "inputs": [
        {
          "internalType": "address",
          "name": "_user",
          "type": "address"
        }
      ],
      "name": "pendingUGOV",
      "outputs": [
        {
          "internalType": "uint256",
          "name": "",
          "type": "uint256"
        }
      ],
      "stateMutability": "view",
      "type": "function"
    },
    {
      "inputs": [],
      "name": "pool",
      "outputs": [
        {
          "internalType": "uint256",
          "name": "lastRewardBlock",
          "type": "uint256"
        },
        {
          "internalType": "uint256",
          "name": "accuGOVPerShare",
          "type": "uint256"
        }
      ],
      "stateMutability": "view",
      "type": "function"
    },
    {
      "inputs": [
        {
          "internalType": "uint256",
          "name": "_minPriceDiffToUpdateMultiplier",
          "type": "uint256"
        }
      ],
      "name": "setMinPriceDiffToUpdateMultiplier",
      "outputs": [],
      "stateMutability": "nonpayable",
      "type": "function"
    },
    {
      "inputs": [
        {
          "internalType": "uint256",
          "name": "_uGOVPerBlock",
          "type": "uint256"
        }
      ],
      "name": "setUGOVPerBlock",
      "outputs": [],
      "stateMutability": "nonpayable",
      "type": "function"
    },
    {
      "inputs": [],
      "name": "uGOVPerBlock",
      "outputs": [
        {
          "internalType": "uint256",
          "name": "",
          "type": "uint256"
        }
      ],
      "stateMutability": "view",
      "type": "function"
    },
    {
      "inputs": [],
      "name": "uGOVmultiplier",
      "outputs": [
        {
          "internalType": "uint256",
          "name": "",
          "type": "uint256"
        }
      ],
      "stateMutability": "view",
      "type": "function"
    },
    {
      "inputs": [
        {
          "internalType": "address",
          "name": "",
          "type": "address"
        }
      ],
      "name": "userInfo",
      "outputs": [
        {
          "internalType": "uint256",
          "name": "amount",
          "type": "uint256"
        },
        {
          "internalType": "uint256",
          "name": "rewardDebt",
          "type": "uint256"
        }
      ],
      "stateMutability": "view",
      "type": "function"
    },
    {
      "inputs": [
        {
          "internalType": "uint256",
          "name": "_amount",
          "type": "uint256"
        },
        {
          "internalType": "address",
          "name": "sender",
          "type": "address"
        }
      ],
      "name": "withdraw",
      "outputs": [],
      "stateMutability": "nonpayable",
      "type": "function"
    }
  ],
  "transactionHash": "0x8d0b5f2e34b05a05725aa12fd1982427c540d3096d905a46eed2b02fb32773b9",
  "args": [
    "0x4DA97a8b831C345dBe6d16FF7432DF2b7b776d98"
  ],
  "solcInputHash": "718dfe5f2e9bb98c22443f71ab0527e0",
  "bytecode": "0x6080604052670de0b6b3a7640000600155670de0b6b3a764000060025566038d7ea4c68000600355670de0b6b3a76400006004553480156200004057600080fd5b5060405162001bb838038062001bb88339810160408190526200006391620003ad565b600080546001600160a01b0319166001600160a01b038316178155436005556006556200008f62000096565b506200041a565b6000620000a26200020c565b90506000600454821115620000cc57600354600454620000c39084620003f6565b119050620000e3565b60035482600454620000df9190620003f6565b1190505b8015620002085760008054906101000a90046001600160a01b03166001600160a01b031663214f78826040518163ffffffff1660e01b815260040160206040518083038186803b1580156200013757600080fd5b505afa1580156200014c573d6000803e3d6000fd5b505050506040513d601f19601f82011682018060405250810190620001729190620003ad565b6001600160a01b031663794e955c600254846040518363ffffffff1660e01b8152600401620001ab929190918252602082015260400190565b60206040518083038186803b158015620001c457600080fd5b505afa158015620001d9573d6000803e3d6000fd5b505050506040513d601f19601f82011682018060405250810190620001ff9190620003dd565b60025560048290555b5050565b60008060009054906101000a90046001600160a01b03166001600160a01b0316638fe636836040518163ffffffff1660e01b815260040160206040518083038186803b1580156200025c57600080fd5b505afa15801562000271573d6000803e3d6000fd5b505050506040513d601f19601f82011682018060405250810190620002979190620003ad565b6001600160a01b031663283583c660008054906101000a90046001600160a01b03166001600160a01b031663bc3ea0186040518163ffffffff1660e01b815260040160206040518083038186803b158015620002f257600080fd5b505afa15801562000307573d6000803e3d6000fd5b505050506040513d601f19601f820116820180604052508101906200032d9190620003ad565b6040516001600160e01b031960e084901b1681526001600160a01b03909116600482015260240160206040518083038186803b1580156200036d57600080fd5b505afa15801562000382573d6000803e3d6000fd5b505050506040513d601f19601f82011682018060405250810190620003a89190620003dd565b905090565b600060208284031215620003bf578081fd5b81516001600160a01b0381168114620003d6578182fd5b9392505050565b600060208284031215620003ef578081fd5b5051919050565b6000828210156200041557634e487b7160e01b81526011600452602481fd5b500390565b61178e806200042a6000396000f3fe608060405234801561001057600080fd5b50600436106100de5760003560e01c8063219339331161008c5780636e553f65116100665780636e553f65146101ac57806378b3139b146101bf578063f22b1ded146101d2578063ffd65a49146101e5576100de565b8063219339331461016f57806347e54e3814610178578063481c6a7514610181576100de565b806316f0115b116100bd57806316f0115b1461011c5780631959a0021461013f5780631aeb2d0914610166576100de565b8062f714ce146100e3578063053f14da146100f85780630572b0cc14610114575b600080fd5b6100f66100f136600461163b565b6101f8565b005b61010160045481565b6040519081526020015b60405180910390f35b610101610408565b60055460065461012a919082565b6040805192835260208301919091520161010b565b61012a61014d3660046115b3565b6007602052600090815260409020805460019091015482565b61010160025481565b61010160035481565b61010160015481565b600054610194906001600160a01b031681565b6040516001600160a01b03909116815260200161010b565b6100f66101ba36600461163b565b61048b565b6100f66101cd366004611623565b61064d565b6101016101e03660046115b3565b610798565b6100f66101f3366004611623565b610944565b60008054906101000a90046001600160a01b03166001600160a01b031663de71c1db6040518163ffffffff1660e01b815260040160206040518083038186803b15801561024457600080fd5b505afa158015610258573d6000803e3d6000fd5b505050506040513d601f19601f8201168201806040525081019061027c91906115cf565b6001600160a01b0316336001600160a01b0316146102e15760405162461bcd60e51b815260206004820181905260248201527f4d6173746572436865663a206e6f7420426f6e64696e6720436f6e747261637460448201526064015b60405180910390fd5b6001600160a01b0381166000908152600760205260409020805483111561034a5760405162461bcd60e51b815260206004820152601360248201527f4d433a20616d6f756e7420746f6f20686967680000000000000000000000000060448201526064016102d8565b610352610a8f565b600181015460065482546000929164e8d4a510009161037191906116f1565b61037b91906116d1565b6103859190611710565b90506103918382610e79565b815461039e908590611710565b80835560065464e8d4a51000916103b591906116f1565b6103bf91906116d1565b60018301556040518481526001600160a01b038416907f884edad9ce6fa2440d8a54cc123490eb96d2768479d49ff9c7366125a94243649060200160405180910390a250505050565b33600090815260076020526040812061041f610a8f565b600181015460065482546000929164e8d4a510009161043e91906116f1565b61044891906116d1565b6104529190611710565b905061045e3382610e79565b600654825464e8d4a5100091610473916116f1565b61047d91906116d1565b600190920191909155905090565b60008054906101000a90046001600160a01b03166001600160a01b031663de71c1db6040518163ffffffff1660e01b815260040160206040518083038186803b1580156104d757600080fd5b505afa1580156104eb573d6000803e3d6000fd5b505050506040513d601f19601f8201168201806040525081019061050f91906115cf565b6001600160a01b0316336001600160a01b03161461056f5760405162461bcd60e51b815260206004820181905260248201527f4d6173746572436865663a206e6f7420426f6e64696e6720436f6e747261637460448201526064016102d8565b6001600160a01b038116600090815260076020526040902061058f610a8f565b8054156105d757600181015460065482546000929164e8d4a51000916105b591906116f1565b6105bf91906116d1565b6105c99190611710565b90506105d58382610e79565b505b80546105e49084906116b9565b80825560065464e8d4a51000916105fb91906116f1565b61060591906116d1565b60018201556040518381526001600160a01b038316907fe1fffcc4923d04b559f4d29a8bfc6cda04eb5b0d3c460751c2402c5c5cc9109c9060200160405180910390a2505050565b60005460408051633b4d977360e01b815290516001600160a01b03909216916391d14854918391633b4d977391600480820192602092909190829003018186803b15801561069a57600080fd5b505afa1580156106ae573d6000803e3d6000fd5b505050506040513d601f19601f820116820180604052508101906106d2919061160b565b6040516001600160e01b031960e084901b168152600481019190915233602482015260440160206040518083038186803b15801561070f57600080fd5b505afa158015610723573d6000803e3d6000fd5b505050506040513d601f19601f8201168201806040525081019061074791906115eb565b6107935760405162461bcd60e51b815260206004820152601b60248201527f4d6173746572436865663a206e6f7420554251206d616e61676572000000000060448201526064016102d8565b600355565b6001600160a01b0380821660009081526007602090815260408083206006548454835163310c7a0f60e21b815293519596929591948794919093169263c431e83c92600480840193829003018186803b1580156107f457600080fd5b505afa158015610808573d6000803e3d6000fd5b505050506040513d601f19601f8201168201806040525081019061082c91906115cf565b6001600160a01b03166318160ddd6040518163ffffffff1660e01b815260040160206040518083038186803b15801561086457600080fd5b505afa158015610878573d6000803e3d6000fd5b505050506040513d601f19601f8201168201806040525081019061089c919061160b565b600554909150431180156108af57508015155b1561090e5760006108be610fba565b90506000670de0b6b3a7640000600154836108d991906116f1565b6108e391906116d1565b9050826108f58264e8d4a510006116f1565b6108ff91906116d1565b61090990856116b9565b935050505b6001830154835464e8d4a51000906109279085906116f1565b61093191906116d1565b61093b9190611710565b95945050505050565b60005460408051633b4d977360e01b815290516001600160a01b03909216916391d14854918391633b4d977391600480820192602092909190829003018186803b15801561099157600080fd5b505afa1580156109a5573d6000803e3d6000fd5b505050506040513d601f19601f820116820180604052508101906109c9919061160b565b6040516001600160e01b031960e084901b168152600481019190915233602482015260440160206040518083038186803b158015610a0657600080fd5b505afa158015610a1a573d6000803e3d6000fd5b505050506040513d601f19601f82011682018060405250810190610a3e91906115eb565b610a8a5760405162461bcd60e51b815260206004820152601b60248201527f4d6173746572436865663a206e6f7420554251206d616e61676572000000000060448201526064016102d8565b600155565b6005544311610a9d57610e77565b610aa5610fdd565b60008060009054906101000a90046001600160a01b03166001600160a01b031663c431e83c6040518163ffffffff1660e01b815260040160206040518083038186803b158015610af457600080fd5b505afa158015610b08573d6000803e3d6000fd5b505050506040513d601f19601f82011682018060405250810190610b2c91906115cf565b6001600160a01b03166318160ddd6040518163ffffffff1660e01b815260040160206040518083038186803b158015610b6457600080fd5b505afa158015610b78573d6000803e3d6000fd5b505050506040513d601f19601f82011682018060405250810190610b9c919061160b565b905080610bad575043600555610e77565b6000610bb7610fba565b90506000670de0b6b3a764000060015483610bd291906116f1565b610bdc91906116d1565b905060008054906101000a90046001600160a01b03166001600160a01b031663b42165d06040518163ffffffff1660e01b815260040160206040518083038186803b158015610c2a57600080fd5b505afa158015610c3e573d6000803e3d6000fd5b505050506040513d601f19601f82011682018060405250810190610c6291906115cf565b6040516340c10f1960e01b8152306004820152602481018390526001600160a01b0391909116906340c10f1990604401600060405180830381600087803b158015610cac57600080fd5b505af1158015610cc0573d6000803e3d6000fd5b5050505060008054906101000a90046001600160a01b03166001600160a01b031663b42165d06040518163ffffffff1660e01b815260040160206040518083038186803b158015610d1057600080fd5b505afa158015610d24573d6000803e3d6000fd5b505050506040513d601f19601f82011682018060405250810190610d4891906115cf565b6001600160a01b03166340c10f1960008054906101000a90046001600160a01b03166001600160a01b031663c5f956af6040518163ffffffff1660e01b815260040160206040518083038186803b158015610da257600080fd5b505afa158015610db6573d6000803e3d6000fd5b505050506040513d601f19601f82011682018060405250810190610dda91906115cf565b610de56005856116d1565b6040516001600160e01b031960e085901b1681526001600160a01b0390921660048301526024820152604401600060405180830381600087803b158015610e2b57600080fd5b505af1158015610e3f573d6000803e3d6000fd5b50505050828164e8d4a51000610e5591906116f1565b610e5f91906116d1565b600654610e6c91906116b9565b600655505043600555505b565b60008060009054906101000a90046001600160a01b03166001600160a01b031663b42165d06040518163ffffffff1660e01b815260040160206040518083038186803b158015610ec857600080fd5b505afa158015610edc573d6000803e3d6000fd5b505050506040513d601f19601f82011682018060405250810190610f0091906115cf565b6040516370a0823160e01b81523060048201529091506000906001600160a01b038316906370a082319060240160206040518083038186803b158015610f4557600080fd5b505afa158015610f59573d6000803e3d6000fd5b505050506040513d601f19601f82011682018060405250810190610f7d919061160b565b905080831115610fa057610f9b6001600160a01b0383168583611141565b610fb4565b610fb46001600160a01b0383168585611141565b50505050565b60025460055460009190610fce9043611710565b610fd891906116f1565b905090565b6000610fe76111ad565b9050600060045482111561100d576003546004546110059084611710565b119050611022565b6003548260045461101e9190611710565b1190505b801561113d5760008054906101000a90046001600160a01b03166001600160a01b031663214f78826040518163ffffffff1660e01b815260040160206040518083038186803b15801561107457600080fd5b505afa158015611088573d6000803e3d6000fd5b505050506040513d601f19601f820116820180604052508101906110ac91906115cf565b6001600160a01b031663794e955c600254846040518363ffffffff1660e01b81526004016110e4929190918252602082015260400190565b60206040518083038186803b1580156110fc57600080fd5b505afa158015611110573d6000803e3d6000fd5b505050506040513d601f19601f82011682018060405250810190611134919061160b565b60025560048290555b5050565b604080516001600160a01b038416602482015260448082018490528251808303909101815260649091019091526020810180517bffffffffffffffffffffffffffffffffffffffffffffffffffffffff1663a9059cbb60e01b1790526111a890849061133d565b505050565b60008060009054906101000a90046001600160a01b03166001600160a01b0316638fe636836040518163ffffffff1660e01b815260040160206040518083038186803b1580156111fc57600080fd5b505afa158015611210573d6000803e3d6000fd5b505050506040513d601f19601f8201168201806040525081019061123491906115cf565b6001600160a01b031663283583c660008054906101000a90046001600160a01b03166001600160a01b031663bc3ea0186040518163ffffffff1660e01b815260040160206040518083038186803b15801561128e57600080fd5b505afa1580156112a2573d6000803e3d6000fd5b505050506040513d601f19601f820116820180604052508101906112c691906115cf565b6040516001600160e01b031960e084901b1681526001600160a01b03909116600482015260240160206040518083038186803b15801561130557600080fd5b505afa158015611319573d6000803e3d6000fd5b505050506040513d601f19601f82011682018060405250810190610fd8919061160b565b6000611392826040518060400160405280602081526020017f5361666545524332303a206c6f772d6c6576656c2063616c6c206661696c6564815250856001600160a01b03166114229092919063ffffffff16565b8051909150156111a857808060200190518101906113b091906115eb565b6111a85760405162461bcd60e51b815260206004820152602a60248201527f5361666545524332303a204552433230206f7065726174696f6e20646964206e60448201527f6f7420737563636565640000000000000000000000000000000000000000000060648201526084016102d8565b6060611431848460008561143b565b90505b9392505050565b6060824710156114b35760405162461bcd60e51b815260206004820152602660248201527f416464726573733a20696e73756666696369656e742062616c616e636520666f60448201527f722063616c6c000000000000000000000000000000000000000000000000000060648201526084016102d8565b843b6115015760405162461bcd60e51b815260206004820152601d60248201527f416464726573733a2063616c6c20746f206e6f6e2d636f6e747261637400000060448201526064016102d8565b600080866001600160a01b0316858760405161151d919061166a565b60006040518083038185875af1925050503d806000811461155a576040519150601f19603f3d011682016040523d82523d6000602084013e61155f565b606091505b509150915061156f82828661157a565b979650505050505050565b60608315611589575081611434565b8251156115995782518084602001fd5b8160405162461bcd60e51b81526004016102d89190611686565b6000602082840312156115c4578081fd5b813561143481611769565b6000602082840312156115e0578081fd5b815161143481611769565b6000602082840312156115fc578081fd5b81518015158114611434578182fd5b60006020828403121561161c578081fd5b5051919050565b600060208284031215611634578081fd5b5035919050565b6000806040838503121561164d578081fd5b82359150602083013561165f81611769565b809150509250929050565b6000825161167c818460208701611727565b9190910192915050565b60006020825282518060208401526116a5816040850160208701611727565b601f01601f19169190910160400192915050565b600082198211156116cc576116cc611753565b500190565b6000826116ec57634e487b7160e01b81526012600452602481fd5b500490565b600081600019048311821515161561170b5761170b611753565b500290565b60008282101561172257611722611753565b500390565b60005b8381101561174257818101518382015260200161172a565b83811115610fb45750506000910152565b634e487b7160e01b600052601160045260246000fd5b6001600160a01b038116811461177e57600080fd5b5056fea164736f6c6343000803000a",
  "devdoc": {
    "kind": "dev",
    "methods": {
      "getRewards()": {
        "details": "get pending uGOV rewards from MasterChef.",
        "returns": {
          "_0": "amount of pending rewards transfered to msg.sender"
        }
      }
    },
    "version": 1
  },
  "userdoc": {
    "kind": "user",
    "methods": {
      "getRewards()": {
        "notice": "only send pending rewards"
      }
    },
    "version": 1
  },
  "storageLayout": {
    "storage": [
      {
        "astId": 8407,
        "contract": "contracts/MasterChef.sol:MasterChef",
        "label": "manager",
        "offset": 0,
        "slot": "0",
        "type": "t_contract(UbiquityAlgorithmicDollarManager)10304"
      },
      {
        "astId": 8410,
        "contract": "contracts/MasterChef.sol:MasterChef",
        "label": "uGOVPerBlock",
        "offset": 0,
        "slot": "1",
        "type": "t_uint256"
      },
      {
        "astId": 8413,
        "contract": "contracts/MasterChef.sol:MasterChef",
        "label": "uGOVmultiplier",
        "offset": 0,
        "slot": "2",
        "type": "t_uint256"
      },
      {
        "astId": 8416,
        "contract": "contracts/MasterChef.sol:MasterChef",
        "label": "minPriceDiffToUpdateMultiplier",
        "offset": 0,
        "slot": "3",
        "type": "t_uint256"
      },
      {
        "astId": 8419,
        "contract": "contracts/MasterChef.sol:MasterChef",
        "label": "lastPrice",
        "offset": 0,
        "slot": "4",
        "type": "t_uint256"
      },
      {
        "astId": 8422,
        "contract": "contracts/MasterChef.sol:MasterChef",
        "label": "pool",
        "offset": 0,
        "slot": "5",
        "type": "t_struct(PoolInfo)8404_storage"
      },
      {
        "astId": 8427,
        "contract": "contracts/MasterChef.sol:MasterChef",
        "label": "userInfo",
        "offset": 0,
        "slot": "7",
        "type": "t_mapping(t_address,t_struct(UserInfo)8399_storage)"
      }
    ],
    "types": {
      "t_address": {
        "encoding": "inplace",
        "label": "address",
        "numberOfBytes": "20"
      },
      "t_contract(UbiquityAlgorithmicDollarManager)10304": {
        "encoding": "inplace",
        "label": "contract UbiquityAlgorithmicDollarManager",
        "numberOfBytes": "20"
      },
      "t_mapping(t_address,t_struct(UserInfo)8399_storage)": {
        "encoding": "mapping",
        "key": "t_address",
        "label": "mapping(address => struct MasterChef.UserInfo)",
        "numberOfBytes": "32",
        "value": "t_struct(UserInfo)8399_storage"
      },
      "t_struct(PoolInfo)8404_storage": {
        "encoding": "inplace",
        "label": "struct MasterChef.PoolInfo",
        "members": [
          {
            "astId": 8401,
            "contract": "contracts/MasterChef.sol:MasterChef",
            "label": "lastRewardBlock",
            "offset": 0,
            "slot": "0",
            "type": "t_uint256"
          },
          {
            "astId": 8403,
            "contract": "contracts/MasterChef.sol:MasterChef",
            "label": "accuGOVPerShare",
            "offset": 0,
            "slot": "1",
            "type": "t_uint256"
          }
        ],
        "numberOfBytes": "64"
      },
      "t_struct(UserInfo)8399_storage": {
        "encoding": "inplace",
        "label": "struct MasterChef.UserInfo",
        "members": [
          {
            "astId": 8396,
            "contract": "contracts/MasterChef.sol:MasterChef",
            "label": "amount",
            "offset": 0,
            "slot": "0",
            "type": "t_uint256"
          },
          {
            "astId": 8398,
            "contract": "contracts/MasterChef.sol:MasterChef",
            "label": "rewardDebt",
            "offset": 0,
            "slot": "1",
            "type": "t_uint256"
          }
        ],
        "numberOfBytes": "64"
      },
      "t_uint256": {
        "encoding": "inplace",
        "label": "uint256",
        "numberOfBytes": "32"
      }
    }
  }
}