{
  "abi": [
    {
      "inputs": [
        {
          "internalType": "address",
          "name": "_manager",
          "type": "address"
        }
      ],
      "stateMutability": "nonpayable",
      "type": "constructor"
    },
    {
      "anonymous": false,
      "inputs": [
        {
          "indexed": true,
          "internalType": "address",
          "name": "account",
          "type": "address"
        },
        {
          "indexed": true,
          "internalType": "address",
          "name": "operator",
          "type": "address"
        },
        {
          "indexed": false,
          "internalType": "bool",
          "name": "approved",
          "type": "bool"
        }
      ],
      "name": "ApprovalForAll",
      "type": "event"
    },
    {
      "anonymous": false,
      "inputs": [
        {
          "indexed": false,
          "internalType": "address",
          "name": "account",
          "type": "address"
        }
      ],
      "name": "Paused",
      "type": "event"
    },
    {
      "anonymous": false,
      "inputs": [
        {
          "indexed": true,
          "internalType": "address",
          "name": "operator",
          "type": "address"
        },
        {
          "indexed": true,
          "internalType": "address",
          "name": "from",
          "type": "address"
        },
        {
          "indexed": true,
          "internalType": "address",
          "name": "to",
          "type": "address"
        },
        {
          "indexed": false,
          "internalType": "uint256[]",
          "name": "ids",
          "type": "uint256[]"
        },
        {
          "indexed": false,
          "internalType": "uint256[]",
          "name": "values",
          "type": "uint256[]"
        }
      ],
      "name": "TransferBatch",
      "type": "event"
    },
    {
      "anonymous": false,
      "inputs": [
        {
          "indexed": true,
          "internalType": "address",
          "name": "operator",
          "type": "address"
        },
        {
          "indexed": true,
          "internalType": "address",
          "name": "from",
          "type": "address"
        },
        {
          "indexed": true,
          "internalType": "address",
          "name": "to",
          "type": "address"
        },
        {
          "indexed": false,
          "internalType": "uint256",
          "name": "id",
          "type": "uint256"
        },
        {
          "indexed": false,
          "internalType": "uint256",
          "name": "value",
          "type": "uint256"
        }
      ],
      "name": "TransferSingle",
      "type": "event"
    },
    {
      "anonymous": false,
      "inputs": [
        {
          "indexed": false,
          "internalType": "string",
          "name": "value",
          "type": "string"
        },
        {
          "indexed": true,
          "internalType": "uint256",
          "name": "id",
          "type": "uint256"
        }
      ],
      "name": "URI",
      "type": "event"
    },
    {
      "anonymous": false,
      "inputs": [
        {
          "indexed": false,
          "internalType": "address",
          "name": "account",
          "type": "address"
        }
      ],
      "name": "Unpaused",
      "type": "event"
    },
    {
      "inputs": [
        {
          "internalType": "address",
          "name": "account",
          "type": "address"
        },
        {
          "internalType": "uint256",
          "name": "id",
          "type": "uint256"
        }
      ],
      "name": "balanceOf",
      "outputs": [
        {
          "internalType": "uint256",
          "name": "",
          "type": "uint256"
        }
      ],
      "stateMutability": "view",
      "type": "function"
    },
    {
      "inputs": [
        {
          "internalType": "address[]",
          "name": "accounts",
          "type": "address[]"
        },
        {
          "internalType": "uint256[]",
          "name": "ids",
          "type": "uint256[]"
        }
      ],
      "name": "balanceOfBatch",
      "outputs": [
        {
          "internalType": "uint256[]",
          "name": "",
          "type": "uint256[]"
        }
      ],
      "stateMutability": "view",
      "type": "function"
    },
    {
      "inputs": [
        {
          "internalType": "address",
          "name": "account",
          "type": "address"
        },
        {
          "internalType": "uint256",
          "name": "id",
          "type": "uint256"
        },
        {
          "internalType": "uint256",
          "name": "value",
          "type": "uint256"
        }
      ],
      "name": "burn",
      "outputs": [],
      "stateMutability": "nonpayable",
      "type": "function"
    },
    {
      "inputs": [
        {
          "internalType": "address",
          "name": "account",
          "type": "address"
        },
        {
          "internalType": "uint256[]",
          "name": "ids",
          "type": "uint256[]"
        },
        {
          "internalType": "uint256[]",
          "name": "values",
          "type": "uint256[]"
        }
      ],
      "name": "burnBatch",
      "outputs": [],
      "stateMutability": "nonpayable",
      "type": "function"
    },
    {
      "inputs": [
        {
          "internalType": "address",
          "name": "holder",
          "type": "address"
        }
      ],
      "name": "holderTokens",
      "outputs": [
        {
          "internalType": "uint256[]",
          "name": "",
          "type": "uint256[]"
        }
      ],
      "stateMutability": "view",
      "type": "function"
    },
    {
      "inputs": [
        {
          "internalType": "address",
          "name": "account",
          "type": "address"
        },
        {
          "internalType": "address",
          "name": "operator",
          "type": "address"
        }
      ],
      "name": "isApprovedForAll",
      "outputs": [
        {
          "internalType": "bool",
          "name": "",
          "type": "bool"
        }
      ],
      "stateMutability": "view",
      "type": "function"
    },
    {
      "inputs": [],
      "name": "manager",
      "outputs": [
        {
          "internalType": "contract UbiquityAlgorithmicDollarManager",
          "name": "",
          "type": "address"
        }
      ],
      "stateMutability": "view",
      "type": "function"
    },
    {
      "inputs": [
        {
          "internalType": "address",
          "name": "to",
          "type": "address"
        },
        {
          "internalType": "uint256",
          "name": "id",
          "type": "uint256"
        },
        {
          "internalType": "uint256",
          "name": "amount",
          "type": "uint256"
        },
        {
          "internalType": "bytes",
          "name": "data",
          "type": "bytes"
        }
      ],
      "name": "mint",
      "outputs": [],
      "stateMutability": "nonpayable",
      "type": "function"
    },
    {
      "inputs": [
        {
          "internalType": "address",
          "name": "to",
          "type": "address"
        },
        {
          "internalType": "uint256[]",
          "name": "ids",
          "type": "uint256[]"
        },
        {
          "internalType": "uint256[]",
          "name": "amounts",
          "type": "uint256[]"
        },
        {
          "internalType": "bytes",
          "name": "data",
          "type": "bytes"
        }
      ],
      "name": "mintBatch",
      "outputs": [],
      "stateMutability": "nonpayable",
      "type": "function"
    },
    {
      "inputs": [],
      "name": "pause",
      "outputs": [],
      "stateMutability": "nonpayable",
      "type": "function"
    },
    {
      "inputs": [],
      "name": "paused",
      "outputs": [
        {
          "internalType": "bool",
          "name": "",
          "type": "bool"
        }
      ],
      "stateMutability": "view",
      "type": "function"
    },
    {
      "inputs": [
        {
          "internalType": "address",
          "name": "from",
          "type": "address"
        },
        {
          "internalType": "address",
          "name": "to",
          "type": "address"
        },
        {
          "internalType": "uint256[]",
          "name": "ids",
          "type": "uint256[]"
        },
        {
          "internalType": "uint256[]",
          "name": "amounts",
          "type": "uint256[]"
        },
        {
          "internalType": "bytes",
          "name": "data",
          "type": "bytes"
        }
      ],
      "name": "safeBatchTransferFrom",
      "outputs": [],
      "stateMutability": "nonpayable",
      "type": "function"
    },
    {
      "inputs": [
        {
          "internalType": "address",
          "name": "from",
          "type": "address"
        },
        {
          "internalType": "address",
          "name": "to",
          "type": "address"
        },
        {
          "internalType": "uint256",
          "name": "id",
          "type": "uint256"
        },
        {
          "internalType": "uint256",
          "name": "amount",
          "type": "uint256"
        },
        {
          "internalType": "bytes",
          "name": "data",
          "type": "bytes"
        }
      ],
      "name": "safeTransferFrom",
      "outputs": [],
      "stateMutability": "nonpayable",
      "type": "function"
    },
    {
      "inputs": [
        {
          "internalType": "address",
          "name": "operator",
          "type": "address"
        },
        {
          "internalType": "bool",
          "name": "approved",
          "type": "bool"
        }
      ],
      "name": "setApprovalForAll",
      "outputs": [],
      "stateMutability": "nonpayable",
      "type": "function"
    },
    {
      "inputs": [
        {
          "internalType": "bytes4",
          "name": "interfaceId",
          "type": "bytes4"
        }
      ],
      "name": "supportsInterface",
      "outputs": [
        {
          "internalType": "bool",
          "name": "",
          "type": "bool"
        }
      ],
      "stateMutability": "view",
      "type": "function"
    },
    {
      "inputs": [],
      "name": "totalSupply",
      "outputs": [
        {
          "internalType": "uint256",
          "name": "",
          "type": "uint256"
        }
      ],
      "stateMutability": "view",
      "type": "function"
    },
    {
      "inputs": [],
      "name": "unpause",
      "outputs": [],
      "stateMutability": "nonpayable",
      "type": "function"
    },
    {
      "inputs": [
        {
          "internalType": "uint256",
          "name": "",
          "type": "uint256"
        }
      ],
      "name": "uri",
      "outputs": [
        {
          "internalType": "string",
          "name": "",
          "type": "string"
        }
      ],
      "stateMutability": "view",
      "type": "function"
    }
  ],
  "bytecode": {
    "object": "0x60806040523480156200001157600080fd5b50604051620034373803806200343783398101604081905262000034916200009c565b60408051808201909152600381526255524960e81b60208201528190806200005c816200008a565b5050600380546001600160a01b03909216610100026001600160a81b0319909216919091179055506200023f565b600262000098828262000173565b5050565b600060208284031215620000af57600080fd5b81516001600160a01b0381168114620000c757600080fd5b9392505050565b634e487b7160e01b600052604160045260246000fd5b600181811c90821680620000f957607f821691505b6020821081036200011a57634e487b7160e01b600052602260045260246000fd5b50919050565b601f8211156200016e57600081815260208120601f850160051c81016020861015620001495750805b601f850160051c820191505b818110156200016a5782815560010162000155565b5050505b505050565b81516001600160401b038111156200018f576200018f620000ce565b620001a781620001a08454620000e4565b8462000120565b602080601f831160018114620001df5760008415620001c65750858301515b600019600386901b1c1916600185901b1785556200016a565b600085815260208120601f198616915b828110156200021057888601518255948401946001909101908401620001ef565b50858210156200022f5787850151600019600388901b60f8161c191681555b5050505050600190811b01905550565b6131e8806200024f6000396000f3fe608060405234801561001057600080fd5b50600436106101355760003560e01c80635c975abb116100b25780638456cb5911610081578063e985e9c511610066578063e985e9c5146102a4578063f242432a146102ed578063f5298aca1461030057600080fd5b80638456cb5914610289578063a22cb4651461029157600080fd5b80635c975abb146102455780636b20c45414610250578063731133e9146102635780637b48c3fd1461027657600080fd5b80631f7fdffa116101095780633f4ba83a116100ee5780633f4ba83a146101d3578063481c6a75146101db5780634e1273f41461022557600080fd5b80631f7fdffa146101ab5780632eb2c2d6146101c057600080fd5b8062fdd58e1461013a57806301ffc9a7146101605780630e89341c1461018357806318160ddd146101a3575b600080fd5b61014d6101483660046127a3565b610313565b6040519081526020015b60405180910390f35b61017361016e3660046127fe565b6103d9565b6040519015158152602001610157565b610196610191366004612822565b6104bc565b604051610157919061289f565b60055461014d565b6101be6101b9366004612a53565b610550565b005b6101be6101ce366004612aec565b610751565b6101be610794565b60035461020090610100900473ffffffffffffffffffffffffffffffffffffffff1681565b60405173ffffffffffffffffffffffffffffffffffffffff9091168152602001610157565b610238610233366004612b96565b610908565b6040516101579190612c9c565b60035460ff16610173565b6101be61025e366004612caf565b610a46565b6101be610271366004612d23565b610af1565b610238610284366004612d78565b610cad565b6101be610d25565b6101be61029f366004612da1565b610e97565b6101736102b2366004612dd8565b73ffffffffffffffffffffffffffffffffffffffff918216600090815260016020908152604080832093909416825291909152205460ff1690565b6101be6102fb366004612e0b565b610ea6565b6101be61030e366004612e70565b610ee2565b600073ffffffffffffffffffffffffffffffffffffffff83166103a35760405162461bcd60e51b815260206004820152602a60248201527f455243313135353a2061646472657373207a65726f206973206e6f742061207660448201527f616c6964206f776e65720000000000000000000000000000000000000000000060648201526084015b60405180910390fd5b5060008181526020818152604080832073ffffffffffffffffffffffffffffffffffffffff861684529091529020545b92915050565b60007fffffffff0000000000000000000000000000000000000000000000000000000082167fd9b67a2600000000000000000000000000000000000000000000000000000000148061046c57507fffffffff0000000000000000000000000000000000000000000000000000000082167f0e89341c00000000000000000000000000000000000000000000000000000000145b806103d357507f01ffc9a7000000000000000000000000000000000000000000000000000000007fffffffff000000000000000000000000000000000000000000000000000000008316146103d3565b6060600280546104cb90612ea3565b80601f01602080910402602001604051908101604052809291908181526020018280546104f790612ea3565b80156105445780601f1061051957610100808354040283529160200191610544565b820191906000526020600020905b81548152906001019060200180831161052757829003601f168201915b50505050509050919050565b600354604080517f2f533cb7000000000000000000000000000000000000000000000000000000008152905161010090920473ffffffffffffffffffffffffffffffffffffffff16916391d14854918391632f533cb7916004808201926020929091908290030181865afa1580156105cc573d6000803e3d6000fd5b505050506040513d601f19601f820116820180604052508101906105f09190612ef6565b6040517fffffffff0000000000000000000000000000000000000000000000000000000060e084901b1681526004810191909152336024820152604401602060405180830381865afa15801561064a573d6000803e3d6000fd5b505050506040513d601f19601f8201168201806040525081019061066e9190612f0f565b6106ba5760405162461bcd60e51b815260206004820152601c60248201527f476f7665726e616e636520746f6b656e3a206e6f74206d696e74657200000000604482015260640161039a565b6106c2610f88565b6106ce84848484610fdb565b60005b835181101561071b578281815181106106ec576106ec612f2c565b6020026020010151600560008282546107059190612f8a565b90915550610714905081612f9d565b90506106d1565b5073ffffffffffffffffffffffffffffffffffffffff8416600090815260046020526040902061074b908461122f565b50505050565b61075e85858585856112eb565b73ffffffffffffffffffffffffffffffffffffffff8416600090815260046020526040902061078d908461122f565b5050505050565b600354604080517fe63ab1e9000000000000000000000000000000000000000000000000000000008152905161010090920473ffffffffffffffffffffffffffffffffffffffff16916391d1485491839163e63ab1e9916004808201926020929091908290030181865afa158015610810573d6000803e3d6000fd5b505050506040513d601f19601f820116820180604052508101906108349190612ef6565b6040517fffffffff0000000000000000000000000000000000000000000000000000000060e084901b1681526004810191909152336024820152604401602060405180830381865afa15801561088e573d6000803e3d6000fd5b505050506040513d601f19601f820116820180604052508101906108b29190612f0f565b6108fe5760405162461bcd60e51b815260206004820152601c60248201527f476f7665726e616e636520746f6b656e3a206e6f742070617573657200000000604482015260640161039a565b610906611393565b565b606081518351146109815760405162461bcd60e51b815260206004820152602960248201527f455243313135353a206163636f756e747320616e6420696473206c656e67746860448201527f206d69736d617463680000000000000000000000000000000000000000000000606482015260840161039a565b6000835167ffffffffffffffff81111561099d5761099d6128b2565b6040519080825280602002602001820160405280156109c6578160200160208202803683370190505b50905060005b8451811015610a3e57610a118582815181106109ea576109ea612f2c565b6020026020010151858381518110610a0457610a04612f2c565b6020026020010151610313565b828281518110610a2357610a23612f2c565b6020908102919091010152610a3781612f9d565b90506109cc565b509392505050565b73ffffffffffffffffffffffffffffffffffffffff8316331480610a6f5750610a6f83336102b2565b610ae15760405162461bcd60e51b815260206004820152602e60248201527f455243313135353a2063616c6c6572206973206e6f7420746f6b656e206f776e60448201527f6572206f7220617070726f766564000000000000000000000000000000000000606482015260840161039a565b610aec838383611410565b505050565b600354604080517f2f533cb7000000000000000000000000000000000000000000000000000000008152905161010090920473ffffffffffffffffffffffffffffffffffffffff16916391d14854918391632f533cb7916004808201926020929091908290030181865afa158015610b6d573d6000803e3d6000fd5b505050506040513d601f19601f82011682018060405250810190610b919190612ef6565b6040517fffffffff0000000000000000000000000000000000000000000000000000000060e084901b1681526004810191909152336024820152604401602060405180830381865afa158015610beb573d6000803e3d6000fd5b505050506040513d601f19601f82011682018060405250810190610c0f9190612f0f565b610c5b5760405162461bcd60e51b815260206004820152601c60248201527f476f7665726e616e636520746f6b656e3a206e6f74206d696e74657200000000604482015260640161039a565b610c6784848484611470565b8160056000828254610c799190612f8a565b909155505073ffffffffffffffffffffffffffffffffffffffff8416600090815260046020526040902061074b90846115d6565b73ffffffffffffffffffffffffffffffffffffffff811660009081526004602090815260409182902080548351818402810184019094528084526060939283018282801561054457602002820191906000526020600020905b815481526020019060010190808311610d065750505050509050919050565b600354604080517fe63ab1e9000000000000000000000000000000000000000000000000000000008152905161010090920473ffffffffffffffffffffffffffffffffffffffff16916391d1485491839163e63ab1e9916004808201926020929091908290030181865afa158015610da1573d6000803e3d6000fd5b505050506040513d601f19601f82011682018060405250810190610dc59190612ef6565b6040517fffffffff0000000000000000000000000000000000000000000000000000000060e084901b1681526004810191909152336024820152604401602060405180830381865afa158015610e1f573d6000803e3d6000fd5b505050506040513d601f19601f82011682018060405250810190610e439190612f0f565b610e8f5760405162461bcd60e51b815260206004820152601c60248201527f476f7665726e616e636520746f6b656e3a206e6f742070617573657200000000604482015260640161039a565b610906611635565b610ea2338383611690565b5050565b610eb385858585856117c9565b73ffffffffffffffffffffffffffffffffffffffff8416600090815260046020526040902061078d90846115d6565b73ffffffffffffffffffffffffffffffffffffffff8316331480610f0b5750610f0b83336102b2565b610f7d5760405162461bcd60e51b815260206004820152602e60248201527f455243313135353a2063616c6c6572206973206e6f7420746f6b656e206f776e60448201527f6572206f7220617070726f766564000000000000000000000000000000000000606482015260840161039a565b610aec838383611871565b60035460ff16156109065760405162461bcd60e51b815260206004820152601060248201527f5061757361626c653a2070617573656400000000000000000000000000000000604482015260640161039a565b73ffffffffffffffffffffffffffffffffffffffff84166110645760405162461bcd60e51b815260206004820152602160248201527f455243313135353a206d696e7420746f20746865207a65726f2061646472657360448201527f7300000000000000000000000000000000000000000000000000000000000000606482015260840161039a565b81518351146110db5760405162461bcd60e51b815260206004820152602860248201527f455243313135353a2069647320616e6420616d6f756e7473206c656e6774682060448201527f6d69736d61746368000000000000000000000000000000000000000000000000606482015260840161039a565b336110eb816000878787876118a0565b60005b84518110156111a05783818151811061110957611109612f2c565b602002602001015160008087848151811061112657611126612f2c565b6020026020010151815260200190815260200160002060008873ffffffffffffffffffffffffffffffffffffffff1673ffffffffffffffffffffffffffffffffffffffff16815260200190815260200160002060008282546111889190612f8a565b9091555081905061119881612f9d565b9150506110ee565b508473ffffffffffffffffffffffffffffffffffffffff16600073ffffffffffffffffffffffffffffffffffffffff168273ffffffffffffffffffffffffffffffffffffffff167f4a39dc06d4c0dbc64b70af90fd698a233a518aa5d07e595d983b8c0526c8f7fb8787604051611218929190612fd5565b60405180910390a461078d816000878787876118b6565b60005b8151811015610aec576000805b845481101561129f5783838151811061125a5761125a612f2c565b602002602001015185828154811061127457611274612f2c565b90600052602060002001540361128d576001915061129f565b8061129781612f9d565b91505061123f565b50806112d857838383815181106112b8576112b8612f2c565b602090810291909101810151825460018101845560009384529190922001555b50806112e381612f9d565b915050611232565b73ffffffffffffffffffffffffffffffffffffffff8516331480611314575061131485336102b2565b6113865760405162461bcd60e51b815260206004820152602e60248201527f455243313135353a2063616c6c6572206973206e6f7420746f6b656e206f776e60448201527f6572206f7220617070726f766564000000000000000000000000000000000000606482015260840161039a565b61078d8585858585611af2565b61139b611de4565b600380547fffffffffffffffffffffffffffffffffffffffffffffffffffffffffffffff001690557f5db9ee0a495bf2e6ff9c91a7834c1ba4fdd244a5e8aa4e537bd38aeae4b073aa335b60405173ffffffffffffffffffffffffffffffffffffffff909116815260200160405180910390a1565b611418610f88565b611423838383611e36565b60005b825181101561074b5781818151811061144157611441612f2c565b60200260200101516005600082825461145a9190613003565b90915550611469905081612f9d565b9050611426565b73ffffffffffffffffffffffffffffffffffffffff84166114f95760405162461bcd60e51b815260206004820152602160248201527f455243313135353a206d696e7420746f20746865207a65726f2061646472657360448201527f7300000000000000000000000000000000000000000000000000000000000000606482015260840161039a565b33600061150585612121565b9050600061151285612121565b9050611523836000898585896118a0565b60008681526020818152604080832073ffffffffffffffffffffffffffffffffffffffff8b16845290915281208054879290611560908490612f8a565b9091555050604080518781526020810187905273ffffffffffffffffffffffffffffffffffffffff808a1692600092918716917fc3d58168c5ae7397731d063d5bbf3d657854427343f4c083240f7aacaa2d0f62910160405180910390a46115cd8360008989898961216c565b50505050505050565b60005b825481101561161c57818382815481106115f5576115f5612f2c565b90600052602060002001540361160a57505050565b8061161481612f9d565b9150506115d9565b5081546001810183556000928352602090922090910155565b61163d610f88565b600380547fffffffffffffffffffffffffffffffffffffffffffffffffffffffffffffff001660011790557f62e78cea01bee320cd4e420270b5ea74000d11b0c9f74754ebdbfc544b05a2586113e63390565b8173ffffffffffffffffffffffffffffffffffffffff168373ffffffffffffffffffffffffffffffffffffffff16036117315760405162461bcd60e51b815260206004820152602960248201527f455243313135353a2073657474696e6720617070726f76616c2073746174757360448201527f20666f722073656c660000000000000000000000000000000000000000000000606482015260840161039a565b73ffffffffffffffffffffffffffffffffffffffff83811660008181526001602090815260408083209487168084529482529182902080547fffffffffffffffffffffffffffffffffffffffffffffffffffffffffffffff001686151590811790915591519182527f17307eab39ab6107e8899845ad3d59bd9653f200f220920489ca2b5937696c31910160405180910390a3505050565b73ffffffffffffffffffffffffffffffffffffffff85163314806117f257506117f285336102b2565b6118645760405162461bcd60e51b815260206004820152602e60248201527f455243313135353a2063616c6c6572206973206e6f7420746f6b656e206f776e60448201527f6572206f7220617070726f766564000000000000000000000000000000000000606482015260840161039a565b61078d85858585856122ff565b611879610f88565b611884838383612517565b80600560008282546118969190613003565b9091555050505050565b6118ae868686868686612701565b505050505050565b73ffffffffffffffffffffffffffffffffffffffff84163b156118ae576040517fbc197c8100000000000000000000000000000000000000000000000000000000815273ffffffffffffffffffffffffffffffffffffffff85169063bc197c819061192d9089908990889088908890600401613016565b6020604051808303816000875af1925050508015611986575060408051601f3d9081017fffffffffffffffffffffffffffffffffffffffffffffffffffffffffffffffe016820190925261198391810190613081565b60015b611a3b5761199261309e565b806308c379a0036119cb57506119a66130ba565b806119b157506119cd565b8060405162461bcd60e51b815260040161039a919061289f565b505b60405162461bcd60e51b815260206004820152603460248201527f455243313135353a207472616e7366657220746f206e6f6e2d4552433131353560448201527f526563656976657220696d706c656d656e746572000000000000000000000000606482015260840161039a565b7fffffffff0000000000000000000000000000000000000000000000000000000081167fbc197c8100000000000000000000000000000000000000000000000000000000146115cd5760405162461bcd60e51b815260206004820152602860248201527f455243313135353a204552433131353552656365697665722072656a6563746560448201527f6420746f6b656e73000000000000000000000000000000000000000000000000606482015260840161039a565b8151835114611b695760405162461bcd60e51b815260206004820152602860248201527f455243313135353a2069647320616e6420616d6f756e7473206c656e6774682060448201527f6d69736d61746368000000000000000000000000000000000000000000000000606482015260840161039a565b73ffffffffffffffffffffffffffffffffffffffff8416611bf25760405162461bcd60e51b815260206004820152602560248201527f455243313135353a207472616e7366657220746f20746865207a65726f20616460448201527f6472657373000000000000000000000000000000000000000000000000000000606482015260840161039a565b33611c018187878787876118a0565b60005b8451811015611d57576000858281518110611c2157611c21612f2c565b602002602001015190506000858381518110611c3f57611c3f612f2c565b6020908102919091018101516000848152808352604080822073ffffffffffffffffffffffffffffffffffffffff8e168352909352919091205490915081811015611cf25760405162461bcd60e51b815260206004820152602a60248201527f455243313135353a20696e73756666696369656e742062616c616e636520666f60448201527f72207472616e7366657200000000000000000000000000000000000000000000606482015260840161039a565b60008381526020818152604080832073ffffffffffffffffffffffffffffffffffffffff8e8116855292528083208585039055908b16825281208054849290611d3c908490612f8a565b9250508190555050505080611d5090612f9d565b9050611c04565b508473ffffffffffffffffffffffffffffffffffffffff168673ffffffffffffffffffffffffffffffffffffffff168273ffffffffffffffffffffffffffffffffffffffff167f4a39dc06d4c0dbc64b70af90fd698a233a518aa5d07e595d983b8c0526c8f7fb8787604051611dce929190612fd5565b60405180910390a46118ae8187878787876118b6565b60035460ff166109065760405162461bcd60e51b815260206004820152601460248201527f5061757361626c653a206e6f7420706175736564000000000000000000000000604482015260640161039a565b73ffffffffffffffffffffffffffffffffffffffff8316611ebf5760405162461bcd60e51b815260206004820152602360248201527f455243313135353a206275726e2066726f6d20746865207a65726f206164647260448201527f6573730000000000000000000000000000000000000000000000000000000000606482015260840161039a565b8051825114611f365760405162461bcd60e51b815260206004820152602860248201527f455243313135353a2069647320616e6420616d6f756e7473206c656e6774682060448201527f6d69736d61746368000000000000000000000000000000000000000000000000606482015260840161039a565b6000339050611f59818560008686604051806020016040528060008152506118a0565b60005b835181101561208d576000848281518110611f7957611f79612f2c565b602002602001015190506000848381518110611f9757611f97612f2c565b6020908102919091018101516000848152808352604080822073ffffffffffffffffffffffffffffffffffffffff8c1683529093529190912054909150818110156120495760405162461bcd60e51b8152602060048201526024808201527f455243313135353a206275726e20616d6f756e7420657863656564732062616c60448201527f616e636500000000000000000000000000000000000000000000000000000000606482015260840161039a565b60009283526020838152604080852073ffffffffffffffffffffffffffffffffffffffff8b168652909152909220910390558061208581612f9d565b915050611f5c565b50600073ffffffffffffffffffffffffffffffffffffffff168473ffffffffffffffffffffffffffffffffffffffff168273ffffffffffffffffffffffffffffffffffffffff167f4a39dc06d4c0dbc64b70af90fd698a233a518aa5d07e595d983b8c0526c8f7fb8686604051612105929190612fd5565b60405180910390a460408051602081019091526000905261074b565b6040805160018082528183019092526060916000919060208083019080368337019050509050828160008151811061215b5761215b612f2c565b602090810291909101015292915050565b73ffffffffffffffffffffffffffffffffffffffff84163b156118ae576040517ff23a6e6100000000000000000000000000000000000000000000000000000000815273ffffffffffffffffffffffffffffffffffffffff85169063f23a6e61906121e39089908990889088908890600401613162565b6020604051808303816000875af192505050801561223c575060408051601f3d9081017fffffffffffffffffffffffffffffffffffffffffffffffffffffffffffffffe016820190925261223991810190613081565b60015b6122485761199261309e565b7fffffffff0000000000000000000000000000000000000000000000000000000081167ff23a6e6100000000000000000000000000000000000000000000000000000000146115cd5760405162461bcd60e51b815260206004820152602860248201527f455243313135353a204552433131353552656365697665722072656a6563746560448201527f6420746f6b656e73000000000000000000000000000000000000000000000000606482015260840161039a565b73ffffffffffffffffffffffffffffffffffffffff84166123885760405162461bcd60e51b815260206004820152602560248201527f455243313135353a207472616e7366657220746f20746865207a65726f20616460448201527f6472657373000000000000000000000000000000000000000000000000000000606482015260840161039a565b33600061239485612121565b905060006123a185612121565b90506123b18389898585896118a0565b60008681526020818152604080832073ffffffffffffffffffffffffffffffffffffffff8c168452909152902054858110156124555760405162461bcd60e51b815260206004820152602a60248201527f455243313135353a20696e73756666696369656e742062616c616e636520666f60448201527f72207472616e7366657200000000000000000000000000000000000000000000606482015260840161039a565b60008781526020818152604080832073ffffffffffffffffffffffffffffffffffffffff8d8116855292528083208985039055908a1682528120805488929061249f908490612f8a565b9091555050604080518881526020810188905273ffffffffffffffffffffffffffffffffffffffff808b16928c821692918816917fc3d58168c5ae7397731d063d5bbf3d657854427343f4c083240f7aacaa2d0f62910160405180910390a461250c848a8a8a8a8a61216c565b505050505050505050565b73ffffffffffffffffffffffffffffffffffffffff83166125a05760405162461bcd60e51b815260206004820152602360248201527f455243313135353a206275726e2066726f6d20746865207a65726f206164647260448201527f6573730000000000000000000000000000000000000000000000000000000000606482015260840161039a565b3360006125ac84612121565b905060006125b984612121565b90506125d9838760008585604051806020016040528060008152506118a0565b60008581526020818152604080832073ffffffffffffffffffffffffffffffffffffffff8a1684529091529020548481101561267c5760405162461bcd60e51b8152602060048201526024808201527f455243313135353a206275726e20616d6f756e7420657863656564732062616c60448201527f616e636500000000000000000000000000000000000000000000000000000000606482015260840161039a565b60008681526020818152604080832073ffffffffffffffffffffffffffffffffffffffff8b81168086529184528285208a8703905582518b81529384018a90529092908816917fc3d58168c5ae7397731d063d5bbf3d657854427343f4c083240f7aacaa2d0f62910160405180910390a46040805160208101909152600090526115cd565b60035460ff16156118ae5760405162461bcd60e51b815260206004820152602c60248201527f455243313135355061757361626c653a20746f6b656e207472616e736665722060448201527f7768696c65207061757365640000000000000000000000000000000000000000606482015260840161039a565b803573ffffffffffffffffffffffffffffffffffffffff8116811461279e57600080fd5b919050565b600080604083850312156127b657600080fd5b6127bf8361277a565b946020939093013593505050565b7fffffffff00000000000000000000000000000000000000000000000000000000811681146127fb57600080fd5b50565b60006020828403121561281057600080fd5b813561281b816127cd565b9392505050565b60006020828403121561283457600080fd5b5035919050565b6000815180845260005b8181101561286157602081850181015186830182015201612845565b5060006020828601015260207fffffffffffffffffffffffffffffffffffffffffffffffffffffffffffffffe0601f83011685010191505092915050565b60208152600061281b602083018461283b565b7f4e487b7100000000000000000000000000000000000000000000000000000000600052604160045260246000fd5b7fffffffffffffffffffffffffffffffffffffffffffffffffffffffffffffffe0601f830116810181811067ffffffffffffffff82111715612925576129256128b2565b6040525050565b600067ffffffffffffffff821115612946576129466128b2565b5060051b60200190565b600082601f83011261296157600080fd5b8135602061296e8261292c565b60405161297b82826128e1565b83815260059390931b850182019282810191508684111561299b57600080fd5b8286015b848110156129b6578035835291830191830161299f565b509695505050505050565b600082601f8301126129d257600080fd5b813567ffffffffffffffff8111156129ec576129ec6128b2565b604051612a2160207fffffffffffffffffffffffffffffffffffffffffffffffffffffffffffffffe0601f85011601826128e1565b818152846020838601011115612a3657600080fd5b816020850160208301376000918101602001919091529392505050565b60008060008060808587031215612a6957600080fd5b612a728561277a565b9350602085013567ffffffffffffffff80821115612a8f57600080fd5b612a9b88838901612950565b94506040870135915080821115612ab157600080fd5b612abd88838901612950565b93506060870135915080821115612ad357600080fd5b50612ae0878288016129c1565b91505092959194509250565b600080600080600060a08688031215612b0457600080fd5b612b0d8661277a565b9450612b1b6020870161277a565b9350604086013567ffffffffffffffff80821115612b3857600080fd5b612b4489838a01612950565b94506060880135915080821115612b5a57600080fd5b612b6689838a01612950565b93506080880135915080821115612b7c57600080fd5b50612b89888289016129c1565b9150509295509295909350565b60008060408385031215612ba957600080fd5b823567ffffffffffffffff80821115612bc157600080fd5b818501915085601f830112612bd557600080fd5b81356020612be28261292c565b604051612bef82826128e1565b83815260059390931b8501820192828101915089841115612c0f57600080fd5b948201945b83861015612c3457612c258661277a565b82529482019490820190612c14565b96505086013592505080821115612c4a57600080fd5b50612c5785828601612950565b9150509250929050565b600081518084526020808501945080840160005b83811015612c9157815187529582019590820190600101612c75565b509495945050505050565b60208152600061281b6020830184612c61565b600080600060608486031215612cc457600080fd5b612ccd8461277a565b9250602084013567ffffffffffffffff80821115612cea57600080fd5b612cf687838801612950565b93506040860135915080821115612d0c57600080fd5b50612d1986828701612950565b9150509250925092565b60008060008060808587031215612d3957600080fd5b612d428561277a565b93506020850135925060408501359150606085013567ffffffffffffffff811115612d6c57600080fd5b612ae0878288016129c1565b600060208284031215612d8a57600080fd5b61281b8261277a565b80151581146127fb57600080fd5b60008060408385031215612db457600080fd5b612dbd8361277a565b91506020830135612dcd81612d93565b809150509250929050565b60008060408385031215612deb57600080fd5b612df48361277a565b9150612e026020840161277a565b90509250929050565b600080600080600060a08688031215612e2357600080fd5b612e2c8661277a565b9450612e3a6020870161277a565b93506040860135925060608601359150608086013567ffffffffffffffff811115612e6457600080fd5b612b89888289016129c1565b600080600060608486031215612e8557600080fd5b612e8e8461277a565b95602085013595506040909401359392505050565b600181811c90821680612eb757607f821691505b602082108103612ef0577f4e487b7100000000000000000000000000000000000000000000000000000000600052602260045260246000fd5b50919050565b600060208284031215612f0857600080fd5b5051919050565b600060208284031215612f2157600080fd5b815161281b81612d93565b7f4e487b7100000000000000000000000000000000000000000000000000000000600052603260045260246000fd5b7f4e487b7100000000000000000000000000000000000000000000000000000000600052601160045260246000fd5b808201808211156103d3576103d3612f5b565b60007fffffffffffffffffffffffffffffffffffffffffffffffffffffffffffffffff8203612fce57612fce612f5b565b5060010190565b604081526000612fe86040830185612c61565b8281036020840152612ffa8185612c61565b95945050505050565b818103818111156103d3576103d3612f5b565b600073ffffffffffffffffffffffffffffffffffffffff808816835280871660208401525060a0604083015261304f60a0830186612c61565b82810360608401526130618186612c61565b90508281036080840152613075818561283b565b98975050505050505050565b60006020828403121561309357600080fd5b815161281b816127cd565b600060033d11156130b75760046000803e5060005160e01c5b90565b600060443d10156130c85790565b6040517ffffffffffffffffffffffffffffffffffffffffffffffffffffffffffffffffc803d016004833e81513d67ffffffffffffffff816024840111818411171561311657505050505090565b828501915081518181111561312e5750505050505090565b843d87010160208285010111156131485750505050505090565b613157602082860101876128e1565b509095945050505050565b600073ffffffffffffffffffffffffffffffffffffffff808816835280871660208401525084604083015283606083015260a060808301526131a760a083018461283b565b97965050505050505056fea2646970667358221220bb0dbbb49ece7dfa7c1c718212c68c72dd92f2344a527a49c60d8de3be3d904064736f6c63430008100033",
    "linkReferences": {}
  },
  "methodIdentifiers": {
    "balanceOf(address,uint256)": "00fdd58e",
    "balanceOfBatch(address[],uint256[])": "4e1273f4",
    "burn(address,uint256,uint256)": "f5298aca",
    "burnBatch(address,uint256[],uint256[])": "6b20c454",
    "holderTokens(address)": "7b48c3fd",
    "isApprovedForAll(address,address)": "e985e9c5",
    "manager()": "481c6a75",
    "mint(address,uint256,uint256,bytes)": "731133e9",
    "mintBatch(address,uint256[],uint256[],bytes)": "1f7fdffa",
    "pause()": "8456cb59",
    "paused()": "5c975abb",
    "safeBatchTransferFrom(address,address,uint256[],uint256[],bytes)": "2eb2c2d6",
    "safeTransferFrom(address,address,uint256,uint256,bytes)": "f242432a",
    "setApprovalForAll(address,bool)": "a22cb465",
    "supportsInterface(bytes4)": "01ffc9a7",
    "totalSupply()": "18160ddd",
    "unpause()": "3f4ba83a",
    "uri(uint256)": "0e89341c"
  },
  "id": 102
}