{
  "abi": [
    {
      "inputs": [
        {
          "internalType": "address",
          "name": "_admin",
          "type": "address"
        }
      ],
      "stateMutability": "nonpayable",
      "type": "constructor"
    },
    {
      "anonymous": false,
      "inputs": [
        {
          "indexed": true,
          "internalType": "bytes32",
          "name": "role",
          "type": "bytes32"
        },
        {
          "indexed": true,
          "internalType": "bytes32",
          "name": "previousAdminRole",
          "type": "bytes32"
        },
        {
          "indexed": true,
          "internalType": "bytes32",
          "name": "newAdminRole",
          "type": "bytes32"
        }
      ],
      "name": "RoleAdminChanged",
      "type": "event"
    },
    {
      "anonymous": false,
      "inputs": [
        {
          "indexed": true,
          "internalType": "bytes32",
          "name": "role",
          "type": "bytes32"
        },
        {
          "indexed": true,
          "internalType": "address",
          "name": "account",
          "type": "address"
        },
        {
          "indexed": true,
          "internalType": "address",
          "name": "sender",
          "type": "address"
        }
      ],
      "name": "RoleGranted",
      "type": "event"
    },
    {
      "anonymous": false,
      "inputs": [
        {
          "indexed": true,
          "internalType": "bytes32",
          "name": "role",
          "type": "bytes32"
        },
        {
          "indexed": true,
          "internalType": "address",
          "name": "account",
          "type": "address"
        },
        {
          "indexed": true,
          "internalType": "address",
          "name": "sender",
          "type": "address"
        }
      ],
      "name": "RoleRevoked",
      "type": "event"
    },
    {
      "inputs": [],
      "name": "BONDING_MANAGER_ROLE",
      "outputs": [
        {
          "internalType": "bytes32",
          "name": "",
          "type": "bytes32"
        }
      ],
      "stateMutability": "view",
      "type": "function"
    },
    {
      "inputs": [],
      "name": "COUPON_MANAGER_ROLE",
      "outputs": [
        {
          "internalType": "bytes32",
          "name": "",
          "type": "bytes32"
        }
      ],
      "stateMutability": "view",
      "type": "function"
    },
    {
      "inputs": [],
      "name": "DEFAULT_ADMIN_ROLE",
      "outputs": [
        {
          "internalType": "bytes32",
          "name": "",
          "type": "bytes32"
        }
      ],
      "stateMutability": "view",
      "type": "function"
    },
    {
      "inputs": [],
      "name": "INCENTIVE_MANAGER_ROLE",
      "outputs": [
        {
          "internalType": "bytes32",
          "name": "",
          "type": "bytes32"
        }
      ],
      "stateMutability": "view",
      "type": "function"
    },
    {
      "inputs": [],
      "name": "PAUSER_ROLE",
      "outputs": [
        {
          "internalType": "bytes32",
          "name": "",
          "type": "bytes32"
        }
      ],
      "stateMutability": "view",
      "type": "function"
    },
    {
      "inputs": [],
      "name": "UBQ_BURNER_ROLE",
      "outputs": [
        {
          "internalType": "bytes32",
          "name": "",
          "type": "bytes32"
        }
      ],
      "stateMutability": "view",
      "type": "function"
    },
    {
      "inputs": [],
      "name": "UBQ_MINTER_ROLE",
      "outputs": [
        {
          "internalType": "bytes32",
          "name": "",
          "type": "bytes32"
        }
      ],
      "stateMutability": "view",
      "type": "function"
    },
    {
      "inputs": [],
      "name": "UBQ_TOKEN_MANAGER_ROLE",
      "outputs": [
        {
          "internalType": "bytes32",
          "name": "",
          "type": "bytes32"
        }
      ],
      "stateMutability": "view",
      "type": "function"
    },
    {
      "inputs": [],
      "name": "autoRedeemTokenAddress",
      "outputs": [
        {
          "internalType": "address",
          "name": "",
          "type": "address"
        }
      ],
      "stateMutability": "view",
      "type": "function"
    },
    {
      "inputs": [],
      "name": "bondingContractAddress",
      "outputs": [
        {
          "internalType": "address",
          "name": "",
          "type": "address"
        }
      ],
      "stateMutability": "view",
      "type": "function"
    },
    {
      "inputs": [],
      "name": "bondingShareAddress",
      "outputs": [
        {
          "internalType": "address",
          "name": "",
          "type": "address"
        }
      ],
      "stateMutability": "view",
      "type": "function"
    },
    {
      "inputs": [],
      "name": "couponCalculatorAddress",
      "outputs": [
        {
          "internalType": "address",
          "name": "",
          "type": "address"
        }
      ],
      "stateMutability": "view",
      "type": "function"
    },
    {
      "inputs": [],
      "name": "curve3PoolTokenAddress",
      "outputs": [
        {
          "internalType": "address",
          "name": "",
          "type": "address"
        }
      ],
      "stateMutability": "view",
      "type": "function"
    },
    {
      "inputs": [],
      "name": "debtCouponAddress",
      "outputs": [
        {
          "internalType": "address",
          "name": "",
          "type": "address"
        }
      ],
      "stateMutability": "view",
      "type": "function"
    },
    {
      "inputs": [
        {
          "internalType": "address",
          "name": "_curveFactory",
          "type": "address"
        },
        {
          "internalType": "address",
          "name": "_crvBasePool",
          "type": "address"
        },
        {
          "internalType": "address",
          "name": "_crv3PoolTokenAddress",
          "type": "address"
        },
        {
          "internalType": "uint256",
          "name": "_amplificationCoefficient",
          "type": "uint256"
        },
        {
          "internalType": "uint256",
          "name": "_fee",
          "type": "uint256"
        }
      ],
      "name": "deployStableSwapPool",
      "outputs": [],
      "stateMutability": "nonpayable",
      "type": "function"
    },
    {
      "inputs": [],
      "name": "dollarMintingCalculatorAddress",
      "outputs": [
        {
          "internalType": "address",
          "name": "",
          "type": "address"
        }
      ],
      "stateMutability": "view",
      "type": "function"
    },
    {
      "inputs": [],
      "name": "dollarTokenAddress",
      "outputs": [
        {
          "internalType": "address",
          "name": "",
          "type": "address"
        }
      ],
      "stateMutability": "view",
      "type": "function"
    },
    {
      "inputs": [],
      "name": "formulasAddress",
      "outputs": [
        {
          "internalType": "address",
          "name": "",
          "type": "address"
        }
      ],
      "stateMutability": "view",
      "type": "function"
    },
    {
      "inputs": [
        {
          "internalType": "address",
          "name": "_debtCouponManagerAddress",
          "type": "address"
        }
      ],
      "name": "getExcessDollarsDistributor",
      "outputs": [
        {
          "internalType": "address",
          "name": "",
          "type": "address"
        }
      ],
      "stateMutability": "view",
      "type": "function"
    },
    {
      "inputs": [
        {
          "internalType": "bytes32",
          "name": "role",
          "type": "bytes32"
        }
      ],
      "name": "getRoleAdmin",
      "outputs": [
        {
          "internalType": "bytes32",
          "name": "",
          "type": "bytes32"
        }
      ],
      "stateMutability": "view",
      "type": "function"
    },
    {
      "inputs": [],
      "name": "governanceTokenAddress",
      "outputs": [
        {
          "internalType": "address",
          "name": "",
          "type": "address"
        }
      ],
      "stateMutability": "view",
      "type": "function"
    },
    {
      "inputs": [
        {
          "internalType": "bytes32",
          "name": "role",
          "type": "bytes32"
        },
        {
          "internalType": "address",
          "name": "account",
          "type": "address"
        }
      ],
      "name": "grantRole",
      "outputs": [],
      "stateMutability": "nonpayable",
      "type": "function"
    },
    {
      "inputs": [
        {
          "internalType": "bytes32",
          "name": "role",
          "type": "bytes32"
        },
        {
          "internalType": "address",
          "name": "account",
          "type": "address"
        }
      ],
      "name": "hasRole",
      "outputs": [
        {
          "internalType": "bool",
          "name": "",
          "type": "bool"
        }
      ],
      "stateMutability": "view",
      "type": "function"
    },
    {
      "inputs": [],
      "name": "masterChefAddress",
      "outputs": [
        {
          "internalType": "address",
          "name": "",
          "type": "address"
        }
      ],
      "stateMutability": "view",
      "type": "function"
    },
    {
      "inputs": [
        {
          "internalType": "bytes32",
          "name": "role",
          "type": "bytes32"
        },
        {
          "internalType": "address",
          "name": "account",
          "type": "address"
        }
      ],
      "name": "renounceRole",
      "outputs": [],
      "stateMutability": "nonpayable",
      "type": "function"
    },
    {
      "inputs": [
        {
          "internalType": "bytes32",
          "name": "role",
          "type": "bytes32"
        },
        {
          "internalType": "address",
          "name": "account",
          "type": "address"
        }
      ],
      "name": "revokeRole",
      "outputs": [],
      "stateMutability": "nonpayable",
      "type": "function"
    },
    {
      "inputs": [
        {
          "internalType": "address",
          "name": "_bondingContractAddress",
          "type": "address"
        }
      ],
      "name": "setBondingContractAddress",
      "outputs": [],
      "stateMutability": "nonpayable",
      "type": "function"
    },
    {
      "inputs": [
        {
          "internalType": "address",
          "name": "_bondingShareAddress",
          "type": "address"
        }
      ],
      "name": "setBondingShareAddress",
      "outputs": [],
      "stateMutability": "nonpayable",
      "type": "function"
    },
    {
      "inputs": [
        {
          "internalType": "address",
          "name": "_couponCalculatorAddress",
          "type": "address"
        }
      ],
      "name": "setCouponCalculatorAddress",
      "outputs": [],
      "stateMutability": "nonpayable",
      "type": "function"
    },
    {
      "inputs": [
        {
          "internalType": "address",
          "name": "_debtCouponAddress",
          "type": "address"
        }
      ],
      "name": "setDebtCouponAddress",
      "outputs": [],
      "stateMutability": "nonpayable",
      "type": "function"
    },
    {
      "inputs": [
        {
          "internalType": "address",
          "name": "_dollarMintingCalculatorAddress",
          "type": "address"
        }
      ],
      "name": "setDollarMintingCalculatorAddress",
      "outputs": [],
      "stateMutability": "nonpayable",
      "type": "function"
    },
    {
      "inputs": [
        {
          "internalType": "address",
          "name": "_dollarTokenAddress",
          "type": "address"
        }
      ],
      "name": "setDollarTokenAddress",
      "outputs": [],
      "stateMutability": "nonpayable",
      "type": "function"
    },
    {
      "inputs": [
        {
          "internalType": "address",
          "name": "debtCouponManagerAddress",
          "type": "address"
        },
        {
          "internalType": "address",
          "name": "excessCouponDistributor",
          "type": "address"
        }
      ],
      "name": "setExcessDollarsDistributor",
      "outputs": [],
      "stateMutability": "nonpayable",
      "type": "function"
    },
    {
      "inputs": [
        {
          "internalType": "address",
          "name": "_formulasAddress",
          "type": "address"
        }
      ],
      "name": "setFormulasAddress",
      "outputs": [],
      "stateMutability": "nonpayable",
      "type": "function"
    },
    {
      "inputs": [
        {
          "internalType": "address",
          "name": "_governanceTokenAddress",
          "type": "address"
        }
      ],
      "name": "setGovernanceTokenAddress",
      "outputs": [],
      "stateMutability": "nonpayable",
      "type": "function"
    },
    {
      "inputs": [
        {
          "internalType": "address",
          "name": "_account",
          "type": "address"
        },
        {
          "internalType": "address",
          "name": "_incentiveAddress",
          "type": "address"
        }
      ],
      "name": "setIncentiveToUAD",
      "outputs": [],
      "stateMutability": "nonpayable",
      "type": "function"
    },
    {
      "inputs": [
        {
          "internalType": "address",
          "name": "_masterChefAddress",
          "type": "address"
        }
      ],
      "name": "setMasterChefAddress",
      "outputs": [],
      "stateMutability": "nonpayable",
      "type": "function"
    },
    {
      "inputs": [
        {
          "internalType": "address",
          "name": "_stableSwapMetaPoolAddress",
          "type": "address"
        }
      ],
      "name": "setStableSwapMetaPoolAddress",
      "outputs": [],
      "stateMutability": "nonpayable",
      "type": "function"
    },
    {
      "inputs": [
        {
          "internalType": "address",
          "name": "_sushiSwapPoolAddress",
          "type": "address"
        }
      ],
      "name": "setSushiSwapPoolAddress",
      "outputs": [],
      "stateMutability": "nonpayable",
      "type": "function"
    },
    {
      "inputs": [
        {
          "internalType": "address",
          "name": "_treasuryAddress",
          "type": "address"
        }
      ],
      "name": "setTreasuryAddress",
      "outputs": [],
      "stateMutability": "nonpayable",
      "type": "function"
    },
    {
      "inputs": [
        {
          "internalType": "address",
          "name": "_twapOracleAddress",
          "type": "address"
        }
      ],
      "name": "setTwapOracleAddress",
      "outputs": [],
      "stateMutability": "nonpayable",
      "type": "function"
    },
    {
      "inputs": [
        {
          "internalType": "address",
          "name": "_uarCalculatorAddress",
          "type": "address"
        }
      ],
      "name": "setUARCalculatorAddress",
      "outputs": [],
      "stateMutability": "nonpayable",
      "type": "function"
    },
    {
      "inputs": [
        {
          "internalType": "address",
          "name": "_uarTokenAddress",
          "type": "address"
        }
      ],
      "name": "setuARTokenAddress",
      "outputs": [],
      "stateMutability": "nonpayable",
      "type": "function"
    },
    {
      "inputs": [],
      "name": "stableSwapMetaPoolAddress",
      "outputs": [
        {
          "internalType": "address",
          "name": "",
          "type": "address"
        }
      ],
      "stateMutability": "view",
      "type": "function"
    },
    {
      "inputs": [
        {
          "internalType": "bytes4",
          "name": "interfaceId",
          "type": "bytes4"
        }
      ],
      "name": "supportsInterface",
      "outputs": [
        {
          "internalType": "bool",
          "name": "",
          "type": "bool"
        }
      ],
      "stateMutability": "view",
      "type": "function"
    },
    {
      "inputs": [],
      "name": "sushiSwapPoolAddress",
      "outputs": [
        {
          "internalType": "address",
          "name": "",
          "type": "address"
        }
      ],
      "stateMutability": "view",
      "type": "function"
    },
    {
      "inputs": [],
      "name": "treasuryAddress",
      "outputs": [
        {
          "internalType": "address",
          "name": "",
          "type": "address"
        }
      ],
      "stateMutability": "view",
      "type": "function"
    },
    {
      "inputs": [],
      "name": "twapOracleAddress",
      "outputs": [
        {
          "internalType": "address",
          "name": "",
          "type": "address"
        }
      ],
      "stateMutability": "view",
      "type": "function"
    },
    {
      "inputs": [],
      "name": "uarCalculatorAddress",
      "outputs": [
        {
          "internalType": "address",
          "name": "",
          "type": "address"
        }
      ],
      "stateMutability": "view",
      "type": "function"
    }
  ],
  "bytecode": {
    "object": "0x60806040523480156200001157600080fd5b50604051620031c5380380620031c5833981016040819052620000349162000200565b6200004160008262000150565b6200006d7f3a2e010201653e4743db35ee85e81b63eb19cf8948f24794ef2b4dba5ecf49c98262000150565b620000997f65d7a28e3265b37a6474929f336521b332c1681b933f6cb9f3376673440d862a8262000150565b620000c57feaff283aa1cb5c8448e8e6df1f1d9256a0b9e1d4a11bca9e915ecfb8d881be7e8262000150565b620000f17fb59de930ba65d9ac0d4dbd09127a305101a071683af551ffece1d125909542d88262000150565b6200011d7faf1a415cb2281de448f1771a3c8144f554e6e38bb3bc1acc8218c01a5d75721d8262000150565b620001497f9a46abf6358a50f8b5f443e7d26ec0762bffead3f6c78af4ff80f12ba16bb5683062000150565b5062000232565b6200015c828262000160565b5050565b6000828152602081815260408083206001600160a01b038516845290915290205460ff166200015c576000828152602081815260408083206001600160a01b03851684529091529020805460ff19166001179055620001bc3390565b6001600160a01b0316816001600160a01b0316837f2f8788117e7eff1d82e926ec794901d17c78024a50270940304540a733656f0d60405160405180910390a45050565b6000602082840312156200021357600080fd5b81516001600160a01b03811681146200022b57600080fd5b9392505050565b612f8380620002426000396000f3fe608060405234801561001057600080fd5b506004361061032b5760003560e01c80636605bfda116101b2578063be1d86e1116100f9578063e2d443bd116100a2578063f39e5a471161007c578063f39e5a4714610875578063f6f172cb1461089c578063f986cd57146108af578063fbff3a41146108c257600080fd5b8063e2d443bd14610814578063e63ab1e914610827578063e6c735401461084e57600080fd5b8063d3815fb9116100d3578063d3815fb9146107c1578063d547741f146107e1578063de71c1db146107f457600080fd5b8063be1d86e11461076e578063c431e83c14610781578063c5f956af146107a157600080fd5b8063a41dd6e61161015b578063b42165d011610135578063b42165d01461071b578063b90bbaff1461073b578063bc3ea0181461074e57600080fd5b8063a41dd6e6146106a8578063aef6be3c146106cf578063b3094fd61461070857600080fd5b806391d148541161018c57806391d1485414610649578063923246111461068d578063a217fddf146106a057600080fd5b80636605bfda146105f6578063749cface146106095780638fe636831461062957600080fd5b806338174654116102765780634ac116081161021f57806356593ea3116101f957806356593ea31461058f57806357f6a22a146105af57806359f6deac146105d657600080fd5b80634ac11608146105565780634c9f5d861461056957806353b075071461057c57600080fd5b80633b4d9773116102505780633b4d9773146104fc5780633e916ced14610523578063470913981461054357600080fd5b806338174654146104b65780633ae3d9a4146104c95780633b194dcc146104e957600080fd5b8063221e2e60116102d85780632f533cb7116102b25780632f533cb71461045c57806336568abe1461048357806336c3df241461049657600080fd5b8063221e2e60146103f8578063248a9ca3146104185780632f2ff15d1461044957600080fd5b8063147f1b9611610309578063147f1b96146103b257806315f97398146103c5578063214f7882146103d857600080fd5b8063017df3271461033057806301ffc9a71461037a5780630bcf9ca31461039d575b600080fd5b6009546103509073ffffffffffffffffffffffffffffffffffffffff1681565b60405173ffffffffffffffffffffffffffffffffffffffff90911681526020015b60405180910390f35b61038d6103883660046129ec565b6108d5565b6040519015158152602001610371565b6103b06103ab366004612a50565b61096e565b005b6103b06103c0366004612a50565b610a38565b6103b06103d3366004612a50565b610afd565b600e546103509073ffffffffffffffffffffffffffffffffffffffff1681565b600d546103509073ffffffffffffffffffffffffffffffffffffffff1681565b61043b610426366004612a6d565b60009081526020819052604090206001015490565b604051908152602001610371565b6103b0610457366004612a86565b610bc2565b61043b7f3a2e010201653e4743db35ee85e81b63eb19cf8948f24794ef2b4dba5ecf49c981565b6103b0610491366004612a86565b610bec565b600c546103509073ffffffffffffffffffffffffffffffffffffffff1681565b6103b06104c4366004612a50565b610c85565b600f546103509073ffffffffffffffffffffffffffffffffffffffff1681565b6103b06104f7366004612a50565b610d4a565b61043b7f9a46abf6358a50f8b5f443e7d26ec0762bffead3f6c78af4ff80f12ba16bb56881565b6004546103509073ffffffffffffffffffffffffffffffffffffffff1681565b6103b0610551366004612a50565b610e78565b6103b0610564366004612a50565b610f3d565b6103b0610577366004612a50565b611002565b6103b061058a366004612ab6565b6110c7565b6002546103509073ffffffffffffffffffffffffffffffffffffffff1681565b61043b7faf1a415cb2281de448f1771a3c8144f554e6e38bb3bc1acc8218c01a5d75721d81565b6005546103509073ffffffffffffffffffffffffffffffffffffffff1681565b6103b0610604366004612a50565b6111ba565b6010546103509073ffffffffffffffffffffffffffffffffffffffff1681565b6001546103509073ffffffffffffffffffffffffffffffffffffffff1681565b61038d610657366004612a86565b60009182526020828152604080842073ffffffffffffffffffffffffffffffffffffffff93909316845291905290205460ff1690565b6103b061069b366004612a50565b61127f565b61043b600081565b61043b7feaff283aa1cb5c8448e8e6df1f1d9256a0b9e1d4a11bca9e915ecfb8d881be7e81565b6103506106dd366004612a50565b73ffffffffffffffffffffffffffffffffffffffff9081166000908152601160205260409020541690565b6103b0610716366004612a50565b611344565b600b546103509073ffffffffffffffffffffffffffffffffffffffff1681565b6103b0610749366004612a50565b611409565b6003546103509073ffffffffffffffffffffffffffffffffffffffff1681565b6103b061077c366004612a50565b6114ce565b6006546103509073ffffffffffffffffffffffffffffffffffffffff1681565b600a546103509073ffffffffffffffffffffffffffffffffffffffff1681565b6008546103509073ffffffffffffffffffffffffffffffffffffffff1681565b6103b06107ef366004612a86565b611593565b6007546103509073ffffffffffffffffffffffffffffffffffffffff1681565b6103b0610822366004612a50565b6115b8565b61043b7f65d7a28e3265b37a6474929f336521b332c1681b933f6cb9f3376673440d862a81565b61043b7fb59de930ba65d9ac0d4dbd09127a305101a071683af551ffece1d125909542d881565b61043b7fa3405bb4244d0786f3e4178acef3953ebb3f56c1e97e9530871f50739923c1cf81565b6103b06108aa366004612ab6565b61167d565b6103b06108bd366004612a50565b61174e565b6103b06108d0366004612ae4565b611813565b60007fffffffff0000000000000000000000000000000000000000000000000000000082167f7965db0b00000000000000000000000000000000000000000000000000000000148061096857507f01ffc9a7000000000000000000000000000000000000000000000000000000007fffffffff000000000000000000000000000000000000000000000000000000008316145b92915050565b3360009081527fad3228b676f7d3cd4284a5443f17f1962b36e491b30a40b2405849e597ba5fb5602052604090205460ff166109f15760405162461bcd60e51b815260206004820152601b60248201527f7541444d47523a2043616c6c6572206973206e6f742061646d696e000000000060448201526064015b60405180910390fd5b600680547fffffffffffffffffffffffff00000000000000000000000000000000000000001673ffffffffffffffffffffffffffffffffffffffff92909216919091179055565b3360009081527fad3228b676f7d3cd4284a5443f17f1962b36e491b30a40b2405849e597ba5fb5602052604090205460ff16610ab65760405162461bcd60e51b815260206004820152601b60248201527f7541444d47523a2043616c6c6572206973206e6f742061646d696e000000000060448201526064016109e8565b600c80547fffffffffffffffffffffffff00000000000000000000000000000000000000001673ffffffffffffffffffffffffffffffffffffffff92909216919091179055565b3360009081527fad3228b676f7d3cd4284a5443f17f1962b36e491b30a40b2405849e597ba5fb5602052604090205460ff16610b7b5760405162461bcd60e51b815260206004820152601b60248201527f7541444d47523a2043616c6c6572206973206e6f742061646d696e000000000060448201526064016109e8565b600e80547fffffffffffffffffffffffff00000000000000000000000000000000000000001673ffffffffffffffffffffffffffffffffffffffff92909216919091179055565b600082815260208190526040902060010154610bdd816120ed565b610be783836120fa565b505050565b73ffffffffffffffffffffffffffffffffffffffff81163314610c775760405162461bcd60e51b815260206004820152602f60248201527f416363657373436f6e74726f6c3a2063616e206f6e6c792072656e6f756e636560448201527f20726f6c657320666f722073656c66000000000000000000000000000000000060648201526084016109e8565b610c8182826121ea565b5050565b3360009081527fad3228b676f7d3cd4284a5443f17f1962b36e491b30a40b2405849e597ba5fb5602052604090205460ff16610d035760405162461bcd60e51b815260206004820152601b60248201527f7541444d47523a2043616c6c6572206973206e6f742061646d696e000000000060448201526064016109e8565b600480547fffffffffffffffffffffffff00000000000000000000000000000000000000001673ffffffffffffffffffffffffffffffffffffffff92909216919091179055565b3360009081527fad3228b676f7d3cd4284a5443f17f1962b36e491b30a40b2405849e597ba5fb5602052604090205460ff16610dc85760405162461bcd60e51b815260206004820152601b60248201527f7541444d47523a2043616c6c6572206973206e6f742061646d696e000000000060448201526064016109e8565b600180547fffffffffffffffffffffffff00000000000000000000000000000000000000001673ffffffffffffffffffffffffffffffffffffffff8316908117909155604080517fa2e620450000000000000000000000000000000000000000000000000000000081529051829163a2e6204591600480830192600092919082900301818387803b158015610e5c57600080fd5b505af1158015610e70573d6000803e3d6000fd5b505050505050565b3360009081527fad3228b676f7d3cd4284a5443f17f1962b36e491b30a40b2405849e597ba5fb5602052604090205460ff16610ef65760405162461bcd60e51b815260206004820152601b60248201527f7541444d47523a2043616c6c6572206973206e6f742061646d696e000000000060448201526064016109e8565b600280547fffffffffffffffffffffffff00000000000000000000000000000000000000001673ffffffffffffffffffffffffffffffffffffffff92909216919091179055565b3360009081527fad3228b676f7d3cd4284a5443f17f1962b36e491b30a40b2405849e597ba5fb5602052604090205460ff16610fbb5760405162461bcd60e51b815260206004820152601b60248201527f7541444d47523a2043616c6c6572206973206e6f742061646d696e000000000060448201526064016109e8565b601080547fffffffffffffffffffffffff00000000000000000000000000000000000000001673ffffffffffffffffffffffffffffffffffffffff92909216919091179055565b3360009081527fad3228b676f7d3cd4284a5443f17f1962b36e491b30a40b2405849e597ba5fb5602052604090205460ff166110805760405162461bcd60e51b815260206004820152601b60248201527f7541444d47523a2043616c6c6572206973206e6f742061646d696e000000000060448201526064016109e8565b600580547fffffffffffffffffffffffff00000000000000000000000000000000000000001673ffffffffffffffffffffffffffffffffffffffff92909216919091179055565b3360009081527fad3228b676f7d3cd4284a5443f17f1962b36e491b30a40b2405849e597ba5fb5602052604090205460ff166111455760405162461bcd60e51b815260206004820152601b60248201527f7541444d47523a2043616c6c6572206973206e6f742061646d696e000000000060448201526064016109e8565b6003546040517fb6232c9900000000000000000000000000000000000000000000000000000000815273ffffffffffffffffffffffffffffffffffffffff848116600483015283811660248301529091169063b6232c9990604401600060405180830381600087803b158015610e5c57600080fd5b3360009081527fad3228b676f7d3cd4284a5443f17f1962b36e491b30a40b2405849e597ba5fb5602052604090205460ff166112385760405162461bcd60e51b815260206004820152601b60248201527f7541444d47523a2043616c6c6572206973206e6f742061646d696e000000000060448201526064016109e8565b600a80547fffffffffffffffffffffffff00000000000000000000000000000000000000001673ffffffffffffffffffffffffffffffffffffffff92909216919091179055565b3360009081527fad3228b676f7d3cd4284a5443f17f1962b36e491b30a40b2405849e597ba5fb5602052604090205460ff166112fd5760405162461bcd60e51b815260206004820152601b60248201527f7541444d47523a2043616c6c6572206973206e6f742061646d696e000000000060448201526064016109e8565b600880547fffffffffffffffffffffffff00000000000000000000000000000000000000001673ffffffffffffffffffffffffffffffffffffffff92909216919091179055565b3360009081527fad3228b676f7d3cd4284a5443f17f1962b36e491b30a40b2405849e597ba5fb5602052604090205460ff166113c25760405162461bcd60e51b815260206004820152601b60248201527f7541444d47523a2043616c6c6572206973206e6f742061646d696e000000000060448201526064016109e8565b600780547fffffffffffffffffffffffff00000000000000000000000000000000000000001673ffffffffffffffffffffffffffffffffffffffff92909216919091179055565b3360009081527fad3228b676f7d3cd4284a5443f17f1962b36e491b30a40b2405849e597ba5fb5602052604090205460ff166114875760405162461bcd60e51b815260206004820152601b60248201527f7541444d47523a2043616c6c6572206973206e6f742061646d696e000000000060448201526064016109e8565b600f80547fffffffffffffffffffffffff00000000000000000000000000000000000000001673ffffffffffffffffffffffffffffffffffffffff92909216919091179055565b3360009081527fad3228b676f7d3cd4284a5443f17f1962b36e491b30a40b2405849e597ba5fb5602052604090205460ff1661154c5760405162461bcd60e51b815260206004820152601b60248201527f7541444d47523a2043616c6c6572206973206e6f742061646d696e000000000060448201526064016109e8565b600d80547fffffffffffffffffffffffff00000000000000000000000000000000000000001673ffffffffffffffffffffffffffffffffffffffff92909216919091179055565b6000828152602081905260409020600101546115ae816120ed565b610be783836121ea565b3360009081527fad3228b676f7d3cd4284a5443f17f1962b36e491b30a40b2405849e597ba5fb5602052604090205460ff166116365760405162461bcd60e51b815260206004820152601b60248201527f7541444d47523a2043616c6c6572206973206e6f742061646d696e000000000060448201526064016109e8565b600b80547fffffffffffffffffffffffff00000000000000000000000000000000000000001673ffffffffffffffffffffffffffffffffffffffff92909216919091179055565b3360009081527fad3228b676f7d3cd4284a5443f17f1962b36e491b30a40b2405849e597ba5fb5602052604090205460ff166116fb5760405162461bcd60e51b815260206004820152601b60248201527f7541444d47523a2043616c6c6572206973206e6f742061646d696e000000000060448201526064016109e8565b73ffffffffffffffffffffffffffffffffffffffff918216600090815260116020526040902080547fffffffffffffffffffffffff00000000000000000000000000000000000000001691909216179055565b3360009081527fad3228b676f7d3cd4284a5443f17f1962b36e491b30a40b2405849e597ba5fb5602052604090205460ff166117cc5760405162461bcd60e51b815260206004820152601b60248201527f7541444d47523a2043616c6c6572206973206e6f742061646d696e000000000060448201526064016109e8565b600380547fffffffffffffffffffffffff00000000000000000000000000000000000000001673ffffffffffffffffffffffffffffffffffffffff92909216919091179055565b3360009081527fad3228b676f7d3cd4284a5443f17f1962b36e491b30a40b2405849e597ba5fb5602052604090205460ff166118915760405162461bcd60e51b815260206004820152601b60248201527f7541444d47523a2043616c6c6572206973206e6f742061646d696e000000000060448201526064016109e8565b60008573ffffffffffffffffffffffffffffffffffffffff1663e339eb4f86600360009054906101000a900473ffffffffffffffffffffffffffffffffffffffff1673ffffffffffffffffffffffffffffffffffffffff166306fdde036040518163ffffffff1660e01b815260040160006040518083038186803b15801561191857600080fd5b505afa15801561192c573d6000803e3d6000fd5b505050506040513d6000823e601f3d9081017fffffffffffffffffffffffffffffffffffffffffffffffffffffffffffffffe01682016040526119729190810190612b9e565b600360009054906101000a900473ffffffffffffffffffffffffffffffffffffffff1673ffffffffffffffffffffffffffffffffffffffff166395d89b416040518163ffffffff1660e01b815260040160006040518083038186803b1580156119da57600080fd5b505afa1580156119ee573d6000803e3d6000fd5b505050506040513d6000823e601f3d9081017fffffffffffffffffffffffffffffffffffffffffffffffffffffffffffffffe0168201604052611a349190810190612b9e565b6003546040517fffffffff0000000000000000000000000000000000000000000000000000000060e087901b168152611a8d9493929173ffffffffffffffffffffffffffffffffffffffff16908a908a90600401612ca8565b602060405180830381600087803b158015611aa757600080fd5b505af1158015611abb573d6000803e3d6000fd5b505050506040513d601f19601f82011682018060405250810190611adf9190612d08565b600880547fffffffffffffffffffffffff00000000000000000000000000000000000000001673ffffffffffffffffffffffffffffffffffffffff838116919091179091556040517f70a08231000000000000000000000000000000000000000000000000000000008152306004820152919250600091908616906370a082319060240160206040518083038186803b158015611b7b57600080fd5b505afa158015611b8f573d6000803e3d6000fd5b505050506040513d601f19601f82011682018060405250810190611bb39190612d25565b6003546040517f70a0823100000000000000000000000000000000000000000000000000000000815230600482015291925060009173ffffffffffffffffffffffffffffffffffffffff909116906370a082319060240160206040518083038186803b158015611c2257600080fd5b505afa158015611c36573d6000803e3d6000fd5b505050506040513d601f19601f82011682018060405250810190611c5a9190612d25565b9050611c7e73ffffffffffffffffffffffffffffffffffffffff87168460006122a1565b611c9f73ffffffffffffffffffffffffffffffffffffffff871684846122a1565b600354611cc49073ffffffffffffffffffffffffffffffffffffffff168460006122a1565b600354611ce89073ffffffffffffffffffffffffffffffffffffffff1684836122a1565b6003546040517fc66106570000000000000000000000000000000000000000000000000000000081526000600482015273ffffffffffffffffffffffffffffffffffffffff9182169185169063c66106579060240160206040518083038186803b158015611d5557600080fd5b505afa158015611d69573d6000803e3d6000fd5b505050506040513d601f19601f82011682018060405250810190611d8d9190612d08565b73ffffffffffffffffffffffffffffffffffffffff16148015611e6657506040517fc66106570000000000000000000000000000000000000000000000000000000081526001600482015273ffffffffffffffffffffffffffffffffffffffff808816919085169063c66106579060240160206040518083038186803b158015611e1657600080fd5b505afa158015611e2a573d6000803e3d6000fd5b505050506040513d601f19601f82011682018060405250810190611e4e9190612d08565b73ffffffffffffffffffffffffffffffffffffffff16145b611eb25760405162461bcd60e51b815260206004820152601b60248201527f7541444d47523a20434f494e5f4f524445525f4d49534d41544348000000000060448201526064016109e8565b60408051808201918290526003547f70a0823100000000000000000000000000000000000000000000000000000000909252306044820152600091819073ffffffffffffffffffffffffffffffffffffffff166370a082316064830160206040518083038186803b158015611f2657600080fd5b505afa158015611f3a573d6000803e3d6000fd5b505050506040513d601f19601f82011682018060405250810190611f5e9190612d25565b81526040517f70a0823100000000000000000000000000000000000000000000000000000000815230600482015260209091019073ffffffffffffffffffffffffffffffffffffffff8a16906370a082319060240160206040518083038186803b158015611fcb57600080fd5b505afa158015611fdf573d6000803e3d6000fd5b505050506040513d601f19601f820116820180604052508101906120039190612d25565b9052600980547fffffffffffffffffffffffff00000000000000000000000000000000000000001673ffffffffffffffffffffffffffffffffffffffff8a8116919091179091556040517f0c3e4b54000000000000000000000000000000000000000000000000000000008152919250851690630c3e4b549061208f9084906000903390600401612d3e565b602060405180830381600087803b1580156120a957600080fd5b505af11580156120bd573d6000803e3d6000fd5b505050506040513d601f19601f820116820180604052508101906120e19190612d25565b50505050505050505050565b6120f7813361244f565b50565b60008281526020818152604080832073ffffffffffffffffffffffffffffffffffffffff8516845290915290205460ff16610c815760008281526020818152604080832073ffffffffffffffffffffffffffffffffffffffff85168452909152902080547fffffffffffffffffffffffffffffffffffffffffffffffffffffffffffffff0016600117905561218c3390565b73ffffffffffffffffffffffffffffffffffffffff168173ffffffffffffffffffffffffffffffffffffffff16837f2f8788117e7eff1d82e926ec794901d17c78024a50270940304540a733656f0d60405160405180910390a45050565b60008281526020818152604080832073ffffffffffffffffffffffffffffffffffffffff8516845290915290205460ff1615610c815760008281526020818152604080832073ffffffffffffffffffffffffffffffffffffffff8516808552925280832080547fffffffffffffffffffffffffffffffffffffffffffffffffffffffffffffff0016905551339285917ff6391f5c32d9c69d2a47ea670b442974b53935d1edc7fd64eb21e047a839171b9190a45050565b80158061235057506040517fdd62ed3e00000000000000000000000000000000000000000000000000000000815230600482015273ffffffffffffffffffffffffffffffffffffffff838116602483015284169063dd62ed3e9060440160206040518083038186803b15801561231657600080fd5b505afa15801561232a573d6000803e3d6000fd5b505050506040513d601f19601f8201168201806040525081019061234e9190612d25565b155b6123c25760405162461bcd60e51b815260206004820152603660248201527f5361666545524332303a20617070726f76652066726f6d206e6f6e2d7a65726f60448201527f20746f206e6f6e2d7a65726f20616c6c6f77616e63650000000000000000000060648201526084016109e8565b6040805173ffffffffffffffffffffffffffffffffffffffff8416602482015260448082018490528251808303909101815260649091019091526020810180517bffffffffffffffffffffffffffffffffffffffffffffffffffffffff167f095ea7b300000000000000000000000000000000000000000000000000000000179052610be79084906124ed565b60008281526020818152604080832073ffffffffffffffffffffffffffffffffffffffff8516845290915290205460ff16610c815761248d816125df565b6124988360206125fe565b6040516020016124a9929190612d93565b604080517fffffffffffffffffffffffffffffffffffffffffffffffffffffffffffffffe08184030181529082905262461bcd60e51b82526109e891600401612e14565b600061254f826040518060400160405280602081526020017f5361666545524332303a206c6f772d6c6576656c2063616c6c206661696c65648152508573ffffffffffffffffffffffffffffffffffffffff1661282e9092919063ffffffff16565b805190915015610be7578080602001905181019061256d9190612e27565b610be75760405162461bcd60e51b815260206004820152602a60248201527f5361666545524332303a204552433230206f7065726174696f6e20646964206e60448201527f6f7420737563636565640000000000000000000000000000000000000000000060648201526084016109e8565b606061096873ffffffffffffffffffffffffffffffffffffffff831660145b6060600061260d836002612e78565b612618906002612eb5565b67ffffffffffffffff81111561263057612630612b3f565b6040519080825280601f01601f19166020018201604052801561265a576020820181803683370190505b5090507f30000000000000000000000000000000000000000000000000000000000000008160008151811061269157612691612ecd565b60200101907effffffffffffffffffffffffffffffffffffffffffffffffffffffffffffff1916908160001a9053507f7800000000000000000000000000000000000000000000000000000000000000816001815181106126f4576126f4612ecd565b60200101907effffffffffffffffffffffffffffffffffffffffffffffffffffffffffffff1916908160001a9053506000612730846002612e78565b61273b906001612eb5565b90505b60018111156127d8577f303132333435363738396162636465660000000000000000000000000000000085600f166010811061277c5761277c612ecd565b1a60f81b82828151811061279257612792612ecd565b60200101907effffffffffffffffffffffffffffffffffffffffffffffffffffffffffffff1916908160001a90535060049490941c936127d181612efc565b905061273e565b5083156128275760405162461bcd60e51b815260206004820181905260248201527f537472696e67733a20686578206c656e67746820696e73756666696369656e7460448201526064016109e8565b9392505050565b606061283d8484600085612845565b949350505050565b6060824710156128bd5760405162461bcd60e51b815260206004820152602660248201527f416464726573733a20696e73756666696369656e742062616c616e636520666f60448201527f722063616c6c000000000000000000000000000000000000000000000000000060648201526084016109e8565b6000808673ffffffffffffffffffffffffffffffffffffffff1685876040516128e69190612f31565b60006040518083038185875af1925050503d8060008114612923576040519150601f19603f3d011682016040523d82523d6000602084013e612928565b606091505b509150915061293987838387612944565b979650505050505050565b606083156129bd5782516129b65773ffffffffffffffffffffffffffffffffffffffff85163b6129b65760405162461bcd60e51b815260206004820152601d60248201527f416464726573733a2063616c6c20746f206e6f6e2d636f6e747261637400000060448201526064016109e8565b508161283d565b61283d83838151156129d25781518083602001fd5b8060405162461bcd60e51b81526004016109e89190612e14565b6000602082840312156129fe57600080fd5b81357fffffffff000000000000000000000000000000000000000000000000000000008116811461282757600080fd5b73ffffffffffffffffffffffffffffffffffffffff811681146120f757600080fd5b600060208284031215612a6257600080fd5b813561282781612a2e565b600060208284031215612a7f57600080fd5b5035919050565b60008060408385031215612a9957600080fd5b823591506020830135612aab81612a2e565b809150509250929050565b60008060408385031215612ac957600080fd5b8235612ad481612a2e565b91506020830135612aab81612a2e565b600080600080600060a08688031215612afc57600080fd5b8535612b0781612a2e565b94506020860135612b1781612a2e565b93506040860135612b2781612a2e565b94979396509394606081013594506080013592915050565b7f4e487b7100000000000000000000000000000000000000000000000000000000600052604160045260246000fd5b60005b83811015612b89578181015183820152602001612b71565b83811115612b98576000848401525b50505050565b600060208284031215612bb057600080fd5b815167ffffffffffffffff80821115612bc857600080fd5b818401915084601f830112612bdc57600080fd5b815181811115612bee57612bee612b3f565b604051601f82017fffffffffffffffffffffffffffffffffffffffffffffffffffffffffffffffe0908116603f01168101908382118183101715612c3457612c34612b3f565b81604052828152876020848701011115612c4d57600080fd5b612939836020830160208801612b6e565b60008151808452612c76816020860160208601612b6e565b601f017fffffffffffffffffffffffffffffffffffffffffffffffffffffffffffffffe0169290920160200192915050565b600073ffffffffffffffffffffffffffffffffffffffff808916835260c06020840152612cd860c0840189612c5e565b8381036040850152612cea8189612c5e565b91909616606084015260808301949094525060a00152949350505050565b600060208284031215612d1a57600080fd5b815161282781612a2e565b600060208284031215612d3757600080fd5b5051919050565b60808101818560005b6002811015612d66578151835260209283019290910190600101612d47565b50505083604083015273ffffffffffffffffffffffffffffffffffffffff83166060830152949350505050565b7f416363657373436f6e74726f6c3a206163636f756e7420000000000000000000815260008351612dcb816017850160208801612b6e565b7f206973206d697373696e6720726f6c65200000000000000000000000000000006017918401918201528351612e08816028840160208801612b6e565b01602801949350505050565b6020815260006128276020830184612c5e565b600060208284031215612e3957600080fd5b8151801515811461282757600080fd5b7f4e487b7100000000000000000000000000000000000000000000000000000000600052601160045260246000fd5b6000817fffffffffffffffffffffffffffffffffffffffffffffffffffffffffffffffff0483118215151615612eb057612eb0612e49565b500290565b60008219821115612ec857612ec8612e49565b500190565b7f4e487b7100000000000000000000000000000000000000000000000000000000600052603260045260246000fd5b600081612f0b57612f0b612e49565b507fffffffffffffffffffffffffffffffffffffffffffffffffffffffffffffffff0190565b60008251612f43818460208701612b6e565b919091019291505056fea2646970667358221220dc02dfc556f5a0dd5046aa6584e96a381c3a34b08e8107659468eac9042bbcc864736f6c63430008090033",
    "linkReferences": {}
  },
  "methodIdentifiers": {
    "BONDING_MANAGER_ROLE()": "e6c73540",
    "COUPON_MANAGER_ROLE()": "a41dd6e6",
    "DEFAULT_ADMIN_ROLE()": "a217fddf",
    "INCENTIVE_MANAGER_ROLE()": "57f6a22a",
    "PAUSER_ROLE()": "e63ab1e9",
    "UBQ_BURNER_ROLE()": "f39e5a47",
    "UBQ_MINTER_ROLE()": "2f533cb7",
    "UBQ_TOKEN_MANAGER_ROLE()": "3b4d9773",
    "autoRedeemTokenAddress()": "3ae3d9a4",
    "bondingContractAddress()": "de71c1db",
    "bondingShareAddress()": "c431e83c",
    "couponCalculatorAddress()": "3e916ced",
    "curve3PoolTokenAddress()": "017df327",
    "debtCouponAddress()": "56593ea3",
    "deployStableSwapPool(address,address,address,uint256,uint256)": "fbff3a41",
    "dollarMintingCalculatorAddress()": "59f6deac",
    "dollarTokenAddress()": "bc3ea018",
    "formulasAddress()": "214f7882",
    "getExcessDollarsDistributor(address)": "aef6be3c",
    "getRoleAdmin(bytes32)": "248a9ca3",
    "governanceTokenAddress()": "b42165d0",
    "grantRole(bytes32,address)": "2f2ff15d",
    "hasRole(bytes32,address)": "91d14854",
    "masterChefAddress()": "221e2e60",
    "renounceRole(bytes32,address)": "36568abe",
    "revokeRole(bytes32,address)": "d547741f",
    "setBondingContractAddress(address)": "b3094fd6",
    "setBondingShareAddress(address)": "0bcf9ca3",
    "setCouponCalculatorAddress(address)": "38174654",
    "setDebtCouponAddress(address)": "47091398",
    "setDollarMintingCalculatorAddress(address)": "4c9f5d86",
    "setDollarTokenAddress(address)": "f986cd57",
    "setExcessDollarsDistributor(address,address)": "f6f172cb",
    "setFormulasAddress(address)": "15f97398",
    "setGovernanceTokenAddress(address)": "e2d443bd",
    "setIncentiveToUAD(address,address)": "53b07507",
    "setMasterChefAddress(address)": "be1d86e1",
    "setStableSwapMetaPoolAddress(address)": "92324611",
    "setSushiSwapPoolAddress(address)": "147f1b96",
    "setTreasuryAddress(address)": "6605bfda",
    "setTwapOracleAddress(address)": "3b194dcc",
    "setUARCalculatorAddress(address)": "4ac11608",
    "setuARTokenAddress(address)": "b90bbaff",
    "stableSwapMetaPoolAddress()": "d3815fb9",
    "supportsInterface(bytes4)": "01ffc9a7",
    "sushiSwapPoolAddress()": "36c3df24",
    "treasuryAddress()": "c5f956af",
    "twapOracleAddress()": "8fe63683",
    "uarCalculatorAddress()": "749cface"
  },
  "id": 58
}