{
  "contracts/mocks/MockTWAPOracle.sol": {
    "MockTWAPOracle": {
      "abi": [
        {
          "inputs": [
            {
              "internalType": "address",
              "name": "_pool",
              "type": "address"
            },
            {
              "internalType": "address",
              "name": "_uADtoken0",
              "type": "address"
            },
            {
              "internalType": "address",
              "name": "_curve3CRVtoken1",
              "type": "address"
            },
            {
              "internalType": "uint256",
              "name": "_price0Average",
              "type": "uint256"
            },
            {
              "internalType": "uint256",
              "name": "_price1Average",
              "type": "uint256"
            }
          ],
          "stateMutability": "nonpayable",
          "type": "constructor"
        },
        {
          "inputs": [
            {
              "internalType": "address",
              "name": "token",
              "type": "address"
            }
          ],
          "name": "consult",
          "outputs": [
            {
              "internalType": "uint256",
              "name": "amountOut",
              "type": "uint256"
            }
          ],
          "stateMutability": "view",
          "type": "function"
        },
        {
          "inputs": [],
          "name": "pool",
          "outputs": [
            {
              "internalType": "address",
              "name": "",
              "type": "address"
            }
          ],
          "stateMutability": "view",
          "type": "function"
        },
        {
          "inputs": [],
          "name": "price0Average",
          "outputs": [
            {
              "internalType": "uint256",
              "name": "",
              "type": "uint256"
            }
          ],
          "stateMutability": "view",
          "type": "function"
        },
        {
          "inputs": [],
          "name": "price1Average",
          "outputs": [
            {
              "internalType": "uint256",
              "name": "",
              "type": "uint256"
            }
          ],
          "stateMutability": "view",
          "type": "function"
        },
        {
          "inputs": [
            {
              "internalType": "uint256",
              "name": "",
              "type": "uint256"
            }
          ],
          "name": "priceCumulativeLast",
          "outputs": [
            {
              "internalType": "uint256",
              "name": "",
              "type": "uint256"
            }
          ],
          "stateMutability": "view",
          "type": "function"
        },
        {
          "inputs": [],
          "name": "pricesBlockTimestampLast",
          "outputs": [
            {
              "internalType": "uint256",
              "name": "",
              "type": "uint256"
            }
          ],
          "stateMutability": "view",
          "type": "function"
        },
        {
          "inputs": [],
          "name": "token0",
          "outputs": [
            {
              "internalType": "address",
              "name": "",
              "type": "address"
            }
          ],
          "stateMutability": "view",
          "type": "function"
        },
        {
          "inputs": [],
          "name": "token1",
          "outputs": [
            {
              "internalType": "address",
              "name": "",
              "type": "address"
            }
          ],
          "stateMutability": "view",
          "type": "function"
        },
        {
          "inputs": [],
          "name": "update",
          "outputs": [],
          "stateMutability": "pure",
          "type": "function"
        }
      ],
      "devdoc": {
        "kind": "dev",
        "methods": {},
        "version": 1
      },
      "evm": {
        "bytecode": {
          "linkReferences": {},
          "object": "60e060405234801561001057600080fd5b506040516103e13803806103e183398101604081905261002f9161007e565b6001600160601b0319606095861b811660805293851b841660a0529190931b90911660c0526000919091556001556100d3565b80516001600160a01b038116811461007957600080fd5b919050565b600080600080600060a08688031215610095578081fd5b61009e86610062565b94506100ac60208701610062565b93506100ba60408701610062565b6060870151608090970151959894975095949392505050565b60805160601c60a05160601c60c05160601c6102c96101186000396000818161016901526101d201526000818160c9015261018f0152600061010801526102c96000f3fe608060405234801561001057600080fd5b50600436106100a35760003560e01c80635e6aaf2c11610076578063a2e620451161005b578063a2e6204514610159578063a6bb45391461015b578063d21220a714610164576100a3565b80635e6aaf2c1461013d5780637536a29114610146576100a3565b80630301b16e146100a85780630dfe1681146100c457806316f0115b14610103578063283583c61461012a575b600080fd5b6100b160025481565b6040519081526020015b60405180910390f35b6100eb7f000000000000000000000000000000000000000000000000000000000000000081565b6040516001600160a01b0390911681526020016100bb565b6100eb7f000000000000000000000000000000000000000000000000000000000000000081565b6100b1610138366004610276565b61018b565b6100b160015481565b6100b16101543660046102a4565b61025f565b005b6100b160005481565b6100eb7f000000000000000000000000000000000000000000000000000000000000000081565b60007f00000000000000000000000000000000000000000000000000000000000000006001600160a01b0316826001600160a01b031614156101d0575060005461025a565b7f00000000000000000000000000000000000000000000000000000000000000006001600160a01b0316826001600160a01b0316146102555760405162461bcd60e51b815260206004820152601960248201527f545741504f7261636c653a20494e56414c49445f544f4b454e00000000000000604482015260640160405180910390fd5b506001545b919050565b6003816002811061026f57600080fd5b0154905081565b600060208284031215610287578081fd5b81356001600160a01b038116811461029d578182fd5b9392505050565b6000602082840312156102b5578081fd5b503591905056fea164736f6c6343000803000a",
          "opcodes": "PUSH1 0xE0 PUSH1 0x40 MSTORE CALLVALUE DUP1 ISZERO PUSH2 0x10 JUMPI PUSH1 0x0 DUP1 REVERT JUMPDEST POP PUSH1 0x40 MLOAD PUSH2 0x3E1 CODESIZE SUB DUP1 PUSH2 0x3E1 DUP4 CODECOPY DUP2 ADD PUSH1 0x40 DUP2 SWAP1 MSTORE PUSH2 0x2F SWAP2 PUSH2 0x7E JUMP JUMPDEST PUSH1 0x1 PUSH1 0x1 PUSH1 0x60 SHL SUB NOT PUSH1 0x60 SWAP6 DUP7 SHL DUP2 AND PUSH1 0x80 MSTORE SWAP4 DUP6 SHL DUP5 AND PUSH1 0xA0 MSTORE SWAP2 SWAP1 SWAP4 SHL SWAP1 SWAP2 AND PUSH1 0xC0 MSTORE PUSH1 0x0 SWAP2 SWAP1 SWAP2 SSTORE PUSH1 0x1 SSTORE PUSH2 0xD3 JUMP JUMPDEST DUP1 MLOAD PUSH1 0x1 PUSH1 0x1 PUSH1 0xA0 SHL SUB DUP2 AND DUP2 EQ PUSH2 0x79 JUMPI PUSH1 0x0 DUP1 REVERT JUMPDEST SWAP2 SWAP1 POP JUMP JUMPDEST PUSH1 0x0 DUP1 PUSH1 0x0 DUP1 PUSH1 0x0 PUSH1 0xA0 DUP7 DUP9 SUB SLT ISZERO PUSH2 0x95 JUMPI DUP1 DUP2 REVERT JUMPDEST PUSH2 0x9E DUP7 PUSH2 0x62 JUMP JUMPDEST SWAP5 POP PUSH2 0xAC PUSH1 0x20 DUP8 ADD PUSH2 0x62 JUMP JUMPDEST SWAP4 POP PUSH2 0xBA PUSH1 0x40 DUP8 ADD PUSH2 0x62 JUMP JUMPDEST PUSH1 0x60 DUP8 ADD MLOAD PUSH1 0x80 SWAP1 SWAP8 ADD MLOAD SWAP6 SWAP9 SWAP5 SWAP8 POP SWAP6 SWAP5 SWAP4 SWAP3 POP POP POP JUMP JUMPDEST PUSH1 0x80 MLOAD PUSH1 0x60 SHR PUSH1 0xA0 MLOAD PUSH1 0x60 SHR PUSH1 0xC0 MLOAD PUSH1 0x60 SHR PUSH2 0x2C9 PUSH2 0x118 PUSH1 0x0 CODECOPY PUSH1 0x0 DUP2 DUP2 PUSH2 0x169 ADD MSTORE PUSH2 0x1D2 ADD MSTORE PUSH1 0x0 DUP2 DUP2 PUSH1 0xC9 ADD MSTORE PUSH2 0x18F ADD MSTORE PUSH1 0x0 PUSH2 0x108 ADD MSTORE PUSH2 0x2C9 PUSH1 0x0 RETURN INVALID PUSH1 0x80 PUSH1 0x40 MSTORE CALLVALUE DUP1 ISZERO PUSH2 0x10 JUMPI PUSH1 0x0 DUP1 REVERT JUMPDEST POP PUSH1 0x4 CALLDATASIZE LT PUSH2 0xA3 JUMPI PUSH1 0x0 CALLDATALOAD PUSH1 0xE0 SHR DUP1 PUSH4 0x5E6AAF2C GT PUSH2 0x76 JUMPI DUP1 PUSH4 0xA2E62045 GT PUSH2 0x5B JUMPI DUP1 PUSH4 0xA2E62045 EQ PUSH2 0x159 JUMPI DUP1 PUSH4 0xA6BB4539 EQ PUSH2 0x15B JUMPI DUP1 PUSH4 0xD21220A7 EQ PUSH2 0x164 JUMPI PUSH2 0xA3 JUMP JUMPDEST DUP1 PUSH4 0x5E6AAF2C EQ PUSH2 0x13D JUMPI DUP1 PUSH4 0x7536A291 EQ PUSH2 0x146 JUMPI PUSH2 0xA3 JUMP JUMPDEST DUP1 PUSH4 0x301B16E EQ PUSH2 0xA8 JUMPI DUP1 PUSH4 0xDFE1681 EQ PUSH2 0xC4 JUMPI DUP1 PUSH4 0x16F0115B EQ PUSH2 0x103 JUMPI DUP1 PUSH4 0x283583C6 EQ PUSH2 0x12A JUMPI JUMPDEST PUSH1 0x0 DUP1 REVERT JUMPDEST PUSH2 0xB1 PUSH1 0x2 SLOAD DUP2 JUMP JUMPDEST PUSH1 0x40 MLOAD SWAP1 DUP2 MSTORE PUSH1 0x20 ADD JUMPDEST PUSH1 0x40 MLOAD DUP1 SWAP2 SUB SWAP1 RETURN JUMPDEST PUSH2 0xEB PUSH32 0x0 DUP2 JUMP JUMPDEST PUSH1 0x40 MLOAD PUSH1 0x1 PUSH1 0x1 PUSH1 0xA0 SHL SUB SWAP1 SWAP2 AND DUP2 MSTORE PUSH1 0x20 ADD PUSH2 0xBB JUMP JUMPDEST PUSH2 0xEB PUSH32 0x0 DUP2 JUMP JUMPDEST PUSH2 0xB1 PUSH2 0x138 CALLDATASIZE PUSH1 0x4 PUSH2 0x276 JUMP JUMPDEST PUSH2 0x18B JUMP JUMPDEST PUSH2 0xB1 PUSH1 0x1 SLOAD DUP2 JUMP JUMPDEST PUSH2 0xB1 PUSH2 0x154 CALLDATASIZE PUSH1 0x4 PUSH2 0x2A4 JUMP JUMPDEST PUSH2 0x25F JUMP JUMPDEST STOP JUMPDEST PUSH2 0xB1 PUSH1 0x0 SLOAD DUP2 JUMP JUMPDEST PUSH2 0xEB PUSH32 0x0 DUP2 JUMP JUMPDEST PUSH1 0x0 PUSH32 0x0 PUSH1 0x1 PUSH1 0x1 PUSH1 0xA0 SHL SUB AND DUP3 PUSH1 0x1 PUSH1 0x1 PUSH1 0xA0 SHL SUB AND EQ ISZERO PUSH2 0x1D0 JUMPI POP PUSH1 0x0 SLOAD PUSH2 0x25A JUMP JUMPDEST PUSH32 0x0 PUSH1 0x1 PUSH1 0x1 PUSH1 0xA0 SHL SUB AND DUP3 PUSH1 0x1 PUSH1 0x1 PUSH1 0xA0 SHL SUB AND EQ PUSH2 0x255 JUMPI PUSH1 0x40 MLOAD PUSH3 0x461BCD PUSH1 0xE5 SHL DUP2 MSTORE PUSH1 0x20 PUSH1 0x4 DUP3 ADD MSTORE PUSH1 0x19 PUSH1 0x24 DUP3 ADD MSTORE PUSH32 0x545741504F7261636C653A20494E56414C49445F544F4B454E00000000000000 PUSH1 0x44 DUP3 ADD MSTORE PUSH1 0x64 ADD PUSH1 0x40 MLOAD DUP1 SWAP2 SUB SWAP1 REVERT JUMPDEST POP PUSH1 0x1 SLOAD JUMPDEST SWAP2 SWAP1 POP JUMP JUMPDEST PUSH1 0x3 DUP2 PUSH1 0x2 DUP2 LT PUSH2 0x26F JUMPI PUSH1 0x0 DUP1 REVERT JUMPDEST ADD SLOAD SWAP1 POP DUP2 JUMP JUMPDEST PUSH1 0x0 PUSH1 0x20 DUP3 DUP5 SUB SLT ISZERO PUSH2 0x287 JUMPI DUP1 DUP2 REVERT JUMPDEST DUP2 CALLDATALOAD PUSH1 0x1 PUSH1 0x1 PUSH1 0xA0 SHL SUB DUP2 AND DUP2 EQ PUSH2 0x29D JUMPI DUP2 DUP3 REVERT JUMPDEST SWAP4 SWAP3 POP POP POP JUMP JUMPDEST PUSH1 0x0 PUSH1 0x20 DUP3 DUP5 SUB SLT ISZERO PUSH2 0x2B5 JUMPI DUP1 DUP2 REVERT JUMPDEST POP CALLDATALOAD SWAP2 SWAP1 POP JUMP INVALID LOG1 PUSH5 0x736F6C6343 STOP ADDMOD SUB STOP EXP "
        },
        "gasEstimates": {
          "creation": {
            "codeDepositCost": "142600",
            "executionCost": "infinite",
            "totalCost": "infinite"
          },
          "external": {
            "consult(address)": "infinite",
            "pool()": "infinite",
            "price0Average()": "1028",
            "price1Average()": "1007",
            "priceCumulativeLast(uint256)": "1152",
            "pricesBlockTimestampLast()": "985",
            "token0()": "infinite",
            "token1()": "infinite",
            "update()": "142"
          }
        },
        "methodIdentifiers": {
          "consult(address)": "283583c6",
          "pool()": "16f0115b",
          "price0Average()": "a6bb4539",
          "price1Average()": "5e6aaf2c",
          "priceCumulativeLast(uint256)": "7536a291",
          "pricesBlockTimestampLast()": "0301b16e",
          "token0()": "0dfe1681",
          "token1()": "d21220a7",
          "update()": "a2e62045"
        }
      },
      "storageLayout": {
        "storage": [
          {
            "astId": 9,
            "contract": "contracts/mocks/MockTWAPOracle.sol:MockTWAPOracle",
            "label": "price0Average",
            "offset": 0,
            "slot": "0",
            "type": "t_uint256"
          },
          {
            "astId": 11,
            "contract": "contracts/mocks/MockTWAPOracle.sol:MockTWAPOracle",
            "label": "price1Average",
            "offset": 0,
            "slot": "1",
            "type": "t_uint256"
          },
          {
            "astId": 13,
            "contract": "contracts/mocks/MockTWAPOracle.sol:MockTWAPOracle",
            "label": "pricesBlockTimestampLast",
            "offset": 0,
            "slot": "2",
            "type": "t_uint256"
          },
          {
            "astId": 17,
            "contract": "contracts/mocks/MockTWAPOracle.sol:MockTWAPOracle",
            "label": "priceCumulativeLast",
            "offset": 0,
            "slot": "3",
            "type": "t_array(t_uint256)2_storage"
          }
        ],
        "types": {
          "t_array(t_uint256)2_storage": {
            "base": "t_uint256",
            "encoding": "inplace",
            "label": "uint256[2]",
            "numberOfBytes": "64"
          },
          "t_uint256": {
            "encoding": "inplace",
            "label": "uint256",
            "numberOfBytes": "32"
          }
        }
      },
      "userdoc": {
        "kind": "user",
        "methods": {},
        "version": 1
      }
    }
  }
}