{
  "abi": [
    {
      "inputs": [
        {
          "internalType": "address",
          "name": "tokenRewards_",
          "type": "address"
        },
        {
          "internalType": "uint256",
          "name": "vestingBlocks_",
          "type": "uint256"
        },
        {
          "internalType": "address",
          "name": "treasury_",
          "type": "address"
        }
      ],
      "stateMutability": "nonpayable",
      "type": "constructor"
    },
    {
      "anonymous": false,
      "inputs": [
        {
          "indexed": false,
          "internalType": "address",
          "name": "addr",
          "type": "address"
        },
        {
          "indexed": false,
          "internalType": "address",
          "name": "token",
          "type": "address"
        },
        {
          "indexed": false,
          "internalType": "uint256",
          "name": "amount",
          "type": "uint256"
        },
        {
          "indexed": false,
          "internalType": "uint256",
          "name": "rewards",
          "type": "uint256"
        },
        {
          "indexed": false,
          "internalType": "uint256",
          "name": "block",
          "type": "uint256"
        },
        {
          "indexed": false,
          "internalType": "uint256",
          "name": "bondId",
          "type": "uint256"
        }
      ],
      "name": "LogBond",
      "type": "event"
    },
    {
      "anonymous": false,
      "inputs": [
        {
          "indexed": false,
          "internalType": "address",
          "name": "addr",
          "type": "address"
        },
        {
          "indexed": false,
          "internalType": "uint256",
          "name": "index",
          "type": "uint256"
        },
        {
          "indexed": false,
          "internalType": "uint256",
          "name": "rewards",
          "type": "uint256"
        }
      ],
      "name": "LogClaim",
      "type": "event"
    },
    {
      "anonymous": false,
      "inputs": [
        {
          "indexed": false,
          "internalType": "address",
          "name": "token",
          "type": "address"
        },
        {
          "indexed": false,
          "internalType": "uint256",
          "name": "rewardsRatio",
          "type": "uint256"
        }
      ],
      "name": "LogSetRewards",
      "type": "event"
    },
    {
      "anonymous": false,
      "inputs": [
        {
          "indexed": true,
          "internalType": "address",
          "name": "previousOwner",
          "type": "address"
        },
        {
          "indexed": true,
          "internalType": "address",
          "name": "newOwner",
          "type": "address"
        }
      ],
      "name": "OwnershipTransferred",
      "type": "event"
    },
    {
      "anonymous": false,
      "inputs": [
        {
          "indexed": false,
          "internalType": "address",
          "name": "account",
          "type": "address"
        }
      ],
      "name": "Paused",
      "type": "event"
    },
    {
      "anonymous": false,
      "inputs": [
        {
          "indexed": false,
          "internalType": "address",
          "name": "account",
          "type": "address"
        }
      ],
      "name": "Unpaused",
      "type": "event"
    },
    {
      "inputs": [
        {
          "internalType": "address",
          "name": "token",
          "type": "address"
        },
        {
          "internalType": "uint256",
          "name": "amount",
          "type": "uint256"
        }
      ],
      "name": "bond",
      "outputs": [
        {
          "internalType": "uint256",
          "name": "bondId",
          "type": "uint256"
        }
      ],
      "stateMutability": "nonpayable",
      "type": "function"
    },
    {
      "inputs": [
        {
          "internalType": "address",
          "name": "",
          "type": "address"
        },
        {
          "internalType": "uint256",
          "name": "",
          "type": "uint256"
        }
      ],
      "name": "bonds",
      "outputs": [
        {
          "internalType": "address",
          "name": "token",
          "type": "address"
        },
        {
          "internalType": "uint256",
          "name": "amount",
          "type": "uint256"
        },
        {
          "internalType": "uint256",
          "name": "rewards",
          "type": "uint256"
        },
        {
          "internalType": "uint256",
          "name": "claimed",
          "type": "uint256"
        },
        {
          "internalType": "uint256",
          "name": "block",
          "type": "uint256"
        }
      ],
      "stateMutability": "view",
      "type": "function"
    },
    {
      "inputs": [
        {
          "internalType": "address",
          "name": "addr",
          "type": "address"
        }
      ],
      "name": "bondsCount",
      "outputs": [
        {
          "internalType": "uint256",
          "name": "",
          "type": "uint256"
        }
      ],
      "stateMutability": "view",
      "type": "function"
    },
    {
      "inputs": [],
      "name": "claim",
      "outputs": [
        {
          "internalType": "uint256",
          "name": "claimed",
          "type": "uint256"
        }
      ],
      "stateMutability": "nonpayable",
      "type": "function"
    },
    {
      "inputs": [
        {
          "internalType": "uint256",
          "name": "index",
          "type": "uint256"
        }
      ],
      "name": "claimBond",
      "outputs": [
        {
          "internalType": "uint256",
          "name": "claimed",
          "type": "uint256"
        }
      ],
      "stateMutability": "nonpayable",
      "type": "function"
    },
    {
      "inputs": [],
      "name": "owner",
      "outputs": [
        {
          "internalType": "address",
          "name": "",
          "type": "address"
        }
      ],
      "stateMutability": "view",
      "type": "function"
    },
    {
      "inputs": [],
      "name": "pause",
      "outputs": [],
      "stateMutability": "nonpayable",
      "type": "function"
    },
    {
      "inputs": [],
      "name": "paused",
      "outputs": [
        {
          "internalType": "bool",
          "name": "",
          "type": "bool"
        }
      ],
      "stateMutability": "view",
      "type": "function"
    },
    {
      "inputs": [],
      "name": "renounceOwnership",
      "outputs": [],
      "stateMutability": "nonpayable",
      "type": "function"
    },
    {
      "inputs": [
        {
          "internalType": "address",
          "name": "addr",
          "type": "address"
        },
        {
          "internalType": "uint256",
          "name": "index",
          "type": "uint256"
        }
      ],
      "name": "rewardsBondOf",
      "outputs": [
        {
          "internalType": "uint256",
          "name": "rewards",
          "type": "uint256"
        },
        {
          "internalType": "uint256",
          "name": "rewardsClaimed",
          "type": "uint256"
        },
        {
          "internalType": "uint256",
          "name": "rewardsClaimable",
          "type": "uint256"
        }
      ],
      "stateMutability": "view",
      "type": "function"
    },
    {
      "inputs": [
        {
          "internalType": "address",
          "name": "addr",
          "type": "address"
        }
      ],
      "name": "rewardsOf",
      "outputs": [
        {
          "internalType": "uint256",
          "name": "rewards",
          "type": "uint256"
        },
        {
          "internalType": "uint256",
          "name": "rewardsClaimed",
          "type": "uint256"
        },
        {
          "internalType": "uint256",
          "name": "rewardsClaimable",
          "type": "uint256"
        }
      ],
      "stateMutability": "view",
      "type": "function"
    },
    {
      "inputs": [
        {
          "internalType": "address",
          "name": "",
          "type": "address"
        }
      ],
      "name": "rewardsRatio",
      "outputs": [
        {
          "internalType": "uint256",
          "name": "",
          "type": "uint256"
        }
      ],
      "stateMutability": "view",
      "type": "function"
    },
    {
      "inputs": [
        {
          "internalType": "address",
          "name": "token",
          "type": "address"
        },
        {
          "internalType": "uint256",
          "name": "tokenRewardsRatio",
          "type": "uint256"
        }
      ],
      "name": "setRewards",
      "outputs": [],
      "stateMutability": "nonpayable",
      "type": "function"
    },
    {
      "inputs": [
        {
          "internalType": "address",
          "name": "sticker_",
          "type": "address"
        }
      ],
      "name": "setSticker",
      "outputs": [],
      "stateMutability": "nonpayable",
      "type": "function"
    },
    {
      "inputs": [
        {
          "internalType": "address",
          "name": "treasury_",
          "type": "address"
        }
      ],
      "name": "setTreasury",
      "outputs": [],
      "stateMutability": "nonpayable",
      "type": "function"
    },
    {
      "inputs": [
        {
          "internalType": "uint256",
          "name": "vestingBlocks_",
          "type": "uint256"
        }
      ],
      "name": "setVestingBlocks",
      "outputs": [],
      "stateMutability": "nonpayable",
      "type": "function"
    },
    {
      "inputs": [],
      "name": "sticker",
      "outputs": [
        {
          "internalType": "address",
          "name": "",
          "type": "address"
        }
      ],
      "stateMutability": "view",
      "type": "function"
    },
    {
      "inputs": [],
      "name": "tokenRewards",
      "outputs": [
        {
          "internalType": "address",
          "name": "",
          "type": "address"
        }
      ],
      "stateMutability": "view",
      "type": "function"
    },
    {
      "inputs": [],
      "name": "totalClaimedRewards",
      "outputs": [
        {
          "internalType": "uint256",
          "name": "",
          "type": "uint256"
        }
      ],
      "stateMutability": "view",
      "type": "function"
    },
    {
      "inputs": [],
      "name": "totalRewards",
      "outputs": [
        {
          "internalType": "uint256",
          "name": "",
          "type": "uint256"
        }
      ],
      "stateMutability": "view",
      "type": "function"
    },
    {
      "inputs": [
        {
          "internalType": "address",
          "name": "newOwner",
          "type": "address"
        }
      ],
      "name": "transferOwnership",
      "outputs": [],
      "stateMutability": "nonpayable",
      "type": "function"
    },
    {
      "inputs": [],
      "name": "treasury",
      "outputs": [
        {
          "internalType": "address",
          "name": "",
          "type": "address"
        }
      ],
      "stateMutability": "view",
      "type": "function"
    },
    {
      "inputs": [],
      "name": "unpause",
      "outputs": [],
      "stateMutability": "nonpayable",
      "type": "function"
    },
    {
      "inputs": [],
      "name": "vestingBlocks",
      "outputs": [
        {
          "internalType": "uint256",
          "name": "",
          "type": "uint256"
        }
      ],
      "stateMutability": "view",
      "type": "function"
    },
    {
      "inputs": [
        {
          "internalType": "address",
          "name": "token",
          "type": "address"
        },
        {
          "internalType": "uint256",
          "name": "amount",
          "type": "uint256"
        }
      ],
      "name": "withdraw",
      "outputs": [],
      "stateMutability": "nonpayable",
      "type": "function"
    }
  ],
  "bytecode": {
    "object": "0x60a06040523480156200001157600080fd5b5060405162001c6a38038062001c6a833981016040819052620000349162000284565b6200003f33620000d4565b6000805460ff60a01b191690556001600160a01b038316620000a85760405162461bcd60e51b815260206004820152601460248201527f496e76616c69642052657761726420746f6b656e00000000000000000000000060448201526064015b60405180910390fd5b6001600160a01b038316608052620000c08262000124565b620000cb8162000185565b505050620002c5565b600080546001600160a01b038381166001600160a01b0319831681178455604051919092169283917f8be0079c531659141344cd1fd0a4f28419497f9722a3daafe3b4186f6b6457e09190a35050565b6200012e62000209565b60008111620001805760405162461bcd60e51b815260206004820152601d60248201527f496e76616c69642056657374696e6720626c6f636b73206e756d62657200000060448201526064016200009f565b600255565b6200018f62000209565b6001600160a01b038116620001e75760405162461bcd60e51b815260206004820152601860248201527f496e76616c69642054726561737572792061646472657373000000000000000060448201526064016200009f565b600680546001600160a01b0319166001600160a01b0392909216919091179055565b6000546001600160a01b03163314620002655760405162461bcd60e51b815260206004820181905260248201527f4f776e61626c653a2063616c6c6572206973206e6f7420746865206f776e657260448201526064016200009f565b565b80516001600160a01b03811681146200027f57600080fd5b919050565b6000806000606084860312156200029a57600080fd5b620002a58462000267565b925060208401519150620002bc6040850162000267565b90509250925092565b60805161197b620002ef600039600081816101ad0152818161056701526105f5015261197b6000f3fe608060405234801561001057600080fd5b50600436106101a35760003560e01c806381edc94f116100ee578063d4cea5e711610097578063f0f4426011610071578063f0f442601461040f578063f2fde38b14610422578063f3fef3a314610435578063fee1a9c81461044857600080fd5b8063d4cea5e7146103d3578063d578ceab146103f3578063eafba8be146103fc57600080fd5b8063a515366a116100c8578063a515366a14610377578063ac43f3661461038a578063b451ae4a1461039d57600080fd5b806381edc94f1461033e5780638456cb59146103515780638da5cb5b1461035957600080fd5b8063479ba7ae1161015057806361d027b31161012a57806361d027b314610303578063715018a61461032357806380c15aaa1461032b57600080fd5b8063479ba7ae1461029f5780634e71d92d146102cd5780635c975abb146102d557600080fd5b8063202160fd11610181578063202160fd14610223578063327d83b8146102435780633f4ba83a1461029557600080fd5b8063091c76f5146101a85780630e15561a146101f95780631c08c08e14610210575b600080fd5b6101cf7f000000000000000000000000000000000000000000000000000000000000000081565b60405173ffffffffffffffffffffffffffffffffffffffff90911681526020015b60405180910390f35b61020260045481565b6040519081526020016101f0565b61020261021e3660046116ba565b610451565b6102026102313660046116fc565b60016020526000908152604090205481565b61025661025136600461171e565b610668565b6040805173ffffffffffffffffffffffffffffffffffffffff90961686526020860194909452928401919091526060830152608082015260a0016101f0565b61029d6106cd565b005b6102b26102ad3660046116fc565b6106df565b604080519384526020840192909252908201526060016101f0565b61020261076b565b60005474010000000000000000000000000000000000000000900460ff1660405190151581526020016101f0565b6006546101cf9073ffffffffffffffffffffffffffffffffffffffff1681565b61029d6107ba565b61029d61033936600461171e565b6107cc565b61029d61034c3660046116fc565b6108bb565b61029d61090a565b60005473ffffffffffffffffffffffffffffffffffffffff166101cf565b61020261038536600461171e565b61091a565b61029d6103983660046116ba565b610c9f565b6102026103ab3660046116fc565b73ffffffffffffffffffffffffffffffffffffffff1660009081526003602052604090205490565b6007546101cf9073ffffffffffffffffffffffffffffffffffffffff1681565b61020260055481565b6102b261040a36600461171e565b610d16565b61029d61041d3660046116fc565b610dd3565b61029d6104303660046116fc565b610e9f565b61029d61044336600461171e565b610f56565b61020260025481565b600061045b610f89565b33600090815260036020526040812080548490811061047c5761047c611748565b600091825260208083206040805160a0810182526005909402909101805473ffffffffffffffffffffffffffffffffffffffff168452600181015492840192909252600282015490830152600381015460608301526004810154608083015292506104e69061100e565b90508015610620578082600301600082825461050291906117a6565b92505081905550806005600082825461051b91906117a6565b9091555050600282015460038301541115610538576105386117bf565b6040517fc621bf8a000000000000000000000000000000000000000000000000000000008152600481018290527f000000000000000000000000000000000000000000000000000000000000000073ffffffffffffffffffffffffffffffffffffffff169063c621bf8a90602401600060405180830381600087803b1580156105c057600080fd5b505af11580156105d4573d6000803e3d6000fd5b5050600654610620925073ffffffffffffffffffffffffffffffffffffffff7f00000000000000000000000000000000000000000000000000000000000000008116925016338461109a565b60408051338152602081018690529081018490527f9a4772cd5c0946aaea956f025c3bd64f5b4464abfaa006dbfc1ffe104b89ef2f9060600160405180910390a15050919050565b6003602052816000526040600020818154811061068457600080fd5b60009182526020909120600590910201805460018201546002830154600384015460049094015473ffffffffffffffffffffffffffffffffffffffff9093169550909350919085565b6106d561117c565b6106dd6111fd565b565b60008080805b73ffffffffffffffffffffffffffffffffffffffff85166000908152600360205260409020548110156107635760008060006107218885610d16565b9194509250905061073283886117a6565b965061073e82876117a6565b955061074a81866117a6565b945050505060018161075c91906117a6565b90506106e5565b509193909250565b6000610775610f89565b60005b336000908152600360205260409020548110156107b65761079881610451565b6107a290836117a6565b91506107af6001826117a6565b9050610778565b5090565b6107c261117c565b6106dd600061127a565b6107d461117c565b73ffffffffffffffffffffffffffffffffffffffff8216610856576040517f08c379a000000000000000000000000000000000000000000000000000000000815260206004820152601460248201527f496e76616c69642052657761726420746f6b656e00000000000000000000000060448201526064015b60405180910390fd5b73ffffffffffffffffffffffffffffffffffffffff8216600081815260016020908152604091829020849055815192835282018390527f6510bc177b221b83db45f8daeddbea4c053d983b9505fd7a4810528e5e5826cb910160405180910390a15050565b6108c361117c565b600780547fffffffffffffffffffffffff00000000000000000000000000000000000000001673ffffffffffffffffffffffffffffffffffffffff92909216919091179055565b61091261117c565b6106dd6112ef565b6000610924610f89565b60075473ffffffffffffffffffffffffffffffffffffffff1615806109d957506007546040517f70a0823100000000000000000000000000000000000000000000000000000000815233600482015260009173ffffffffffffffffffffffffffffffffffffffff16906370a0823190602401602060405180830381865afa1580156109b3573d6000803e3d6000fd5b505050506040513d601f19601f820116820180604052508101906109d791906117ee565b115b610a3f576040517f08c379a000000000000000000000000000000000000000000000000000000000815260206004820152601360248201527f4e6f74204e465420537469636b206f776e657200000000000000000000000000604482015260640161084d565b73ffffffffffffffffffffffffffffffffffffffff8316600090815260016020526040902054610acb576040517f08c379a000000000000000000000000000000000000000000000000000000000815260206004820152601160248201527f546f6b656e206e6f7420616c6c6f776564000000000000000000000000000000604482015260640161084d565b610aed73ffffffffffffffffffffffffffffffffffffffff841633308561109a565b610b356040518060a00160405280600073ffffffffffffffffffffffffffffffffffffffff168152602001600081526020016000815260200160008152602001600081525090565b73ffffffffffffffffffffffffffffffffffffffff841680825260208083018590524360808401526000918252600190526040812054633b9aca0090610b7b9086611807565b610b859190611844565b9050808260400181815250508060046000828254610ba391906117a6565b90915550503360008181526003602081815260408084208054600180820183559186529483902088516005870290910180547fffffffffffffffffffffffff00000000000000000000000000000000000000001673ffffffffffffffffffffffffffffffffffffffff90921691821781558985015192810183905589840151600282018190556060808c0151978301979097556080808c015160049093018390558551998a5295890192909252928701919091529285019290925283015260a0820181905293507f052c36ae0feaf423139c51ade3446fd2170796d06cb1fb368243a368921ed79b9060c00160405180910390a1505092915050565b610ca761117c565b60008111610d11576040517f08c379a000000000000000000000000000000000000000000000000000000000815260206004820152601d60248201527f496e76616c69642056657374696e6720626c6f636b73206e756d626572000000604482015260640161084d565b600255565b73ffffffffffffffffffffffffffffffffffffffff8216600090815260036020526040812080548291829182919086908110610d5457610d54611748565b60009182526020918290206040805160a0810182526005909302909101805473ffffffffffffffffffffffffffffffffffffffff1683526001810154938301939093526002830154908201819052600383015460608301819052600490930154608083015295509093509050610dc98161100e565b9150509250925092565b610ddb61117c565b73ffffffffffffffffffffffffffffffffffffffff8116610e58576040517f08c379a000000000000000000000000000000000000000000000000000000000815260206004820152601860248201527f496e76616c696420547265617375727920616464726573730000000000000000604482015260640161084d565b600680547fffffffffffffffffffffffff00000000000000000000000000000000000000001673ffffffffffffffffffffffffffffffffffffffff92909216919091179055565b610ea761117c565b73ffffffffffffffffffffffffffffffffffffffff8116610f4a576040517f08c379a000000000000000000000000000000000000000000000000000000000815260206004820152602660248201527f4f776e61626c653a206e6577206f776e657220697320746865207a65726f206160448201527f6464726573730000000000000000000000000000000000000000000000000000606482015260840161084d565b610f538161127a565b50565b610f5e61117c565b600654610f859073ffffffffffffffffffffffffffffffffffffffff84811691168361135e565b5050565b60005474010000000000000000000000000000000000000000900460ff16156106dd576040517f08c379a000000000000000000000000000000000000000000000000000000000815260206004820152601060248201527f5061757361626c653a2070617573656400000000000000000000000000000000604482015260640161084d565b60008160800151431015611024576110246117bf565b6000826080015143611036919061187f565b90506000600254821015611068576002548285604001516110579190611807565b6110619190611844565b905061106f565b5060408301515b8360600151811015611083576110836117bf565b6060840151611092908261187f565b949350505050565b60405173ffffffffffffffffffffffffffffffffffffffff808516602483015283166044820152606481018290526111769085907f23b872dd00000000000000000000000000000000000000000000000000000000906084015b604080517fffffffffffffffffffffffffffffffffffffffffffffffffffffffffffffffe08184030181529190526020810180517bffffffffffffffffffffffffffffffffffffffffffffffffffffffff167fffffffff00000000000000000000000000000000000000000000000000000000909316929092179091526113b9565b50505050565b60005473ffffffffffffffffffffffffffffffffffffffff1633146106dd576040517f08c379a000000000000000000000000000000000000000000000000000000000815260206004820181905260248201527f4f776e61626c653a2063616c6c6572206973206e6f7420746865206f776e6572604482015260640161084d565b6112056114c5565b600080547fffffffffffffffffffffff00ffffffffffffffffffffffffffffffffffffffff1690557f5db9ee0a495bf2e6ff9c91a7834c1ba4fdd244a5e8aa4e537bd38aeae4b073aa335b60405173ffffffffffffffffffffffffffffffffffffffff909116815260200160405180910390a1565b6000805473ffffffffffffffffffffffffffffffffffffffff8381167fffffffffffffffffffffffff0000000000000000000000000000000000000000831681178455604051919092169283917f8be0079c531659141344cd1fd0a4f28419497f9722a3daafe3b4186f6b6457e09190a35050565b6112f7610f89565b600080547fffffffffffffffffffffff00ffffffffffffffffffffffffffffffffffffffff16740100000000000000000000000000000000000000001790557f62e78cea01bee320cd4e420270b5ea74000d11b0c9f74754ebdbfc544b05a2586112503390565b60405173ffffffffffffffffffffffffffffffffffffffff83166024820152604481018290526113b49084907fa9059cbb00000000000000000000000000000000000000000000000000000000906064016110f4565b505050565b600061141b826040518060400160405280602081526020017f5361666545524332303a206c6f772d6c6576656c2063616c6c206661696c65648152508573ffffffffffffffffffffffffffffffffffffffff166115499092919063ffffffff16565b8051909150156113b457808060200190518101906114399190611892565b6113b4576040517f08c379a000000000000000000000000000000000000000000000000000000000815260206004820152602a60248201527f5361666545524332303a204552433230206f7065726174696f6e20646964206e60448201527f6f74207375636365656400000000000000000000000000000000000000000000606482015260840161084d565b60005474010000000000000000000000000000000000000000900460ff166106dd576040517f08c379a000000000000000000000000000000000000000000000000000000000815260206004820152601460248201527f5061757361626c653a206e6f7420706175736564000000000000000000000000604482015260640161084d565b60606110928484600085856000808673ffffffffffffffffffffffffffffffffffffffff16858760405161157d91906118d8565b60006040518083038185875af1925050503d80600081146115ba576040519150601f19603f3d011682016040523d82523d6000602084013e6115bf565b606091505b50915091506115d0878383876115db565b979650505050505050565b6060831561167157825160000361166a5773ffffffffffffffffffffffffffffffffffffffff85163b61166a576040517f08c379a000000000000000000000000000000000000000000000000000000000815260206004820152601d60248201527f416464726573733a2063616c6c20746f206e6f6e2d636f6e7472616374000000604482015260640161084d565b5081611092565b61109283838151156116865781518083602001fd5b806040517f08c379a000000000000000000000000000000000000000000000000000000000815260040161084d91906118f4565b6000602082840312156116cc57600080fd5b5035919050565b803573ffffffffffffffffffffffffffffffffffffffff811681146116f757600080fd5b919050565b60006020828403121561170e57600080fd5b611717826116d3565b9392505050565b6000806040838503121561173157600080fd5b61173a836116d3565b946020939093013593505050565b7f4e487b7100000000000000000000000000000000000000000000000000000000600052603260045260246000fd5b7f4e487b7100000000000000000000000000000000000000000000000000000000600052601160045260246000fd5b808201808211156117b9576117b9611777565b92915050565b7f4e487b7100000000000000000000000000000000000000000000000000000000600052600160045260246000fd5b60006020828403121561180057600080fd5b5051919050565b6000817fffffffffffffffffffffffffffffffffffffffffffffffffffffffffffffffff048311821515161561183f5761183f611777565b500290565b60008261187a577f4e487b7100000000000000000000000000000000000000000000000000000000600052601260045260246000fd5b500490565b818103818111156117b9576117b9611777565b6000602082840312156118a457600080fd5b8151801515811461171757600080fd5b60005b838110156118cf5781810151838201526020016118b7565b50506000910152565b600082516118ea8184602087016118b4565b9190910192915050565b60208152600082518060208401526119138160408501602087016118b4565b601f017fffffffffffffffffffffffffffffffffffffffffffffffffffffffffffffffe016919091016040019291505056fea26469706673582212201e8d89ff6a5face8827cebe842f7672b8d51f99f240903ac40a724dc88560c1864736f6c63430008100033",
    "linkReferences": {}
  },
  "methodIdentifiers": {
    "bond(address,uint256)": "a515366a",
    "bonds(address,uint256)": "327d83b8",
    "bondsCount(address)": "b451ae4a",
    "claim()": "4e71d92d",
    "claimBond(uint256)": "1c08c08e",
    "owner()": "8da5cb5b",
    "pause()": "8456cb59",
    "paused()": "5c975abb",
    "renounceOwnership()": "715018a6",
    "rewardsBondOf(address,uint256)": "eafba8be",
    "rewardsOf(address)": "479ba7ae",
    "rewardsRatio(address)": "202160fd",
    "setRewards(address,uint256)": "80c15aaa",
    "setSticker(address)": "81edc94f",
    "setTreasury(address)": "f0f44260",
    "setVestingBlocks(uint256)": "ac43f366",
    "sticker()": "d4cea5e7",
    "tokenRewards()": "091c76f5",
    "totalClaimedRewards()": "d578ceab",
    "totalRewards()": "0e15561a",
    "transferOwnership(address)": "f2fde38b",
    "treasury()": "61d027b3",
    "unpause()": "3f4ba83a",
    "vestingBlocks()": "fee1a9c8",
    "withdraw(address,uint256)": "f3fef3a3"
  },
  "userdoc": {
    "version": 1,
    "kind": "user",
    "methods": {
      "bond(address,uint256)": {
        "notice": "Bond tokens"
      },
      "bonds(address,uint256)": {
        "notice": "Bonds for each address"
      },
      "bondsCount(address)": {
        "notice": "Get number of bonds for address"
      },
      "claim()": {
        "notice": "Claim all rewards"
      },
      "claimBond(uint256)": {
        "notice": "Claim bond rewards"
      },
      "constructor": {
        "notice": "Simple Bond constructor"
      },
      "pause()": {
        "notice": "Pause Bonding and Claiming"
      },
      "rewardsBondOf(address,uint256)": {
        "notice": "Bond rewards balance: amount and already claimed"
      },
      "rewardsOf(address)": {
        "notice": "Bond rewards balance: amount and already claimed"
      },
      "rewardsRatio(address)": {
        "notice": "Rewards ratio for token bonded"
      },
      "setRewards(address,uint256)": {
        "notice": "Set Rewards for specific Token"
      },
      "setSticker(address)": {
        "notice": "Set sticker"
      },
      "setTreasury(address)": {
        "notice": "Set treasury address"
      },
      "setVestingBlocks(uint256)": {
        "notice": "Set vesting duration"
      },
      "sticker()": {
        "notice": "NFT stick address"
      },
      "tokenRewards()": {
        "notice": "Rewards token address"
      },
      "totalClaimedRewards()": {
        "notice": "Total rewards claimed"
      },
      "totalRewards()": {
        "notice": "Total rewards"
      },
      "treasury()": {
        "notice": "Treasury address"
      },
      "unpause()": {
        "notice": "Unpause Bonding and Claiming"
      },
      "vestingBlocks()": {
        "notice": "Vesting period"
      },
      "withdraw(address,uint256)": {
        "notice": "Withdraw token from the smartcontract, only for owner"
      }
    },
    "notice": "SimpleBond is a simple Bond mecanism, allowing to sell tokens bonded and get rewards tokensThe reward token is fully claimable only after the vesting period"
  },
  "devdoc": {
    "version": 1,
    "kind": "dev",
    "author": "zapaz.eth",
    "details": "Bond is Ownable, access controled by onlyOwnerUse SafeERC20",
    "methods": {
      "bond(address,uint256)": {
        "params": {
          "amount": "amount of token to bond",
          "token": "bonded token address"
        },
        "returns": {
          "bondId": "Bond id"
        }
      },
      "bondsCount(address)": {
        "returns": {
          "_0": "number of bonds"
        }
      },
      "claim()": {
        "returns": {
          "claimed": "Rewards claimed succesfully"
        }
      },
      "claimBond(uint256)": {
        "returns": {
          "claimed": "Rewards claimed succesfully"
        }
      },
      "constructor": {
        "params": {
          "tokenRewards_": "Rewards token address",
          "vestingBlocks_": "Vesting duration in blocks"
        }
      },
      "owner()": {
        "details": "Returns the address of the current owner."
      },
      "paused()": {
        "details": "Returns true if the contract is paused, and false otherwise."
      },
      "renounceOwnership()": {
        "details": "Leaves the contract without owner. It will not be possible to call `onlyOwner` functions anymore. Can only be called by the current owner. NOTE: Renouncing ownership will leave the contract without an owner, thereby removing any functionality that is only available to the owner."
      },
      "rewardsBondOf(address,uint256)": {
        "returns": {
          "rewards": "Amount of rewards",
          "rewardsClaimable": "Amount of still claimable rewards",
          "rewardsClaimed": "Amount of rewards already claimed"
        }
      },
      "rewardsOf(address)": {
        "returns": {
          "rewards": "Amount of rewards",
          "rewardsClaimable": "Amount of still claimable rewards",
          "rewardsClaimed": "Amount of rewards already claimed"
        }
      },
      "setRewards(address,uint256)": {
        "params": {
          "token": "token address",
          "tokenRewardsRatio": "rewardsRatio for this token"
        }
      },
      "setSticker(address)": {
        "params": {
          "sticker_": "sticker boolean"
        }
      },
      "setTreasury(address)": {
        "params": {
          "treasury_": "treasury address"
        }
      },
      "setVestingBlocks(uint256)": {
        "params": {
          "vestingBlocks_": "vesting duration in blocks"
        }
      },
      "transferOwnership(address)": {
        "details": "Transfers ownership of the contract to a new account (`newOwner`). Can only be called by the current owner."
      },
      "withdraw(address,uint256)": {
        "params": {
          "amount": "amount withdraw",
          "token": "token withdraw"
        }
      }
    },
    "title": "Simple Bond"
  },
  "id": 109
}