{
  "abi": [
    {
      "inputs": [
        {
          "internalType": "uint256",
          "name": "totalDebt",
          "type": "uint256"
        }
      ],
      "stateMutability": "nonpayable",
      "type": "constructor"
    },
    {
      "anonymous": false,
      "inputs": [
        {
          "indexed": true,
          "internalType": "address",
          "name": "account",
          "type": "address"
        },
        {
          "indexed": true,
          "internalType": "address",
          "name": "operator",
          "type": "address"
        },
        {
          "indexed": false,
          "internalType": "bool",
          "name": "approved",
          "type": "bool"
        }
      ],
      "name": "ApprovalForAll",
      "type": "event"
    },
    {
      "anonymous": false,
      "inputs": [
        {
          "indexed": true,
          "internalType": "address",
          "name": "owner",
          "type": "address"
        },
        {
          "indexed": false,
          "internalType": "uint256",
          "name": "amount",
          "type": "uint256"
        },
        {
          "indexed": false,
          "internalType": "uint256",
          "name": "expiryBlockNumber",
          "type": "uint256"
        }
      ],
      "name": "BurntCoupons",
      "type": "event"
    },
    {
      "anonymous": false,
      "inputs": [
        {
          "indexed": true,
          "internalType": "address",
          "name": "receiver",
          "type": "address"
        },
        {
          "indexed": false,
          "internalType": "uint256",
          "name": "couponsToMint",
          "type": "uint256"
        },
        {
          "indexed": false,
          "internalType": "uint256",
          "name": "expiryBlockNumber",
          "type": "uint256"
        }
      ],
      "name": "MintedCoupons",
      "type": "event"
    },
    {
      "anonymous": false,
      "inputs": [
        {
          "indexed": true,
          "internalType": "address",
          "name": "operator",
          "type": "address"
        },
        {
          "indexed": true,
          "internalType": "address",
          "name": "from",
          "type": "address"
        },
        {
          "indexed": true,
          "internalType": "address",
          "name": "to",
          "type": "address"
        },
        {
          "indexed": false,
          "internalType": "uint256[]",
          "name": "ids",
          "type": "uint256[]"
        },
        {
          "indexed": false,
          "internalType": "uint256[]",
          "name": "values",
          "type": "uint256[]"
        }
      ],
      "name": "TransferBatch",
      "type": "event"
    },
    {
      "anonymous": false,
      "inputs": [
        {
          "indexed": true,
          "internalType": "address",
          "name": "operator",
          "type": "address"
        },
        {
          "indexed": true,
          "internalType": "address",
          "name": "from",
          "type": "address"
        },
        {
          "indexed": true,
          "internalType": "address",
          "name": "to",
          "type": "address"
        },
        {
          "indexed": false,
          "internalType": "uint256",
          "name": "id",
          "type": "uint256"
        },
        {
          "indexed": false,
          "internalType": "uint256",
          "name": "value",
          "type": "uint256"
        }
      ],
      "name": "TransferSingle",
      "type": "event"
    },
    {
      "anonymous": false,
      "inputs": [
        {
          "indexed": false,
          "internalType": "string",
          "name": "value",
          "type": "string"
        },
        {
          "indexed": true,
          "internalType": "uint256",
          "name": "id",
          "type": "uint256"
        }
      ],
      "name": "URI",
      "type": "event"
    },
    {
      "inputs": [
        {
          "internalType": "address",
          "name": "receiver",
          "type": "address"
        },
        {
          "internalType": "uint256",
          "name": "id",
          "type": "uint256"
        }
      ],
      "name": "balanceOf",
      "outputs": [
        {
          "internalType": "uint256",
          "name": "",
          "type": "uint256"
        }
      ],
      "stateMutability": "view",
      "type": "function"
    },
    {
      "inputs": [
        {
          "internalType": "address[]",
          "name": "accounts",
          "type": "address[]"
        },
        {
          "internalType": "uint256[]",
          "name": "ids",
          "type": "uint256[]"
        }
      ],
      "name": "balanceOfBatch",
      "outputs": [
        {
          "internalType": "uint256[]",
          "name": "",
          "type": "uint256[]"
        }
      ],
      "stateMutability": "view",
      "type": "function"
    },
    {
      "inputs": [
        {
          "internalType": "address",
          "name": "couponOwner",
          "type": "address"
        },
        {
          "internalType": "uint256",
          "name": "amount",
          "type": "uint256"
        },
        {
          "internalType": "uint256",
          "name": "expiryBlockNumber",
          "type": "uint256"
        }
      ],
      "name": "burnCoupons",
      "outputs": [],
      "stateMutability": "nonpayable",
      "type": "function"
    },
    {
      "inputs": [],
      "name": "checkPoint",
      "outputs": [
        {
          "internalType": "uint256",
          "name": "",
          "type": "uint256"
        }
      ],
      "stateMutability": "view",
      "type": "function"
    },
    {
      "inputs": [],
      "name": "getTotalOutstandingDebt",
      "outputs": [
        {
          "internalType": "uint256",
          "name": "",
          "type": "uint256"
        }
      ],
      "stateMutability": "view",
      "type": "function"
    },
    {
      "inputs": [
        {
          "internalType": "address",
          "name": "account",
          "type": "address"
        },
        {
          "internalType": "address",
          "name": "operator",
          "type": "address"
        }
      ],
      "name": "isApprovedForAll",
      "outputs": [
        {
          "internalType": "bool",
          "name": "",
          "type": "bool"
        }
      ],
      "stateMutability": "view",
      "type": "function"
    },
    {
      "inputs": [
        {
          "internalType": "address",
          "name": "receiver",
          "type": "address"
        },
        {
          "internalType": "uint256",
          "name": "couponsToMint",
          "type": "uint256"
        },
        {
          "internalType": "uint256",
          "name": "expiryBlockNumber",
          "type": "uint256"
        }
      ],
      "name": "mintCoupons",
      "outputs": [],
      "stateMutability": "nonpayable",
      "type": "function"
    },
    {
      "inputs": [
        {
          "internalType": "address",
          "name": "from",
          "type": "address"
        },
        {
          "internalType": "address",
          "name": "to",
          "type": "address"
        },
        {
          "internalType": "uint256[]",
          "name": "ids",
          "type": "uint256[]"
        },
        {
          "internalType": "uint256[]",
          "name": "amounts",
          "type": "uint256[]"
        },
        {
          "internalType": "bytes",
          "name": "data",
          "type": "bytes"
        }
      ],
      "name": "safeBatchTransferFrom",
      "outputs": [],
      "stateMutability": "nonpayable",
      "type": "function"
    },
    {
      "inputs": [
        {
          "internalType": "address",
          "name": "from",
          "type": "address"
        },
        {
          "internalType": "address",
          "name": "to",
          "type": "address"
        },
        {
          "internalType": "uint256",
          "name": "id",
          "type": "uint256"
        },
        {
          "internalType": "uint256",
          "name": "amount",
          "type": "uint256"
        },
        {
          "internalType": "bytes",
          "name": "data",
          "type": "bytes"
        }
      ],
      "name": "safeTransferFrom",
      "outputs": [],
      "stateMutability": "nonpayable",
      "type": "function"
    },
    {
      "inputs": [
        {
          "internalType": "address",
          "name": "operator",
          "type": "address"
        },
        {
          "internalType": "bool",
          "name": "approved",
          "type": "bool"
        }
      ],
      "name": "setApprovalForAll",
      "outputs": [],
      "stateMutability": "nonpayable",
      "type": "function"
    },
    {
      "inputs": [
        {
          "internalType": "uint256",
          "name": "totalDebt",
          "type": "uint256"
        }
      ],
      "name": "setTotalOutstandingDebt",
      "outputs": [],
      "stateMutability": "nonpayable",
      "type": "function"
    },
    {
      "inputs": [
        {
          "internalType": "bytes4",
          "name": "interfaceId",
          "type": "bytes4"
        }
      ],
      "name": "supportsInterface",
      "outputs": [
        {
          "internalType": "bool",
          "name": "",
          "type": "bool"
        }
      ],
      "stateMutability": "view",
      "type": "function"
    },
    {
      "inputs": [],
      "name": "updateTotalDebt",
      "outputs": [],
      "stateMutability": "nonpayable",
      "type": "function"
    },
    {
      "inputs": [
        {
          "internalType": "uint256",
          "name": "",
          "type": "uint256"
        }
      ],
      "name": "uri",
      "outputs": [
        {
          "internalType": "string",
          "name": "",
          "type": "string"
        }
      ],
      "stateMutability": "view",
      "type": "function"
    }
  ],
  "bytecode": {
    "object": "0x60806040523480156200001157600080fd5b5060405162001ed238038062001ed2833981016040819052620000349162000075565b60408051808201909152600381526255524960e81b6020820152620000598162000063565b5060035562000200565b600262000071828262000134565b5050565b6000602082840312156200008857600080fd5b5051919050565b634e487b7160e01b600052604160045260246000fd5b600181811c90821680620000ba57607f821691505b602082108103620000db57634e487b7160e01b600052602260045260246000fd5b50919050565b601f8211156200012f57600081815260208120601f850160051c810160208610156200010a5750805b601f850160051c820191505b818110156200012b5782815560010162000116565b5050505b505050565b81516001600160401b038111156200015057620001506200008f565b6200016881620001618454620000a5565b84620000e1565b602080601f831160018114620001a05760008415620001875750858301515b600019600386901b1c1916600185901b1785556200012b565b600085815260208120601f198616915b82811015620001d157888601518255948401946001909101908401620001b0565b5085821015620001f05787850151600019600388901b60f8161c191681555b5050505050600190811b01905550565b611cc280620002106000396000f3fe608060405234801561001057600080fd5b50600436106100e95760003560e01c8063cff805ab1161008c578063e71fc58f11610066578063e71fc58f146101d6578063e985e9c5146101e9578063f242432a14610232578063f7ffe84a1461024557600080fd5b8063cff805ab146101b2578063db87b1ff146101bb578063de62feed146101c357600080fd5b80632eb2c2d6116100c85780632eb2c2d6146101575780634e1273f41461016c578063738f0cf11461018c578063a22cb4651461019f57600080fd5b8062fdd58e146100ee57806301ffc9a7146101145780630e89341c14610137575b600080fd5b6101016100fc366004611439565b61024e565b6040519081526020015b60405180910390f35b610127610122366004611494565b610286565b604051901515815260200161010b565b61014a6101453660046114b8565b610369565b60405161010b9190611535565b61016a6101653660046116e9565b6103fd565b005b61017f61017a366004611793565b6104cb565b60405161010b9190611899565b61016a61019a3660046118ac565b610623565b61016a6101ad3660046118df565b61073b565b61010160045481565b600354610101565b61016a6101d13660046114b8565b600355565b61016a6101e43660046118ac565b61074a565b6101276101f736600461191b565b73ffffffffffffffffffffffffffffffffffffffff918216600090815260016020908152604080832093909416825291909152205460ff1690565b61016a61024036600461194e565b6107f8565b61016a43600455565b73ffffffffffffffffffffffffffffffffffffffff821660009081526005602090815260408083208484529091529020545b92915050565b60007fffffffff0000000000000000000000000000000000000000000000000000000082167fd9b67a2600000000000000000000000000000000000000000000000000000000148061031957507fffffffff0000000000000000000000000000000000000000000000000000000082167f0e89341c00000000000000000000000000000000000000000000000000000000145b8061028057507f01ffc9a7000000000000000000000000000000000000000000000000000000007fffffffff00000000000000000000000000000000000000000000000000000000831614610280565b606060028054610378906119b3565b80601f01602080910402602001604051908101604052809291908181526020018280546103a4906119b3565b80156103f15780601f106103c6576101008083540402835291602001916103f1565b820191906000526020600020905b8154815290600101906020018083116103d457829003601f168201915b50505050509050919050565b73ffffffffffffffffffffffffffffffffffffffff8516331480610426575061042685336101f7565b6104b7576040517f08c379a000000000000000000000000000000000000000000000000000000000815260206004820152602e60248201527f455243313135353a2063616c6c6572206973206e6f7420746f6b656e206f776e60448201527f6572206f7220617070726f76656400000000000000000000000000000000000060648201526084015b60405180910390fd5b6104c485858585856108ba565b5050505050565b6060815183511461055e576040517f08c379a000000000000000000000000000000000000000000000000000000000815260206004820152602960248201527f455243313135353a206163636f756e747320616e6420696473206c656e67746860448201527f206d69736d61746368000000000000000000000000000000000000000000000060648201526084016104ae565b6000835167ffffffffffffffff81111561057a5761057a611548565b6040519080825280602002602001820160405280156105a3578160200160208202803683370190505b50905060005b845181101561061b576105ee8582815181106105c7576105c7611a06565b60200260200101518583815181106105e1576105e1611a06565b602002602001015161024e565b82828151811061060057610600611a06565b602090810291909101015261061481611a64565b90506105a9565b509392505050565b73ffffffffffffffffffffffffffffffffffffffff83166000908152600560209081526040808320848452909152902054828110156106be576040517f08c379a000000000000000000000000000000000000000000000000000000000815260206004820152601460248201527f496e73756666696369656e742062616c616e636500000000000000000000000060448201526064016104ae565b6106c88382611a9c565b73ffffffffffffffffffffffffffffffffffffffff8516600081815260056020908152604080832087845282529182902093909355805186815292830185905290917fd777e17079725e1f6762b576356700067dda85b60e96a043f6caaa1e411e0b3d910160405180910390a250505050565b610746338383610bf4565b5050565b73ffffffffffffffffffffffffffffffffffffffff83166000908152600560209081526040808320848452909152902054610786908390611aaf565b73ffffffffffffffffffffffffffffffffffffffff8416600081815260056020908152604080832086845282529182902093909355805185815292830184905290917fee6a2b6b9d52e9b905b3b53a76ff201a4762f6d3c40a5a976a7bfbb7cce2499f910160405180910390a2505050565b73ffffffffffffffffffffffffffffffffffffffff8516331480610821575061082185336101f7565b6108ad576040517f08c379a000000000000000000000000000000000000000000000000000000000815260206004820152602e60248201527f455243313135353a2063616c6c6572206973206e6f7420746f6b656e206f776e60448201527f6572206f7220617070726f76656400000000000000000000000000000000000060648201526084016104ae565b6104c48585858585610d47565b815183511461094b576040517f08c379a000000000000000000000000000000000000000000000000000000000815260206004820152602860248201527f455243313135353a2069647320616e6420616d6f756e7473206c656e6774682060448201527f6d69736d6174636800000000000000000000000000000000000000000000000060648201526084016104ae565b73ffffffffffffffffffffffffffffffffffffffff84166109ee576040517f08c379a000000000000000000000000000000000000000000000000000000000815260206004820152602560248201527f455243313135353a207472616e7366657220746f20746865207a65726f20616460448201527f647265737300000000000000000000000000000000000000000000000000000060648201526084016104ae565b3360005b8451811015610b5f576000858281518110610a0f57610a0f611a06565b602002602001015190506000858381518110610a2d57610a2d611a06565b6020908102919091018101516000848152808352604080822073ffffffffffffffffffffffffffffffffffffffff8e168352909352919091205490915081811015610afa576040517f08c379a000000000000000000000000000000000000000000000000000000000815260206004820152602a60248201527f455243313135353a20696e73756666696369656e742062616c616e636520666f60448201527f72207472616e736665720000000000000000000000000000000000000000000060648201526084016104ae565b60008381526020818152604080832073ffffffffffffffffffffffffffffffffffffffff8e8116855292528083208585039055908b16825281208054849290610b44908490611aaf565b9250508190555050505080610b5890611a64565b90506109f2565b508473ffffffffffffffffffffffffffffffffffffffff168673ffffffffffffffffffffffffffffffffffffffff168273ffffffffffffffffffffffffffffffffffffffff167f4a39dc06d4c0dbc64b70af90fd698a233a518aa5d07e595d983b8c0526c8f7fb8787604051610bd6929190611ac2565b60405180910390a4610bec818787878787610f85565b505050505050565b8173ffffffffffffffffffffffffffffffffffffffff168373ffffffffffffffffffffffffffffffffffffffff1603610caf576040517f08c379a000000000000000000000000000000000000000000000000000000000815260206004820152602960248201527f455243313135353a2073657474696e6720617070726f76616c2073746174757360448201527f20666f722073656c66000000000000000000000000000000000000000000000060648201526084016104ae565b73ffffffffffffffffffffffffffffffffffffffff83811660008181526001602090815260408083209487168084529482529182902080547fffffffffffffffffffffffffffffffffffffffffffffffffffffffffffffff001686151590811790915591519182527f17307eab39ab6107e8899845ad3d59bd9653f200f220920489ca2b5937696c31910160405180910390a3505050565b73ffffffffffffffffffffffffffffffffffffffff8416610dea576040517f08c379a000000000000000000000000000000000000000000000000000000000815260206004820152602560248201527f455243313135353a207472616e7366657220746f20746865207a65726f20616460448201527f647265737300000000000000000000000000000000000000000000000000000060648201526084016104ae565b336000610df685611218565b90506000610e0385611218565b905060008681526020818152604080832073ffffffffffffffffffffffffffffffffffffffff8c16845290915290205485811015610ec3576040517f08c379a000000000000000000000000000000000000000000000000000000000815260206004820152602a60248201527f455243313135353a20696e73756666696369656e742062616c616e636520666f60448201527f72207472616e736665720000000000000000000000000000000000000000000060648201526084016104ae565b60008781526020818152604080832073ffffffffffffffffffffffffffffffffffffffff8d8116855292528083208985039055908a16825281208054889290610f0d908490611aaf565b9091555050604080518881526020810188905273ffffffffffffffffffffffffffffffffffffffff808b16928c821692918816917fc3d58168c5ae7397731d063d5bbf3d657854427343f4c083240f7aacaa2d0f62910160405180910390a4610f7a848a8a8a8a8a611263565b505050505050505050565b73ffffffffffffffffffffffffffffffffffffffff84163b15610bec576040517fbc197c8100000000000000000000000000000000000000000000000000000000815273ffffffffffffffffffffffffffffffffffffffff85169063bc197c8190610ffc9089908990889088908890600401611af0565b6020604051808303816000875af1925050508015611055575060408051601f3d9081017fffffffffffffffffffffffffffffffffffffffffffffffffffffffffffffffe016820190925261105291810190611b5b565b60015b61113e57611061611b78565b806308c379a0036110b45750611075611b94565b8061108057506110b6565b806040517f08c379a00000000000000000000000000000000000000000000000000000000081526004016104ae9190611535565b505b6040517f08c379a000000000000000000000000000000000000000000000000000000000815260206004820152603460248201527f455243313135353a207472616e7366657220746f206e6f6e2d4552433131353560448201527f526563656976657220696d706c656d656e74657200000000000000000000000060648201526084016104ae565b7fffffffff0000000000000000000000000000000000000000000000000000000081167fbc197c81000000000000000000000000000000000000000000000000000000001461120f576040517f08c379a000000000000000000000000000000000000000000000000000000000815260206004820152602860248201527f455243313135353a204552433131353552656365697665722072656a6563746560448201527f6420746f6b656e7300000000000000000000000000000000000000000000000060648201526084016104ae565b50505050505050565b6040805160018082528183019092526060916000919060208083019080368337019050509050828160008151811061125257611252611a06565b602090810291909101015292915050565b73ffffffffffffffffffffffffffffffffffffffff84163b15610bec576040517ff23a6e6100000000000000000000000000000000000000000000000000000000815273ffffffffffffffffffffffffffffffffffffffff85169063f23a6e61906112da9089908990889088908890600401611c3c565b6020604051808303816000875af1925050508015611333575060408051601f3d9081017fffffffffffffffffffffffffffffffffffffffffffffffffffffffffffffffe016820190925261133091810190611b5b565b60015b61133f57611061611b78565b7fffffffff0000000000000000000000000000000000000000000000000000000081167ff23a6e61000000000000000000000000000000000000000000000000000000001461120f576040517f08c379a000000000000000000000000000000000000000000000000000000000815260206004820152602860248201527f455243313135353a204552433131353552656365697665722072656a6563746560448201527f6420746f6b656e7300000000000000000000000000000000000000000000000060648201526084016104ae565b803573ffffffffffffffffffffffffffffffffffffffff8116811461143457600080fd5b919050565b6000806040838503121561144c57600080fd5b61145583611410565b946020939093013593505050565b7fffffffff000000000000000000000000000000000000000000000000000000008116811461149157600080fd5b50565b6000602082840312156114a657600080fd5b81356114b181611463565b9392505050565b6000602082840312156114ca57600080fd5b5035919050565b6000815180845260005b818110156114f7576020818501810151868301820152016114db565b5060006020828601015260207fffffffffffffffffffffffffffffffffffffffffffffffffffffffffffffffe0601f83011685010191505092915050565b6020815260006114b160208301846114d1565b7f4e487b7100000000000000000000000000000000000000000000000000000000600052604160045260246000fd5b7fffffffffffffffffffffffffffffffffffffffffffffffffffffffffffffffe0601f830116810181811067ffffffffffffffff821117156115bb576115bb611548565b6040525050565b600067ffffffffffffffff8211156115dc576115dc611548565b5060051b60200190565b600082601f8301126115f757600080fd5b81356020611604826115c2565b6040516116118282611577565b83815260059390931b850182019282810191508684111561163157600080fd5b8286015b8481101561164c5780358352918301918301611635565b509695505050505050565b600082601f83011261166857600080fd5b813567ffffffffffffffff81111561168257611682611548565b6040516116b760207fffffffffffffffffffffffffffffffffffffffffffffffffffffffffffffffe0601f8501160182611577565b8181528460208386010111156116cc57600080fd5b816020850160208301376000918101602001919091529392505050565b600080600080600060a0868803121561170157600080fd5b61170a86611410565b945061171860208701611410565b9350604086013567ffffffffffffffff8082111561173557600080fd5b61174189838a016115e6565b9450606088013591508082111561175757600080fd5b61176389838a016115e6565b9350608088013591508082111561177957600080fd5b5061178688828901611657565b9150509295509295909350565b600080604083850312156117a657600080fd5b823567ffffffffffffffff808211156117be57600080fd5b818501915085601f8301126117d257600080fd5b813560206117df826115c2565b6040516117ec8282611577565b83815260059390931b850182019282810191508984111561180c57600080fd5b948201945b838610156118315761182286611410565b82529482019490820190611811565b9650508601359250508082111561184757600080fd5b50611854858286016115e6565b9150509250929050565b600081518084526020808501945080840160005b8381101561188e57815187529582019590820190600101611872565b509495945050505050565b6020815260006114b1602083018461185e565b6000806000606084860312156118c157600080fd5b6118ca84611410565b95602085013595506040909401359392505050565b600080604083850312156118f257600080fd5b6118fb83611410565b91506020830135801515811461191057600080fd5b809150509250929050565b6000806040838503121561192e57600080fd5b61193783611410565b915061194560208401611410565b90509250929050565b600080600080600060a0868803121561196657600080fd5b61196f86611410565b945061197d60208701611410565b93506040860135925060608601359150608086013567ffffffffffffffff8111156119a757600080fd5b61178688828901611657565b600181811c908216806119c757607f821691505b602082108103611a00577f4e487b7100000000000000000000000000000000000000000000000000000000600052602260045260246000fd5b50919050565b7f4e487b7100000000000000000000000000000000000000000000000000000000600052603260045260246000fd5b7f4e487b7100000000000000000000000000000000000000000000000000000000600052601160045260246000fd5b60007fffffffffffffffffffffffffffffffffffffffffffffffffffffffffffffffff8203611a9557611a95611a35565b5060010190565b8181038181111561028057610280611a35565b8082018082111561028057610280611a35565b604081526000611ad5604083018561185e565b8281036020840152611ae7818561185e565b95945050505050565b600073ffffffffffffffffffffffffffffffffffffffff808816835280871660208401525060a06040830152611b2960a083018661185e565b8281036060840152611b3b818661185e565b90508281036080840152611b4f81856114d1565b98975050505050505050565b600060208284031215611b6d57600080fd5b81516114b181611463565b600060033d1115611b915760046000803e5060005160e01c5b90565b600060443d1015611ba25790565b6040517ffffffffffffffffffffffffffffffffffffffffffffffffffffffffffffffffc803d016004833e81513d67ffffffffffffffff8160248401118184111715611bf057505050505090565b8285019150815181811115611c085750505050505090565b843d8701016020828501011115611c225750505050505090565b611c3160208286010187611577565b509095945050505050565b600073ffffffffffffffffffffffffffffffffffffffff808816835280871660208401525084604083015283606083015260a06080830152611c8160a08301846114d1565b97965050505050505056fea2646970667358221220ef6f83f1ffb66b892c265308383ef7ade5f3cfb5b8c970d5d2e505b80ce5008064736f6c63430008100033",
    "linkReferences": {}
  },
  "methodIdentifiers": {
    "balanceOf(address,uint256)": "00fdd58e",
    "balanceOfBatch(address[],uint256[])": "4e1273f4",
    "burnCoupons(address,uint256,uint256)": "738f0cf1",
    "checkPoint()": "cff805ab",
    "getTotalOutstandingDebt()": "db87b1ff",
    "isApprovedForAll(address,address)": "e985e9c5",
    "mintCoupons(address,uint256,uint256)": "e71fc58f",
    "safeBatchTransferFrom(address,address,uint256[],uint256[],bytes)": "2eb2c2d6",
    "safeTransferFrom(address,address,uint256,uint256,bytes)": "f242432a",
    "setApprovalForAll(address,bool)": "a22cb465",
    "setTotalOutstandingDebt(uint256)": "de62feed",
    "supportsInterface(bytes4)": "01ffc9a7",
    "updateTotalDebt()": "f7ffe84a",
    "uri(uint256)": "0e89341c"
  },
  "id": 97
}