{
  "abi": [
    {
      "inputs": [
        {
          "internalType": "contract ERC20",
          "name": "_underlying",
          "type": "address"
        },
        {
          "internalType": "string",
          "name": "_name",
          "type": "string"
        },
        {
          "internalType": "string",
          "name": "_symbol",
          "type": "string"
        }
      ],
      "stateMutability": "nonpayable",
      "type": "constructor"
    },
    {
      "anonymous": false,
      "inputs": [
        {
          "indexed": true,
          "internalType": "address",
          "name": "owner",
          "type": "address"
        },
        {
          "indexed": true,
          "internalType": "address",
          "name": "spender",
          "type": "address"
        },
        {
          "indexed": false,
          "internalType": "uint256",
          "name": "value",
          "type": "uint256"
        }
      ],
      "name": "Approval",
      "type": "event"
    },
    {
      "anonymous": false,
      "inputs": [
        {
          "indexed": true,
          "internalType": "address",
          "name": "sender",
          "type": "address"
        },
        {
          "indexed": true,
          "internalType": "address",
          "name": "owner",
          "type": "address"
        },
        {
          "indexed": false,
          "internalType": "uint256",
          "name": "assets",
          "type": "uint256"
        },
        {
          "indexed": false,
          "internalType": "uint256",
          "name": "shares",
          "type": "uint256"
        }
      ],
      "name": "Deposit",
      "type": "event"
    },
    {
      "anonymous": false,
      "inputs": [
        {
          "indexed": true,
          "internalType": "address",
          "name": "from",
          "type": "address"
        },
        {
          "indexed": true,
          "internalType": "address",
          "name": "to",
          "type": "address"
        },
        {
          "indexed": false,
          "internalType": "uint256",
          "name": "value",
          "type": "uint256"
        }
      ],
      "name": "Transfer",
      "type": "event"
    },
    {
      "anonymous": false,
      "inputs": [
        {
          "indexed": true,
          "internalType": "address",
          "name": "sender",
          "type": "address"
        },
        {
          "indexed": true,
          "internalType": "address",
          "name": "receiver",
          "type": "address"
        },
        {
          "indexed": true,
          "internalType": "address",
          "name": "owner",
          "type": "address"
        },
        {
          "indexed": false,
          "internalType": "uint256",
          "name": "assets",
          "type": "uint256"
        },
        {
          "indexed": false,
          "internalType": "uint256",
          "name": "shares",
          "type": "uint256"
        }
      ],
      "name": "Withdraw",
      "type": "event"
    },
    {
      "inputs": [],
      "name": "afterDepositHookCalledCounter",
      "outputs": [
        {
          "internalType": "uint256",
          "name": "",
          "type": "uint256"
        }
      ],
      "stateMutability": "view",
      "type": "function"
    },
    {
      "inputs": [
        {
          "internalType": "address",
          "name": "owner",
          "type": "address"
        },
        {
          "internalType": "address",
          "name": "spender",
          "type": "address"
        }
      ],
      "name": "allowance",
      "outputs": [
        {
          "internalType": "uint256",
          "name": "",
          "type": "uint256"
        }
      ],
      "stateMutability": "view",
      "type": "function"
    },
    {
      "inputs": [
        {
          "internalType": "address",
          "name": "spender",
          "type": "address"
        },
        {
          "internalType": "uint256",
          "name": "amount",
          "type": "uint256"
        }
      ],
      "name": "approve",
      "outputs": [
        {
          "internalType": "bool",
          "name": "",
          "type": "bool"
        }
      ],
      "stateMutability": "nonpayable",
      "type": "function"
    },
    {
      "inputs": [],
      "name": "asset",
      "outputs": [
        {
          "internalType": "address",
          "name": "",
          "type": "address"
        }
      ],
      "stateMutability": "view",
      "type": "function"
    },
    {
      "inputs": [
        {
          "internalType": "address",
          "name": "account",
          "type": "address"
        }
      ],
      "name": "balanceOf",
      "outputs": [
        {
          "internalType": "uint256",
          "name": "",
          "type": "uint256"
        }
      ],
      "stateMutability": "view",
      "type": "function"
    },
    {
      "inputs": [],
      "name": "beforeWithdrawHookCalledCounter",
      "outputs": [
        {
          "internalType": "uint256",
          "name": "",
          "type": "uint256"
        }
      ],
      "stateMutability": "view",
      "type": "function"
    },
    {
      "inputs": [
        {
          "internalType": "uint256",
          "name": "shares",
          "type": "uint256"
        }
      ],
      "name": "convertToAssets",
      "outputs": [
        {
          "internalType": "uint256",
          "name": "assets",
          "type": "uint256"
        }
      ],
      "stateMutability": "view",
      "type": "function"
    },
    {
      "inputs": [
        {
          "internalType": "uint256",
          "name": "assets",
          "type": "uint256"
        }
      ],
      "name": "convertToShares",
      "outputs": [
        {
          "internalType": "uint256",
          "name": "shares",
          "type": "uint256"
        }
      ],
      "stateMutability": "view",
      "type": "function"
    },
    {
      "inputs": [],
      "name": "decimals",
      "outputs": [
        {
          "internalType": "uint8",
          "name": "",
          "type": "uint8"
        }
      ],
      "stateMutability": "view",
      "type": "function"
    },
    {
      "inputs": [
        {
          "internalType": "address",
          "name": "spender",
          "type": "address"
        },
        {
          "internalType": "uint256",
          "name": "subtractedValue",
          "type": "uint256"
        }
      ],
      "name": "decreaseAllowance",
      "outputs": [
        {
          "internalType": "bool",
          "name": "",
          "type": "bool"
        }
      ],
      "stateMutability": "nonpayable",
      "type": "function"
    },
    {
      "inputs": [
        {
          "internalType": "uint256",
          "name": "assets",
          "type": "uint256"
        },
        {
          "internalType": "address",
          "name": "receiver",
          "type": "address"
        }
      ],
      "name": "deposit",
      "outputs": [
        {
          "internalType": "uint256",
          "name": "shares",
          "type": "uint256"
        }
      ],
      "stateMutability": "nonpayable",
      "type": "function"
    },
    {
      "inputs": [
        {
          "internalType": "address",
          "name": "spender",
          "type": "address"
        },
        {
          "internalType": "uint256",
          "name": "addedValue",
          "type": "uint256"
        }
      ],
      "name": "increaseAllowance",
      "outputs": [
        {
          "internalType": "bool",
          "name": "",
          "type": "bool"
        }
      ],
      "stateMutability": "nonpayable",
      "type": "function"
    },
    {
      "inputs": [
        {
          "internalType": "address",
          "name": "",
          "type": "address"
        }
      ],
      "name": "maxDeposit",
      "outputs": [
        {
          "internalType": "uint256",
          "name": "",
          "type": "uint256"
        }
      ],
      "stateMutability": "view",
      "type": "function"
    },
    {
      "inputs": [
        {
          "internalType": "address",
          "name": "",
          "type": "address"
        }
      ],
      "name": "maxMint",
      "outputs": [
        {
          "internalType": "uint256",
          "name": "",
          "type": "uint256"
        }
      ],
      "stateMutability": "view",
      "type": "function"
    },
    {
      "inputs": [
        {
          "internalType": "address",
          "name": "owner",
          "type": "address"
        }
      ],
      "name": "maxRedeem",
      "outputs": [
        {
          "internalType": "uint256",
          "name": "",
          "type": "uint256"
        }
      ],
      "stateMutability": "view",
      "type": "function"
    },
    {
      "inputs": [
        {
          "internalType": "address",
          "name": "owner",
          "type": "address"
        }
      ],
      "name": "maxWithdraw",
      "outputs": [
        {
          "internalType": "uint256",
          "name": "",
          "type": "uint256"
        }
      ],
      "stateMutability": "view",
      "type": "function"
    },
    {
      "inputs": [
        {
          "internalType": "uint256",
          "name": "shares",
          "type": "uint256"
        },
        {
          "internalType": "address",
          "name": "receiver",
          "type": "address"
        }
      ],
      "name": "mint",
      "outputs": [
        {
          "internalType": "uint256",
          "name": "assets",
          "type": "uint256"
        }
      ],
      "stateMutability": "nonpayable",
      "type": "function"
    },
    {
      "inputs": [],
      "name": "name",
      "outputs": [
        {
          "internalType": "string",
          "name": "",
          "type": "string"
        }
      ],
      "stateMutability": "view",
      "type": "function"
    },
    {
      "inputs": [
        {
          "internalType": "uint256",
          "name": "assets",
          "type": "uint256"
        }
      ],
      "name": "previewDeposit",
      "outputs": [
        {
          "internalType": "uint256",
          "name": "",
          "type": "uint256"
        }
      ],
      "stateMutability": "view",
      "type": "function"
    },
    {
      "inputs": [
        {
          "internalType": "uint256",
          "name": "shares",
          "type": "uint256"
        }
      ],
      "name": "previewMint",
      "outputs": [
        {
          "internalType": "uint256",
          "name": "",
          "type": "uint256"
        }
      ],
      "stateMutability": "view",
      "type": "function"
    },
    {
      "inputs": [
        {
          "internalType": "uint256",
          "name": "shares",
          "type": "uint256"
        }
      ],
      "name": "previewRedeem",
      "outputs": [
        {
          "internalType": "uint256",
          "name": "",
          "type": "uint256"
        }
      ],
      "stateMutability": "view",
      "type": "function"
    },
    {
      "inputs": [
        {
          "internalType": "uint256",
          "name": "assets",
          "type": "uint256"
        }
      ],
      "name": "previewWithdraw",
      "outputs": [
        {
          "internalType": "uint256",
          "name": "",
          "type": "uint256"
        }
      ],
      "stateMutability": "view",
      "type": "function"
    },
    {
      "inputs": [
        {
          "internalType": "uint256",
          "name": "shares",
          "type": "uint256"
        },
        {
          "internalType": "address",
          "name": "receiver",
          "type": "address"
        },
        {
          "internalType": "address",
          "name": "owner",
          "type": "address"
        }
      ],
      "name": "redeem",
      "outputs": [
        {
          "internalType": "uint256",
          "name": "assets",
          "type": "uint256"
        }
      ],
      "stateMutability": "nonpayable",
      "type": "function"
    },
    {
      "inputs": [],
      "name": "symbol",
      "outputs": [
        {
          "internalType": "string",
          "name": "",
          "type": "string"
        }
      ],
      "stateMutability": "view",
      "type": "function"
    },
    {
      "inputs": [],
      "name": "totalAssets",
      "outputs": [
        {
          "internalType": "uint256",
          "name": "",
          "type": "uint256"
        }
      ],
      "stateMutability": "view",
      "type": "function"
    },
    {
      "inputs": [],
      "name": "totalSupply",
      "outputs": [
        {
          "internalType": "uint256",
          "name": "",
          "type": "uint256"
        }
      ],
      "stateMutability": "view",
      "type": "function"
    },
    {
      "inputs": [
        {
          "internalType": "address",
          "name": "to",
          "type": "address"
        },
        {
          "internalType": "uint256",
          "name": "amount",
          "type": "uint256"
        }
      ],
      "name": "transfer",
      "outputs": [
        {
          "internalType": "bool",
          "name": "",
          "type": "bool"
        }
      ],
      "stateMutability": "nonpayable",
      "type": "function"
    },
    {
      "inputs": [
        {
          "internalType": "address",
          "name": "from",
          "type": "address"
        },
        {
          "internalType": "address",
          "name": "to",
          "type": "address"
        },
        {
          "internalType": "uint256",
          "name": "amount",
          "type": "uint256"
        }
      ],
      "name": "transferFrom",
      "outputs": [
        {
          "internalType": "bool",
          "name": "",
          "type": "bool"
        }
      ],
      "stateMutability": "nonpayable",
      "type": "function"
    },
    {
      "inputs": [
        {
          "internalType": "uint256",
          "name": "assets",
          "type": "uint256"
        },
        {
          "internalType": "address",
          "name": "receiver",
          "type": "address"
        },
        {
          "internalType": "address",
          "name": "owner",
          "type": "address"
        }
      ],
      "name": "withdraw",
      "outputs": [
        {
          "internalType": "uint256",
          "name": "shares",
          "type": "uint256"
        }
      ],
      "stateMutability": "nonpayable",
      "type": "function"
    }
  ],
  "bytecode": {
    "object": "0x60c0604052600060055560006006553480156200001b57600080fd5b5060405162002100380380620021008339810160408190526200003e91620001cd565b82828260036200004f8382620002e6565b5060046200005e8282620002e6565b5050506000816001600160a01b031663313ce5676040518163ffffffff1660e01b8152600401602060405180830381865afa925050508015620000c0575060408051601f3d908101601f19168201909252620000bd91810190620003b2565b60015b620000e257620000da6200010360201b62000a7d1760201c565b9050620000e5565b90505b6001600160a01b0390911660805260ff1660a05250620003de915050565b601290565b634e487b7160e01b600052604160045260246000fd5b600082601f8301126200013057600080fd5b81516001600160401b03808211156200014d576200014d62000108565b604051601f8301601f19908116603f0116810190828211818310171562000178576200017862000108565b816040528381526020925086838588010111156200019557600080fd5b600091505b83821015620001b957858201830151818301840152908201906200019a565b600093810190920192909252949350505050565b600080600060608486031215620001e357600080fd5b83516001600160a01b0381168114620001fb57600080fd5b60208501519093506001600160401b03808211156200021957600080fd5b62000227878388016200011e565b935060408601519150808211156200023e57600080fd5b506200024d868287016200011e565b9150509250925092565b600181811c908216806200026c57607f821691505b6020821081036200028d57634e487b7160e01b600052602260045260246000fd5b50919050565b601f821115620002e157600081815260208120601f850160051c81016020861015620002bc5750805b601f850160051c820191505b81811015620002dd57828155600101620002c8565b5050505b505050565b81516001600160401b0381111562000302576200030262000108565b6200031a8162000313845462000257565b8462000293565b602080601f831160018114620003525760008415620003395750858301515b600019600386901b1c1916600185901b178555620002dd565b600085815260208120601f198616915b82811015620003835788860151825594840194600190910190840162000362565b5085821015620003a25787850151600019600388901b60f8161c191681555b5050505050600190811b01905550565b600060208284031215620003c557600080fd5b815160ff81168114620003d757600080fd5b9392505050565b60805160a051611ce762000419600039600061026f0152600081816102b3015281816104bb01528181610fff015261111c0152611ce76000f3fe608060405234801561001057600080fd5b50600436106101cf5760003560e01c806394bf804d11610104578063bc368a8a116100a2578063d905777e11610071578063d905777e14610428578063dd62ed3e1461043b578063ef8b30f714610402578063fc407ae71461048157600080fd5b8063bc368a8a146103c6578063c63d75b6146103cf578063c6e6f59214610402578063ce96cb771461041557600080fd5b8063a9059cbb116100de578063a9059cbb1461037a578063b3d7f6b91461038d578063b460af94146103a0578063ba087652146103b357600080fd5b806394bf804d1461034c57806395d89b411461035f578063a457c2d71461036757600080fd5b8063313ce56711610171578063402d267d1161014b578063402d267d146102f05780634cdad506146102045780636e553f651461030357806370a082311461031657600080fd5b8063313ce5671461026857806338d52e0f1461029957806339509351146102dd57600080fd5b8063095ea7b3116101ad578063095ea7b3146102175780630a28a4771461023a57806318160ddd1461024d57806323b872dd1461025557600080fd5b806301e1d114146101d457806306fdde03146101ef57806307a2d13a14610204575b600080fd5b6101dc61048a565b6040519081526020015b60405180910390f35b6101f7610540565b6040516101e69190611989565b6101dc6102123660046119da565b6105d2565b61022a610225366004611a1c565b6105e5565b60405190151581526020016101e6565b6101dc6102483660046119da565b6105fd565b6002546101dc565b61022a610263366004611a46565b61060a565b60405160ff7f00000000000000000000000000000000000000000000000000000000000000001681526020016101e6565b60405173ffffffffffffffffffffffffffffffffffffffff7f00000000000000000000000000000000000000000000000000000000000000001681526020016101e6565b61022a6102eb366004611a1c565b610630565b6101dc6102fe366004611a82565b61067c565b6101dc610311366004611a9d565b6106b8565b6101dc610324366004611a82565b73ffffffffffffffffffffffffffffffffffffffff1660009081526020819052604090205490565b6101dc61035a366004611a9d565b6107bc565b6101f76107e0565b61022a610375366004611a1c565b6107ef565b61022a610388366004611a1c565b6108cb565b6101dc61039b3660046119da565b6108d9565b6101dc6103ae366004611ac9565b6108e6565b6101dc6103c1366004611ac9565b610986565b6101dc60055481565b6101dc6103dd366004611a82565b507fffffffffffffffffffffffffffffffffffffffffffffffffffffffffffffffff90565b6101dc6104103660046119da565b610a14565b6101dc610423366004611a82565b610a21565b6101dc610436366004611a82565b610a52565b6101dc610449366004611b05565b73ffffffffffffffffffffffffffffffffffffffff918216600090815260016020908152604080832093909416825291909152205490565b6101dc60065481565b6040517f70a082310000000000000000000000000000000000000000000000000000000081523060048201526000907f000000000000000000000000000000000000000000000000000000000000000073ffffffffffffffffffffffffffffffffffffffff16906370a0823190602401602060405180830381865afa158015610517573d6000803e3d6000fd5b505050506040513d601f19601f8201168201806040525081019061053b9190611b2f565b905090565b60606003805461054f90611b48565b80601f016020809104026020016040519081016040528092919081815260200182805461057b90611b48565b80156105c85780601f1061059d576101008083540402835291602001916105c8565b820191906000526020600020905b8154815290600101906020018083116105ab57829003601f168201915b5050505050905090565b60006105df826000610a82565b92915050565b6000336105f3818585610ab5565b5060019392505050565b60006105df826001610c68565b600033610618858285610c9a565b610623858585610d71565b60019150505b9392505050565b33600081815260016020908152604080832073ffffffffffffffffffffffffffffffffffffffff871684529091528120549091906105f39082908690610677908790611bca565b610ab5565b6000610686610fe0565b6106915760006105df565b7fffffffffffffffffffffffffffffffffffffffffffffffffffffffffffffffff92915050565b60006106c38261067c565b831115610731576040517f08c379a000000000000000000000000000000000000000000000000000000000815260206004820152601e60248201527f455243343632363a206465706f736974206d6f7265207468616e206d6178000060448201526064015b60405180910390fd5b61073a83610a14565b9050806000036107a6576040517f08c379a000000000000000000000000000000000000000000000000000000000815260206004820152600b60248201527f5a45524f5f5348415245530000000000000000000000000000000000000000006044820152606401610728565b6107b233838584610ffa565b6105df83826110a6565b6000806107c8846108d9565b90506107d633848387610ffa565b61062981856110a6565b60606004805461054f90611b48565b33600081815260016020908152604080832073ffffffffffffffffffffffffffffffffffffffff87168452909152812054909190838110156108b3576040517f08c379a000000000000000000000000000000000000000000000000000000000815260206004820152602560248201527f45524332303a2064656372656173656420616c6c6f77616e63652062656c6f7760448201527f207a65726f0000000000000000000000000000000000000000000000000000006064820152608401610728565b6108c08286868403610ab5565b506001949350505050565b6000336105f3818585610d71565b60006105df826001610a82565b60006108f182610a21565b84111561095a576040517f08c379a000000000000000000000000000000000000000000000000000000000815260206004820152601f60248201527f455243343632363a207769746864726177206d6f7265207468616e206d6178006044820152606401610728565b6000610965856105fd565b905061097185826110bf565b61097e33858588856110cf565b949350505050565b6000610991846105d2565b9050806000036109fd576040517f08c379a000000000000000000000000000000000000000000000000000000000815260206004820152600b60248201527f5a45524f5f4153534554530000000000000000000000000000000000000000006044820152606401610728565b610a0781856110bf565b61062933848484886110cf565b60006105df826000610c68565b73ffffffffffffffffffffffffffffffffffffffff81166000908152602081905260408120546105df906000610a82565b73ffffffffffffffffffffffffffffffffffffffff81166000908152602081905260408120546105df565b601290565b600080610a8e60025490565b90508015610aaf57610aaa610aa161048a565b859083866111d0565b61097e565b8361097e565b73ffffffffffffffffffffffffffffffffffffffff8316610b57576040517f08c379a0000000000000000000000000000000000000000000000000000000008152602060048201526024808201527f45524332303a20617070726f76652066726f6d20746865207a65726f2061646460448201527f72657373000000000000000000000000000000000000000000000000000000006064820152608401610728565b73ffffffffffffffffffffffffffffffffffffffff8216610bfa576040517f08c379a000000000000000000000000000000000000000000000000000000000815260206004820152602260248201527f45524332303a20617070726f766520746f20746865207a65726f20616464726560448201527f73730000000000000000000000000000000000000000000000000000000000006064820152608401610728565b73ffffffffffffffffffffffffffffffffffffffff83811660008181526001602090815260408083209487168084529482529182902085905590518481527f8c5be1e5ebec7d5bd14f71427d1e84f3dd0314c0f7b2291e5b200ac8c7c3b925910160405180910390a3505050565b600080610c7460025490565b9050831580610c81575080155b610aaf57610aaa81610c9161048a565b869190866111d0565b73ffffffffffffffffffffffffffffffffffffffff8381166000908152600160209081526040808320938616835292905220547fffffffffffffffffffffffffffffffffffffffffffffffffffffffffffffffff8114610d6b5781811015610d5e576040517f08c379a000000000000000000000000000000000000000000000000000000000815260206004820152601d60248201527f45524332303a20696e73756666696369656e7420616c6c6f77616e63650000006044820152606401610728565b610d6b8484848403610ab5565b50505050565b73ffffffffffffffffffffffffffffffffffffffff8316610e14576040517f08c379a000000000000000000000000000000000000000000000000000000000815260206004820152602560248201527f45524332303a207472616e736665722066726f6d20746865207a65726f20616460448201527f64726573730000000000000000000000000000000000000000000000000000006064820152608401610728565b73ffffffffffffffffffffffffffffffffffffffff8216610eb7576040517f08c379a000000000000000000000000000000000000000000000000000000000815260206004820152602360248201527f45524332303a207472616e7366657220746f20746865207a65726f206164647260448201527f65737300000000000000000000000000000000000000000000000000000000006064820152608401610728565b73ffffffffffffffffffffffffffffffffffffffff831660009081526020819052604090205481811015610f6d576040517f08c379a000000000000000000000000000000000000000000000000000000000815260206004820152602660248201527f45524332303a207472616e7366657220616d6f756e742065786365656473206260448201527f616c616e636500000000000000000000000000000000000000000000000000006064820152608401610728565b73ffffffffffffffffffffffffffffffffffffffff848116600081815260208181526040808320878703905593871680835291849020805487019055925185815290927fddf252ad1be2c89b69c2b068fc378daa952ba7f163c4a11628f55a4df523b3ef910160405180910390a3610d6b565b600080610feb61048a565b118061053b5750506002541590565b6110267f0000000000000000000000000000000000000000000000000000000000000000853085611232565b611030838261130e565b8273ffffffffffffffffffffffffffffffffffffffff168473ffffffffffffffffffffffffffffffffffffffff167fdcbc1c05240f31ff3ad067ef1ee35ce4997762752e3a095284754544f4c709d78484604051611098929190918252602082015260400190565b60405180910390a350505050565b600680549060006110b683611bdd565b91905055505050565b600580549060006110b683611bdd565b8273ffffffffffffffffffffffffffffffffffffffff168573ffffffffffffffffffffffffffffffffffffffff161461110d5761110d838683610c9a565b6111178382611401565b6111427f000000000000000000000000000000000000000000000000000000000000000085846115c5565b8273ffffffffffffffffffffffffffffffffffffffff168473ffffffffffffffffffffffffffffffffffffffff168673ffffffffffffffffffffffffffffffffffffffff167ffbde797d201c681b91056529119e0b02407c7bb96a4a2c75c01fc9667232c8db85856040516111c1929190918252602082015260400190565b60405180910390a45050505050565b6000806111de86868661161b565b905060018360028111156111f4576111f4611c15565b14801561121157506000848061120c5761120c611c44565b868809115b1561122457611221600182611bca565b90505b95945050505050565b505050565b60405173ffffffffffffffffffffffffffffffffffffffff80851660248301528316604482015260648101829052610d6b9085907f23b872dd00000000000000000000000000000000000000000000000000000000906084015b604080517fffffffffffffffffffffffffffffffffffffffffffffffffffffffffffffffe08184030181529190526020810180517bffffffffffffffffffffffffffffffffffffffffffffffffffffffff167fffffffff00000000000000000000000000000000000000000000000000000000909316929092179091526116e8565b73ffffffffffffffffffffffffffffffffffffffff821661138b576040517f08c379a000000000000000000000000000000000000000000000000000000000815260206004820152601f60248201527f45524332303a206d696e7420746f20746865207a65726f2061646472657373006044820152606401610728565b806002600082825461139d9190611bca565b909155505073ffffffffffffffffffffffffffffffffffffffff8216600081815260208181526040808320805486019055518481527fddf252ad1be2c89b69c2b068fc378daa952ba7f163c4a11628f55a4df523b3ef910160405180910390a35050565b73ffffffffffffffffffffffffffffffffffffffff82166114a4576040517f08c379a000000000000000000000000000000000000000000000000000000000815260206004820152602160248201527f45524332303a206275726e2066726f6d20746865207a65726f2061646472657360448201527f73000000000000000000000000000000000000000000000000000000000000006064820152608401610728565b73ffffffffffffffffffffffffffffffffffffffff82166000908152602081905260409020548181101561155a576040517f08c379a000000000000000000000000000000000000000000000000000000000815260206004820152602260248201527f45524332303a206275726e20616d6f756e7420657863656564732062616c616e60448201527f63650000000000000000000000000000000000000000000000000000000000006064820152608401610728565b73ffffffffffffffffffffffffffffffffffffffff83166000818152602081815260408083208686039055600280548790039055518581529192917fddf252ad1be2c89b69c2b068fc378daa952ba7f163c4a11628f55a4df523b3ef910160405180910390a3505050565b60405173ffffffffffffffffffffffffffffffffffffffff831660248201526044810182905261122d9084907fa9059cbb000000000000000000000000000000000000000000000000000000009060640161128c565b600080807fffffffffffffffffffffffffffffffffffffffffffffffffffffffffffffffff858709858702925082811083820303915050806000036116735783828161166957611669611c44565b0492505050610629565b80841161167f57600080fd5b60008486880960026001871981018816978890046003810283188082028403028082028403028082028403028082028403028082028403029081029092039091026000889003889004909101858311909403939093029303949094049190911702949350505050565b600061174a826040518060400160405280602081526020017f5361666545524332303a206c6f772d6c6576656c2063616c6c206661696c65648152508573ffffffffffffffffffffffffffffffffffffffff166117f49092919063ffffffff16565b80519091501561122d57808060200190518101906117689190611c73565b61122d576040517f08c379a000000000000000000000000000000000000000000000000000000000815260206004820152602a60248201527f5361666545524332303a204552433230206f7065726174696f6e20646964206e60448201527f6f742073756363656564000000000000000000000000000000000000000000006064820152608401610728565b606061097e8484600085856000808673ffffffffffffffffffffffffffffffffffffffff1685876040516118289190611c95565b60006040518083038185875af1925050503d8060008114611865576040519150601f19603f3d011682016040523d82523d6000602084013e61186a565b606091505b509150915061187b87838387611886565b979650505050505050565b6060831561191c5782516000036119155773ffffffffffffffffffffffffffffffffffffffff85163b611915576040517f08c379a000000000000000000000000000000000000000000000000000000000815260206004820152601d60248201527f416464726573733a2063616c6c20746f206e6f6e2d636f6e74726163740000006044820152606401610728565b508161097e565b61097e83838151156119315781518083602001fd5b806040517f08c379a00000000000000000000000000000000000000000000000000000000081526004016107289190611989565b60005b83811015611980578181015183820152602001611968565b50506000910152565b60208152600082518060208401526119a8816040850160208701611965565b601f017fffffffffffffffffffffffffffffffffffffffffffffffffffffffffffffffe0169190910160400192915050565b6000602082840312156119ec57600080fd5b5035919050565b803573ffffffffffffffffffffffffffffffffffffffff81168114611a1757600080fd5b919050565b60008060408385031215611a2f57600080fd5b611a38836119f3565b946020939093013593505050565b600080600060608486031215611a5b57600080fd5b611a64846119f3565b9250611a72602085016119f3565b9150604084013590509250925092565b600060208284031215611a9457600080fd5b610629826119f3565b60008060408385031215611ab057600080fd5b82359150611ac0602084016119f3565b90509250929050565b600080600060608486031215611ade57600080fd5b83359250611aee602085016119f3565b9150611afc604085016119f3565b90509250925092565b60008060408385031215611b1857600080fd5b611b21836119f3565b9150611ac0602084016119f3565b600060208284031215611b4157600080fd5b5051919050565b600181811c90821680611b5c57607f821691505b602082108103611b95577f4e487b7100000000000000000000000000000000000000000000000000000000600052602260045260246000fd5b50919050565b7f4e487b7100000000000000000000000000000000000000000000000000000000600052601160045260246000fd5b808201808211156105df576105df611b9b565b60007fffffffffffffffffffffffffffffffffffffffffffffffffffffffffffffffff8203611c0e57611c0e611b9b565b5060010190565b7f4e487b7100000000000000000000000000000000000000000000000000000000600052602160045260246000fd5b7f4e487b7100000000000000000000000000000000000000000000000000000000600052601260045260246000fd5b600060208284031215611c8557600080fd5b8151801515811461062957600080fd5b60008251611ca7818460208701611965565b919091019291505056fea26469706673582212207dc9512e07343ac2f9b1ee18e94071408f04a20174554d4e13960e0d26a4afde64736f6c63430008100033",
    "linkReferences": {}
  },
  "methodIdentifiers": {
    "afterDepositHookCalledCounter()": "fc407ae7",
    "allowance(address,address)": "dd62ed3e",
    "approve(address,uint256)": "095ea7b3",
    "asset()": "38d52e0f",
    "balanceOf(address)": "70a08231",
    "beforeWithdrawHookCalledCounter()": "bc368a8a",
    "convertToAssets(uint256)": "07a2d13a",
    "convertToShares(uint256)": "c6e6f592",
    "decimals()": "313ce567",
    "decreaseAllowance(address,uint256)": "a457c2d7",
    "deposit(uint256,address)": "6e553f65",
    "increaseAllowance(address,uint256)": "39509351",
    "maxDeposit(address)": "402d267d",
    "maxMint(address)": "c63d75b6",
    "maxRedeem(address)": "d905777e",
    "maxWithdraw(address)": "ce96cb77",
    "mint(uint256,address)": "94bf804d",
    "name()": "06fdde03",
    "previewDeposit(uint256)": "ef8b30f7",
    "previewMint(uint256)": "b3d7f6b9",
    "previewRedeem(uint256)": "4cdad506",
    "previewWithdraw(uint256)": "0a28a477",
    "redeem(uint256,address,address)": "ba087652",
    "symbol()": "95d89b41",
    "totalAssets()": "01e1d114",
    "totalSupply()": "18160ddd",
    "transfer(address,uint256)": "a9059cbb",
    "transferFrom(address,address,uint256)": "23b872dd",
    "withdraw(uint256,address,address)": "b460af94"
  },
  "id": 99
}