{
  "abi": [
    {
      "inputs": [
        {
          "internalType": "address",
          "name": "_manager",
          "type": "address"
        }
      ],
      "stateMutability": "nonpayable",
      "type": "constructor"
    },
    {
      "inputs": [],
      "name": "getConstant",
      "outputs": [
        {
          "internalType": "uint256",
          "name": "",
          "type": "uint256"
        }
      ],
      "stateMutability": "view",
      "type": "function"
    },
    {
      "inputs": [
        {
          "internalType": "uint256",
          "name": "dollarsToBurn",
          "type": "uint256"
        },
        {
          "internalType": "uint256",
          "name": "blockHeightDebt",
          "type": "uint256"
        }
      ],
      "name": "getUARAmount",
      "outputs": [
        {
          "internalType": "uint256",
          "name": "",
          "type": "uint256"
        }
      ],
      "stateMutability": "view",
      "type": "function"
    },
    {
      "inputs": [],
      "name": "manager",
      "outputs": [
        {
          "internalType": "contract UbiquityAlgorithmicDollarManager",
          "name": "",
          "type": "address"
        }
      ],
      "stateMutability": "view",
      "type": "function"
    },
    {
      "inputs": [
        {
          "internalType": "uint256",
          "name": "coef",
          "type": "uint256"
        }
      ],
      "name": "setConstant",
      "outputs": [],
      "stateMutability": "nonpayable",
      "type": "function"
    }
  ],
  "bytecode": {
    "object": "0x6080604052670de0b6b3a76400006001553480156200001d57600080fd5b5060405162002b8638038062002b86833981016040819052620000409162000066565b600080546001600160a01b0319166001600160a01b039290921691909117905562000098565b6000602082840312156200007957600080fd5b81516001600160a01b03811681146200009157600080fd5b9392505050565b612ade80620000a86000396000f3fe608060405234801561001057600080fd5b506004361061004c5760003560e01c80633667d85914610051578063481c6a7514610077578063ac506806146100bc578063f13a38a6146100d1575b600080fd5b61006461005f36600461299e565b6100d9565b6040519081526020015b60405180910390f35b6000546100979073ffffffffffffffffffffffffffffffffffffffff1681565b60405173ffffffffffffffffffffffffffffffffffffffff909116815260200161006e565b6100cf6100ca3660046129c0565b61049f565b005b600154610064565b60008060009054906101000a900473ffffffffffffffffffffffffffffffffffffffff1673ffffffffffffffffffffffffffffffffffffffff1663bc3ea0186040518163ffffffff1660e01b8152600401602060405180830381865afa158015610147573d6000803e3d6000fd5b505050506040513d601f19601f8201168201806040525081019061016b91906129d9565b73ffffffffffffffffffffffffffffffffffffffff166318160ddd6040518163ffffffff1660e01b8152600401602060405180830381865afa1580156101b5573d6000803e3d6000fd5b505050506040513d601f19601f820116820180604052508101906101d99190612a0f565b60008054906101000a900473ffffffffffffffffffffffffffffffffffffffff1673ffffffffffffffffffffffffffffffffffffffff166356593ea36040518163ffffffff1660e01b8152600401602060405180830381865afa158015610244573d6000803e3d6000fd5b505050506040513d601f19601f8201168201806040525081019061026891906129d9565b73ffffffffffffffffffffffffffffffffffffffff1663db87b1ff6040518163ffffffff1660e01b8152600401602060405180830381865afa1580156102b2573d6000803e3d6000fd5b505050506040513d601f19601f820116820180604052508101906102d69190612a0f565b10610342576040517f08c379a000000000000000000000000000000000000000000000000000000000815260206004820152601c60248201527f75415220746f20446f6c6c61723a20444542545f544f4f5f484947480000000060448201526064015b60405180910390fd5b600061038b610358670de0b6b3a7640000610624565b610363600154610624565b7fffffffffffffffffffffffffffffffff000000000000000000000000000000001690610692565b9050600061039843610624565b905060006103a98261036387610624565b9050600061042e6104076103de7fffffffffffffffffffffffffffffffff000000000000000000000000000000008516610b13565b7fffffffffffffffffffffffffffffffff00000000000000000000000000000000871690610b43565b7fffffffffffffffffffffffffffffffff0000000000000000000000000000000016610f3b565b9050600061049161046a836104428b610624565b7fffffffffffffffffffffffffffffffff000000000000000000000000000000001690610b43565b7fffffffffffffffffffffffffffffffff0000000000000000000000000000000016610f6f565b955050505050505b92915050565b600054604080517f57f6a22a000000000000000000000000000000000000000000000000000000008152905173ffffffffffffffffffffffffffffffffffffffff909216916391d148549183916357f6a22a916004808201926020929091908290030181865afa158015610517573d6000803e3d6000fd5b505050506040513d601f19601f8201168201806040525081019061053b9190612a0f565b6040517fffffffff0000000000000000000000000000000000000000000000000000000060e084901b1681526004810191909152336024820152604401602060405180830381865afa158015610595573d6000803e3d6000fd5b505050506040513d601f19601f820116820180604052508101906105b99190612a28565b61061f576040517f08c379a000000000000000000000000000000000000000000000000000000000815260206004820152601260248201527f55415243616c633a206e6f742061646d696e00000000000000000000000000006044820152606401610339565b600155565b60008160000361063657506000919050565b8160006106428261102e565b9050607081101561065b578060700382901b915061066e565b607081111561066e576070810382901c91505b613fff0160701b6dffffffffffffffffffffffffffff919091161760801b92915050565b6000617fff60f084811c8216919084901c81169082900361070e5780617fff036106e157507f7fff80000000000000000000000000000000000000000000000000000000000091506104999050565b5050507f800000000000000000000000000000000000000000000000000000000000000081168218610499565b80617fff03610795577dffffffffffffffffffffffffffff0000000000000000000000000000000084161561076857507f7fff80000000000000000000000000000000000000000000000000000000000091506104999050565b5050508082187f800000000000000000000000000000000000000000000000000000000000000016610499565b7f7fffffffffffffffffffffffffffffff000000000000000000000000000000008416600003610863577f7fffffffffffffffffffffffffffffff00000000000000000000000000000000851660000361081457507f7fff80000000000000000000000000000000000000000000000000000000000091506104999050565b5050508082187f8000000000000000000000000000000000000000000000000000000000000000167f7fff00000000000000000000000000000000000000000000000000000000000017610499565b6dffffffffffffffffffffffffffff608085901c16600082900361088a576001915061089c565b6e010000000000000000000000000000175b6dffffffffffffffffffffffffffff608087901c1660008490036109045780156108ff5760006108cb8261102e565b6001955060e2039384017fffffffffffffffffffffffffffffffffffffffffffffffffffffffffffffff8e01939190911b90505b610919565b6e0100000000000000000000000000001760721b5b81818161092857610928612a4a565b04905080600003610990577f800000000000000000000000000000000000000000000000000000000000000087871816610963576000610985565b7f80000000000000000000000000000000000000000000000000000000000000005b945050505050610499565b6d10000000000000000000000000008110156109ae576109ae612a79565b60006e080000000000000000000000000000821015610a0e576e040000000000000000000000000000821015610a03576e0200000000000000000000000000008210156109fc576070610a06565b6071610a06565b60725b60ff16610a17565b610a178261102e565b905083614071018186011115610a3557617fff945060009150610acf565b83818601613ffc011015610a50576000945060009150610acf565b83818601613f8c011015610a9d578385613ffc011115610a7b578385613ffc010382901b9150610a94565b8385613ffc011015610a9457613ffc8585030382901c91505b60009450610acf565b6070811115610ab0576070810382901c91505b6dffffffffffffffffffffffffffff8216915083818601613f8d010394505b81607086901b888a186f8000000000000000000000000000000060801b1660801c6fffffffffffffffffffffffffffffffff16171760801b95505050505050610499565b6000610499610b21836110de565b7f3ffe62e42fefa39ef35793c7673007e5000000000000000000000000000000005b6000617fff60f084811c8216919084901c811690829003610c965780617fff03610c41577fffffffffffffffffffffffffffffffff0000000000000000000000000000000080851690861603610bc0575050507f800000000000000000000000000000000000000000000000000000000000000081168218610499565b7fffffffffffffffffffffffffffffffff00000000000000000000000000000000858518167f800000000000000000000000000000000000000000000000000000000000000003610c1657505050818117610499565b507f7fff80000000000000000000000000000000000000000000000000000000000091506104999050565b7f7fffffffffffffffffffffffffffffff0000000000000000000000000000000084166000036106e157507f7fff80000000000000000000000000000000000000000000000000000000000091506104999050565b80617fff03610d21577f7fffffffffffffffffffffffffffffff000000000000000000000000000000008516600003610cf457507f7fff80000000000000000000000000000000000000000000000000000000000091506104999050565b5050507f800000000000000000000000000000000000000000000000000000000000000082168118610499565b6dffffffffffffffffffffffffffff608086901c166000839003610d485760019250610d5a565b6e010000000000000000000000000000175b6dffffffffffffffffffffffffffff608086901c166000839003610d815760019250610d93565b6e010000000000000000000000000000175b808202915081600003610dd0577f800000000000000000000000000000000000000000000000000000000000000087871816610963576000610985565b9282019260007c0200000000000000000000000000000000000000000000000000000000831015610e35577c0100000000000000000000000000000000000000000000000000000000831015610e2e57610e298361102e565b610e38565b60e0610e38565b60e15b90506140708186011015610e53576000945060009250610ef7565b6140e08186011015610e9657614070851015610e7857846140700383901c9250610e8d565b614070851115610e8d57614070850383901b92505b60009450610ef7565b61c0dd8186011115610eb057617fff945060009250610ef7565b6070811115610ec7576070810383901c9250610eda565b6070811015610eda578060700383901b92505b6dffffffffffffffffffffffffffff831692506140df8186010394505b82607086901b888a186f8000000000000000000000000000000060801b1660801c6fffffffffffffffffffffffffffffffff16171760801b95505050505050610499565b6000610499610f6a837f3fff71547652b82fe1777d0ffda0d23a00000000000000000000000000000000610b43565b611393565b6000617fff60f083901c16613fff811015610f8d5750600092915050565b6f80000000000000000000000000000000608084901c10610fad57600080fd5b6140fe811115610fbc57600080fd5b6e0100000000000000000000000000006dffffffffffffffffffffffffffff608085901c161761406f821015610ff85761406f8290031c611027565b61406f821115611027577fffffffffffffffffffffffffffffffffffffffffffffffffffffffffffffbf9182011b5b9392505050565b600080821161103c57600080fd5b6000700100000000000000000000000000000000831061105e57608092831c92015b68010000000000000000831061107657604092831c92015b640100000000831061108a57602092831c92015b62010000831061109c57601092831c92015b61010083106110ad57600892831c92015b601083106110bd57600492831c92015b600483106110cd57600292831c92015b600283106104995760010192915050565b60006f80000000000000000000000000000000608083901c111561112357507f7fff800000000000000000000000000000000000000000000000000000000000919050565b7fffffffffffffffffffffffffffffffff0000000000000000000000000000000082167f3fff0000000000000000000000000000000000000000000000000000000000000361117457506000919050565b617fff60f083901c81169081900361118d575090919050565b6dffffffffffffffffffffffffffff608084901c1660008290036111b457600191506111c6565b6e010000000000000000000000000000175b806000036111f757507fffff0000000000000000000000000000000000000000000000000000000000009392505050565b600061406f81613fff851061123a5750600f9290921b91600091507fffffffffffffffffffffffffffffffffffffffffffffffffffffffffffffc0018401611284565b600192506e01000000000000000000000000000084106112675784613ffe039050600f84901b9350611284565b60006112728561102e565b607f8190039590951b9461406d039150505b836f80000000000000000000000000000000036112c65782156112a5576001015b60006112b08261102e565b60700390508082901b915080830392505061133d565b6000836112d45760006112d7565b60015b60ff1690505b6e01000000000000000000000000000082101561133b5793800260ff81901c607f81019190911c947fffffffffffffffffffffffffffffffffffffffffffffffffffffffffffffffff939093019260019290921b90821801906112dd565b505b806dffffffffffffffffffffffffffff16607083901b8461135f576000611371565b6f800000000000000000000000000000005b6fffffffffffffffffffffffffffffffff16171760801b979650505050505050565b60006f80000000000000000000000000000000608083901c90811190617fff60f085901c8116916dffffffffffffffffffffffffffff1690821480156113d857508015155b1561140757507f7fff800000000000000000000000000000000000000000000000000000000000949350505050565b61400d821115611448578261143c577f7fff00000000000000000000000000000000000000000000000000000000000061143f565b60005b95945050505050565b613f7f82101561147c57507f3fff000000000000000000000000000000000000000000000000000000000000949350505050565b8160000361148d576001915061149f565b6e010000000000000000000000000000175b613fef8211156114d2577fffffffffffffffffffffffffffffffffffffffffffffffffffffffffffffc01182011b6114e4565b613fef8210156114e457613fef8290031c5b828015611502575071406e0000000000000000000000000000000081115b1561151257506000949350505050565b821580156115315750713fffffffffffffffffffffffffffffffffff81115b1561156057507f7fff000000000000000000000000000000000000000000000000000000000000949350505050565b6fffffffffffffffffffffffffffffffff81169060801c83801561158357508115155b1561158f579019906001015b6f80000000000000000000000000000000828116156115bf5770016a09e667f3bcc908b2fb1366ea957d3e0260801c5b6f400000000000000000000000000000008316156115ee577001306fe0a31b7152de8d5a46305c85edec0260801c5b6f2000000000000000000000000000000083161561161d577001172b83c7d517adcdf7c8c50eb14a791f0260801c5b6f1000000000000000000000000000000083161561164c5770010b5586cf9890f6298b92b71842a983630260801c5b6f0800000000000000000000000000000083161561167b577001059b0d31585743ae7c548eb68ca417fd0260801c5b6f040000000000000000000000000000008316156116aa57700102c9a3e778060ee6f7caca4f7a29bde80260801c5b6f020000000000000000000000000000008316156116d95770010163da9fb33356d84a66ae336dcdfa3f0260801c5b6f0100000000000000000000000000000083161561170857700100b1afa5abcbed6129ab13ec11dc95430260801c5b6e8000000000000000000000000000008316156117365770010058c86da1c09ea1ff19d294cf2f679b0260801c5b6e400000000000000000000000000000831615611764577001002c605e2e8cec506d21bfc89a23a00f0260801c5b6e20000000000000000000000000000083161561179257700100162f3904051fa128bca9c55c31e5df0260801c5b6e1000000000000000000000000000008316156117c0577001000b175effdc76ba38e31671ca9397250260801c5b6e0800000000000000000000000000008316156117ee57700100058ba01fb9f96d6cacd4b180917c3d0260801c5b6e04000000000000000000000000000083161561181c5770010002c5cc37da9491d0985c348c68e7b30260801c5b6e02000000000000000000000000000083161561184a577001000162e525ee054754457d59952920260260801c5b6e0100000000000000000000000000008316156118785770010000b17255775c040618bf4a4ade83fc0260801c5b6d80000000000000000000000000008316156118a5577001000058b91b5bc9ae2eed81e9b7d4cfab0260801c5b6d40000000000000000000000000008316156118d257700100002c5c89d5ec6ca4d7c8acc017b7c90260801c5b6d20000000000000000000000000008316156118ff5770010000162e43f4f831060e02d839a9d16d0260801c5b6d100000000000000000000000000083161561192c57700100000b1721bcfc99d9f890ea069117630260801c5b6d08000000000000000000000000008316156119595770010000058b90cf1e6d97f9ca14dbcc16280260801c5b6d0400000000000000000000000000831615611986577001000002c5c863b73f016468f6bac5ca2b0260801c5b6d02000000000000000000000000008316156119b357700100000162e430e5a18f6119e3c02282a50260801c5b6d01000000000000000000000000008316156119e0577001000000b1721835514b86e6d96efd1bfe0260801c5b6c80000000000000000000000000831615611a0c57700100000058b90c0b48c6be5df846c5b2ef0260801c5b6c40000000000000000000000000831615611a385770010000002c5c8601cc6b9e94213c72737a0260801c5b6c20000000000000000000000000831615611a64577001000000162e42fff037df38aa2b219f060260801c5b6c10000000000000000000000000831615611a905770010000000b17217fba9c739aa5819f44f90260801c5b6c08000000000000000000000000831615611abc577001000000058b90bfcdee5acd3c1cedc8230260801c5b6c04000000000000000000000000831615611ae857700100000002c5c85fe31f35a6a30da1be500260801c5b6c02000000000000000000000000831615611b145770010000000162e42ff0999ce3541b9fffcf0260801c5b6c01000000000000000000000000831615611b4057700100000000b17217f80f4ef5aadda455540260801c5b6b800000000000000000000000831615611b6b5770010000000058b90bfbf8479bd5a81b51ad0260801c5b6b400000000000000000000000831615611b96577001000000002c5c85fdf84bd62ae30a74cc0260801c5b6b200000000000000000000000831615611bc157700100000000162e42fefb2fed257559bdaa0260801c5b6b100000000000000000000000831615611bec577001000000000b17217f7d5a7716bba4a9ae0260801c5b6b080000000000000000000000831615611c1757700100000000058b90bfbe9ddbac5e109cce0260801c5b6b040000000000000000000000831615611c425770010000000002c5c85fdf4b15de6f17eb0d0260801c5b6b020000000000000000000000831615611c6d577001000000000162e42fefa494f1478fde050260801c5b6b010000000000000000000000831615611c985770010000000000b17217f7d20cf927c8e94c0260801c5b6a8000000000000000000000831615611cc2577001000000000058b90bfbe8f71cb4e4b33d0260801c5b6a4000000000000000000000831615611cec57700100000000002c5c85fdf477b662b269450260801c5b6a2000000000000000000000831615611d165770010000000000162e42fefa3ae53369388c0260801c5b6a1000000000000000000000831615611d4057700100000000000b17217f7d1d351a389d400260801c5b6a0800000000000000000000831615611d6a5770010000000000058b90bfbe8e8b2d3d4ede0260801c5b6a0400000000000000000000831615611d94577001000000000002c5c85fdf4741bea6e77e0260801c5b6a0200000000000000000000831615611dbe57700100000000000162e42fefa39fe95583c20260801c5b6a0100000000000000000000831615611de8577001000000000000b17217f7d1cfb72b45e10260801c5b6980000000000000000000831615611e1157700100000000000058b90bfbe8e7cc35c3f00260801c5b6940000000000000000000831615611e3a5770010000000000002c5c85fdf473e242ea380260801c5b6920000000000000000000831615611e63577001000000000000162e42fefa39f02b772c0260801c5b6910000000000000000000831615611e8c5770010000000000000b17217f7d1cf7d83c1a0260801c5b6908000000000000000000831615611eb5577001000000000000058b90bfbe8e7bdcbe2e0260801c5b6904000000000000000000831615611ede57700100000000000002c5c85fdf473dea871f0260801c5b6902000000000000000000831615611f075770010000000000000162e42fefa39ef44d910260801c5b6901000000000000000000831615611f3057700100000000000000b17217f7d1cf79e9490260801c5b68800000000000000000831615611f585770010000000000000058b90bfbe8e7bce5440260801c5b68400000000000000000831615611f80577001000000000000002c5c85fdf473de6eca0260801c5b68200000000000000000831615611fa857700100000000000000162e42fefa39ef366f0260801c5b68100000000000000000831615611fd0577001000000000000000b17217f7d1cf79afa0260801c5b68080000000000000000831615611ff857700100000000000000058b90bfbe8e7bcd6d0260801c5b680400000000000000008316156120205770010000000000000002c5c85fdf473de6b20260801c5b68020000000000000000831615612048577001000000000000000162e42fefa39ef3580260801c5b680100000000000000008316156120705770010000000000000000b17217f7d1cf79ab0260801c5b678000000000000000831615612097577001000000000000000058b90bfbe8e7bcd50260801c5b6740000000000000008316156120be57700100000000000000002c5c85fdf473de6a0260801c5b6720000000000000008316156120e55770010000000000000000162e42fefa39ef340260801c5b67100000000000000083161561210c57700100000000000000000b17217f7d1cf7990260801c5b6708000000000000008316156121335770010000000000000000058b90bfbe8e7bcc0260801c5b67040000000000000083161561215a577001000000000000000002c5c85fdf473de50260801c5b67020000000000000083161561218157700100000000000000000162e42fefa39ef20260801c5b6701000000000000008316156121a8577001000000000000000000b17217f7d1cf780260801c5b66800000000000008316156121ce57700100000000000000000058b90bfbe8e7bb0260801c5b66400000000000008316156121f45770010000000000000000002c5c85fdf473dd0260801c5b662000000000000083161561221a577001000000000000000000162e42fefa39ee0260801c5b66100000000000008316156122405770010000000000000000000b17217f7d1cf60260801c5b6608000000000000831615612266577001000000000000000000058b90bfbe8e7a0260801c5b660400000000000083161561228c57700100000000000000000002c5c85fdf473c0260801c5b66020000000000008316156122b25770010000000000000000000162e42fefa39d0260801c5b66010000000000008316156122d857700100000000000000000000b17217f7d1ce0260801c5b658000000000008316156122fd5770010000000000000000000058b90bfbe8e60260801c5b65400000000000831615612322577001000000000000000000002c5c85fdf4720260801c5b6520000000000083161561234757700100000000000000000000162e42fefa380260801c5b6510000000000083161561236c577001000000000000000000000b17217f7d1b0260801c5b6508000000000083161561239157700100000000000000000000058b90bfbe8d0260801c5b650400000000008316156123b65770010000000000000000000002c5c85fdf460260801c5b650200000000008316156123db577001000000000000000000000162e42fefa20260801c5b650100000000008316156124005770010000000000000000000000b17217f7d00260801c5b648000000000831615612424577001000000000000000000000058b90bfbe70260801c5b64400000000083161561244857700100000000000000000000002c5c85fdf30260801c5b64200000000083161561246c5770010000000000000000000000162e42fef90260801c5b64100000000083161561249057700100000000000000000000000b17217f7c0260801c5b6408000000008316156124b45770010000000000000000000000058b90bfbd0260801c5b6404000000008316156124d8577001000000000000000000000002c5c85fde0260801c5b6402000000008316156124fc57700100000000000000000000000162e42fee0260801c5b640100000000831615612520577001000000000000000000000000b17217f60260801c5b638000000083161561254357700100000000000000000000000058b90bfa0260801c5b63400000008316156125665770010000000000000000000000002c5c85fc0260801c5b6320000000831615612589577001000000000000000000000000162e42fd0260801c5b63100000008316156125ac5770010000000000000000000000000b17217e0260801c5b63080000008316156125cf577001000000000000000000000000058b90be0260801c5b63040000008316156125f257700100000000000000000000000002c5c85e0260801c5b63020000008316156126155770010000000000000000000000000162e42e0260801c5b630100000083161561263857700100000000000000000000000000b172160260801c5b6280000083161561265a5770010000000000000000000000000058b90a0260801c5b6240000083161561267c577001000000000000000000000000002c5c840260801c5b6220000083161561269e57700100000000000000000000000000162e410260801c5b621000008316156126c0577001000000000000000000000000000b17200260801c5b620800008316156126e257700100000000000000000000000000058b8f0260801c5b620400008316156127045770010000000000000000000000000002c5c70260801c5b62020000831615612726577001000000000000000000000000000162e30260801c5b620100008316156127485770010000000000000000000000000000b1710260801c5b618000831615612769577001000000000000000000000000000058b80260801c5b61400083161561278a57700100000000000000000000000000002c5b0260801c5b6120008316156127ab5770010000000000000000000000000000162d0260801c5b6110008316156127cc57700100000000000000000000000000000b160260801c5b6108008316156127ed5770010000000000000000000000000000058a0260801c5b61040083161561280e577001000000000000000000000000000002c40260801c5b61020083161561282f577001000000000000000000000000000001610260801c5b610100831615612850577001000000000000000000000000000000b00260801c5b6080831615612870577001000000000000000000000000000000570260801c5b60408316156128905770010000000000000000000000000000002b0260801c5b60208316156128b0577001000000000000000000000000000000150260801c5b60108316156128d05770010000000000000000000000000000000a0260801c5b60088316156128f0577001000000000000000000000000000000040260801c5b6004831615612910577001000000000000000000000000000000010260801c5b8461293857600f81901c6dffffffffffffffffffffffffffff169050613fff8201915061298b565b613ffe821161296457600f81901c6dffffffffffffffffffffffffffff16905081613fff03915061298b565b6000917fffffffffffffffffffffffffffffffffffffffffffffffffffffffffffffc011011c5b60709190911b1760801b95945050505050565b600080604083850312156129b157600080fd5b50508035926020909101359150565b6000602082840312156129d257600080fd5b5035919050565b6000602082840312156129eb57600080fd5b815173ffffffffffffffffffffffffffffffffffffffff8116811461102757600080fd5b600060208284031215612a2157600080fd5b5051919050565b600060208284031215612a3a57600080fd5b8151801515811461102757600080fd5b7f4e487b7100000000000000000000000000000000000000000000000000000000600052601260045260246000fd5b7f4e487b7100000000000000000000000000000000000000000000000000000000600052600160045260246000fdfea26469706673582212200d23e454f49b5e625c3a93085223532cf03836b70cb4693087eacc937845e73164736f6c63430008100033",
    "linkReferences": {}
  },
  "methodIdentifiers": {
    "getConstant()": "f13a38a6",
    "getUARAmount(uint256,uint256)": "3667d859",
    "manager()": "481c6a75",
    "setConstant(uint256)": "ac506806"
  },
  "id": 62
}