{
  "abi": [
    {
      "inputs": [
        {
          "internalType": "address",
          "name": "_token0",
          "type": "address"
        },
        {
          "internalType": "address",
          "name": "_token1",
          "type": "address"
        }
      ],
      "stateMutability": "nonpayable",
      "type": "constructor"
    },
    {
      "inputs": [
        {
          "internalType": "uint256",
          "name": "",
          "type": "uint256"
        }
      ],
      "name": "balances",
      "outputs": [
        {
          "internalType": "uint256",
          "name": "",
          "type": "uint256"
        }
      ],
      "stateMutability": "view",
      "type": "function"
    },
    {
      "inputs": [],
      "name": "block_timestamp_last",
      "outputs": [
        {
          "internalType": "uint256",
          "name": "",
          "type": "uint256"
        }
      ],
      "stateMutability": "view",
      "type": "function"
    },
    {
      "inputs": [
        {
          "internalType": "uint256",
          "name": "",
          "type": "uint256"
        }
      ],
      "name": "coins",
      "outputs": [
        {
          "internalType": "address",
          "name": "",
          "type": "address"
        }
      ],
      "stateMutability": "view",
      "type": "function"
    },
    {
      "inputs": [
        {
          "internalType": "uint256",
          "name": "",
          "type": "uint256"
        }
      ],
      "name": "dy_values",
      "outputs": [
        {
          "internalType": "uint256",
          "name": "",
          "type": "uint256"
        }
      ],
      "stateMutability": "view",
      "type": "function"
    },
    {
      "inputs": [
        {
          "internalType": "int128",
          "name": "i",
          "type": "int128"
        },
        {
          "internalType": "int128",
          "name": "j",
          "type": "int128"
        },
        {
          "internalType": "uint256",
          "name": "dx",
          "type": "uint256"
        },
        {
          "internalType": "uint256[2]",
          "name": "_balances",
          "type": "uint256[2]"
        }
      ],
      "name": "get_dy",
      "outputs": [
        {
          "internalType": "uint256",
          "name": "",
          "type": "uint256"
        }
      ],
      "stateMutability": "view",
      "type": "function"
    },
    {
      "inputs": [],
      "name": "get_price_cumulative_last",
      "outputs": [
        {
          "internalType": "uint256",
          "name": "",
          "type": "uint256"
        }
      ],
      "stateMutability": "view",
      "type": "function"
    },
    {
      "inputs": [],
      "name": "get_twap_balances",
      "outputs": [
        {
          "internalType": "uint256[2]",
          "name": "",
          "type": "uint256[2]"
        }
      ],
      "stateMutability": "view",
      "type": "function"
    },
    {
      "inputs": [
        {
          "internalType": "uint256",
          "name": "_price_cumulative_last",
          "type": "uint256"
        },
        {
          "internalType": "uint256",
          "name": "_last_block_timestamp",
          "type": "uint256"
        },
        {
          "internalType": "uint256[2]",
          "name": "_twap_balances",
          "type": "uint256[2]"
        },
        {
          "internalType": "uint256[2]",
          "name": "_dy_values",
          "type": "uint256[2]"
        }
      ],
      "name": "updateMockParams",
      "outputs": [],
      "stateMutability": "nonpayable",
      "type": "function"
    }
  ],
  "bytecode": {
    "object": "0x60c0604052678ac7230489e80000608081815260a0919091526100269060049060026100c0565b506040805180820190915268056bc75e2d631000008082526020820152610051906006906002610109565b50678ac7230489e8000060085561271060095534801561007057600080fd5b5060405161065938038061065983398101604081905261008f91610173565b600280546001600160a01b039384166001600160a01b031991821617909155600380549290931691161790556101a6565b82600281019282156100f9579160200282015b828111156100f957825182906001600160401b03169055916020019190600101906100d3565b50610105929150610142565b5090565b82600281019282156100f9579160200282015b828111156100f957825182906001600160481b031690559160200191906001019061011c565b5b808211156101055760008155600101610143565b80516001600160a01b038116811461016e57600080fd5b919050565b6000806040838503121561018657600080fd5b61018f83610157565b915061019d60208401610157565b90509250929050565b6104a4806101b56000396000f3fe608060405234801561001057600080fd5b50600436106100885760003560e01c80634903b0d11161005b5780634903b0d1146100e957806363543f06146100fc5780637e42fc0c14610104578063c66106571461011757600080fd5b806323867d711461008d5780632cd7dcae146100ab5780633c9c0748146100cc5780634469e30e146100e1575b600080fd5b61009561014f565b6040516100a291906102d5565b60405180910390f35b6100be6100b9366004610306565b610189565b6040519081526020016100a2565b6100df6100da366004610336565b6101a0565b005b6008546100be565b6100be6100f7366004610306565b6101cc565b6009546100be565b6100be6101123660046103c4565b6101dc565b61012a610125366004610306565b610237565b60405173ffffffffffffffffffffffffffffffffffffffff90911681526020016100a2565b610157610264565b60408051808201918290529060049060029082845b81548152602001906001019080831161016c575050505050905090565b6006816002811061019957600080fd5b0154905081565b600884905560098390556101b76004836002610282565b506101c56006826002610282565b5050505050565b6004816002811061019957600080fd5b600084600f0b60001480156101f4575083600f0b6001145b1561020757600660015b0154905061022f565b84600f0b600114801561021d575083600f0b6000145b1561022b57600660006101fe565b5060005b949350505050565b6002816002811061024757600080fd5b015473ffffffffffffffffffffffffffffffffffffffff16905081565b60405180604001604052806002906020820280368337509192915050565b82600281019282156102b0579160200282015b828111156102b0578235825591602001919060010190610295565b506102bc9291506102c0565b5090565b5b808211156102bc57600081556001016102c1565b60408101818360005b60028110156102fd5781518352602092830192909101906001016102de565b50505092915050565b60006020828403121561031857600080fd5b5035919050565b806040810183101561033057600080fd5b92915050565b60008060008060c0858703121561034c57600080fd5b8435935060208501359250610364866040870161031f565b9150610373866080870161031f565b905092959194509250565b8035600f81900b811461039057600080fd5b919050565b7f4e487b7100000000000000000000000000000000000000000000000000000000600052604160045260246000fd5b60008060008060a085870312156103da57600080fd5b6103e38561037e565b935060206103f281870161037e565b93506040860135925086607f87011261040a57600080fd5b6040516040810181811067ffffffffffffffff8211171561042d5761042d610395565b6040528060a088018981111561044257600080fd5b606089015b8181101561045e5780358352918401918401610447565b509699959850939650945050505056fea26469706673582212205beaea9aafeb1a0f38ce1ce28f3ef05e7e0bb6dc49e9709b714291d103b936c364736f6c63430008090033",
    "linkReferences": {}
  },
  "methodIdentifiers": {
    "balances(uint256)": "4903b0d1",
    "block_timestamp_last()": "63543f06",
    "coins(uint256)": "c6610657",
    "dy_values(uint256)": "2cd7dcae",
    "get_dy(int128,int128,uint256,uint256[2])": "7e42fc0c",
    "get_price_cumulative_last()": "4469e30e",
    "get_twap_balances()": "23867d71",
    "updateMockParams(uint256,uint256,uint256[2],uint256[2])": "3c9c0748"
  },
  "id": 55
}